{
	"contracts/FundMe.sol": {
		"fundMe": {
			"abi": [
				{
					"inputs": [
						{
							"internalType": "address",
							"name": "",
							"type": "address"
						}
					],
					"name": "addressToAmountFunded",
					"outputs": [
						{
							"internalType": "uint256",
							"name": "",
							"type": "uint256"
						}
					],
					"stateMutability": "view",
					"type": "function"
				},
				{
					"inputs": [],
					"name": "fund",
					"outputs": [],
					"stateMutability": "payable",
					"type": "function"
				},
				{
					"inputs": [
						{
							"internalType": "uint256",
							"name": "",
							"type": "uint256"
						}
					],
					"name": "funders",
					"outputs": [
						{
							"internalType": "address",
							"name": "",
							"type": "address"
						}
					],
					"stateMutability": "view",
					"type": "function"
				},
				{
					"inputs": [
						{
							"internalType": "uint256",
							"name": "ethAmount",
							"type": "uint256"
						}
					],
					"name": "getConversationRate",
					"outputs": [
						{
							"internalType": "uint256",
							"name": "",
							"type": "uint256"
						}
					],
					"stateMutability": "view",
					"type": "function"
				},
				{
					"inputs": [],
					"name": "getPrice",
					"outputs": [
						{
							"internalType": "uint256",
							"name": "",
							"type": "uint256"
						}
					],
					"stateMutability": "view",
					"type": "function"
				},
				{
					"inputs": [],
					"name": "getVersion",
					"outputs": [
						{
							"internalType": "uint256",
							"name": "",
							"type": "uint256"
						}
					],
					"stateMutability": "view",
					"type": "function"
				},
				{
					"inputs": [],
					"name": "miminumUsd",
					"outputs": [
						{
							"internalType": "uint256",
							"name": "",
							"type": "uint256"
						}
					],
					"stateMutability": "view",
					"type": "function"
				}
			],
			"devdoc": {
				"kind": "dev",
				"methods": {},
				"version": 1
			},
			"evm": {
				"assembly": "    /* \"contracts/FundMe.sol\":1413:3394  contract fundMe {... */\n  mstore(0x40, 0x80)\n    /* \"contracts/FundMe.sol\":1465:1474  50 * 1e18 */\n  0x02b5e3af16b1880000\n    /* \"contracts/FundMe.sol\":1437:1474  uint256 public miminumUsd = 50 * 1e18 */\n  0x00\n  sstore\n    /* \"contracts/FundMe.sol\":1413:3394  contract fundMe {... */\n  callvalue\n  dup1\n  iszero\n  tag_1\n  jumpi\n  0x00\n  dup1\n  revert\ntag_1:\n  pop\n  dataSize(sub_0)\n  dup1\n  dataOffset(sub_0)\n  0x00\n  codecopy\n  0x00\n  return\nstop\n\nsub_0: assembly {\n        /* \"contracts/FundMe.sol\":1413:3394  contract fundMe {... */\n      mstore(0x40, 0x80)\n      jumpi(tag_1, lt(calldatasize, 0x04))\n      shr(0xe0, calldataload(0x00))\n      dup1\n      0x75263f22\n      gt\n      tag_9\n      jumpi\n      dup1\n      0x75263f22\n      eq\n      tag_5\n      jumpi\n      dup1\n      0x98d5fdca\n      eq\n      tag_6\n      jumpi\n      dup1\n      0xb60d4288\n      eq\n      tag_7\n      jumpi\n      dup1\n      0xdc0d3dff\n      eq\n      tag_8\n      jumpi\n      jump(tag_1)\n    tag_9:\n      dup1\n      0x0d8e6e2c\n      eq\n      tag_2\n      jumpi\n      dup1\n      0x3e47d6f3\n      eq\n      tag_3\n      jumpi\n      dup1\n      0x4c03815c\n      eq\n      tag_4\n      jumpi\n    tag_1:\n      0x00\n      dup1\n      revert\n        /* \"contracts/FundMe.sol\":2930:3134  function getVersion() public view returns (uint256) {... */\n    tag_2:\n      callvalue\n      dup1\n      iszero\n      tag_10\n      jumpi\n      0x00\n      dup1\n      revert\n    tag_10:\n      pop\n      tag_11\n      tag_12\n      jump\t// in\n    tag_11:\n      mload(0x40)\n      tag_13\n      swap2\n      swap1\n      tag_14\n      jump\t// in\n    tag_13:\n      mload(0x40)\n      dup1\n      swap2\n      sub\n      swap1\n      return\n        /* \"contracts/FundMe.sol\":1585:1641  mapping(address => uint256) public addressToAmountFunded */\n    tag_3:\n      callvalue\n      dup1\n      iszero\n      tag_15\n      jumpi\n      0x00\n      dup1\n      revert\n    tag_15:\n      pop\n      tag_16\n      0x04\n      dup1\n      calldatasize\n      sub\n      dup2\n      add\n      swap1\n      tag_17\n      swap2\n      swap1\n      tag_18\n      jump\t// in\n    tag_17:\n      tag_19\n      jump\t// in\n    tag_16:\n      mload(0x40)\n      tag_20\n      swap2\n      swap1\n      tag_14\n      jump\t// in\n    tag_20:\n      mload(0x40)\n      dup1\n      swap2\n      sub\n      swap1\n      return\n        /* \"contracts/FundMe.sol\":3140:3358  function getConversationRate(uint256 ethAmount) public view returns(uint256) {... */\n    tag_4:\n      callvalue\n      dup1\n      iszero\n      tag_21\n      jumpi\n      0x00\n      dup1\n      revert\n    tag_21:\n      pop\n      tag_22\n      0x04\n      dup1\n      calldatasize\n      sub\n      dup2\n      add\n      swap1\n      tag_23\n      swap2\n      swap1\n      tag_24\n      jump\t// in\n    tag_23:\n      tag_25\n      jump\t// in\n    tag_22:\n      mload(0x40)\n      tag_26\n      swap2\n      swap1\n      tag_14\n      jump\t// in\n    tag_26:\n      mload(0x40)\n      dup1\n      swap2\n      sub\n      swap1\n      return\n        /* \"contracts/FundMe.sol\":1437:1474  uint256 public miminumUsd = 50 * 1e18 */\n    tag_5:\n      callvalue\n      dup1\n      iszero\n      tag_27\n      jumpi\n      0x00\n      dup1\n      revert\n    tag_27:\n      pop\n      tag_28\n      tag_29\n      jump\t// in\n    tag_28:\n      mload(0x40)\n      tag_30\n      swap2\n      swap1\n      tag_14\n      jump\t// in\n    tag_30:\n      mload(0x40)\n      dup1\n      swap2\n      sub\n      swap1\n      return\n        /* \"contracts/FundMe.sol\":2351:2924  function getPrice() public view returns(uint256){... */\n    tag_6:\n      callvalue\n      dup1\n      iszero\n      tag_31\n      jumpi\n      0x00\n      dup1\n      revert\n    tag_31:\n      pop\n      tag_32\n      tag_33\n      jump\t// in\n    tag_32:\n      mload(0x40)\n      tag_34\n      swap2\n      swap1\n      tag_14\n      jump\t// in\n    tag_34:\n      mload(0x40)\n      dup1\n      swap2\n      sub\n      swap1\n      return\n        /* \"contracts/FundMe.sol\":1708:2345  function fund() public payable {... */\n    tag_7:\n      tag_35\n      tag_36\n      jump\t// in\n    tag_35:\n      stop\n        /* \"contracts/FundMe.sol\":1507:1531  address[] public funders */\n    tag_8:\n      callvalue\n      dup1\n      iszero\n      tag_37\n      jumpi\n      0x00\n      dup1\n      revert\n    tag_37:\n      pop\n      tag_38\n      0x04\n      dup1\n      calldatasize\n      sub\n      dup2\n      add\n      swap1\n      tag_39\n      swap2\n      swap1\n      tag_24\n      jump\t// in\n    tag_39:\n      tag_40\n      jump\t// in\n    tag_38:\n      mload(0x40)\n      tag_41\n      swap2\n      swap1\n      tag_42\n      jump\t// in\n    tag_41:\n      mload(0x40)\n      dup1\n      swap2\n      sub\n      swap1\n      return\n        /* \"contracts/FundMe.sol\":2930:3134  function getVersion() public view returns (uint256) {... */\n    tag_12:\n        /* \"contracts/FundMe.sol\":2973:2980  uint256 */\n      0x00\n        /* \"contracts/FundMe.sol\":2992:3023  AggregatorV3Interface priceFeed */\n      dup1\n        /* \"contracts/FundMe.sol\":3048:3090  0xD4a33860578De61DBAbDc8BFdb98FD742fA7028e */\n      0xd4a33860578de61dbabdc8bfdb98fd742fa7028e\n        /* \"contracts/FundMe.sol\":2992:3091  AggregatorV3Interface priceFeed = AggregatorV3Interface(0xD4a33860578De61DBAbDc8BFdb98FD742fA7028e) */\n      swap1\n      pop\n        /* \"contracts/FundMe.sol\":3108:3117  priceFeed */\n      dup1\n        /* \"contracts/FundMe.sol\":3108:3125  priceFeed.version */\n      0xffffffffffffffffffffffffffffffffffffffff\n      and\n      0x54fd4d50\n        /* \"contracts/FundMe.sol\":3108:3127  priceFeed.version() */\n      mload(0x40)\n      dup2\n      0xffffffff\n      and\n      0xe0\n      shl\n      dup2\n      mstore\n      0x04\n      add\n      0x20\n      mload(0x40)\n      dup1\n      dup4\n      sub\n      dup2\n      dup7\n      dup1\n      extcodesize\n      iszero\n      dup1\n      iszero\n      tag_44\n      jumpi\n      0x00\n      dup1\n      revert\n    tag_44:\n      pop\n      gas\n      staticcall\n      iszero\n      dup1\n      iszero\n      tag_46\n      jumpi\n      returndatasize\n      0x00\n      dup1\n      returndatacopy\n      revert(0x00, returndatasize)\n    tag_46:\n      pop\n      pop\n      pop\n      pop\n      mload(0x40)\n      returndatasize\n      not(0x1f)\n      0x1f\n      dup3\n      add\n      and\n      dup3\n      add\n      dup1\n      0x40\n      mstore\n      pop\n      dup2\n      add\n      swap1\n      tag_47\n      swap2\n      swap1\n      tag_48\n      jump\t// in\n    tag_47:\n        /* \"contracts/FundMe.sol\":3101:3127  return priceFeed.version() */\n      swap2\n      pop\n      pop\n        /* \"contracts/FundMe.sol\":2930:3134  function getVersion() public view returns (uint256) {... */\n      swap1\n      jump\t// out\n        /* \"contracts/FundMe.sol\":1585:1641  mapping(address => uint256) public addressToAmountFunded */\n    tag_19:\n      mstore(0x20, 0x02)\n      dup1\n      0x00\n      mstore\n      keccak256(0x00, 0x40)\n      0x00\n      swap2\n      pop\n      swap1\n      pop\n      sload\n      dup2\n      jump\t// out\n        /* \"contracts/FundMe.sol\":3140:3358  function getConversationRate(uint256 ethAmount) public view returns(uint256) {... */\n    tag_25:\n        /* \"contracts/FundMe.sol\":3208:3215  uint256 */\n      0x00\n        /* \"contracts/FundMe.sol\":3227:3243  uint256 ethPrice */\n      dup1\n        /* \"contracts/FundMe.sol\":3246:3256  getPrice() */\n      tag_50\n        /* \"contracts/FundMe.sol\":3246:3254  getPrice */\n      tag_33\n        /* \"contracts/FundMe.sol\":3246:3256  getPrice() */\n      jump\t// in\n    tag_50:\n        /* \"contracts/FundMe.sol\":3227:3256  uint256 ethPrice = getPrice() */\n      swap1\n      pop\n        /* \"contracts/FundMe.sol\":3266:3288  uint256 ethAmountInUsd */\n      0x00\n        /* \"contracts/FundMe.sol\":3316:3320  1e18 */\n      0x0de0b6b3a7640000\n        /* \"contracts/FundMe.sol\":3303:3312  ethAmount */\n      dup5\n        /* \"contracts/FundMe.sol\":3292:3300  ethPrice */\n      dup4\n        /* \"contracts/FundMe.sol\":3292:3312  ethPrice * ethAmount */\n      tag_51\n      swap2\n      swap1\n      tag_52\n      jump\t// in\n    tag_51:\n        /* \"contracts/FundMe.sol\":3291:3320  (ethPrice * ethAmount) / 1e18 */\n      tag_53\n      swap2\n      swap1\n      tag_54\n      jump\t// in\n    tag_53:\n        /* \"contracts/FundMe.sol\":3266:3320  uint256 ethAmountInUsd = (ethPrice * ethAmount) / 1e18 */\n      swap1\n      pop\n        /* \"contracts/FundMe.sol\":3337:3351  ethAmountInUsd */\n      dup1\n        /* \"contracts/FundMe.sol\":3330:3351  return ethAmountInUsd */\n      swap3\n      pop\n      pop\n      pop\n        /* \"contracts/FundMe.sol\":3140:3358  function getConversationRate(uint256 ethAmount) public view returns(uint256) {... */\n      swap2\n      swap1\n      pop\n      jump\t// out\n        /* \"contracts/FundMe.sol\":1437:1474  uint256 public miminumUsd = 50 * 1e18 */\n    tag_29:\n      sload(0x00)\n      dup2\n      jump\t// out\n        /* \"contracts/FundMe.sol\":2351:2924  function getPrice() public view returns(uint256){... */\n    tag_33:\n        /* \"contracts/FundMe.sol\":2391:2398  uint256 */\n      0x00\n        /* \"contracts/FundMe.sol\":2536:2567  AggregatorV3Interface priceFeed */\n      dup1\n        /* \"contracts/FundMe.sol\":2592:2634  0xD4a33860578De61DBAbDc8BFdb98FD742fA7028e */\n      0xd4a33860578de61dbabdc8bfdb98fd742fa7028e\n        /* \"contracts/FundMe.sol\":2536:2635  AggregatorV3Interface priceFeed = AggregatorV3Interface(0xD4a33860578De61DBAbDc8BFdb98FD742fA7028e) */\n      swap1\n      pop\n        /* \"contracts/FundMe.sol\":2688:2700  int256 price */\n      0x00\n        /* \"contracts/FundMe.sol\":2707:2716  priceFeed */\n      dup2\n        /* \"contracts/FundMe.sol\":2707:2732  priceFeed.latestRoundData */\n      0xffffffffffffffffffffffffffffffffffffffff\n      and\n      0xfeaf968c\n        /* \"contracts/FundMe.sol\":2707:2734  priceFeed.latestRoundData() */\n      mload(0x40)\n      dup2\n      0xffffffff\n      and\n      0xe0\n      shl\n      dup2\n      mstore\n      0x04\n      add\n      0xa0\n      mload(0x40)\n      dup1\n      dup4\n      sub\n      dup2\n      dup7\n      dup1\n      extcodesize\n      iszero\n      dup1\n      iszero\n      tag_56\n      jumpi\n      0x00\n      dup1\n      revert\n    tag_56:\n      pop\n      gas\n      staticcall\n      iszero\n      dup1\n      iszero\n      tag_58\n      jumpi\n      returndatasize\n      0x00\n      dup1\n      returndatacopy\n      revert(0x00, returndatasize)\n    tag_58:\n      pop\n      pop\n      pop\n      pop\n      mload(0x40)\n      returndatasize\n      not(0x1f)\n      0x1f\n      dup3\n      add\n      and\n      dup3\n      add\n      dup1\n      0x40\n      mstore\n      pop\n      dup2\n      add\n      swap1\n      tag_59\n      swap2\n      swap1\n      tag_60\n      jump\t// in\n    tag_59:\n        /* \"contracts/FundMe.sol\":2685:2734  (, int256 price,,,) = priceFeed.latestRoundData() */\n      pop\n      pop\n      pop\n      swap2\n      pop\n      pop\n        /* \"contracts/FundMe.sol\":2821:2825  1e10 */\n      0x02540be400\n        /* \"contracts/FundMe.sol\":2813:2818  price */\n      dup2\n        /* \"contracts/FundMe.sol\":2813:2825  price * 1e10 */\n      tag_61\n      swap2\n      swap1\n      tag_62\n      jump\t// in\n    tag_61:\n        /* \"contracts/FundMe.sol\":2798:2826  return uint256(price * 1e10) */\n      swap3\n      pop\n      pop\n      pop\n        /* \"contracts/FundMe.sol\":2351:2924  function getPrice() public view returns(uint256){... */\n      swap1\n      jump\t// out\n        /* \"contracts/FundMe.sol\":1708:2345  function fund() public payable {... */\n    tag_36:\n        /* \"contracts/FundMe.sol\":2231:2241  miminumUsd */\n      sload(0x00)\n        /* \"contracts/FundMe.sol\":2197:2227  getConversationRate(msg.value) */\n      tag_64\n        /* \"contracts/FundMe.sol\":2217:2226  msg.value */\n      callvalue\n        /* \"contracts/FundMe.sol\":2197:2216  getConversationRate */\n      tag_25\n        /* \"contracts/FundMe.sol\":2197:2227  getConversationRate(msg.value) */\n      jump\t// in\n    tag_64:\n        /* \"contracts/FundMe.sol\":2197:2241  getConversationRate(msg.value) >= miminumUsd */\n      lt\n      iszero\n        /* \"contracts/FundMe.sol\":2189:2256  require(getConversationRate(msg.value) >= miminumUsd, \"Not enough\") */\n      tag_65\n      jumpi\n      mload(0x40)\n      0x08c379a000000000000000000000000000000000000000000000000000000000\n      dup2\n      mstore\n      0x04\n      add\n      tag_66\n      swap1\n      tag_67\n      jump\t// in\n    tag_66:\n      mload(0x40)\n      dup1\n      swap2\n      sub\n      swap1\n      revert\n    tag_65:\n        /* \"contracts/FundMe.sol\":2262:2269  funders */\n      0x01\n        /* \"contracts/FundMe.sol\":2275:2285  msg.sender */\n      caller\n        /* \"contracts/FundMe.sol\":2262:2286  funders.push(msg.sender) */\n      swap1\n      dup1\n      0x01\n      dup2\n      sload\n      add\n      dup1\n      dup3\n      sstore\n      dup1\n      swap2\n      pop\n      pop\n      0x01\n      swap1\n      sub\n      swap1\n      0x00\n      mstore\n      keccak256(0x00, 0x20)\n      add\n      0x00\n      swap1\n      swap2\n      swap1\n      swap2\n      swap1\n      swap2\n      0x0100\n      exp\n      dup2\n      sload\n      dup2\n      0xffffffffffffffffffffffffffffffffffffffff\n      mul\n      not\n      and\n      swap1\n      dup4\n      0xffffffffffffffffffffffffffffffffffffffff\n      and\n      mul\n      or\n      swap1\n      sstore\n      pop\n        /* \"contracts/FundMe.sol\":2329:2338  msg.value */\n      callvalue\n        /* \"contracts/FundMe.sol\":2293:2314  addressToAmountFunded */\n      0x02\n        /* \"contracts/FundMe.sol\":2293:2326  addressToAmountFunded[msg.sender] */\n      0x00\n        /* \"contracts/FundMe.sol\":2315:2325  msg.sender */\n      caller\n        /* \"contracts/FundMe.sol\":2293:2326  addressToAmountFunded[msg.sender] */\n      0xffffffffffffffffffffffffffffffffffffffff\n      and\n      0xffffffffffffffffffffffffffffffffffffffff\n      and\n      dup2\n      mstore\n      0x20\n      add\n      swap1\n      dup2\n      mstore\n      0x20\n      add\n      0x00\n      keccak256\n        /* \"contracts/FundMe.sol\":2293:2338  addressToAmountFunded[msg.sender] = msg.value */\n      dup2\n      swap1\n      sstore\n      pop\n        /* \"contracts/FundMe.sol\":1708:2345  function fund() public payable {... */\n      jump\t// out\n        /* \"contracts/FundMe.sol\":1507:1531  address[] public funders */\n    tag_40:\n      0x01\n      dup2\n      dup2\n      sload\n      dup2\n      lt\n      tag_69\n      jumpi\n      0x00\n      dup1\n      revert\n    tag_69:\n      swap1\n      0x00\n      mstore\n      keccak256(0x00, 0x20)\n      add\n      0x00\n      swap2\n      pop\n      sload\n      swap1\n      0x0100\n      exp\n      swap1\n      div\n      0xffffffffffffffffffffffffffffffffffffffff\n      and\n      dup2\n      jump\t// out\n        /* \"#utility.yul\":7:146   */\n    tag_72:\n        /* \"#utility.yul\":53:58   */\n      0x00\n        /* \"#utility.yul\":91:97   */\n      dup2\n        /* \"#utility.yul\":78:98   */\n      calldataload\n        /* \"#utility.yul\":69:98   */\n      swap1\n      pop\n        /* \"#utility.yul\":107:140   */\n      tag_74\n        /* \"#utility.yul\":134:139   */\n      dup2\n        /* \"#utility.yul\":107:140   */\n      tag_75\n      jump\t// in\n    tag_74:\n        /* \"#utility.yul\":7:146   */\n      swap3\n      swap2\n      pop\n      pop\n      jump\t// out\n        /* \"#utility.yul\":152:293   */\n    tag_76:\n        /* \"#utility.yul\":208:213   */\n      0x00\n        /* \"#utility.yul\":239:245   */\n      dup2\n        /* \"#utility.yul\":233:246   */\n      mload\n        /* \"#utility.yul\":224:246   */\n      swap1\n      pop\n        /* \"#utility.yul\":255:287   */\n      tag_78\n        /* \"#utility.yul\":281:286   */\n      dup2\n        /* \"#utility.yul\":255:287   */\n      tag_79\n      jump\t// in\n    tag_78:\n        /* \"#utility.yul\":152:293   */\n      swap3\n      swap2\n      pop\n      pop\n      jump\t// out\n        /* \"#utility.yul\":299:438   */\n    tag_80:\n        /* \"#utility.yul\":345:350   */\n      0x00\n        /* \"#utility.yul\":383:389   */\n      dup2\n        /* \"#utility.yul\":370:390   */\n      calldataload\n        /* \"#utility.yul\":361:390   */\n      swap1\n      pop\n        /* \"#utility.yul\":399:432   */\n      tag_82\n        /* \"#utility.yul\":426:431   */\n      dup2\n        /* \"#utility.yul\":399:432   */\n      tag_83\n      jump\t// in\n    tag_82:\n        /* \"#utility.yul\":299:438   */\n      swap3\n      swap2\n      pop\n      pop\n      jump\t// out\n        /* \"#utility.yul\":444:587   */\n    tag_84:\n        /* \"#utility.yul\":501:506   */\n      0x00\n        /* \"#utility.yul\":532:538   */\n      dup2\n        /* \"#utility.yul\":526:539   */\n      mload\n        /* \"#utility.yul\":517:539   */\n      swap1\n      pop\n        /* \"#utility.yul\":548:581   */\n      tag_86\n        /* \"#utility.yul\":575:580   */\n      dup2\n        /* \"#utility.yul\":548:581   */\n      tag_83\n      jump\t// in\n    tag_86:\n        /* \"#utility.yul\":444:587   */\n      swap3\n      swap2\n      pop\n      pop\n      jump\t// out\n        /* \"#utility.yul\":593:734   */\n    tag_87:\n        /* \"#utility.yul\":649:654   */\n      0x00\n        /* \"#utility.yul\":680:686   */\n      dup2\n        /* \"#utility.yul\":674:687   */\n      mload\n        /* \"#utility.yul\":665:687   */\n      swap1\n      pop\n        /* \"#utility.yul\":696:728   */\n      tag_89\n        /* \"#utility.yul\":722:727   */\n      dup2\n        /* \"#utility.yul\":696:728   */\n      tag_90\n      jump\t// in\n    tag_89:\n        /* \"#utility.yul\":593:734   */\n      swap3\n      swap2\n      pop\n      pop\n      jump\t// out\n        /* \"#utility.yul\":740:1069   */\n    tag_18:\n        /* \"#utility.yul\":799:805   */\n      0x00\n        /* \"#utility.yul\":848:850   */\n      0x20\n        /* \"#utility.yul\":836:845   */\n      dup3\n        /* \"#utility.yul\":827:834   */\n      dup5\n        /* \"#utility.yul\":823:846   */\n      sub\n        /* \"#utility.yul\":819:851   */\n      slt\n        /* \"#utility.yul\":816:935   */\n      iszero\n      tag_92\n      jumpi\n        /* \"#utility.yul\":854:933   */\n      tag_93\n      tag_94\n      jump\t// in\n    tag_93:\n        /* \"#utility.yul\":816:935   */\n    tag_92:\n        /* \"#utility.yul\":974:975   */\n      0x00\n        /* \"#utility.yul\":999:1052   */\n      tag_95\n        /* \"#utility.yul\":1044:1051   */\n      dup5\n        /* \"#utility.yul\":1035:1041   */\n      dup3\n        /* \"#utility.yul\":1024:1033   */\n      dup6\n        /* \"#utility.yul\":1020:1042   */\n      add\n        /* \"#utility.yul\":999:1052   */\n      tag_72\n      jump\t// in\n    tag_95:\n        /* \"#utility.yul\":989:1052   */\n      swap2\n      pop\n        /* \"#utility.yul\":945:1062   */\n      pop\n        /* \"#utility.yul\":740:1069   */\n      swap3\n      swap2\n      pop\n      pop\n      jump\t// out\n        /* \"#utility.yul\":1075:1404   */\n    tag_24:\n        /* \"#utility.yul\":1134:1140   */\n      0x00\n        /* \"#utility.yul\":1183:1185   */\n      0x20\n        /* \"#utility.yul\":1171:1180   */\n      dup3\n        /* \"#utility.yul\":1162:1169   */\n      dup5\n        /* \"#utility.yul\":1158:1181   */\n      sub\n        /* \"#utility.yul\":1154:1186   */\n      slt\n        /* \"#utility.yul\":1151:1270   */\n      iszero\n      tag_97\n      jumpi\n        /* \"#utility.yul\":1189:1268   */\n      tag_98\n      tag_94\n      jump\t// in\n    tag_98:\n        /* \"#utility.yul\":1151:1270   */\n    tag_97:\n        /* \"#utility.yul\":1309:1310   */\n      0x00\n        /* \"#utility.yul\":1334:1387   */\n      tag_99\n        /* \"#utility.yul\":1379:1386   */\n      dup5\n        /* \"#utility.yul\":1370:1376   */\n      dup3\n        /* \"#utility.yul\":1359:1368   */\n      dup6\n        /* \"#utility.yul\":1355:1377   */\n      add\n        /* \"#utility.yul\":1334:1387   */\n      tag_80\n      jump\t// in\n    tag_99:\n        /* \"#utility.yul\":1324:1387   */\n      swap2\n      pop\n        /* \"#utility.yul\":1280:1397   */\n      pop\n        /* \"#utility.yul\":1075:1404   */\n      swap3\n      swap2\n      pop\n      pop\n      jump\t// out\n        /* \"#utility.yul\":1410:1761   */\n    tag_48:\n        /* \"#utility.yul\":1480:1486   */\n      0x00\n        /* \"#utility.yul\":1529:1531   */\n      0x20\n        /* \"#utility.yul\":1517:1526   */\n      dup3\n        /* \"#utility.yul\":1508:1515   */\n      dup5\n        /* \"#utility.yul\":1504:1527   */\n      sub\n        /* \"#utility.yul\":1500:1532   */\n      slt\n        /* \"#utility.yul\":1497:1616   */\n      iszero\n      tag_101\n      jumpi\n        /* \"#utility.yul\":1535:1614   */\n      tag_102\n      tag_94\n      jump\t// in\n    tag_102:\n        /* \"#utility.yul\":1497:1616   */\n    tag_101:\n        /* \"#utility.yul\":1655:1656   */\n      0x00\n        /* \"#utility.yul\":1680:1744   */\n      tag_103\n        /* \"#utility.yul\":1736:1743   */\n      dup5\n        /* \"#utility.yul\":1727:1733   */\n      dup3\n        /* \"#utility.yul\":1716:1725   */\n      dup6\n        /* \"#utility.yul\":1712:1734   */\n      add\n        /* \"#utility.yul\":1680:1744   */\n      tag_84\n      jump\t// in\n    tag_103:\n        /* \"#utility.yul\":1670:1744   */\n      swap2\n      pop\n        /* \"#utility.yul\":1626:1754   */\n      pop\n        /* \"#utility.yul\":1410:1761   */\n      swap3\n      swap2\n      pop\n      pop\n      jump\t// out\n        /* \"#utility.yul\":1767:2738   */\n    tag_60:\n        /* \"#utility.yul\":1870:1876   */\n      0x00\n        /* \"#utility.yul\":1878:1884   */\n      dup1\n        /* \"#utility.yul\":1886:1892   */\n      0x00\n        /* \"#utility.yul\":1894:1900   */\n      dup1\n        /* \"#utility.yul\":1902:1908   */\n      0x00\n        /* \"#utility.yul\":1951:1954   */\n      0xa0\n        /* \"#utility.yul\":1939:1948   */\n      dup7\n        /* \"#utility.yul\":1930:1937   */\n      dup9\n        /* \"#utility.yul\":1926:1949   */\n      sub\n        /* \"#utility.yul\":1922:1955   */\n      slt\n        /* \"#utility.yul\":1919:2039   */\n      iszero\n      tag_105\n      jumpi\n        /* \"#utility.yul\":1958:2037   */\n      tag_106\n      tag_94\n      jump\t// in\n    tag_106:\n        /* \"#utility.yul\":1919:2039   */\n    tag_105:\n        /* \"#utility.yul\":2078:2079   */\n      0x00\n        /* \"#utility.yul\":2103:2166   */\n      tag_107\n        /* \"#utility.yul\":2158:2165   */\n      dup9\n        /* \"#utility.yul\":2149:2155   */\n      dup3\n        /* \"#utility.yul\":2138:2147   */\n      dup10\n        /* \"#utility.yul\":2134:2156   */\n      add\n        /* \"#utility.yul\":2103:2166   */\n      tag_87\n      jump\t// in\n    tag_107:\n        /* \"#utility.yul\":2093:2166   */\n      swap6\n      pop\n        /* \"#utility.yul\":2049:2176   */\n      pop\n        /* \"#utility.yul\":2215:2217   */\n      0x20\n        /* \"#utility.yul\":2241:2304   */\n      tag_108\n        /* \"#utility.yul\":2296:2303   */\n      dup9\n        /* \"#utility.yul\":2287:2293   */\n      dup3\n        /* \"#utility.yul\":2276:2285   */\n      dup10\n        /* \"#utility.yul\":2272:2294   */\n      add\n        /* \"#utility.yul\":2241:2304   */\n      tag_76\n      jump\t// in\n    tag_108:\n        /* \"#utility.yul\":2231:2304   */\n      swap5\n      pop\n        /* \"#utility.yul\":2186:2314   */\n      pop\n        /* \"#utility.yul\":2353:2355   */\n      0x40\n        /* \"#utility.yul\":2379:2443   */\n      tag_109\n        /* \"#utility.yul\":2435:2442   */\n      dup9\n        /* \"#utility.yul\":2426:2432   */\n      dup3\n        /* \"#utility.yul\":2415:2424   */\n      dup10\n        /* \"#utility.yul\":2411:2433   */\n      add\n        /* \"#utility.yul\":2379:2443   */\n      tag_84\n      jump\t// in\n    tag_109:\n        /* \"#utility.yul\":2369:2443   */\n      swap4\n      pop\n        /* \"#utility.yul\":2324:2453   */\n      pop\n        /* \"#utility.yul\":2492:2494   */\n      0x60\n        /* \"#utility.yul\":2518:2582   */\n      tag_110\n        /* \"#utility.yul\":2574:2581   */\n      dup9\n        /* \"#utility.yul\":2565:2571   */\n      dup3\n        /* \"#utility.yul\":2554:2563   */\n      dup10\n        /* \"#utility.yul\":2550:2572   */\n      add\n        /* \"#utility.yul\":2518:2582   */\n      tag_84\n      jump\t// in\n    tag_110:\n        /* \"#utility.yul\":2508:2582   */\n      swap3\n      pop\n        /* \"#utility.yul\":2463:2592   */\n      pop\n        /* \"#utility.yul\":2631:2634   */\n      0x80\n        /* \"#utility.yul\":2658:2721   */\n      tag_111\n        /* \"#utility.yul\":2713:2720   */\n      dup9\n        /* \"#utility.yul\":2704:2710   */\n      dup3\n        /* \"#utility.yul\":2693:2702   */\n      dup10\n        /* \"#utility.yul\":2689:2711   */\n      add\n        /* \"#utility.yul\":2658:2721   */\n      tag_87\n      jump\t// in\n    tag_111:\n        /* \"#utility.yul\":2648:2721   */\n      swap2\n      pop\n        /* \"#utility.yul\":2602:2731   */\n      pop\n        /* \"#utility.yul\":1767:2738   */\n      swap3\n      swap6\n      pop\n      swap3\n      swap6\n      swap1\n      swap4\n      pop\n      jump\t// out\n        /* \"#utility.yul\":2744:2862   */\n    tag_112:\n        /* \"#utility.yul\":2831:2855   */\n      tag_114\n        /* \"#utility.yul\":2849:2854   */\n      dup2\n        /* \"#utility.yul\":2831:2855   */\n      tag_115\n      jump\t// in\n    tag_114:\n        /* \"#utility.yul\":2826:2829   */\n      dup3\n        /* \"#utility.yul\":2819:2856   */\n      mstore\n        /* \"#utility.yul\":2744:2862   */\n      pop\n      pop\n      jump\t// out\n        /* \"#utility.yul\":2868:3234   */\n    tag_116:\n        /* \"#utility.yul\":3010:3013   */\n      0x00\n        /* \"#utility.yul\":3031:3098   */\n      tag_118\n        /* \"#utility.yul\":3095:3097   */\n      0x0a\n        /* \"#utility.yul\":3090:3093   */\n      dup4\n        /* \"#utility.yul\":3031:3098   */\n      tag_119\n      jump\t// in\n    tag_118:\n        /* \"#utility.yul\":3024:3098   */\n      swap2\n      pop\n        /* \"#utility.yul\":3107:3200   */\n      tag_120\n        /* \"#utility.yul\":3196:3199   */\n      dup3\n        /* \"#utility.yul\":3107:3200   */\n      tag_121\n      jump\t// in\n    tag_120:\n        /* \"#utility.yul\":3225:3227   */\n      0x20\n        /* \"#utility.yul\":3220:3223   */\n      dup3\n        /* \"#utility.yul\":3216:3228   */\n      add\n        /* \"#utility.yul\":3209:3228   */\n      swap1\n      pop\n        /* \"#utility.yul\":2868:3234   */\n      swap2\n      swap1\n      pop\n      jump\t// out\n        /* \"#utility.yul\":3240:3358   */\n    tag_122:\n        /* \"#utility.yul\":3327:3351   */\n      tag_124\n        /* \"#utility.yul\":3345:3350   */\n      dup2\n        /* \"#utility.yul\":3327:3351   */\n      tag_125\n      jump\t// in\n    tag_124:\n        /* \"#utility.yul\":3322:3325   */\n      dup3\n        /* \"#utility.yul\":3315:3352   */\n      mstore\n        /* \"#utility.yul\":3240:3358   */\n      pop\n      pop\n      jump\t// out\n        /* \"#utility.yul\":3364:3586   */\n    tag_42:\n        /* \"#utility.yul\":3457:3461   */\n      0x00\n        /* \"#utility.yul\":3495:3497   */\n      0x20\n        /* \"#utility.yul\":3484:3493   */\n      dup3\n        /* \"#utility.yul\":3480:3498   */\n      add\n        /* \"#utility.yul\":3472:3498   */\n      swap1\n      pop\n        /* \"#utility.yul\":3508:3579   */\n      tag_127\n        /* \"#utility.yul\":3576:3577   */\n      0x00\n        /* \"#utility.yul\":3565:3574   */\n      dup4\n        /* \"#utility.yul\":3561:3578   */\n      add\n        /* \"#utility.yul\":3552:3558   */\n      dup5\n        /* \"#utility.yul\":3508:3579   */\n      tag_112\n      jump\t// in\n    tag_127:\n        /* \"#utility.yul\":3364:3586   */\n      swap3\n      swap2\n      pop\n      pop\n      jump\t// out\n        /* \"#utility.yul\":3592:4011   */\n    tag_67:\n        /* \"#utility.yul\":3758:3762   */\n      0x00\n        /* \"#utility.yul\":3796:3798   */\n      0x20\n        /* \"#utility.yul\":3785:3794   */\n      dup3\n        /* \"#utility.yul\":3781:3799   */\n      add\n        /* \"#utility.yul\":3773:3799   */\n      swap1\n      pop\n        /* \"#utility.yul\":3845:3854   */\n      dup2\n        /* \"#utility.yul\":3839:3843   */\n      dup2\n        /* \"#utility.yul\":3835:3855   */\n      sub\n        /* \"#utility.yul\":3831:3832   */\n      0x00\n        /* \"#utility.yul\":3820:3829   */\n      dup4\n        /* \"#utility.yul\":3816:3833   */\n      add\n        /* \"#utility.yul\":3809:3856   */\n      mstore\n        /* \"#utility.yul\":3873:4004   */\n      tag_129\n        /* \"#utility.yul\":3999:4003   */\n      dup2\n        /* \"#utility.yul\":3873:4004   */\n      tag_116\n      jump\t// in\n    tag_129:\n        /* \"#utility.yul\":3865:4004   */\n      swap1\n      pop\n        /* \"#utility.yul\":3592:4011   */\n      swap2\n      swap1\n      pop\n      jump\t// out\n        /* \"#utility.yul\":4017:4239   */\n    tag_14:\n        /* \"#utility.yul\":4110:4114   */\n      0x00\n        /* \"#utility.yul\":4148:4150   */\n      0x20\n        /* \"#utility.yul\":4137:4146   */\n      dup3\n        /* \"#utility.yul\":4133:4151   */\n      add\n        /* \"#utility.yul\":4125:4151   */\n      swap1\n      pop\n        /* \"#utility.yul\":4161:4232   */\n      tag_131\n        /* \"#utility.yul\":4229:4230   */\n      0x00\n        /* \"#utility.yul\":4218:4227   */\n      dup4\n        /* \"#utility.yul\":4214:4231   */\n      add\n        /* \"#utility.yul\":4205:4211   */\n      dup5\n        /* \"#utility.yul\":4161:4232   */\n      tag_122\n      jump\t// in\n    tag_131:\n        /* \"#utility.yul\":4017:4239   */\n      swap3\n      swap2\n      pop\n      pop\n      jump\t// out\n        /* \"#utility.yul\":4326:4495   */\n    tag_119:\n        /* \"#utility.yul\":4410:4421   */\n      0x00\n        /* \"#utility.yul\":4444:4450   */\n      dup3\n        /* \"#utility.yul\":4439:4442   */\n      dup3\n        /* \"#utility.yul\":4432:4451   */\n      mstore\n        /* \"#utility.yul\":4484:4488   */\n      0x20\n        /* \"#utility.yul\":4479:4482   */\n      dup3\n        /* \"#utility.yul\":4475:4489   */\n      add\n        /* \"#utility.yul\":4460:4489   */\n      swap1\n      pop\n        /* \"#utility.yul\":4326:4495   */\n      swap3\n      swap2\n      pop\n      pop\n      jump\t// out\n        /* \"#utility.yul\":4501:4686   */\n    tag_54:\n        /* \"#utility.yul\":4541:4542   */\n      0x00\n        /* \"#utility.yul\":4558:4578   */\n      tag_136\n        /* \"#utility.yul\":4576:4577   */\n      dup3\n        /* \"#utility.yul\":4558:4578   */\n      tag_125\n      jump\t// in\n    tag_136:\n        /* \"#utility.yul\":4553:4578   */\n      swap2\n      pop\n        /* \"#utility.yul\":4592:4612   */\n      tag_137\n        /* \"#utility.yul\":4610:4611   */\n      dup4\n        /* \"#utility.yul\":4592:4612   */\n      tag_125\n      jump\t// in\n    tag_137:\n        /* \"#utility.yul\":4587:4612   */\n      swap3\n      pop\n        /* \"#utility.yul\":4631:4632   */\n      dup3\n        /* \"#utility.yul\":4621:4656   */\n      tag_138\n      jumpi\n        /* \"#utility.yul\":4636:4654   */\n      tag_139\n      tag_140\n      jump\t// in\n    tag_139:\n        /* \"#utility.yul\":4621:4656   */\n    tag_138:\n        /* \"#utility.yul\":4678:4679   */\n      dup3\n        /* \"#utility.yul\":4675:4676   */\n      dup3\n        /* \"#utility.yul\":4671:4680   */\n      div\n        /* \"#utility.yul\":4666:4680   */\n      swap1\n      pop\n        /* \"#utility.yul\":4501:4686   */\n      swap3\n      swap2\n      pop\n      pop\n      jump\t// out\n        /* \"#utility.yul\":4692:5683   */\n    tag_62:\n        /* \"#utility.yul\":4731:4738   */\n      0x00\n        /* \"#utility.yul\":4754:4773   */\n      tag_142\n        /* \"#utility.yul\":4771:4772   */\n      dup3\n        /* \"#utility.yul\":4754:4773   */\n      tag_143\n      jump\t// in\n    tag_142:\n        /* \"#utility.yul\":4749:4773   */\n      swap2\n      pop\n        /* \"#utility.yul\":4787:4806   */\n      tag_144\n        /* \"#utility.yul\":4804:4805   */\n      dup4\n        /* \"#utility.yul\":4787:4806   */\n      tag_143\n      jump\t// in\n    tag_144:\n        /* \"#utility.yul\":4782:4806   */\n      swap3\n      pop\n        /* \"#utility.yul\":4988:4989   */\n      dup3\n        /* \"#utility.yul\":4920:4986   */\n      0x7fffffffffffffffffffffffffffffffffffffffffffffffffffffffffffffff\n        /* \"#utility.yul\":4916:4990   */\n      div\n        /* \"#utility.yul\":4913:4914   */\n      dup3\n        /* \"#utility.yul\":4910:4991   */\n      gt\n        /* \"#utility.yul\":4905:4906   */\n      0x00\n        /* \"#utility.yul\":4902:4903   */\n      dup5\n        /* \"#utility.yul\":4898:4907   */\n      sgt\n        /* \"#utility.yul\":4894:4895   */\n      0x00\n        /* \"#utility.yul\":4891:4892   */\n      dup5\n        /* \"#utility.yul\":4887:4896   */\n      sgt\n        /* \"#utility.yul\":4883:4908   */\n      and\n        /* \"#utility.yul\":4879:4992   */\n      and\n        /* \"#utility.yul\":4876:5015   */\n      iszero\n      tag_145\n      jumpi\n        /* \"#utility.yul\":4995:5013   */\n      tag_146\n      tag_147\n      jump\t// in\n    tag_146:\n        /* \"#utility.yul\":4876:5015   */\n    tag_145:\n        /* \"#utility.yul\":5199:5200   */\n      dup2\n        /* \"#utility.yul\":5131:5197   */\n      0x8000000000000000000000000000000000000000000000000000000000000000\n        /* \"#utility.yul\":5126:5201   */\n      sdiv\n        /* \"#utility.yul\":5123:5124   */\n      dup4\n        /* \"#utility.yul\":5119:5202   */\n      slt\n        /* \"#utility.yul\":5114:5115   */\n      0x00\n        /* \"#utility.yul\":5111:5112   */\n      dup5\n        /* \"#utility.yul\":5107:5116   */\n      slt\n        /* \"#utility.yul\":5103:5104   */\n      0x00\n        /* \"#utility.yul\":5100:5101   */\n      dup5\n        /* \"#utility.yul\":5096:5105   */\n      sgt\n        /* \"#utility.yul\":5092:5117   */\n      and\n        /* \"#utility.yul\":5088:5203   */\n      and\n        /* \"#utility.yul\":5085:5226   */\n      iszero\n      tag_148\n      jumpi\n        /* \"#utility.yul\":5206:5224   */\n      tag_149\n      tag_147\n      jump\t// in\n    tag_149:\n        /* \"#utility.yul\":5085:5226   */\n    tag_148:\n        /* \"#utility.yul\":5410:5411   */\n      dup3\n        /* \"#utility.yul\":5342:5408   */\n      0x8000000000000000000000000000000000000000000000000000000000000000\n        /* \"#utility.yul\":5337:5412   */\n      sdiv\n        /* \"#utility.yul\":5334:5335   */\n      dup3\n        /* \"#utility.yul\":5330:5413   */\n      slt\n        /* \"#utility.yul\":5325:5326   */\n      0x00\n        /* \"#utility.yul\":5322:5323   */\n      dup5\n        /* \"#utility.yul\":5318:5327   */\n      sgt\n        /* \"#utility.yul\":5314:5315   */\n      0x00\n        /* \"#utility.yul\":5311:5312   */\n      dup5\n        /* \"#utility.yul\":5307:5316   */\n      slt\n        /* \"#utility.yul\":5303:5328   */\n      and\n        /* \"#utility.yul\":5299:5414   */\n      and\n        /* \"#utility.yul\":5296:5437   */\n      iszero\n      tag_150\n      jumpi\n        /* \"#utility.yul\":5417:5435   */\n      tag_151\n      tag_147\n      jump\t// in\n    tag_151:\n        /* \"#utility.yul\":5296:5437   */\n    tag_150:\n        /* \"#utility.yul\":5620:5621   */\n      dup3\n        /* \"#utility.yul\":5552:5618   */\n      0x7fffffffffffffffffffffffffffffffffffffffffffffffffffffffffffffff\n        /* \"#utility.yul\":5547:5622   */\n      sdiv\n        /* \"#utility.yul\":5544:5545   */\n      dup3\n        /* \"#utility.yul\":5540:5623   */\n      slt\n        /* \"#utility.yul\":5535:5536   */\n      0x00\n        /* \"#utility.yul\":5532:5533   */\n      dup5\n        /* \"#utility.yul\":5528:5537   */\n      slt\n        /* \"#utility.yul\":5524:5525   */\n      0x00\n        /* \"#utility.yul\":5521:5522   */\n      dup5\n        /* \"#utility.yul\":5517:5526   */\n      slt\n        /* \"#utility.yul\":5513:5538   */\n      and\n        /* \"#utility.yul\":5509:5624   */\n      and\n        /* \"#utility.yul\":5506:5647   */\n      iszero\n      tag_152\n      jumpi\n        /* \"#utility.yul\":5627:5645   */\n      tag_153\n      tag_147\n      jump\t// in\n    tag_153:\n        /* \"#utility.yul\":5506:5647   */\n    tag_152:\n        /* \"#utility.yul\":5675:5676   */\n      dup3\n        /* \"#utility.yul\":5672:5673   */\n      dup3\n        /* \"#utility.yul\":5668:5677   */\n      mul\n        /* \"#utility.yul\":5657:5677   */\n      swap1\n      pop\n        /* \"#utility.yul\":4692:5683   */\n      swap3\n      swap2\n      pop\n      pop\n      jump\t// out\n        /* \"#utility.yul\":5689:6037   */\n    tag_52:\n        /* \"#utility.yul\":5729:5736   */\n      0x00\n        /* \"#utility.yul\":5752:5772   */\n      tag_155\n        /* \"#utility.yul\":5770:5771   */\n      dup3\n        /* \"#utility.yul\":5752:5772   */\n      tag_125\n      jump\t// in\n    tag_155:\n        /* \"#utility.yul\":5747:5772   */\n      swap2\n      pop\n        /* \"#utility.yul\":5786:5806   */\n      tag_156\n        /* \"#utility.yul\":5804:5805   */\n      dup4\n        /* \"#utility.yul\":5786:5806   */\n      tag_125\n      jump\t// in\n    tag_156:\n        /* \"#utility.yul\":5781:5806   */\n      swap3\n      pop\n        /* \"#utility.yul\":5974:5975   */\n      dup2\n        /* \"#utility.yul\":5906:5972   */\n      0xffffffffffffffffffffffffffffffffffffffffffffffffffffffffffffffff\n        /* \"#utility.yul\":5902:5976   */\n      div\n        /* \"#utility.yul\":5899:5900   */\n      dup4\n        /* \"#utility.yul\":5896:5977   */\n      gt\n        /* \"#utility.yul\":5891:5892   */\n      dup3\n        /* \"#utility.yul\":5884:5893   */\n      iszero\n        /* \"#utility.yul\":5877:5894   */\n      iszero\n        /* \"#utility.yul\":5873:5978   */\n      and\n        /* \"#utility.yul\":5870:6001   */\n      iszero\n      tag_157\n      jumpi\n        /* \"#utility.yul\":5981:5999   */\n      tag_158\n      tag_147\n      jump\t// in\n    tag_158:\n        /* \"#utility.yul\":5870:6001   */\n    tag_157:\n        /* \"#utility.yul\":6029:6030   */\n      dup3\n        /* \"#utility.yul\":6026:6027   */\n      dup3\n        /* \"#utility.yul\":6022:6031   */\n      mul\n        /* \"#utility.yul\":6011:6031   */\n      swap1\n      pop\n        /* \"#utility.yul\":5689:6037   */\n      swap3\n      swap2\n      pop\n      pop\n      jump\t// out\n        /* \"#utility.yul\":6043:6139   */\n    tag_115:\n        /* \"#utility.yul\":6080:6087   */\n      0x00\n        /* \"#utility.yul\":6109:6133   */\n      tag_160\n        /* \"#utility.yul\":6127:6132   */\n      dup3\n        /* \"#utility.yul\":6109:6133   */\n      tag_161\n      jump\t// in\n    tag_160:\n        /* \"#utility.yul\":6098:6133   */\n      swap1\n      pop\n        /* \"#utility.yul\":6043:6139   */\n      swap2\n      swap1\n      pop\n      jump\t// out\n        /* \"#utility.yul\":6145:6221   */\n    tag_143:\n        /* \"#utility.yul\":6181:6188   */\n      0x00\n        /* \"#utility.yul\":6210:6215   */\n      dup2\n        /* \"#utility.yul\":6199:6215   */\n      swap1\n      pop\n        /* \"#utility.yul\":6145:6221   */\n      swap2\n      swap1\n      pop\n      jump\t// out\n        /* \"#utility.yul\":6227:6353   */\n    tag_161:\n        /* \"#utility.yul\":6264:6271   */\n      0x00\n        /* \"#utility.yul\":6304:6346   */\n      0xffffffffffffffffffffffffffffffffffffffff\n        /* \"#utility.yul\":6297:6302   */\n      dup3\n        /* \"#utility.yul\":6293:6347   */\n      and\n        /* \"#utility.yul\":6282:6347   */\n      swap1\n      pop\n        /* \"#utility.yul\":6227:6353   */\n      swap2\n      swap1\n      pop\n      jump\t// out\n        /* \"#utility.yul\":6359:6436   */\n    tag_125:\n        /* \"#utility.yul\":6396:6403   */\n      0x00\n        /* \"#utility.yul\":6425:6430   */\n      dup2\n        /* \"#utility.yul\":6414:6430   */\n      swap1\n      pop\n        /* \"#utility.yul\":6359:6436   */\n      swap2\n      swap1\n      pop\n      jump\t// out\n        /* \"#utility.yul\":6442:6547   */\n    tag_165:\n        /* \"#utility.yul\":6478:6485   */\n      0x00\n        /* \"#utility.yul\":6518:6540   */\n      0xffffffffffffffffffff\n        /* \"#utility.yul\":6511:6516   */\n      dup3\n        /* \"#utility.yul\":6507:6541   */\n      and\n        /* \"#utility.yul\":6496:6541   */\n      swap1\n      pop\n        /* \"#utility.yul\":6442:6547   */\n      swap2\n      swap1\n      pop\n      jump\t// out\n        /* \"#utility.yul\":6553:6733   */\n    tag_147:\n        /* \"#utility.yul\":6601:6678   */\n      0x4e487b7100000000000000000000000000000000000000000000000000000000\n        /* \"#utility.yul\":6598:6599   */\n      0x00\n        /* \"#utility.yul\":6591:6679   */\n      mstore\n        /* \"#utility.yul\":6698:6702   */\n      0x11\n        /* \"#utility.yul\":6695:6696   */\n      0x04\n        /* \"#utility.yul\":6688:6703   */\n      mstore\n        /* \"#utility.yul\":6722:6726   */\n      0x24\n        /* \"#utility.yul\":6719:6720   */\n      0x00\n        /* \"#utility.yul\":6712:6727   */\n      revert\n        /* \"#utility.yul\":6739:6919   */\n    tag_140:\n        /* \"#utility.yul\":6787:6864   */\n      0x4e487b7100000000000000000000000000000000000000000000000000000000\n        /* \"#utility.yul\":6784:6785   */\n      0x00\n        /* \"#utility.yul\":6777:6865   */\n      mstore\n        /* \"#utility.yul\":6884:6888   */\n      0x12\n        /* \"#utility.yul\":6881:6882   */\n      0x04\n        /* \"#utility.yul\":6874:6889   */\n      mstore\n        /* \"#utility.yul\":6908:6912   */\n      0x24\n        /* \"#utility.yul\":6905:6906   */\n      0x00\n        /* \"#utility.yul\":6898:6913   */\n      revert\n        /* \"#utility.yul\":7048:7165   */\n    tag_94:\n        /* \"#utility.yul\":7157:7158   */\n      0x00\n        /* \"#utility.yul\":7154:7155   */\n      dup1\n        /* \"#utility.yul\":7147:7159   */\n      revert\n        /* \"#utility.yul\":7171:7331   */\n    tag_121:\n        /* \"#utility.yul\":7311:7323   */\n      0x4e6f7420656e6f75676800000000000000000000000000000000000000000000\n        /* \"#utility.yul\":7307:7308   */\n      0x00\n        /* \"#utility.yul\":7299:7305   */\n      dup3\n        /* \"#utility.yul\":7295:7309   */\n      add\n        /* \"#utility.yul\":7288:7324   */\n      mstore\n        /* \"#utility.yul\":7171:7331   */\n      pop\n      jump\t// out\n        /* \"#utility.yul\":7337:7459   */\n    tag_75:\n        /* \"#utility.yul\":7410:7434   */\n      tag_174\n        /* \"#utility.yul\":7428:7433   */\n      dup2\n        /* \"#utility.yul\":7410:7434   */\n      tag_115\n      jump\t// in\n    tag_174:\n        /* \"#utility.yul\":7403:7408   */\n      dup2\n        /* \"#utility.yul\":7400:7435   */\n      eq\n        /* \"#utility.yul\":7390:7453   */\n      tag_175\n      jumpi\n        /* \"#utility.yul\":7449:7450   */\n      0x00\n        /* \"#utility.yul\":7446:7447   */\n      dup1\n        /* \"#utility.yul\":7439:7451   */\n      revert\n        /* \"#utility.yul\":7390:7453   */\n    tag_175:\n        /* \"#utility.yul\":7337:7459   */\n      pop\n      jump\t// out\n        /* \"#utility.yul\":7465:7585   */\n    tag_79:\n        /* \"#utility.yul\":7537:7560   */\n      tag_177\n        /* \"#utility.yul\":7554:7559   */\n      dup2\n        /* \"#utility.yul\":7537:7560   */\n      tag_143\n      jump\t// in\n    tag_177:\n        /* \"#utility.yul\":7530:7535   */\n      dup2\n        /* \"#utility.yul\":7527:7561   */\n      eq\n        /* \"#utility.yul\":7517:7579   */\n      tag_178\n      jumpi\n        /* \"#utility.yul\":7575:7576   */\n      0x00\n        /* \"#utility.yul\":7572:7573   */\n      dup1\n        /* \"#utility.yul\":7565:7577   */\n      revert\n        /* \"#utility.yul\":7517:7579   */\n    tag_178:\n        /* \"#utility.yul\":7465:7585   */\n      pop\n      jump\t// out\n        /* \"#utility.yul\":7591:7713   */\n    tag_83:\n        /* \"#utility.yul\":7664:7688   */\n      tag_180\n        /* \"#utility.yul\":7682:7687   */\n      dup2\n        /* \"#utility.yul\":7664:7688   */\n      tag_125\n      jump\t// in\n    tag_180:\n        /* \"#utility.yul\":7657:7662   */\n      dup2\n        /* \"#utility.yul\":7654:7689   */\n      eq\n        /* \"#utility.yul\":7644:7707   */\n      tag_181\n      jumpi\n        /* \"#utility.yul\":7703:7704   */\n      0x00\n        /* \"#utility.yul\":7700:7701   */\n      dup1\n        /* \"#utility.yul\":7693:7705   */\n      revert\n        /* \"#utility.yul\":7644:7707   */\n    tag_181:\n        /* \"#utility.yul\":7591:7713   */\n      pop\n      jump\t// out\n        /* \"#utility.yul\":7719:7839   */\n    tag_90:\n        /* \"#utility.yul\":7791:7814   */\n      tag_183\n        /* \"#utility.yul\":7808:7813   */\n      dup2\n        /* \"#utility.yul\":7791:7814   */\n      tag_165\n      jump\t// in\n    tag_183:\n        /* \"#utility.yul\":7784:7789   */\n      dup2\n        /* \"#utility.yul\":7781:7815   */\n      eq\n        /* \"#utility.yul\":7771:7833   */\n      tag_184\n      jumpi\n        /* \"#utility.yul\":7829:7830   */\n      0x00\n        /* \"#utility.yul\":7826:7827   */\n      dup1\n        /* \"#utility.yul\":7819:7831   */\n      revert\n        /* \"#utility.yul\":7771:7833   */\n    tag_184:\n        /* \"#utility.yul\":7719:7839   */\n      pop\n      jump\t// out\n\n    auxdata: 0xa2646970667358221220ae42f0c239fd23dce411ddd4bbdf9f09931c445979e23f7cf0e4ca1b4a7d6ee664736f6c63430008070033\n}\n",
				"bytecode": {
					"linkReferences": {},
					"object": "60806040526802b5e3af16b188000060005534801561001d57600080fd5b506109c98061002d6000396000f3fe6080604052600436106100705760003560e01c806375263f221161004e57806375263f221461011a57806398d5fdca14610145578063b60d428814610170578063dc0d3dff1461017a57610070565b80630d8e6e2c146100755780633e47d6f3146100a05780634c03815c146100dd575b600080fd5b34801561008157600080fd5b5061008a6101b7565b6040516100979190610681565b60405180910390f35b3480156100ac57600080fd5b506100c760048036038101906100c29190610503565b610255565b6040516100d49190610681565b60405180910390f35b3480156100e957600080fd5b5061010460048036038101906100ff9190610530565b61026d565b6040516101119190610681565b60405180910390f35b34801561012657600080fd5b5061012f6102a7565b60405161013c9190610681565b60405180910390f35b34801561015157600080fd5b5061015a6102ad565b6040516101679190610681565b60405180910390f35b610178610365565b005b34801561018657600080fd5b506101a1600480360381019061019c9190610530565b61045b565b6040516101ae9190610646565b60405180910390f35b60008073d4a33860578de61dbabdc8bfdb98fd742fa7028e90508073ffffffffffffffffffffffffffffffffffffffff166354fd4d506040518163ffffffff1660e01b815260040160206040518083038186803b15801561021757600080fd5b505afa15801561022b573d6000803e3d6000fd5b505050506040513d601f19601f8201168201806040525081019061024f919061055d565b91505090565b60026020528060005260406000206000915090505481565b6000806102786102ad565b90506000670de0b6b3a7640000848361029191906107f5565b61029b91906106ad565b90508092505050919050565b60005481565b60008073d4a33860578de61dbabdc8bfdb98fd742fa7028e905060008173ffffffffffffffffffffffffffffffffffffffff1663feaf968c6040518163ffffffff1660e01b815260040160a06040518083038186803b15801561030f57600080fd5b505afa158015610323573d6000803e3d6000fd5b505050506040513d601f19601f82011682018060405250810190610347919061058a565b5050509150506402540be4008161035e91906106de565b9250505090565b6000546103713461026d565b10156103b2576040517f08c379a00000000000000000000000000000000000000000000000000000000081526004016103a990610661565b60405180910390fd5b6001339080600181540180825580915050600190039060005260206000200160009091909190916101000a81548173ffffffffffffffffffffffffffffffffffffffff021916908373ffffffffffffffffffffffffffffffffffffffff16021790555034600260003373ffffffffffffffffffffffffffffffffffffffff1673ffffffffffffffffffffffffffffffffffffffff16815260200190815260200160002081905550565b6001818154811061046b57600080fd5b906000526020600020016000915054906101000a900473ffffffffffffffffffffffffffffffffffffffff1681565b6000813590506104a981610937565b92915050565b6000815190506104be8161094e565b92915050565b6000813590506104d381610965565b92915050565b6000815190506104e881610965565b92915050565b6000815190506104fd8161097c565b92915050565b60006020828403121561051957610518610909565b5b60006105278482850161049a565b91505092915050565b60006020828403121561054657610545610909565b5b6000610554848285016104c4565b91505092915050565b60006020828403121561057357610572610909565b5b6000610581848285016104d9565b91505092915050565b600080600080600060a086880312156105a6576105a5610909565b5b60006105b4888289016104ee565b95505060206105c5888289016104af565b94505060406105d6888289016104d9565b93505060606105e7888289016104d9565b92505060806105f8888289016104ee565b9150509295509295909350565b61060e8161084f565b82525050565b6000610621600a8361069c565b915061062c8261090e565b602082019050919050565b6106408161088b565b82525050565b600060208201905061065b6000830184610605565b92915050565b6000602082019050818103600083015261067a81610614565b9050919050565b60006020820190506106966000830184610637565b92915050565b600082825260208201905092915050565b60006106b88261088b565b91506106c38361088b565b9250826106d3576106d26108da565b5b828204905092915050565b60006106e982610861565b91506106f483610861565b9250827f7fffffffffffffffffffffffffffffffffffffffffffffffffffffffffffffff0482116000841360008413161615610733576107326108ab565b5b817f800000000000000000000000000000000000000000000000000000000000000005831260008412600084131616156107705761076f6108ab565b5b827f800000000000000000000000000000000000000000000000000000000000000005821260008413600084121616156107ad576107ac6108ab565b5b827f7fffffffffffffffffffffffffffffffffffffffffffffffffffffffffffffff05821260008412600084121616156107ea576107e96108ab565b5b828202905092915050565b60006108008261088b565b915061080b8361088b565b9250817fffffffffffffffffffffffffffffffffffffffffffffffffffffffffffffffff0483118215151615610844576108436108ab565b5b828202905092915050565b600061085a8261086b565b9050919050565b6000819050919050565b600073ffffffffffffffffffffffffffffffffffffffff82169050919050565b6000819050919050565b600069ffffffffffffffffffff82169050919050565b7f4e487b7100000000000000000000000000000000000000000000000000000000600052601160045260246000fd5b7f4e487b7100000000000000000000000000000000000000000000000000000000600052601260045260246000fd5b600080fd5b7f4e6f7420656e6f75676800000000000000000000000000000000000000000000600082015250565b6109408161084f565b811461094b57600080fd5b50565b61095781610861565b811461096257600080fd5b50565b61096e8161088b565b811461097957600080fd5b50565b61098581610895565b811461099057600080fd5b5056fea2646970667358221220ae42f0c239fd23dce411ddd4bbdf9f09931c445979e23f7cf0e4ca1b4a7d6ee664736f6c63430008070033",
					"opcodes": "PUSH1 0x80 PUSH1 0x40 MSTORE PUSH9 0x2B5E3AF16B1880000 PUSH1 0x0 SSTORE CALLVALUE DUP1 ISZERO PUSH2 0x1D JUMPI PUSH1 0x0 DUP1 REVERT JUMPDEST POP PUSH2 0x9C9 DUP1 PUSH2 0x2D PUSH1 0x0 CODECOPY PUSH1 0x0 RETURN INVALID PUSH1 0x80 PUSH1 0x40 MSTORE PUSH1 0x4 CALLDATASIZE LT PUSH2 0x70 JUMPI PUSH1 0x0 CALLDATALOAD PUSH1 0xE0 SHR DUP1 PUSH4 0x75263F22 GT PUSH2 0x4E JUMPI DUP1 PUSH4 0x75263F22 EQ PUSH2 0x11A JUMPI DUP1 PUSH4 0x98D5FDCA EQ PUSH2 0x145 JUMPI DUP1 PUSH4 0xB60D4288 EQ PUSH2 0x170 JUMPI DUP1 PUSH4 0xDC0D3DFF EQ PUSH2 0x17A JUMPI PUSH2 0x70 JUMP JUMPDEST DUP1 PUSH4 0xD8E6E2C EQ PUSH2 0x75 JUMPI DUP1 PUSH4 0x3E47D6F3 EQ PUSH2 0xA0 JUMPI DUP1 PUSH4 0x4C03815C EQ PUSH2 0xDD JUMPI JUMPDEST PUSH1 0x0 DUP1 REVERT JUMPDEST CALLVALUE DUP1 ISZERO PUSH2 0x81 JUMPI PUSH1 0x0 DUP1 REVERT JUMPDEST POP PUSH2 0x8A PUSH2 0x1B7 JUMP JUMPDEST PUSH1 0x40 MLOAD PUSH2 0x97 SWAP2 SWAP1 PUSH2 0x681 JUMP JUMPDEST PUSH1 0x40 MLOAD DUP1 SWAP2 SUB SWAP1 RETURN JUMPDEST CALLVALUE DUP1 ISZERO PUSH2 0xAC JUMPI PUSH1 0x0 DUP1 REVERT JUMPDEST POP PUSH2 0xC7 PUSH1 0x4 DUP1 CALLDATASIZE SUB DUP2 ADD SWAP1 PUSH2 0xC2 SWAP2 SWAP1 PUSH2 0x503 JUMP JUMPDEST PUSH2 0x255 JUMP JUMPDEST PUSH1 0x40 MLOAD PUSH2 0xD4 SWAP2 SWAP1 PUSH2 0x681 JUMP JUMPDEST PUSH1 0x40 MLOAD DUP1 SWAP2 SUB SWAP1 RETURN JUMPDEST CALLVALUE DUP1 ISZERO PUSH2 0xE9 JUMPI PUSH1 0x0 DUP1 REVERT JUMPDEST POP PUSH2 0x104 PUSH1 0x4 DUP1 CALLDATASIZE SUB DUP2 ADD SWAP1 PUSH2 0xFF SWAP2 SWAP1 PUSH2 0x530 JUMP JUMPDEST PUSH2 0x26D JUMP JUMPDEST PUSH1 0x40 MLOAD PUSH2 0x111 SWAP2 SWAP1 PUSH2 0x681 JUMP JUMPDEST PUSH1 0x40 MLOAD DUP1 SWAP2 SUB SWAP1 RETURN JUMPDEST CALLVALUE DUP1 ISZERO PUSH2 0x126 JUMPI PUSH1 0x0 DUP1 REVERT JUMPDEST POP PUSH2 0x12F PUSH2 0x2A7 JUMP JUMPDEST PUSH1 0x40 MLOAD PUSH2 0x13C SWAP2 SWAP1 PUSH2 0x681 JUMP JUMPDEST PUSH1 0x40 MLOAD DUP1 SWAP2 SUB SWAP1 RETURN JUMPDEST CALLVALUE DUP1 ISZERO PUSH2 0x151 JUMPI PUSH1 0x0 DUP1 REVERT JUMPDEST POP PUSH2 0x15A PUSH2 0x2AD JUMP JUMPDEST PUSH1 0x40 MLOAD PUSH2 0x167 SWAP2 SWAP1 PUSH2 0x681 JUMP JUMPDEST PUSH1 0x40 MLOAD DUP1 SWAP2 SUB SWAP1 RETURN JUMPDEST PUSH2 0x178 PUSH2 0x365 JUMP JUMPDEST STOP JUMPDEST CALLVALUE DUP1 ISZERO PUSH2 0x186 JUMPI PUSH1 0x0 DUP1 REVERT JUMPDEST POP PUSH2 0x1A1 PUSH1 0x4 DUP1 CALLDATASIZE SUB DUP2 ADD SWAP1 PUSH2 0x19C SWAP2 SWAP1 PUSH2 0x530 JUMP JUMPDEST PUSH2 0x45B JUMP JUMPDEST PUSH1 0x40 MLOAD PUSH2 0x1AE SWAP2 SWAP1 PUSH2 0x646 JUMP JUMPDEST PUSH1 0x40 MLOAD DUP1 SWAP2 SUB SWAP1 RETURN JUMPDEST PUSH1 0x0 DUP1 PUSH20 0xD4A33860578DE61DBABDC8BFDB98FD742FA7028E SWAP1 POP DUP1 PUSH20 0xFFFFFFFFFFFFFFFFFFFFFFFFFFFFFFFFFFFFFFFF AND PUSH4 0x54FD4D50 PUSH1 0x40 MLOAD DUP2 PUSH4 0xFFFFFFFF AND PUSH1 0xE0 SHL DUP2 MSTORE PUSH1 0x4 ADD PUSH1 0x20 PUSH1 0x40 MLOAD DUP1 DUP4 SUB DUP2 DUP7 DUP1 EXTCODESIZE ISZERO DUP1 ISZERO PUSH2 0x217 JUMPI PUSH1 0x0 DUP1 REVERT JUMPDEST POP GAS STATICCALL ISZERO DUP1 ISZERO PUSH2 0x22B JUMPI RETURNDATASIZE PUSH1 0x0 DUP1 RETURNDATACOPY RETURNDATASIZE PUSH1 0x0 REVERT JUMPDEST POP POP POP POP PUSH1 0x40 MLOAD RETURNDATASIZE PUSH1 0x1F NOT PUSH1 0x1F DUP3 ADD AND DUP3 ADD DUP1 PUSH1 0x40 MSTORE POP DUP2 ADD SWAP1 PUSH2 0x24F SWAP2 SWAP1 PUSH2 0x55D JUMP JUMPDEST SWAP2 POP POP SWAP1 JUMP JUMPDEST PUSH1 0x2 PUSH1 0x20 MSTORE DUP1 PUSH1 0x0 MSTORE PUSH1 0x40 PUSH1 0x0 KECCAK256 PUSH1 0x0 SWAP2 POP SWAP1 POP SLOAD DUP2 JUMP JUMPDEST PUSH1 0x0 DUP1 PUSH2 0x278 PUSH2 0x2AD JUMP JUMPDEST SWAP1 POP PUSH1 0x0 PUSH8 0xDE0B6B3A7640000 DUP5 DUP4 PUSH2 0x291 SWAP2 SWAP1 PUSH2 0x7F5 JUMP JUMPDEST PUSH2 0x29B SWAP2 SWAP1 PUSH2 0x6AD JUMP JUMPDEST SWAP1 POP DUP1 SWAP3 POP POP POP SWAP2 SWAP1 POP JUMP JUMPDEST PUSH1 0x0 SLOAD DUP2 JUMP JUMPDEST PUSH1 0x0 DUP1 PUSH20 0xD4A33860578DE61DBABDC8BFDB98FD742FA7028E SWAP1 POP PUSH1 0x0 DUP2 PUSH20 0xFFFFFFFFFFFFFFFFFFFFFFFFFFFFFFFFFFFFFFFF AND PUSH4 0xFEAF968C PUSH1 0x40 MLOAD DUP2 PUSH4 0xFFFFFFFF AND PUSH1 0xE0 SHL DUP2 MSTORE PUSH1 0x4 ADD PUSH1 0xA0 PUSH1 0x40 MLOAD DUP1 DUP4 SUB DUP2 DUP7 DUP1 EXTCODESIZE ISZERO DUP1 ISZERO PUSH2 0x30F JUMPI PUSH1 0x0 DUP1 REVERT JUMPDEST POP GAS STATICCALL ISZERO DUP1 ISZERO PUSH2 0x323 JUMPI RETURNDATASIZE PUSH1 0x0 DUP1 RETURNDATACOPY RETURNDATASIZE PUSH1 0x0 REVERT JUMPDEST POP POP POP POP PUSH1 0x40 MLOAD RETURNDATASIZE PUSH1 0x1F NOT PUSH1 0x1F DUP3 ADD AND DUP3 ADD DUP1 PUSH1 0x40 MSTORE POP DUP2 ADD SWAP1 PUSH2 0x347 SWAP2 SWAP1 PUSH2 0x58A JUMP JUMPDEST POP POP POP SWAP2 POP POP PUSH5 0x2540BE400 DUP2 PUSH2 0x35E SWAP2 SWAP1 PUSH2 0x6DE JUMP JUMPDEST SWAP3 POP POP POP SWAP1 JUMP JUMPDEST PUSH1 0x0 SLOAD PUSH2 0x371 CALLVALUE PUSH2 0x26D JUMP JUMPDEST LT ISZERO PUSH2 0x3B2 JUMPI PUSH1 0x40 MLOAD PUSH32 0x8C379A000000000000000000000000000000000000000000000000000000000 DUP2 MSTORE PUSH1 0x4 ADD PUSH2 0x3A9 SWAP1 PUSH2 0x661 JUMP JUMPDEST PUSH1 0x40 MLOAD DUP1 SWAP2 SUB SWAP1 REVERT JUMPDEST PUSH1 0x1 CALLER SWAP1 DUP1 PUSH1 0x1 DUP2 SLOAD ADD DUP1 DUP3 SSTORE DUP1 SWAP2 POP POP PUSH1 0x1 SWAP1 SUB SWAP1 PUSH1 0x0 MSTORE PUSH1 0x20 PUSH1 0x0 KECCAK256 ADD PUSH1 0x0 SWAP1 SWAP2 SWAP1 SWAP2 SWAP1 SWAP2 PUSH2 0x100 EXP DUP2 SLOAD DUP2 PUSH20 0xFFFFFFFFFFFFFFFFFFFFFFFFFFFFFFFFFFFFFFFF MUL NOT AND SWAP1 DUP4 PUSH20 0xFFFFFFFFFFFFFFFFFFFFFFFFFFFFFFFFFFFFFFFF AND MUL OR SWAP1 SSTORE POP CALLVALUE PUSH1 0x2 PUSH1 0x0 CALLER PUSH20 0xFFFFFFFFFFFFFFFFFFFFFFFFFFFFFFFFFFFFFFFF AND PUSH20 0xFFFFFFFFFFFFFFFFFFFFFFFFFFFFFFFFFFFFFFFF AND DUP2 MSTORE PUSH1 0x20 ADD SWAP1 DUP2 MSTORE PUSH1 0x20 ADD PUSH1 0x0 KECCAK256 DUP2 SWAP1 SSTORE POP JUMP JUMPDEST PUSH1 0x1 DUP2 DUP2 SLOAD DUP2 LT PUSH2 0x46B JUMPI PUSH1 0x0 DUP1 REVERT JUMPDEST SWAP1 PUSH1 0x0 MSTORE PUSH1 0x20 PUSH1 0x0 KECCAK256 ADD PUSH1 0x0 SWAP2 POP SLOAD SWAP1 PUSH2 0x100 EXP SWAP1 DIV PUSH20 0xFFFFFFFFFFFFFFFFFFFFFFFFFFFFFFFFFFFFFFFF AND DUP2 JUMP JUMPDEST PUSH1 0x0 DUP2 CALLDATALOAD SWAP1 POP PUSH2 0x4A9 DUP2 PUSH2 0x937 JUMP JUMPDEST SWAP3 SWAP2 POP POP JUMP JUMPDEST PUSH1 0x0 DUP2 MLOAD SWAP1 POP PUSH2 0x4BE DUP2 PUSH2 0x94E JUMP JUMPDEST SWAP3 SWAP2 POP POP JUMP JUMPDEST PUSH1 0x0 DUP2 CALLDATALOAD SWAP1 POP PUSH2 0x4D3 DUP2 PUSH2 0x965 JUMP JUMPDEST SWAP3 SWAP2 POP POP JUMP JUMPDEST PUSH1 0x0 DUP2 MLOAD SWAP1 POP PUSH2 0x4E8 DUP2 PUSH2 0x965 JUMP JUMPDEST SWAP3 SWAP2 POP POP JUMP JUMPDEST PUSH1 0x0 DUP2 MLOAD SWAP1 POP PUSH2 0x4FD DUP2 PUSH2 0x97C JUMP JUMPDEST SWAP3 SWAP2 POP POP JUMP JUMPDEST PUSH1 0x0 PUSH1 0x20 DUP3 DUP5 SUB SLT ISZERO PUSH2 0x519 JUMPI PUSH2 0x518 PUSH2 0x909 JUMP JUMPDEST JUMPDEST PUSH1 0x0 PUSH2 0x527 DUP5 DUP3 DUP6 ADD PUSH2 0x49A JUMP JUMPDEST SWAP2 POP POP SWAP3 SWAP2 POP POP JUMP JUMPDEST PUSH1 0x0 PUSH1 0x20 DUP3 DUP5 SUB SLT ISZERO PUSH2 0x546 JUMPI PUSH2 0x545 PUSH2 0x909 JUMP JUMPDEST JUMPDEST PUSH1 0x0 PUSH2 0x554 DUP5 DUP3 DUP6 ADD PUSH2 0x4C4 JUMP JUMPDEST SWAP2 POP POP SWAP3 SWAP2 POP POP JUMP JUMPDEST PUSH1 0x0 PUSH1 0x20 DUP3 DUP5 SUB SLT ISZERO PUSH2 0x573 JUMPI PUSH2 0x572 PUSH2 0x909 JUMP JUMPDEST JUMPDEST PUSH1 0x0 PUSH2 0x581 DUP5 DUP3 DUP6 ADD PUSH2 0x4D9 JUMP JUMPDEST SWAP2 POP POP SWAP3 SWAP2 POP POP JUMP JUMPDEST PUSH1 0x0 DUP1 PUSH1 0x0 DUP1 PUSH1 0x0 PUSH1 0xA0 DUP7 DUP9 SUB SLT ISZERO PUSH2 0x5A6 JUMPI PUSH2 0x5A5 PUSH2 0x909 JUMP JUMPDEST JUMPDEST PUSH1 0x0 PUSH2 0x5B4 DUP9 DUP3 DUP10 ADD PUSH2 0x4EE JUMP JUMPDEST SWAP6 POP POP PUSH1 0x20 PUSH2 0x5C5 DUP9 DUP3 DUP10 ADD PUSH2 0x4AF JUMP JUMPDEST SWAP5 POP POP PUSH1 0x40 PUSH2 0x5D6 DUP9 DUP3 DUP10 ADD PUSH2 0x4D9 JUMP JUMPDEST SWAP4 POP POP PUSH1 0x60 PUSH2 0x5E7 DUP9 DUP3 DUP10 ADD PUSH2 0x4D9 JUMP JUMPDEST SWAP3 POP POP PUSH1 0x80 PUSH2 0x5F8 DUP9 DUP3 DUP10 ADD PUSH2 0x4EE JUMP JUMPDEST SWAP2 POP POP SWAP3 SWAP6 POP SWAP3 SWAP6 SWAP1 SWAP4 POP JUMP JUMPDEST PUSH2 0x60E DUP2 PUSH2 0x84F JUMP JUMPDEST DUP3 MSTORE POP POP JUMP JUMPDEST PUSH1 0x0 PUSH2 0x621 PUSH1 0xA DUP4 PUSH2 0x69C JUMP JUMPDEST SWAP2 POP PUSH2 0x62C DUP3 PUSH2 0x90E JUMP JUMPDEST PUSH1 0x20 DUP3 ADD SWAP1 POP SWAP2 SWAP1 POP JUMP JUMPDEST PUSH2 0x640 DUP2 PUSH2 0x88B JUMP JUMPDEST DUP3 MSTORE POP POP JUMP JUMPDEST PUSH1 0x0 PUSH1 0x20 DUP3 ADD SWAP1 POP PUSH2 0x65B PUSH1 0x0 DUP4 ADD DUP5 PUSH2 0x605 JUMP JUMPDEST SWAP3 SWAP2 POP POP JUMP JUMPDEST PUSH1 0x0 PUSH1 0x20 DUP3 ADD SWAP1 POP DUP2 DUP2 SUB PUSH1 0x0 DUP4 ADD MSTORE PUSH2 0x67A DUP2 PUSH2 0x614 JUMP JUMPDEST SWAP1 POP SWAP2 SWAP1 POP JUMP JUMPDEST PUSH1 0x0 PUSH1 0x20 DUP3 ADD SWAP1 POP PUSH2 0x696 PUSH1 0x0 DUP4 ADD DUP5 PUSH2 0x637 JUMP JUMPDEST SWAP3 SWAP2 POP POP JUMP JUMPDEST PUSH1 0x0 DUP3 DUP3 MSTORE PUSH1 0x20 DUP3 ADD SWAP1 POP SWAP3 SWAP2 POP POP JUMP JUMPDEST PUSH1 0x0 PUSH2 0x6B8 DUP3 PUSH2 0x88B JUMP JUMPDEST SWAP2 POP PUSH2 0x6C3 DUP4 PUSH2 0x88B JUMP JUMPDEST SWAP3 POP DUP3 PUSH2 0x6D3 JUMPI PUSH2 0x6D2 PUSH2 0x8DA JUMP JUMPDEST JUMPDEST DUP3 DUP3 DIV SWAP1 POP SWAP3 SWAP2 POP POP JUMP JUMPDEST PUSH1 0x0 PUSH2 0x6E9 DUP3 PUSH2 0x861 JUMP JUMPDEST SWAP2 POP PUSH2 0x6F4 DUP4 PUSH2 0x861 JUMP JUMPDEST SWAP3 POP DUP3 PUSH32 0x7FFFFFFFFFFFFFFFFFFFFFFFFFFFFFFFFFFFFFFFFFFFFFFFFFFFFFFFFFFFFFFF DIV DUP3 GT PUSH1 0x0 DUP5 SGT PUSH1 0x0 DUP5 SGT AND AND ISZERO PUSH2 0x733 JUMPI PUSH2 0x732 PUSH2 0x8AB JUMP JUMPDEST JUMPDEST DUP2 PUSH32 0x8000000000000000000000000000000000000000000000000000000000000000 SDIV DUP4 SLT PUSH1 0x0 DUP5 SLT PUSH1 0x0 DUP5 SGT AND AND ISZERO PUSH2 0x770 JUMPI PUSH2 0x76F PUSH2 0x8AB JUMP JUMPDEST JUMPDEST DUP3 PUSH32 0x8000000000000000000000000000000000000000000000000000000000000000 SDIV DUP3 SLT PUSH1 0x0 DUP5 SGT PUSH1 0x0 DUP5 SLT AND AND ISZERO PUSH2 0x7AD JUMPI PUSH2 0x7AC PUSH2 0x8AB JUMP JUMPDEST JUMPDEST DUP3 PUSH32 0x7FFFFFFFFFFFFFFFFFFFFFFFFFFFFFFFFFFFFFFFFFFFFFFFFFFFFFFFFFFFFFFF SDIV DUP3 SLT PUSH1 0x0 DUP5 SLT PUSH1 0x0 DUP5 SLT AND AND ISZERO PUSH2 0x7EA JUMPI PUSH2 0x7E9 PUSH2 0x8AB JUMP JUMPDEST JUMPDEST DUP3 DUP3 MUL SWAP1 POP SWAP3 SWAP2 POP POP JUMP JUMPDEST PUSH1 0x0 PUSH2 0x800 DUP3 PUSH2 0x88B JUMP JUMPDEST SWAP2 POP PUSH2 0x80B DUP4 PUSH2 0x88B JUMP JUMPDEST SWAP3 POP DUP2 PUSH32 0xFFFFFFFFFFFFFFFFFFFFFFFFFFFFFFFFFFFFFFFFFFFFFFFFFFFFFFFFFFFFFFFF DIV DUP4 GT DUP3 ISZERO ISZERO AND ISZERO PUSH2 0x844 JUMPI PUSH2 0x843 PUSH2 0x8AB JUMP JUMPDEST JUMPDEST DUP3 DUP3 MUL SWAP1 POP SWAP3 SWAP2 POP POP JUMP JUMPDEST PUSH1 0x0 PUSH2 0x85A DUP3 PUSH2 0x86B JUMP JUMPDEST SWAP1 POP SWAP2 SWAP1 POP JUMP JUMPDEST PUSH1 0x0 DUP2 SWAP1 POP SWAP2 SWAP1 POP JUMP JUMPDEST PUSH1 0x0 PUSH20 0xFFFFFFFFFFFFFFFFFFFFFFFFFFFFFFFFFFFFFFFF DUP3 AND SWAP1 POP SWAP2 SWAP1 POP JUMP JUMPDEST PUSH1 0x0 DUP2 SWAP1 POP SWAP2 SWAP1 POP JUMP JUMPDEST PUSH1 0x0 PUSH10 0xFFFFFFFFFFFFFFFFFFFF DUP3 AND SWAP1 POP SWAP2 SWAP1 POP JUMP JUMPDEST PUSH32 0x4E487B7100000000000000000000000000000000000000000000000000000000 PUSH1 0x0 MSTORE PUSH1 0x11 PUSH1 0x4 MSTORE PUSH1 0x24 PUSH1 0x0 REVERT JUMPDEST PUSH32 0x4E487B7100000000000000000000000000000000000000000000000000000000 PUSH1 0x0 MSTORE PUSH1 0x12 PUSH1 0x4 MSTORE PUSH1 0x24 PUSH1 0x0 REVERT JUMPDEST PUSH1 0x0 DUP1 REVERT JUMPDEST PUSH32 0x4E6F7420656E6F75676800000000000000000000000000000000000000000000 PUSH1 0x0 DUP3 ADD MSTORE POP JUMP JUMPDEST PUSH2 0x940 DUP2 PUSH2 0x84F JUMP JUMPDEST DUP2 EQ PUSH2 0x94B JUMPI PUSH1 0x0 DUP1 REVERT JUMPDEST POP JUMP JUMPDEST PUSH2 0x957 DUP2 PUSH2 0x861 JUMP JUMPDEST DUP2 EQ PUSH2 0x962 JUMPI PUSH1 0x0 DUP1 REVERT JUMPDEST POP JUMP JUMPDEST PUSH2 0x96E DUP2 PUSH2 0x88B JUMP JUMPDEST DUP2 EQ PUSH2 0x979 JUMPI PUSH1 0x0 DUP1 REVERT JUMPDEST POP JUMP JUMPDEST PUSH2 0x985 DUP2 PUSH2 0x895 JUMP JUMPDEST DUP2 EQ PUSH2 0x990 JUMPI PUSH1 0x0 DUP1 REVERT JUMPDEST POP JUMP INVALID LOG2 PUSH5 0x6970667358 0x22 SLT KECCAK256 0xAE TIMESTAMP CREATE 0xC2 CODECOPY REVERT 0x23 0xDC 0xE4 GT 0xDD 0xD4 0xBB 0xDF SWAP16 MULMOD SWAP4 SHR DIFFICULTY MSIZE PUSH26 0xE23F7CF0E4CA1B4A7D6EE664736F6C6343000807003300000000 "
				},
				"gasEstimates": {
					"creation": {
						"codeDepositCost": "501000",
						"executionCost": "22643",
						"totalCost": "523643"
					},
					"external": {
						"addressToAmountFunded(address)": "2837",
						"fund()": "infinite",
						"funders(uint256)": "5022",
						"getConversationRate(uint256)": "infinite",
						"getPrice()": "infinite",
						"getVersion()": "infinite",
						"miminumUsd()": "2429"
					}
				},
				"methodIdentifiers": {
					"addressToAmountFunded(address)": "3e47d6f3",
					"fund()": "b60d4288",
					"funders(uint256)": "dc0d3dff",
					"getConversationRate(uint256)": "4c03815c",
					"getPrice()": "98d5fdca",
					"getVersion()": "0d8e6e2c",
					"miminumUsd()": "75263f22"
				}
			},
			"storageLayout": {
				"storage": [
					{
						"astId": 53,
						"contract": "contracts/FundMe.sol:fundMe",
						"label": "miminumUsd",
						"offset": 0,
						"slot": "0",
						"type": "t_uint256"
					},
					{
						"astId": 56,
						"contract": "contracts/FundMe.sol:fundMe",
						"label": "funders",
						"offset": 0,
						"slot": "1",
						"type": "t_array(t_address)dyn_storage"
					},
					{
						"astId": 60,
						"contract": "contracts/FundMe.sol:fundMe",
						"label": "addressToAmountFunded",
						"offset": 0,
						"slot": "2",
						"type": "t_mapping(t_address,t_uint256)"
					}
				],
				"types": {
					"t_address": {
						"encoding": "inplace",
						"label": "address",
						"numberOfBytes": "20"
					},
					"t_array(t_address)dyn_storage": {
						"base": "t_address",
						"encoding": "dynamic_array",
						"label": "address[]",
						"numberOfBytes": "32"
					},
					"t_mapping(t_address,t_uint256)": {
						"encoding": "mapping",
						"key": "t_address",
						"label": "mapping(address => uint256)",
						"numberOfBytes": "32",
						"value": "t_uint256"
					},
					"t_uint256": {
						"encoding": "inplace",
						"label": "uint256",
						"numberOfBytes": "32"
					}
				}
			},
			"userdoc": {
				"kind": "user",
				"methods": {},
				"version": 1
			}
		}
	}
}