{
	"contracts/StorageFactory.sol": {
		"StorageFactory": {
			"abi": [
				{
					"inputs": [],
					"name": "creatSimpleStorageContract",
					"outputs": [],
					"stateMutability": "nonpayable",
					"type": "function"
				},
				{
					"inputs": [
						{
							"internalType": "uint256",
							"name": "_simpleStorageIndex",
							"type": "uint256"
						}
					],
					"name": "sfGet",
					"outputs": [
						{
							"internalType": "uint256",
							"name": "",
							"type": "uint256"
						}
					],
					"stateMutability": "view",
					"type": "function"
				},
				{
					"inputs": [
						{
							"internalType": "uint256",
							"name": "_simpleStorageIndex",
							"type": "uint256"
						},
						{
							"internalType": "uint256",
							"name": "_simpleStorageNumber",
							"type": "uint256"
						}
					],
					"name": "sfStore",
					"outputs": [],
					"stateMutability": "nonpayable",
					"type": "function"
				},
				{
					"inputs": [
						{
							"internalType": "uint256",
							"name": "",
							"type": "uint256"
						}
					],
					"name": "simpleStorageArray",
					"outputs": [
						{
							"internalType": "contract SimpleStorage",
							"name": "",
							"type": "address"
						}
					],
					"stateMutability": "view",
					"type": "function"
				}
			],
			"devdoc": {
				"kind": "dev",
				"methods": {},
				"version": 1
			},
			"evm": {
				"assembly": "    /* \"contracts/StorageFactory.sol\":145:1031  contract StorageFactory{... */\n  mstore(0x40, 0x80)\n  callvalue\n  dup1\n  iszero\n  tag_1\n  jumpi\n  0x00\n  dup1\n  revert\ntag_1:\n  pop\n  dataSize(sub_0)\n  dup1\n  dataOffset(sub_0)\n  0x00\n  codecopy\n  0x00\n  return\nstop\n\nsub_0: assembly {\n        /* \"contracts/StorageFactory.sol\":145:1031  contract StorageFactory{... */\n      mstore(0x40, 0x80)\n      callvalue\n      dup1\n      iszero\n      tag_1\n      jumpi\n      0x00\n      dup1\n      revert\n    tag_1:\n      pop\n      jumpi(tag_2, lt(calldatasize, 0x04))\n      shr(0xe0, calldataload(0x00))\n      dup1\n      0x1563700f\n      eq\n      tag_3\n      jumpi\n      dup1\n      0x64591bf1\n      eq\n      tag_4\n      jumpi\n      dup1\n      0x969c7f5a\n      eq\n      tag_5\n      jumpi\n      dup1\n      0xc5f19c20\n      eq\n      tag_6\n      jumpi\n    tag_2:\n      0x00\n      dup1\n      revert\n        /* \"contracts/StorageFactory.sol\":466:821  function sfStore(uint256 _simpleStorageIndex, uint256 _simpleStorageNumber) public  {... */\n    tag_3:\n      tag_7\n      0x04\n      dup1\n      calldatasize\n      sub\n      dup2\n      add\n      swap1\n      tag_8\n      swap2\n      swap1\n      tag_9\n      jump\t// in\n    tag_8:\n      tag_10\n      jump\t// in\n    tag_7:\n      stop\n        /* \"contracts/StorageFactory.sol\":252:293  SimpleStorage[] public simpleStorageArray */\n    tag_4:\n      tag_11\n      0x04\n      dup1\n      calldatasize\n      sub\n      dup2\n      add\n      swap1\n      tag_12\n      swap2\n      swap1\n      tag_13\n      jump\t// in\n    tag_12:\n      tag_14\n      jump\t// in\n    tag_11:\n      mload(0x40)\n      tag_15\n      swap2\n      swap1\n      tag_16\n      jump\t// in\n    tag_15:\n      mload(0x40)\n      dup1\n      swap2\n      sub\n      swap1\n      return\n        /* \"contracts/StorageFactory.sol\":300:460  function creatSimpleStorageContract() public {... */\n    tag_5:\n      tag_17\n      tag_18\n      jump\t// in\n    tag_17:\n      stop\n        /* \"contracts/StorageFactory.sol\":827:1028  function sfGet(uint256 _simpleStorageIndex) public view returns(uint256 ) {... */\n    tag_6:\n      tag_19\n      0x04\n      dup1\n      calldatasize\n      sub\n      dup2\n      add\n      swap1\n      tag_20\n      swap2\n      swap1\n      tag_13\n      jump\t// in\n    tag_20:\n      tag_21\n      jump\t// in\n    tag_19:\n      mload(0x40)\n      tag_22\n      swap2\n      swap1\n      tag_23\n      jump\t// in\n    tag_22:\n      mload(0x40)\n      dup1\n      swap2\n      sub\n      swap1\n      return\n        /* \"contracts/StorageFactory.sol\":466:821  function sfStore(uint256 _simpleStorageIndex, uint256 _simpleStorageNumber) public  {... */\n    tag_10:\n        /* \"contracts/StorageFactory.sol\":694:721  SimpleStorage simpleStorage */\n      0x00\n        /* \"contracts/StorageFactory.sol\":724:742  simpleStorageArray */\n      dup1\n        /* \"contracts/StorageFactory.sol\":743:762  _simpleStorageIndex */\n      dup4\n        /* \"contracts/StorageFactory.sol\":724:763  simpleStorageArray[_simpleStorageIndex] */\n      dup2\n      sload\n      dup2\n      lt\n      tag_25\n      jumpi\n      tag_26\n      tag_27\n      jump\t// in\n    tag_26:\n    tag_25:\n      swap1\n      0x00\n      mstore\n      keccak256(0x00, 0x20)\n      add\n      0x00\n      swap1\n      sload\n      swap1\n      0x0100\n      exp\n      swap1\n      div\n      0xffffffffffffffffffffffffffffffffffffffff\n      and\n        /* \"contracts/StorageFactory.sol\":694:763  SimpleStorage simpleStorage = simpleStorageArray[_simpleStorageIndex] */\n      swap1\n      pop\n        /* \"contracts/StorageFactory.sol\":773:786  simpleStorage */\n      dup1\n        /* \"contracts/StorageFactory.sol\":773:792  simpleStorage.store */\n      0xffffffffffffffffffffffffffffffffffffffff\n      and\n      0x6057361d\n        /* \"contracts/StorageFactory.sol\":793:813  _simpleStorageNumber */\n      dup4\n        /* \"contracts/StorageFactory.sol\":773:814  simpleStorage.store(_simpleStorageNumber) */\n      mload(0x40)\n      dup3\n      0xffffffff\n      and\n      0xe0\n      shl\n      dup2\n      mstore\n      0x04\n      add\n      tag_29\n      swap2\n      swap1\n      tag_23\n      jump\t// in\n    tag_29:\n      0x00\n      mload(0x40)\n      dup1\n      dup4\n      sub\n      dup2\n      0x00\n      dup8\n      dup1\n      extcodesize\n      iszero\n      dup1\n      iszero\n      tag_30\n      jumpi\n      0x00\n      dup1\n      revert\n    tag_30:\n      pop\n      gas\n      call\n      iszero\n      dup1\n      iszero\n      tag_32\n      jumpi\n      returndatasize\n      0x00\n      dup1\n      returndatacopy\n      revert(0x00, returndatasize)\n    tag_32:\n      pop\n      pop\n      pop\n      pop\n        /* \"contracts/StorageFactory.sol\":550:821  {... */\n      pop\n        /* \"contracts/StorageFactory.sol\":466:821  function sfStore(uint256 _simpleStorageIndex, uint256 _simpleStorageNumber) public  {... */\n      pop\n      pop\n      jump\t// out\n        /* \"contracts/StorageFactory.sol\":252:293  SimpleStorage[] public simpleStorageArray */\n    tag_14:\n      0x00\n      dup2\n      dup2\n      sload\n      dup2\n      lt\n      tag_33\n      jumpi\n      0x00\n      dup1\n      revert\n    tag_33:\n      swap1\n      0x00\n      mstore\n      keccak256(0x00, 0x20)\n      add\n      0x00\n      swap2\n      pop\n      sload\n      swap1\n      0x0100\n      exp\n      swap1\n      div\n      0xffffffffffffffffffffffffffffffffffffffff\n      and\n      dup2\n      jump\t// out\n        /* \"contracts/StorageFactory.sol\":300:460  function creatSimpleStorageContract() public {... */\n    tag_18:\n        /* \"contracts/StorageFactory.sol\":356:383  SimpleStorage simpleStorage */\n      0x00\n        /* \"contracts/StorageFactory.sol\":386:405  new SimpleStorage() */\n      mload(0x40)\n      tag_36\n      swap1\n      tag_37\n      jump\t// in\n    tag_36:\n      mload(0x40)\n      dup1\n      swap2\n      sub\n      swap1\n      0x00\n      create\n      dup1\n      iszero\n      dup1\n      iszero\n      tag_38\n      jumpi\n      returndatasize\n      0x00\n      dup1\n      returndatacopy\n      revert(0x00, returndatasize)\n    tag_38:\n      pop\n        /* \"contracts/StorageFactory.sol\":356:405  SimpleStorage simpleStorage = new SimpleStorage() */\n      swap1\n      pop\n        /* \"contracts/StorageFactory.sol\":415:433  simpleStorageArray */\n      0x00\n        /* \"contracts/StorageFactory.sol\":439:452  simpleStorage */\n      dup2\n        /* \"contracts/StorageFactory.sol\":415:453  simpleStorageArray.push(simpleStorage) */\n      swap1\n      dup1\n      0x01\n      dup2\n      sload\n      add\n      dup1\n      dup3\n      sstore\n      dup1\n      swap2\n      pop\n      pop\n      0x01\n      swap1\n      sub\n      swap1\n      0x00\n      mstore\n      keccak256(0x00, 0x20)\n      add\n      0x00\n      swap1\n      swap2\n      swap1\n      swap2\n      swap1\n      swap2\n      0x0100\n      exp\n      dup2\n      sload\n      dup2\n      0xffffffffffffffffffffffffffffffffffffffff\n      mul\n      not\n      and\n      swap1\n      dup4\n      0xffffffffffffffffffffffffffffffffffffffff\n      and\n      mul\n      or\n      swap1\n      sstore\n      pop\n        /* \"contracts/StorageFactory.sol\":345:460  {... */\n      pop\n        /* \"contracts/StorageFactory.sol\":300:460  function creatSimpleStorageContract() public {... */\n      jump\t// out\n        /* \"contracts/StorageFactory.sol\":827:1028  function sfGet(uint256 _simpleStorageIndex) public view returns(uint256 ) {... */\n    tag_21:\n        /* \"contracts/StorageFactory.sol\":891:898  uint256 */\n      0x00\n        /* \"contracts/StorageFactory.sol\":911:938  SimpleStorage simpleStorage */\n      dup1\n        /* \"contracts/StorageFactory.sol\":941:959  simpleStorageArray */\n      0x00\n        /* \"contracts/StorageFactory.sol\":960:979  _simpleStorageIndex */\n      dup4\n        /* \"contracts/StorageFactory.sol\":941:980  simpleStorageArray[_simpleStorageIndex] */\n      dup2\n      sload\n      dup2\n      lt\n      tag_41\n      jumpi\n      tag_42\n      tag_27\n      jump\t// in\n    tag_42:\n    tag_41:\n      swap1\n      0x00\n      mstore\n      keccak256(0x00, 0x20)\n      add\n      0x00\n      swap1\n      sload\n      swap1\n      0x0100\n      exp\n      swap1\n      div\n      0xffffffffffffffffffffffffffffffffffffffff\n      and\n        /* \"contracts/StorageFactory.sol\":911:980  SimpleStorage simpleStorage = simpleStorageArray[_simpleStorageIndex] */\n      swap1\n      pop\n        /* \"contracts/StorageFactory.sol\":997:1010  simpleStorage */\n      dup1\n        /* \"contracts/StorageFactory.sol\":997:1019  simpleStorage.retrieve */\n      0xffffffffffffffffffffffffffffffffffffffff\n      and\n      0x2e64cec1\n        /* \"contracts/StorageFactory.sol\":997:1021  simpleStorage.retrieve() */\n      mload(0x40)\n      dup2\n      0xffffffff\n      and\n      0xe0\n      shl\n      dup2\n      mstore\n      0x04\n      add\n      0x20\n      mload(0x40)\n      dup1\n      dup4\n      sub\n      dup2\n      dup7\n      gas\n      staticcall\n      iszero\n      dup1\n      iszero\n      tag_45\n      jumpi\n      returndatasize\n      0x00\n      dup1\n      returndatacopy\n      revert(0x00, returndatasize)\n    tag_45:\n      pop\n      pop\n      pop\n      pop\n      mload(0x40)\n      returndatasize\n      not(0x1f)\n      0x1f\n      dup3\n      add\n      and\n      dup3\n      add\n      dup1\n      0x40\n      mstore\n      pop\n      dup2\n      add\n      swap1\n      tag_46\n      swap2\n      swap1\n      tag_47\n      jump\t// in\n    tag_46:\n        /* \"contracts/StorageFactory.sol\":990:1021  return simpleStorage.retrieve() */\n      swap2\n      pop\n      pop\n        /* \"contracts/StorageFactory.sol\":827:1028  function sfGet(uint256 _simpleStorageIndex) public view returns(uint256 ) {... */\n      swap2\n      swap1\n      pop\n      jump\t// out\n    tag_37:\n      dataSize(sub_0)\n      dup1\n      dataOffset(sub_0)\n      dup4\n      codecopy\n      add\n      swap1\n      jump\t// out\n        /* \"#utility.yul\":88:205   */\n    tag_49:\n        /* \"#utility.yul\":197:198   */\n      0x00\n        /* \"#utility.yul\":194:195   */\n      dup1\n        /* \"#utility.yul\":187:199   */\n      revert\n        /* \"#utility.yul\":334:411   */\n    tag_51:\n        /* \"#utility.yul\":371:378   */\n      0x00\n        /* \"#utility.yul\":400:405   */\n      dup2\n        /* \"#utility.yul\":389:405   */\n      swap1\n      pop\n        /* \"#utility.yul\":334:411   */\n      swap2\n      swap1\n      pop\n      jump\t// out\n        /* \"#utility.yul\":417:539   */\n    tag_52:\n        /* \"#utility.yul\":490:514   */\n      tag_68\n        /* \"#utility.yul\":508:513   */\n      dup2\n        /* \"#utility.yul\":490:514   */\n      tag_51\n      jump\t// in\n    tag_68:\n        /* \"#utility.yul\":483:488   */\n      dup2\n        /* \"#utility.yul\":480:515   */\n      eq\n        /* \"#utility.yul\":470:533   */\n      tag_69\n      jumpi\n        /* \"#utility.yul\":529:530   */\n      0x00\n        /* \"#utility.yul\":526:527   */\n      dup1\n        /* \"#utility.yul\":519:531   */\n      revert\n        /* \"#utility.yul\":470:533   */\n    tag_69:\n        /* \"#utility.yul\":417:539   */\n      pop\n      jump\t// out\n        /* \"#utility.yul\":545:684   */\n    tag_53:\n        /* \"#utility.yul\":591:596   */\n      0x00\n        /* \"#utility.yul\":629:635   */\n      dup2\n        /* \"#utility.yul\":616:636   */\n      calldataload\n        /* \"#utility.yul\":607:636   */\n      swap1\n      pop\n        /* \"#utility.yul\":645:678   */\n      tag_71\n        /* \"#utility.yul\":672:677   */\n      dup2\n        /* \"#utility.yul\":645:678   */\n      tag_52\n      jump\t// in\n    tag_71:\n        /* \"#utility.yul\":545:684   */\n      swap3\n      swap2\n      pop\n      pop\n      jump\t// out\n        /* \"#utility.yul\":690:1164   */\n    tag_9:\n        /* \"#utility.yul\":758:764   */\n      0x00\n        /* \"#utility.yul\":766:772   */\n      dup1\n        /* \"#utility.yul\":815:817   */\n      0x40\n        /* \"#utility.yul\":803:812   */\n      dup4\n        /* \"#utility.yul\":794:801   */\n      dup6\n        /* \"#utility.yul\":790:813   */\n      sub\n        /* \"#utility.yul\":786:818   */\n      slt\n        /* \"#utility.yul\":783:902   */\n      iszero\n      tag_73\n      jumpi\n        /* \"#utility.yul\":821:900   */\n      tag_74\n      tag_49\n      jump\t// in\n    tag_74:\n        /* \"#utility.yul\":783:902   */\n    tag_73:\n        /* \"#utility.yul\":941:942   */\n      0x00\n        /* \"#utility.yul\":966:1019   */\n      tag_75\n        /* \"#utility.yul\":1011:1018   */\n      dup6\n        /* \"#utility.yul\":1002:1008   */\n      dup3\n        /* \"#utility.yul\":991:1000   */\n      dup7\n        /* \"#utility.yul\":987:1009   */\n      add\n        /* \"#utility.yul\":966:1019   */\n      tag_53\n      jump\t// in\n    tag_75:\n        /* \"#utility.yul\":956:1019   */\n      swap3\n      pop\n        /* \"#utility.yul\":912:1029   */\n      pop\n        /* \"#utility.yul\":1068:1070   */\n      0x20\n        /* \"#utility.yul\":1094:1147   */\n      tag_76\n        /* \"#utility.yul\":1139:1146   */\n      dup6\n        /* \"#utility.yul\":1130:1136   */\n      dup3\n        /* \"#utility.yul\":1119:1128   */\n      dup7\n        /* \"#utility.yul\":1115:1137   */\n      add\n        /* \"#utility.yul\":1094:1147   */\n      tag_53\n      jump\t// in\n    tag_76:\n        /* \"#utility.yul\":1084:1147   */\n      swap2\n      pop\n        /* \"#utility.yul\":1039:1157   */\n      pop\n        /* \"#utility.yul\":690:1164   */\n      swap3\n      pop\n      swap3\n      swap1\n      pop\n      jump\t// out\n        /* \"#utility.yul\":1170:1499   */\n    tag_13:\n        /* \"#utility.yul\":1229:1235   */\n      0x00\n        /* \"#utility.yul\":1278:1280   */\n      0x20\n        /* \"#utility.yul\":1266:1275   */\n      dup3\n        /* \"#utility.yul\":1257:1264   */\n      dup5\n        /* \"#utility.yul\":1253:1276   */\n      sub\n        /* \"#utility.yul\":1249:1281   */\n      slt\n        /* \"#utility.yul\":1246:1365   */\n      iszero\n      tag_78\n      jumpi\n        /* \"#utility.yul\":1284:1363   */\n      tag_79\n      tag_49\n      jump\t// in\n    tag_79:\n        /* \"#utility.yul\":1246:1365   */\n    tag_78:\n        /* \"#utility.yul\":1404:1405   */\n      0x00\n        /* \"#utility.yul\":1429:1482   */\n      tag_80\n        /* \"#utility.yul\":1474:1481   */\n      dup5\n        /* \"#utility.yul\":1465:1471   */\n      dup3\n        /* \"#utility.yul\":1454:1463   */\n      dup6\n        /* \"#utility.yul\":1450:1472   */\n      add\n        /* \"#utility.yul\":1429:1482   */\n      tag_53\n      jump\t// in\n    tag_80:\n        /* \"#utility.yul\":1419:1482   */\n      swap2\n      pop\n        /* \"#utility.yul\":1375:1492   */\n      pop\n        /* \"#utility.yul\":1170:1499   */\n      swap3\n      swap2\n      pop\n      pop\n      jump\t// out\n        /* \"#utility.yul\":1505:1631   */\n    tag_54:\n        /* \"#utility.yul\":1542:1549   */\n      0x00\n        /* \"#utility.yul\":1582:1624   */\n      0xffffffffffffffffffffffffffffffffffffffff\n        /* \"#utility.yul\":1575:1580   */\n      dup3\n        /* \"#utility.yul\":1571:1625   */\n      and\n        /* \"#utility.yul\":1560:1625   */\n      swap1\n      pop\n        /* \"#utility.yul\":1505:1631   */\n      swap2\n      swap1\n      pop\n      jump\t// out\n        /* \"#utility.yul\":1637:1697   */\n    tag_55:\n        /* \"#utility.yul\":1665:1668   */\n      0x00\n        /* \"#utility.yul\":1686:1691   */\n      dup2\n        /* \"#utility.yul\":1679:1691   */\n      swap1\n      pop\n        /* \"#utility.yul\":1637:1697   */\n      swap2\n      swap1\n      pop\n      jump\t// out\n        /* \"#utility.yul\":1703:1845   */\n    tag_56:\n        /* \"#utility.yul\":1753:1762   */\n      0x00\n        /* \"#utility.yul\":1786:1839   */\n      tag_84\n        /* \"#utility.yul\":1804:1838   */\n      tag_85\n        /* \"#utility.yul\":1813:1837   */\n      tag_86\n        /* \"#utility.yul\":1831:1836   */\n      dup5\n        /* \"#utility.yul\":1813:1837   */\n      tag_54\n      jump\t// in\n    tag_86:\n        /* \"#utility.yul\":1804:1838   */\n      tag_55\n      jump\t// in\n    tag_85:\n        /* \"#utility.yul\":1786:1839   */\n      tag_54\n      jump\t// in\n    tag_84:\n        /* \"#utility.yul\":1773:1839   */\n      swap1\n      pop\n        /* \"#utility.yul\":1703:1845   */\n      swap2\n      swap1\n      pop\n      jump\t// out\n        /* \"#utility.yul\":1851:1977   */\n    tag_57:\n        /* \"#utility.yul\":1901:1910   */\n      0x00\n        /* \"#utility.yul\":1934:1971   */\n      tag_88\n        /* \"#utility.yul\":1965:1970   */\n      dup3\n        /* \"#utility.yul\":1934:1971   */\n      tag_56\n      jump\t// in\n    tag_88:\n        /* \"#utility.yul\":1921:1971   */\n      swap1\n      pop\n        /* \"#utility.yul\":1851:1977   */\n      swap2\n      swap1\n      pop\n      jump\t// out\n        /* \"#utility.yul\":1983:2129   */\n    tag_58:\n        /* \"#utility.yul\":2053:2062   */\n      0x00\n        /* \"#utility.yul\":2086:2123   */\n      tag_90\n        /* \"#utility.yul\":2117:2122   */\n      dup3\n        /* \"#utility.yul\":2086:2123   */\n      tag_57\n      jump\t// in\n    tag_90:\n        /* \"#utility.yul\":2073:2123   */\n      swap1\n      pop\n        /* \"#utility.yul\":1983:2129   */\n      swap2\n      swap1\n      pop\n      jump\t// out\n        /* \"#utility.yul\":2135:2306   */\n    tag_59:\n        /* \"#utility.yul\":2242:2299   */\n      tag_92\n        /* \"#utility.yul\":2293:2298   */\n      dup2\n        /* \"#utility.yul\":2242:2299   */\n      tag_58\n      jump\t// in\n    tag_92:\n        /* \"#utility.yul\":2237:2240   */\n      dup3\n        /* \"#utility.yul\":2230:2300   */\n      mstore\n        /* \"#utility.yul\":2135:2306   */\n      pop\n      pop\n      jump\t// out\n        /* \"#utility.yul\":2312:2574   */\n    tag_16:\n        /* \"#utility.yul\":2425:2429   */\n      0x00\n        /* \"#utility.yul\":2463:2465   */\n      0x20\n        /* \"#utility.yul\":2452:2461   */\n      dup3\n        /* \"#utility.yul\":2448:2466   */\n      add\n        /* \"#utility.yul\":2440:2466   */\n      swap1\n      pop\n        /* \"#utility.yul\":2476:2567   */\n      tag_94\n        /* \"#utility.yul\":2564:2565   */\n      0x00\n        /* \"#utility.yul\":2553:2562   */\n      dup4\n        /* \"#utility.yul\":2549:2566   */\n      add\n        /* \"#utility.yul\":2540:2546   */\n      dup5\n        /* \"#utility.yul\":2476:2567   */\n      tag_59\n      jump\t// in\n    tag_94:\n        /* \"#utility.yul\":2312:2574   */\n      swap3\n      swap2\n      pop\n      pop\n      jump\t// out\n        /* \"#utility.yul\":2580:2698   */\n    tag_60:\n        /* \"#utility.yul\":2667:2691   */\n      tag_96\n        /* \"#utility.yul\":2685:2690   */\n      dup2\n        /* \"#utility.yul\":2667:2691   */\n      tag_51\n      jump\t// in\n    tag_96:\n        /* \"#utility.yul\":2662:2665   */\n      dup3\n        /* \"#utility.yul\":2655:2692   */\n      mstore\n        /* \"#utility.yul\":2580:2698   */\n      pop\n      pop\n      jump\t// out\n        /* \"#utility.yul\":2704:2926   */\n    tag_23:\n        /* \"#utility.yul\":2797:2801   */\n      0x00\n        /* \"#utility.yul\":2835:2837   */\n      0x20\n        /* \"#utility.yul\":2824:2833   */\n      dup3\n        /* \"#utility.yul\":2820:2838   */\n      add\n        /* \"#utility.yul\":2812:2838   */\n      swap1\n      pop\n        /* \"#utility.yul\":2848:2919   */\n      tag_98\n        /* \"#utility.yul\":2916:2917   */\n      0x00\n        /* \"#utility.yul\":2905:2914   */\n      dup4\n        /* \"#utility.yul\":2901:2918   */\n      add\n        /* \"#utility.yul\":2892:2898   */\n      dup5\n        /* \"#utility.yul\":2848:2919   */\n      tag_60\n      jump\t// in\n    tag_98:\n        /* \"#utility.yul\":2704:2926   */\n      swap3\n      swap2\n      pop\n      pop\n      jump\t// out\n        /* \"#utility.yul\":2932:3112   */\n    tag_27:\n        /* \"#utility.yul\":2980:3057   */\n      0x4e487b7100000000000000000000000000000000000000000000000000000000\n        /* \"#utility.yul\":2977:2978   */\n      0x00\n        /* \"#utility.yul\":2970:3058   */\n      mstore\n        /* \"#utility.yul\":3077:3081   */\n      0x32\n        /* \"#utility.yul\":3074:3075   */\n      0x04\n        /* \"#utility.yul\":3067:3082   */\n      mstore\n        /* \"#utility.yul\":3101:3105   */\n      0x24\n        /* \"#utility.yul\":3098:3099   */\n      0x00\n        /* \"#utility.yul\":3091:3106   */\n      revert\n        /* \"#utility.yul\":3118:3261   */\n    tag_61:\n        /* \"#utility.yul\":3175:3180   */\n      0x00\n        /* \"#utility.yul\":3206:3212   */\n      dup2\n        /* \"#utility.yul\":3200:3213   */\n      mload\n        /* \"#utility.yul\":3191:3213   */\n      swap1\n      pop\n        /* \"#utility.yul\":3222:3255   */\n      tag_101\n        /* \"#utility.yul\":3249:3254   */\n      dup2\n        /* \"#utility.yul\":3222:3255   */\n      tag_52\n      jump\t// in\n    tag_101:\n        /* \"#utility.yul\":3118:3261   */\n      swap3\n      swap2\n      pop\n      pop\n      jump\t// out\n        /* \"#utility.yul\":3267:3618   */\n    tag_47:\n        /* \"#utility.yul\":3337:3343   */\n      0x00\n        /* \"#utility.yul\":3386:3388   */\n      0x20\n        /* \"#utility.yul\":3374:3383   */\n      dup3\n        /* \"#utility.yul\":3365:3372   */\n      dup5\n        /* \"#utility.yul\":3361:3384   */\n      sub\n        /* \"#utility.yul\":3357:3389   */\n      slt\n        /* \"#utility.yul\":3354:3473   */\n      iszero\n      tag_103\n      jumpi\n        /* \"#utility.yul\":3392:3471   */\n      tag_104\n      tag_49\n      jump\t// in\n    tag_104:\n        /* \"#utility.yul\":3354:3473   */\n    tag_103:\n        /* \"#utility.yul\":3512:3513   */\n      0x00\n        /* \"#utility.yul\":3537:3601   */\n      tag_105\n        /* \"#utility.yul\":3593:3600   */\n      dup5\n        /* \"#utility.yul\":3584:3590   */\n      dup3\n        /* \"#utility.yul\":3573:3582   */\n      dup6\n        /* \"#utility.yul\":3569:3591   */\n      add\n        /* \"#utility.yul\":3537:3601   */\n      tag_61\n      jump\t// in\n    tag_105:\n        /* \"#utility.yul\":3527:3601   */\n      swap2\n      pop\n        /* \"#utility.yul\":3483:3611   */\n      pop\n        /* \"#utility.yul\":3267:3618   */\n      swap3\n      swap2\n      pop\n      pop\n      jump\t// out\n    stop\n\n    sub_0: assembly {\n            /* \"contracts/SimpleStorage.sol\":124:1726  contract SimpleStorage {... */\n          mstore(0x40, 0x80)\n          callvalue\n          dup1\n          iszero\n          tag_1\n          jumpi\n          0x00\n          dup1\n          revert\n        tag_1:\n          pop\n          dataSize(sub_0)\n          dup1\n          dataOffset(sub_0)\n          0x00\n          codecopy\n          0x00\n          return\n        stop\n\n        sub_0: assembly {\n                /* \"contracts/SimpleStorage.sol\":124:1726  contract SimpleStorage {... */\n              mstore(0x40, 0x80)\n              callvalue\n              dup1\n              iszero\n              tag_1\n              jumpi\n              0x00\n              dup1\n              revert\n            tag_1:\n              pop\n              jumpi(tag_2, lt(calldatasize, 0x04))\n              shr(0xe0, calldataload(0x00))\n              dup1\n              0x2e64cec1\n              eq\n              tag_3\n              jumpi\n              dup1\n              0x6057361d\n              eq\n              tag_4\n              jumpi\n              dup1\n              0x6f760f41\n              eq\n              tag_5\n              jumpi\n              dup1\n              0x8bab8dd5\n              eq\n              tag_6\n              jumpi\n              dup1\n              0x9e7a13ad\n              eq\n              tag_7\n              jumpi\n            tag_2:\n              0x00\n              dup1\n              revert\n                /* \"contracts/SimpleStorage.sol\":944:1035  function retrieve() public view returns(uint256){... */\n            tag_3:\n              tag_8\n              tag_9\n              jump\t// in\n            tag_8:\n              mload(0x40)\n              tag_10\n              swap2\n              swap1\n              tag_11\n              jump\t// in\n            tag_10:\n              mload(0x40)\n              dup1\n              swap2\n              sub\n              swap1\n              return\n                /* \"contracts/SimpleStorage.sol\":459:566  function store(uint256 _favouriteNumber) public {... */\n            tag_4:\n              tag_12\n              0x04\n              dup1\n              calldatasize\n              sub\n              dup2\n              add\n              swap1\n              tag_13\n              swap2\n              swap1\n              tag_14\n              jump\t// in\n            tag_13:\n              tag_15\n              jump\t// in\n            tag_12:\n              stop\n                /* \"contracts/SimpleStorage.sol\":1530:1721  function addPerson(string memory _name, uint256 _favouriteNumber) public {... */\n            tag_5:\n              tag_16\n              0x04\n              dup1\n              calldatasize\n              sub\n              dup2\n              add\n              swap1\n              tag_17\n              swap2\n              swap1\n              tag_18\n              jump\t// in\n            tag_17:\n              tag_19\n              jump\t// in\n            tag_16:\n              stop\n                /* \"contracts/SimpleStorage.sol\":244:298  mapping(string => uint256) public nameToFavoriteNumber */\n            tag_6:\n              tag_20\n              0x04\n              dup1\n              calldatasize\n              sub\n              dup2\n              add\n              swap1\n              tag_21\n              swap2\n              swap1\n              tag_22\n              jump\t// in\n            tag_21:\n              tag_23\n              jump\t// in\n            tag_20:\n              mload(0x40)\n              tag_24\n              swap2\n              swap1\n              tag_11\n              jump\t// in\n            tag_24:\n              mload(0x40)\n              dup1\n              swap2\n              sub\n              swap1\n              return\n                /* \"contracts/SimpleStorage.sol\":430:452  People[] public people */\n            tag_7:\n              tag_25\n              0x04\n              dup1\n              calldatasize\n              sub\n              dup2\n              add\n              swap1\n              tag_26\n              swap2\n              swap1\n              tag_14\n              jump\t// in\n            tag_26:\n              tag_27\n              jump\t// in\n            tag_25:\n              mload(0x40)\n              tag_28\n              swap3\n              swap2\n              swap1\n              tag_29\n              jump\t// in\n            tag_28:\n              mload(0x40)\n              dup1\n              swap2\n              sub\n              swap1\n              return\n                /* \"contracts/SimpleStorage.sol\":944:1035  function retrieve() public view returns(uint256){... */\n            tag_9:\n                /* \"contracts/SimpleStorage.sol\":984:991  uint256 */\n              0x00\n                /* \"contracts/SimpleStorage.sol\":1026:1027  2 */\n              0x02\n                /* \"contracts/SimpleStorage.sol\":1009:1023  favoriteNumber */\n              sload(0x00)\n                /* \"contracts/SimpleStorage.sol\":1009:1027  favoriteNumber * 2 */\n              tag_31\n              swap2\n              swap1\n              tag_32\n              jump\t// in\n            tag_31:\n                /* \"contracts/SimpleStorage.sol\":1002:1027  return favoriteNumber * 2 */\n              swap1\n              pop\n                /* \"contracts/SimpleStorage.sol\":944:1035  function retrieve() public view returns(uint256){... */\n              swap1\n              jump\t// out\n                /* \"contracts/SimpleStorage.sol\":459:566  function store(uint256 _favouriteNumber) public {... */\n            tag_15:\n                /* \"contracts/SimpleStorage.sol\":534:550  _favouriteNumber */\n              dup1\n                /* \"contracts/SimpleStorage.sol\":517:531  favoriteNumber */\n              0x00\n                /* \"contracts/SimpleStorage.sol\":517:550  favoriteNumber = _favouriteNumber */\n              dup2\n              swap1\n              sstore\n              pop\n                /* \"contracts/SimpleStorage.sol\":459:566  function store(uint256 _favouriteNumber) public {... */\n              pop\n              jump\t// out\n                /* \"contracts/SimpleStorage.sol\":1530:1721  function addPerson(string memory _name, uint256 _favouriteNumber) public {... */\n            tag_19:\n                /* \"contracts/SimpleStorage.sol\":1613:1619  people */\n              0x02\n                /* \"contracts/SimpleStorage.sol\":1625:1657  People( _favouriteNumber, _name) */\n              mload(0x40)\n              dup1\n              0x40\n              add\n              0x40\n              mstore\n              dup1\n                /* \"contracts/SimpleStorage.sol\":1633:1649  _favouriteNumber */\n              dup4\n                /* \"contracts/SimpleStorage.sol\":1625:1657  People( _favouriteNumber, _name) */\n              dup2\n              mstore\n              0x20\n              add\n                /* \"contracts/SimpleStorage.sol\":1651:1656  _name */\n              dup5\n                /* \"contracts/SimpleStorage.sol\":1625:1657  People( _favouriteNumber, _name) */\n              dup2\n              mstore\n              pop\n                /* \"contracts/SimpleStorage.sol\":1613:1658  people.push(People( _favouriteNumber, _name)) */\n              swap1\n              dup1\n              0x01\n              dup2\n              sload\n              add\n              dup1\n              dup3\n              sstore\n              dup1\n              swap2\n              pop\n              pop\n              0x01\n              swap1\n              sub\n              swap1\n              0x00\n              mstore\n              keccak256(0x00, 0x20)\n              swap1\n              0x02\n              mul\n              add\n              0x00\n              swap1\n              swap2\n              swap1\n              swap2\n              swap1\n              swap2\n              pop\n              0x00\n              dup3\n              add\n              mload\n              dup2\n              0x00\n              add\n              sstore\n              0x20\n              dup3\n              add\n              mload\n              dup2\n              0x01\n              add\n              swap1\n              dup2\n              tag_36\n              swap2\n              swap1\n              tag_37\n              jump\t// in\n            tag_36:\n              pop\n              pop\n              pop\n                /* \"contracts/SimpleStorage.sol\":1698:1714  _favouriteNumber */\n              dup1\n                /* \"contracts/SimpleStorage.sol\":1668:1688  nameToFavoriteNumber */\n              0x01\n                /* \"contracts/SimpleStorage.sol\":1689:1694  _name */\n              dup4\n                /* \"contracts/SimpleStorage.sol\":1668:1695  nameToFavoriteNumber[_name] */\n              mload(0x40)\n              tag_38\n              swap2\n              swap1\n              tag_39\n              jump\t// in\n            tag_38:\n              swap1\n              dup2\n              mstore\n              0x20\n              add\n              mload(0x40)\n              dup1\n              swap2\n              sub\n              swap1\n              keccak256\n                /* \"contracts/SimpleStorage.sol\":1668:1714  nameToFavoriteNumber[_name] = _favouriteNumber */\n              dup2\n              swap1\n              sstore\n              pop\n                /* \"contracts/SimpleStorage.sol\":1530:1721  function addPerson(string memory _name, uint256 _favouriteNumber) public {... */\n              pop\n              pop\n              jump\t// out\n                /* \"contracts/SimpleStorage.sol\":244:298  mapping(string => uint256) public nameToFavoriteNumber */\n            tag_23:\n              0x01\n              dup2\n              dup1\n              mload\n              0x20\n              dup2\n              add\n              dup3\n              add\n              dup1\n              mload\n              dup5\n              dup3\n              mstore\n              0x20\n              dup4\n              add\n              0x20\n              dup6\n              add\n              keccak256\n              dup2\n              dup4\n              mstore\n              dup1\n              swap6\n              pop\n              pop\n              pop\n              pop\n              pop\n              pop\n              0x00\n              swap2\n              pop\n              swap1\n              pop\n              sload\n              dup2\n              jump\t// out\n                /* \"contracts/SimpleStorage.sol\":430:452  People[] public people */\n            tag_27:\n              0x02\n              dup2\n              dup2\n              sload\n              dup2\n              lt\n              tag_40\n              jumpi\n              0x00\n              dup1\n              revert\n            tag_40:\n              swap1\n              0x00\n              mstore\n              keccak256(0x00, 0x20)\n              swap1\n              0x02\n              mul\n              add\n              0x00\n              swap2\n              pop\n              swap1\n              pop\n              dup1\n              0x00\n              add\n              sload\n              swap1\n              dup1\n              0x01\n              add\n              dup1\n              sload\n              tag_42\n              swap1\n              tag_43\n              jump\t// in\n            tag_42:\n              dup1\n              0x1f\n              add\n              0x20\n              dup1\n              swap2\n              div\n              mul\n              0x20\n              add\n              mload(0x40)\n              swap1\n              dup2\n              add\n              0x40\n              mstore\n              dup1\n              swap3\n              swap2\n              swap1\n              dup2\n              dup2\n              mstore\n              0x20\n              add\n              dup3\n              dup1\n              sload\n              tag_44\n              swap1\n              tag_43\n              jump\t// in\n            tag_44:\n              dup1\n              iszero\n              tag_45\n              jumpi\n              dup1\n              0x1f\n              lt\n              tag_46\n              jumpi\n              0x0100\n              dup1\n              dup4\n              sload\n              div\n              mul\n              dup4\n              mstore\n              swap2\n              0x20\n              add\n              swap2\n              jump(tag_45)\n            tag_46:\n              dup3\n              add\n              swap2\n              swap1\n              0x00\n              mstore\n              keccak256(0x00, 0x20)\n              swap1\n            tag_47:\n              dup2\n              sload\n              dup2\n              mstore\n              swap1\n              0x01\n              add\n              swap1\n              0x20\n              add\n              dup1\n              dup4\n              gt\n              tag_47\n              jumpi\n              dup3\n              swap1\n              sub\n              0x1f\n              and\n              dup3\n              add\n              swap2\n            tag_45:\n              pop\n              pop\n              pop\n              pop\n              pop\n              swap1\n              pop\n              dup3\n              jump\t// out\n                /* \"#utility.yul\":7:84   */\n            tag_48:\n                /* \"#utility.yul\":44:51   */\n              0x00\n                /* \"#utility.yul\":73:78   */\n              dup2\n                /* \"#utility.yul\":62:78   */\n              swap1\n              pop\n                /* \"#utility.yul\":7:84   */\n              swap2\n              swap1\n              pop\n              jump\t// out\n                /* \"#utility.yul\":90:208   */\n            tag_49:\n                /* \"#utility.yul\":177:201   */\n              tag_91\n                /* \"#utility.yul\":195:200   */\n              dup2\n                /* \"#utility.yul\":177:201   */\n              tag_48\n              jump\t// in\n            tag_91:\n                /* \"#utility.yul\":172:175   */\n              dup3\n                /* \"#utility.yul\":165:202   */\n              mstore\n                /* \"#utility.yul\":90:208   */\n              pop\n              pop\n              jump\t// out\n                /* \"#utility.yul\":214:436   */\n            tag_11:\n                /* \"#utility.yul\":307:311   */\n              0x00\n                /* \"#utility.yul\":345:347   */\n              0x20\n                /* \"#utility.yul\":334:343   */\n              dup3\n                /* \"#utility.yul\":330:348   */\n              add\n                /* \"#utility.yul\":322:348   */\n              swap1\n              pop\n                /* \"#utility.yul\":358:429   */\n              tag_93\n                /* \"#utility.yul\":426:427   */\n              0x00\n                /* \"#utility.yul\":415:424   */\n              dup4\n                /* \"#utility.yul\":411:428   */\n              add\n                /* \"#utility.yul\":402:408   */\n              dup5\n                /* \"#utility.yul\":358:429   */\n              tag_49\n              jump\t// in\n            tag_93:\n                /* \"#utility.yul\":214:436   */\n              swap3\n              swap2\n              pop\n              pop\n              jump\t// out\n                /* \"#utility.yul\":442:517   */\n            tag_50:\n                /* \"#utility.yul\":475:481   */\n              0x00\n                /* \"#utility.yul\":508:510   */\n              0x40\n                /* \"#utility.yul\":502:511   */\n              mload\n                /* \"#utility.yul\":492:511   */\n              swap1\n              pop\n                /* \"#utility.yul\":442:517   */\n              swap1\n              jump\t// out\n                /* \"#utility.yul\":523:640   */\n            tag_51:\n                /* \"#utility.yul\":632:633   */\n              0x00\n                /* \"#utility.yul\":629:630   */\n              dup1\n                /* \"#utility.yul\":622:634   */\n              revert\n                /* \"#utility.yul\":646:763   */\n            tag_52:\n                /* \"#utility.yul\":755:756   */\n              0x00\n                /* \"#utility.yul\":752:753   */\n              dup1\n                /* \"#utility.yul\":745:757   */\n              revert\n                /* \"#utility.yul\":769:891   */\n            tag_53:\n                /* \"#utility.yul\":842:866   */\n              tag_98\n                /* \"#utility.yul\":860:865   */\n              dup2\n                /* \"#utility.yul\":842:866   */\n              tag_48\n              jump\t// in\n            tag_98:\n                /* \"#utility.yul\":835:840   */\n              dup2\n                /* \"#utility.yul\":832:867   */\n              eq\n                /* \"#utility.yul\":822:885   */\n              tag_99\n              jumpi\n                /* \"#utility.yul\":881:882   */\n              0x00\n                /* \"#utility.yul\":878:879   */\n              dup1\n                /* \"#utility.yul\":871:883   */\n              revert\n                /* \"#utility.yul\":822:885   */\n            tag_99:\n                /* \"#utility.yul\":769:891   */\n              pop\n              jump\t// out\n                /* \"#utility.yul\":897:1036   */\n            tag_54:\n                /* \"#utility.yul\":943:948   */\n              0x00\n                /* \"#utility.yul\":981:987   */\n              dup2\n                /* \"#utility.yul\":968:988   */\n              calldataload\n                /* \"#utility.yul\":959:988   */\n              swap1\n              pop\n                /* \"#utility.yul\":997:1030   */\n              tag_101\n                /* \"#utility.yul\":1024:1029   */\n              dup2\n                /* \"#utility.yul\":997:1030   */\n              tag_53\n              jump\t// in\n            tag_101:\n                /* \"#utility.yul\":897:1036   */\n              swap3\n              swap2\n              pop\n              pop\n              jump\t// out\n                /* \"#utility.yul\":1042:1371   */\n            tag_14:\n                /* \"#utility.yul\":1101:1107   */\n              0x00\n                /* \"#utility.yul\":1150:1152   */\n              0x20\n                /* \"#utility.yul\":1138:1147   */\n              dup3\n                /* \"#utility.yul\":1129:1136   */\n              dup5\n                /* \"#utility.yul\":1125:1148   */\n              sub\n                /* \"#utility.yul\":1121:1153   */\n              slt\n                /* \"#utility.yul\":1118:1237   */\n              iszero\n              tag_103\n              jumpi\n                /* \"#utility.yul\":1156:1235   */\n              tag_104\n              tag_51\n              jump\t// in\n            tag_104:\n                /* \"#utility.yul\":1118:1237   */\n            tag_103:\n                /* \"#utility.yul\":1276:1277   */\n              0x00\n                /* \"#utility.yul\":1301:1354   */\n              tag_105\n                /* \"#utility.yul\":1346:1353   */\n              dup5\n                /* \"#utility.yul\":1337:1343   */\n              dup3\n                /* \"#utility.yul\":1326:1335   */\n              dup6\n                /* \"#utility.yul\":1322:1344   */\n              add\n                /* \"#utility.yul\":1301:1354   */\n              tag_54\n              jump\t// in\n            tag_105:\n                /* \"#utility.yul\":1291:1354   */\n              swap2\n              pop\n                /* \"#utility.yul\":1247:1364   */\n              pop\n                /* \"#utility.yul\":1042:1371   */\n              swap3\n              swap2\n              pop\n              pop\n              jump\t// out\n                /* \"#utility.yul\":1377:1494   */\n            tag_55:\n                /* \"#utility.yul\":1486:1487   */\n              0x00\n                /* \"#utility.yul\":1483:1484   */\n              dup1\n                /* \"#utility.yul\":1476:1488   */\n              revert\n                /* \"#utility.yul\":1500:1617   */\n            tag_56:\n                /* \"#utility.yul\":1609:1610   */\n              0x00\n                /* \"#utility.yul\":1606:1607   */\n              dup1\n                /* \"#utility.yul\":1599:1611   */\n              revert\n                /* \"#utility.yul\":1623:1725   */\n            tag_57:\n                /* \"#utility.yul\":1664:1670   */\n              0x00\n                /* \"#utility.yul\":1715:1717   */\n              0x1f\n                /* \"#utility.yul\":1711:1718   */\n              not\n                /* \"#utility.yul\":1706:1708   */\n              0x1f\n                /* \"#utility.yul\":1699:1704   */\n              dup4\n                /* \"#utility.yul\":1695:1709   */\n              add\n                /* \"#utility.yul\":1691:1719   */\n              and\n                /* \"#utility.yul\":1681:1719   */\n              swap1\n              pop\n                /* \"#utility.yul\":1623:1725   */\n              swap2\n              swap1\n              pop\n              jump\t// out\n                /* \"#utility.yul\":1731:1911   */\n            tag_58:\n                /* \"#utility.yul\":1779:1856   */\n              0x4e487b7100000000000000000000000000000000000000000000000000000000\n                /* \"#utility.yul\":1776:1777   */\n              0x00\n                /* \"#utility.yul\":1769:1857   */\n              mstore\n                /* \"#utility.yul\":1876:1880   */\n              0x41\n                /* \"#utility.yul\":1873:1874   */\n              0x04\n                /* \"#utility.yul\":1866:1881   */\n              mstore\n                /* \"#utility.yul\":1900:1904   */\n              0x24\n                /* \"#utility.yul\":1897:1898   */\n              0x00\n                /* \"#utility.yul\":1890:1905   */\n              revert\n                /* \"#utility.yul\":1917:2198   */\n            tag_59:\n                /* \"#utility.yul\":2000:2027   */\n              tag_111\n                /* \"#utility.yul\":2022:2026   */\n              dup3\n                /* \"#utility.yul\":2000:2027   */\n              tag_57\n              jump\t// in\n            tag_111:\n                /* \"#utility.yul\":1992:1998   */\n              dup2\n                /* \"#utility.yul\":1988:2028   */\n              add\n                /* \"#utility.yul\":2130:2136   */\n              dup2\n                /* \"#utility.yul\":2118:2128   */\n              dup2\n                /* \"#utility.yul\":2115:2137   */\n              lt\n                /* \"#utility.yul\":2094:2112   */\n              0xffffffffffffffff\n                /* \"#utility.yul\":2082:2092   */\n              dup3\n                /* \"#utility.yul\":2079:2113   */\n              gt\n                /* \"#utility.yul\":2076:2138   */\n              or\n                /* \"#utility.yul\":2073:2161   */\n              iszero\n              tag_112\n              jumpi\n                /* \"#utility.yul\":2141:2159   */\n              tag_113\n              tag_58\n              jump\t// in\n            tag_113:\n                /* \"#utility.yul\":2073:2161   */\n            tag_112:\n                /* \"#utility.yul\":2181:2191   */\n              dup1\n                /* \"#utility.yul\":2177:2179   */\n              0x40\n                /* \"#utility.yul\":2170:2192   */\n              mstore\n                /* \"#utility.yul\":1960:2198   */\n              pop\n                /* \"#utility.yul\":1917:2198   */\n              pop\n              pop\n              jump\t// out\n                /* \"#utility.yul\":2204:2333   */\n            tag_60:\n                /* \"#utility.yul\":2238:2244   */\n              0x00\n                /* \"#utility.yul\":2265:2285   */\n              tag_115\n              tag_50\n              jump\t// in\n            tag_115:\n                /* \"#utility.yul\":2255:2285   */\n              swap1\n              pop\n                /* \"#utility.yul\":2294:2327   */\n              tag_116\n                /* \"#utility.yul\":2322:2326   */\n              dup3\n                /* \"#utility.yul\":2314:2320   */\n              dup3\n                /* \"#utility.yul\":2294:2327   */\n              tag_59\n              jump\t// in\n            tag_116:\n                /* \"#utility.yul\":2204:2333   */\n              swap2\n              swap1\n              pop\n              jump\t// out\n                /* \"#utility.yul\":2339:2647   */\n            tag_61:\n                /* \"#utility.yul\":2401:2405   */\n              0x00\n                /* \"#utility.yul\":2491:2509   */\n              0xffffffffffffffff\n                /* \"#utility.yul\":2483:2489   */\n              dup3\n                /* \"#utility.yul\":2480:2510   */\n              gt\n                /* \"#utility.yul\":2477:2533   */\n              iszero\n              tag_118\n              jumpi\n                /* \"#utility.yul\":2513:2531   */\n              tag_119\n              tag_58\n              jump\t// in\n            tag_119:\n                /* \"#utility.yul\":2477:2533   */\n            tag_118:\n                /* \"#utility.yul\":2551:2580   */\n              tag_120\n                /* \"#utility.yul\":2573:2579   */\n              dup3\n                /* \"#utility.yul\":2551:2580   */\n              tag_57\n              jump\t// in\n            tag_120:\n                /* \"#utility.yul\":2543:2580   */\n              swap1\n              pop\n                /* \"#utility.yul\":2635:2639   */\n              0x20\n                /* \"#utility.yul\":2629:2633   */\n              dup2\n                /* \"#utility.yul\":2625:2640   */\n              add\n                /* \"#utility.yul\":2617:2640   */\n              swap1\n              pop\n                /* \"#utility.yul\":2339:2647   */\n              swap2\n              swap1\n              pop\n              jump\t// out\n                /* \"#utility.yul\":2653:2799   */\n            tag_62:\n                /* \"#utility.yul\":2750:2756   */\n              dup3\n                /* \"#utility.yul\":2745:2748   */\n              dup2\n                /* \"#utility.yul\":2740:2743   */\n              dup4\n                /* \"#utility.yul\":2727:2757   */\n              calldatacopy\n                /* \"#utility.yul\":2791:2792   */\n              0x00\n                /* \"#utility.yul\":2782:2788   */\n              dup4\n                /* \"#utility.yul\":2777:2780   */\n              dup4\n                /* \"#utility.yul\":2773:2789   */\n              add\n                /* \"#utility.yul\":2766:2793   */\n              mstore\n                /* \"#utility.yul\":2653:2799   */\n              pop\n              pop\n              pop\n              jump\t// out\n                /* \"#utility.yul\":2805:3230   */\n            tag_63:\n                /* \"#utility.yul\":2883:2888   */\n              0x00\n                /* \"#utility.yul\":2908:2974   */\n              tag_123\n                /* \"#utility.yul\":2924:2973   */\n              tag_124\n                /* \"#utility.yul\":2966:2972   */\n              dup5\n                /* \"#utility.yul\":2924:2973   */\n              tag_61\n              jump\t// in\n            tag_124:\n                /* \"#utility.yul\":2908:2974   */\n              tag_60\n              jump\t// in\n            tag_123:\n                /* \"#utility.yul\":2899:2974   */\n              swap1\n              pop\n                /* \"#utility.yul\":2997:3003   */\n              dup3\n                /* \"#utility.yul\":2990:2995   */\n              dup2\n                /* \"#utility.yul\":2983:3004   */\n              mstore\n                /* \"#utility.yul\":3035:3039   */\n              0x20\n                /* \"#utility.yul\":3028:3033   */\n              dup2\n                /* \"#utility.yul\":3024:3040   */\n              add\n                /* \"#utility.yul\":3073:3076   */\n              dup5\n                /* \"#utility.yul\":3064:3070   */\n              dup5\n                /* \"#utility.yul\":3059:3062   */\n              dup5\n                /* \"#utility.yul\":3055:3071   */\n              add\n                /* \"#utility.yul\":3052:3077   */\n              gt\n                /* \"#utility.yul\":3049:3161   */\n              iszero\n              tag_125\n              jumpi\n                /* \"#utility.yul\":3080:3159   */\n              tag_126\n              tag_56\n              jump\t// in\n            tag_126:\n                /* \"#utility.yul\":3049:3161   */\n            tag_125:\n                /* \"#utility.yul\":3170:3224   */\n              tag_127\n                /* \"#utility.yul\":3217:3223   */\n              dup5\n                /* \"#utility.yul\":3212:3215   */\n              dup3\n                /* \"#utility.yul\":3207:3210   */\n              dup6\n                /* \"#utility.yul\":3170:3224   */\n              tag_62\n              jump\t// in\n            tag_127:\n                /* \"#utility.yul\":2889:3230   */\n              pop\n                /* \"#utility.yul\":2805:3230   */\n              swap4\n              swap3\n              pop\n              pop\n              pop\n              jump\t// out\n                /* \"#utility.yul\":3250:3590   */\n            tag_64:\n                /* \"#utility.yul\":3306:3311   */\n              0x00\n                /* \"#utility.yul\":3355:3358   */\n              dup3\n                /* \"#utility.yul\":3348:3352   */\n              0x1f\n                /* \"#utility.yul\":3340:3346   */\n              dup4\n                /* \"#utility.yul\":3336:3353   */\n              add\n                /* \"#utility.yul\":3332:3359   */\n              slt\n                /* \"#utility.yul\":3322:3444   */\n              tag_129\n              jumpi\n                /* \"#utility.yul\":3363:3442   */\n              tag_130\n              tag_55\n              jump\t// in\n            tag_130:\n                /* \"#utility.yul\":3322:3444   */\n            tag_129:\n                /* \"#utility.yul\":3480:3486   */\n              dup2\n                /* \"#utility.yul\":3467:3487   */\n              calldataload\n                /* \"#utility.yul\":3505:3584   */\n              tag_131\n                /* \"#utility.yul\":3580:3583   */\n              dup5\n                /* \"#utility.yul\":3572:3578   */\n              dup3\n                /* \"#utility.yul\":3565:3569   */\n              0x20\n                /* \"#utility.yul\":3557:3563   */\n              dup7\n                /* \"#utility.yul\":3553:3570   */\n              add\n                /* \"#utility.yul\":3505:3584   */\n              tag_63\n              jump\t// in\n            tag_131:\n                /* \"#utility.yul\":3496:3584   */\n              swap2\n              pop\n                /* \"#utility.yul\":3312:3590   */\n              pop\n                /* \"#utility.yul\":3250:3590   */\n              swap3\n              swap2\n              pop\n              pop\n              jump\t// out\n                /* \"#utility.yul\":3596:4250   */\n            tag_18:\n                /* \"#utility.yul\":3674:3680   */\n              0x00\n                /* \"#utility.yul\":3682:3688   */\n              dup1\n                /* \"#utility.yul\":3731:3733   */\n              0x40\n                /* \"#utility.yul\":3719:3728   */\n              dup4\n                /* \"#utility.yul\":3710:3717   */\n              dup6\n                /* \"#utility.yul\":3706:3729   */\n              sub\n                /* \"#utility.yul\":3702:3734   */\n              slt\n                /* \"#utility.yul\":3699:3818   */\n              iszero\n              tag_133\n              jumpi\n                /* \"#utility.yul\":3737:3816   */\n              tag_134\n              tag_51\n              jump\t// in\n            tag_134:\n                /* \"#utility.yul\":3699:3818   */\n            tag_133:\n                /* \"#utility.yul\":3885:3886   */\n              0x00\n                /* \"#utility.yul\":3874:3883   */\n              dup4\n                /* \"#utility.yul\":3870:3887   */\n              add\n                /* \"#utility.yul\":3857:3888   */\n              calldataload\n                /* \"#utility.yul\":3915:3933   */\n              0xffffffffffffffff\n                /* \"#utility.yul\":3907:3913   */\n              dup2\n                /* \"#utility.yul\":3904:3934   */\n              gt\n                /* \"#utility.yul\":3901:4018   */\n              iszero\n              tag_135\n              jumpi\n                /* \"#utility.yul\":3937:4016   */\n              tag_136\n              tag_52\n              jump\t// in\n            tag_136:\n                /* \"#utility.yul\":3901:4018   */\n            tag_135:\n                /* \"#utility.yul\":4042:4105   */\n              tag_137\n                /* \"#utility.yul\":4097:4104   */\n              dup6\n                /* \"#utility.yul\":4088:4094   */\n              dup3\n                /* \"#utility.yul\":4077:4086   */\n              dup7\n                /* \"#utility.yul\":4073:4095   */\n              add\n                /* \"#utility.yul\":4042:4105   */\n              tag_64\n              jump\t// in\n            tag_137:\n                /* \"#utility.yul\":4032:4105   */\n              swap3\n              pop\n                /* \"#utility.yul\":3828:4115   */\n              pop\n                /* \"#utility.yul\":4154:4156   */\n              0x20\n                /* \"#utility.yul\":4180:4233   */\n              tag_138\n                /* \"#utility.yul\":4225:4232   */\n              dup6\n                /* \"#utility.yul\":4216:4222   */\n              dup3\n                /* \"#utility.yul\":4205:4214   */\n              dup7\n                /* \"#utility.yul\":4201:4223   */\n              add\n                /* \"#utility.yul\":4180:4233   */\n              tag_54\n              jump\t// in\n            tag_138:\n                /* \"#utility.yul\":4170:4233   */\n              swap2\n              pop\n                /* \"#utility.yul\":4125:4243   */\n              pop\n                /* \"#utility.yul\":3596:4250   */\n              swap3\n              pop\n              swap3\n              swap1\n              pop\n              jump\t// out\n                /* \"#utility.yul\":4256:4765   */\n            tag_22:\n                /* \"#utility.yul\":4325:4331   */\n              0x00\n                /* \"#utility.yul\":4374:4376   */\n              0x20\n                /* \"#utility.yul\":4362:4371   */\n              dup3\n                /* \"#utility.yul\":4353:4360   */\n              dup5\n                /* \"#utility.yul\":4349:4372   */\n              sub\n                /* \"#utility.yul\":4345:4377   */\n              slt\n                /* \"#utility.yul\":4342:4461   */\n              iszero\n              tag_140\n              jumpi\n                /* \"#utility.yul\":4380:4459   */\n              tag_141\n              tag_51\n              jump\t// in\n            tag_141:\n                /* \"#utility.yul\":4342:4461   */\n            tag_140:\n                /* \"#utility.yul\":4528:4529   */\n              0x00\n                /* \"#utility.yul\":4517:4526   */\n              dup3\n                /* \"#utility.yul\":4513:4530   */\n              add\n                /* \"#utility.yul\":4500:4531   */\n              calldataload\n                /* \"#utility.yul\":4558:4576   */\n              0xffffffffffffffff\n                /* \"#utility.yul\":4550:4556   */\n              dup2\n                /* \"#utility.yul\":4547:4577   */\n              gt\n                /* \"#utility.yul\":4544:4661   */\n              iszero\n              tag_142\n              jumpi\n                /* \"#utility.yul\":4580:4659   */\n              tag_143\n              tag_52\n              jump\t// in\n            tag_143:\n                /* \"#utility.yul\":4544:4661   */\n            tag_142:\n                /* \"#utility.yul\":4685:4748   */\n              tag_144\n                /* \"#utility.yul\":4740:4747   */\n              dup5\n                /* \"#utility.yul\":4731:4737   */\n              dup3\n                /* \"#utility.yul\":4720:4729   */\n              dup6\n                /* \"#utility.yul\":4716:4738   */\n              add\n                /* \"#utility.yul\":4685:4748   */\n              tag_64\n              jump\t// in\n            tag_144:\n                /* \"#utility.yul\":4675:4748   */\n              swap2\n              pop\n                /* \"#utility.yul\":4471:4758   */\n              pop\n                /* \"#utility.yul\":4256:4765   */\n              swap3\n              swap2\n              pop\n              pop\n              jump\t// out\n                /* \"#utility.yul\":4771:4870   */\n            tag_65:\n                /* \"#utility.yul\":4823:4829   */\n              0x00\n                /* \"#utility.yul\":4857:4862   */\n              dup2\n                /* \"#utility.yul\":4851:4863   */\n              mload\n                /* \"#utility.yul\":4841:4863   */\n              swap1\n              pop\n                /* \"#utility.yul\":4771:4870   */\n              swap2\n              swap1\n              pop\n              jump\t// out\n                /* \"#utility.yul\":4876:5045   */\n            tag_66:\n                /* \"#utility.yul\":4960:4971   */\n              0x00\n                /* \"#utility.yul\":4994:5000   */\n              dup3\n                /* \"#utility.yul\":4989:4992   */\n              dup3\n                /* \"#utility.yul\":4982:5001   */\n              mstore\n                /* \"#utility.yul\":5034:5038   */\n              0x20\n                /* \"#utility.yul\":5029:5032   */\n              dup3\n                /* \"#utility.yul\":5025:5039   */\n              add\n                /* \"#utility.yul\":5010:5039   */\n              swap1\n              pop\n                /* \"#utility.yul\":4876:5045   */\n              swap3\n              swap2\n              pop\n              pop\n              jump\t// out\n                /* \"#utility.yul\":5051:5297   */\n            tag_67:\n                /* \"#utility.yul\":5132:5133   */\n              0x00\n                /* \"#utility.yul\":5142:5255   */\n            tag_148:\n                /* \"#utility.yul\":5156:5162   */\n              dup4\n                /* \"#utility.yul\":5153:5154   */\n              dup2\n                /* \"#utility.yul\":5150:5163   */\n              lt\n                /* \"#utility.yul\":5142:5255   */\n              iszero\n              tag_150\n              jumpi\n                /* \"#utility.yul\":5241:5242   */\n              dup1\n                /* \"#utility.yul\":5236:5239   */\n              dup3\n                /* \"#utility.yul\":5232:5243   */\n              add\n                /* \"#utility.yul\":5226:5244   */\n              mload\n                /* \"#utility.yul\":5222:5223   */\n              dup2\n                /* \"#utility.yul\":5217:5220   */\n              dup5\n                /* \"#utility.yul\":5213:5224   */\n              add\n                /* \"#utility.yul\":5206:5245   */\n              mstore\n                /* \"#utility.yul\":5178:5180   */\n              0x20\n                /* \"#utility.yul\":5175:5176   */\n              dup2\n                /* \"#utility.yul\":5171:5181   */\n              add\n                /* \"#utility.yul\":5166:5181   */\n              swap1\n              pop\n                /* \"#utility.yul\":5142:5255   */\n              jump(tag_148)\n            tag_150:\n                /* \"#utility.yul\":5289:5290   */\n              0x00\n                /* \"#utility.yul\":5280:5286   */\n              dup5\n                /* \"#utility.yul\":5275:5278   */\n              dup5\n                /* \"#utility.yul\":5271:5287   */\n              add\n                /* \"#utility.yul\":5264:5291   */\n              mstore\n                /* \"#utility.yul\":5113:5297   */\n              pop\n                /* \"#utility.yul\":5051:5297   */\n              pop\n              pop\n              pop\n              jump\t// out\n                /* \"#utility.yul\":5303:5680   */\n            tag_68:\n                /* \"#utility.yul\":5391:5394   */\n              0x00\n                /* \"#utility.yul\":5419:5458   */\n              tag_152\n                /* \"#utility.yul\":5452:5457   */\n              dup3\n                /* \"#utility.yul\":5419:5458   */\n              tag_65\n              jump\t// in\n            tag_152:\n                /* \"#utility.yul\":5474:5545   */\n              tag_153\n                /* \"#utility.yul\":5538:5544   */\n              dup2\n                /* \"#utility.yul\":5533:5536   */\n              dup6\n                /* \"#utility.yul\":5474:5545   */\n              tag_66\n              jump\t// in\n            tag_153:\n                /* \"#utility.yul\":5467:5545   */\n              swap4\n              pop\n                /* \"#utility.yul\":5554:5619   */\n              tag_154\n                /* \"#utility.yul\":5612:5618   */\n              dup2\n                /* \"#utility.yul\":5607:5610   */\n              dup6\n                /* \"#utility.yul\":5600:5604   */\n              0x20\n                /* \"#utility.yul\":5593:5598   */\n              dup7\n                /* \"#utility.yul\":5589:5605   */\n              add\n                /* \"#utility.yul\":5554:5619   */\n              tag_67\n              jump\t// in\n            tag_154:\n                /* \"#utility.yul\":5644:5673   */\n              tag_155\n                /* \"#utility.yul\":5666:5672   */\n              dup2\n                /* \"#utility.yul\":5644:5673   */\n              tag_57\n              jump\t// in\n            tag_155:\n                /* \"#utility.yul\":5639:5642   */\n              dup5\n                /* \"#utility.yul\":5635:5674   */\n              add\n                /* \"#utility.yul\":5628:5674   */\n              swap2\n              pop\n                /* \"#utility.yul\":5395:5680   */\n              pop\n                /* \"#utility.yul\":5303:5680   */\n              swap3\n              swap2\n              pop\n              pop\n              jump\t// out\n                /* \"#utility.yul\":5686:6109   */\n            tag_29:\n                /* \"#utility.yul\":5827:5831   */\n              0x00\n                /* \"#utility.yul\":5865:5867   */\n              0x40\n                /* \"#utility.yul\":5854:5863   */\n              dup3\n                /* \"#utility.yul\":5850:5868   */\n              add\n                /* \"#utility.yul\":5842:5868   */\n              swap1\n              pop\n                /* \"#utility.yul\":5878:5949   */\n              tag_157\n                /* \"#utility.yul\":5946:5947   */\n              0x00\n                /* \"#utility.yul\":5935:5944   */\n              dup4\n                /* \"#utility.yul\":5931:5948   */\n              add\n                /* \"#utility.yul\":5922:5928   */\n              dup6\n                /* \"#utility.yul\":5878:5949   */\n              tag_49\n              jump\t// in\n            tag_157:\n                /* \"#utility.yul\":5996:6005   */\n              dup2\n                /* \"#utility.yul\":5990:5994   */\n              dup2\n                /* \"#utility.yul\":5986:6006   */\n              sub\n                /* \"#utility.yul\":5981:5983   */\n              0x20\n                /* \"#utility.yul\":5970:5979   */\n              dup4\n                /* \"#utility.yul\":5966:5984   */\n              add\n                /* \"#utility.yul\":5959:6007   */\n              mstore\n                /* \"#utility.yul\":6024:6102   */\n              tag_158\n                /* \"#utility.yul\":6097:6101   */\n              dup2\n                /* \"#utility.yul\":6088:6094   */\n              dup5\n                /* \"#utility.yul\":6024:6102   */\n              tag_68\n              jump\t// in\n            tag_158:\n                /* \"#utility.yul\":6016:6102   */\n              swap1\n              pop\n                /* \"#utility.yul\":5686:6109   */\n              swap4\n              swap3\n              pop\n              pop\n              pop\n              jump\t// out\n                /* \"#utility.yul\":6115:6295   */\n            tag_69:\n                /* \"#utility.yul\":6163:6240   */\n              0x4e487b7100000000000000000000000000000000000000000000000000000000\n                /* \"#utility.yul\":6160:6161   */\n              0x00\n                /* \"#utility.yul\":6153:6241   */\n              mstore\n                /* \"#utility.yul\":6260:6264   */\n              0x11\n                /* \"#utility.yul\":6257:6258   */\n              0x04\n                /* \"#utility.yul\":6250:6265   */\n              mstore\n                /* \"#utility.yul\":6284:6288   */\n              0x24\n                /* \"#utility.yul\":6281:6282   */\n              0x00\n                /* \"#utility.yul\":6274:6289   */\n              revert\n                /* \"#utility.yul\":6301:6711   */\n            tag_32:\n                /* \"#utility.yul\":6341:6348   */\n              0x00\n                /* \"#utility.yul\":6364:6384   */\n              tag_161\n                /* \"#utility.yul\":6382:6383   */\n              dup3\n                /* \"#utility.yul\":6364:6384   */\n              tag_48\n              jump\t// in\n            tag_161:\n                /* \"#utility.yul\":6359:6384   */\n              swap2\n              pop\n                /* \"#utility.yul\":6398:6418   */\n              tag_162\n                /* \"#utility.yul\":6416:6417   */\n              dup4\n                /* \"#utility.yul\":6398:6418   */\n              tag_48\n              jump\t// in\n            tag_162:\n                /* \"#utility.yul\":6393:6418   */\n              swap3\n              pop\n                /* \"#utility.yul\":6453:6454   */\n              dup3\n                /* \"#utility.yul\":6450:6451   */\n              dup3\n                /* \"#utility.yul\":6446:6455   */\n              mul\n                /* \"#utility.yul\":6475:6505   */\n              tag_163\n                /* \"#utility.yul\":6493:6504   */\n              dup2\n                /* \"#utility.yul\":6475:6505   */\n              tag_48\n              jump\t// in\n            tag_163:\n                /* \"#utility.yul\":6464:6505   */\n              swap2\n              pop\n                /* \"#utility.yul\":6654:6655   */\n              dup3\n                /* \"#utility.yul\":6645:6652   */\n              dup3\n                /* \"#utility.yul\":6641:6656   */\n              div\n                /* \"#utility.yul\":6638:6639   */\n              dup5\n                /* \"#utility.yul\":6635:6657   */\n              eq\n                /* \"#utility.yul\":6615:6616   */\n              dup4\n                /* \"#utility.yul\":6608:6617   */\n              iszero\n                /* \"#utility.yul\":6588:6671   */\n              or\n                /* \"#utility.yul\":6565:6704   */\n              tag_164\n              jumpi\n                /* \"#utility.yul\":6684:6702   */\n              tag_165\n              tag_69\n              jump\t// in\n            tag_165:\n                /* \"#utility.yul\":6565:6704   */\n            tag_164:\n                /* \"#utility.yul\":6349:6711   */\n              pop\n                /* \"#utility.yul\":6301:6711   */\n              swap3\n              swap2\n              pop\n              pop\n              jump\t// out\n                /* \"#utility.yul\":6717:6897   */\n            tag_70:\n                /* \"#utility.yul\":6765:6842   */\n              0x4e487b7100000000000000000000000000000000000000000000000000000000\n                /* \"#utility.yul\":6762:6763   */\n              0x00\n                /* \"#utility.yul\":6755:6843   */\n              mstore\n                /* \"#utility.yul\":6862:6866   */\n              0x22\n                /* \"#utility.yul\":6859:6860   */\n              0x04\n                /* \"#utility.yul\":6852:6867   */\n              mstore\n                /* \"#utility.yul\":6886:6890   */\n              0x24\n                /* \"#utility.yul\":6883:6884   */\n              0x00\n                /* \"#utility.yul\":6876:6891   */\n              revert\n                /* \"#utility.yul\":6903:7223   */\n            tag_43:\n                /* \"#utility.yul\":6947:6953   */\n              0x00\n                /* \"#utility.yul\":6984:6985   */\n              0x02\n                /* \"#utility.yul\":6978:6982   */\n              dup3\n                /* \"#utility.yul\":6974:6986   */\n              div\n                /* \"#utility.yul\":6964:6986   */\n              swap1\n              pop\n                /* \"#utility.yul\":7031:7032   */\n              0x01\n                /* \"#utility.yul\":7025:7029   */\n              dup3\n                /* \"#utility.yul\":7021:7033   */\n              and\n                /* \"#utility.yul\":7052:7070   */\n              dup1\n                /* \"#utility.yul\":7042:7123   */\n              tag_168\n              jumpi\n                /* \"#utility.yul\":7108:7112   */\n              0x7f\n                /* \"#utility.yul\":7100:7106   */\n              dup3\n                /* \"#utility.yul\":7096:7113   */\n              and\n                /* \"#utility.yul\":7086:7113   */\n              swap2\n              pop\n                /* \"#utility.yul\":7042:7123   */\n            tag_168:\n                /* \"#utility.yul\":7170:7172   */\n              0x20\n                /* \"#utility.yul\":7162:7168   */\n              dup3\n                /* \"#utility.yul\":7159:7173   */\n              lt\n                /* \"#utility.yul\":7139:7157   */\n              dup2\n                /* \"#utility.yul\":7136:7174   */\n              sub\n                /* \"#utility.yul\":7133:7217   */\n              tag_169\n              jumpi\n                /* \"#utility.yul\":7189:7207   */\n              tag_170\n              tag_70\n              jump\t// in\n            tag_170:\n                /* \"#utility.yul\":7133:7217   */\n            tag_169:\n                /* \"#utility.yul\":6954:7223   */\n              pop\n                /* \"#utility.yul\":6903:7223   */\n              swap2\n              swap1\n              pop\n              jump\t// out\n                /* \"#utility.yul\":7229:7370   */\n            tag_71:\n                /* \"#utility.yul\":7278:7282   */\n              0x00\n                /* \"#utility.yul\":7301:7304   */\n              dup2\n                /* \"#utility.yul\":7293:7304   */\n              swap1\n              pop\n                /* \"#utility.yul\":7324:7327   */\n              dup2\n                /* \"#utility.yul\":7321:7322   */\n              0x00\n                /* \"#utility.yul\":7314:7328   */\n              mstore\n                /* \"#utility.yul\":7358:7362   */\n              0x20\n                /* \"#utility.yul\":7355:7356   */\n              0x00\n                /* \"#utility.yul\":7345:7363   */\n              keccak256\n                /* \"#utility.yul\":7337:7363   */\n              swap1\n              pop\n                /* \"#utility.yul\":7229:7370   */\n              swap2\n              swap1\n              pop\n              jump\t// out\n                /* \"#utility.yul\":7376:7469   */\n            tag_72:\n                /* \"#utility.yul\":7413:7419   */\n              0x00\n                /* \"#utility.yul\":7460:7462   */\n              0x20\n                /* \"#utility.yul\":7455:7457   */\n              0x1f\n                /* \"#utility.yul\":7448:7453   */\n              dup4\n                /* \"#utility.yul\":7444:7458   */\n              add\n                /* \"#utility.yul\":7440:7463   */\n              div\n                /* \"#utility.yul\":7430:7463   */\n              swap1\n              pop\n                /* \"#utility.yul\":7376:7469   */\n              swap2\n              swap1\n              pop\n              jump\t// out\n                /* \"#utility.yul\":7475:7582   */\n            tag_73:\n                /* \"#utility.yul\":7519:7527   */\n              0x00\n                /* \"#utility.yul\":7569:7574   */\n              dup3\n                /* \"#utility.yul\":7563:7567   */\n              dup3\n                /* \"#utility.yul\":7559:7575   */\n              shl\n                /* \"#utility.yul\":7538:7575   */\n              swap1\n              pop\n                /* \"#utility.yul\":7475:7582   */\n              swap3\n              swap2\n              pop\n              pop\n              jump\t// out\n                /* \"#utility.yul\":7588:7981   */\n            tag_74:\n                /* \"#utility.yul\":7657:7663   */\n              0x00\n                /* \"#utility.yul\":7707:7708   */\n              0x08\n                /* \"#utility.yul\":7695:7705   */\n              dup4\n                /* \"#utility.yul\":7691:7709   */\n              mul\n                /* \"#utility.yul\":7730:7827   */\n              tag_175\n                /* \"#utility.yul\":7760:7826   */\n              0xffffffffffffffffffffffffffffffffffffffffffffffffffffffffffffffff\n                /* \"#utility.yul\":7749:7758   */\n              dup3\n                /* \"#utility.yul\":7730:7827   */\n              tag_73\n              jump\t// in\n            tag_175:\n                /* \"#utility.yul\":7848:7887   */\n              tag_176\n                /* \"#utility.yul\":7878:7886   */\n              dup7\n                /* \"#utility.yul\":7867:7876   */\n              dup4\n                /* \"#utility.yul\":7848:7887   */\n              tag_73\n              jump\t// in\n            tag_176:\n                /* \"#utility.yul\":7836:7887   */\n              swap6\n              pop\n                /* \"#utility.yul\":7920:7924   */\n              dup1\n                /* \"#utility.yul\":7916:7925   */\n              not\n                /* \"#utility.yul\":7909:7914   */\n              dup5\n                /* \"#utility.yul\":7905:7926   */\n              and\n                /* \"#utility.yul\":7896:7926   */\n              swap4\n              pop\n                /* \"#utility.yul\":7969:7973   */\n              dup1\n                /* \"#utility.yul\":7959:7967   */\n              dup7\n                /* \"#utility.yul\":7955:7974   */\n              and\n                /* \"#utility.yul\":7948:7953   */\n              dup5\n                /* \"#utility.yul\":7945:7975   */\n              or\n                /* \"#utility.yul\":7935:7975   */\n              swap3\n              pop\n                /* \"#utility.yul\":7664:7981   */\n              pop\n              pop\n                /* \"#utility.yul\":7588:7981   */\n              swap4\n              swap3\n              pop\n              pop\n              pop\n              jump\t// out\n                /* \"#utility.yul\":7987:8047   */\n            tag_75:\n                /* \"#utility.yul\":8015:8018   */\n              0x00\n                /* \"#utility.yul\":8036:8041   */\n              dup2\n                /* \"#utility.yul\":8029:8041   */\n              swap1\n              pop\n                /* \"#utility.yul\":7987:8047   */\n              swap2\n              swap1\n              pop\n              jump\t// out\n                /* \"#utility.yul\":8053:8195   */\n            tag_76:\n                /* \"#utility.yul\":8103:8112   */\n              0x00\n                /* \"#utility.yul\":8136:8189   */\n              tag_179\n                /* \"#utility.yul\":8154:8188   */\n              tag_180\n                /* \"#utility.yul\":8163:8187   */\n              tag_181\n                /* \"#utility.yul\":8181:8186   */\n              dup5\n                /* \"#utility.yul\":8163:8187   */\n              tag_48\n              jump\t// in\n            tag_181:\n                /* \"#utility.yul\":8154:8188   */\n              tag_75\n              jump\t// in\n            tag_180:\n                /* \"#utility.yul\":8136:8189   */\n              tag_48\n              jump\t// in\n            tag_179:\n                /* \"#utility.yul\":8123:8189   */\n              swap1\n              pop\n                /* \"#utility.yul\":8053:8195   */\n              swap2\n              swap1\n              pop\n              jump\t// out\n                /* \"#utility.yul\":8201:8276   */\n            tag_77:\n                /* \"#utility.yul\":8244:8247   */\n              0x00\n                /* \"#utility.yul\":8265:8270   */\n              dup2\n                /* \"#utility.yul\":8258:8270   */\n              swap1\n              pop\n                /* \"#utility.yul\":8201:8276   */\n              swap2\n              swap1\n              pop\n              jump\t// out\n                /* \"#utility.yul\":8282:8551   */\n            tag_78:\n                /* \"#utility.yul\":8392:8431   */\n              tag_184\n                /* \"#utility.yul\":8423:8430   */\n              dup4\n                /* \"#utility.yul\":8392:8431   */\n              tag_76\n              jump\t// in\n            tag_184:\n                /* \"#utility.yul\":8453:8544   */\n              tag_185\n                /* \"#utility.yul\":8502:8543   */\n              tag_186\n                /* \"#utility.yul\":8526:8542   */\n              dup3\n                /* \"#utility.yul\":8502:8543   */\n              tag_77\n              jump\t// in\n            tag_186:\n                /* \"#utility.yul\":8494:8500   */\n              dup5\n                /* \"#utility.yul\":8487:8491   */\n              dup5\n                /* \"#utility.yul\":8481:8492   */\n              sload\n                /* \"#utility.yul\":8453:8544   */\n              tag_74\n              jump\t// in\n            tag_185:\n                /* \"#utility.yul\":8447:8451   */\n              dup3\n                /* \"#utility.yul\":8440:8545   */\n              sstore\n                /* \"#utility.yul\":8358:8551   */\n              pop\n                /* \"#utility.yul\":8282:8551   */\n              pop\n              pop\n              pop\n              jump\t// out\n                /* \"#utility.yul\":8557:8630   */\n            tag_79:\n                /* \"#utility.yul\":8602:8605   */\n              0x00\n                /* \"#utility.yul\":8557:8630   */\n              swap1\n              jump\t// out\n                /* \"#utility.yul\":8636:8825   */\n            tag_80:\n                /* \"#utility.yul\":8713:8745   */\n              tag_189\n              tag_79\n              jump\t// in\n            tag_189:\n                /* \"#utility.yul\":8754:8819   */\n              tag_190\n                /* \"#utility.yul\":8812:8818   */\n              dup2\n                /* \"#utility.yul\":8804:8810   */\n              dup5\n                /* \"#utility.yul\":8798:8802   */\n              dup5\n                /* \"#utility.yul\":8754:8819   */\n              tag_78\n              jump\t// in\n            tag_190:\n                /* \"#utility.yul\":8689:8825   */\n              pop\n                /* \"#utility.yul\":8636:8825   */\n              pop\n              pop\n              jump\t// out\n                /* \"#utility.yul\":8831:9017   */\n            tag_81:\n                /* \"#utility.yul\":8891:9011   */\n            tag_192:\n                /* \"#utility.yul\":8908:8911   */\n              dup2\n                /* \"#utility.yul\":8901:8906   */\n              dup2\n                /* \"#utility.yul\":8898:8912   */\n              lt\n                /* \"#utility.yul\":8891:9011   */\n              iszero\n              tag_194\n              jumpi\n                /* \"#utility.yul\":8962:9001   */\n              tag_195\n                /* \"#utility.yul\":8999:9000   */\n              0x00\n                /* \"#utility.yul\":8992:8997   */\n              dup3\n                /* \"#utility.yul\":8962:9001   */\n              tag_80\n              jump\t// in\n            tag_195:\n                /* \"#utility.yul\":8935:8936   */\n              0x01\n                /* \"#utility.yul\":8928:8933   */\n              dup2\n                /* \"#utility.yul\":8924:8937   */\n              add\n                /* \"#utility.yul\":8915:8937   */\n              swap1\n              pop\n                /* \"#utility.yul\":8891:9011   */\n              jump(tag_192)\n            tag_194:\n                /* \"#utility.yul\":8831:9017   */\n              pop\n              pop\n              jump\t// out\n                /* \"#utility.yul\":9023:9566   */\n            tag_82:\n                /* \"#utility.yul\":9124:9126   */\n              0x1f\n                /* \"#utility.yul\":9119:9122   */\n              dup3\n                /* \"#utility.yul\":9116:9127   */\n              gt\n                /* \"#utility.yul\":9113:9559   */\n              iszero\n              tag_197\n              jumpi\n                /* \"#utility.yul\":9158:9196   */\n              tag_198\n                /* \"#utility.yul\":9190:9195   */\n              dup2\n                /* \"#utility.yul\":9158:9196   */\n              tag_71\n              jump\t// in\n            tag_198:\n                /* \"#utility.yul\":9242:9271   */\n              tag_199\n                /* \"#utility.yul\":9260:9270   */\n              dup5\n                /* \"#utility.yul\":9242:9271   */\n              tag_72\n              jump\t// in\n            tag_199:\n                /* \"#utility.yul\":9232:9240   */\n              dup2\n                /* \"#utility.yul\":9228:9272   */\n              add\n                /* \"#utility.yul\":9425:9427   */\n              0x20\n                /* \"#utility.yul\":9413:9423   */\n              dup6\n                /* \"#utility.yul\":9410:9428   */\n              lt\n                /* \"#utility.yul\":9407:9456   */\n              iszero\n              tag_200\n              jumpi\n                /* \"#utility.yul\":9446:9454   */\n              dup2\n                /* \"#utility.yul\":9431:9454   */\n              swap1\n              pop\n                /* \"#utility.yul\":9407:9456   */\n            tag_200:\n                /* \"#utility.yul\":9469:9549   */\n              tag_201\n                /* \"#utility.yul\":9525:9547   */\n              tag_202\n                /* \"#utility.yul\":9543:9546   */\n              dup6\n                /* \"#utility.yul\":9525:9547   */\n              tag_72\n              jump\t// in\n            tag_202:\n                /* \"#utility.yul\":9515:9523   */\n              dup4\n                /* \"#utility.yul\":9511:9548   */\n              add\n                /* \"#utility.yul\":9498:9509   */\n              dup3\n                /* \"#utility.yul\":9469:9549   */\n              tag_81\n              jump\t// in\n            tag_201:\n                /* \"#utility.yul\":9128:9559   */\n              pop\n              pop\n                /* \"#utility.yul\":9113:9559   */\n            tag_197:\n                /* \"#utility.yul\":9023:9566   */\n              pop\n              pop\n              pop\n              jump\t// out\n                /* \"#utility.yul\":9572:9689   */\n            tag_83:\n                /* \"#utility.yul\":9626:9634   */\n              0x00\n                /* \"#utility.yul\":9676:9681   */\n              dup3\n                /* \"#utility.yul\":9670:9674   */\n              dup3\n                /* \"#utility.yul\":9666:9682   */\n              shr\n                /* \"#utility.yul\":9645:9682   */\n              swap1\n              pop\n                /* \"#utility.yul\":9572:9689   */\n              swap3\n              swap2\n              pop\n              pop\n              jump\t// out\n                /* \"#utility.yul\":9695:9864   */\n            tag_84:\n                /* \"#utility.yul\":9739:9745   */\n              0x00\n                /* \"#utility.yul\":9772:9823   */\n              tag_205\n                /* \"#utility.yul\":9820:9821   */\n              0x00\n                /* \"#utility.yul\":9816:9822   */\n              not\n                /* \"#utility.yul\":9808:9813   */\n              dup5\n                /* \"#utility.yul\":9805:9806   */\n              0x08\n                /* \"#utility.yul\":9801:9814   */\n              mul\n                /* \"#utility.yul\":9772:9823   */\n              tag_83\n              jump\t// in\n            tag_205:\n                /* \"#utility.yul\":9768:9824   */\n              not\n                /* \"#utility.yul\":9853:9857   */\n              dup1\n                /* \"#utility.yul\":9847:9851   */\n              dup4\n                /* \"#utility.yul\":9843:9858   */\n              and\n                /* \"#utility.yul\":9833:9858   */\n              swap2\n              pop\n                /* \"#utility.yul\":9746:9864   */\n              pop\n                /* \"#utility.yul\":9695:9864   */\n              swap3\n              swap2\n              pop\n              pop\n              jump\t// out\n                /* \"#utility.yul\":9869:10164   */\n            tag_85:\n                /* \"#utility.yul\":9945:9949   */\n              0x00\n                /* \"#utility.yul\":10091:10120   */\n              tag_207\n                /* \"#utility.yul\":10116:10119   */\n              dup4\n                /* \"#utility.yul\":10110:10114   */\n              dup4\n                /* \"#utility.yul\":10091:10120   */\n              tag_84\n              jump\t// in\n            tag_207:\n                /* \"#utility.yul\":10083:10120   */\n              swap2\n              pop\n                /* \"#utility.yul\":10153:10156   */\n              dup3\n                /* \"#utility.yul\":10150:10151   */\n              0x02\n                /* \"#utility.yul\":10146:10157   */\n              mul\n                /* \"#utility.yul\":10140:10144   */\n              dup3\n                /* \"#utility.yul\":10137:10158   */\n              or\n                /* \"#utility.yul\":10129:10158   */\n              swap1\n              pop\n                /* \"#utility.yul\":9869:10164   */\n              swap3\n              swap2\n              pop\n              pop\n              jump\t// out\n                /* \"#utility.yul\":10169:11564   */\n            tag_37:\n                /* \"#utility.yul\":10286:10323   */\n              tag_209\n                /* \"#utility.yul\":10319:10322   */\n              dup3\n                /* \"#utility.yul\":10286:10323   */\n              tag_65\n              jump\t// in\n            tag_209:\n                /* \"#utility.yul\":10388:10406   */\n              0xffffffffffffffff\n                /* \"#utility.yul\":10380:10386   */\n              dup2\n                /* \"#utility.yul\":10377:10407   */\n              gt\n                /* \"#utility.yul\":10374:10430   */\n              iszero\n              tag_210\n              jumpi\n                /* \"#utility.yul\":10410:10428   */\n              tag_211\n              tag_58\n              jump\t// in\n            tag_211:\n                /* \"#utility.yul\":10374:10430   */\n            tag_210:\n                /* \"#utility.yul\":10454:10492   */\n              tag_212\n                /* \"#utility.yul\":10486:10490   */\n              dup3\n                /* \"#utility.yul\":10480:10491   */\n              sload\n                /* \"#utility.yul\":10454:10492   */\n              tag_43\n              jump\t// in\n            tag_212:\n                /* \"#utility.yul\":10539:10606   */\n              tag_213\n                /* \"#utility.yul\":10599:10605   */\n              dup3\n                /* \"#utility.yul\":10591:10597   */\n              dup3\n                /* \"#utility.yul\":10585:10589   */\n              dup6\n                /* \"#utility.yul\":10539:10606   */\n              tag_82\n              jump\t// in\n            tag_213:\n                /* \"#utility.yul\":10633:10634   */\n              0x00\n                /* \"#utility.yul\":10657:10661   */\n              0x20\n                /* \"#utility.yul\":10644:10661   */\n              swap1\n              pop\n                /* \"#utility.yul\":10689:10691   */\n              0x1f\n                /* \"#utility.yul\":10681:10687   */\n              dup4\n                /* \"#utility.yul\":10678:10692   */\n              gt\n                /* \"#utility.yul\":10706:10707   */\n              0x01\n                /* \"#utility.yul\":10701:11319   */\n              dup2\n              eq\n              tag_215\n              jumpi\n                /* \"#utility.yul\":11363:11364   */\n              0x00\n                /* \"#utility.yul\":11380:11386   */\n              dup5\n                /* \"#utility.yul\":11377:11454   */\n              iszero\n              tag_216\n              jumpi\n                /* \"#utility.yul\":11429:11438   */\n              dup3\n                /* \"#utility.yul\":11424:11427   */\n              dup8\n                /* \"#utility.yul\":11420:11439   */\n              add\n                /* \"#utility.yul\":11414:11440   */\n              mload\n                /* \"#utility.yul\":11405:11440   */\n              swap1\n              pop\n                /* \"#utility.yul\":11377:11454   */\n            tag_216:\n                /* \"#utility.yul\":11480:11547   */\n              tag_217\n                /* \"#utility.yul\":11540:11546   */\n              dup6\n                /* \"#utility.yul\":11533:11538   */\n              dup3\n                /* \"#utility.yul\":11480:11547   */\n              tag_85\n              jump\t// in\n            tag_217:\n                /* \"#utility.yul\":11474:11478   */\n              dup7\n                /* \"#utility.yul\":11467:11548   */\n              sstore\n                /* \"#utility.yul\":11336:11558   */\n              pop\n                /* \"#utility.yul\":10671:11558   */\n              jump(tag_214)\n                /* \"#utility.yul\":10701:11319   */\n            tag_215:\n                /* \"#utility.yul\":10753:10757   */\n              0x1f\n                /* \"#utility.yul\":10749:10758   */\n              not\n                /* \"#utility.yul\":10741:10747   */\n              dup5\n                /* \"#utility.yul\":10737:10759   */\n              and\n                /* \"#utility.yul\":10787:10824   */\n              tag_218\n                /* \"#utility.yul\":10819:10823   */\n              dup7\n                /* \"#utility.yul\":10787:10824   */\n              tag_71\n              jump\t// in\n            tag_218:\n                /* \"#utility.yul\":10846:10847   */\n              0x00\n                /* \"#utility.yul\":10860:11068   */\n            tag_219:\n                /* \"#utility.yul\":10874:10881   */\n              dup3\n                /* \"#utility.yul\":10871:10872   */\n              dup2\n                /* \"#utility.yul\":10868:10882   */\n              lt\n                /* \"#utility.yul\":10860:11068   */\n              iszero\n              tag_221\n              jumpi\n                /* \"#utility.yul\":10953:10962   */\n              dup5\n                /* \"#utility.yul\":10948:10951   */\n              dup10\n                /* \"#utility.yul\":10944:10963   */\n              add\n                /* \"#utility.yul\":10938:10964   */\n              mload\n                /* \"#utility.yul\":10930:10936   */\n              dup3\n                /* \"#utility.yul\":10923:10965   */\n              sstore\n                /* \"#utility.yul\":11004:11005   */\n              0x01\n                /* \"#utility.yul\":10996:11002   */\n              dup3\n                /* \"#utility.yul\":10992:11006   */\n              add\n                /* \"#utility.yul\":10982:11006   */\n              swap2\n              pop\n                /* \"#utility.yul\":11051:11053   */\n              0x20\n                /* \"#utility.yul\":11040:11049   */\n              dup6\n                /* \"#utility.yul\":11036:11054   */\n              add\n                /* \"#utility.yul\":11023:11054   */\n              swap5\n              pop\n                /* \"#utility.yul\":10897:10901   */\n              0x20\n                /* \"#utility.yul\":10894:10895   */\n              dup2\n                /* \"#utility.yul\":10890:10902   */\n              add\n                /* \"#utility.yul\":10885:10902   */\n              swap1\n              pop\n                /* \"#utility.yul\":10860:11068   */\n              jump(tag_219)\n            tag_221:\n                /* \"#utility.yul\":11096:11102   */\n              dup7\n                /* \"#utility.yul\":11087:11094   */\n              dup4\n                /* \"#utility.yul\":11084:11103   */\n              lt\n                /* \"#utility.yul\":11081:11260   */\n              iszero\n              tag_222\n              jumpi\n                /* \"#utility.yul\":11154:11163   */\n              dup5\n                /* \"#utility.yul\":11149:11152   */\n              dup10\n                /* \"#utility.yul\":11145:11164   */\n              add\n                /* \"#utility.yul\":11139:11165   */\n              mload\n                /* \"#utility.yul\":11197:11245   */\n              tag_223\n                /* \"#utility.yul\":11239:11243   */\n              0x1f\n                /* \"#utility.yul\":11231:11237   */\n              dup10\n                /* \"#utility.yul\":11227:11244   */\n              and\n                /* \"#utility.yul\":11216:11225   */\n              dup3\n                /* \"#utility.yul\":11197:11245   */\n              tag_84\n              jump\t// in\n            tag_223:\n                /* \"#utility.yul\":11189:11195   */\n              dup4\n                /* \"#utility.yul\":11182:11246   */\n              sstore\n                /* \"#utility.yul\":11104:11260   */\n              pop\n                /* \"#utility.yul\":11081:11260   */\n            tag_222:\n                /* \"#utility.yul\":11306:11307   */\n              0x01\n                /* \"#utility.yul\":11302:11303   */\n              0x02\n                /* \"#utility.yul\":11294:11300   */\n              dup9\n                /* \"#utility.yul\":11290:11304   */\n              mul\n                /* \"#utility.yul\":11286:11308   */\n              add\n                /* \"#utility.yul\":11280:11284   */\n              dup9\n                /* \"#utility.yul\":11273:11309   */\n              sstore\n                /* \"#utility.yul\":10708:11319   */\n              pop\n              pop\n              pop\n                /* \"#utility.yul\":10671:11558   */\n            tag_214:\n              pop\n                /* \"#utility.yul\":10261:11564   */\n              pop\n              pop\n              pop\n                /* \"#utility.yul\":10169:11564   */\n              pop\n              pop\n              jump\t// out\n                /* \"#utility.yul\":11570:11718   */\n            tag_86:\n                /* \"#utility.yul\":11672:11683   */\n              0x00\n                /* \"#utility.yul\":11709:11712   */\n              dup2\n                /* \"#utility.yul\":11694:11712   */\n              swap1\n              pop\n                /* \"#utility.yul\":11570:11718   */\n              swap3\n              swap2\n              pop\n              pop\n              jump\t// out\n                /* \"#utility.yul\":11724:12114   */\n            tag_87:\n                /* \"#utility.yul\":11830:11833   */\n              0x00\n                /* \"#utility.yul\":11858:11897   */\n              tag_226\n                /* \"#utility.yul\":11891:11896   */\n              dup3\n                /* \"#utility.yul\":11858:11897   */\n              tag_65\n              jump\t// in\n            tag_226:\n                /* \"#utility.yul\":11913:12002   */\n              tag_227\n                /* \"#utility.yul\":11995:12001   */\n              dup2\n                /* \"#utility.yul\":11990:11993   */\n              dup6\n                /* \"#utility.yul\":11913:12002   */\n              tag_86\n              jump\t// in\n            tag_227:\n                /* \"#utility.yul\":11906:12002   */\n              swap4\n              pop\n                /* \"#utility.yul\":12011:12076   */\n              tag_228\n                /* \"#utility.yul\":12069:12075   */\n              dup2\n                /* \"#utility.yul\":12064:12067   */\n              dup6\n                /* \"#utility.yul\":12057:12061   */\n              0x20\n                /* \"#utility.yul\":12050:12055   */\n              dup7\n                /* \"#utility.yul\":12046:12062   */\n              add\n                /* \"#utility.yul\":12011:12076   */\n              tag_67\n              jump\t// in\n            tag_228:\n                /* \"#utility.yul\":12101:12107   */\n              dup1\n                /* \"#utility.yul\":12096:12099   */\n              dup5\n                /* \"#utility.yul\":12092:12108   */\n              add\n                /* \"#utility.yul\":12085:12108   */\n              swap2\n              pop\n                /* \"#utility.yul\":11834:12114   */\n              pop\n                /* \"#utility.yul\":11724:12114   */\n              swap3\n              swap2\n              pop\n              pop\n              jump\t// out\n                /* \"#utility.yul\":12120:12395   */\n            tag_39:\n                /* \"#utility.yul\":12252:12255   */\n              0x00\n                /* \"#utility.yul\":12274:12369   */\n              tag_230\n                /* \"#utility.yul\":12365:12368   */\n              dup3\n                /* \"#utility.yul\":12356:12362   */\n              dup5\n                /* \"#utility.yul\":12274:12369   */\n              tag_87\n              jump\t// in\n            tag_230:\n                /* \"#utility.yul\":12267:12369   */\n              swap2\n              pop\n                /* \"#utility.yul\":12386:12389   */\n              dup2\n                /* \"#utility.yul\":12379:12389   */\n              swap1\n              pop\n                /* \"#utility.yul\":12120:12395   */\n              swap3\n              swap2\n              pop\n              pop\n              jump\t// out\n\n            auxdata: 0xa2646970667358221220918fafda8ca5c26977927a15b98df582090eace352b4cf0ae39d55370b0770c164736f6c63430008110033\n        }\n    }\n\n    auxdata: 0xa2646970667358221220c1fc4ae8fab06cce1a104893da3814709413d5285d907d04ba290efd2ca8bdb364736f6c63430008110033\n}\n",
				"bytecode": {
					"linkReferences": {},
					"object": "608060405234801561001057600080fd5b50610f0f806100206000396000f3fe608060405234801561001057600080fd5b506004361061004c5760003560e01c80631563700f1461005157806364591bf11461006d578063969c7f5a1461009d578063c5f19c20146100a7575b600080fd5b61006b6004803603810190610066919061035e565b6100d7565b005b6100876004803603810190610082919061039e565b610189565b604051610094919061044a565b60405180910390f35b6100a56101c8565b005b6100c160048036038101906100bc919061039e565b61025b565b6040516100ce9190610474565b60405180910390f35b60008083815481106100ec576100eb61048f565b5b9060005260206000200160009054906101000a900473ffffffffffffffffffffffffffffffffffffffff1690508073ffffffffffffffffffffffffffffffffffffffff16636057361d836040518263ffffffff1660e01b81526004016101529190610474565b600060405180830381600087803b15801561016c57600080fd5b505af1158015610180573d6000803e3d6000fd5b50505050505050565b6000818154811061019957600080fd5b906000526020600020016000915054906101000a900473ffffffffffffffffffffffffffffffffffffffff1681565b60006040516101d690610316565b604051809103906000f0801580156101f2573d6000803e3d6000fd5b5090506000819080600181540180825580915050600190039060005260206000200160009091909190916101000a81548173ffffffffffffffffffffffffffffffffffffffff021916908373ffffffffffffffffffffffffffffffffffffffff16021790555050565b600080600083815481106102725761027161048f565b5b9060005260206000200160009054906101000a900473ffffffffffffffffffffffffffffffffffffffff1690508073ffffffffffffffffffffffffffffffffffffffff16632e64cec16040518163ffffffff1660e01b8152600401602060405180830381865afa1580156102ea573d6000803e3d6000fd5b505050506040513d601f19601f8201168201806040525081019061030e91906104d3565b915050919050565b6109d98061050183390190565b600080fd5b6000819050919050565b61033b81610328565b811461034657600080fd5b50565b60008135905061035881610332565b92915050565b6000806040838503121561037557610374610323565b5b600061038385828601610349565b925050602061039485828601610349565b9150509250929050565b6000602082840312156103b4576103b3610323565b5b60006103c284828501610349565b91505092915050565b600073ffffffffffffffffffffffffffffffffffffffff82169050919050565b6000819050919050565b600061041061040b610406846103cb565b6103eb565b6103cb565b9050919050565b6000610422826103f5565b9050919050565b600061043482610417565b9050919050565b61044481610429565b82525050565b600060208201905061045f600083018461043b565b92915050565b61046e81610328565b82525050565b60006020820190506104896000830184610465565b92915050565b7f4e487b7100000000000000000000000000000000000000000000000000000000600052603260045260246000fd5b6000815190506104cd81610332565b92915050565b6000602082840312156104e9576104e8610323565b5b60006104f7848285016104be565b9150509291505056fe608060405234801561001057600080fd5b506109b9806100206000396000f3fe608060405234801561001057600080fd5b50600436106100575760003560e01c80632e64cec11461005c5780636057361d1461007a5780636f760f41146100965780638bab8dd5146100b25780639e7a13ad146100e2575b600080fd5b610064610113565b60405161007191906102bf565b60405180910390f35b610094600480360381019061008f919061031a565b610129565b005b6100b060048036038101906100ab919061048d565b610133565b005b6100cc60048036038101906100c791906104e9565b6101bc565b6040516100d991906102bf565b60405180910390f35b6100fc60048036038101906100f7919061031a565b6101ea565b60405161010a9291906105b1565b60405180910390f35b600060026000546101249190610610565b905090565b8060008190555050565b60026040518060400160405280838152602001848152509080600181540180825580915050600190039060005260206000209060020201600090919091909150600082015181600001556020820151816001019081610192919061085e565b505050806001836040516101a6919061096c565b9081526020016040518091039020819055505050565b6001818051602081018201805184825260208301602085012081835280955050505050506000915090505481565b600281815481106101fa57600080fd5b906000526020600020906002020160009150905080600001549080600101805461022390610681565b80601f016020809104026020016040519081016040528092919081815260200182805461024f90610681565b801561029c5780601f106102715761010080835404028352916020019161029c565b820191906000526020600020905b81548152906001019060200180831161027f57829003601f168201915b5050505050905082565b6000819050919050565b6102b9816102a6565b82525050565b60006020820190506102d460008301846102b0565b92915050565b6000604051905090565b600080fd5b600080fd5b6102f7816102a6565b811461030257600080fd5b50565b600081359050610314816102ee565b92915050565b6000602082840312156103305761032f6102e4565b5b600061033e84828501610305565b91505092915050565b600080fd5b600080fd5b6000601f19601f8301169050919050565b7f4e487b7100000000000000000000000000000000000000000000000000000000600052604160045260246000fd5b61039a82610351565b810181811067ffffffffffffffff821117156103b9576103b8610362565b5b80604052505050565b60006103cc6102da565b90506103d88282610391565b919050565b600067ffffffffffffffff8211156103f8576103f7610362565b5b61040182610351565b9050602081019050919050565b82818337600083830152505050565b600061043061042b846103dd565b6103c2565b90508281526020810184848401111561044c5761044b61034c565b5b61045784828561040e565b509392505050565b600082601f83011261047457610473610347565b5b813561048484826020860161041d565b91505092915050565b600080604083850312156104a4576104a36102e4565b5b600083013567ffffffffffffffff8111156104c2576104c16102e9565b5b6104ce8582860161045f565b92505060206104df85828601610305565b9150509250929050565b6000602082840312156104ff576104fe6102e4565b5b600082013567ffffffffffffffff81111561051d5761051c6102e9565b5b6105298482850161045f565b91505092915050565b600081519050919050565b600082825260208201905092915050565b60005b8381101561056c578082015181840152602081019050610551565b60008484015250505050565b600061058382610532565b61058d818561053d565b935061059d81856020860161054e565b6105a681610351565b840191505092915050565b60006040820190506105c660008301856102b0565b81810360208301526105d88184610578565b90509392505050565b7f4e487b7100000000000000000000000000000000000000000000000000000000600052601160045260246000fd5b600061061b826102a6565b9150610626836102a6565b9250828202610634816102a6565b9150828204841483151761064b5761064a6105e1565b5b5092915050565b7f4e487b7100000000000000000000000000000000000000000000000000000000600052602260045260246000fd5b6000600282049050600182168061069957607f821691505b6020821081036106ac576106ab610652565b5b50919050565b60008190508160005260206000209050919050565b60006020601f8301049050919050565b600082821b905092915050565b6000600883026107147fffffffffffffffffffffffffffffffffffffffffffffffffffffffffffffffff826106d7565b61071e86836106d7565b95508019841693508086168417925050509392505050565b6000819050919050565b600061075b610756610751846102a6565b610736565b6102a6565b9050919050565b6000819050919050565b61077583610740565b61078961078182610762565b8484546106e4565b825550505050565b600090565b61079e610791565b6107a981848461076c565b505050565b5b818110156107cd576107c2600082610796565b6001810190506107af565b5050565b601f821115610812576107e3816106b2565b6107ec846106c7565b810160208510156107fb578190505b61080f610807856106c7565b8301826107ae565b50505b505050565b600082821c905092915050565b600061083560001984600802610817565b1980831691505092915050565b600061084e8383610824565b9150826002028217905092915050565b61086782610532565b67ffffffffffffffff8111156108805761087f610362565b5b61088a8254610681565b6108958282856107d1565b600060209050601f8311600181146108c857600084156108b6578287015190505b6108c08582610842565b865550610928565b601f1984166108d6866106b2565b60005b828110156108fe578489015182556001820191506020850194506020810190506108d9565b8683101561091b5784890151610917601f891682610824565b8355505b6001600288020188555050505b505050505050565b600081905092915050565b600061094682610532565b6109508185610930565b935061096081856020860161054e565b80840191505092915050565b6000610978828461093b565b91508190509291505056fea2646970667358221220918fafda8ca5c26977927a15b98df582090eace352b4cf0ae39d55370b0770c164736f6c63430008110033a2646970667358221220c1fc4ae8fab06cce1a104893da3814709413d5285d907d04ba290efd2ca8bdb364736f6c63430008110033",
					"opcodes": "PUSH1 0x80 PUSH1 0x40 MSTORE CALLVALUE DUP1 ISZERO PUSH2 0x10 JUMPI PUSH1 0x0 DUP1 REVERT JUMPDEST POP PUSH2 0xF0F DUP1 PUSH2 0x20 PUSH1 0x0 CODECOPY PUSH1 0x0 RETURN INVALID PUSH1 0x80 PUSH1 0x40 MSTORE CALLVALUE DUP1 ISZERO PUSH2 0x10 JUMPI PUSH1 0x0 DUP1 REVERT JUMPDEST POP PUSH1 0x4 CALLDATASIZE LT PUSH2 0x4C JUMPI PUSH1 0x0 CALLDATALOAD PUSH1 0xE0 SHR DUP1 PUSH4 0x1563700F EQ PUSH2 0x51 JUMPI DUP1 PUSH4 0x64591BF1 EQ PUSH2 0x6D JUMPI DUP1 PUSH4 0x969C7F5A EQ PUSH2 0x9D JUMPI DUP1 PUSH4 0xC5F19C20 EQ PUSH2 0xA7 JUMPI JUMPDEST PUSH1 0x0 DUP1 REVERT JUMPDEST PUSH2 0x6B PUSH1 0x4 DUP1 CALLDATASIZE SUB DUP2 ADD SWAP1 PUSH2 0x66 SWAP2 SWAP1 PUSH2 0x35E JUMP JUMPDEST PUSH2 0xD7 JUMP JUMPDEST STOP JUMPDEST PUSH2 0x87 PUSH1 0x4 DUP1 CALLDATASIZE SUB DUP2 ADD SWAP1 PUSH2 0x82 SWAP2 SWAP1 PUSH2 0x39E JUMP JUMPDEST PUSH2 0x189 JUMP JUMPDEST PUSH1 0x40 MLOAD PUSH2 0x94 SWAP2 SWAP1 PUSH2 0x44A JUMP JUMPDEST PUSH1 0x40 MLOAD DUP1 SWAP2 SUB SWAP1 RETURN JUMPDEST PUSH2 0xA5 PUSH2 0x1C8 JUMP JUMPDEST STOP JUMPDEST PUSH2 0xC1 PUSH1 0x4 DUP1 CALLDATASIZE SUB DUP2 ADD SWAP1 PUSH2 0xBC SWAP2 SWAP1 PUSH2 0x39E JUMP JUMPDEST PUSH2 0x25B JUMP JUMPDEST PUSH1 0x40 MLOAD PUSH2 0xCE SWAP2 SWAP1 PUSH2 0x474 JUMP JUMPDEST PUSH1 0x40 MLOAD DUP1 SWAP2 SUB SWAP1 RETURN JUMPDEST PUSH1 0x0 DUP1 DUP4 DUP2 SLOAD DUP2 LT PUSH2 0xEC JUMPI PUSH2 0xEB PUSH2 0x48F JUMP JUMPDEST JUMPDEST SWAP1 PUSH1 0x0 MSTORE PUSH1 0x20 PUSH1 0x0 KECCAK256 ADD PUSH1 0x0 SWAP1 SLOAD SWAP1 PUSH2 0x100 EXP SWAP1 DIV PUSH20 0xFFFFFFFFFFFFFFFFFFFFFFFFFFFFFFFFFFFFFFFF AND SWAP1 POP DUP1 PUSH20 0xFFFFFFFFFFFFFFFFFFFFFFFFFFFFFFFFFFFFFFFF AND PUSH4 0x6057361D DUP4 PUSH1 0x40 MLOAD DUP3 PUSH4 0xFFFFFFFF AND PUSH1 0xE0 SHL DUP2 MSTORE PUSH1 0x4 ADD PUSH2 0x152 SWAP2 SWAP1 PUSH2 0x474 JUMP JUMPDEST PUSH1 0x0 PUSH1 0x40 MLOAD DUP1 DUP4 SUB DUP2 PUSH1 0x0 DUP8 DUP1 EXTCODESIZE ISZERO DUP1 ISZERO PUSH2 0x16C JUMPI PUSH1 0x0 DUP1 REVERT JUMPDEST POP GAS CALL ISZERO DUP1 ISZERO PUSH2 0x180 JUMPI RETURNDATASIZE PUSH1 0x0 DUP1 RETURNDATACOPY RETURNDATASIZE PUSH1 0x0 REVERT JUMPDEST POP POP POP POP POP POP POP JUMP JUMPDEST PUSH1 0x0 DUP2 DUP2 SLOAD DUP2 LT PUSH2 0x199 JUMPI PUSH1 0x0 DUP1 REVERT JUMPDEST SWAP1 PUSH1 0x0 MSTORE PUSH1 0x20 PUSH1 0x0 KECCAK256 ADD PUSH1 0x0 SWAP2 POP SLOAD SWAP1 PUSH2 0x100 EXP SWAP1 DIV PUSH20 0xFFFFFFFFFFFFFFFFFFFFFFFFFFFFFFFFFFFFFFFF AND DUP2 JUMP JUMPDEST PUSH1 0x0 PUSH1 0x40 MLOAD PUSH2 0x1D6 SWAP1 PUSH2 0x316 JUMP JUMPDEST PUSH1 0x40 MLOAD DUP1 SWAP2 SUB SWAP1 PUSH1 0x0 CREATE DUP1 ISZERO DUP1 ISZERO PUSH2 0x1F2 JUMPI RETURNDATASIZE PUSH1 0x0 DUP1 RETURNDATACOPY RETURNDATASIZE PUSH1 0x0 REVERT JUMPDEST POP SWAP1 POP PUSH1 0x0 DUP2 SWAP1 DUP1 PUSH1 0x1 DUP2 SLOAD ADD DUP1 DUP3 SSTORE DUP1 SWAP2 POP POP PUSH1 0x1 SWAP1 SUB SWAP1 PUSH1 0x0 MSTORE PUSH1 0x20 PUSH1 0x0 KECCAK256 ADD PUSH1 0x0 SWAP1 SWAP2 SWAP1 SWAP2 SWAP1 SWAP2 PUSH2 0x100 EXP DUP2 SLOAD DUP2 PUSH20 0xFFFFFFFFFFFFFFFFFFFFFFFFFFFFFFFFFFFFFFFF MUL NOT AND SWAP1 DUP4 PUSH20 0xFFFFFFFFFFFFFFFFFFFFFFFFFFFFFFFFFFFFFFFF AND MUL OR SWAP1 SSTORE POP POP JUMP JUMPDEST PUSH1 0x0 DUP1 PUSH1 0x0 DUP4 DUP2 SLOAD DUP2 LT PUSH2 0x272 JUMPI PUSH2 0x271 PUSH2 0x48F JUMP JUMPDEST JUMPDEST SWAP1 PUSH1 0x0 MSTORE PUSH1 0x20 PUSH1 0x0 KECCAK256 ADD PUSH1 0x0 SWAP1 SLOAD SWAP1 PUSH2 0x100 EXP SWAP1 DIV PUSH20 0xFFFFFFFFFFFFFFFFFFFFFFFFFFFFFFFFFFFFFFFF AND SWAP1 POP DUP1 PUSH20 0xFFFFFFFFFFFFFFFFFFFFFFFFFFFFFFFFFFFFFFFF AND PUSH4 0x2E64CEC1 PUSH1 0x40 MLOAD DUP2 PUSH4 0xFFFFFFFF AND PUSH1 0xE0 SHL DUP2 MSTORE PUSH1 0x4 ADD PUSH1 0x20 PUSH1 0x40 MLOAD DUP1 DUP4 SUB DUP2 DUP7 GAS STATICCALL ISZERO DUP1 ISZERO PUSH2 0x2EA JUMPI RETURNDATASIZE PUSH1 0x0 DUP1 RETURNDATACOPY RETURNDATASIZE PUSH1 0x0 REVERT JUMPDEST POP POP POP POP PUSH1 0x40 MLOAD RETURNDATASIZE PUSH1 0x1F NOT PUSH1 0x1F DUP3 ADD AND DUP3 ADD DUP1 PUSH1 0x40 MSTORE POP DUP2 ADD SWAP1 PUSH2 0x30E SWAP2 SWAP1 PUSH2 0x4D3 JUMP JUMPDEST SWAP2 POP POP SWAP2 SWAP1 POP JUMP JUMPDEST PUSH2 0x9D9 DUP1 PUSH2 0x501 DUP4 CODECOPY ADD SWAP1 JUMP JUMPDEST PUSH1 0x0 DUP1 REVERT JUMPDEST PUSH1 0x0 DUP2 SWAP1 POP SWAP2 SWAP1 POP JUMP JUMPDEST PUSH2 0x33B DUP2 PUSH2 0x328 JUMP JUMPDEST DUP2 EQ PUSH2 0x346 JUMPI PUSH1 0x0 DUP1 REVERT JUMPDEST POP JUMP JUMPDEST PUSH1 0x0 DUP2 CALLDATALOAD SWAP1 POP PUSH2 0x358 DUP2 PUSH2 0x332 JUMP JUMPDEST SWAP3 SWAP2 POP POP JUMP JUMPDEST PUSH1 0x0 DUP1 PUSH1 0x40 DUP4 DUP6 SUB SLT ISZERO PUSH2 0x375 JUMPI PUSH2 0x374 PUSH2 0x323 JUMP JUMPDEST JUMPDEST PUSH1 0x0 PUSH2 0x383 DUP6 DUP3 DUP7 ADD PUSH2 0x349 JUMP JUMPDEST SWAP3 POP POP PUSH1 0x20 PUSH2 0x394 DUP6 DUP3 DUP7 ADD PUSH2 0x349 JUMP JUMPDEST SWAP2 POP POP SWAP3 POP SWAP3 SWAP1 POP JUMP JUMPDEST PUSH1 0x0 PUSH1 0x20 DUP3 DUP5 SUB SLT ISZERO PUSH2 0x3B4 JUMPI PUSH2 0x3B3 PUSH2 0x323 JUMP JUMPDEST JUMPDEST PUSH1 0x0 PUSH2 0x3C2 DUP5 DUP3 DUP6 ADD PUSH2 0x349 JUMP JUMPDEST SWAP2 POP POP SWAP3 SWAP2 POP POP JUMP JUMPDEST PUSH1 0x0 PUSH20 0xFFFFFFFFFFFFFFFFFFFFFFFFFFFFFFFFFFFFFFFF DUP3 AND SWAP1 POP SWAP2 SWAP1 POP JUMP JUMPDEST PUSH1 0x0 DUP2 SWAP1 POP SWAP2 SWAP1 POP JUMP JUMPDEST PUSH1 0x0 PUSH2 0x410 PUSH2 0x40B PUSH2 0x406 DUP5 PUSH2 0x3CB JUMP JUMPDEST PUSH2 0x3EB JUMP JUMPDEST PUSH2 0x3CB JUMP JUMPDEST SWAP1 POP SWAP2 SWAP1 POP JUMP JUMPDEST PUSH1 0x0 PUSH2 0x422 DUP3 PUSH2 0x3F5 JUMP JUMPDEST SWAP1 POP SWAP2 SWAP1 POP JUMP JUMPDEST PUSH1 0x0 PUSH2 0x434 DUP3 PUSH2 0x417 JUMP JUMPDEST SWAP1 POP SWAP2 SWAP1 POP JUMP JUMPDEST PUSH2 0x444 DUP2 PUSH2 0x429 JUMP JUMPDEST DUP3 MSTORE POP POP JUMP JUMPDEST PUSH1 0x0 PUSH1 0x20 DUP3 ADD SWAP1 POP PUSH2 0x45F PUSH1 0x0 DUP4 ADD DUP5 PUSH2 0x43B JUMP JUMPDEST SWAP3 SWAP2 POP POP JUMP JUMPDEST PUSH2 0x46E DUP2 PUSH2 0x328 JUMP JUMPDEST DUP3 MSTORE POP POP JUMP JUMPDEST PUSH1 0x0 PUSH1 0x20 DUP3 ADD SWAP1 POP PUSH2 0x489 PUSH1 0x0 DUP4 ADD DUP5 PUSH2 0x465 JUMP JUMPDEST SWAP3 SWAP2 POP POP JUMP JUMPDEST PUSH32 0x4E487B7100000000000000000000000000000000000000000000000000000000 PUSH1 0x0 MSTORE PUSH1 0x32 PUSH1 0x4 MSTORE PUSH1 0x24 PUSH1 0x0 REVERT JUMPDEST PUSH1 0x0 DUP2 MLOAD SWAP1 POP PUSH2 0x4CD DUP2 PUSH2 0x332 JUMP JUMPDEST SWAP3 SWAP2 POP POP JUMP JUMPDEST PUSH1 0x0 PUSH1 0x20 DUP3 DUP5 SUB SLT ISZERO PUSH2 0x4E9 JUMPI PUSH2 0x4E8 PUSH2 0x323 JUMP JUMPDEST JUMPDEST PUSH1 0x0 PUSH2 0x4F7 DUP5 DUP3 DUP6 ADD PUSH2 0x4BE JUMP JUMPDEST SWAP2 POP POP SWAP3 SWAP2 POP POP JUMP INVALID PUSH1 0x80 PUSH1 0x40 MSTORE CALLVALUE DUP1 ISZERO PUSH2 0x10 JUMPI PUSH1 0x0 DUP1 REVERT JUMPDEST POP PUSH2 0x9B9 DUP1 PUSH2 0x20 PUSH1 0x0 CODECOPY PUSH1 0x0 RETURN INVALID PUSH1 0x80 PUSH1 0x40 MSTORE CALLVALUE DUP1 ISZERO PUSH2 0x10 JUMPI PUSH1 0x0 DUP1 REVERT JUMPDEST POP PUSH1 0x4 CALLDATASIZE LT PUSH2 0x57 JUMPI PUSH1 0x0 CALLDATALOAD PUSH1 0xE0 SHR DUP1 PUSH4 0x2E64CEC1 EQ PUSH2 0x5C JUMPI DUP1 PUSH4 0x6057361D EQ PUSH2 0x7A JUMPI DUP1 PUSH4 0x6F760F41 EQ PUSH2 0x96 JUMPI DUP1 PUSH4 0x8BAB8DD5 EQ PUSH2 0xB2 JUMPI DUP1 PUSH4 0x9E7A13AD EQ PUSH2 0xE2 JUMPI JUMPDEST PUSH1 0x0 DUP1 REVERT JUMPDEST PUSH2 0x64 PUSH2 0x113 JUMP JUMPDEST PUSH1 0x40 MLOAD PUSH2 0x71 SWAP2 SWAP1 PUSH2 0x2BF JUMP JUMPDEST PUSH1 0x40 MLOAD DUP1 SWAP2 SUB SWAP1 RETURN JUMPDEST PUSH2 0x94 PUSH1 0x4 DUP1 CALLDATASIZE SUB DUP2 ADD SWAP1 PUSH2 0x8F SWAP2 SWAP1 PUSH2 0x31A JUMP JUMPDEST PUSH2 0x129 JUMP JUMPDEST STOP JUMPDEST PUSH2 0xB0 PUSH1 0x4 DUP1 CALLDATASIZE SUB DUP2 ADD SWAP1 PUSH2 0xAB SWAP2 SWAP1 PUSH2 0x48D JUMP JUMPDEST PUSH2 0x133 JUMP JUMPDEST STOP JUMPDEST PUSH2 0xCC PUSH1 0x4 DUP1 CALLDATASIZE SUB DUP2 ADD SWAP1 PUSH2 0xC7 SWAP2 SWAP1 PUSH2 0x4E9 JUMP JUMPDEST PUSH2 0x1BC JUMP JUMPDEST PUSH1 0x40 MLOAD PUSH2 0xD9 SWAP2 SWAP1 PUSH2 0x2BF JUMP JUMPDEST PUSH1 0x40 MLOAD DUP1 SWAP2 SUB SWAP1 RETURN JUMPDEST PUSH2 0xFC PUSH1 0x4 DUP1 CALLDATASIZE SUB DUP2 ADD SWAP1 PUSH2 0xF7 SWAP2 SWAP1 PUSH2 0x31A JUMP JUMPDEST PUSH2 0x1EA JUMP JUMPDEST PUSH1 0x40 MLOAD PUSH2 0x10A SWAP3 SWAP2 SWAP1 PUSH2 0x5B1 JUMP JUMPDEST PUSH1 0x40 MLOAD DUP1 SWAP2 SUB SWAP1 RETURN JUMPDEST PUSH1 0x0 PUSH1 0x2 PUSH1 0x0 SLOAD PUSH2 0x124 SWAP2 SWAP1 PUSH2 0x610 JUMP JUMPDEST SWAP1 POP SWAP1 JUMP JUMPDEST DUP1 PUSH1 0x0 DUP2 SWAP1 SSTORE POP POP JUMP JUMPDEST PUSH1 0x2 PUSH1 0x40 MLOAD DUP1 PUSH1 0x40 ADD PUSH1 0x40 MSTORE DUP1 DUP4 DUP2 MSTORE PUSH1 0x20 ADD DUP5 DUP2 MSTORE POP SWAP1 DUP1 PUSH1 0x1 DUP2 SLOAD ADD DUP1 DUP3 SSTORE DUP1 SWAP2 POP POP PUSH1 0x1 SWAP1 SUB SWAP1 PUSH1 0x0 MSTORE PUSH1 0x20 PUSH1 0x0 KECCAK256 SWAP1 PUSH1 0x2 MUL ADD PUSH1 0x0 SWAP1 SWAP2 SWAP1 SWAP2 SWAP1 SWAP2 POP PUSH1 0x0 DUP3 ADD MLOAD DUP2 PUSH1 0x0 ADD SSTORE PUSH1 0x20 DUP3 ADD MLOAD DUP2 PUSH1 0x1 ADD SWAP1 DUP2 PUSH2 0x192 SWAP2 SWAP1 PUSH2 0x85E JUMP JUMPDEST POP POP POP DUP1 PUSH1 0x1 DUP4 PUSH1 0x40 MLOAD PUSH2 0x1A6 SWAP2 SWAP1 PUSH2 0x96C JUMP JUMPDEST SWAP1 DUP2 MSTORE PUSH1 0x20 ADD PUSH1 0x40 MLOAD DUP1 SWAP2 SUB SWAP1 KECCAK256 DUP2 SWAP1 SSTORE POP POP POP JUMP JUMPDEST PUSH1 0x1 DUP2 DUP1 MLOAD PUSH1 0x20 DUP2 ADD DUP3 ADD DUP1 MLOAD DUP5 DUP3 MSTORE PUSH1 0x20 DUP4 ADD PUSH1 0x20 DUP6 ADD KECCAK256 DUP2 DUP4 MSTORE DUP1 SWAP6 POP POP POP POP POP POP PUSH1 0x0 SWAP2 POP SWAP1 POP SLOAD DUP2 JUMP JUMPDEST PUSH1 0x2 DUP2 DUP2 SLOAD DUP2 LT PUSH2 0x1FA JUMPI PUSH1 0x0 DUP1 REVERT JUMPDEST SWAP1 PUSH1 0x0 MSTORE PUSH1 0x20 PUSH1 0x0 KECCAK256 SWAP1 PUSH1 0x2 MUL ADD PUSH1 0x0 SWAP2 POP SWAP1 POP DUP1 PUSH1 0x0 ADD SLOAD SWAP1 DUP1 PUSH1 0x1 ADD DUP1 SLOAD PUSH2 0x223 SWAP1 PUSH2 0x681 JUMP JUMPDEST DUP1 PUSH1 0x1F ADD PUSH1 0x20 DUP1 SWAP2 DIV MUL PUSH1 0x20 ADD PUSH1 0x40 MLOAD SWAP1 DUP2 ADD PUSH1 0x40 MSTORE DUP1 SWAP3 SWAP2 SWAP1 DUP2 DUP2 MSTORE PUSH1 0x20 ADD DUP3 DUP1 SLOAD PUSH2 0x24F SWAP1 PUSH2 0x681 JUMP JUMPDEST DUP1 ISZERO PUSH2 0x29C JUMPI DUP1 PUSH1 0x1F LT PUSH2 0x271 JUMPI PUSH2 0x100 DUP1 DUP4 SLOAD DIV MUL DUP4 MSTORE SWAP2 PUSH1 0x20 ADD SWAP2 PUSH2 0x29C JUMP JUMPDEST DUP3 ADD SWAP2 SWAP1 PUSH1 0x0 MSTORE PUSH1 0x20 PUSH1 0x0 KECCAK256 SWAP1 JUMPDEST DUP2 SLOAD DUP2 MSTORE SWAP1 PUSH1 0x1 ADD SWAP1 PUSH1 0x20 ADD DUP1 DUP4 GT PUSH2 0x27F JUMPI DUP3 SWAP1 SUB PUSH1 0x1F AND DUP3 ADD SWAP2 JUMPDEST POP POP POP POP POP SWAP1 POP DUP3 JUMP JUMPDEST PUSH1 0x0 DUP2 SWAP1 POP SWAP2 SWAP1 POP JUMP JUMPDEST PUSH2 0x2B9 DUP2 PUSH2 0x2A6 JUMP JUMPDEST DUP3 MSTORE POP POP JUMP JUMPDEST PUSH1 0x0 PUSH1 0x20 DUP3 ADD SWAP1 POP PUSH2 0x2D4 PUSH1 0x0 DUP4 ADD DUP5 PUSH2 0x2B0 JUMP JUMPDEST SWAP3 SWAP2 POP POP JUMP JUMPDEST PUSH1 0x0 PUSH1 0x40 MLOAD SWAP1 POP SWAP1 JUMP JUMPDEST PUSH1 0x0 DUP1 REVERT JUMPDEST PUSH1 0x0 DUP1 REVERT JUMPDEST PUSH2 0x2F7 DUP2 PUSH2 0x2A6 JUMP JUMPDEST DUP2 EQ PUSH2 0x302 JUMPI PUSH1 0x0 DUP1 REVERT JUMPDEST POP JUMP JUMPDEST PUSH1 0x0 DUP2 CALLDATALOAD SWAP1 POP PUSH2 0x314 DUP2 PUSH2 0x2EE JUMP JUMPDEST SWAP3 SWAP2 POP POP JUMP JUMPDEST PUSH1 0x0 PUSH1 0x20 DUP3 DUP5 SUB SLT ISZERO PUSH2 0x330 JUMPI PUSH2 0x32F PUSH2 0x2E4 JUMP JUMPDEST JUMPDEST PUSH1 0x0 PUSH2 0x33E DUP5 DUP3 DUP6 ADD PUSH2 0x305 JUMP JUMPDEST SWAP2 POP POP SWAP3 SWAP2 POP POP JUMP JUMPDEST PUSH1 0x0 DUP1 REVERT JUMPDEST PUSH1 0x0 DUP1 REVERT JUMPDEST PUSH1 0x0 PUSH1 0x1F NOT PUSH1 0x1F DUP4 ADD AND SWAP1 POP SWAP2 SWAP1 POP JUMP JUMPDEST PUSH32 0x4E487B7100000000000000000000000000000000000000000000000000000000 PUSH1 0x0 MSTORE PUSH1 0x41 PUSH1 0x4 MSTORE PUSH1 0x24 PUSH1 0x0 REVERT JUMPDEST PUSH2 0x39A DUP3 PUSH2 0x351 JUMP JUMPDEST DUP2 ADD DUP2 DUP2 LT PUSH8 0xFFFFFFFFFFFFFFFF DUP3 GT OR ISZERO PUSH2 0x3B9 JUMPI PUSH2 0x3B8 PUSH2 0x362 JUMP JUMPDEST JUMPDEST DUP1 PUSH1 0x40 MSTORE POP POP POP JUMP JUMPDEST PUSH1 0x0 PUSH2 0x3CC PUSH2 0x2DA JUMP JUMPDEST SWAP1 POP PUSH2 0x3D8 DUP3 DUP3 PUSH2 0x391 JUMP JUMPDEST SWAP2 SWAP1 POP JUMP JUMPDEST PUSH1 0x0 PUSH8 0xFFFFFFFFFFFFFFFF DUP3 GT ISZERO PUSH2 0x3F8 JUMPI PUSH2 0x3F7 PUSH2 0x362 JUMP JUMPDEST JUMPDEST PUSH2 0x401 DUP3 PUSH2 0x351 JUMP JUMPDEST SWAP1 POP PUSH1 0x20 DUP2 ADD SWAP1 POP SWAP2 SWAP1 POP JUMP JUMPDEST DUP3 DUP2 DUP4 CALLDATACOPY PUSH1 0x0 DUP4 DUP4 ADD MSTORE POP POP POP JUMP JUMPDEST PUSH1 0x0 PUSH2 0x430 PUSH2 0x42B DUP5 PUSH2 0x3DD JUMP JUMPDEST PUSH2 0x3C2 JUMP JUMPDEST SWAP1 POP DUP3 DUP2 MSTORE PUSH1 0x20 DUP2 ADD DUP5 DUP5 DUP5 ADD GT ISZERO PUSH2 0x44C JUMPI PUSH2 0x44B PUSH2 0x34C JUMP JUMPDEST JUMPDEST PUSH2 0x457 DUP5 DUP3 DUP6 PUSH2 0x40E JUMP JUMPDEST POP SWAP4 SWAP3 POP POP POP JUMP JUMPDEST PUSH1 0x0 DUP3 PUSH1 0x1F DUP4 ADD SLT PUSH2 0x474 JUMPI PUSH2 0x473 PUSH2 0x347 JUMP JUMPDEST JUMPDEST DUP2 CALLDATALOAD PUSH2 0x484 DUP5 DUP3 PUSH1 0x20 DUP7 ADD PUSH2 0x41D JUMP JUMPDEST SWAP2 POP POP SWAP3 SWAP2 POP POP JUMP JUMPDEST PUSH1 0x0 DUP1 PUSH1 0x40 DUP4 DUP6 SUB SLT ISZERO PUSH2 0x4A4 JUMPI PUSH2 0x4A3 PUSH2 0x2E4 JUMP JUMPDEST JUMPDEST PUSH1 0x0 DUP4 ADD CALLDATALOAD PUSH8 0xFFFFFFFFFFFFFFFF DUP2 GT ISZERO PUSH2 0x4C2 JUMPI PUSH2 0x4C1 PUSH2 0x2E9 JUMP JUMPDEST JUMPDEST PUSH2 0x4CE DUP6 DUP3 DUP7 ADD PUSH2 0x45F JUMP JUMPDEST SWAP3 POP POP PUSH1 0x20 PUSH2 0x4DF DUP6 DUP3 DUP7 ADD PUSH2 0x305 JUMP JUMPDEST SWAP2 POP POP SWAP3 POP SWAP3 SWAP1 POP JUMP JUMPDEST PUSH1 0x0 PUSH1 0x20 DUP3 DUP5 SUB SLT ISZERO PUSH2 0x4FF JUMPI PUSH2 0x4FE PUSH2 0x2E4 JUMP JUMPDEST JUMPDEST PUSH1 0x0 DUP3 ADD CALLDATALOAD PUSH8 0xFFFFFFFFFFFFFFFF DUP2 GT ISZERO PUSH2 0x51D JUMPI PUSH2 0x51C PUSH2 0x2E9 JUMP JUMPDEST JUMPDEST PUSH2 0x529 DUP5 DUP3 DUP6 ADD PUSH2 0x45F JUMP JUMPDEST SWAP2 POP POP SWAP3 SWAP2 POP POP JUMP JUMPDEST PUSH1 0x0 DUP2 MLOAD SWAP1 POP SWAP2 SWAP1 POP JUMP JUMPDEST PUSH1 0x0 DUP3 DUP3 MSTORE PUSH1 0x20 DUP3 ADD SWAP1 POP SWAP3 SWAP2 POP POP JUMP JUMPDEST PUSH1 0x0 JUMPDEST DUP4 DUP2 LT ISZERO PUSH2 0x56C JUMPI DUP1 DUP3 ADD MLOAD DUP2 DUP5 ADD MSTORE PUSH1 0x20 DUP2 ADD SWAP1 POP PUSH2 0x551 JUMP JUMPDEST PUSH1 0x0 DUP5 DUP5 ADD MSTORE POP POP POP POP JUMP JUMPDEST PUSH1 0x0 PUSH2 0x583 DUP3 PUSH2 0x532 JUMP JUMPDEST PUSH2 0x58D DUP2 DUP6 PUSH2 0x53D JUMP JUMPDEST SWAP4 POP PUSH2 0x59D DUP2 DUP6 PUSH1 0x20 DUP7 ADD PUSH2 0x54E JUMP JUMPDEST PUSH2 0x5A6 DUP2 PUSH2 0x351 JUMP JUMPDEST DUP5 ADD SWAP2 POP POP SWAP3 SWAP2 POP POP JUMP JUMPDEST PUSH1 0x0 PUSH1 0x40 DUP3 ADD SWAP1 POP PUSH2 0x5C6 PUSH1 0x0 DUP4 ADD DUP6 PUSH2 0x2B0 JUMP JUMPDEST DUP2 DUP2 SUB PUSH1 0x20 DUP4 ADD MSTORE PUSH2 0x5D8 DUP2 DUP5 PUSH2 0x578 JUMP JUMPDEST SWAP1 POP SWAP4 SWAP3 POP POP POP JUMP JUMPDEST PUSH32 0x4E487B7100000000000000000000000000000000000000000000000000000000 PUSH1 0x0 MSTORE PUSH1 0x11 PUSH1 0x4 MSTORE PUSH1 0x24 PUSH1 0x0 REVERT JUMPDEST PUSH1 0x0 PUSH2 0x61B DUP3 PUSH2 0x2A6 JUMP JUMPDEST SWAP2 POP PUSH2 0x626 DUP4 PUSH2 0x2A6 JUMP JUMPDEST SWAP3 POP DUP3 DUP3 MUL PUSH2 0x634 DUP2 PUSH2 0x2A6 JUMP JUMPDEST SWAP2 POP DUP3 DUP3 DIV DUP5 EQ DUP4 ISZERO OR PUSH2 0x64B JUMPI PUSH2 0x64A PUSH2 0x5E1 JUMP JUMPDEST JUMPDEST POP SWAP3 SWAP2 POP POP JUMP JUMPDEST PUSH32 0x4E487B7100000000000000000000000000000000000000000000000000000000 PUSH1 0x0 MSTORE PUSH1 0x22 PUSH1 0x4 MSTORE PUSH1 0x24 PUSH1 0x0 REVERT JUMPDEST PUSH1 0x0 PUSH1 0x2 DUP3 DIV SWAP1 POP PUSH1 0x1 DUP3 AND DUP1 PUSH2 0x699 JUMPI PUSH1 0x7F DUP3 AND SWAP2 POP JUMPDEST PUSH1 0x20 DUP3 LT DUP2 SUB PUSH2 0x6AC JUMPI PUSH2 0x6AB PUSH2 0x652 JUMP JUMPDEST JUMPDEST POP SWAP2 SWAP1 POP JUMP JUMPDEST PUSH1 0x0 DUP2 SWAP1 POP DUP2 PUSH1 0x0 MSTORE PUSH1 0x20 PUSH1 0x0 KECCAK256 SWAP1 POP SWAP2 SWAP1 POP JUMP JUMPDEST PUSH1 0x0 PUSH1 0x20 PUSH1 0x1F DUP4 ADD DIV SWAP1 POP SWAP2 SWAP1 POP JUMP JUMPDEST PUSH1 0x0 DUP3 DUP3 SHL SWAP1 POP SWAP3 SWAP2 POP POP JUMP JUMPDEST PUSH1 0x0 PUSH1 0x8 DUP4 MUL PUSH2 0x714 PUSH32 0xFFFFFFFFFFFFFFFFFFFFFFFFFFFFFFFFFFFFFFFFFFFFFFFFFFFFFFFFFFFFFFFF DUP3 PUSH2 0x6D7 JUMP JUMPDEST PUSH2 0x71E DUP7 DUP4 PUSH2 0x6D7 JUMP JUMPDEST SWAP6 POP DUP1 NOT DUP5 AND SWAP4 POP DUP1 DUP7 AND DUP5 OR SWAP3 POP POP POP SWAP4 SWAP3 POP POP POP JUMP JUMPDEST PUSH1 0x0 DUP2 SWAP1 POP SWAP2 SWAP1 POP JUMP JUMPDEST PUSH1 0x0 PUSH2 0x75B PUSH2 0x756 PUSH2 0x751 DUP5 PUSH2 0x2A6 JUMP JUMPDEST PUSH2 0x736 JUMP JUMPDEST PUSH2 0x2A6 JUMP JUMPDEST SWAP1 POP SWAP2 SWAP1 POP JUMP JUMPDEST PUSH1 0x0 DUP2 SWAP1 POP SWAP2 SWAP1 POP JUMP JUMPDEST PUSH2 0x775 DUP4 PUSH2 0x740 JUMP JUMPDEST PUSH2 0x789 PUSH2 0x781 DUP3 PUSH2 0x762 JUMP JUMPDEST DUP5 DUP5 SLOAD PUSH2 0x6E4 JUMP JUMPDEST DUP3 SSTORE POP POP POP POP JUMP JUMPDEST PUSH1 0x0 SWAP1 JUMP JUMPDEST PUSH2 0x79E PUSH2 0x791 JUMP JUMPDEST PUSH2 0x7A9 DUP2 DUP5 DUP5 PUSH2 0x76C JUMP JUMPDEST POP POP POP JUMP JUMPDEST JUMPDEST DUP2 DUP2 LT ISZERO PUSH2 0x7CD JUMPI PUSH2 0x7C2 PUSH1 0x0 DUP3 PUSH2 0x796 JUMP JUMPDEST PUSH1 0x1 DUP2 ADD SWAP1 POP PUSH2 0x7AF JUMP JUMPDEST POP POP JUMP JUMPDEST PUSH1 0x1F DUP3 GT ISZERO PUSH2 0x812 JUMPI PUSH2 0x7E3 DUP2 PUSH2 0x6B2 JUMP JUMPDEST PUSH2 0x7EC DUP5 PUSH2 0x6C7 JUMP JUMPDEST DUP2 ADD PUSH1 0x20 DUP6 LT ISZERO PUSH2 0x7FB JUMPI DUP2 SWAP1 POP JUMPDEST PUSH2 0x80F PUSH2 0x807 DUP6 PUSH2 0x6C7 JUMP JUMPDEST DUP4 ADD DUP3 PUSH2 0x7AE JUMP JUMPDEST POP POP JUMPDEST POP POP POP JUMP JUMPDEST PUSH1 0x0 DUP3 DUP3 SHR SWAP1 POP SWAP3 SWAP2 POP POP JUMP JUMPDEST PUSH1 0x0 PUSH2 0x835 PUSH1 0x0 NOT DUP5 PUSH1 0x8 MUL PUSH2 0x817 JUMP JUMPDEST NOT DUP1 DUP4 AND SWAP2 POP POP SWAP3 SWAP2 POP POP JUMP JUMPDEST PUSH1 0x0 PUSH2 0x84E DUP4 DUP4 PUSH2 0x824 JUMP JUMPDEST SWAP2 POP DUP3 PUSH1 0x2 MUL DUP3 OR SWAP1 POP SWAP3 SWAP2 POP POP JUMP JUMPDEST PUSH2 0x867 DUP3 PUSH2 0x532 JUMP JUMPDEST PUSH8 0xFFFFFFFFFFFFFFFF DUP2 GT ISZERO PUSH2 0x880 JUMPI PUSH2 0x87F PUSH2 0x362 JUMP JUMPDEST JUMPDEST PUSH2 0x88A DUP3 SLOAD PUSH2 0x681 JUMP JUMPDEST PUSH2 0x895 DUP3 DUP3 DUP6 PUSH2 0x7D1 JUMP JUMPDEST PUSH1 0x0 PUSH1 0x20 SWAP1 POP PUSH1 0x1F DUP4 GT PUSH1 0x1 DUP2 EQ PUSH2 0x8C8 JUMPI PUSH1 0x0 DUP5 ISZERO PUSH2 0x8B6 JUMPI DUP3 DUP8 ADD MLOAD SWAP1 POP JUMPDEST PUSH2 0x8C0 DUP6 DUP3 PUSH2 0x842 JUMP JUMPDEST DUP7 SSTORE POP PUSH2 0x928 JUMP JUMPDEST PUSH1 0x1F NOT DUP5 AND PUSH2 0x8D6 DUP7 PUSH2 0x6B2 JUMP JUMPDEST PUSH1 0x0 JUMPDEST DUP3 DUP2 LT ISZERO PUSH2 0x8FE JUMPI DUP5 DUP10 ADD MLOAD DUP3 SSTORE PUSH1 0x1 DUP3 ADD SWAP2 POP PUSH1 0x20 DUP6 ADD SWAP5 POP PUSH1 0x20 DUP2 ADD SWAP1 POP PUSH2 0x8D9 JUMP JUMPDEST DUP7 DUP4 LT ISZERO PUSH2 0x91B JUMPI DUP5 DUP10 ADD MLOAD PUSH2 0x917 PUSH1 0x1F DUP10 AND DUP3 PUSH2 0x824 JUMP JUMPDEST DUP4 SSTORE POP JUMPDEST PUSH1 0x1 PUSH1 0x2 DUP9 MUL ADD DUP9 SSTORE POP POP POP JUMPDEST POP POP POP POP POP POP JUMP JUMPDEST PUSH1 0x0 DUP2 SWAP1 POP SWAP3 SWAP2 POP POP JUMP JUMPDEST PUSH1 0x0 PUSH2 0x946 DUP3 PUSH2 0x532 JUMP JUMPDEST PUSH2 0x950 DUP2 DUP6 PUSH2 0x930 JUMP JUMPDEST SWAP4 POP PUSH2 0x960 DUP2 DUP6 PUSH1 0x20 DUP7 ADD PUSH2 0x54E JUMP JUMPDEST DUP1 DUP5 ADD SWAP2 POP POP SWAP3 SWAP2 POP POP JUMP JUMPDEST PUSH1 0x0 PUSH2 0x978 DUP3 DUP5 PUSH2 0x93B JUMP JUMPDEST SWAP2 POP DUP2 SWAP1 POP SWAP3 SWAP2 POP POP JUMP INVALID LOG2 PUSH5 0x6970667358 0x22 SLT KECCAK256 SWAP2 DUP16 0xAF 0xDA DUP13 0xA5 0xC2 PUSH10 0x77927A15B98DF582090E 0xAC 0xE3 MSTORE 0xB4 0xCF EXP 0xE3 SWAP14 SSTORE CALLDATACOPY SIGNEXTEND SMOD PUSH17 0xC164736F6C63430008110033A264697066 PUSH20 0x58221220C1FC4AE8FAB06CCE1A104893DA381470 SWAP5 SGT 0xD5 0x28 0x5D SWAP1 PUSH30 0x4BA290EFD2CA8BDB364736F6C6343000811003300000000000000000000 "
				},
				"gasEstimates": {
					"creation": {
						"codeDepositCost": "771000",
						"executionCost": "805",
						"totalCost": "771805"
					},
					"external": {
						"creatSimpleStorageContract()": "infinite",
						"sfGet(uint256)": "infinite",
						"sfStore(uint256,uint256)": "infinite",
						"simpleStorageArray(uint256)": "infinite"
					}
				},
				"methodIdentifiers": {
					"creatSimpleStorageContract()": "969c7f5a",
					"sfGet(uint256)": "c5f19c20",
					"sfStore(uint256,uint256)": "1563700f",
					"simpleStorageArray(uint256)": "64591bf1"
				}
			},
			"storageLayout": {
				"storage": [
					{
						"astId": 67,
						"contract": "contracts/StorageFactory.sol:StorageFactory",
						"label": "simpleStorageArray",
						"offset": 0,
						"slot": "0",
						"type": "t_array(t_contract(SimpleStorage)60)dyn_storage"
					}
				],
				"types": {
					"t_array(t_contract(SimpleStorage)60)dyn_storage": {
						"base": "t_contract(SimpleStorage)60",
						"encoding": "dynamic_array",
						"label": "contract SimpleStorage[]",
						"numberOfBytes": "32"
					},
					"t_contract(SimpleStorage)60": {
						"encoding": "inplace",
						"label": "contract SimpleStorage",
						"numberOfBytes": "20"
					}
				}
			},
			"userdoc": {
				"kind": "user",
				"methods": {},
				"version": 1
			}
		}
	}
}