{
	"contracts/FundMe.sol": {
		"fundMe": {
			"abi": [
				{
					"inputs": [],
					"name": "fund",
					"outputs": [],
					"stateMutability": "payable",
					"type": "function"
				},
				{
					"inputs": [
						{
							"internalType": "uint256",
							"name": "",
							"type": "uint256"
						}
					],
					"name": "funders",
					"outputs": [
						{
							"internalType": "address",
							"name": "",
							"type": "address"
						}
					],
					"stateMutability": "view",
					"type": "function"
				},
				{
					"inputs": [
						{
							"internalType": "uint256",
							"name": "ethAmount",
							"type": "uint256"
						}
					],
					"name": "getConversationRate",
					"outputs": [
						{
							"internalType": "uint256",
							"name": "",
							"type": "uint256"
						}
					],
					"stateMutability": "view",
					"type": "function"
				},
				{
					"inputs": [],
					"name": "getPrice",
					"outputs": [
						{
							"internalType": "uint256",
							"name": "",
							"type": "uint256"
						}
					],
					"stateMutability": "view",
					"type": "function"
				},
				{
					"inputs": [],
					"name": "getVersion",
					"outputs": [
						{
							"internalType": "uint256",
							"name": "",
							"type": "uint256"
						}
					],
					"stateMutability": "view",
					"type": "function"
				},
				{
					"inputs": [],
					"name": "miminumUsd",
					"outputs": [
						{
							"internalType": "uint256",
							"name": "",
							"type": "uint256"
						}
					],
					"stateMutability": "view",
					"type": "function"
				}
			],
			"devdoc": {
				"kind": "dev",
				"methods": {},
				"version": 1
			},
			"evm": {
				"assembly": "    /* \"contracts/FundMe.sol\":1413:3154  contract fundMe {... */\n  mstore(0x40, 0x80)\n    /* \"contracts/FundMe.sol\":1465:1474  50 * 1e18 */\n  0x02b5e3af16b1880000\n    /* \"contracts/FundMe.sol\":1437:1474  uint256 public miminumUsd = 50 * 1e18 */\n  0x00\n  sstore\n    /* \"contracts/FundMe.sol\":1413:3154  contract fundMe {... */\n  callvalue\n  dup1\n  iszero\n  tag_1\n  jumpi\n  0x00\n  dup1\n  revert\ntag_1:\n  pop\n  dataSize(sub_0)\n  dup1\n  dataOffset(sub_0)\n  0x00\n  codecopy\n  0x00\n  return\nstop\n\nsub_0: assembly {\n        /* \"contracts/FundMe.sol\":1413:3154  contract fundMe {... */\n      mstore(0x40, 0x80)\n      jumpi(tag_1, lt(calldatasize, 0x04))\n      shr(0xe0, calldataload(0x00))\n      dup1\n      0x0d8e6e2c\n      eq\n      tag_2\n      jumpi\n      dup1\n      0x4c03815c\n      eq\n      tag_3\n      jumpi\n      dup1\n      0x75263f22\n      eq\n      tag_4\n      jumpi\n      dup1\n      0x98d5fdca\n      eq\n      tag_5\n      jumpi\n      dup1\n      0xb60d4288\n      eq\n      tag_6\n      jumpi\n      dup1\n      0xdc0d3dff\n      eq\n      tag_7\n      jumpi\n    tag_1:\n      0x00\n      dup1\n      revert\n        /* \"contracts/FundMe.sol\":2690:2894  function getVersion() public view returns (uint256) {... */\n    tag_2:\n      callvalue\n      dup1\n      iszero\n      tag_8\n      jumpi\n      0x00\n      dup1\n      revert\n    tag_8:\n      pop\n      tag_9\n      tag_10\n      jump\t// in\n    tag_9:\n      mload(0x40)\n      tag_11\n      swap2\n      swap1\n      tag_12\n      jump\t// in\n    tag_11:\n      mload(0x40)\n      dup1\n      swap2\n      sub\n      swap1\n      return\n        /* \"contracts/FundMe.sol\":2900:3118  function getConversationRate(uint256 ethAmount) public view returns(uint256) {... */\n    tag_3:\n      callvalue\n      dup1\n      iszero\n      tag_13\n      jumpi\n      0x00\n      dup1\n      revert\n    tag_13:\n      pop\n      tag_14\n      0x04\n      dup1\n      calldatasize\n      sub\n      dup2\n      add\n      swap1\n      tag_15\n      swap2\n      swap1\n      tag_16\n      jump\t// in\n    tag_15:\n      tag_17\n      jump\t// in\n    tag_14:\n      mload(0x40)\n      tag_18\n      swap2\n      swap1\n      tag_12\n      jump\t// in\n    tag_18:\n      mload(0x40)\n      dup1\n      swap2\n      sub\n      swap1\n      return\n        /* \"contracts/FundMe.sol\":1437:1474  uint256 public miminumUsd = 50 * 1e18 */\n    tag_4:\n      callvalue\n      dup1\n      iszero\n      tag_19\n      jumpi\n      0x00\n      dup1\n      revert\n    tag_19:\n      pop\n      tag_20\n      tag_21\n      jump\t// in\n    tag_20:\n      mload(0x40)\n      tag_22\n      swap2\n      swap1\n      tag_12\n      jump\t// in\n    tag_22:\n      mload(0x40)\n      dup1\n      swap2\n      sub\n      swap1\n      return\n        /* \"contracts/FundMe.sol\":2111:2684  function getPrice() public view returns(uint256){... */\n    tag_5:\n      callvalue\n      dup1\n      iszero\n      tag_23\n      jumpi\n      0x00\n      dup1\n      revert\n    tag_23:\n      pop\n      tag_24\n      tag_25\n      jump\t// in\n    tag_24:\n      mload(0x40)\n      tag_26\n      swap2\n      swap1\n      tag_12\n      jump\t// in\n    tag_26:\n      mload(0x40)\n      dup1\n      swap2\n      sub\n      swap1\n      return\n        /* \"contracts/FundMe.sol\":1598:2105  function fund() public payable {... */\n    tag_6:\n      tag_27\n      tag_28\n      jump\t// in\n    tag_27:\n      stop\n        /* \"contracts/FundMe.sol\":1507:1531  address[] public funders */\n    tag_7:\n      callvalue\n      dup1\n      iszero\n      tag_29\n      jumpi\n      0x00\n      dup1\n      revert\n    tag_29:\n      pop\n      tag_30\n      0x04\n      dup1\n      calldatasize\n      sub\n      dup2\n      add\n      swap1\n      tag_31\n      swap2\n      swap1\n      tag_16\n      jump\t// in\n    tag_31:\n      tag_32\n      jump\t// in\n    tag_30:\n      mload(0x40)\n      tag_33\n      swap2\n      swap1\n      tag_34\n      jump\t// in\n    tag_33:\n      mload(0x40)\n      dup1\n      swap2\n      sub\n      swap1\n      return\n        /* \"contracts/FundMe.sol\":2690:2894  function getVersion() public view returns (uint256) {... */\n    tag_10:\n        /* \"contracts/FundMe.sol\":2733:2740  uint256 */\n      0x00\n        /* \"contracts/FundMe.sol\":2752:2783  AggregatorV3Interface priceFeed */\n      dup1\n        /* \"contracts/FundMe.sol\":2808:2850  0xD4a33860578De61DBAbDc8BFdb98FD742fA7028e */\n      0xd4a33860578de61dbabdc8bfdb98fd742fa7028e\n        /* \"contracts/FundMe.sol\":2752:2851  AggregatorV3Interface priceFeed = AggregatorV3Interface(0xD4a33860578De61DBAbDc8BFdb98FD742fA7028e) */\n      swap1\n      pop\n        /* \"contracts/FundMe.sol\":2868:2877  priceFeed */\n      dup1\n        /* \"contracts/FundMe.sol\":2868:2885  priceFeed.version */\n      0xffffffffffffffffffffffffffffffffffffffff\n      and\n      0x54fd4d50\n        /* \"contracts/FundMe.sol\":2868:2887  priceFeed.version() */\n      mload(0x40)\n      dup2\n      0xffffffff\n      and\n      0xe0\n      shl\n      dup2\n      mstore\n      0x04\n      add\n      0x20\n      mload(0x40)\n      dup1\n      dup4\n      sub\n      dup2\n      dup7\n      dup1\n      extcodesize\n      iszero\n      dup1\n      iszero\n      tag_36\n      jumpi\n      0x00\n      dup1\n      revert\n    tag_36:\n      pop\n      gas\n      staticcall\n      iszero\n      dup1\n      iszero\n      tag_38\n      jumpi\n      returndatasize\n      0x00\n      dup1\n      returndatacopy\n      revert(0x00, returndatasize)\n    tag_38:\n      pop\n      pop\n      pop\n      pop\n      mload(0x40)\n      returndatasize\n      not(0x1f)\n      0x1f\n      dup3\n      add\n      and\n      dup3\n      add\n      dup1\n      0x40\n      mstore\n      pop\n      dup2\n      add\n      swap1\n      tag_39\n      swap2\n      swap1\n      tag_40\n      jump\t// in\n    tag_39:\n        /* \"contracts/FundMe.sol\":2861:2887  return priceFeed.version() */\n      swap2\n      pop\n      pop\n        /* \"contracts/FundMe.sol\":2690:2894  function getVersion() public view returns (uint256) {... */\n      swap1\n      jump\t// out\n        /* \"contracts/FundMe.sol\":2900:3118  function getConversationRate(uint256 ethAmount) public view returns(uint256) {... */\n    tag_17:\n        /* \"contracts/FundMe.sol\":2968:2975  uint256 */\n      0x00\n        /* \"contracts/FundMe.sol\":2987:3003  uint256 ethPrice */\n      dup1\n        /* \"contracts/FundMe.sol\":3006:3016  getPrice() */\n      tag_42\n        /* \"contracts/FundMe.sol\":3006:3014  getPrice */\n      tag_25\n        /* \"contracts/FundMe.sol\":3006:3016  getPrice() */\n      jump\t// in\n    tag_42:\n        /* \"contracts/FundMe.sol\":2987:3016  uint256 ethPrice = getPrice() */\n      swap1\n      pop\n        /* \"contracts/FundMe.sol\":3026:3048  uint256 ethAmountInUsd */\n      0x00\n        /* \"contracts/FundMe.sol\":3076:3080  1e18 */\n      0x0de0b6b3a7640000\n        /* \"contracts/FundMe.sol\":3063:3072  ethAmount */\n      dup5\n        /* \"contracts/FundMe.sol\":3052:3060  ethPrice */\n      dup4\n        /* \"contracts/FundMe.sol\":3052:3072  ethPrice * ethAmount */\n      tag_43\n      swap2\n      swap1\n      tag_44\n      jump\t// in\n    tag_43:\n        /* \"contracts/FundMe.sol\":3051:3080  (ethPrice * ethAmount) / 1e18 */\n      tag_45\n      swap2\n      swap1\n      tag_46\n      jump\t// in\n    tag_45:\n        /* \"contracts/FundMe.sol\":3026:3080  uint256 ethAmountInUsd = (ethPrice * ethAmount) / 1e18 */\n      swap1\n      pop\n        /* \"contracts/FundMe.sol\":3097:3111  ethAmountInUsd */\n      dup1\n        /* \"contracts/FundMe.sol\":3090:3111  return ethAmountInUsd */\n      swap3\n      pop\n      pop\n      pop\n        /* \"contracts/FundMe.sol\":2900:3118  function getConversationRate(uint256 ethAmount) public view returns(uint256) {... */\n      swap2\n      swap1\n      pop\n      jump\t// out\n        /* \"contracts/FundMe.sol\":1437:1474  uint256 public miminumUsd = 50 * 1e18 */\n    tag_21:\n      sload(0x00)\n      dup2\n      jump\t// out\n        /* \"contracts/FundMe.sol\":2111:2684  function getPrice() public view returns(uint256){... */\n    tag_25:\n        /* \"contracts/FundMe.sol\":2151:2158  uint256 */\n      0x00\n        /* \"contracts/FundMe.sol\":2296:2327  AggregatorV3Interface priceFeed */\n      dup1\n        /* \"contracts/FundMe.sol\":2352:2394  0xD4a33860578De61DBAbDc8BFdb98FD742fA7028e */\n      0xd4a33860578de61dbabdc8bfdb98fd742fa7028e\n        /* \"contracts/FundMe.sol\":2296:2395  AggregatorV3Interface priceFeed = AggregatorV3Interface(0xD4a33860578De61DBAbDc8BFdb98FD742fA7028e) */\n      swap1\n      pop\n        /* \"contracts/FundMe.sol\":2448:2460  int256 price */\n      0x00\n        /* \"contracts/FundMe.sol\":2467:2476  priceFeed */\n      dup2\n        /* \"contracts/FundMe.sol\":2467:2492  priceFeed.latestRoundData */\n      0xffffffffffffffffffffffffffffffffffffffff\n      and\n      0xfeaf968c\n        /* \"contracts/FundMe.sol\":2467:2494  priceFeed.latestRoundData() */\n      mload(0x40)\n      dup2\n      0xffffffff\n      and\n      0xe0\n      shl\n      dup2\n      mstore\n      0x04\n      add\n      0xa0\n      mload(0x40)\n      dup1\n      dup4\n      sub\n      dup2\n      dup7\n      dup1\n      extcodesize\n      iszero\n      dup1\n      iszero\n      tag_48\n      jumpi\n      0x00\n      dup1\n      revert\n    tag_48:\n      pop\n      gas\n      staticcall\n      iszero\n      dup1\n      iszero\n      tag_50\n      jumpi\n      returndatasize\n      0x00\n      dup1\n      returndatacopy\n      revert(0x00, returndatasize)\n    tag_50:\n      pop\n      pop\n      pop\n      pop\n      mload(0x40)\n      returndatasize\n      not(0x1f)\n      0x1f\n      dup3\n      add\n      and\n      dup3\n      add\n      dup1\n      0x40\n      mstore\n      pop\n      dup2\n      add\n      swap1\n      tag_51\n      swap2\n      swap1\n      tag_52\n      jump\t// in\n    tag_51:\n        /* \"contracts/FundMe.sol\":2445:2494  (, int256 price,,,) = priceFeed.latestRoundData() */\n      pop\n      pop\n      pop\n      swap2\n      pop\n      pop\n        /* \"contracts/FundMe.sol\":2581:2585  1e10 */\n      0x02540be400\n        /* \"contracts/FundMe.sol\":2573:2578  price */\n      dup2\n        /* \"contracts/FundMe.sol\":2573:2585  price * 1e10 */\n      tag_53\n      swap2\n      swap1\n      tag_54\n      jump\t// in\n    tag_53:\n        /* \"contracts/FundMe.sol\":2558:2586  return uint256(price * 1e10) */\n      swap3\n      pop\n      pop\n      pop\n        /* \"contracts/FundMe.sol\":2111:2684  function getPrice() public view returns(uint256){... */\n      swap1\n      jump\t// out\n        /* \"contracts/FundMe.sol\":1598:2105  function fund() public payable {... */\n    tag_28:\n        /* \"contracts/FundMe.sol\":2043:2053  miminumUsd */\n      sload(0x00)\n        /* \"contracts/FundMe.sol\":2009:2039  getConversationRate(msg.value) */\n      tag_56\n        /* \"contracts/FundMe.sol\":2029:2038  msg.value */\n      callvalue\n        /* \"contracts/FundMe.sol\":2009:2028  getConversationRate */\n      tag_17\n        /* \"contracts/FundMe.sol\":2009:2039  getConversationRate(msg.value) */\n      jump\t// in\n    tag_56:\n        /* \"contracts/FundMe.sol\":2009:2053  getConversationRate(msg.value) >= miminumUsd */\n      lt\n      iszero\n        /* \"contracts/FundMe.sol\":2001:2068  require(getConversationRate(msg.value) >= miminumUsd, \"Not enough\") */\n      tag_57\n      jumpi\n      mload(0x40)\n      0x08c379a000000000000000000000000000000000000000000000000000000000\n      dup2\n      mstore\n      0x04\n      add\n      tag_58\n      swap1\n      tag_59\n      jump\t// in\n    tag_58:\n      mload(0x40)\n      dup1\n      swap2\n      sub\n      swap1\n      revert\n    tag_57:\n        /* \"contracts/FundMe.sol\":2074:2081  funders */\n      0x01\n        /* \"contracts/FundMe.sol\":2087:2097  msg.sender */\n      caller\n        /* \"contracts/FundMe.sol\":2074:2098  funders.push(msg.sender) */\n      swap1\n      dup1\n      0x01\n      dup2\n      sload\n      add\n      dup1\n      dup3\n      sstore\n      dup1\n      swap2\n      pop\n      pop\n      0x01\n      swap1\n      sub\n      swap1\n      0x00\n      mstore\n      keccak256(0x00, 0x20)\n      add\n      0x00\n      swap1\n      swap2\n      swap1\n      swap2\n      swap1\n      swap2\n      0x0100\n      exp\n      dup2\n      sload\n      dup2\n      0xffffffffffffffffffffffffffffffffffffffff\n      mul\n      not\n      and\n      swap1\n      dup4\n      0xffffffffffffffffffffffffffffffffffffffff\n      and\n      mul\n      or\n      swap1\n      sstore\n      pop\n        /* \"contracts/FundMe.sol\":1598:2105  function fund() public payable {... */\n      jump\t// out\n        /* \"contracts/FundMe.sol\":1507:1531  address[] public funders */\n    tag_32:\n      0x01\n      dup2\n      dup2\n      sload\n      dup2\n      lt\n      tag_61\n      jumpi\n      0x00\n      dup1\n      revert\n    tag_61:\n      swap1\n      0x00\n      mstore\n      keccak256(0x00, 0x20)\n      add\n      0x00\n      swap2\n      pop\n      sload\n      swap1\n      0x0100\n      exp\n      swap1\n      div\n      0xffffffffffffffffffffffffffffffffffffffff\n      and\n      dup2\n      jump\t// out\n        /* \"#utility.yul\":7:148   */\n    tag_64:\n        /* \"#utility.yul\":63:68   */\n      0x00\n        /* \"#utility.yul\":94:100   */\n      dup2\n        /* \"#utility.yul\":88:101   */\n      mload\n        /* \"#utility.yul\":79:101   */\n      swap1\n      pop\n        /* \"#utility.yul\":110:142   */\n      tag_66\n        /* \"#utility.yul\":136:141   */\n      dup2\n        /* \"#utility.yul\":110:142   */\n      tag_67\n      jump\t// in\n    tag_66:\n        /* \"#utility.yul\":7:148   */\n      swap3\n      swap2\n      pop\n      pop\n      jump\t// out\n        /* \"#utility.yul\":154:293   */\n    tag_68:\n        /* \"#utility.yul\":200:205   */\n      0x00\n        /* \"#utility.yul\":238:244   */\n      dup2\n        /* \"#utility.yul\":225:245   */\n      calldataload\n        /* \"#utility.yul\":216:245   */\n      swap1\n      pop\n        /* \"#utility.yul\":254:287   */\n      tag_70\n        /* \"#utility.yul\":281:286   */\n      dup2\n        /* \"#utility.yul\":254:287   */\n      tag_71\n      jump\t// in\n    tag_70:\n        /* \"#utility.yul\":154:293   */\n      swap3\n      swap2\n      pop\n      pop\n      jump\t// out\n        /* \"#utility.yul\":299:442   */\n    tag_72:\n        /* \"#utility.yul\":356:361   */\n      0x00\n        /* \"#utility.yul\":387:393   */\n      dup2\n        /* \"#utility.yul\":381:394   */\n      mload\n        /* \"#utility.yul\":372:394   */\n      swap1\n      pop\n        /* \"#utility.yul\":403:436   */\n      tag_74\n        /* \"#utility.yul\":430:435   */\n      dup2\n        /* \"#utility.yul\":403:436   */\n      tag_71\n      jump\t// in\n    tag_74:\n        /* \"#utility.yul\":299:442   */\n      swap3\n      swap2\n      pop\n      pop\n      jump\t// out\n        /* \"#utility.yul\":448:589   */\n    tag_75:\n        /* \"#utility.yul\":504:509   */\n      0x00\n        /* \"#utility.yul\":535:541   */\n      dup2\n        /* \"#utility.yul\":529:542   */\n      mload\n        /* \"#utility.yul\":520:542   */\n      swap1\n      pop\n        /* \"#utility.yul\":551:583   */\n      tag_77\n        /* \"#utility.yul\":577:582   */\n      dup2\n        /* \"#utility.yul\":551:583   */\n      tag_78\n      jump\t// in\n    tag_77:\n        /* \"#utility.yul\":448:589   */\n      swap3\n      swap2\n      pop\n      pop\n      jump\t// out\n        /* \"#utility.yul\":595:924   */\n    tag_16:\n        /* \"#utility.yul\":654:660   */\n      0x00\n        /* \"#utility.yul\":703:705   */\n      0x20\n        /* \"#utility.yul\":691:700   */\n      dup3\n        /* \"#utility.yul\":682:689   */\n      dup5\n        /* \"#utility.yul\":678:701   */\n      sub\n        /* \"#utility.yul\":674:706   */\n      slt\n        /* \"#utility.yul\":671:790   */\n      iszero\n      tag_80\n      jumpi\n        /* \"#utility.yul\":709:788   */\n      tag_81\n      tag_82\n      jump\t// in\n    tag_81:\n        /* \"#utility.yul\":671:790   */\n    tag_80:\n        /* \"#utility.yul\":829:830   */\n      0x00\n        /* \"#utility.yul\":854:907   */\n      tag_83\n        /* \"#utility.yul\":899:906   */\n      dup5\n        /* \"#utility.yul\":890:896   */\n      dup3\n        /* \"#utility.yul\":879:888   */\n      dup6\n        /* \"#utility.yul\":875:897   */\n      add\n        /* \"#utility.yul\":854:907   */\n      tag_68\n      jump\t// in\n    tag_83:\n        /* \"#utility.yul\":844:907   */\n      swap2\n      pop\n        /* \"#utility.yul\":800:917   */\n      pop\n        /* \"#utility.yul\":595:924   */\n      swap3\n      swap2\n      pop\n      pop\n      jump\t// out\n        /* \"#utility.yul\":930:1281   */\n    tag_40:\n        /* \"#utility.yul\":1000:1006   */\n      0x00\n        /* \"#utility.yul\":1049:1051   */\n      0x20\n        /* \"#utility.yul\":1037:1046   */\n      dup3\n        /* \"#utility.yul\":1028:1035   */\n      dup5\n        /* \"#utility.yul\":1024:1047   */\n      sub\n        /* \"#utility.yul\":1020:1052   */\n      slt\n        /* \"#utility.yul\":1017:1136   */\n      iszero\n      tag_85\n      jumpi\n        /* \"#utility.yul\":1055:1134   */\n      tag_86\n      tag_82\n      jump\t// in\n    tag_86:\n        /* \"#utility.yul\":1017:1136   */\n    tag_85:\n        /* \"#utility.yul\":1175:1176   */\n      0x00\n        /* \"#utility.yul\":1200:1264   */\n      tag_87\n        /* \"#utility.yul\":1256:1263   */\n      dup5\n        /* \"#utility.yul\":1247:1253   */\n      dup3\n        /* \"#utility.yul\":1236:1245   */\n      dup6\n        /* \"#utility.yul\":1232:1254   */\n      add\n        /* \"#utility.yul\":1200:1264   */\n      tag_72\n      jump\t// in\n    tag_87:\n        /* \"#utility.yul\":1190:1264   */\n      swap2\n      pop\n        /* \"#utility.yul\":1146:1274   */\n      pop\n        /* \"#utility.yul\":930:1281   */\n      swap3\n      swap2\n      pop\n      pop\n      jump\t// out\n        /* \"#utility.yul\":1287:2258   */\n    tag_52:\n        /* \"#utility.yul\":1390:1396   */\n      0x00\n        /* \"#utility.yul\":1398:1404   */\n      dup1\n        /* \"#utility.yul\":1406:1412   */\n      0x00\n        /* \"#utility.yul\":1414:1420   */\n      dup1\n        /* \"#utility.yul\":1422:1428   */\n      0x00\n        /* \"#utility.yul\":1471:1474   */\n      0xa0\n        /* \"#utility.yul\":1459:1468   */\n      dup7\n        /* \"#utility.yul\":1450:1457   */\n      dup9\n        /* \"#utility.yul\":1446:1469   */\n      sub\n        /* \"#utility.yul\":1442:1475   */\n      slt\n        /* \"#utility.yul\":1439:1559   */\n      iszero\n      tag_89\n      jumpi\n        /* \"#utility.yul\":1478:1557   */\n      tag_90\n      tag_82\n      jump\t// in\n    tag_90:\n        /* \"#utility.yul\":1439:1559   */\n    tag_89:\n        /* \"#utility.yul\":1598:1599   */\n      0x00\n        /* \"#utility.yul\":1623:1686   */\n      tag_91\n        /* \"#utility.yul\":1678:1685   */\n      dup9\n        /* \"#utility.yul\":1669:1675   */\n      dup3\n        /* \"#utility.yul\":1658:1667   */\n      dup10\n        /* \"#utility.yul\":1654:1676   */\n      add\n        /* \"#utility.yul\":1623:1686   */\n      tag_75\n      jump\t// in\n    tag_91:\n        /* \"#utility.yul\":1613:1686   */\n      swap6\n      pop\n        /* \"#utility.yul\":1569:1696   */\n      pop\n        /* \"#utility.yul\":1735:1737   */\n      0x20\n        /* \"#utility.yul\":1761:1824   */\n      tag_92\n        /* \"#utility.yul\":1816:1823   */\n      dup9\n        /* \"#utility.yul\":1807:1813   */\n      dup3\n        /* \"#utility.yul\":1796:1805   */\n      dup10\n        /* \"#utility.yul\":1792:1814   */\n      add\n        /* \"#utility.yul\":1761:1824   */\n      tag_64\n      jump\t// in\n    tag_92:\n        /* \"#utility.yul\":1751:1824   */\n      swap5\n      pop\n        /* \"#utility.yul\":1706:1834   */\n      pop\n        /* \"#utility.yul\":1873:1875   */\n      0x40\n        /* \"#utility.yul\":1899:1963   */\n      tag_93\n        /* \"#utility.yul\":1955:1962   */\n      dup9\n        /* \"#utility.yul\":1946:1952   */\n      dup3\n        /* \"#utility.yul\":1935:1944   */\n      dup10\n        /* \"#utility.yul\":1931:1953   */\n      add\n        /* \"#utility.yul\":1899:1963   */\n      tag_72\n      jump\t// in\n    tag_93:\n        /* \"#utility.yul\":1889:1963   */\n      swap4\n      pop\n        /* \"#utility.yul\":1844:1973   */\n      pop\n        /* \"#utility.yul\":2012:2014   */\n      0x60\n        /* \"#utility.yul\":2038:2102   */\n      tag_94\n        /* \"#utility.yul\":2094:2101   */\n      dup9\n        /* \"#utility.yul\":2085:2091   */\n      dup3\n        /* \"#utility.yul\":2074:2083   */\n      dup10\n        /* \"#utility.yul\":2070:2092   */\n      add\n        /* \"#utility.yul\":2038:2102   */\n      tag_72\n      jump\t// in\n    tag_94:\n        /* \"#utility.yul\":2028:2102   */\n      swap3\n      pop\n        /* \"#utility.yul\":1983:2112   */\n      pop\n        /* \"#utility.yul\":2151:2154   */\n      0x80\n        /* \"#utility.yul\":2178:2241   */\n      tag_95\n        /* \"#utility.yul\":2233:2240   */\n      dup9\n        /* \"#utility.yul\":2224:2230   */\n      dup3\n        /* \"#utility.yul\":2213:2222   */\n      dup10\n        /* \"#utility.yul\":2209:2231   */\n      add\n        /* \"#utility.yul\":2178:2241   */\n      tag_75\n      jump\t// in\n    tag_95:\n        /* \"#utility.yul\":2168:2241   */\n      swap2\n      pop\n        /* \"#utility.yul\":2122:2251   */\n      pop\n        /* \"#utility.yul\":1287:2258   */\n      swap3\n      swap6\n      pop\n      swap3\n      swap6\n      swap1\n      swap4\n      pop\n      jump\t// out\n        /* \"#utility.yul\":2264:2382   */\n    tag_96:\n        /* \"#utility.yul\":2351:2375   */\n      tag_98\n        /* \"#utility.yul\":2369:2374   */\n      dup2\n        /* \"#utility.yul\":2351:2375   */\n      tag_99\n      jump\t// in\n    tag_98:\n        /* \"#utility.yul\":2346:2349   */\n      dup3\n        /* \"#utility.yul\":2339:2376   */\n      mstore\n        /* \"#utility.yul\":2264:2382   */\n      pop\n      pop\n      jump\t// out\n        /* \"#utility.yul\":2388:2754   */\n    tag_100:\n        /* \"#utility.yul\":2530:2533   */\n      0x00\n        /* \"#utility.yul\":2551:2618   */\n      tag_102\n        /* \"#utility.yul\":2615:2617   */\n      0x0a\n        /* \"#utility.yul\":2610:2613   */\n      dup4\n        /* \"#utility.yul\":2551:2618   */\n      tag_103\n      jump\t// in\n    tag_102:\n        /* \"#utility.yul\":2544:2618   */\n      swap2\n      pop\n        /* \"#utility.yul\":2627:2720   */\n      tag_104\n        /* \"#utility.yul\":2716:2719   */\n      dup3\n        /* \"#utility.yul\":2627:2720   */\n      tag_105\n      jump\t// in\n    tag_104:\n        /* \"#utility.yul\":2745:2747   */\n      0x20\n        /* \"#utility.yul\":2740:2743   */\n      dup3\n        /* \"#utility.yul\":2736:2748   */\n      add\n        /* \"#utility.yul\":2729:2748   */\n      swap1\n      pop\n        /* \"#utility.yul\":2388:2754   */\n      swap2\n      swap1\n      pop\n      jump\t// out\n        /* \"#utility.yul\":2760:2878   */\n    tag_106:\n        /* \"#utility.yul\":2847:2871   */\n      tag_108\n        /* \"#utility.yul\":2865:2870   */\n      dup2\n        /* \"#utility.yul\":2847:2871   */\n      tag_109\n      jump\t// in\n    tag_108:\n        /* \"#utility.yul\":2842:2845   */\n      dup3\n        /* \"#utility.yul\":2835:2872   */\n      mstore\n        /* \"#utility.yul\":2760:2878   */\n      pop\n      pop\n      jump\t// out\n        /* \"#utility.yul\":2884:3106   */\n    tag_34:\n        /* \"#utility.yul\":2977:2981   */\n      0x00\n        /* \"#utility.yul\":3015:3017   */\n      0x20\n        /* \"#utility.yul\":3004:3013   */\n      dup3\n        /* \"#utility.yul\":3000:3018   */\n      add\n        /* \"#utility.yul\":2992:3018   */\n      swap1\n      pop\n        /* \"#utility.yul\":3028:3099   */\n      tag_111\n        /* \"#utility.yul\":3096:3097   */\n      0x00\n        /* \"#utility.yul\":3085:3094   */\n      dup4\n        /* \"#utility.yul\":3081:3098   */\n      add\n        /* \"#utility.yul\":3072:3078   */\n      dup5\n        /* \"#utility.yul\":3028:3099   */\n      tag_96\n      jump\t// in\n    tag_111:\n        /* \"#utility.yul\":2884:3106   */\n      swap3\n      swap2\n      pop\n      pop\n      jump\t// out\n        /* \"#utility.yul\":3112:3531   */\n    tag_59:\n        /* \"#utility.yul\":3278:3282   */\n      0x00\n        /* \"#utility.yul\":3316:3318   */\n      0x20\n        /* \"#utility.yul\":3305:3314   */\n      dup3\n        /* \"#utility.yul\":3301:3319   */\n      add\n        /* \"#utility.yul\":3293:3319   */\n      swap1\n      pop\n        /* \"#utility.yul\":3365:3374   */\n      dup2\n        /* \"#utility.yul\":3359:3363   */\n      dup2\n        /* \"#utility.yul\":3355:3375   */\n      sub\n        /* \"#utility.yul\":3351:3352   */\n      0x00\n        /* \"#utility.yul\":3340:3349   */\n      dup4\n        /* \"#utility.yul\":3336:3353   */\n      add\n        /* \"#utility.yul\":3329:3376   */\n      mstore\n        /* \"#utility.yul\":3393:3524   */\n      tag_113\n        /* \"#utility.yul\":3519:3523   */\n      dup2\n        /* \"#utility.yul\":3393:3524   */\n      tag_100\n      jump\t// in\n    tag_113:\n        /* \"#utility.yul\":3385:3524   */\n      swap1\n      pop\n        /* \"#utility.yul\":3112:3531   */\n      swap2\n      swap1\n      pop\n      jump\t// out\n        /* \"#utility.yul\":3537:3759   */\n    tag_12:\n        /* \"#utility.yul\":3630:3634   */\n      0x00\n        /* \"#utility.yul\":3668:3670   */\n      0x20\n        /* \"#utility.yul\":3657:3666   */\n      dup3\n        /* \"#utility.yul\":3653:3671   */\n      add\n        /* \"#utility.yul\":3645:3671   */\n      swap1\n      pop\n        /* \"#utility.yul\":3681:3752   */\n      tag_115\n        /* \"#utility.yul\":3749:3750   */\n      0x00\n        /* \"#utility.yul\":3738:3747   */\n      dup4\n        /* \"#utility.yul\":3734:3751   */\n      add\n        /* \"#utility.yul\":3725:3731   */\n      dup5\n        /* \"#utility.yul\":3681:3752   */\n      tag_106\n      jump\t// in\n    tag_115:\n        /* \"#utility.yul\":3537:3759   */\n      swap3\n      swap2\n      pop\n      pop\n      jump\t// out\n        /* \"#utility.yul\":3846:4015   */\n    tag_103:\n        /* \"#utility.yul\":3930:3941   */\n      0x00\n        /* \"#utility.yul\":3964:3970   */\n      dup3\n        /* \"#utility.yul\":3959:3962   */\n      dup3\n        /* \"#utility.yul\":3952:3971   */\n      mstore\n        /* \"#utility.yul\":4004:4008   */\n      0x20\n        /* \"#utility.yul\":3999:4002   */\n      dup3\n        /* \"#utility.yul\":3995:4009   */\n      add\n        /* \"#utility.yul\":3980:4009   */\n      swap1\n      pop\n        /* \"#utility.yul\":3846:4015   */\n      swap3\n      swap2\n      pop\n      pop\n      jump\t// out\n        /* \"#utility.yul\":4021:4206   */\n    tag_46:\n        /* \"#utility.yul\":4061:4062   */\n      0x00\n        /* \"#utility.yul\":4078:4098   */\n      tag_120\n        /* \"#utility.yul\":4096:4097   */\n      dup3\n        /* \"#utility.yul\":4078:4098   */\n      tag_109\n      jump\t// in\n    tag_120:\n        /* \"#utility.yul\":4073:4098   */\n      swap2\n      pop\n        /* \"#utility.yul\":4112:4132   */\n      tag_121\n        /* \"#utility.yul\":4130:4131   */\n      dup4\n        /* \"#utility.yul\":4112:4132   */\n      tag_109\n      jump\t// in\n    tag_121:\n        /* \"#utility.yul\":4107:4132   */\n      swap3\n      pop\n        /* \"#utility.yul\":4151:4152   */\n      dup3\n        /* \"#utility.yul\":4141:4176   */\n      tag_122\n      jumpi\n        /* \"#utility.yul\":4156:4174   */\n      tag_123\n      tag_124\n      jump\t// in\n    tag_123:\n        /* \"#utility.yul\":4141:4176   */\n    tag_122:\n        /* \"#utility.yul\":4198:4199   */\n      dup3\n        /* \"#utility.yul\":4195:4196   */\n      dup3\n        /* \"#utility.yul\":4191:4200   */\n      div\n        /* \"#utility.yul\":4186:4200   */\n      swap1\n      pop\n        /* \"#utility.yul\":4021:4206   */\n      swap3\n      swap2\n      pop\n      pop\n      jump\t// out\n        /* \"#utility.yul\":4212:5203   */\n    tag_54:\n        /* \"#utility.yul\":4251:4258   */\n      0x00\n        /* \"#utility.yul\":4274:4293   */\n      tag_126\n        /* \"#utility.yul\":4291:4292   */\n      dup3\n        /* \"#utility.yul\":4274:4293   */\n      tag_127\n      jump\t// in\n    tag_126:\n        /* \"#utility.yul\":4269:4293   */\n      swap2\n      pop\n        /* \"#utility.yul\":4307:4326   */\n      tag_128\n        /* \"#utility.yul\":4324:4325   */\n      dup4\n        /* \"#utility.yul\":4307:4326   */\n      tag_127\n      jump\t// in\n    tag_128:\n        /* \"#utility.yul\":4302:4326   */\n      swap3\n      pop\n        /* \"#utility.yul\":4508:4509   */\n      dup3\n        /* \"#utility.yul\":4440:4506   */\n      0x7fffffffffffffffffffffffffffffffffffffffffffffffffffffffffffffff\n        /* \"#utility.yul\":4436:4510   */\n      div\n        /* \"#utility.yul\":4433:4434   */\n      dup3\n        /* \"#utility.yul\":4430:4511   */\n      gt\n        /* \"#utility.yul\":4425:4426   */\n      0x00\n        /* \"#utility.yul\":4422:4423   */\n      dup5\n        /* \"#utility.yul\":4418:4427   */\n      sgt\n        /* \"#utility.yul\":4414:4415   */\n      0x00\n        /* \"#utility.yul\":4411:4412   */\n      dup5\n        /* \"#utility.yul\":4407:4416   */\n      sgt\n        /* \"#utility.yul\":4403:4428   */\n      and\n        /* \"#utility.yul\":4399:4512   */\n      and\n        /* \"#utility.yul\":4396:4535   */\n      iszero\n      tag_129\n      jumpi\n        /* \"#utility.yul\":4515:4533   */\n      tag_130\n      tag_131\n      jump\t// in\n    tag_130:\n        /* \"#utility.yul\":4396:4535   */\n    tag_129:\n        /* \"#utility.yul\":4719:4720   */\n      dup2\n        /* \"#utility.yul\":4651:4717   */\n      0x8000000000000000000000000000000000000000000000000000000000000000\n        /* \"#utility.yul\":4646:4721   */\n      sdiv\n        /* \"#utility.yul\":4643:4644   */\n      dup4\n        /* \"#utility.yul\":4639:4722   */\n      slt\n        /* \"#utility.yul\":4634:4635   */\n      0x00\n        /* \"#utility.yul\":4631:4632   */\n      dup5\n        /* \"#utility.yul\":4627:4636   */\n      slt\n        /* \"#utility.yul\":4623:4624   */\n      0x00\n        /* \"#utility.yul\":4620:4621   */\n      dup5\n        /* \"#utility.yul\":4616:4625   */\n      sgt\n        /* \"#utility.yul\":4612:4637   */\n      and\n        /* \"#utility.yul\":4608:4723   */\n      and\n        /* \"#utility.yul\":4605:4746   */\n      iszero\n      tag_132\n      jumpi\n        /* \"#utility.yul\":4726:4744   */\n      tag_133\n      tag_131\n      jump\t// in\n    tag_133:\n        /* \"#utility.yul\":4605:4746   */\n    tag_132:\n        /* \"#utility.yul\":4930:4931   */\n      dup3\n        /* \"#utility.yul\":4862:4928   */\n      0x8000000000000000000000000000000000000000000000000000000000000000\n        /* \"#utility.yul\":4857:4932   */\n      sdiv\n        /* \"#utility.yul\":4854:4855   */\n      dup3\n        /* \"#utility.yul\":4850:4933   */\n      slt\n        /* \"#utility.yul\":4845:4846   */\n      0x00\n        /* \"#utility.yul\":4842:4843   */\n      dup5\n        /* \"#utility.yul\":4838:4847   */\n      sgt\n        /* \"#utility.yul\":4834:4835   */\n      0x00\n        /* \"#utility.yul\":4831:4832   */\n      dup5\n        /* \"#utility.yul\":4827:4836   */\n      slt\n        /* \"#utility.yul\":4823:4848   */\n      and\n        /* \"#utility.yul\":4819:4934   */\n      and\n        /* \"#utility.yul\":4816:4957   */\n      iszero\n      tag_134\n      jumpi\n        /* \"#utility.yul\":4937:4955   */\n      tag_135\n      tag_131\n      jump\t// in\n    tag_135:\n        /* \"#utility.yul\":4816:4957   */\n    tag_134:\n        /* \"#utility.yul\":5140:5141   */\n      dup3\n        /* \"#utility.yul\":5072:5138   */\n      0x7fffffffffffffffffffffffffffffffffffffffffffffffffffffffffffffff\n        /* \"#utility.yul\":5067:5142   */\n      sdiv\n        /* \"#utility.yul\":5064:5065   */\n      dup3\n        /* \"#utility.yul\":5060:5143   */\n      slt\n        /* \"#utility.yul\":5055:5056   */\n      0x00\n        /* \"#utility.yul\":5052:5053   */\n      dup5\n        /* \"#utility.yul\":5048:5057   */\n      slt\n        /* \"#utility.yul\":5044:5045   */\n      0x00\n        /* \"#utility.yul\":5041:5042   */\n      dup5\n        /* \"#utility.yul\":5037:5046   */\n      slt\n        /* \"#utility.yul\":5033:5058   */\n      and\n        /* \"#utility.yul\":5029:5144   */\n      and\n        /* \"#utility.yul\":5026:5167   */\n      iszero\n      tag_136\n      jumpi\n        /* \"#utility.yul\":5147:5165   */\n      tag_137\n      tag_131\n      jump\t// in\n    tag_137:\n        /* \"#utility.yul\":5026:5167   */\n    tag_136:\n        /* \"#utility.yul\":5195:5196   */\n      dup3\n        /* \"#utility.yul\":5192:5193   */\n      dup3\n        /* \"#utility.yul\":5188:5197   */\n      mul\n        /* \"#utility.yul\":5177:5197   */\n      swap1\n      pop\n        /* \"#utility.yul\":4212:5203   */\n      swap3\n      swap2\n      pop\n      pop\n      jump\t// out\n        /* \"#utility.yul\":5209:5557   */\n    tag_44:\n        /* \"#utility.yul\":5249:5256   */\n      0x00\n        /* \"#utility.yul\":5272:5292   */\n      tag_139\n        /* \"#utility.yul\":5290:5291   */\n      dup3\n        /* \"#utility.yul\":5272:5292   */\n      tag_109\n      jump\t// in\n    tag_139:\n        /* \"#utility.yul\":5267:5292   */\n      swap2\n      pop\n        /* \"#utility.yul\":5306:5326   */\n      tag_140\n        /* \"#utility.yul\":5324:5325   */\n      dup4\n        /* \"#utility.yul\":5306:5326   */\n      tag_109\n      jump\t// in\n    tag_140:\n        /* \"#utility.yul\":5301:5326   */\n      swap3\n      pop\n        /* \"#utility.yul\":5494:5495   */\n      dup2\n        /* \"#utility.yul\":5426:5492   */\n      0xffffffffffffffffffffffffffffffffffffffffffffffffffffffffffffffff\n        /* \"#utility.yul\":5422:5496   */\n      div\n        /* \"#utility.yul\":5419:5420   */\n      dup4\n        /* \"#utility.yul\":5416:5497   */\n      gt\n        /* \"#utility.yul\":5411:5412   */\n      dup3\n        /* \"#utility.yul\":5404:5413   */\n      iszero\n        /* \"#utility.yul\":5397:5414   */\n      iszero\n        /* \"#utility.yul\":5393:5498   */\n      and\n        /* \"#utility.yul\":5390:5521   */\n      iszero\n      tag_141\n      jumpi\n        /* \"#utility.yul\":5501:5519   */\n      tag_142\n      tag_131\n      jump\t// in\n    tag_142:\n        /* \"#utility.yul\":5390:5521   */\n    tag_141:\n        /* \"#utility.yul\":5549:5550   */\n      dup3\n        /* \"#utility.yul\":5546:5547   */\n      dup3\n        /* \"#utility.yul\":5542:5551   */\n      mul\n        /* \"#utility.yul\":5531:5551   */\n      swap1\n      pop\n        /* \"#utility.yul\":5209:5557   */\n      swap3\n      swap2\n      pop\n      pop\n      jump\t// out\n        /* \"#utility.yul\":5563:5659   */\n    tag_99:\n        /* \"#utility.yul\":5600:5607   */\n      0x00\n        /* \"#utility.yul\":5629:5653   */\n      tag_144\n        /* \"#utility.yul\":5647:5652   */\n      dup3\n        /* \"#utility.yul\":5629:5653   */\n      tag_145\n      jump\t// in\n    tag_144:\n        /* \"#utility.yul\":5618:5653   */\n      swap1\n      pop\n        /* \"#utility.yul\":5563:5659   */\n      swap2\n      swap1\n      pop\n      jump\t// out\n        /* \"#utility.yul\":5665:5741   */\n    tag_127:\n        /* \"#utility.yul\":5701:5708   */\n      0x00\n        /* \"#utility.yul\":5730:5735   */\n      dup2\n        /* \"#utility.yul\":5719:5735   */\n      swap1\n      pop\n        /* \"#utility.yul\":5665:5741   */\n      swap2\n      swap1\n      pop\n      jump\t// out\n        /* \"#utility.yul\":5747:5873   */\n    tag_145:\n        /* \"#utility.yul\":5784:5791   */\n      0x00\n        /* \"#utility.yul\":5824:5866   */\n      0xffffffffffffffffffffffffffffffffffffffff\n        /* \"#utility.yul\":5817:5822   */\n      dup3\n        /* \"#utility.yul\":5813:5867   */\n      and\n        /* \"#utility.yul\":5802:5867   */\n      swap1\n      pop\n        /* \"#utility.yul\":5747:5873   */\n      swap2\n      swap1\n      pop\n      jump\t// out\n        /* \"#utility.yul\":5879:5956   */\n    tag_109:\n        /* \"#utility.yul\":5916:5923   */\n      0x00\n        /* \"#utility.yul\":5945:5950   */\n      dup2\n        /* \"#utility.yul\":5934:5950   */\n      swap1\n      pop\n        /* \"#utility.yul\":5879:5956   */\n      swap2\n      swap1\n      pop\n      jump\t// out\n        /* \"#utility.yul\":5962:6067   */\n    tag_149:\n        /* \"#utility.yul\":5998:6005   */\n      0x00\n        /* \"#utility.yul\":6038:6060   */\n      0xffffffffffffffffffff\n        /* \"#utility.yul\":6031:6036   */\n      dup3\n        /* \"#utility.yul\":6027:6061   */\n      and\n        /* \"#utility.yul\":6016:6061   */\n      swap1\n      pop\n        /* \"#utility.yul\":5962:6067   */\n      swap2\n      swap1\n      pop\n      jump\t// out\n        /* \"#utility.yul\":6073:6253   */\n    tag_131:\n        /* \"#utility.yul\":6121:6198   */\n      0x4e487b7100000000000000000000000000000000000000000000000000000000\n        /* \"#utility.yul\":6118:6119   */\n      0x00\n        /* \"#utility.yul\":6111:6199   */\n      mstore\n        /* \"#utility.yul\":6218:6222   */\n      0x11\n        /* \"#utility.yul\":6215:6216   */\n      0x04\n        /* \"#utility.yul\":6208:6223   */\n      mstore\n        /* \"#utility.yul\":6242:6246   */\n      0x24\n        /* \"#utility.yul\":6239:6240   */\n      0x00\n        /* \"#utility.yul\":6232:6247   */\n      revert\n        /* \"#utility.yul\":6259:6439   */\n    tag_124:\n        /* \"#utility.yul\":6307:6384   */\n      0x4e487b7100000000000000000000000000000000000000000000000000000000\n        /* \"#utility.yul\":6304:6305   */\n      0x00\n        /* \"#utility.yul\":6297:6385   */\n      mstore\n        /* \"#utility.yul\":6404:6408   */\n      0x12\n        /* \"#utility.yul\":6401:6402   */\n      0x04\n        /* \"#utility.yul\":6394:6409   */\n      mstore\n        /* \"#utility.yul\":6428:6432   */\n      0x24\n        /* \"#utility.yul\":6425:6426   */\n      0x00\n        /* \"#utility.yul\":6418:6433   */\n      revert\n        /* \"#utility.yul\":6568:6685   */\n    tag_82:\n        /* \"#utility.yul\":6677:6678   */\n      0x00\n        /* \"#utility.yul\":6674:6675   */\n      dup1\n        /* \"#utility.yul\":6667:6679   */\n      revert\n        /* \"#utility.yul\":6691:6851   */\n    tag_105:\n        /* \"#utility.yul\":6831:6843   */\n      0x4e6f7420656e6f75676800000000000000000000000000000000000000000000\n        /* \"#utility.yul\":6827:6828   */\n      0x00\n        /* \"#utility.yul\":6819:6825   */\n      dup3\n        /* \"#utility.yul\":6815:6829   */\n      add\n        /* \"#utility.yul\":6808:6844   */\n      mstore\n        /* \"#utility.yul\":6691:6851   */\n      pop\n      jump\t// out\n        /* \"#utility.yul\":6857:6977   */\n    tag_67:\n        /* \"#utility.yul\":6929:6952   */\n      tag_158\n        /* \"#utility.yul\":6946:6951   */\n      dup2\n        /* \"#utility.yul\":6929:6952   */\n      tag_127\n      jump\t// in\n    tag_158:\n        /* \"#utility.yul\":6922:6927   */\n      dup2\n        /* \"#utility.yul\":6919:6953   */\n      eq\n        /* \"#utility.yul\":6909:6971   */\n      tag_159\n      jumpi\n        /* \"#utility.yul\":6967:6968   */\n      0x00\n        /* \"#utility.yul\":6964:6965   */\n      dup1\n        /* \"#utility.yul\":6957:6969   */\n      revert\n        /* \"#utility.yul\":6909:6971   */\n    tag_159:\n        /* \"#utility.yul\":6857:6977   */\n      pop\n      jump\t// out\n        /* \"#utility.yul\":6983:7105   */\n    tag_71:\n        /* \"#utility.yul\":7056:7080   */\n      tag_161\n        /* \"#utility.yul\":7074:7079   */\n      dup2\n        /* \"#utility.yul\":7056:7080   */\n      tag_109\n      jump\t// in\n    tag_161:\n        /* \"#utility.yul\":7049:7054   */\n      dup2\n        /* \"#utility.yul\":7046:7081   */\n      eq\n        /* \"#utility.yul\":7036:7099   */\n      tag_162\n      jumpi\n        /* \"#utility.yul\":7095:7096   */\n      0x00\n        /* \"#utility.yul\":7092:7093   */\n      dup1\n        /* \"#utility.yul\":7085:7097   */\n      revert\n        /* \"#utility.yul\":7036:7099   */\n    tag_162:\n        /* \"#utility.yul\":6983:7105   */\n      pop\n      jump\t// out\n        /* \"#utility.yul\":7111:7231   */\n    tag_78:\n        /* \"#utility.yul\":7183:7206   */\n      tag_164\n        /* \"#utility.yul\":7200:7205   */\n      dup2\n        /* \"#utility.yul\":7183:7206   */\n      tag_149\n      jump\t// in\n    tag_164:\n        /* \"#utility.yul\":7176:7181   */\n      dup2\n        /* \"#utility.yul\":7173:7207   */\n      eq\n        /* \"#utility.yul\":7163:7225   */\n      tag_165\n      jumpi\n        /* \"#utility.yul\":7221:7222   */\n      0x00\n        /* \"#utility.yul\":7218:7219   */\n      dup1\n        /* \"#utility.yul\":7211:7223   */\n      revert\n        /* \"#utility.yul\":7163:7225   */\n    tag_165:\n        /* \"#utility.yul\":7111:7231   */\n      pop\n      jump\t// out\n\n    auxdata: 0xa264697066735822122094bd0895edba601b6bcb14b105963ca6f21e1a1e01241d2000ee34329c24698d64736f6c63430008070033\n}\n",
				"bytecode": {
					"linkReferences": {},
					"object": "60806040526802b5e3af16b188000060005534801561001d57600080fd5b506108bc8061002d6000396000f3fe6080604052600436106100555760003560e01c80630d8e6e2c1461005a5780634c03815c1461008557806375263f22146100c257806398d5fdca146100ed578063b60d428814610118578063dc0d3dff14610122575b600080fd5b34801561006657600080fd5b5061006f61015f565b60405161007c919061058b565b60405180910390f35b34801561009157600080fd5b506100ac60048036038101906100a7919061043a565b6101fd565b6040516100b9919061058b565b60405180910390f35b3480156100ce57600080fd5b506100d7610237565b6040516100e4919061058b565b60405180910390f35b3480156100f957600080fd5b5061010261023d565b60405161010f919061058b565b60405180910390f35b6101206102f5565b005b34801561012e57600080fd5b506101496004803603810190610144919061043a565b6103a7565b6040516101569190610550565b60405180910390f35b60008073d4a33860578de61dbabdc8bfdb98fd742fa7028e90508073ffffffffffffffffffffffffffffffffffffffff166354fd4d506040518163ffffffff1660e01b815260040160206040518083038186803b1580156101bf57600080fd5b505afa1580156101d3573d6000803e3d6000fd5b505050506040513d601f19601f820116820180604052508101906101f79190610467565b91505090565b60008061020861023d565b90506000670de0b6b3a7640000848361022191906106ff565b61022b91906105b7565b90508092505050919050565b60005481565b60008073d4a33860578de61dbabdc8bfdb98fd742fa7028e905060008173ffffffffffffffffffffffffffffffffffffffff1663feaf968c6040518163ffffffff1660e01b815260040160a06040518083038186803b15801561029f57600080fd5b505afa1580156102b3573d6000803e3d6000fd5b505050506040513d601f19601f820116820180604052508101906102d79190610494565b5050509150506402540be400816102ee91906105e8565b9250505090565b600054610301346101fd565b1015610342576040517f08c379a00000000000000000000000000000000000000000000000000000000081526004016103399061056b565b60405180910390fd5b6001339080600181540180825580915050600190039060005260206000200160009091909190916101000a81548173ffffffffffffffffffffffffffffffffffffffff021916908373ffffffffffffffffffffffffffffffffffffffff160217905550565b600181815481106103b757600080fd5b906000526020600020016000915054906101000a900473ffffffffffffffffffffffffffffffffffffffff1681565b6000815190506103f581610841565b92915050565b60008135905061040a81610858565b92915050565b60008151905061041f81610858565b92915050565b6000815190506104348161086f565b92915050565b6000602082840312156104505761044f610813565b5b600061045e848285016103fb565b91505092915050565b60006020828403121561047d5761047c610813565b5b600061048b84828501610410565b91505092915050565b600080600080600060a086880312156104b0576104af610813565b5b60006104be88828901610425565b95505060206104cf888289016103e6565b94505060406104e088828901610410565b93505060606104f188828901610410565b925050608061050288828901610425565b9150509295509295909350565b61051881610759565b82525050565b600061052b600a836105a6565b915061053682610818565b602082019050919050565b61054a81610795565b82525050565b6000602082019050610565600083018461050f565b92915050565b600060208201905081810360008301526105848161051e565b9050919050565b60006020820190506105a06000830184610541565b92915050565b600082825260208201905092915050565b60006105c282610795565b91506105cd83610795565b9250826105dd576105dc6107e4565b5b828204905092915050565b60006105f38261076b565b91506105fe8361076b565b9250827f7fffffffffffffffffffffffffffffffffffffffffffffffffffffffffffffff048211600084136000841316161561063d5761063c6107b5565b5b817f8000000000000000000000000000000000000000000000000000000000000000058312600084126000841316161561067a576106796107b5565b5b827f800000000000000000000000000000000000000000000000000000000000000005821260008413600084121616156106b7576106b66107b5565b5b827f7fffffffffffffffffffffffffffffffffffffffffffffffffffffffffffffff05821260008412600084121616156106f4576106f36107b5565b5b828202905092915050565b600061070a82610795565b915061071583610795565b9250817fffffffffffffffffffffffffffffffffffffffffffffffffffffffffffffffff048311821515161561074e5761074d6107b5565b5b828202905092915050565b600061076482610775565b9050919050565b6000819050919050565b600073ffffffffffffffffffffffffffffffffffffffff82169050919050565b6000819050919050565b600069ffffffffffffffffffff82169050919050565b7f4e487b7100000000000000000000000000000000000000000000000000000000600052601160045260246000fd5b7f4e487b7100000000000000000000000000000000000000000000000000000000600052601260045260246000fd5b600080fd5b7f4e6f7420656e6f75676800000000000000000000000000000000000000000000600082015250565b61084a8161076b565b811461085557600080fd5b50565b61086181610795565b811461086c57600080fd5b50565b6108788161079f565b811461088357600080fd5b5056fea264697066735822122094bd0895edba601b6bcb14b105963ca6f21e1a1e01241d2000ee34329c24698d64736f6c63430008070033",
					"opcodes": "PUSH1 0x80 PUSH1 0x40 MSTORE PUSH9 0x2B5E3AF16B1880000 PUSH1 0x0 SSTORE CALLVALUE DUP1 ISZERO PUSH2 0x1D JUMPI PUSH1 0x0 DUP1 REVERT JUMPDEST POP PUSH2 0x8BC DUP1 PUSH2 0x2D PUSH1 0x0 CODECOPY PUSH1 0x0 RETURN INVALID PUSH1 0x80 PUSH1 0x40 MSTORE PUSH1 0x4 CALLDATASIZE LT PUSH2 0x55 JUMPI PUSH1 0x0 CALLDATALOAD PUSH1 0xE0 SHR DUP1 PUSH4 0xD8E6E2C EQ PUSH2 0x5A JUMPI DUP1 PUSH4 0x4C03815C EQ PUSH2 0x85 JUMPI DUP1 PUSH4 0x75263F22 EQ PUSH2 0xC2 JUMPI DUP1 PUSH4 0x98D5FDCA EQ PUSH2 0xED JUMPI DUP1 PUSH4 0xB60D4288 EQ PUSH2 0x118 JUMPI DUP1 PUSH4 0xDC0D3DFF EQ PUSH2 0x122 JUMPI JUMPDEST PUSH1 0x0 DUP1 REVERT JUMPDEST CALLVALUE DUP1 ISZERO PUSH2 0x66 JUMPI PUSH1 0x0 DUP1 REVERT JUMPDEST POP PUSH2 0x6F PUSH2 0x15F JUMP JUMPDEST PUSH1 0x40 MLOAD PUSH2 0x7C SWAP2 SWAP1 PUSH2 0x58B JUMP JUMPDEST PUSH1 0x40 MLOAD DUP1 SWAP2 SUB SWAP1 RETURN JUMPDEST CALLVALUE DUP1 ISZERO PUSH2 0x91 JUMPI PUSH1 0x0 DUP1 REVERT JUMPDEST POP PUSH2 0xAC PUSH1 0x4 DUP1 CALLDATASIZE SUB DUP2 ADD SWAP1 PUSH2 0xA7 SWAP2 SWAP1 PUSH2 0x43A JUMP JUMPDEST PUSH2 0x1FD JUMP JUMPDEST PUSH1 0x40 MLOAD PUSH2 0xB9 SWAP2 SWAP1 PUSH2 0x58B JUMP JUMPDEST PUSH1 0x40 MLOAD DUP1 SWAP2 SUB SWAP1 RETURN JUMPDEST CALLVALUE DUP1 ISZERO PUSH2 0xCE JUMPI PUSH1 0x0 DUP1 REVERT JUMPDEST POP PUSH2 0xD7 PUSH2 0x237 JUMP JUMPDEST PUSH1 0x40 MLOAD PUSH2 0xE4 SWAP2 SWAP1 PUSH2 0x58B JUMP JUMPDEST PUSH1 0x40 MLOAD DUP1 SWAP2 SUB SWAP1 RETURN JUMPDEST CALLVALUE DUP1 ISZERO PUSH2 0xF9 JUMPI PUSH1 0x0 DUP1 REVERT JUMPDEST POP PUSH2 0x102 PUSH2 0x23D JUMP JUMPDEST PUSH1 0x40 MLOAD PUSH2 0x10F SWAP2 SWAP1 PUSH2 0x58B JUMP JUMPDEST PUSH1 0x40 MLOAD DUP1 SWAP2 SUB SWAP1 RETURN JUMPDEST PUSH2 0x120 PUSH2 0x2F5 JUMP JUMPDEST STOP JUMPDEST CALLVALUE DUP1 ISZERO PUSH2 0x12E JUMPI PUSH1 0x0 DUP1 REVERT JUMPDEST POP PUSH2 0x149 PUSH1 0x4 DUP1 CALLDATASIZE SUB DUP2 ADD SWAP1 PUSH2 0x144 SWAP2 SWAP1 PUSH2 0x43A JUMP JUMPDEST PUSH2 0x3A7 JUMP JUMPDEST PUSH1 0x40 MLOAD PUSH2 0x156 SWAP2 SWAP1 PUSH2 0x550 JUMP JUMPDEST PUSH1 0x40 MLOAD DUP1 SWAP2 SUB SWAP1 RETURN JUMPDEST PUSH1 0x0 DUP1 PUSH20 0xD4A33860578DE61DBABDC8BFDB98FD742FA7028E SWAP1 POP DUP1 PUSH20 0xFFFFFFFFFFFFFFFFFFFFFFFFFFFFFFFFFFFFFFFF AND PUSH4 0x54FD4D50 PUSH1 0x40 MLOAD DUP2 PUSH4 0xFFFFFFFF AND PUSH1 0xE0 SHL DUP2 MSTORE PUSH1 0x4 ADD PUSH1 0x20 PUSH1 0x40 MLOAD DUP1 DUP4 SUB DUP2 DUP7 DUP1 EXTCODESIZE ISZERO DUP1 ISZERO PUSH2 0x1BF JUMPI PUSH1 0x0 DUP1 REVERT JUMPDEST POP GAS STATICCALL ISZERO DUP1 ISZERO PUSH2 0x1D3 JUMPI RETURNDATASIZE PUSH1 0x0 DUP1 RETURNDATACOPY RETURNDATASIZE PUSH1 0x0 REVERT JUMPDEST POP POP POP POP PUSH1 0x40 MLOAD RETURNDATASIZE PUSH1 0x1F NOT PUSH1 0x1F DUP3 ADD AND DUP3 ADD DUP1 PUSH1 0x40 MSTORE POP DUP2 ADD SWAP1 PUSH2 0x1F7 SWAP2 SWAP1 PUSH2 0x467 JUMP JUMPDEST SWAP2 POP POP SWAP1 JUMP JUMPDEST PUSH1 0x0 DUP1 PUSH2 0x208 PUSH2 0x23D JUMP JUMPDEST SWAP1 POP PUSH1 0x0 PUSH8 0xDE0B6B3A7640000 DUP5 DUP4 PUSH2 0x221 SWAP2 SWAP1 PUSH2 0x6FF JUMP JUMPDEST PUSH2 0x22B SWAP2 SWAP1 PUSH2 0x5B7 JUMP JUMPDEST SWAP1 POP DUP1 SWAP3 POP POP POP SWAP2 SWAP1 POP JUMP JUMPDEST PUSH1 0x0 SLOAD DUP2 JUMP JUMPDEST PUSH1 0x0 DUP1 PUSH20 0xD4A33860578DE61DBABDC8BFDB98FD742FA7028E SWAP1 POP PUSH1 0x0 DUP2 PUSH20 0xFFFFFFFFFFFFFFFFFFFFFFFFFFFFFFFFFFFFFFFF AND PUSH4 0xFEAF968C PUSH1 0x40 MLOAD DUP2 PUSH4 0xFFFFFFFF AND PUSH1 0xE0 SHL DUP2 MSTORE PUSH1 0x4 ADD PUSH1 0xA0 PUSH1 0x40 MLOAD DUP1 DUP4 SUB DUP2 DUP7 DUP1 EXTCODESIZE ISZERO DUP1 ISZERO PUSH2 0x29F JUMPI PUSH1 0x0 DUP1 REVERT JUMPDEST POP GAS STATICCALL ISZERO DUP1 ISZERO PUSH2 0x2B3 JUMPI RETURNDATASIZE PUSH1 0x0 DUP1 RETURNDATACOPY RETURNDATASIZE PUSH1 0x0 REVERT JUMPDEST POP POP POP POP PUSH1 0x40 MLOAD RETURNDATASIZE PUSH1 0x1F NOT PUSH1 0x1F DUP3 ADD AND DUP3 ADD DUP1 PUSH1 0x40 MSTORE POP DUP2 ADD SWAP1 PUSH2 0x2D7 SWAP2 SWAP1 PUSH2 0x494 JUMP JUMPDEST POP POP POP SWAP2 POP POP PUSH5 0x2540BE400 DUP2 PUSH2 0x2EE SWAP2 SWAP1 PUSH2 0x5E8 JUMP JUMPDEST SWAP3 POP POP POP SWAP1 JUMP JUMPDEST PUSH1 0x0 SLOAD PUSH2 0x301 CALLVALUE PUSH2 0x1FD JUMP JUMPDEST LT ISZERO PUSH2 0x342 JUMPI PUSH1 0x40 MLOAD PUSH32 0x8C379A000000000000000000000000000000000000000000000000000000000 DUP2 MSTORE PUSH1 0x4 ADD PUSH2 0x339 SWAP1 PUSH2 0x56B JUMP JUMPDEST PUSH1 0x40 MLOAD DUP1 SWAP2 SUB SWAP1 REVERT JUMPDEST PUSH1 0x1 CALLER SWAP1 DUP1 PUSH1 0x1 DUP2 SLOAD ADD DUP1 DUP3 SSTORE DUP1 SWAP2 POP POP PUSH1 0x1 SWAP1 SUB SWAP1 PUSH1 0x0 MSTORE PUSH1 0x20 PUSH1 0x0 KECCAK256 ADD PUSH1 0x0 SWAP1 SWAP2 SWAP1 SWAP2 SWAP1 SWAP2 PUSH2 0x100 EXP DUP2 SLOAD DUP2 PUSH20 0xFFFFFFFFFFFFFFFFFFFFFFFFFFFFFFFFFFFFFFFF MUL NOT AND SWAP1 DUP4 PUSH20 0xFFFFFFFFFFFFFFFFFFFFFFFFFFFFFFFFFFFFFFFF AND MUL OR SWAP1 SSTORE POP JUMP JUMPDEST PUSH1 0x1 DUP2 DUP2 SLOAD DUP2 LT PUSH2 0x3B7 JUMPI PUSH1 0x0 DUP1 REVERT JUMPDEST SWAP1 PUSH1 0x0 MSTORE PUSH1 0x20 PUSH1 0x0 KECCAK256 ADD PUSH1 0x0 SWAP2 POP SLOAD SWAP1 PUSH2 0x100 EXP SWAP1 DIV PUSH20 0xFFFFFFFFFFFFFFFFFFFFFFFFFFFFFFFFFFFFFFFF AND DUP2 JUMP JUMPDEST PUSH1 0x0 DUP2 MLOAD SWAP1 POP PUSH2 0x3F5 DUP2 PUSH2 0x841 JUMP JUMPDEST SWAP3 SWAP2 POP POP JUMP JUMPDEST PUSH1 0x0 DUP2 CALLDATALOAD SWAP1 POP PUSH2 0x40A DUP2 PUSH2 0x858 JUMP JUMPDEST SWAP3 SWAP2 POP POP JUMP JUMPDEST PUSH1 0x0 DUP2 MLOAD SWAP1 POP PUSH2 0x41F DUP2 PUSH2 0x858 JUMP JUMPDEST SWAP3 SWAP2 POP POP JUMP JUMPDEST PUSH1 0x0 DUP2 MLOAD SWAP1 POP PUSH2 0x434 DUP2 PUSH2 0x86F JUMP JUMPDEST SWAP3 SWAP2 POP POP JUMP JUMPDEST PUSH1 0x0 PUSH1 0x20 DUP3 DUP5 SUB SLT ISZERO PUSH2 0x450 JUMPI PUSH2 0x44F PUSH2 0x813 JUMP JUMPDEST JUMPDEST PUSH1 0x0 PUSH2 0x45E DUP5 DUP3 DUP6 ADD PUSH2 0x3FB JUMP JUMPDEST SWAP2 POP POP SWAP3 SWAP2 POP POP JUMP JUMPDEST PUSH1 0x0 PUSH1 0x20 DUP3 DUP5 SUB SLT ISZERO PUSH2 0x47D JUMPI PUSH2 0x47C PUSH2 0x813 JUMP JUMPDEST JUMPDEST PUSH1 0x0 PUSH2 0x48B DUP5 DUP3 DUP6 ADD PUSH2 0x410 JUMP JUMPDEST SWAP2 POP POP SWAP3 SWAP2 POP POP JUMP JUMPDEST PUSH1 0x0 DUP1 PUSH1 0x0 DUP1 PUSH1 0x0 PUSH1 0xA0 DUP7 DUP9 SUB SLT ISZERO PUSH2 0x4B0 JUMPI PUSH2 0x4AF PUSH2 0x813 JUMP JUMPDEST JUMPDEST PUSH1 0x0 PUSH2 0x4BE DUP9 DUP3 DUP10 ADD PUSH2 0x425 JUMP JUMPDEST SWAP6 POP POP PUSH1 0x20 PUSH2 0x4CF DUP9 DUP3 DUP10 ADD PUSH2 0x3E6 JUMP JUMPDEST SWAP5 POP POP PUSH1 0x40 PUSH2 0x4E0 DUP9 DUP3 DUP10 ADD PUSH2 0x410 JUMP JUMPDEST SWAP4 POP POP PUSH1 0x60 PUSH2 0x4F1 DUP9 DUP3 DUP10 ADD PUSH2 0x410 JUMP JUMPDEST SWAP3 POP POP PUSH1 0x80 PUSH2 0x502 DUP9 DUP3 DUP10 ADD PUSH2 0x425 JUMP JUMPDEST SWAP2 POP POP SWAP3 SWAP6 POP SWAP3 SWAP6 SWAP1 SWAP4 POP JUMP JUMPDEST PUSH2 0x518 DUP2 PUSH2 0x759 JUMP JUMPDEST DUP3 MSTORE POP POP JUMP JUMPDEST PUSH1 0x0 PUSH2 0x52B PUSH1 0xA DUP4 PUSH2 0x5A6 JUMP JUMPDEST SWAP2 POP PUSH2 0x536 DUP3 PUSH2 0x818 JUMP JUMPDEST PUSH1 0x20 DUP3 ADD SWAP1 POP SWAP2 SWAP1 POP JUMP JUMPDEST PUSH2 0x54A DUP2 PUSH2 0x795 JUMP JUMPDEST DUP3 MSTORE POP POP JUMP JUMPDEST PUSH1 0x0 PUSH1 0x20 DUP3 ADD SWAP1 POP PUSH2 0x565 PUSH1 0x0 DUP4 ADD DUP5 PUSH2 0x50F JUMP JUMPDEST SWAP3 SWAP2 POP POP JUMP JUMPDEST PUSH1 0x0 PUSH1 0x20 DUP3 ADD SWAP1 POP DUP2 DUP2 SUB PUSH1 0x0 DUP4 ADD MSTORE PUSH2 0x584 DUP2 PUSH2 0x51E JUMP JUMPDEST SWAP1 POP SWAP2 SWAP1 POP JUMP JUMPDEST PUSH1 0x0 PUSH1 0x20 DUP3 ADD SWAP1 POP PUSH2 0x5A0 PUSH1 0x0 DUP4 ADD DUP5 PUSH2 0x541 JUMP JUMPDEST SWAP3 SWAP2 POP POP JUMP JUMPDEST PUSH1 0x0 DUP3 DUP3 MSTORE PUSH1 0x20 DUP3 ADD SWAP1 POP SWAP3 SWAP2 POP POP JUMP JUMPDEST PUSH1 0x0 PUSH2 0x5C2 DUP3 PUSH2 0x795 JUMP JUMPDEST SWAP2 POP PUSH2 0x5CD DUP4 PUSH2 0x795 JUMP JUMPDEST SWAP3 POP DUP3 PUSH2 0x5DD JUMPI PUSH2 0x5DC PUSH2 0x7E4 JUMP JUMPDEST JUMPDEST DUP3 DUP3 DIV SWAP1 POP SWAP3 SWAP2 POP POP JUMP JUMPDEST PUSH1 0x0 PUSH2 0x5F3 DUP3 PUSH2 0x76B JUMP JUMPDEST SWAP2 POP PUSH2 0x5FE DUP4 PUSH2 0x76B JUMP JUMPDEST SWAP3 POP DUP3 PUSH32 0x7FFFFFFFFFFFFFFFFFFFFFFFFFFFFFFFFFFFFFFFFFFFFFFFFFFFFFFFFFFFFFFF DIV DUP3 GT PUSH1 0x0 DUP5 SGT PUSH1 0x0 DUP5 SGT AND AND ISZERO PUSH2 0x63D JUMPI PUSH2 0x63C PUSH2 0x7B5 JUMP JUMPDEST JUMPDEST DUP2 PUSH32 0x8000000000000000000000000000000000000000000000000000000000000000 SDIV DUP4 SLT PUSH1 0x0 DUP5 SLT PUSH1 0x0 DUP5 SGT AND AND ISZERO PUSH2 0x67A JUMPI PUSH2 0x679 PUSH2 0x7B5 JUMP JUMPDEST JUMPDEST DUP3 PUSH32 0x8000000000000000000000000000000000000000000000000000000000000000 SDIV DUP3 SLT PUSH1 0x0 DUP5 SGT PUSH1 0x0 DUP5 SLT AND AND ISZERO PUSH2 0x6B7 JUMPI PUSH2 0x6B6 PUSH2 0x7B5 JUMP JUMPDEST JUMPDEST DUP3 PUSH32 0x7FFFFFFFFFFFFFFFFFFFFFFFFFFFFFFFFFFFFFFFFFFFFFFFFFFFFFFFFFFFFFFF SDIV DUP3 SLT PUSH1 0x0 DUP5 SLT PUSH1 0x0 DUP5 SLT AND AND ISZERO PUSH2 0x6F4 JUMPI PUSH2 0x6F3 PUSH2 0x7B5 JUMP JUMPDEST JUMPDEST DUP3 DUP3 MUL SWAP1 POP SWAP3 SWAP2 POP POP JUMP JUMPDEST PUSH1 0x0 PUSH2 0x70A DUP3 PUSH2 0x795 JUMP JUMPDEST SWAP2 POP PUSH2 0x715 DUP4 PUSH2 0x795 JUMP JUMPDEST SWAP3 POP DUP2 PUSH32 0xFFFFFFFFFFFFFFFFFFFFFFFFFFFFFFFFFFFFFFFFFFFFFFFFFFFFFFFFFFFFFFFF DIV DUP4 GT DUP3 ISZERO ISZERO AND ISZERO PUSH2 0x74E JUMPI PUSH2 0x74D PUSH2 0x7B5 JUMP JUMPDEST JUMPDEST DUP3 DUP3 MUL SWAP1 POP SWAP3 SWAP2 POP POP JUMP JUMPDEST PUSH1 0x0 PUSH2 0x764 DUP3 PUSH2 0x775 JUMP JUMPDEST SWAP1 POP SWAP2 SWAP1 POP JUMP JUMPDEST PUSH1 0x0 DUP2 SWAP1 POP SWAP2 SWAP1 POP JUMP JUMPDEST PUSH1 0x0 PUSH20 0xFFFFFFFFFFFFFFFFFFFFFFFFFFFFFFFFFFFFFFFF DUP3 AND SWAP1 POP SWAP2 SWAP1 POP JUMP JUMPDEST PUSH1 0x0 DUP2 SWAP1 POP SWAP2 SWAP1 POP JUMP JUMPDEST PUSH1 0x0 PUSH10 0xFFFFFFFFFFFFFFFFFFFF DUP3 AND SWAP1 POP SWAP2 SWAP1 POP JUMP JUMPDEST PUSH32 0x4E487B7100000000000000000000000000000000000000000000000000000000 PUSH1 0x0 MSTORE PUSH1 0x11 PUSH1 0x4 MSTORE PUSH1 0x24 PUSH1 0x0 REVERT JUMPDEST PUSH32 0x4E487B7100000000000000000000000000000000000000000000000000000000 PUSH1 0x0 MSTORE PUSH1 0x12 PUSH1 0x4 MSTORE PUSH1 0x24 PUSH1 0x0 REVERT JUMPDEST PUSH1 0x0 DUP1 REVERT JUMPDEST PUSH32 0x4E6F7420656E6F75676800000000000000000000000000000000000000000000 PUSH1 0x0 DUP3 ADD MSTORE POP JUMP JUMPDEST PUSH2 0x84A DUP2 PUSH2 0x76B JUMP JUMPDEST DUP2 EQ PUSH2 0x855 JUMPI PUSH1 0x0 DUP1 REVERT JUMPDEST POP JUMP JUMPDEST PUSH2 0x861 DUP2 PUSH2 0x795 JUMP JUMPDEST DUP2 EQ PUSH2 0x86C JUMPI PUSH1 0x0 DUP1 REVERT JUMPDEST POP JUMP JUMPDEST PUSH2 0x878 DUP2 PUSH2 0x79F JUMP JUMPDEST DUP2 EQ PUSH2 0x883 JUMPI PUSH1 0x0 DUP1 REVERT JUMPDEST POP JUMP INVALID LOG2 PUSH5 0x6970667358 0x22 SLT KECCAK256 SWAP5 0xBD ADDMOD SWAP6 0xED 0xBA PUSH1 0x1B PUSH12 0xCB14B105963CA6F21E1A1E01 0x24 SAR KECCAK256 STOP 0xEE CALLVALUE ORIGIN SWAP13 0x24 PUSH10 0x8D64736F6C6343000807 STOP CALLER "
				},
				"gasEstimates": {
					"creation": {
						"codeDepositCost": "447200",
						"executionCost": "22586",
						"totalCost": "469786"
					},
					"external": {
						"fund()": "infinite",
						"funders(uint256)": "5044",
						"getConversationRate(uint256)": "infinite",
						"getPrice()": "infinite",
						"getVersion()": "infinite",
						"miminumUsd()": "2451"
					}
				},
				"methodIdentifiers": {
					"fund()": "b60d4288",
					"funders(uint256)": "dc0d3dff",
					"getConversationRate(uint256)": "4c03815c",
					"getPrice()": "98d5fdca",
					"getVersion()": "0d8e6e2c",
					"miminumUsd()": "75263f22"
				}
			},
			"storageLayout": {
				"storage": [
					{
						"astId": 53,
						"contract": "contracts/FundMe.sol:fundMe",
						"label": "miminumUsd",
						"offset": 0,
						"slot": "0",
						"type": "t_uint256"
					},
					{
						"astId": 56,
						"contract": "contracts/FundMe.sol:fundMe",
						"label": "funders",
						"offset": 0,
						"slot": "1",
						"type": "t_array(t_address)dyn_storage"
					}
				],
				"types": {
					"t_address": {
						"encoding": "inplace",
						"label": "address",
						"numberOfBytes": "20"
					},
					"t_array(t_address)dyn_storage": {
						"base": "t_address",
						"encoding": "dynamic_array",
						"label": "address[]",
						"numberOfBytes": "32"
					},
					"t_uint256": {
						"encoding": "inplace",
						"label": "uint256",
						"numberOfBytes": "32"
					}
				}
			},
			"userdoc": {
				"kind": "user",
				"methods": {},
				"version": 1
			}
		}
	}
}