{
	"contracts/SimpleStorage.sol": {
		"SimpleStorage": {
			"abi": [
				{
					"inputs": [
						{
							"internalType": "string",
							"name": "_name",
							"type": "string"
						},
						{
							"internalType": "uint256",
							"name": "_favouriteNumber",
							"type": "uint256"
						}
					],
					"name": "addPerson",
					"outputs": [],
					"stateMutability": "nonpayable",
					"type": "function"
				},
				{
					"inputs": [
						{
							"internalType": "uint256",
							"name": "",
							"type": "uint256"
						}
					],
					"name": "people",
					"outputs": [
						{
							"internalType": "uint256",
							"name": "favoriteNumber",
							"type": "uint256"
						},
						{
							"internalType": "string",
							"name": "name",
							"type": "string"
						}
					],
					"stateMutability": "view",
					"type": "function"
				},
				{
					"inputs": [],
					"name": "retrieve",
					"outputs": [
						{
							"internalType": "uint256",
							"name": "",
							"type": "uint256"
						}
					],
					"stateMutability": "view",
					"type": "function"
				},
				{
					"inputs": [
						{
							"internalType": "uint256",
							"name": "_favouriteNumber",
							"type": "uint256"
						}
					],
					"name": "store",
					"outputs": [],
					"stateMutability": "nonpayable",
					"type": "function"
				}
			],
			"devdoc": {
				"kind": "dev",
				"methods": {},
				"version": 1
			},
			"evm": {
				"assembly": "    /* \"contracts/SimpleStorage.sol\":124:1345  contract SimpleStorage {... */\n  mstore(0x40, 0x80)\n  callvalue\n  dup1\n  iszero\n  tag_1\n  jumpi\n  0x00\n  dup1\n  revert\ntag_1:\n  pop\n  dataSize(sub_0)\n  dup1\n  dataOffset(sub_0)\n  0x00\n  codecopy\n  0x00\n  return\nstop\n\nsub_0: assembly {\n        /* \"contracts/SimpleStorage.sol\":124:1345  contract SimpleStorage {... */\n      mstore(0x40, 0x80)\n      callvalue\n      dup1\n      iszero\n      tag_1\n      jumpi\n      0x00\n      dup1\n      revert\n    tag_1:\n      pop\n      jumpi(tag_2, lt(calldatasize, 0x04))\n      shr(0xe0, calldataload(0x00))\n      dup1\n      0x2e64cec1\n      eq\n      tag_3\n      jumpi\n      dup1\n      0x6057361d\n      eq\n      tag_4\n      jumpi\n      dup1\n      0x6f760f41\n      eq\n      tag_5\n      jumpi\n      dup1\n      0x9e7a13ad\n      eq\n      tag_6\n      jumpi\n    tag_2:\n      0x00\n      dup1\n      revert\n        /* \"contracts/SimpleStorage.sol\":840:931  function retrieve() public view returns(uint256){... */\n    tag_3:\n      tag_7\n      tag_8\n      jump\t// in\n    tag_7:\n      mload(0x40)\n      tag_9\n      swap2\n      swap1\n      tag_10\n      jump\t// in\n    tag_9:\n      mload(0x40)\n      dup1\n      swap2\n      sub\n      swap1\n      return\n        /* \"contracts/SimpleStorage.sol\":355:462  function store(uint256 _favouriteNumber) public {... */\n    tag_4:\n      tag_11\n      0x04\n      dup1\n      calldatasize\n      sub\n      dup2\n      add\n      swap1\n      tag_12\n      swap2\n      swap1\n      tag_13\n      jump\t// in\n    tag_12:\n      tag_14\n      jump\t// in\n    tag_11:\n      stop\n        /* \"contracts/SimpleStorage.sol\":1203:1340  function addPerson(string calldata _name, uint256 _favouriteNumber) public {... */\n    tag_5:\n      tag_15\n      0x04\n      dup1\n      calldatasize\n      sub\n      dup2\n      add\n      swap1\n      tag_16\n      swap2\n      swap1\n      tag_17\n      jump\t// in\n    tag_16:\n      tag_18\n      jump\t// in\n    tag_15:\n      stop\n        /* \"contracts/SimpleStorage.sol\":326:348  People[] public people */\n    tag_6:\n      tag_19\n      0x04\n      dup1\n      calldatasize\n      sub\n      dup2\n      add\n      swap1\n      tag_20\n      swap2\n      swap1\n      tag_13\n      jump\t// in\n    tag_20:\n      tag_21\n      jump\t// in\n    tag_19:\n      mload(0x40)\n      tag_22\n      swap3\n      swap2\n      swap1\n      tag_23\n      jump\t// in\n    tag_22:\n      mload(0x40)\n      dup1\n      swap2\n      sub\n      swap1\n      return\n        /* \"contracts/SimpleStorage.sol\":840:931  function retrieve() public view returns(uint256){... */\n    tag_8:\n        /* \"contracts/SimpleStorage.sol\":880:887  uint256 */\n      0x00\n        /* \"contracts/SimpleStorage.sol\":922:923  2 */\n      0x02\n        /* \"contracts/SimpleStorage.sol\":905:919  favoriteNumber */\n      sload(0x00)\n        /* \"contracts/SimpleStorage.sol\":905:923  favoriteNumber * 2 */\n      tag_25\n      swap2\n      swap1\n      tag_26\n      jump\t// in\n    tag_25:\n        /* \"contracts/SimpleStorage.sol\":898:923  return favoriteNumber * 2 */\n      swap1\n      pop\n        /* \"contracts/SimpleStorage.sol\":840:931  function retrieve() public view returns(uint256){... */\n      swap1\n      jump\t// out\n        /* \"contracts/SimpleStorage.sol\":355:462  function store(uint256 _favouriteNumber) public {... */\n    tag_14:\n        /* \"contracts/SimpleStorage.sol\":430:446  _favouriteNumber */\n      dup1\n        /* \"contracts/SimpleStorage.sol\":413:427  favoriteNumber */\n      0x00\n        /* \"contracts/SimpleStorage.sol\":413:446  favoriteNumber = _favouriteNumber */\n      dup2\n      swap1\n      sstore\n      pop\n        /* \"contracts/SimpleStorage.sol\":355:462  function store(uint256 _favouriteNumber) public {... */\n      pop\n      jump\t// out\n        /* \"contracts/SimpleStorage.sol\":1203:1340  function addPerson(string calldata _name, uint256 _favouriteNumber) public {... */\n    tag_18:\n        /* \"contracts/SimpleStorage.sol\":1288:1294  people */\n      0x01\n        /* \"contracts/SimpleStorage.sol\":1300:1332  People( _favouriteNumber, _name) */\n      mload(0x40)\n      dup1\n      0x40\n      add\n      0x40\n      mstore\n      dup1\n        /* \"contracts/SimpleStorage.sol\":1308:1324  _favouriteNumber */\n      dup4\n        /* \"contracts/SimpleStorage.sol\":1300:1332  People( _favouriteNumber, _name) */\n      dup2\n      mstore\n      0x20\n      add\n        /* \"contracts/SimpleStorage.sol\":1326:1331  _name */\n      dup6\n      dup6\n        /* \"contracts/SimpleStorage.sol\":1300:1332  People( _favouriteNumber, _name) */\n      dup1\n      dup1\n      0x1f\n      add\n      0x20\n      dup1\n      swap2\n      div\n      mul\n      0x20\n      add\n      mload(0x40)\n      swap1\n      dup2\n      add\n      0x40\n      mstore\n      dup1\n      swap4\n      swap3\n      swap2\n      swap1\n      dup2\n      dup2\n      mstore\n      0x20\n      add\n      dup4\n      dup4\n      dup1\n      dup3\n      dup5\n      calldatacopy\n      0x00\n      dup2\n      dup5\n      add\n      mstore\n      not(0x1f)\n      0x1f\n      dup3\n      add\n      and\n      swap1\n      pop\n      dup1\n      dup4\n      add\n      swap3\n      pop\n      pop\n      pop\n      pop\n      pop\n      pop\n      pop\n      dup2\n      mstore\n      pop\n        /* \"contracts/SimpleStorage.sol\":1288:1333  people.push(People( _favouriteNumber, _name)) */\n      swap1\n      dup1\n      0x01\n      dup2\n      sload\n      add\n      dup1\n      dup3\n      sstore\n      dup1\n      swap2\n      pop\n      pop\n      0x01\n      swap1\n      sub\n      swap1\n      0x00\n      mstore\n      keccak256(0x00, 0x20)\n      swap1\n      0x02\n      mul\n      add\n      0x00\n      swap1\n      swap2\n      swap1\n      swap2\n      swap1\n      swap2\n      pop\n      0x00\n      dup3\n      add\n      mload\n      dup2\n      0x00\n      add\n      sstore\n      0x20\n      dup3\n      add\n      mload\n      dup2\n      0x01\n      add\n      swap1\n      dup2\n      tag_30\n      swap2\n      swap1\n      tag_31\n      jump\t// in\n    tag_30:\n      pop\n      pop\n      pop\n        /* \"contracts/SimpleStorage.sol\":1203:1340  function addPerson(string calldata _name, uint256 _favouriteNumber) public {... */\n      pop\n      pop\n      pop\n      jump\t// out\n        /* \"contracts/SimpleStorage.sol\":326:348  People[] public people */\n    tag_21:\n      0x01\n      dup2\n      dup2\n      sload\n      dup2\n      lt\n      tag_32\n      jumpi\n      0x00\n      dup1\n      revert\n    tag_32:\n      swap1\n      0x00\n      mstore\n      keccak256(0x00, 0x20)\n      swap1\n      0x02\n      mul\n      add\n      0x00\n      swap2\n      pop\n      swap1\n      pop\n      dup1\n      0x00\n      add\n      sload\n      swap1\n      dup1\n      0x01\n      add\n      dup1\n      sload\n      tag_34\n      swap1\n      tag_35\n      jump\t// in\n    tag_34:\n      dup1\n      0x1f\n      add\n      0x20\n      dup1\n      swap2\n      div\n      mul\n      0x20\n      add\n      mload(0x40)\n      swap1\n      dup2\n      add\n      0x40\n      mstore\n      dup1\n      swap3\n      swap2\n      swap1\n      dup2\n      dup2\n      mstore\n      0x20\n      add\n      dup3\n      dup1\n      sload\n      tag_36\n      swap1\n      tag_35\n      jump\t// in\n    tag_36:\n      dup1\n      iszero\n      tag_37\n      jumpi\n      dup1\n      0x1f\n      lt\n      tag_38\n      jumpi\n      0x0100\n      dup1\n      dup4\n      sload\n      div\n      mul\n      dup4\n      mstore\n      swap2\n      0x20\n      add\n      swap2\n      jump(tag_37)\n    tag_38:\n      dup3\n      add\n      swap2\n      swap1\n      0x00\n      mstore\n      keccak256(0x00, 0x20)\n      swap1\n    tag_39:\n      dup2\n      sload\n      dup2\n      mstore\n      swap1\n      0x01\n      add\n      swap1\n      0x20\n      add\n      dup1\n      dup4\n      gt\n      tag_39\n      jumpi\n      dup3\n      swap1\n      sub\n      0x1f\n      and\n      dup3\n      add\n      swap2\n    tag_37:\n      pop\n      pop\n      pop\n      pop\n      pop\n      swap1\n      pop\n      dup3\n      jump\t// out\n        /* \"#utility.yul\":7:84   */\n    tag_40:\n        /* \"#utility.yul\":44:51   */\n      0x00\n        /* \"#utility.yul\":73:78   */\n      dup2\n        /* \"#utility.yul\":62:78   */\n      swap1\n      pop\n        /* \"#utility.yul\":7:84   */\n      swap2\n      swap1\n      pop\n      jump\t// out\n        /* \"#utility.yul\":90:208   */\n    tag_41:\n        /* \"#utility.yul\":177:201   */\n      tag_77\n        /* \"#utility.yul\":195:200   */\n      dup2\n        /* \"#utility.yul\":177:201   */\n      tag_40\n      jump\t// in\n    tag_77:\n        /* \"#utility.yul\":172:175   */\n      dup3\n        /* \"#utility.yul\":165:202   */\n      mstore\n        /* \"#utility.yul\":90:208   */\n      pop\n      pop\n      jump\t// out\n        /* \"#utility.yul\":214:436   */\n    tag_10:\n        /* \"#utility.yul\":307:311   */\n      0x00\n        /* \"#utility.yul\":345:347   */\n      0x20\n        /* \"#utility.yul\":334:343   */\n      dup3\n        /* \"#utility.yul\":330:348   */\n      add\n        /* \"#utility.yul\":322:348   */\n      swap1\n      pop\n        /* \"#utility.yul\":358:429   */\n      tag_79\n        /* \"#utility.yul\":426:427   */\n      0x00\n        /* \"#utility.yul\":415:424   */\n      dup4\n        /* \"#utility.yul\":411:428   */\n      add\n        /* \"#utility.yul\":402:408   */\n      dup5\n        /* \"#utility.yul\":358:429   */\n      tag_41\n      jump\t// in\n    tag_79:\n        /* \"#utility.yul\":214:436   */\n      swap3\n      swap2\n      pop\n      pop\n      jump\t// out\n        /* \"#utility.yul\":523:640   */\n    tag_43:\n        /* \"#utility.yul\":632:633   */\n      0x00\n        /* \"#utility.yul\":629:630   */\n      dup1\n        /* \"#utility.yul\":622:634   */\n      revert\n        /* \"#utility.yul\":646:763   */\n    tag_44:\n        /* \"#utility.yul\":755:756   */\n      0x00\n        /* \"#utility.yul\":752:753   */\n      dup1\n        /* \"#utility.yul\":745:757   */\n      revert\n        /* \"#utility.yul\":769:891   */\n    tag_45:\n        /* \"#utility.yul\":842:866   */\n      tag_84\n        /* \"#utility.yul\":860:865   */\n      dup2\n        /* \"#utility.yul\":842:866   */\n      tag_40\n      jump\t// in\n    tag_84:\n        /* \"#utility.yul\":835:840   */\n      dup2\n        /* \"#utility.yul\":832:867   */\n      eq\n        /* \"#utility.yul\":822:885   */\n      tag_85\n      jumpi\n        /* \"#utility.yul\":881:882   */\n      0x00\n        /* \"#utility.yul\":878:879   */\n      dup1\n        /* \"#utility.yul\":871:883   */\n      revert\n        /* \"#utility.yul\":822:885   */\n    tag_85:\n        /* \"#utility.yul\":769:891   */\n      pop\n      jump\t// out\n        /* \"#utility.yul\":897:1036   */\n    tag_46:\n        /* \"#utility.yul\":943:948   */\n      0x00\n        /* \"#utility.yul\":981:987   */\n      dup2\n        /* \"#utility.yul\":968:988   */\n      calldataload\n        /* \"#utility.yul\":959:988   */\n      swap1\n      pop\n        /* \"#utility.yul\":997:1030   */\n      tag_87\n        /* \"#utility.yul\":1024:1029   */\n      dup2\n        /* \"#utility.yul\":997:1030   */\n      tag_45\n      jump\t// in\n    tag_87:\n        /* \"#utility.yul\":897:1036   */\n      swap3\n      swap2\n      pop\n      pop\n      jump\t// out\n        /* \"#utility.yul\":1042:1371   */\n    tag_13:\n        /* \"#utility.yul\":1101:1107   */\n      0x00\n        /* \"#utility.yul\":1150:1152   */\n      0x20\n        /* \"#utility.yul\":1138:1147   */\n      dup3\n        /* \"#utility.yul\":1129:1136   */\n      dup5\n        /* \"#utility.yul\":1125:1148   */\n      sub\n        /* \"#utility.yul\":1121:1153   */\n      slt\n        /* \"#utility.yul\":1118:1237   */\n      iszero\n      tag_89\n      jumpi\n        /* \"#utility.yul\":1156:1235   */\n      tag_90\n      tag_43\n      jump\t// in\n    tag_90:\n        /* \"#utility.yul\":1118:1237   */\n    tag_89:\n        /* \"#utility.yul\":1276:1277   */\n      0x00\n        /* \"#utility.yul\":1301:1354   */\n      tag_91\n        /* \"#utility.yul\":1346:1353   */\n      dup5\n        /* \"#utility.yul\":1337:1343   */\n      dup3\n        /* \"#utility.yul\":1326:1335   */\n      dup6\n        /* \"#utility.yul\":1322:1344   */\n      add\n        /* \"#utility.yul\":1301:1354   */\n      tag_46\n      jump\t// in\n    tag_91:\n        /* \"#utility.yul\":1291:1354   */\n      swap2\n      pop\n        /* \"#utility.yul\":1247:1364   */\n      pop\n        /* \"#utility.yul\":1042:1371   */\n      swap3\n      swap2\n      pop\n      pop\n      jump\t// out\n        /* \"#utility.yul\":1377:1494   */\n    tag_47:\n        /* \"#utility.yul\":1486:1487   */\n      0x00\n        /* \"#utility.yul\":1483:1484   */\n      dup1\n        /* \"#utility.yul\":1476:1488   */\n      revert\n        /* \"#utility.yul\":1500:1617   */\n    tag_48:\n        /* \"#utility.yul\":1609:1610   */\n      0x00\n        /* \"#utility.yul\":1606:1607   */\n      dup1\n        /* \"#utility.yul\":1599:1611   */\n      revert\n        /* \"#utility.yul\":1623:1740   */\n    tag_49:\n        /* \"#utility.yul\":1732:1733   */\n      0x00\n        /* \"#utility.yul\":1729:1730   */\n      dup1\n        /* \"#utility.yul\":1722:1734   */\n      revert\n        /* \"#utility.yul\":1760:2313   */\n    tag_50:\n        /* \"#utility.yul\":1818:1826   */\n      0x00\n        /* \"#utility.yul\":1828:1834   */\n      dup1\n        /* \"#utility.yul\":1878:1881   */\n      dup4\n        /* \"#utility.yul\":1871:1875   */\n      0x1f\n        /* \"#utility.yul\":1863:1869   */\n      dup5\n        /* \"#utility.yul\":1859:1876   */\n      add\n        /* \"#utility.yul\":1855:1882   */\n      slt\n        /* \"#utility.yul\":1845:1967   */\n      tag_96\n      jumpi\n        /* \"#utility.yul\":1886:1965   */\n      tag_97\n      tag_47\n      jump\t// in\n    tag_97:\n        /* \"#utility.yul\":1845:1967   */\n    tag_96:\n        /* \"#utility.yul\":1999:2005   */\n      dup3\n        /* \"#utility.yul\":1986:2006   */\n      calldataload\n        /* \"#utility.yul\":1976:2006   */\n      swap1\n      pop\n        /* \"#utility.yul\":2029:2047   */\n      0xffffffffffffffff\n        /* \"#utility.yul\":2021:2027   */\n      dup2\n        /* \"#utility.yul\":2018:2048   */\n      gt\n        /* \"#utility.yul\":2015:2132   */\n      iszero\n      tag_98\n      jumpi\n        /* \"#utility.yul\":2051:2130   */\n      tag_99\n      tag_48\n      jump\t// in\n    tag_99:\n        /* \"#utility.yul\":2015:2132   */\n    tag_98:\n        /* \"#utility.yul\":2165:2169   */\n      0x20\n        /* \"#utility.yul\":2157:2163   */\n      dup4\n        /* \"#utility.yul\":2153:2170   */\n      add\n        /* \"#utility.yul\":2141:2170   */\n      swap2\n      pop\n        /* \"#utility.yul\":2219:2222   */\n      dup4\n        /* \"#utility.yul\":2211:2215   */\n      0x01\n        /* \"#utility.yul\":2203:2209   */\n      dup3\n        /* \"#utility.yul\":2199:2216   */\n      mul\n        /* \"#utility.yul\":2189:2197   */\n      dup4\n        /* \"#utility.yul\":2185:2217   */\n      add\n        /* \"#utility.yul\":2182:2223   */\n      gt\n        /* \"#utility.yul\":2179:2307   */\n      iszero\n      tag_100\n      jumpi\n        /* \"#utility.yul\":2226:2305   */\n      tag_101\n      tag_49\n      jump\t// in\n    tag_101:\n        /* \"#utility.yul\":2179:2307   */\n    tag_100:\n        /* \"#utility.yul\":1760:2313   */\n      swap3\n      pop\n      swap3\n      swap1\n      pop\n      jump\t// out\n        /* \"#utility.yul\":2319:2993   */\n    tag_17:\n        /* \"#utility.yul\":2399:2405   */\n      0x00\n        /* \"#utility.yul\":2407:2413   */\n      dup1\n        /* \"#utility.yul\":2415:2421   */\n      0x00\n        /* \"#utility.yul\":2464:2466   */\n      0x40\n        /* \"#utility.yul\":2452:2461   */\n      dup5\n        /* \"#utility.yul\":2443:2450   */\n      dup7\n        /* \"#utility.yul\":2439:2462   */\n      sub\n        /* \"#utility.yul\":2435:2467   */\n      slt\n        /* \"#utility.yul\":2432:2551   */\n      iszero\n      tag_103\n      jumpi\n        /* \"#utility.yul\":2470:2549   */\n      tag_104\n      tag_43\n      jump\t// in\n    tag_104:\n        /* \"#utility.yul\":2432:2551   */\n    tag_103:\n        /* \"#utility.yul\":2618:2619   */\n      0x00\n        /* \"#utility.yul\":2607:2616   */\n      dup5\n        /* \"#utility.yul\":2603:2620   */\n      add\n        /* \"#utility.yul\":2590:2621   */\n      calldataload\n        /* \"#utility.yul\":2648:2666   */\n      0xffffffffffffffff\n        /* \"#utility.yul\":2640:2646   */\n      dup2\n        /* \"#utility.yul\":2637:2667   */\n      gt\n        /* \"#utility.yul\":2634:2751   */\n      iszero\n      tag_105\n      jumpi\n        /* \"#utility.yul\":2670:2749   */\n      tag_106\n      tag_44\n      jump\t// in\n    tag_106:\n        /* \"#utility.yul\":2634:2751   */\n    tag_105:\n        /* \"#utility.yul\":2783:2848   */\n      tag_107\n        /* \"#utility.yul\":2840:2847   */\n      dup7\n        /* \"#utility.yul\":2831:2837   */\n      dup3\n        /* \"#utility.yul\":2820:2829   */\n      dup8\n        /* \"#utility.yul\":2816:2838   */\n      add\n        /* \"#utility.yul\":2783:2848   */\n      tag_50\n      jump\t// in\n    tag_107:\n        /* \"#utility.yul\":2765:2848   */\n      swap4\n      pop\n      swap4\n      pop\n        /* \"#utility.yul\":2561:2858   */\n      pop\n        /* \"#utility.yul\":2897:2899   */\n      0x20\n        /* \"#utility.yul\":2923:2976   */\n      tag_108\n        /* \"#utility.yul\":2968:2975   */\n      dup7\n        /* \"#utility.yul\":2959:2965   */\n      dup3\n        /* \"#utility.yul\":2948:2957   */\n      dup8\n        /* \"#utility.yul\":2944:2966   */\n      add\n        /* \"#utility.yul\":2923:2976   */\n      tag_46\n      jump\t// in\n    tag_108:\n        /* \"#utility.yul\":2913:2976   */\n      swap2\n      pop\n        /* \"#utility.yul\":2868:2986   */\n      pop\n        /* \"#utility.yul\":2319:2993   */\n      swap3\n      pop\n      swap3\n      pop\n      swap3\n      jump\t// out\n        /* \"#utility.yul\":2999:3098   */\n    tag_51:\n        /* \"#utility.yul\":3051:3057   */\n      0x00\n        /* \"#utility.yul\":3085:3090   */\n      dup2\n        /* \"#utility.yul\":3079:3091   */\n      mload\n        /* \"#utility.yul\":3069:3091   */\n      swap1\n      pop\n        /* \"#utility.yul\":2999:3098   */\n      swap2\n      swap1\n      pop\n      jump\t// out\n        /* \"#utility.yul\":3104:3273   */\n    tag_52:\n        /* \"#utility.yul\":3188:3199   */\n      0x00\n        /* \"#utility.yul\":3222:3228   */\n      dup3\n        /* \"#utility.yul\":3217:3220   */\n      dup3\n        /* \"#utility.yul\":3210:3229   */\n      mstore\n        /* \"#utility.yul\":3262:3266   */\n      0x20\n        /* \"#utility.yul\":3257:3260   */\n      dup3\n        /* \"#utility.yul\":3253:3267   */\n      add\n        /* \"#utility.yul\":3238:3267   */\n      swap1\n      pop\n        /* \"#utility.yul\":3104:3273   */\n      swap3\n      swap2\n      pop\n      pop\n      jump\t// out\n        /* \"#utility.yul\":3279:3525   */\n    tag_53:\n        /* \"#utility.yul\":3360:3361   */\n      0x00\n        /* \"#utility.yul\":3370:3483   */\n    tag_112:\n        /* \"#utility.yul\":3384:3390   */\n      dup4\n        /* \"#utility.yul\":3381:3382   */\n      dup2\n        /* \"#utility.yul\":3378:3391   */\n      lt\n        /* \"#utility.yul\":3370:3483   */\n      iszero\n      tag_114\n      jumpi\n        /* \"#utility.yul\":3469:3470   */\n      dup1\n        /* \"#utility.yul\":3464:3467   */\n      dup3\n        /* \"#utility.yul\":3460:3471   */\n      add\n        /* \"#utility.yul\":3454:3472   */\n      mload\n        /* \"#utility.yul\":3450:3451   */\n      dup2\n        /* \"#utility.yul\":3445:3448   */\n      dup5\n        /* \"#utility.yul\":3441:3452   */\n      add\n        /* \"#utility.yul\":3434:3473   */\n      mstore\n        /* \"#utility.yul\":3406:3408   */\n      0x20\n        /* \"#utility.yul\":3403:3404   */\n      dup2\n        /* \"#utility.yul\":3399:3409   */\n      add\n        /* \"#utility.yul\":3394:3409   */\n      swap1\n      pop\n        /* \"#utility.yul\":3370:3483   */\n      jump(tag_112)\n    tag_114:\n        /* \"#utility.yul\":3517:3518   */\n      0x00\n        /* \"#utility.yul\":3508:3514   */\n      dup5\n        /* \"#utility.yul\":3503:3506   */\n      dup5\n        /* \"#utility.yul\":3499:3515   */\n      add\n        /* \"#utility.yul\":3492:3519   */\n      mstore\n        /* \"#utility.yul\":3341:3525   */\n      pop\n        /* \"#utility.yul\":3279:3525   */\n      pop\n      pop\n      pop\n      jump\t// out\n        /* \"#utility.yul\":3531:3633   */\n    tag_54:\n        /* \"#utility.yul\":3572:3578   */\n      0x00\n        /* \"#utility.yul\":3623:3625   */\n      0x1f\n        /* \"#utility.yul\":3619:3626   */\n      not\n        /* \"#utility.yul\":3614:3616   */\n      0x1f\n        /* \"#utility.yul\":3607:3612   */\n      dup4\n        /* \"#utility.yul\":3603:3617   */\n      add\n        /* \"#utility.yul\":3599:3627   */\n      and\n        /* \"#utility.yul\":3589:3627   */\n      swap1\n      pop\n        /* \"#utility.yul\":3531:3633   */\n      swap2\n      swap1\n      pop\n      jump\t// out\n        /* \"#utility.yul\":3639:4016   */\n    tag_55:\n        /* \"#utility.yul\":3727:3730   */\n      0x00\n        /* \"#utility.yul\":3755:3794   */\n      tag_117\n        /* \"#utility.yul\":3788:3793   */\n      dup3\n        /* \"#utility.yul\":3755:3794   */\n      tag_51\n      jump\t// in\n    tag_117:\n        /* \"#utility.yul\":3810:3881   */\n      tag_118\n        /* \"#utility.yul\":3874:3880   */\n      dup2\n        /* \"#utility.yul\":3869:3872   */\n      dup6\n        /* \"#utility.yul\":3810:3881   */\n      tag_52\n      jump\t// in\n    tag_118:\n        /* \"#utility.yul\":3803:3881   */\n      swap4\n      pop\n        /* \"#utility.yul\":3890:3955   */\n      tag_119\n        /* \"#utility.yul\":3948:3954   */\n      dup2\n        /* \"#utility.yul\":3943:3946   */\n      dup6\n        /* \"#utility.yul\":3936:3940   */\n      0x20\n        /* \"#utility.yul\":3929:3934   */\n      dup7\n        /* \"#utility.yul\":3925:3941   */\n      add\n        /* \"#utility.yul\":3890:3955   */\n      tag_53\n      jump\t// in\n    tag_119:\n        /* \"#utility.yul\":3980:4009   */\n      tag_120\n        /* \"#utility.yul\":4002:4008   */\n      dup2\n        /* \"#utility.yul\":3980:4009   */\n      tag_54\n      jump\t// in\n    tag_120:\n        /* \"#utility.yul\":3975:3978   */\n      dup5\n        /* \"#utility.yul\":3971:4010   */\n      add\n        /* \"#utility.yul\":3964:4010   */\n      swap2\n      pop\n        /* \"#utility.yul\":3731:4016   */\n      pop\n        /* \"#utility.yul\":3639:4016   */\n      swap3\n      swap2\n      pop\n      pop\n      jump\t// out\n        /* \"#utility.yul\":4022:4445   */\n    tag_23:\n        /* \"#utility.yul\":4163:4167   */\n      0x00\n        /* \"#utility.yul\":4201:4203   */\n      0x40\n        /* \"#utility.yul\":4190:4199   */\n      dup3\n        /* \"#utility.yul\":4186:4204   */\n      add\n        /* \"#utility.yul\":4178:4204   */\n      swap1\n      pop\n        /* \"#utility.yul\":4214:4285   */\n      tag_122\n        /* \"#utility.yul\":4282:4283   */\n      0x00\n        /* \"#utility.yul\":4271:4280   */\n      dup4\n        /* \"#utility.yul\":4267:4284   */\n      add\n        /* \"#utility.yul\":4258:4264   */\n      dup6\n        /* \"#utility.yul\":4214:4285   */\n      tag_41\n      jump\t// in\n    tag_122:\n        /* \"#utility.yul\":4332:4341   */\n      dup2\n        /* \"#utility.yul\":4326:4330   */\n      dup2\n        /* \"#utility.yul\":4322:4342   */\n      sub\n        /* \"#utility.yul\":4317:4319   */\n      0x20\n        /* \"#utility.yul\":4306:4315   */\n      dup4\n        /* \"#utility.yul\":4302:4320   */\n      add\n        /* \"#utility.yul\":4295:4343   */\n      mstore\n        /* \"#utility.yul\":4360:4438   */\n      tag_123\n        /* \"#utility.yul\":4433:4437   */\n      dup2\n        /* \"#utility.yul\":4424:4430   */\n      dup5\n        /* \"#utility.yul\":4360:4438   */\n      tag_55\n      jump\t// in\n    tag_123:\n        /* \"#utility.yul\":4352:4438   */\n      swap1\n      pop\n        /* \"#utility.yul\":4022:4445   */\n      swap4\n      swap3\n      pop\n      pop\n      pop\n      jump\t// out\n        /* \"#utility.yul\":4451:4631   */\n    tag_56:\n        /* \"#utility.yul\":4499:4576   */\n      0x4e487b7100000000000000000000000000000000000000000000000000000000\n        /* \"#utility.yul\":4496:4497   */\n      0x00\n        /* \"#utility.yul\":4489:4577   */\n      mstore\n        /* \"#utility.yul\":4596:4600   */\n      0x11\n        /* \"#utility.yul\":4593:4594   */\n      0x04\n        /* \"#utility.yul\":4586:4601   */\n      mstore\n        /* \"#utility.yul\":4620:4624   */\n      0x24\n        /* \"#utility.yul\":4617:4618   */\n      0x00\n        /* \"#utility.yul\":4610:4625   */\n      revert\n        /* \"#utility.yul\":4637:5047   */\n    tag_26:\n        /* \"#utility.yul\":4677:4684   */\n      0x00\n        /* \"#utility.yul\":4700:4720   */\n      tag_126\n        /* \"#utility.yul\":4718:4719   */\n      dup3\n        /* \"#utility.yul\":4700:4720   */\n      tag_40\n      jump\t// in\n    tag_126:\n        /* \"#utility.yul\":4695:4720   */\n      swap2\n      pop\n        /* \"#utility.yul\":4734:4754   */\n      tag_127\n        /* \"#utility.yul\":4752:4753   */\n      dup4\n        /* \"#utility.yul\":4734:4754   */\n      tag_40\n      jump\t// in\n    tag_127:\n        /* \"#utility.yul\":4729:4754   */\n      swap3\n      pop\n        /* \"#utility.yul\":4789:4790   */\n      dup3\n        /* \"#utility.yul\":4786:4787   */\n      dup3\n        /* \"#utility.yul\":4782:4791   */\n      mul\n        /* \"#utility.yul\":4811:4841   */\n      tag_128\n        /* \"#utility.yul\":4829:4840   */\n      dup2\n        /* \"#utility.yul\":4811:4841   */\n      tag_40\n      jump\t// in\n    tag_128:\n        /* \"#utility.yul\":4800:4841   */\n      swap2\n      pop\n        /* \"#utility.yul\":4990:4991   */\n      dup3\n        /* \"#utility.yul\":4981:4988   */\n      dup3\n        /* \"#utility.yul\":4977:4992   */\n      div\n        /* \"#utility.yul\":4974:4975   */\n      dup5\n        /* \"#utility.yul\":4971:4993   */\n      eq\n        /* \"#utility.yul\":4951:4952   */\n      dup4\n        /* \"#utility.yul\":4944:4953   */\n      iszero\n        /* \"#utility.yul\":4924:5007   */\n      or\n        /* \"#utility.yul\":4901:5040   */\n      tag_129\n      jumpi\n        /* \"#utility.yul\":5020:5038   */\n      tag_130\n      tag_56\n      jump\t// in\n    tag_130:\n        /* \"#utility.yul\":4901:5040   */\n    tag_129:\n        /* \"#utility.yul\":4685:5047   */\n      pop\n        /* \"#utility.yul\":4637:5047   */\n      swap3\n      swap2\n      pop\n      pop\n      jump\t// out\n        /* \"#utility.yul\":5053:5233   */\n    tag_57:\n        /* \"#utility.yul\":5101:5178   */\n      0x4e487b7100000000000000000000000000000000000000000000000000000000\n        /* \"#utility.yul\":5098:5099   */\n      0x00\n        /* \"#utility.yul\":5091:5179   */\n      mstore\n        /* \"#utility.yul\":5198:5202   */\n      0x41\n        /* \"#utility.yul\":5195:5196   */\n      0x04\n        /* \"#utility.yul\":5188:5203   */\n      mstore\n        /* \"#utility.yul\":5222:5226   */\n      0x24\n        /* \"#utility.yul\":5219:5220   */\n      0x00\n        /* \"#utility.yul\":5212:5227   */\n      revert\n        /* \"#utility.yul\":5239:5419   */\n    tag_58:\n        /* \"#utility.yul\":5287:5364   */\n      0x4e487b7100000000000000000000000000000000000000000000000000000000\n        /* \"#utility.yul\":5284:5285   */\n      0x00\n        /* \"#utility.yul\":5277:5365   */\n      mstore\n        /* \"#utility.yul\":5384:5388   */\n      0x22\n        /* \"#utility.yul\":5381:5382   */\n      0x04\n        /* \"#utility.yul\":5374:5389   */\n      mstore\n        /* \"#utility.yul\":5408:5412   */\n      0x24\n        /* \"#utility.yul\":5405:5406   */\n      0x00\n        /* \"#utility.yul\":5398:5413   */\n      revert\n        /* \"#utility.yul\":5425:5745   */\n    tag_35:\n        /* \"#utility.yul\":5469:5475   */\n      0x00\n        /* \"#utility.yul\":5506:5507   */\n      0x02\n        /* \"#utility.yul\":5500:5504   */\n      dup3\n        /* \"#utility.yul\":5496:5508   */\n      div\n        /* \"#utility.yul\":5486:5508   */\n      swap1\n      pop\n        /* \"#utility.yul\":5553:5554   */\n      0x01\n        /* \"#utility.yul\":5547:5551   */\n      dup3\n        /* \"#utility.yul\":5543:5555   */\n      and\n        /* \"#utility.yul\":5574:5592   */\n      dup1\n        /* \"#utility.yul\":5564:5645   */\n      tag_134\n      jumpi\n        /* \"#utility.yul\":5630:5634   */\n      0x7f\n        /* \"#utility.yul\":5622:5628   */\n      dup3\n        /* \"#utility.yul\":5618:5635   */\n      and\n        /* \"#utility.yul\":5608:5635   */\n      swap2\n      pop\n        /* \"#utility.yul\":5564:5645   */\n    tag_134:\n        /* \"#utility.yul\":5692:5694   */\n      0x20\n        /* \"#utility.yul\":5684:5690   */\n      dup3\n        /* \"#utility.yul\":5681:5695   */\n      lt\n        /* \"#utility.yul\":5661:5679   */\n      dup2\n        /* \"#utility.yul\":5658:5696   */\n      sub\n        /* \"#utility.yul\":5655:5739   */\n      tag_135\n      jumpi\n        /* \"#utility.yul\":5711:5729   */\n      tag_136\n      tag_58\n      jump\t// in\n    tag_136:\n        /* \"#utility.yul\":5655:5739   */\n    tag_135:\n        /* \"#utility.yul\":5476:5745   */\n      pop\n        /* \"#utility.yul\":5425:5745   */\n      swap2\n      swap1\n      pop\n      jump\t// out\n        /* \"#utility.yul\":5751:5892   */\n    tag_59:\n        /* \"#utility.yul\":5800:5804   */\n      0x00\n        /* \"#utility.yul\":5823:5826   */\n      dup2\n        /* \"#utility.yul\":5815:5826   */\n      swap1\n      pop\n        /* \"#utility.yul\":5846:5849   */\n      dup2\n        /* \"#utility.yul\":5843:5844   */\n      0x00\n        /* \"#utility.yul\":5836:5850   */\n      mstore\n        /* \"#utility.yul\":5880:5884   */\n      0x20\n        /* \"#utility.yul\":5877:5878   */\n      0x00\n        /* \"#utility.yul\":5867:5885   */\n      keccak256\n        /* \"#utility.yul\":5859:5885   */\n      swap1\n      pop\n        /* \"#utility.yul\":5751:5892   */\n      swap2\n      swap1\n      pop\n      jump\t// out\n        /* \"#utility.yul\":5898:5991   */\n    tag_60:\n        /* \"#utility.yul\":5935:5941   */\n      0x00\n        /* \"#utility.yul\":5982:5984   */\n      0x20\n        /* \"#utility.yul\":5977:5979   */\n      0x1f\n        /* \"#utility.yul\":5970:5975   */\n      dup4\n        /* \"#utility.yul\":5966:5980   */\n      add\n        /* \"#utility.yul\":5962:5985   */\n      div\n        /* \"#utility.yul\":5952:5985   */\n      swap1\n      pop\n        /* \"#utility.yul\":5898:5991   */\n      swap2\n      swap1\n      pop\n      jump\t// out\n        /* \"#utility.yul\":5997:6104   */\n    tag_61:\n        /* \"#utility.yul\":6041:6049   */\n      0x00\n        /* \"#utility.yul\":6091:6096   */\n      dup3\n        /* \"#utility.yul\":6085:6089   */\n      dup3\n        /* \"#utility.yul\":6081:6097   */\n      shl\n        /* \"#utility.yul\":6060:6097   */\n      swap1\n      pop\n        /* \"#utility.yul\":5997:6104   */\n      swap3\n      swap2\n      pop\n      pop\n      jump\t// out\n        /* \"#utility.yul\":6110:6503   */\n    tag_62:\n        /* \"#utility.yul\":6179:6185   */\n      0x00\n        /* \"#utility.yul\":6229:6230   */\n      0x08\n        /* \"#utility.yul\":6217:6227   */\n      dup4\n        /* \"#utility.yul\":6213:6231   */\n      mul\n        /* \"#utility.yul\":6252:6349   */\n      tag_141\n        /* \"#utility.yul\":6282:6348   */\n      0xffffffffffffffffffffffffffffffffffffffffffffffffffffffffffffffff\n        /* \"#utility.yul\":6271:6280   */\n      dup3\n        /* \"#utility.yul\":6252:6349   */\n      tag_61\n      jump\t// in\n    tag_141:\n        /* \"#utility.yul\":6370:6409   */\n      tag_142\n        /* \"#utility.yul\":6400:6408   */\n      dup7\n        /* \"#utility.yul\":6389:6398   */\n      dup4\n        /* \"#utility.yul\":6370:6409   */\n      tag_61\n      jump\t// in\n    tag_142:\n        /* \"#utility.yul\":6358:6409   */\n      swap6\n      pop\n        /* \"#utility.yul\":6442:6446   */\n      dup1\n        /* \"#utility.yul\":6438:6447   */\n      not\n        /* \"#utility.yul\":6431:6436   */\n      dup5\n        /* \"#utility.yul\":6427:6448   */\n      and\n        /* \"#utility.yul\":6418:6448   */\n      swap4\n      pop\n        /* \"#utility.yul\":6491:6495   */\n      dup1\n        /* \"#utility.yul\":6481:6489   */\n      dup7\n        /* \"#utility.yul\":6477:6496   */\n      and\n        /* \"#utility.yul\":6470:6475   */\n      dup5\n        /* \"#utility.yul\":6467:6497   */\n      or\n        /* \"#utility.yul\":6457:6497   */\n      swap3\n      pop\n        /* \"#utility.yul\":6186:6503   */\n      pop\n      pop\n        /* \"#utility.yul\":6110:6503   */\n      swap4\n      swap3\n      pop\n      pop\n      pop\n      jump\t// out\n        /* \"#utility.yul\":6509:6569   */\n    tag_63:\n        /* \"#utility.yul\":6537:6540   */\n      0x00\n        /* \"#utility.yul\":6558:6563   */\n      dup2\n        /* \"#utility.yul\":6551:6563   */\n      swap1\n      pop\n        /* \"#utility.yul\":6509:6569   */\n      swap2\n      swap1\n      pop\n      jump\t// out\n        /* \"#utility.yul\":6575:6717   */\n    tag_64:\n        /* \"#utility.yul\":6625:6634   */\n      0x00\n        /* \"#utility.yul\":6658:6711   */\n      tag_145\n        /* \"#utility.yul\":6676:6710   */\n      tag_146\n        /* \"#utility.yul\":6685:6709   */\n      tag_147\n        /* \"#utility.yul\":6703:6708   */\n      dup5\n        /* \"#utility.yul\":6685:6709   */\n      tag_40\n      jump\t// in\n    tag_147:\n        /* \"#utility.yul\":6676:6710   */\n      tag_63\n      jump\t// in\n    tag_146:\n        /* \"#utility.yul\":6658:6711   */\n      tag_40\n      jump\t// in\n    tag_145:\n        /* \"#utility.yul\":6645:6711   */\n      swap1\n      pop\n        /* \"#utility.yul\":6575:6717   */\n      swap2\n      swap1\n      pop\n      jump\t// out\n        /* \"#utility.yul\":6723:6798   */\n    tag_65:\n        /* \"#utility.yul\":6766:6769   */\n      0x00\n        /* \"#utility.yul\":6787:6792   */\n      dup2\n        /* \"#utility.yul\":6780:6792   */\n      swap1\n      pop\n        /* \"#utility.yul\":6723:6798   */\n      swap2\n      swap1\n      pop\n      jump\t// out\n        /* \"#utility.yul\":6804:7073   */\n    tag_66:\n        /* \"#utility.yul\":6914:6953   */\n      tag_150\n        /* \"#utility.yul\":6945:6952   */\n      dup4\n        /* \"#utility.yul\":6914:6953   */\n      tag_64\n      jump\t// in\n    tag_150:\n        /* \"#utility.yul\":6975:7066   */\n      tag_151\n        /* \"#utility.yul\":7024:7065   */\n      tag_152\n        /* \"#utility.yul\":7048:7064   */\n      dup3\n        /* \"#utility.yul\":7024:7065   */\n      tag_65\n      jump\t// in\n    tag_152:\n        /* \"#utility.yul\":7016:7022   */\n      dup5\n        /* \"#utility.yul\":7009:7013   */\n      dup5\n        /* \"#utility.yul\":7003:7014   */\n      sload\n        /* \"#utility.yul\":6975:7066   */\n      tag_62\n      jump\t// in\n    tag_151:\n        /* \"#utility.yul\":6969:6973   */\n      dup3\n        /* \"#utility.yul\":6962:7067   */\n      sstore\n        /* \"#utility.yul\":6880:7073   */\n      pop\n        /* \"#utility.yul\":6804:7073   */\n      pop\n      pop\n      pop\n      jump\t// out\n        /* \"#utility.yul\":7079:7152   */\n    tag_67:\n        /* \"#utility.yul\":7124:7127   */\n      0x00\n        /* \"#utility.yul\":7079:7152   */\n      swap1\n      jump\t// out\n        /* \"#utility.yul\":7158:7347   */\n    tag_68:\n        /* \"#utility.yul\":7235:7267   */\n      tag_155\n      tag_67\n      jump\t// in\n    tag_155:\n        /* \"#utility.yul\":7276:7341   */\n      tag_156\n        /* \"#utility.yul\":7334:7340   */\n      dup2\n        /* \"#utility.yul\":7326:7332   */\n      dup5\n        /* \"#utility.yul\":7320:7324   */\n      dup5\n        /* \"#utility.yul\":7276:7341   */\n      tag_66\n      jump\t// in\n    tag_156:\n        /* \"#utility.yul\":7211:7347   */\n      pop\n        /* \"#utility.yul\":7158:7347   */\n      pop\n      pop\n      jump\t// out\n        /* \"#utility.yul\":7353:7539   */\n    tag_69:\n        /* \"#utility.yul\":7413:7533   */\n    tag_158:\n        /* \"#utility.yul\":7430:7433   */\n      dup2\n        /* \"#utility.yul\":7423:7428   */\n      dup2\n        /* \"#utility.yul\":7420:7434   */\n      lt\n        /* \"#utility.yul\":7413:7533   */\n      iszero\n      tag_160\n      jumpi\n        /* \"#utility.yul\":7484:7523   */\n      tag_161\n        /* \"#utility.yul\":7521:7522   */\n      0x00\n        /* \"#utility.yul\":7514:7519   */\n      dup3\n        /* \"#utility.yul\":7484:7523   */\n      tag_68\n      jump\t// in\n    tag_161:\n        /* \"#utility.yul\":7457:7458   */\n      0x01\n        /* \"#utility.yul\":7450:7455   */\n      dup2\n        /* \"#utility.yul\":7446:7459   */\n      add\n        /* \"#utility.yul\":7437:7459   */\n      swap1\n      pop\n        /* \"#utility.yul\":7413:7533   */\n      jump(tag_158)\n    tag_160:\n        /* \"#utility.yul\":7353:7539   */\n      pop\n      pop\n      jump\t// out\n        /* \"#utility.yul\":7545:8088   */\n    tag_70:\n        /* \"#utility.yul\":7646:7648   */\n      0x1f\n        /* \"#utility.yul\":7641:7644   */\n      dup3\n        /* \"#utility.yul\":7638:7649   */\n      gt\n        /* \"#utility.yul\":7635:8081   */\n      iszero\n      tag_163\n      jumpi\n        /* \"#utility.yul\":7680:7718   */\n      tag_164\n        /* \"#utility.yul\":7712:7717   */\n      dup2\n        /* \"#utility.yul\":7680:7718   */\n      tag_59\n      jump\t// in\n    tag_164:\n        /* \"#utility.yul\":7764:7793   */\n      tag_165\n        /* \"#utility.yul\":7782:7792   */\n      dup5\n        /* \"#utility.yul\":7764:7793   */\n      tag_60\n      jump\t// in\n    tag_165:\n        /* \"#utility.yul\":7754:7762   */\n      dup2\n        /* \"#utility.yul\":7750:7794   */\n      add\n        /* \"#utility.yul\":7947:7949   */\n      0x20\n        /* \"#utility.yul\":7935:7945   */\n      dup6\n        /* \"#utility.yul\":7932:7950   */\n      lt\n        /* \"#utility.yul\":7929:7978   */\n      iszero\n      tag_166\n      jumpi\n        /* \"#utility.yul\":7968:7976   */\n      dup2\n        /* \"#utility.yul\":7953:7976   */\n      swap1\n      pop\n        /* \"#utility.yul\":7929:7978   */\n    tag_166:\n        /* \"#utility.yul\":7991:8071   */\n      tag_167\n        /* \"#utility.yul\":8047:8069   */\n      tag_168\n        /* \"#utility.yul\":8065:8068   */\n      dup6\n        /* \"#utility.yul\":8047:8069   */\n      tag_60\n      jump\t// in\n    tag_168:\n        /* \"#utility.yul\":8037:8045   */\n      dup4\n        /* \"#utility.yul\":8033:8070   */\n      add\n        /* \"#utility.yul\":8020:8031   */\n      dup3\n        /* \"#utility.yul\":7991:8071   */\n      tag_69\n      jump\t// in\n    tag_167:\n        /* \"#utility.yul\":7650:8081   */\n      pop\n      pop\n        /* \"#utility.yul\":7635:8081   */\n    tag_163:\n        /* \"#utility.yul\":7545:8088   */\n      pop\n      pop\n      pop\n      jump\t// out\n        /* \"#utility.yul\":8094:8211   */\n    tag_71:\n        /* \"#utility.yul\":8148:8156   */\n      0x00\n        /* \"#utility.yul\":8198:8203   */\n      dup3\n        /* \"#utility.yul\":8192:8196   */\n      dup3\n        /* \"#utility.yul\":8188:8204   */\n      shr\n        /* \"#utility.yul\":8167:8204   */\n      swap1\n      pop\n        /* \"#utility.yul\":8094:8211   */\n      swap3\n      swap2\n      pop\n      pop\n      jump\t// out\n        /* \"#utility.yul\":8217:8386   */\n    tag_72:\n        /* \"#utility.yul\":8261:8267   */\n      0x00\n        /* \"#utility.yul\":8294:8345   */\n      tag_171\n        /* \"#utility.yul\":8342:8343   */\n      0x00\n        /* \"#utility.yul\":8338:8344   */\n      not\n        /* \"#utility.yul\":8330:8335   */\n      dup5\n        /* \"#utility.yul\":8327:8328   */\n      0x08\n        /* \"#utility.yul\":8323:8336   */\n      mul\n        /* \"#utility.yul\":8294:8345   */\n      tag_71\n      jump\t// in\n    tag_171:\n        /* \"#utility.yul\":8290:8346   */\n      not\n        /* \"#utility.yul\":8375:8379   */\n      dup1\n        /* \"#utility.yul\":8369:8373   */\n      dup4\n        /* \"#utility.yul\":8365:8380   */\n      and\n        /* \"#utility.yul\":8355:8380   */\n      swap2\n      pop\n        /* \"#utility.yul\":8268:8386   */\n      pop\n        /* \"#utility.yul\":8217:8386   */\n      swap3\n      swap2\n      pop\n      pop\n      jump\t// out\n        /* \"#utility.yul\":8391:8686   */\n    tag_73:\n        /* \"#utility.yul\":8467:8471   */\n      0x00\n        /* \"#utility.yul\":8613:8642   */\n      tag_173\n        /* \"#utility.yul\":8638:8641   */\n      dup4\n        /* \"#utility.yul\":8632:8636   */\n      dup4\n        /* \"#utility.yul\":8613:8642   */\n      tag_72\n      jump\t// in\n    tag_173:\n        /* \"#utility.yul\":8605:8642   */\n      swap2\n      pop\n        /* \"#utility.yul\":8675:8678   */\n      dup3\n        /* \"#utility.yul\":8672:8673   */\n      0x02\n        /* \"#utility.yul\":8668:8679   */\n      mul\n        /* \"#utility.yul\":8662:8666   */\n      dup3\n        /* \"#utility.yul\":8659:8680   */\n      or\n        /* \"#utility.yul\":8651:8680   */\n      swap1\n      pop\n        /* \"#utility.yul\":8391:8686   */\n      swap3\n      swap2\n      pop\n      pop\n      jump\t// out\n        /* \"#utility.yul\":8691:10086   */\n    tag_31:\n        /* \"#utility.yul\":8808:8845   */\n      tag_175\n        /* \"#utility.yul\":8841:8844   */\n      dup3\n        /* \"#utility.yul\":8808:8845   */\n      tag_51\n      jump\t// in\n    tag_175:\n        /* \"#utility.yul\":8910:8928   */\n      0xffffffffffffffff\n        /* \"#utility.yul\":8902:8908   */\n      dup2\n        /* \"#utility.yul\":8899:8929   */\n      gt\n        /* \"#utility.yul\":8896:8952   */\n      iszero\n      tag_176\n      jumpi\n        /* \"#utility.yul\":8932:8950   */\n      tag_177\n      tag_57\n      jump\t// in\n    tag_177:\n        /* \"#utility.yul\":8896:8952   */\n    tag_176:\n        /* \"#utility.yul\":8976:9014   */\n      tag_178\n        /* \"#utility.yul\":9008:9012   */\n      dup3\n        /* \"#utility.yul\":9002:9013   */\n      sload\n        /* \"#utility.yul\":8976:9014   */\n      tag_35\n      jump\t// in\n    tag_178:\n        /* \"#utility.yul\":9061:9128   */\n      tag_179\n        /* \"#utility.yul\":9121:9127   */\n      dup3\n        /* \"#utility.yul\":9113:9119   */\n      dup3\n        /* \"#utility.yul\":9107:9111   */\n      dup6\n        /* \"#utility.yul\":9061:9128   */\n      tag_70\n      jump\t// in\n    tag_179:\n        /* \"#utility.yul\":9155:9156   */\n      0x00\n        /* \"#utility.yul\":9179:9183   */\n      0x20\n        /* \"#utility.yul\":9166:9183   */\n      swap1\n      pop\n        /* \"#utility.yul\":9211:9213   */\n      0x1f\n        /* \"#utility.yul\":9203:9209   */\n      dup4\n        /* \"#utility.yul\":9200:9214   */\n      gt\n        /* \"#utility.yul\":9228:9229   */\n      0x01\n        /* \"#utility.yul\":9223:9841   */\n      dup2\n      eq\n      tag_181\n      jumpi\n        /* \"#utility.yul\":9885:9886   */\n      0x00\n        /* \"#utility.yul\":9902:9908   */\n      dup5\n        /* \"#utility.yul\":9899:9976   */\n      iszero\n      tag_182\n      jumpi\n        /* \"#utility.yul\":9951:9960   */\n      dup3\n        /* \"#utility.yul\":9946:9949   */\n      dup8\n        /* \"#utility.yul\":9942:9961   */\n      add\n        /* \"#utility.yul\":9936:9962   */\n      mload\n        /* \"#utility.yul\":9927:9962   */\n      swap1\n      pop\n        /* \"#utility.yul\":9899:9976   */\n    tag_182:\n        /* \"#utility.yul\":10002:10069   */\n      tag_183\n        /* \"#utility.yul\":10062:10068   */\n      dup6\n        /* \"#utility.yul\":10055:10060   */\n      dup3\n        /* \"#utility.yul\":10002:10069   */\n      tag_73\n      jump\t// in\n    tag_183:\n        /* \"#utility.yul\":9996:10000   */\n      dup7\n        /* \"#utility.yul\":9989:10070   */\n      sstore\n        /* \"#utility.yul\":9858:10080   */\n      pop\n        /* \"#utility.yul\":9193:10080   */\n      jump(tag_180)\n        /* \"#utility.yul\":9223:9841   */\n    tag_181:\n        /* \"#utility.yul\":9275:9279   */\n      0x1f\n        /* \"#utility.yul\":9271:9280   */\n      not\n        /* \"#utility.yul\":9263:9269   */\n      dup5\n        /* \"#utility.yul\":9259:9281   */\n      and\n        /* \"#utility.yul\":9309:9346   */\n      tag_184\n        /* \"#utility.yul\":9341:9345   */\n      dup7\n        /* \"#utility.yul\":9309:9346   */\n      tag_59\n      jump\t// in\n    tag_184:\n        /* \"#utility.yul\":9368:9369   */\n      0x00\n        /* \"#utility.yul\":9382:9590   */\n    tag_185:\n        /* \"#utility.yul\":9396:9403   */\n      dup3\n        /* \"#utility.yul\":9393:9394   */\n      dup2\n        /* \"#utility.yul\":9390:9404   */\n      lt\n        /* \"#utility.yul\":9382:9590   */\n      iszero\n      tag_187\n      jumpi\n        /* \"#utility.yul\":9475:9484   */\n      dup5\n        /* \"#utility.yul\":9470:9473   */\n      dup10\n        /* \"#utility.yul\":9466:9485   */\n      add\n        /* \"#utility.yul\":9460:9486   */\n      mload\n        /* \"#utility.yul\":9452:9458   */\n      dup3\n        /* \"#utility.yul\":9445:9487   */\n      sstore\n        /* \"#utility.yul\":9526:9527   */\n      0x01\n        /* \"#utility.yul\":9518:9524   */\n      dup3\n        /* \"#utility.yul\":9514:9528   */\n      add\n        /* \"#utility.yul\":9504:9528   */\n      swap2\n      pop\n        /* \"#utility.yul\":9573:9575   */\n      0x20\n        /* \"#utility.yul\":9562:9571   */\n      dup6\n        /* \"#utility.yul\":9558:9576   */\n      add\n        /* \"#utility.yul\":9545:9576   */\n      swap5\n      pop\n        /* \"#utility.yul\":9419:9423   */\n      0x20\n        /* \"#utility.yul\":9416:9417   */\n      dup2\n        /* \"#utility.yul\":9412:9424   */\n      add\n        /* \"#utility.yul\":9407:9424   */\n      swap1\n      pop\n        /* \"#utility.yul\":9382:9590   */\n      jump(tag_185)\n    tag_187:\n        /* \"#utility.yul\":9618:9624   */\n      dup7\n        /* \"#utility.yul\":9609:9616   */\n      dup4\n        /* \"#utility.yul\":9606:9625   */\n      lt\n        /* \"#utility.yul\":9603:9782   */\n      iszero\n      tag_188\n      jumpi\n        /* \"#utility.yul\":9676:9685   */\n      dup5\n        /* \"#utility.yul\":9671:9674   */\n      dup10\n        /* \"#utility.yul\":9667:9686   */\n      add\n        /* \"#utility.yul\":9661:9687   */\n      mload\n        /* \"#utility.yul\":9719:9767   */\n      tag_189\n        /* \"#utility.yul\":9761:9765   */\n      0x1f\n        /* \"#utility.yul\":9753:9759   */\n      dup10\n        /* \"#utility.yul\":9749:9766   */\n      and\n        /* \"#utility.yul\":9738:9747   */\n      dup3\n        /* \"#utility.yul\":9719:9767   */\n      tag_72\n      jump\t// in\n    tag_189:\n        /* \"#utility.yul\":9711:9717   */\n      dup4\n        /* \"#utility.yul\":9704:9768   */\n      sstore\n        /* \"#utility.yul\":9626:9782   */\n      pop\n        /* \"#utility.yul\":9603:9782   */\n    tag_188:\n        /* \"#utility.yul\":9828:9829   */\n      0x01\n        /* \"#utility.yul\":9824:9825   */\n      0x02\n        /* \"#utility.yul\":9816:9822   */\n      dup9\n        /* \"#utility.yul\":9812:9826   */\n      mul\n        /* \"#utility.yul\":9808:9830   */\n      add\n        /* \"#utility.yul\":9802:9806   */\n      dup9\n        /* \"#utility.yul\":9795:9831   */\n      sstore\n        /* \"#utility.yul\":9230:9841   */\n      pop\n      pop\n      pop\n        /* \"#utility.yul\":9193:10080   */\n    tag_180:\n      pop\n        /* \"#utility.yul\":8783:10086   */\n      pop\n      pop\n      pop\n        /* \"#utility.yul\":8691:10086   */\n      pop\n      pop\n      jump\t// out\n\n    auxdata: 0xa2646970667358221220d379d7d9a0d14f4823eb2ec5642bdcf1ca01f6e2799596b73e960e8106cd1f9864736f6c63430008110033\n}\n",
				"bytecode": {
					"linkReferences": {},
					"object": "608060405234801561001057600080fd5b5061082f806100206000396000f3fe608060405234801561001057600080fd5b506004361061004c5760003560e01c80632e64cec1146100515780636057361d1461006f5780636f760f411461008b5780639e7a13ad146100a7575b600080fd5b6100596100d8565b6040516100669190610278565b60405180910390f35b610089600480360381019061008491906102c9565b6100ee565b005b6100a560048036038101906100a0919061035b565b6100f8565b005b6100c160048036038101906100bc91906102c9565b6101a3565b6040516100cf92919061044b565b60405180910390f35b600060026000546100e991906104aa565b905090565b8060008190555050565b6001604051806040016040528083815260200185858080601f016020809104026020016040519081016040528093929190818152602001838380828437600081840152601f19601f82011690508083019250505050505050815250908060018154018082558091505060019003906000526020600020906002020160009091909190915060008201518160000155602082015181600101908161019b9190610727565b505050505050565b600181815481106101b357600080fd5b90600052602060002090600202016000915090508060000154908060010180546101dc9061054a565b80601f01602080910402602001604051908101604052809291908181526020018280546102089061054a565b80156102555780601f1061022a57610100808354040283529160200191610255565b820191906000526020600020905b81548152906001019060200180831161023857829003601f168201915b5050505050905082565b6000819050919050565b6102728161025f565b82525050565b600060208201905061028d6000830184610269565b92915050565b600080fd5b600080fd5b6102a68161025f565b81146102b157600080fd5b50565b6000813590506102c38161029d565b92915050565b6000602082840312156102df576102de610293565b5b60006102ed848285016102b4565b91505092915050565b600080fd5b600080fd5b600080fd5b60008083601f84011261031b5761031a6102f6565b5b8235905067ffffffffffffffff811115610338576103376102fb565b5b60208301915083600182028301111561035457610353610300565b5b9250929050565b60008060006040848603121561037457610373610293565b5b600084013567ffffffffffffffff81111561039257610391610298565b5b61039e86828701610305565b935093505060206103b1868287016102b4565b9150509250925092565b600081519050919050565b600082825260208201905092915050565b60005b838110156103f55780820151818401526020810190506103da565b60008484015250505050565b6000601f19601f8301169050919050565b600061041d826103bb565b61042781856103c6565b93506104378185602086016103d7565b61044081610401565b840191505092915050565b60006040820190506104606000830185610269565b81810360208301526104728184610412565b90509392505050565b7f4e487b7100000000000000000000000000000000000000000000000000000000600052601160045260246000fd5b60006104b58261025f565b91506104c08361025f565b92508282026104ce8161025f565b915082820484148315176104e5576104e461047b565b5b5092915050565b7f4e487b7100000000000000000000000000000000000000000000000000000000600052604160045260246000fd5b7f4e487b7100000000000000000000000000000000000000000000000000000000600052602260045260246000fd5b6000600282049050600182168061056257607f821691505b6020821081036105755761057461051b565b5b50919050565b60008190508160005260206000209050919050565b60006020601f8301049050919050565b600082821b905092915050565b6000600883026105dd7fffffffffffffffffffffffffffffffffffffffffffffffffffffffffffffffff826105a0565b6105e786836105a0565b95508019841693508086168417925050509392505050565b6000819050919050565b600061062461061f61061a8461025f565b6105ff565b61025f565b9050919050565b6000819050919050565b61063e83610609565b61065261064a8261062b565b8484546105ad565b825550505050565b600090565b61066761065a565b610672818484610635565b505050565b5b818110156106965761068b60008261065f565b600181019050610678565b5050565b601f8211156106db576106ac8161057b565b6106b584610590565b810160208510156106c4578190505b6106d86106d085610590565b830182610677565b50505b505050565b600082821c905092915050565b60006106fe600019846008026106e0565b1980831691505092915050565b600061071783836106ed565b9150826002028217905092915050565b610730826103bb565b67ffffffffffffffff811115610749576107486104ec565b5b610753825461054a565b61075e82828561069a565b600060209050601f831160018114610791576000841561077f578287015190505b610789858261070b565b8655506107f1565b601f19841661079f8661057b565b60005b828110156107c7578489015182556001820191506020850194506020810190506107a2565b868310156107e457848901516107e0601f8916826106ed565b8355505b6001600288020188555050505b50505050505056fea2646970667358221220d379d7d9a0d14f4823eb2ec5642bdcf1ca01f6e2799596b73e960e8106cd1f9864736f6c63430008110033",
					"opcodes": "PUSH1 0x80 PUSH1 0x40 MSTORE CALLVALUE DUP1 ISZERO PUSH2 0x10 JUMPI PUSH1 0x0 DUP1 REVERT JUMPDEST POP PUSH2 0x82F DUP1 PUSH2 0x20 PUSH1 0x0 CODECOPY PUSH1 0x0 RETURN INVALID PUSH1 0x80 PUSH1 0x40 MSTORE CALLVALUE DUP1 ISZERO PUSH2 0x10 JUMPI PUSH1 0x0 DUP1 REVERT JUMPDEST POP PUSH1 0x4 CALLDATASIZE LT PUSH2 0x4C JUMPI PUSH1 0x0 CALLDATALOAD PUSH1 0xE0 SHR DUP1 PUSH4 0x2E64CEC1 EQ PUSH2 0x51 JUMPI DUP1 PUSH4 0x6057361D EQ PUSH2 0x6F JUMPI DUP1 PUSH4 0x6F760F41 EQ PUSH2 0x8B JUMPI DUP1 PUSH4 0x9E7A13AD EQ PUSH2 0xA7 JUMPI JUMPDEST PUSH1 0x0 DUP1 REVERT JUMPDEST PUSH2 0x59 PUSH2 0xD8 JUMP JUMPDEST PUSH1 0x40 MLOAD PUSH2 0x66 SWAP2 SWAP1 PUSH2 0x278 JUMP JUMPDEST PUSH1 0x40 MLOAD DUP1 SWAP2 SUB SWAP1 RETURN JUMPDEST PUSH2 0x89 PUSH1 0x4 DUP1 CALLDATASIZE SUB DUP2 ADD SWAP1 PUSH2 0x84 SWAP2 SWAP1 PUSH2 0x2C9 JUMP JUMPDEST PUSH2 0xEE JUMP JUMPDEST STOP JUMPDEST PUSH2 0xA5 PUSH1 0x4 DUP1 CALLDATASIZE SUB DUP2 ADD SWAP1 PUSH2 0xA0 SWAP2 SWAP1 PUSH2 0x35B JUMP JUMPDEST PUSH2 0xF8 JUMP JUMPDEST STOP JUMPDEST PUSH2 0xC1 PUSH1 0x4 DUP1 CALLDATASIZE SUB DUP2 ADD SWAP1 PUSH2 0xBC SWAP2 SWAP1 PUSH2 0x2C9 JUMP JUMPDEST PUSH2 0x1A3 JUMP JUMPDEST PUSH1 0x40 MLOAD PUSH2 0xCF SWAP3 SWAP2 SWAP1 PUSH2 0x44B JUMP JUMPDEST PUSH1 0x40 MLOAD DUP1 SWAP2 SUB SWAP1 RETURN JUMPDEST PUSH1 0x0 PUSH1 0x2 PUSH1 0x0 SLOAD PUSH2 0xE9 SWAP2 SWAP1 PUSH2 0x4AA JUMP JUMPDEST SWAP1 POP SWAP1 JUMP JUMPDEST DUP1 PUSH1 0x0 DUP2 SWAP1 SSTORE POP POP JUMP JUMPDEST PUSH1 0x1 PUSH1 0x40 MLOAD DUP1 PUSH1 0x40 ADD PUSH1 0x40 MSTORE DUP1 DUP4 DUP2 MSTORE PUSH1 0x20 ADD DUP6 DUP6 DUP1 DUP1 PUSH1 0x1F ADD PUSH1 0x20 DUP1 SWAP2 DIV MUL PUSH1 0x20 ADD PUSH1 0x40 MLOAD SWAP1 DUP2 ADD PUSH1 0x40 MSTORE DUP1 SWAP4 SWAP3 SWAP2 SWAP1 DUP2 DUP2 MSTORE PUSH1 0x20 ADD DUP4 DUP4 DUP1 DUP3 DUP5 CALLDATACOPY PUSH1 0x0 DUP2 DUP5 ADD MSTORE PUSH1 0x1F NOT PUSH1 0x1F DUP3 ADD AND SWAP1 POP DUP1 DUP4 ADD SWAP3 POP POP POP POP POP POP POP DUP2 MSTORE POP SWAP1 DUP1 PUSH1 0x1 DUP2 SLOAD ADD DUP1 DUP3 SSTORE DUP1 SWAP2 POP POP PUSH1 0x1 SWAP1 SUB SWAP1 PUSH1 0x0 MSTORE PUSH1 0x20 PUSH1 0x0 KECCAK256 SWAP1 PUSH1 0x2 MUL ADD PUSH1 0x0 SWAP1 SWAP2 SWAP1 SWAP2 SWAP1 SWAP2 POP PUSH1 0x0 DUP3 ADD MLOAD DUP2 PUSH1 0x0 ADD SSTORE PUSH1 0x20 DUP3 ADD MLOAD DUP2 PUSH1 0x1 ADD SWAP1 DUP2 PUSH2 0x19B SWAP2 SWAP1 PUSH2 0x727 JUMP JUMPDEST POP POP POP POP POP POP JUMP JUMPDEST PUSH1 0x1 DUP2 DUP2 SLOAD DUP2 LT PUSH2 0x1B3 JUMPI PUSH1 0x0 DUP1 REVERT JUMPDEST SWAP1 PUSH1 0x0 MSTORE PUSH1 0x20 PUSH1 0x0 KECCAK256 SWAP1 PUSH1 0x2 MUL ADD PUSH1 0x0 SWAP2 POP SWAP1 POP DUP1 PUSH1 0x0 ADD SLOAD SWAP1 DUP1 PUSH1 0x1 ADD DUP1 SLOAD PUSH2 0x1DC SWAP1 PUSH2 0x54A JUMP JUMPDEST DUP1 PUSH1 0x1F ADD PUSH1 0x20 DUP1 SWAP2 DIV MUL PUSH1 0x20 ADD PUSH1 0x40 MLOAD SWAP1 DUP2 ADD PUSH1 0x40 MSTORE DUP1 SWAP3 SWAP2 SWAP1 DUP2 DUP2 MSTORE PUSH1 0x20 ADD DUP3 DUP1 SLOAD PUSH2 0x208 SWAP1 PUSH2 0x54A JUMP JUMPDEST DUP1 ISZERO PUSH2 0x255 JUMPI DUP1 PUSH1 0x1F LT PUSH2 0x22A JUMPI PUSH2 0x100 DUP1 DUP4 SLOAD DIV MUL DUP4 MSTORE SWAP2 PUSH1 0x20 ADD SWAP2 PUSH2 0x255 JUMP JUMPDEST DUP3 ADD SWAP2 SWAP1 PUSH1 0x0 MSTORE PUSH1 0x20 PUSH1 0x0 KECCAK256 SWAP1 JUMPDEST DUP2 SLOAD DUP2 MSTORE SWAP1 PUSH1 0x1 ADD SWAP1 PUSH1 0x20 ADD DUP1 DUP4 GT PUSH2 0x238 JUMPI DUP3 SWAP1 SUB PUSH1 0x1F AND DUP3 ADD SWAP2 JUMPDEST POP POP POP POP POP SWAP1 POP DUP3 JUMP JUMPDEST PUSH1 0x0 DUP2 SWAP1 POP SWAP2 SWAP1 POP JUMP JUMPDEST PUSH2 0x272 DUP2 PUSH2 0x25F JUMP JUMPDEST DUP3 MSTORE POP POP JUMP JUMPDEST PUSH1 0x0 PUSH1 0x20 DUP3 ADD SWAP1 POP PUSH2 0x28D PUSH1 0x0 DUP4 ADD DUP5 PUSH2 0x269 JUMP JUMPDEST SWAP3 SWAP2 POP POP JUMP JUMPDEST PUSH1 0x0 DUP1 REVERT JUMPDEST PUSH1 0x0 DUP1 REVERT JUMPDEST PUSH2 0x2A6 DUP2 PUSH2 0x25F JUMP JUMPDEST DUP2 EQ PUSH2 0x2B1 JUMPI PUSH1 0x0 DUP1 REVERT JUMPDEST POP JUMP JUMPDEST PUSH1 0x0 DUP2 CALLDATALOAD SWAP1 POP PUSH2 0x2C3 DUP2 PUSH2 0x29D JUMP JUMPDEST SWAP3 SWAP2 POP POP JUMP JUMPDEST PUSH1 0x0 PUSH1 0x20 DUP3 DUP5 SUB SLT ISZERO PUSH2 0x2DF JUMPI PUSH2 0x2DE PUSH2 0x293 JUMP JUMPDEST JUMPDEST PUSH1 0x0 PUSH2 0x2ED DUP5 DUP3 DUP6 ADD PUSH2 0x2B4 JUMP JUMPDEST SWAP2 POP POP SWAP3 SWAP2 POP POP JUMP JUMPDEST PUSH1 0x0 DUP1 REVERT JUMPDEST PUSH1 0x0 DUP1 REVERT JUMPDEST PUSH1 0x0 DUP1 REVERT JUMPDEST PUSH1 0x0 DUP1 DUP4 PUSH1 0x1F DUP5 ADD SLT PUSH2 0x31B JUMPI PUSH2 0x31A PUSH2 0x2F6 JUMP JUMPDEST JUMPDEST DUP3 CALLDATALOAD SWAP1 POP PUSH8 0xFFFFFFFFFFFFFFFF DUP2 GT ISZERO PUSH2 0x338 JUMPI PUSH2 0x337 PUSH2 0x2FB JUMP JUMPDEST JUMPDEST PUSH1 0x20 DUP4 ADD SWAP2 POP DUP4 PUSH1 0x1 DUP3 MUL DUP4 ADD GT ISZERO PUSH2 0x354 JUMPI PUSH2 0x353 PUSH2 0x300 JUMP JUMPDEST JUMPDEST SWAP3 POP SWAP3 SWAP1 POP JUMP JUMPDEST PUSH1 0x0 DUP1 PUSH1 0x0 PUSH1 0x40 DUP5 DUP7 SUB SLT ISZERO PUSH2 0x374 JUMPI PUSH2 0x373 PUSH2 0x293 JUMP JUMPDEST JUMPDEST PUSH1 0x0 DUP5 ADD CALLDATALOAD PUSH8 0xFFFFFFFFFFFFFFFF DUP2 GT ISZERO PUSH2 0x392 JUMPI PUSH2 0x391 PUSH2 0x298 JUMP JUMPDEST JUMPDEST PUSH2 0x39E DUP7 DUP3 DUP8 ADD PUSH2 0x305 JUMP JUMPDEST SWAP4 POP SWAP4 POP POP PUSH1 0x20 PUSH2 0x3B1 DUP7 DUP3 DUP8 ADD PUSH2 0x2B4 JUMP JUMPDEST SWAP2 POP POP SWAP3 POP SWAP3 POP SWAP3 JUMP JUMPDEST PUSH1 0x0 DUP2 MLOAD SWAP1 POP SWAP2 SWAP1 POP JUMP JUMPDEST PUSH1 0x0 DUP3 DUP3 MSTORE PUSH1 0x20 DUP3 ADD SWAP1 POP SWAP3 SWAP2 POP POP JUMP JUMPDEST PUSH1 0x0 JUMPDEST DUP4 DUP2 LT ISZERO PUSH2 0x3F5 JUMPI DUP1 DUP3 ADD MLOAD DUP2 DUP5 ADD MSTORE PUSH1 0x20 DUP2 ADD SWAP1 POP PUSH2 0x3DA JUMP JUMPDEST PUSH1 0x0 DUP5 DUP5 ADD MSTORE POP POP POP POP JUMP JUMPDEST PUSH1 0x0 PUSH1 0x1F NOT PUSH1 0x1F DUP4 ADD AND SWAP1 POP SWAP2 SWAP1 POP JUMP JUMPDEST PUSH1 0x0 PUSH2 0x41D DUP3 PUSH2 0x3BB JUMP JUMPDEST PUSH2 0x427 DUP2 DUP6 PUSH2 0x3C6 JUMP JUMPDEST SWAP4 POP PUSH2 0x437 DUP2 DUP6 PUSH1 0x20 DUP7 ADD PUSH2 0x3D7 JUMP JUMPDEST PUSH2 0x440 DUP2 PUSH2 0x401 JUMP JUMPDEST DUP5 ADD SWAP2 POP POP SWAP3 SWAP2 POP POP JUMP JUMPDEST PUSH1 0x0 PUSH1 0x40 DUP3 ADD SWAP1 POP PUSH2 0x460 PUSH1 0x0 DUP4 ADD DUP6 PUSH2 0x269 JUMP JUMPDEST DUP2 DUP2 SUB PUSH1 0x20 DUP4 ADD MSTORE PUSH2 0x472 DUP2 DUP5 PUSH2 0x412 JUMP JUMPDEST SWAP1 POP SWAP4 SWAP3 POP POP POP JUMP JUMPDEST PUSH32 0x4E487B7100000000000000000000000000000000000000000000000000000000 PUSH1 0x0 MSTORE PUSH1 0x11 PUSH1 0x4 MSTORE PUSH1 0x24 PUSH1 0x0 REVERT JUMPDEST PUSH1 0x0 PUSH2 0x4B5 DUP3 PUSH2 0x25F JUMP JUMPDEST SWAP2 POP PUSH2 0x4C0 DUP4 PUSH2 0x25F JUMP JUMPDEST SWAP3 POP DUP3 DUP3 MUL PUSH2 0x4CE DUP2 PUSH2 0x25F JUMP JUMPDEST SWAP2 POP DUP3 DUP3 DIV DUP5 EQ DUP4 ISZERO OR PUSH2 0x4E5 JUMPI PUSH2 0x4E4 PUSH2 0x47B JUMP JUMPDEST JUMPDEST POP SWAP3 SWAP2 POP POP JUMP JUMPDEST PUSH32 0x4E487B7100000000000000000000000000000000000000000000000000000000 PUSH1 0x0 MSTORE PUSH1 0x41 PUSH1 0x4 MSTORE PUSH1 0x24 PUSH1 0x0 REVERT JUMPDEST PUSH32 0x4E487B7100000000000000000000000000000000000000000000000000000000 PUSH1 0x0 MSTORE PUSH1 0x22 PUSH1 0x4 MSTORE PUSH1 0x24 PUSH1 0x0 REVERT JUMPDEST PUSH1 0x0 PUSH1 0x2 DUP3 DIV SWAP1 POP PUSH1 0x1 DUP3 AND DUP1 PUSH2 0x562 JUMPI PUSH1 0x7F DUP3 AND SWAP2 POP JUMPDEST PUSH1 0x20 DUP3 LT DUP2 SUB PUSH2 0x575 JUMPI PUSH2 0x574 PUSH2 0x51B JUMP JUMPDEST JUMPDEST POP SWAP2 SWAP1 POP JUMP JUMPDEST PUSH1 0x0 DUP2 SWAP1 POP DUP2 PUSH1 0x0 MSTORE PUSH1 0x20 PUSH1 0x0 KECCAK256 SWAP1 POP SWAP2 SWAP1 POP JUMP JUMPDEST PUSH1 0x0 PUSH1 0x20 PUSH1 0x1F DUP4 ADD DIV SWAP1 POP SWAP2 SWAP1 POP JUMP JUMPDEST PUSH1 0x0 DUP3 DUP3 SHL SWAP1 POP SWAP3 SWAP2 POP POP JUMP JUMPDEST PUSH1 0x0 PUSH1 0x8 DUP4 MUL PUSH2 0x5DD PUSH32 0xFFFFFFFFFFFFFFFFFFFFFFFFFFFFFFFFFFFFFFFFFFFFFFFFFFFFFFFFFFFFFFFF DUP3 PUSH2 0x5A0 JUMP JUMPDEST PUSH2 0x5E7 DUP7 DUP4 PUSH2 0x5A0 JUMP JUMPDEST SWAP6 POP DUP1 NOT DUP5 AND SWAP4 POP DUP1 DUP7 AND DUP5 OR SWAP3 POP POP POP SWAP4 SWAP3 POP POP POP JUMP JUMPDEST PUSH1 0x0 DUP2 SWAP1 POP SWAP2 SWAP1 POP JUMP JUMPDEST PUSH1 0x0 PUSH2 0x624 PUSH2 0x61F PUSH2 0x61A DUP5 PUSH2 0x25F JUMP JUMPDEST PUSH2 0x5FF JUMP JUMPDEST PUSH2 0x25F JUMP JUMPDEST SWAP1 POP SWAP2 SWAP1 POP JUMP JUMPDEST PUSH1 0x0 DUP2 SWAP1 POP SWAP2 SWAP1 POP JUMP JUMPDEST PUSH2 0x63E DUP4 PUSH2 0x609 JUMP JUMPDEST PUSH2 0x652 PUSH2 0x64A DUP3 PUSH2 0x62B JUMP JUMPDEST DUP5 DUP5 SLOAD PUSH2 0x5AD JUMP JUMPDEST DUP3 SSTORE POP POP POP POP JUMP JUMPDEST PUSH1 0x0 SWAP1 JUMP JUMPDEST PUSH2 0x667 PUSH2 0x65A JUMP JUMPDEST PUSH2 0x672 DUP2 DUP5 DUP5 PUSH2 0x635 JUMP JUMPDEST POP POP POP JUMP JUMPDEST JUMPDEST DUP2 DUP2 LT ISZERO PUSH2 0x696 JUMPI PUSH2 0x68B PUSH1 0x0 DUP3 PUSH2 0x65F JUMP JUMPDEST PUSH1 0x1 DUP2 ADD SWAP1 POP PUSH2 0x678 JUMP JUMPDEST POP POP JUMP JUMPDEST PUSH1 0x1F DUP3 GT ISZERO PUSH2 0x6DB JUMPI PUSH2 0x6AC DUP2 PUSH2 0x57B JUMP JUMPDEST PUSH2 0x6B5 DUP5 PUSH2 0x590 JUMP JUMPDEST DUP2 ADD PUSH1 0x20 DUP6 LT ISZERO PUSH2 0x6C4 JUMPI DUP2 SWAP1 POP JUMPDEST PUSH2 0x6D8 PUSH2 0x6D0 DUP6 PUSH2 0x590 JUMP JUMPDEST DUP4 ADD DUP3 PUSH2 0x677 JUMP JUMPDEST POP POP JUMPDEST POP POP POP JUMP JUMPDEST PUSH1 0x0 DUP3 DUP3 SHR SWAP1 POP SWAP3 SWAP2 POP POP JUMP JUMPDEST PUSH1 0x0 PUSH2 0x6FE PUSH1 0x0 NOT DUP5 PUSH1 0x8 MUL PUSH2 0x6E0 JUMP JUMPDEST NOT DUP1 DUP4 AND SWAP2 POP POP SWAP3 SWAP2 POP POP JUMP JUMPDEST PUSH1 0x0 PUSH2 0x717 DUP4 DUP4 PUSH2 0x6ED JUMP JUMPDEST SWAP2 POP DUP3 PUSH1 0x2 MUL DUP3 OR SWAP1 POP SWAP3 SWAP2 POP POP JUMP JUMPDEST PUSH2 0x730 DUP3 PUSH2 0x3BB JUMP JUMPDEST PUSH8 0xFFFFFFFFFFFFFFFF DUP2 GT ISZERO PUSH2 0x749 JUMPI PUSH2 0x748 PUSH2 0x4EC JUMP JUMPDEST JUMPDEST PUSH2 0x753 DUP3 SLOAD PUSH2 0x54A JUMP JUMPDEST PUSH2 0x75E DUP3 DUP3 DUP6 PUSH2 0x69A JUMP JUMPDEST PUSH1 0x0 PUSH1 0x20 SWAP1 POP PUSH1 0x1F DUP4 GT PUSH1 0x1 DUP2 EQ PUSH2 0x791 JUMPI PUSH1 0x0 DUP5 ISZERO PUSH2 0x77F JUMPI DUP3 DUP8 ADD MLOAD SWAP1 POP JUMPDEST PUSH2 0x789 DUP6 DUP3 PUSH2 0x70B JUMP JUMPDEST DUP7 SSTORE POP PUSH2 0x7F1 JUMP JUMPDEST PUSH1 0x1F NOT DUP5 AND PUSH2 0x79F DUP7 PUSH2 0x57B JUMP JUMPDEST PUSH1 0x0 JUMPDEST DUP3 DUP2 LT ISZERO PUSH2 0x7C7 JUMPI DUP5 DUP10 ADD MLOAD DUP3 SSTORE PUSH1 0x1 DUP3 ADD SWAP2 POP PUSH1 0x20 DUP6 ADD SWAP5 POP PUSH1 0x20 DUP2 ADD SWAP1 POP PUSH2 0x7A2 JUMP JUMPDEST DUP7 DUP4 LT ISZERO PUSH2 0x7E4 JUMPI DUP5 DUP10 ADD MLOAD PUSH2 0x7E0 PUSH1 0x1F DUP10 AND DUP3 PUSH2 0x6ED JUMP JUMPDEST DUP4 SSTORE POP JUMPDEST PUSH1 0x1 PUSH1 0x2 DUP9 MUL ADD DUP9 SSTORE POP POP POP JUMPDEST POP POP POP POP POP POP JUMP INVALID LOG2 PUSH5 0x6970667358 0x22 SLT KECCAK256 0xD3 PUSH26 0xD7D9A0D14F4823EB2EC5642BDCF1CA01F6E2799596B73E960E81 MOD 0xCD 0x1F SWAP9 PUSH5 0x736F6C6343 STOP ADDMOD GT STOP CALLER "
				},
				"gasEstimates": {
					"creation": {
						"codeDepositCost": "419000",
						"executionCost": "455",
						"totalCost": "419455"
					},
					"external": {
						"addPerson(string,uint256)": "infinite",
						"people(uint256)": "infinite",
						"retrieve()": "infinite",
						"store(uint256)": "22520"
					}
				},
				"methodIdentifiers": {
					"addPerson(string,uint256)": "6f760f41",
					"people(uint256)": "9e7a13ad",
					"retrieve()": "2e64cec1",
					"store(uint256)": "6057361d"
				}
			},
			"storageLayout": {
				"storage": [
					{
						"astId": 3,
						"contract": "contracts/SimpleStorage.sol:SimpleStorage",
						"label": "favoriteNumber",
						"offset": 0,
						"slot": "0",
						"type": "t_uint256"
					},
					{
						"astId": 12,
						"contract": "contracts/SimpleStorage.sol:SimpleStorage",
						"label": "people",
						"offset": 0,
						"slot": "1",
						"type": "t_array(t_struct(People)8_storage)dyn_storage"
					}
				],
				"types": {
					"t_array(t_struct(People)8_storage)dyn_storage": {
						"base": "t_struct(People)8_storage",
						"encoding": "dynamic_array",
						"label": "struct SimpleStorage.People[]",
						"numberOfBytes": "32"
					},
					"t_string_storage": {
						"encoding": "bytes",
						"label": "string",
						"numberOfBytes": "32"
					},
					"t_struct(People)8_storage": {
						"encoding": "inplace",
						"label": "struct SimpleStorage.People",
						"members": [
							{
								"astId": 5,
								"contract": "contracts/SimpleStorage.sol:SimpleStorage",
								"label": "favoriteNumber",
								"offset": 0,
								"slot": "0",
								"type": "t_uint256"
							},
							{
								"astId": 7,
								"contract": "contracts/SimpleStorage.sol:SimpleStorage",
								"label": "name",
								"offset": 0,
								"slot": "1",
								"type": "t_string_storage"
							}
						],
						"numberOfBytes": "64"
					},
					"t_uint256": {
						"encoding": "inplace",
						"label": "uint256",
						"numberOfBytes": "32"
					}
				}
			},
			"userdoc": {
				"kind": "user",
				"methods": {},
				"version": 1
			}
		}
	}
}