{
	"contracts/FundMe.sol": {
		"fundMe": {
			"abi": [
				{
					"inputs": [],
					"name": "fund",
					"outputs": [],
					"stateMutability": "payable",
					"type": "function"
				},
				{
					"inputs": [],
					"name": "getConversationRate",
					"outputs": [],
					"stateMutability": "nonpayable",
					"type": "function"
				},
				{
					"inputs": [],
					"name": "getPrice",
					"outputs": [
						{
							"internalType": "uint256",
							"name": "",
							"type": "uint256"
						}
					],
					"stateMutability": "view",
					"type": "function"
				},
				{
					"inputs": [],
					"name": "miminumUsd",
					"outputs": [
						{
							"internalType": "uint256",
							"name": "",
							"type": "uint256"
						}
					],
					"stateMutability": "view",
					"type": "function"
				}
			],
			"devdoc": {
				"kind": "dev",
				"methods": {},
				"version": 1
			},
			"evm": {
				"assembly": "    /* \"contracts/FundMe.sol\":1413:2653  contract fundMe {... */\n  mstore(0x40, 0x80)\n    /* \"contracts/FundMe.sol\":1465:1467  50 */\n  0x32\n    /* \"contracts/FundMe.sol\":1437:1467  uint256 public miminumUsd = 50 */\n  0x00\n  sstore\n    /* \"contracts/FundMe.sol\":1413:2653  contract fundMe {... */\n  callvalue\n  dup1\n  iszero\n  tag_1\n  jumpi\n  0x00\n  dup1\n  revert\ntag_1:\n  pop\n  dataSize(sub_0)\n  dup1\n  dataOffset(sub_0)\n  0x00\n  codecopy\n  0x00\n  return\nstop\n\nsub_0: assembly {\n        /* \"contracts/FundMe.sol\":1413:2653  contract fundMe {... */\n      mstore(0x40, 0x80)\n      jumpi(tag_1, lt(calldatasize, 0x04))\n      shr(0xe0, calldataload(0x00))\n      dup1\n      0x50ce2420\n      eq\n      tag_2\n      jumpi\n      dup1\n      0x75263f22\n      eq\n      tag_3\n      jumpi\n      dup1\n      0x98d5fdca\n      eq\n      tag_4\n      jumpi\n      dup1\n      0xb60d4288\n      eq\n      tag_5\n      jumpi\n    tag_1:\n      0x00\n      dup1\n      revert\n        /* \"contracts/FundMe.sol\":2575:2617  function getConversationRate() public   {} */\n    tag_2:\n      callvalue\n      dup1\n      iszero\n      tag_6\n      jumpi\n      0x00\n      dup1\n      revert\n    tag_6:\n      pop\n      tag_7\n      tag_8\n      jump\t// in\n    tag_7:\n      stop\n        /* \"contracts/FundMe.sol\":1437:1467  uint256 public miminumUsd = 50 */\n    tag_3:\n      callvalue\n      dup1\n      iszero\n      tag_9\n      jumpi\n      0x00\n      dup1\n      revert\n    tag_9:\n      pop\n      tag_10\n      tag_11\n      jump\t// in\n    tag_10:\n      mload(0x40)\n      tag_12\n      swap2\n      swap1\n      tag_13\n      jump\t// in\n    tag_12:\n      mload(0x40)\n      dup1\n      swap2\n      sub\n      swap1\n      return\n        /* \"contracts/FundMe.sol\":1996:2569  function getPrice() public view returns(uint256){... */\n    tag_4:\n      callvalue\n      dup1\n      iszero\n      tag_14\n      jumpi\n      0x00\n      dup1\n      revert\n    tag_14:\n      pop\n      tag_15\n      tag_16\n      jump\t// in\n    tag_15:\n      mload(0x40)\n      tag_17\n      swap2\n      swap1\n      tag_13\n      jump\t// in\n    tag_17:\n      mload(0x40)\n      dup1\n      swap2\n      sub\n      swap1\n      return\n        /* \"contracts/FundMe.sol\":1534:1990  function fund() public payable {... */\n    tag_5:\n      tag_18\n      tag_19\n      jump\t// in\n    tag_18:\n      stop\n        /* \"contracts/FundMe.sol\":2575:2617  function getConversationRate() public   {} */\n    tag_8:\n      jump\t// out\n        /* \"contracts/FundMe.sol\":1437:1467  uint256 public miminumUsd = 50 */\n    tag_11:\n      sload(0x00)\n      dup2\n      jump\t// out\n        /* \"contracts/FundMe.sol\":1996:2569  function getPrice() public view returns(uint256){... */\n    tag_16:\n        /* \"contracts/FundMe.sol\":2036:2043  uint256 */\n      0x00\n        /* \"contracts/FundMe.sol\":2181:2212  AggregatorV3Interface priceFeed */\n      dup1\n        /* \"contracts/FundMe.sol\":2237:2279  0xD4a33860578De61DBAbDc8BFdb98FD742fA7028e */\n      0xd4a33860578de61dbabdc8bfdb98fd742fa7028e\n        /* \"contracts/FundMe.sol\":2181:2280  AggregatorV3Interface priceFeed = AggregatorV3Interface(0xD4a33860578De61DBAbDc8BFdb98FD742fA7028e) */\n      swap1\n      pop\n        /* \"contracts/FundMe.sol\":2333:2345  int256 price */\n      0x00\n        /* \"contracts/FundMe.sol\":2352:2361  priceFeed */\n      dup2\n        /* \"contracts/FundMe.sol\":2352:2377  priceFeed.latestRoundData */\n      0xffffffffffffffffffffffffffffffffffffffff\n      and\n      0xfeaf968c\n        /* \"contracts/FundMe.sol\":2352:2379  priceFeed.latestRoundData() */\n      mload(0x40)\n      dup2\n      0xffffffff\n      and\n      0xe0\n      shl\n      dup2\n      mstore\n      0x04\n      add\n      0xa0\n      mload(0x40)\n      dup1\n      dup4\n      sub\n      dup2\n      dup7\n      dup1\n      extcodesize\n      iszero\n      dup1\n      iszero\n      tag_22\n      jumpi\n      0x00\n      dup1\n      revert\n    tag_22:\n      pop\n      gas\n      staticcall\n      iszero\n      dup1\n      iszero\n      tag_24\n      jumpi\n      returndatasize\n      0x00\n      dup1\n      returndatacopy\n      revert(0x00, returndatasize)\n    tag_24:\n      pop\n      pop\n      pop\n      pop\n      mload(0x40)\n      returndatasize\n      not(0x1f)\n      0x1f\n      dup3\n      add\n      and\n      dup3\n      add\n      dup1\n      0x40\n      mstore\n      pop\n      dup2\n      add\n      swap1\n      tag_25\n      swap2\n      swap1\n      tag_26\n      jump\t// in\n    tag_25:\n        /* \"contracts/FundMe.sol\":2330:2379  (, int256 price,,,) = priceFeed.latestRoundData() */\n      pop\n      pop\n      pop\n      swap2\n      pop\n      pop\n        /* \"contracts/FundMe.sol\":2466:2470  1e10 */\n      0x02540be400\n        /* \"contracts/FundMe.sol\":2458:2463  price */\n      dup2\n        /* \"contracts/FundMe.sol\":2458:2470  price * 1e10 */\n      tag_27\n      swap2\n      swap1\n      tag_28\n      jump\t// in\n    tag_27:\n        /* \"contracts/FundMe.sol\":2443:2471  return uint256(price * 1e10) */\n      swap3\n      pop\n      pop\n      pop\n        /* \"contracts/FundMe.sol\":1996:2569  function getPrice() public view returns(uint256){... */\n      swap1\n      jump\t// out\n        /* \"contracts/FundMe.sol\":1534:1990  function fund() public payable {... */\n    tag_19:\n        /* \"contracts/FundMe.sol\":1958:1968  miminumUsd */\n      sload(0x00)\n        /* \"contracts/FundMe.sol\":1945:1954  msg.value */\n      callvalue\n        /* \"contracts/FundMe.sol\":1945:1968  msg.value >= miminumUsd */\n      lt\n      iszero\n        /* \"contracts/FundMe.sol\":1937:1983  require(msg.value >= miminumUsd, \"Not enough\") */\n      tag_30\n      jumpi\n      mload(0x40)\n      0x08c379a000000000000000000000000000000000000000000000000000000000\n      dup2\n      mstore\n      0x04\n      add\n      tag_31\n      swap1\n      tag_32\n      jump\t// in\n    tag_31:\n      mload(0x40)\n      dup1\n      swap2\n      sub\n      swap1\n      revert\n    tag_30:\n        /* \"contracts/FundMe.sol\":1534:1990  function fund() public payable {... */\n      jump\t// out\n        /* \"#utility.yul\":7:148   */\n    tag_34:\n        /* \"#utility.yul\":63:68   */\n      0x00\n        /* \"#utility.yul\":94:100   */\n      dup2\n        /* \"#utility.yul\":88:101   */\n      mload\n        /* \"#utility.yul\":79:101   */\n      swap1\n      pop\n        /* \"#utility.yul\":110:142   */\n      tag_36\n        /* \"#utility.yul\":136:141   */\n      dup2\n        /* \"#utility.yul\":110:142   */\n      tag_37\n      jump\t// in\n    tag_36:\n        /* \"#utility.yul\":7:148   */\n      swap3\n      swap2\n      pop\n      pop\n      jump\t// out\n        /* \"#utility.yul\":154:297   */\n    tag_38:\n        /* \"#utility.yul\":211:216   */\n      0x00\n        /* \"#utility.yul\":242:248   */\n      dup2\n        /* \"#utility.yul\":236:249   */\n      mload\n        /* \"#utility.yul\":227:249   */\n      swap1\n      pop\n        /* \"#utility.yul\":258:291   */\n      tag_40\n        /* \"#utility.yul\":285:290   */\n      dup2\n        /* \"#utility.yul\":258:291   */\n      tag_41\n      jump\t// in\n    tag_40:\n        /* \"#utility.yul\":154:297   */\n      swap3\n      swap2\n      pop\n      pop\n      jump\t// out\n        /* \"#utility.yul\":303:444   */\n    tag_42:\n        /* \"#utility.yul\":359:364   */\n      0x00\n        /* \"#utility.yul\":390:396   */\n      dup2\n        /* \"#utility.yul\":384:397   */\n      mload\n        /* \"#utility.yul\":375:397   */\n      swap1\n      pop\n        /* \"#utility.yul\":406:438   */\n      tag_44\n        /* \"#utility.yul\":432:437   */\n      dup2\n        /* \"#utility.yul\":406:438   */\n      tag_45\n      jump\t// in\n    tag_44:\n        /* \"#utility.yul\":303:444   */\n      swap3\n      swap2\n      pop\n      pop\n      jump\t// out\n        /* \"#utility.yul\":450:1421   */\n    tag_26:\n        /* \"#utility.yul\":553:559   */\n      0x00\n        /* \"#utility.yul\":561:567   */\n      dup1\n        /* \"#utility.yul\":569:575   */\n      0x00\n        /* \"#utility.yul\":577:583   */\n      dup1\n        /* \"#utility.yul\":585:591   */\n      0x00\n        /* \"#utility.yul\":634:637   */\n      0xa0\n        /* \"#utility.yul\":622:631   */\n      dup7\n        /* \"#utility.yul\":613:620   */\n      dup9\n        /* \"#utility.yul\":609:632   */\n      sub\n        /* \"#utility.yul\":605:638   */\n      slt\n        /* \"#utility.yul\":602:722   */\n      iszero\n      tag_47\n      jumpi\n        /* \"#utility.yul\":641:720   */\n      tag_48\n      tag_49\n      jump\t// in\n    tag_48:\n        /* \"#utility.yul\":602:722   */\n    tag_47:\n        /* \"#utility.yul\":761:762   */\n      0x00\n        /* \"#utility.yul\":786:849   */\n      tag_50\n        /* \"#utility.yul\":841:848   */\n      dup9\n        /* \"#utility.yul\":832:838   */\n      dup3\n        /* \"#utility.yul\":821:830   */\n      dup10\n        /* \"#utility.yul\":817:839   */\n      add\n        /* \"#utility.yul\":786:849   */\n      tag_42\n      jump\t// in\n    tag_50:\n        /* \"#utility.yul\":776:849   */\n      swap6\n      pop\n        /* \"#utility.yul\":732:859   */\n      pop\n        /* \"#utility.yul\":898:900   */\n      0x20\n        /* \"#utility.yul\":924:987   */\n      tag_51\n        /* \"#utility.yul\":979:986   */\n      dup9\n        /* \"#utility.yul\":970:976   */\n      dup3\n        /* \"#utility.yul\":959:968   */\n      dup10\n        /* \"#utility.yul\":955:977   */\n      add\n        /* \"#utility.yul\":924:987   */\n      tag_34\n      jump\t// in\n    tag_51:\n        /* \"#utility.yul\":914:987   */\n      swap5\n      pop\n        /* \"#utility.yul\":869:997   */\n      pop\n        /* \"#utility.yul\":1036:1038   */\n      0x40\n        /* \"#utility.yul\":1062:1126   */\n      tag_52\n        /* \"#utility.yul\":1118:1125   */\n      dup9\n        /* \"#utility.yul\":1109:1115   */\n      dup3\n        /* \"#utility.yul\":1098:1107   */\n      dup10\n        /* \"#utility.yul\":1094:1116   */\n      add\n        /* \"#utility.yul\":1062:1126   */\n      tag_38\n      jump\t// in\n    tag_52:\n        /* \"#utility.yul\":1052:1126   */\n      swap4\n      pop\n        /* \"#utility.yul\":1007:1136   */\n      pop\n        /* \"#utility.yul\":1175:1177   */\n      0x60\n        /* \"#utility.yul\":1201:1265   */\n      tag_53\n        /* \"#utility.yul\":1257:1264   */\n      dup9\n        /* \"#utility.yul\":1248:1254   */\n      dup3\n        /* \"#utility.yul\":1237:1246   */\n      dup10\n        /* \"#utility.yul\":1233:1255   */\n      add\n        /* \"#utility.yul\":1201:1265   */\n      tag_38\n      jump\t// in\n    tag_53:\n        /* \"#utility.yul\":1191:1265   */\n      swap3\n      pop\n        /* \"#utility.yul\":1146:1275   */\n      pop\n        /* \"#utility.yul\":1314:1317   */\n      0x80\n        /* \"#utility.yul\":1341:1404   */\n      tag_54\n        /* \"#utility.yul\":1396:1403   */\n      dup9\n        /* \"#utility.yul\":1387:1393   */\n      dup3\n        /* \"#utility.yul\":1376:1385   */\n      dup10\n        /* \"#utility.yul\":1372:1394   */\n      add\n        /* \"#utility.yul\":1341:1404   */\n      tag_42\n      jump\t// in\n    tag_54:\n        /* \"#utility.yul\":1331:1404   */\n      swap2\n      pop\n        /* \"#utility.yul\":1285:1414   */\n      pop\n        /* \"#utility.yul\":450:1421   */\n      swap3\n      swap6\n      pop\n      swap3\n      swap6\n      swap1\n      swap4\n      pop\n      jump\t// out\n        /* \"#utility.yul\":1427:1793   */\n    tag_55:\n        /* \"#utility.yul\":1569:1572   */\n      0x00\n        /* \"#utility.yul\":1590:1657   */\n      tag_57\n        /* \"#utility.yul\":1654:1656   */\n      0x0a\n        /* \"#utility.yul\":1649:1652   */\n      dup4\n        /* \"#utility.yul\":1590:1657   */\n      tag_58\n      jump\t// in\n    tag_57:\n        /* \"#utility.yul\":1583:1657   */\n      swap2\n      pop\n        /* \"#utility.yul\":1666:1759   */\n      tag_59\n        /* \"#utility.yul\":1755:1758   */\n      dup3\n        /* \"#utility.yul\":1666:1759   */\n      tag_60\n      jump\t// in\n    tag_59:\n        /* \"#utility.yul\":1784:1786   */\n      0x20\n        /* \"#utility.yul\":1779:1782   */\n      dup3\n        /* \"#utility.yul\":1775:1787   */\n      add\n        /* \"#utility.yul\":1768:1787   */\n      swap1\n      pop\n        /* \"#utility.yul\":1427:1793   */\n      swap2\n      swap1\n      pop\n      jump\t// out\n        /* \"#utility.yul\":1799:1917   */\n    tag_61:\n        /* \"#utility.yul\":1886:1910   */\n      tag_63\n        /* \"#utility.yul\":1904:1909   */\n      dup2\n        /* \"#utility.yul\":1886:1910   */\n      tag_64\n      jump\t// in\n    tag_63:\n        /* \"#utility.yul\":1881:1884   */\n      dup3\n        /* \"#utility.yul\":1874:1911   */\n      mstore\n        /* \"#utility.yul\":1799:1917   */\n      pop\n      pop\n      jump\t// out\n        /* \"#utility.yul\":1923:2342   */\n    tag_32:\n        /* \"#utility.yul\":2089:2093   */\n      0x00\n        /* \"#utility.yul\":2127:2129   */\n      0x20\n        /* \"#utility.yul\":2116:2125   */\n      dup3\n        /* \"#utility.yul\":2112:2130   */\n      add\n        /* \"#utility.yul\":2104:2130   */\n      swap1\n      pop\n        /* \"#utility.yul\":2176:2185   */\n      dup2\n        /* \"#utility.yul\":2170:2174   */\n      dup2\n        /* \"#utility.yul\":2166:2186   */\n      sub\n        /* \"#utility.yul\":2162:2163   */\n      0x00\n        /* \"#utility.yul\":2151:2160   */\n      dup4\n        /* \"#utility.yul\":2147:2164   */\n      add\n        /* \"#utility.yul\":2140:2187   */\n      mstore\n        /* \"#utility.yul\":2204:2335   */\n      tag_66\n        /* \"#utility.yul\":2330:2334   */\n      dup2\n        /* \"#utility.yul\":2204:2335   */\n      tag_55\n      jump\t// in\n    tag_66:\n        /* \"#utility.yul\":2196:2335   */\n      swap1\n      pop\n        /* \"#utility.yul\":1923:2342   */\n      swap2\n      swap1\n      pop\n      jump\t// out\n        /* \"#utility.yul\":2348:2570   */\n    tag_13:\n        /* \"#utility.yul\":2441:2445   */\n      0x00\n        /* \"#utility.yul\":2479:2481   */\n      0x20\n        /* \"#utility.yul\":2468:2477   */\n      dup3\n        /* \"#utility.yul\":2464:2482   */\n      add\n        /* \"#utility.yul\":2456:2482   */\n      swap1\n      pop\n        /* \"#utility.yul\":2492:2563   */\n      tag_68\n        /* \"#utility.yul\":2560:2561   */\n      0x00\n        /* \"#utility.yul\":2549:2558   */\n      dup4\n        /* \"#utility.yul\":2545:2562   */\n      add\n        /* \"#utility.yul\":2536:2542   */\n      dup5\n        /* \"#utility.yul\":2492:2563   */\n      tag_61\n      jump\t// in\n    tag_68:\n        /* \"#utility.yul\":2348:2570   */\n      swap3\n      swap2\n      pop\n      pop\n      jump\t// out\n        /* \"#utility.yul\":2657:2826   */\n    tag_58:\n        /* \"#utility.yul\":2741:2752   */\n      0x00\n        /* \"#utility.yul\":2775:2781   */\n      dup3\n        /* \"#utility.yul\":2770:2773   */\n      dup3\n        /* \"#utility.yul\":2763:2782   */\n      mstore\n        /* \"#utility.yul\":2815:2819   */\n      0x20\n        /* \"#utility.yul\":2810:2813   */\n      dup3\n        /* \"#utility.yul\":2806:2820   */\n      add\n        /* \"#utility.yul\":2791:2820   */\n      swap1\n      pop\n        /* \"#utility.yul\":2657:2826   */\n      swap3\n      swap2\n      pop\n      pop\n      jump\t// out\n        /* \"#utility.yul\":2832:3823   */\n    tag_28:\n        /* \"#utility.yul\":2871:2878   */\n      0x00\n        /* \"#utility.yul\":2894:2913   */\n      tag_73\n        /* \"#utility.yul\":2911:2912   */\n      dup3\n        /* \"#utility.yul\":2894:2913   */\n      tag_74\n      jump\t// in\n    tag_73:\n        /* \"#utility.yul\":2889:2913   */\n      swap2\n      pop\n        /* \"#utility.yul\":2927:2946   */\n      tag_75\n        /* \"#utility.yul\":2944:2945   */\n      dup4\n        /* \"#utility.yul\":2927:2946   */\n      tag_74\n      jump\t// in\n    tag_75:\n        /* \"#utility.yul\":2922:2946   */\n      swap3\n      pop\n        /* \"#utility.yul\":3128:3129   */\n      dup3\n        /* \"#utility.yul\":3060:3126   */\n      0x7fffffffffffffffffffffffffffffffffffffffffffffffffffffffffffffff\n        /* \"#utility.yul\":3056:3130   */\n      div\n        /* \"#utility.yul\":3053:3054   */\n      dup3\n        /* \"#utility.yul\":3050:3131   */\n      gt\n        /* \"#utility.yul\":3045:3046   */\n      0x00\n        /* \"#utility.yul\":3042:3043   */\n      dup5\n        /* \"#utility.yul\":3038:3047   */\n      sgt\n        /* \"#utility.yul\":3034:3035   */\n      0x00\n        /* \"#utility.yul\":3031:3032   */\n      dup5\n        /* \"#utility.yul\":3027:3036   */\n      sgt\n        /* \"#utility.yul\":3023:3048   */\n      and\n        /* \"#utility.yul\":3019:3132   */\n      and\n        /* \"#utility.yul\":3016:3155   */\n      iszero\n      tag_76\n      jumpi\n        /* \"#utility.yul\":3135:3153   */\n      tag_77\n      tag_78\n      jump\t// in\n    tag_77:\n        /* \"#utility.yul\":3016:3155   */\n    tag_76:\n        /* \"#utility.yul\":3339:3340   */\n      dup2\n        /* \"#utility.yul\":3271:3337   */\n      0x8000000000000000000000000000000000000000000000000000000000000000\n        /* \"#utility.yul\":3266:3341   */\n      sdiv\n        /* \"#utility.yul\":3263:3264   */\n      dup4\n        /* \"#utility.yul\":3259:3342   */\n      slt\n        /* \"#utility.yul\":3254:3255   */\n      0x00\n        /* \"#utility.yul\":3251:3252   */\n      dup5\n        /* \"#utility.yul\":3247:3256   */\n      slt\n        /* \"#utility.yul\":3243:3244   */\n      0x00\n        /* \"#utility.yul\":3240:3241   */\n      dup5\n        /* \"#utility.yul\":3236:3245   */\n      sgt\n        /* \"#utility.yul\":3232:3257   */\n      and\n        /* \"#utility.yul\":3228:3343   */\n      and\n        /* \"#utility.yul\":3225:3366   */\n      iszero\n      tag_79\n      jumpi\n        /* \"#utility.yul\":3346:3364   */\n      tag_80\n      tag_78\n      jump\t// in\n    tag_80:\n        /* \"#utility.yul\":3225:3366   */\n    tag_79:\n        /* \"#utility.yul\":3550:3551   */\n      dup3\n        /* \"#utility.yul\":3482:3548   */\n      0x8000000000000000000000000000000000000000000000000000000000000000\n        /* \"#utility.yul\":3477:3552   */\n      sdiv\n        /* \"#utility.yul\":3474:3475   */\n      dup3\n        /* \"#utility.yul\":3470:3553   */\n      slt\n        /* \"#utility.yul\":3465:3466   */\n      0x00\n        /* \"#utility.yul\":3462:3463   */\n      dup5\n        /* \"#utility.yul\":3458:3467   */\n      sgt\n        /* \"#utility.yul\":3454:3455   */\n      0x00\n        /* \"#utility.yul\":3451:3452   */\n      dup5\n        /* \"#utility.yul\":3447:3456   */\n      slt\n        /* \"#utility.yul\":3443:3468   */\n      and\n        /* \"#utility.yul\":3439:3554   */\n      and\n        /* \"#utility.yul\":3436:3577   */\n      iszero\n      tag_81\n      jumpi\n        /* \"#utility.yul\":3557:3575   */\n      tag_82\n      tag_78\n      jump\t// in\n    tag_82:\n        /* \"#utility.yul\":3436:3577   */\n    tag_81:\n        /* \"#utility.yul\":3760:3761   */\n      dup3\n        /* \"#utility.yul\":3692:3758   */\n      0x7fffffffffffffffffffffffffffffffffffffffffffffffffffffffffffffff\n        /* \"#utility.yul\":3687:3762   */\n      sdiv\n        /* \"#utility.yul\":3684:3685   */\n      dup3\n        /* \"#utility.yul\":3680:3763   */\n      slt\n        /* \"#utility.yul\":3675:3676   */\n      0x00\n        /* \"#utility.yul\":3672:3673   */\n      dup5\n        /* \"#utility.yul\":3668:3677   */\n      slt\n        /* \"#utility.yul\":3664:3665   */\n      0x00\n        /* \"#utility.yul\":3661:3662   */\n      dup5\n        /* \"#utility.yul\":3657:3666   */\n      slt\n        /* \"#utility.yul\":3653:3678   */\n      and\n        /* \"#utility.yul\":3649:3764   */\n      and\n        /* \"#utility.yul\":3646:3787   */\n      iszero\n      tag_83\n      jumpi\n        /* \"#utility.yul\":3767:3785   */\n      tag_84\n      tag_78\n      jump\t// in\n    tag_84:\n        /* \"#utility.yul\":3646:3787   */\n    tag_83:\n        /* \"#utility.yul\":3815:3816   */\n      dup3\n        /* \"#utility.yul\":3812:3813   */\n      dup3\n        /* \"#utility.yul\":3808:3817   */\n      mul\n        /* \"#utility.yul\":3797:3817   */\n      swap1\n      pop\n        /* \"#utility.yul\":2832:3823   */\n      swap3\n      swap2\n      pop\n      pop\n      jump\t// out\n        /* \"#utility.yul\":3829:3905   */\n    tag_74:\n        /* \"#utility.yul\":3865:3872   */\n      0x00\n        /* \"#utility.yul\":3894:3899   */\n      dup2\n        /* \"#utility.yul\":3883:3899   */\n      swap1\n      pop\n        /* \"#utility.yul\":3829:3905   */\n      swap2\n      swap1\n      pop\n      jump\t// out\n        /* \"#utility.yul\":3911:3988   */\n    tag_64:\n        /* \"#utility.yul\":3948:3955   */\n      0x00\n        /* \"#utility.yul\":3977:3982   */\n      dup2\n        /* \"#utility.yul\":3966:3982   */\n      swap1\n      pop\n        /* \"#utility.yul\":3911:3988   */\n      swap2\n      swap1\n      pop\n      jump\t// out\n        /* \"#utility.yul\":3994:4099   */\n    tag_87:\n        /* \"#utility.yul\":4030:4037   */\n      0x00\n        /* \"#utility.yul\":4070:4092   */\n      0xffffffffffffffffffff\n        /* \"#utility.yul\":4063:4068   */\n      dup3\n        /* \"#utility.yul\":4059:4093   */\n      and\n        /* \"#utility.yul\":4048:4093   */\n      swap1\n      pop\n        /* \"#utility.yul\":3994:4099   */\n      swap2\n      swap1\n      pop\n      jump\t// out\n        /* \"#utility.yul\":4105:4285   */\n    tag_78:\n        /* \"#utility.yul\":4153:4230   */\n      0x4e487b7100000000000000000000000000000000000000000000000000000000\n        /* \"#utility.yul\":4150:4151   */\n      0x00\n        /* \"#utility.yul\":4143:4231   */\n      mstore\n        /* \"#utility.yul\":4250:4254   */\n      0x11\n        /* \"#utility.yul\":4247:4248   */\n      0x04\n        /* \"#utility.yul\":4240:4255   */\n      mstore\n        /* \"#utility.yul\":4274:4278   */\n      0x24\n        /* \"#utility.yul\":4271:4272   */\n      0x00\n        /* \"#utility.yul\":4264:4279   */\n      revert\n        /* \"#utility.yul\":4414:4531   */\n    tag_49:\n        /* \"#utility.yul\":4523:4524   */\n      0x00\n        /* \"#utility.yul\":4520:4521   */\n      dup1\n        /* \"#utility.yul\":4513:4525   */\n      revert\n        /* \"#utility.yul\":4537:4697   */\n    tag_60:\n        /* \"#utility.yul\":4677:4689   */\n      0x4e6f7420656e6f75676800000000000000000000000000000000000000000000\n        /* \"#utility.yul\":4673:4674   */\n      0x00\n        /* \"#utility.yul\":4665:4671   */\n      dup3\n        /* \"#utility.yul\":4661:4675   */\n      add\n        /* \"#utility.yul\":4654:4690   */\n      mstore\n        /* \"#utility.yul\":4537:4697   */\n      pop\n      jump\t// out\n        /* \"#utility.yul\":4703:4823   */\n    tag_37:\n        /* \"#utility.yul\":4775:4798   */\n      tag_95\n        /* \"#utility.yul\":4792:4797   */\n      dup2\n        /* \"#utility.yul\":4775:4798   */\n      tag_74\n      jump\t// in\n    tag_95:\n        /* \"#utility.yul\":4768:4773   */\n      dup2\n        /* \"#utility.yul\":4765:4799   */\n      eq\n        /* \"#utility.yul\":4755:4817   */\n      tag_96\n      jumpi\n        /* \"#utility.yul\":4813:4814   */\n      0x00\n        /* \"#utility.yul\":4810:4811   */\n      dup1\n        /* \"#utility.yul\":4803:4815   */\n      revert\n        /* \"#utility.yul\":4755:4817   */\n    tag_96:\n        /* \"#utility.yul\":4703:4823   */\n      pop\n      jump\t// out\n        /* \"#utility.yul\":4829:4951   */\n    tag_41:\n        /* \"#utility.yul\":4902:4926   */\n      tag_98\n        /* \"#utility.yul\":4920:4925   */\n      dup2\n        /* \"#utility.yul\":4902:4926   */\n      tag_64\n      jump\t// in\n    tag_98:\n        /* \"#utility.yul\":4895:4900   */\n      dup2\n        /* \"#utility.yul\":4892:4927   */\n      eq\n        /* \"#utility.yul\":4882:4945   */\n      tag_99\n      jumpi\n        /* \"#utility.yul\":4941:4942   */\n      0x00\n        /* \"#utility.yul\":4938:4939   */\n      dup1\n        /* \"#utility.yul\":4931:4943   */\n      revert\n        /* \"#utility.yul\":4882:4945   */\n    tag_99:\n        /* \"#utility.yul\":4829:4951   */\n      pop\n      jump\t// out\n        /* \"#utility.yul\":4957:5077   */\n    tag_45:\n        /* \"#utility.yul\":5029:5052   */\n      tag_101\n        /* \"#utility.yul\":5046:5051   */\n      dup2\n        /* \"#utility.yul\":5029:5052   */\n      tag_87\n      jump\t// in\n    tag_101:\n        /* \"#utility.yul\":5022:5027   */\n      dup2\n        /* \"#utility.yul\":5019:5053   */\n      eq\n        /* \"#utility.yul\":5009:5071   */\n      tag_102\n      jumpi\n        /* \"#utility.yul\":5067:5068   */\n      0x00\n        /* \"#utility.yul\":5064:5065   */\n      dup1\n        /* \"#utility.yul\":5057:5069   */\n      revert\n        /* \"#utility.yul\":5009:5071   */\n    tag_102:\n        /* \"#utility.yul\":4957:5077   */\n      pop\n      jump\t// out\n\n    auxdata: 0xa264697066735822122066cf270ae171d48c7f21e16e95f00de09d4cc20d0f423388b81122e3f0b068f764736f6c63430008070033\n}\n",
				"bytecode": {
					"linkReferences": {},
					"object": "6080604052603260005534801561001557600080fd5b50610513806100256000396000f3fe60806040526004361061003f5760003560e01c806350ce24201461004457806375263f221461005b57806398d5fdca14610086578063b60d4288146100b1575b600080fd5b34801561005057600080fd5b506100596100bb565b005b34801561006757600080fd5b506100706100bd565b60405161007d91906102ce565b60405180910390f35b34801561009257600080fd5b5061009b6100c3565b6040516100a891906102ce565b60405180910390f35b6100b961017b565b005b565b60005481565b60008073d4a33860578de61dbabdc8bfdb98fd742fa7028e905060008173ffffffffffffffffffffffffffffffffffffffff1663feaf968c6040518163ffffffff1660e01b815260040160a06040518083038186803b15801561012557600080fd5b505afa158015610139573d6000803e3d6000fd5b505050506040513d601f19601f8201168201806040525081019061015d9190610201565b5050509150506402540be4008161017491906102fa565b9250505090565b6000543410156101c0576040517f08c379a00000000000000000000000000000000000000000000000000000000081526004016101b7906102ae565b60405180910390fd5b565b6000815190506101d181610498565b92915050565b6000815190506101e6816104af565b92915050565b6000815190506101fb816104c6565b92915050565b600080600080600060a0868803121561021d5761021c61046a565b5b600061022b888289016101ec565b955050602061023c888289016101c2565b945050604061024d888289016101d7565b935050606061025e888289016101d7565b925050608061026f888289016101ec565b9150509295509295909350565b6000610289600a836102e9565b91506102948261046f565b602082019050919050565b6102a88161041b565b82525050565b600060208201905081810360008301526102c78161027c565b9050919050565b60006020820190506102e3600083018461029f565b92915050565b600082825260208201905092915050565b600061030582610411565b915061031083610411565b9250827f7fffffffffffffffffffffffffffffffffffffffffffffffffffffffffffffff048211600084136000841316161561034f5761034e61043b565b5b817f8000000000000000000000000000000000000000000000000000000000000000058312600084126000841316161561038c5761038b61043b565b5b827f800000000000000000000000000000000000000000000000000000000000000005821260008413600084121616156103c9576103c861043b565b5b827f7fffffffffffffffffffffffffffffffffffffffffffffffffffffffffffffff05821260008412600084121616156104065761040561043b565b5b828202905092915050565b6000819050919050565b6000819050919050565b600069ffffffffffffffffffff82169050919050565b7f4e487b7100000000000000000000000000000000000000000000000000000000600052601160045260246000fd5b600080fd5b7f4e6f7420656e6f75676800000000000000000000000000000000000000000000600082015250565b6104a181610411565b81146104ac57600080fd5b50565b6104b88161041b565b81146104c357600080fd5b50565b6104cf81610425565b81146104da57600080fd5b5056fea264697066735822122066cf270ae171d48c7f21e16e95f00de09d4cc20d0f423388b81122e3f0b068f764736f6c63430008070033",
					"opcodes": "PUSH1 0x80 PUSH1 0x40 MSTORE PUSH1 0x32 PUSH1 0x0 SSTORE CALLVALUE DUP1 ISZERO PUSH2 0x15 JUMPI PUSH1 0x0 DUP1 REVERT JUMPDEST POP PUSH2 0x513 DUP1 PUSH2 0x25 PUSH1 0x0 CODECOPY PUSH1 0x0 RETURN INVALID PUSH1 0x80 PUSH1 0x40 MSTORE PUSH1 0x4 CALLDATASIZE LT PUSH2 0x3F JUMPI PUSH1 0x0 CALLDATALOAD PUSH1 0xE0 SHR DUP1 PUSH4 0x50CE2420 EQ PUSH2 0x44 JUMPI DUP1 PUSH4 0x75263F22 EQ PUSH2 0x5B JUMPI DUP1 PUSH4 0x98D5FDCA EQ PUSH2 0x86 JUMPI DUP1 PUSH4 0xB60D4288 EQ PUSH2 0xB1 JUMPI JUMPDEST PUSH1 0x0 DUP1 REVERT JUMPDEST CALLVALUE DUP1 ISZERO PUSH2 0x50 JUMPI PUSH1 0x0 DUP1 REVERT JUMPDEST POP PUSH2 0x59 PUSH2 0xBB JUMP JUMPDEST STOP JUMPDEST CALLVALUE DUP1 ISZERO PUSH2 0x67 JUMPI PUSH1 0x0 DUP1 REVERT JUMPDEST POP PUSH2 0x70 PUSH2 0xBD JUMP JUMPDEST PUSH1 0x40 MLOAD PUSH2 0x7D SWAP2 SWAP1 PUSH2 0x2CE JUMP JUMPDEST PUSH1 0x40 MLOAD DUP1 SWAP2 SUB SWAP1 RETURN JUMPDEST CALLVALUE DUP1 ISZERO PUSH2 0x92 JUMPI PUSH1 0x0 DUP1 REVERT JUMPDEST POP PUSH2 0x9B PUSH2 0xC3 JUMP JUMPDEST PUSH1 0x40 MLOAD PUSH2 0xA8 SWAP2 SWAP1 PUSH2 0x2CE JUMP JUMPDEST PUSH1 0x40 MLOAD DUP1 SWAP2 SUB SWAP1 RETURN JUMPDEST PUSH2 0xB9 PUSH2 0x17B JUMP JUMPDEST STOP JUMPDEST JUMP JUMPDEST PUSH1 0x0 SLOAD DUP2 JUMP JUMPDEST PUSH1 0x0 DUP1 PUSH20 0xD4A33860578DE61DBABDC8BFDB98FD742FA7028E SWAP1 POP PUSH1 0x0 DUP2 PUSH20 0xFFFFFFFFFFFFFFFFFFFFFFFFFFFFFFFFFFFFFFFF AND PUSH4 0xFEAF968C PUSH1 0x40 MLOAD DUP2 PUSH4 0xFFFFFFFF AND PUSH1 0xE0 SHL DUP2 MSTORE PUSH1 0x4 ADD PUSH1 0xA0 PUSH1 0x40 MLOAD DUP1 DUP4 SUB DUP2 DUP7 DUP1 EXTCODESIZE ISZERO DUP1 ISZERO PUSH2 0x125 JUMPI PUSH1 0x0 DUP1 REVERT JUMPDEST POP GAS STATICCALL ISZERO DUP1 ISZERO PUSH2 0x139 JUMPI RETURNDATASIZE PUSH1 0x0 DUP1 RETURNDATACOPY RETURNDATASIZE PUSH1 0x0 REVERT JUMPDEST POP POP POP POP PUSH1 0x40 MLOAD RETURNDATASIZE PUSH1 0x1F NOT PUSH1 0x1F DUP3 ADD AND DUP3 ADD DUP1 PUSH1 0x40 MSTORE POP DUP2 ADD SWAP1 PUSH2 0x15D SWAP2 SWAP1 PUSH2 0x201 JUMP JUMPDEST POP POP POP SWAP2 POP POP PUSH5 0x2540BE400 DUP2 PUSH2 0x174 SWAP2 SWAP1 PUSH2 0x2FA JUMP JUMPDEST SWAP3 POP POP POP SWAP1 JUMP JUMPDEST PUSH1 0x0 SLOAD CALLVALUE LT ISZERO PUSH2 0x1C0 JUMPI PUSH1 0x40 MLOAD PUSH32 0x8C379A000000000000000000000000000000000000000000000000000000000 DUP2 MSTORE PUSH1 0x4 ADD PUSH2 0x1B7 SWAP1 PUSH2 0x2AE JUMP JUMPDEST PUSH1 0x40 MLOAD DUP1 SWAP2 SUB SWAP1 REVERT JUMPDEST JUMP JUMPDEST PUSH1 0x0 DUP2 MLOAD SWAP1 POP PUSH2 0x1D1 DUP2 PUSH2 0x498 JUMP JUMPDEST SWAP3 SWAP2 POP POP JUMP JUMPDEST PUSH1 0x0 DUP2 MLOAD SWAP1 POP PUSH2 0x1E6 DUP2 PUSH2 0x4AF JUMP JUMPDEST SWAP3 SWAP2 POP POP JUMP JUMPDEST PUSH1 0x0 DUP2 MLOAD SWAP1 POP PUSH2 0x1FB DUP2 PUSH2 0x4C6 JUMP JUMPDEST SWAP3 SWAP2 POP POP JUMP JUMPDEST PUSH1 0x0 DUP1 PUSH1 0x0 DUP1 PUSH1 0x0 PUSH1 0xA0 DUP7 DUP9 SUB SLT ISZERO PUSH2 0x21D JUMPI PUSH2 0x21C PUSH2 0x46A JUMP JUMPDEST JUMPDEST PUSH1 0x0 PUSH2 0x22B DUP9 DUP3 DUP10 ADD PUSH2 0x1EC JUMP JUMPDEST SWAP6 POP POP PUSH1 0x20 PUSH2 0x23C DUP9 DUP3 DUP10 ADD PUSH2 0x1C2 JUMP JUMPDEST SWAP5 POP POP PUSH1 0x40 PUSH2 0x24D DUP9 DUP3 DUP10 ADD PUSH2 0x1D7 JUMP JUMPDEST SWAP4 POP POP PUSH1 0x60 PUSH2 0x25E DUP9 DUP3 DUP10 ADD PUSH2 0x1D7 JUMP JUMPDEST SWAP3 POP POP PUSH1 0x80 PUSH2 0x26F DUP9 DUP3 DUP10 ADD PUSH2 0x1EC JUMP JUMPDEST SWAP2 POP POP SWAP3 SWAP6 POP SWAP3 SWAP6 SWAP1 SWAP4 POP JUMP JUMPDEST PUSH1 0x0 PUSH2 0x289 PUSH1 0xA DUP4 PUSH2 0x2E9 JUMP JUMPDEST SWAP2 POP PUSH2 0x294 DUP3 PUSH2 0x46F JUMP JUMPDEST PUSH1 0x20 DUP3 ADD SWAP1 POP SWAP2 SWAP1 POP JUMP JUMPDEST PUSH2 0x2A8 DUP2 PUSH2 0x41B JUMP JUMPDEST DUP3 MSTORE POP POP JUMP JUMPDEST PUSH1 0x0 PUSH1 0x20 DUP3 ADD SWAP1 POP DUP2 DUP2 SUB PUSH1 0x0 DUP4 ADD MSTORE PUSH2 0x2C7 DUP2 PUSH2 0x27C JUMP JUMPDEST SWAP1 POP SWAP2 SWAP1 POP JUMP JUMPDEST PUSH1 0x0 PUSH1 0x20 DUP3 ADD SWAP1 POP PUSH2 0x2E3 PUSH1 0x0 DUP4 ADD DUP5 PUSH2 0x29F JUMP JUMPDEST SWAP3 SWAP2 POP POP JUMP JUMPDEST PUSH1 0x0 DUP3 DUP3 MSTORE PUSH1 0x20 DUP3 ADD SWAP1 POP SWAP3 SWAP2 POP POP JUMP JUMPDEST PUSH1 0x0 PUSH2 0x305 DUP3 PUSH2 0x411 JUMP JUMPDEST SWAP2 POP PUSH2 0x310 DUP4 PUSH2 0x411 JUMP JUMPDEST SWAP3 POP DUP3 PUSH32 0x7FFFFFFFFFFFFFFFFFFFFFFFFFFFFFFFFFFFFFFFFFFFFFFFFFFFFFFFFFFFFFFF DIV DUP3 GT PUSH1 0x0 DUP5 SGT PUSH1 0x0 DUP5 SGT AND AND ISZERO PUSH2 0x34F JUMPI PUSH2 0x34E PUSH2 0x43B JUMP JUMPDEST JUMPDEST DUP2 PUSH32 0x8000000000000000000000000000000000000000000000000000000000000000 SDIV DUP4 SLT PUSH1 0x0 DUP5 SLT PUSH1 0x0 DUP5 SGT AND AND ISZERO PUSH2 0x38C JUMPI PUSH2 0x38B PUSH2 0x43B JUMP JUMPDEST JUMPDEST DUP3 PUSH32 0x8000000000000000000000000000000000000000000000000000000000000000 SDIV DUP3 SLT PUSH1 0x0 DUP5 SGT PUSH1 0x0 DUP5 SLT AND AND ISZERO PUSH2 0x3C9 JUMPI PUSH2 0x3C8 PUSH2 0x43B JUMP JUMPDEST JUMPDEST DUP3 PUSH32 0x7FFFFFFFFFFFFFFFFFFFFFFFFFFFFFFFFFFFFFFFFFFFFFFFFFFFFFFFFFFFFFFF SDIV DUP3 SLT PUSH1 0x0 DUP5 SLT PUSH1 0x0 DUP5 SLT AND AND ISZERO PUSH2 0x406 JUMPI PUSH2 0x405 PUSH2 0x43B JUMP JUMPDEST JUMPDEST DUP3 DUP3 MUL SWAP1 POP SWAP3 SWAP2 POP POP JUMP JUMPDEST PUSH1 0x0 DUP2 SWAP1 POP SWAP2 SWAP1 POP JUMP JUMPDEST PUSH1 0x0 DUP2 SWAP1 POP SWAP2 SWAP1 POP JUMP JUMPDEST PUSH1 0x0 PUSH10 0xFFFFFFFFFFFFFFFFFFFF DUP3 AND SWAP1 POP SWAP2 SWAP1 POP JUMP JUMPDEST PUSH32 0x4E487B7100000000000000000000000000000000000000000000000000000000 PUSH1 0x0 MSTORE PUSH1 0x11 PUSH1 0x4 MSTORE PUSH1 0x24 PUSH1 0x0 REVERT JUMPDEST PUSH1 0x0 DUP1 REVERT JUMPDEST PUSH32 0x4E6F7420656E6F75676800000000000000000000000000000000000000000000 PUSH1 0x0 DUP3 ADD MSTORE POP JUMP JUMPDEST PUSH2 0x4A1 DUP2 PUSH2 0x411 JUMP JUMPDEST DUP2 EQ PUSH2 0x4AC JUMPI PUSH1 0x0 DUP1 REVERT JUMPDEST POP JUMP JUMPDEST PUSH2 0x4B8 DUP2 PUSH2 0x41B JUMP JUMPDEST DUP2 EQ PUSH2 0x4C3 JUMPI PUSH1 0x0 DUP1 REVERT JUMPDEST POP JUMP JUMPDEST PUSH2 0x4CF DUP2 PUSH2 0x425 JUMP JUMPDEST DUP2 EQ PUSH2 0x4DA JUMPI PUSH1 0x0 DUP1 REVERT JUMPDEST POP JUMP INVALID LOG2 PUSH5 0x6970667358 0x22 SLT KECCAK256 PUSH7 0xCF270AE171D48C PUSH32 0x21E16E95F00DE09D4CC20D0F423388B81122E3F0B068F764736F6C6343000807 STOP CALLER "
				},
				"gasEstimates": {
					"creation": {
						"codeDepositCost": "259800",
						"executionCost": "22406",
						"totalCost": "282206"
					},
					"external": {
						"fund()": "2578",
						"getConversationRate()": "122",
						"getPrice()": "infinite",
						"miminumUsd()": "2429"
					}
				},
				"methodIdentifiers": {
					"fund()": "b60d4288",
					"getConversationRate()": "50ce2420",
					"getPrice()": "98d5fdca",
					"miminumUsd()": "75263f22"
				}
			},
			"storageLayout": {
				"storage": [
					{
						"astId": 51,
						"contract": "contracts/FundMe.sol:fundMe",
						"label": "miminumUsd",
						"offset": 0,
						"slot": "0",
						"type": "t_uint256"
					}
				],
				"types": {
					"t_uint256": {
						"encoding": "inplace",
						"label": "uint256",
						"numberOfBytes": "32"
					}
				}
			},
			"userdoc": {
				"kind": "user",
				"methods": {},
				"version": 1
			}
		}
	}
}