{
	"contracts/SimpleStorage.sol": {
		"SimpleStorage": {
			"abi": [
				{
					"inputs": [
						{
							"internalType": "string",
							"name": "_name",
							"type": "string"
						},
						{
							"internalType": "uint256",
							"name": "_favouriteNumber",
							"type": "uint256"
						}
					],
					"name": "addPerson",
					"outputs": [],
					"stateMutability": "nonpayable",
					"type": "function"
				},
				{
					"inputs": [
						{
							"internalType": "uint256",
							"name": "",
							"type": "uint256"
						}
					],
					"name": "people",
					"outputs": [
						{
							"internalType": "uint256",
							"name": "favoriteNumber",
							"type": "uint256"
						},
						{
							"internalType": "string",
							"name": "name",
							"type": "string"
						}
					],
					"stateMutability": "view",
					"type": "function"
				},
				{
					"inputs": [],
					"name": "retrieve",
					"outputs": [
						{
							"internalType": "uint256",
							"name": "",
							"type": "uint256"
						}
					],
					"stateMutability": "view",
					"type": "function"
				},
				{
					"inputs": [
						{
							"internalType": "uint256",
							"name": "_favouriteNumber",
							"type": "uint256"
						}
					],
					"name": "store",
					"outputs": [],
					"stateMutability": "nonpayable",
					"type": "function"
				}
			],
			"devdoc": {
				"kind": "dev",
				"methods": {},
				"version": 1
			},
			"evm": {
				"assembly": "    /* \"contracts/SimpleStorage.sol\":124:1167  contract SimpleStorage {... */\n  mstore(0x40, 0x80)\n  callvalue\n  dup1\n  iszero\n  tag_1\n  jumpi\n  0x00\n  dup1\n  revert\ntag_1:\n  pop\n  dataSize(sub_0)\n  dup1\n  dataOffset(sub_0)\n  0x00\n  codecopy\n  0x00\n  return\nstop\n\nsub_0: assembly {\n        /* \"contracts/SimpleStorage.sol\":124:1167  contract SimpleStorage {... */\n      mstore(0x40, 0x80)\n      callvalue\n      dup1\n      iszero\n      tag_1\n      jumpi\n      0x00\n      dup1\n      revert\n    tag_1:\n      pop\n      jumpi(tag_2, lt(calldatasize, 0x04))\n      shr(0xe0, calldataload(0x00))\n      dup1\n      0x2e64cec1\n      eq\n      tag_3\n      jumpi\n      dup1\n      0x6057361d\n      eq\n      tag_4\n      jumpi\n      dup1\n      0x6f760f41\n      eq\n      tag_5\n      jumpi\n      dup1\n      0x9e7a13ad\n      eq\n      tag_6\n      jumpi\n    tag_2:\n      0x00\n      dup1\n      revert\n        /* \"contracts/SimpleStorage.sol\":840:931  function retrieve() public view returns(uint256){... */\n    tag_3:\n      tag_7\n      tag_8\n      jump\t// in\n    tag_7:\n      mload(0x40)\n      tag_9\n      swap2\n      swap1\n      tag_10\n      jump\t// in\n    tag_9:\n      mload(0x40)\n      dup1\n      swap2\n      sub\n      swap1\n      return\n        /* \"contracts/SimpleStorage.sol\":355:462  function store(uint256 _favouriteNumber) public {... */\n    tag_4:\n      tag_11\n      0x04\n      dup1\n      calldatasize\n      sub\n      dup2\n      add\n      swap1\n      tag_12\n      swap2\n      swap1\n      tag_13\n      jump\t// in\n    tag_12:\n      tag_14\n      jump\t// in\n    tag_11:\n      stop\n        /* \"contracts/SimpleStorage.sol\":937:1162  function addPerson(string memory _name, uint256 _favouriteNumber) public {... */\n    tag_5:\n      tag_15\n      0x04\n      dup1\n      calldatasize\n      sub\n      dup2\n      add\n      swap1\n      tag_16\n      swap2\n      swap1\n      tag_17\n      jump\t// in\n    tag_16:\n      tag_18\n      jump\t// in\n    tag_15:\n      stop\n        /* \"contracts/SimpleStorage.sol\":326:348  People[] public people */\n    tag_6:\n      tag_19\n      0x04\n      dup1\n      calldatasize\n      sub\n      dup2\n      add\n      swap1\n      tag_20\n      swap2\n      swap1\n      tag_13\n      jump\t// in\n    tag_20:\n      tag_21\n      jump\t// in\n    tag_19:\n      mload(0x40)\n      tag_22\n      swap3\n      swap2\n      swap1\n      tag_23\n      jump\t// in\n    tag_22:\n      mload(0x40)\n      dup1\n      swap2\n      sub\n      swap1\n      return\n        /* \"contracts/SimpleStorage.sol\":840:931  function retrieve() public view returns(uint256){... */\n    tag_8:\n        /* \"contracts/SimpleStorage.sol\":880:887  uint256 */\n      0x00\n        /* \"contracts/SimpleStorage.sol\":922:923  2 */\n      0x02\n        /* \"contracts/SimpleStorage.sol\":905:919  favoriteNumber */\n      sload(0x00)\n        /* \"contracts/SimpleStorage.sol\":905:923  favoriteNumber * 2 */\n      tag_25\n      swap2\n      swap1\n      tag_26\n      jump\t// in\n    tag_25:\n        /* \"contracts/SimpleStorage.sol\":898:923  return favoriteNumber * 2 */\n      swap1\n      pop\n        /* \"contracts/SimpleStorage.sol\":840:931  function retrieve() public view returns(uint256){... */\n      swap1\n      jump\t// out\n        /* \"contracts/SimpleStorage.sol\":355:462  function store(uint256 _favouriteNumber) public {... */\n    tag_14:\n        /* \"contracts/SimpleStorage.sol\":430:446  _favouriteNumber */\n      dup1\n        /* \"contracts/SimpleStorage.sol\":413:427  favoriteNumber */\n      0x00\n        /* \"contracts/SimpleStorage.sol\":413:446  favoriteNumber = _favouriteNumber */\n      dup2\n      swap1\n      sstore\n      pop\n        /* \"contracts/SimpleStorage.sol\":355:462  function store(uint256 _favouriteNumber) public {... */\n      pop\n      jump\t// out\n        /* \"contracts/SimpleStorage.sol\":937:1162  function addPerson(string memory _name, uint256 _favouriteNumber) public {... */\n    tag_18:\n        /* \"contracts/SimpleStorage.sol\":1020:1043  People memory newPerson */\n      0x00\n        /* \"contracts/SimpleStorage.sol\":1046:1101  People({favoriteNumber: _favouriteNumber, name: _name}) */\n      mload(0x40)\n      dup1\n      0x40\n      add\n      0x40\n      mstore\n      dup1\n        /* \"contracts/SimpleStorage.sol\":1070:1086  _favouriteNumber */\n      dup4\n        /* \"contracts/SimpleStorage.sol\":1046:1101  People({favoriteNumber: _favouriteNumber, name: _name}) */\n      dup2\n      mstore\n      0x20\n      add\n        /* \"contracts/SimpleStorage.sol\":1094:1099  _name */\n      dup5\n        /* \"contracts/SimpleStorage.sol\":1046:1101  People({favoriteNumber: _favouriteNumber, name: _name}) */\n      dup2\n      mstore\n      pop\n        /* \"contracts/SimpleStorage.sol\":1020:1101  People memory newPerson = People({favoriteNumber: _favouriteNumber, name: _name}) */\n      swap1\n      pop\n        /* \"contracts/SimpleStorage.sol\":1111:1117  people */\n      0x01\n        /* \"contracts/SimpleStorage.sol\":1123:1154  People(_favouriteNumber, _name) */\n      mload(0x40)\n      dup1\n      0x40\n      add\n      0x40\n      mstore\n      dup1\n        /* \"contracts/SimpleStorage.sol\":1130:1146  _favouriteNumber */\n      dup5\n        /* \"contracts/SimpleStorage.sol\":1123:1154  People(_favouriteNumber, _name) */\n      dup2\n      mstore\n      0x20\n      add\n        /* \"contracts/SimpleStorage.sol\":1148:1153  _name */\n      dup6\n        /* \"contracts/SimpleStorage.sol\":1123:1154  People(_favouriteNumber, _name) */\n      dup2\n      mstore\n      pop\n        /* \"contracts/SimpleStorage.sol\":1111:1155  people.push(People(_favouriteNumber, _name)) */\n      swap1\n      dup1\n      0x01\n      dup2\n      sload\n      add\n      dup1\n      dup3\n      sstore\n      dup1\n      swap2\n      pop\n      pop\n      0x01\n      swap1\n      sub\n      swap1\n      0x00\n      mstore\n      keccak256(0x00, 0x20)\n      swap1\n      0x02\n      mul\n      add\n      0x00\n      swap1\n      swap2\n      swap1\n      swap2\n      swap1\n      swap2\n      pop\n      0x00\n      dup3\n      add\n      mload\n      dup2\n      0x00\n      add\n      sstore\n      0x20\n      dup3\n      add\n      mload\n      dup2\n      0x01\n      add\n      swap1\n      dup2\n      tag_30\n      swap2\n      swap1\n      tag_31\n      jump\t// in\n    tag_30:\n      pop\n      pop\n      pop\n        /* \"contracts/SimpleStorage.sol\":1010:1162  {... */\n      pop\n        /* \"contracts/SimpleStorage.sol\":937:1162  function addPerson(string memory _name, uint256 _favouriteNumber) public {... */\n      pop\n      pop\n      jump\t// out\n        /* \"contracts/SimpleStorage.sol\":326:348  People[] public people */\n    tag_21:\n      0x01\n      dup2\n      dup2\n      sload\n      dup2\n      lt\n      tag_32\n      jumpi\n      0x00\n      dup1\n      revert\n    tag_32:\n      swap1\n      0x00\n      mstore\n      keccak256(0x00, 0x20)\n      swap1\n      0x02\n      mul\n      add\n      0x00\n      swap2\n      pop\n      swap1\n      pop\n      dup1\n      0x00\n      add\n      sload\n      swap1\n      dup1\n      0x01\n      add\n      dup1\n      sload\n      tag_34\n      swap1\n      tag_35\n      jump\t// in\n    tag_34:\n      dup1\n      0x1f\n      add\n      0x20\n      dup1\n      swap2\n      div\n      mul\n      0x20\n      add\n      mload(0x40)\n      swap1\n      dup2\n      add\n      0x40\n      mstore\n      dup1\n      swap3\n      swap2\n      swap1\n      dup2\n      dup2\n      mstore\n      0x20\n      add\n      dup3\n      dup1\n      sload\n      tag_36\n      swap1\n      tag_35\n      jump\t// in\n    tag_36:\n      dup1\n      iszero\n      tag_37\n      jumpi\n      dup1\n      0x1f\n      lt\n      tag_38\n      jumpi\n      0x0100\n      dup1\n      dup4\n      sload\n      div\n      mul\n      dup4\n      mstore\n      swap2\n      0x20\n      add\n      swap2\n      jump(tag_37)\n    tag_38:\n      dup3\n      add\n      swap2\n      swap1\n      0x00\n      mstore\n      keccak256(0x00, 0x20)\n      swap1\n    tag_39:\n      dup2\n      sload\n      dup2\n      mstore\n      swap1\n      0x01\n      add\n      swap1\n      0x20\n      add\n      dup1\n      dup4\n      gt\n      tag_39\n      jumpi\n      dup3\n      swap1\n      sub\n      0x1f\n      and\n      dup3\n      add\n      swap2\n    tag_37:\n      pop\n      pop\n      pop\n      pop\n      pop\n      swap1\n      pop\n      dup3\n      jump\t// out\n        /* \"#utility.yul\":7:84   */\n    tag_40:\n        /* \"#utility.yul\":44:51   */\n      0x00\n        /* \"#utility.yul\":73:78   */\n      dup2\n        /* \"#utility.yul\":62:78   */\n      swap1\n      pop\n        /* \"#utility.yul\":7:84   */\n      swap2\n      swap1\n      pop\n      jump\t// out\n        /* \"#utility.yul\":90:208   */\n    tag_41:\n        /* \"#utility.yul\":177:201   */\n      tag_81\n        /* \"#utility.yul\":195:200   */\n      dup2\n        /* \"#utility.yul\":177:201   */\n      tag_40\n      jump\t// in\n    tag_81:\n        /* \"#utility.yul\":172:175   */\n      dup3\n        /* \"#utility.yul\":165:202   */\n      mstore\n        /* \"#utility.yul\":90:208   */\n      pop\n      pop\n      jump\t// out\n        /* \"#utility.yul\":214:436   */\n    tag_10:\n        /* \"#utility.yul\":307:311   */\n      0x00\n        /* \"#utility.yul\":345:347   */\n      0x20\n        /* \"#utility.yul\":334:343   */\n      dup3\n        /* \"#utility.yul\":330:348   */\n      add\n        /* \"#utility.yul\":322:348   */\n      swap1\n      pop\n        /* \"#utility.yul\":358:429   */\n      tag_83\n        /* \"#utility.yul\":426:427   */\n      0x00\n        /* \"#utility.yul\":415:424   */\n      dup4\n        /* \"#utility.yul\":411:428   */\n      add\n        /* \"#utility.yul\":402:408   */\n      dup5\n        /* \"#utility.yul\":358:429   */\n      tag_41\n      jump\t// in\n    tag_83:\n        /* \"#utility.yul\":214:436   */\n      swap3\n      swap2\n      pop\n      pop\n      jump\t// out\n        /* \"#utility.yul\":442:517   */\n    tag_42:\n        /* \"#utility.yul\":475:481   */\n      0x00\n        /* \"#utility.yul\":508:510   */\n      0x40\n        /* \"#utility.yul\":502:511   */\n      mload\n        /* \"#utility.yul\":492:511   */\n      swap1\n      pop\n        /* \"#utility.yul\":442:517   */\n      swap1\n      jump\t// out\n        /* \"#utility.yul\":523:640   */\n    tag_43:\n        /* \"#utility.yul\":632:633   */\n      0x00\n        /* \"#utility.yul\":629:630   */\n      dup1\n        /* \"#utility.yul\":622:634   */\n      revert\n        /* \"#utility.yul\":646:763   */\n    tag_44:\n        /* \"#utility.yul\":755:756   */\n      0x00\n        /* \"#utility.yul\":752:753   */\n      dup1\n        /* \"#utility.yul\":745:757   */\n      revert\n        /* \"#utility.yul\":769:891   */\n    tag_45:\n        /* \"#utility.yul\":842:866   */\n      tag_88\n        /* \"#utility.yul\":860:865   */\n      dup2\n        /* \"#utility.yul\":842:866   */\n      tag_40\n      jump\t// in\n    tag_88:\n        /* \"#utility.yul\":835:840   */\n      dup2\n        /* \"#utility.yul\":832:867   */\n      eq\n        /* \"#utility.yul\":822:885   */\n      tag_89\n      jumpi\n        /* \"#utility.yul\":881:882   */\n      0x00\n        /* \"#utility.yul\":878:879   */\n      dup1\n        /* \"#utility.yul\":871:883   */\n      revert\n        /* \"#utility.yul\":822:885   */\n    tag_89:\n        /* \"#utility.yul\":769:891   */\n      pop\n      jump\t// out\n        /* \"#utility.yul\":897:1036   */\n    tag_46:\n        /* \"#utility.yul\":943:948   */\n      0x00\n        /* \"#utility.yul\":981:987   */\n      dup2\n        /* \"#utility.yul\":968:988   */\n      calldataload\n        /* \"#utility.yul\":959:988   */\n      swap1\n      pop\n        /* \"#utility.yul\":997:1030   */\n      tag_91\n        /* \"#utility.yul\":1024:1029   */\n      dup2\n        /* \"#utility.yul\":997:1030   */\n      tag_45\n      jump\t// in\n    tag_91:\n        /* \"#utility.yul\":897:1036   */\n      swap3\n      swap2\n      pop\n      pop\n      jump\t// out\n        /* \"#utility.yul\":1042:1371   */\n    tag_13:\n        /* \"#utility.yul\":1101:1107   */\n      0x00\n        /* \"#utility.yul\":1150:1152   */\n      0x20\n        /* \"#utility.yul\":1138:1147   */\n      dup3\n        /* \"#utility.yul\":1129:1136   */\n      dup5\n        /* \"#utility.yul\":1125:1148   */\n      sub\n        /* \"#utility.yul\":1121:1153   */\n      slt\n        /* \"#utility.yul\":1118:1237   */\n      iszero\n      tag_93\n      jumpi\n        /* \"#utility.yul\":1156:1235   */\n      tag_94\n      tag_43\n      jump\t// in\n    tag_94:\n        /* \"#utility.yul\":1118:1237   */\n    tag_93:\n        /* \"#utility.yul\":1276:1277   */\n      0x00\n        /* \"#utility.yul\":1301:1354   */\n      tag_95\n        /* \"#utility.yul\":1346:1353   */\n      dup5\n        /* \"#utility.yul\":1337:1343   */\n      dup3\n        /* \"#utility.yul\":1326:1335   */\n      dup6\n        /* \"#utility.yul\":1322:1344   */\n      add\n        /* \"#utility.yul\":1301:1354   */\n      tag_46\n      jump\t// in\n    tag_95:\n        /* \"#utility.yul\":1291:1354   */\n      swap2\n      pop\n        /* \"#utility.yul\":1247:1364   */\n      pop\n        /* \"#utility.yul\":1042:1371   */\n      swap3\n      swap2\n      pop\n      pop\n      jump\t// out\n        /* \"#utility.yul\":1377:1494   */\n    tag_47:\n        /* \"#utility.yul\":1486:1487   */\n      0x00\n        /* \"#utility.yul\":1483:1484   */\n      dup1\n        /* \"#utility.yul\":1476:1488   */\n      revert\n        /* \"#utility.yul\":1500:1617   */\n    tag_48:\n        /* \"#utility.yul\":1609:1610   */\n      0x00\n        /* \"#utility.yul\":1606:1607   */\n      dup1\n        /* \"#utility.yul\":1599:1611   */\n      revert\n        /* \"#utility.yul\":1623:1725   */\n    tag_49:\n        /* \"#utility.yul\":1664:1670   */\n      0x00\n        /* \"#utility.yul\":1715:1717   */\n      0x1f\n        /* \"#utility.yul\":1711:1718   */\n      not\n        /* \"#utility.yul\":1706:1708   */\n      0x1f\n        /* \"#utility.yul\":1699:1704   */\n      dup4\n        /* \"#utility.yul\":1695:1709   */\n      add\n        /* \"#utility.yul\":1691:1719   */\n      and\n        /* \"#utility.yul\":1681:1719   */\n      swap1\n      pop\n        /* \"#utility.yul\":1623:1725   */\n      swap2\n      swap1\n      pop\n      jump\t// out\n        /* \"#utility.yul\":1731:1911   */\n    tag_50:\n        /* \"#utility.yul\":1779:1856   */\n      0x4e487b7100000000000000000000000000000000000000000000000000000000\n        /* \"#utility.yul\":1776:1777   */\n      0x00\n        /* \"#utility.yul\":1769:1857   */\n      mstore\n        /* \"#utility.yul\":1876:1880   */\n      0x41\n        /* \"#utility.yul\":1873:1874   */\n      0x04\n        /* \"#utility.yul\":1866:1881   */\n      mstore\n        /* \"#utility.yul\":1900:1904   */\n      0x24\n        /* \"#utility.yul\":1897:1898   */\n      0x00\n        /* \"#utility.yul\":1890:1905   */\n      revert\n        /* \"#utility.yul\":1917:2198   */\n    tag_51:\n        /* \"#utility.yul\":2000:2027   */\n      tag_101\n        /* \"#utility.yul\":2022:2026   */\n      dup3\n        /* \"#utility.yul\":2000:2027   */\n      tag_49\n      jump\t// in\n    tag_101:\n        /* \"#utility.yul\":1992:1998   */\n      dup2\n        /* \"#utility.yul\":1988:2028   */\n      add\n        /* \"#utility.yul\":2130:2136   */\n      dup2\n        /* \"#utility.yul\":2118:2128   */\n      dup2\n        /* \"#utility.yul\":2115:2137   */\n      lt\n        /* \"#utility.yul\":2094:2112   */\n      0xffffffffffffffff\n        /* \"#utility.yul\":2082:2092   */\n      dup3\n        /* \"#utility.yul\":2079:2113   */\n      gt\n        /* \"#utility.yul\":2076:2138   */\n      or\n        /* \"#utility.yul\":2073:2161   */\n      iszero\n      tag_102\n      jumpi\n        /* \"#utility.yul\":2141:2159   */\n      tag_103\n      tag_50\n      jump\t// in\n    tag_103:\n        /* \"#utility.yul\":2073:2161   */\n    tag_102:\n        /* \"#utility.yul\":2181:2191   */\n      dup1\n        /* \"#utility.yul\":2177:2179   */\n      0x40\n        /* \"#utility.yul\":2170:2192   */\n      mstore\n        /* \"#utility.yul\":1960:2198   */\n      pop\n        /* \"#utility.yul\":1917:2198   */\n      pop\n      pop\n      jump\t// out\n        /* \"#utility.yul\":2204:2333   */\n    tag_52:\n        /* \"#utility.yul\":2238:2244   */\n      0x00\n        /* \"#utility.yul\":2265:2285   */\n      tag_105\n      tag_42\n      jump\t// in\n    tag_105:\n        /* \"#utility.yul\":2255:2285   */\n      swap1\n      pop\n        /* \"#utility.yul\":2294:2327   */\n      tag_106\n        /* \"#utility.yul\":2322:2326   */\n      dup3\n        /* \"#utility.yul\":2314:2320   */\n      dup3\n        /* \"#utility.yul\":2294:2327   */\n      tag_51\n      jump\t// in\n    tag_106:\n        /* \"#utility.yul\":2204:2333   */\n      swap2\n      swap1\n      pop\n      jump\t// out\n        /* \"#utility.yul\":2339:2647   */\n    tag_53:\n        /* \"#utility.yul\":2401:2405   */\n      0x00\n        /* \"#utility.yul\":2491:2509   */\n      0xffffffffffffffff\n        /* \"#utility.yul\":2483:2489   */\n      dup3\n        /* \"#utility.yul\":2480:2510   */\n      gt\n        /* \"#utility.yul\":2477:2533   */\n      iszero\n      tag_108\n      jumpi\n        /* \"#utility.yul\":2513:2531   */\n      tag_109\n      tag_50\n      jump\t// in\n    tag_109:\n        /* \"#utility.yul\":2477:2533   */\n    tag_108:\n        /* \"#utility.yul\":2551:2580   */\n      tag_110\n        /* \"#utility.yul\":2573:2579   */\n      dup3\n        /* \"#utility.yul\":2551:2580   */\n      tag_49\n      jump\t// in\n    tag_110:\n        /* \"#utility.yul\":2543:2580   */\n      swap1\n      pop\n        /* \"#utility.yul\":2635:2639   */\n      0x20\n        /* \"#utility.yul\":2629:2633   */\n      dup2\n        /* \"#utility.yul\":2625:2640   */\n      add\n        /* \"#utility.yul\":2617:2640   */\n      swap1\n      pop\n        /* \"#utility.yul\":2339:2647   */\n      swap2\n      swap1\n      pop\n      jump\t// out\n        /* \"#utility.yul\":2653:2799   */\n    tag_54:\n        /* \"#utility.yul\":2750:2756   */\n      dup3\n        /* \"#utility.yul\":2745:2748   */\n      dup2\n        /* \"#utility.yul\":2740:2743   */\n      dup4\n        /* \"#utility.yul\":2727:2757   */\n      calldatacopy\n        /* \"#utility.yul\":2791:2792   */\n      0x00\n        /* \"#utility.yul\":2782:2788   */\n      dup4\n        /* \"#utility.yul\":2777:2780   */\n      dup4\n        /* \"#utility.yul\":2773:2789   */\n      add\n        /* \"#utility.yul\":2766:2793   */\n      mstore\n        /* \"#utility.yul\":2653:2799   */\n      pop\n      pop\n      pop\n      jump\t// out\n        /* \"#utility.yul\":2805:3230   */\n    tag_55:\n        /* \"#utility.yul\":2883:2888   */\n      0x00\n        /* \"#utility.yul\":2908:2974   */\n      tag_113\n        /* \"#utility.yul\":2924:2973   */\n      tag_114\n        /* \"#utility.yul\":2966:2972   */\n      dup5\n        /* \"#utility.yul\":2924:2973   */\n      tag_53\n      jump\t// in\n    tag_114:\n        /* \"#utility.yul\":2908:2974   */\n      tag_52\n      jump\t// in\n    tag_113:\n        /* \"#utility.yul\":2899:2974   */\n      swap1\n      pop\n        /* \"#utility.yul\":2997:3003   */\n      dup3\n        /* \"#utility.yul\":2990:2995   */\n      dup2\n        /* \"#utility.yul\":2983:3004   */\n      mstore\n        /* \"#utility.yul\":3035:3039   */\n      0x20\n        /* \"#utility.yul\":3028:3033   */\n      dup2\n        /* \"#utility.yul\":3024:3040   */\n      add\n        /* \"#utility.yul\":3073:3076   */\n      dup5\n        /* \"#utility.yul\":3064:3070   */\n      dup5\n        /* \"#utility.yul\":3059:3062   */\n      dup5\n        /* \"#utility.yul\":3055:3071   */\n      add\n        /* \"#utility.yul\":3052:3077   */\n      gt\n        /* \"#utility.yul\":3049:3161   */\n      iszero\n      tag_115\n      jumpi\n        /* \"#utility.yul\":3080:3159   */\n      tag_116\n      tag_48\n      jump\t// in\n    tag_116:\n        /* \"#utility.yul\":3049:3161   */\n    tag_115:\n        /* \"#utility.yul\":3170:3224   */\n      tag_117\n        /* \"#utility.yul\":3217:3223   */\n      dup5\n        /* \"#utility.yul\":3212:3215   */\n      dup3\n        /* \"#utility.yul\":3207:3210   */\n      dup6\n        /* \"#utility.yul\":3170:3224   */\n      tag_54\n      jump\t// in\n    tag_117:\n        /* \"#utility.yul\":2889:3230   */\n      pop\n        /* \"#utility.yul\":2805:3230   */\n      swap4\n      swap3\n      pop\n      pop\n      pop\n      jump\t// out\n        /* \"#utility.yul\":3250:3590   */\n    tag_56:\n        /* \"#utility.yul\":3306:3311   */\n      0x00\n        /* \"#utility.yul\":3355:3358   */\n      dup3\n        /* \"#utility.yul\":3348:3352   */\n      0x1f\n        /* \"#utility.yul\":3340:3346   */\n      dup4\n        /* \"#utility.yul\":3336:3353   */\n      add\n        /* \"#utility.yul\":3332:3359   */\n      slt\n        /* \"#utility.yul\":3322:3444   */\n      tag_119\n      jumpi\n        /* \"#utility.yul\":3363:3442   */\n      tag_120\n      tag_47\n      jump\t// in\n    tag_120:\n        /* \"#utility.yul\":3322:3444   */\n    tag_119:\n        /* \"#utility.yul\":3480:3486   */\n      dup2\n        /* \"#utility.yul\":3467:3487   */\n      calldataload\n        /* \"#utility.yul\":3505:3584   */\n      tag_121\n        /* \"#utility.yul\":3580:3583   */\n      dup5\n        /* \"#utility.yul\":3572:3578   */\n      dup3\n        /* \"#utility.yul\":3565:3569   */\n      0x20\n        /* \"#utility.yul\":3557:3563   */\n      dup7\n        /* \"#utility.yul\":3553:3570   */\n      add\n        /* \"#utility.yul\":3505:3584   */\n      tag_55\n      jump\t// in\n    tag_121:\n        /* \"#utility.yul\":3496:3584   */\n      swap2\n      pop\n        /* \"#utility.yul\":3312:3590   */\n      pop\n        /* \"#utility.yul\":3250:3590   */\n      swap3\n      swap2\n      pop\n      pop\n      jump\t// out\n        /* \"#utility.yul\":3596:4250   */\n    tag_17:\n        /* \"#utility.yul\":3674:3680   */\n      0x00\n        /* \"#utility.yul\":3682:3688   */\n      dup1\n        /* \"#utility.yul\":3731:3733   */\n      0x40\n        /* \"#utility.yul\":3719:3728   */\n      dup4\n        /* \"#utility.yul\":3710:3717   */\n      dup6\n        /* \"#utility.yul\":3706:3729   */\n      sub\n        /* \"#utility.yul\":3702:3734   */\n      slt\n        /* \"#utility.yul\":3699:3818   */\n      iszero\n      tag_123\n      jumpi\n        /* \"#utility.yul\":3737:3816   */\n      tag_124\n      tag_43\n      jump\t// in\n    tag_124:\n        /* \"#utility.yul\":3699:3818   */\n    tag_123:\n        /* \"#utility.yul\":3885:3886   */\n      0x00\n        /* \"#utility.yul\":3874:3883   */\n      dup4\n        /* \"#utility.yul\":3870:3887   */\n      add\n        /* \"#utility.yul\":3857:3888   */\n      calldataload\n        /* \"#utility.yul\":3915:3933   */\n      0xffffffffffffffff\n        /* \"#utility.yul\":3907:3913   */\n      dup2\n        /* \"#utility.yul\":3904:3934   */\n      gt\n        /* \"#utility.yul\":3901:4018   */\n      iszero\n      tag_125\n      jumpi\n        /* \"#utility.yul\":3937:4016   */\n      tag_126\n      tag_44\n      jump\t// in\n    tag_126:\n        /* \"#utility.yul\":3901:4018   */\n    tag_125:\n        /* \"#utility.yul\":4042:4105   */\n      tag_127\n        /* \"#utility.yul\":4097:4104   */\n      dup6\n        /* \"#utility.yul\":4088:4094   */\n      dup3\n        /* \"#utility.yul\":4077:4086   */\n      dup7\n        /* \"#utility.yul\":4073:4095   */\n      add\n        /* \"#utility.yul\":4042:4105   */\n      tag_56\n      jump\t// in\n    tag_127:\n        /* \"#utility.yul\":4032:4105   */\n      swap3\n      pop\n        /* \"#utility.yul\":3828:4115   */\n      pop\n        /* \"#utility.yul\":4154:4156   */\n      0x20\n        /* \"#utility.yul\":4180:4233   */\n      tag_128\n        /* \"#utility.yul\":4225:4232   */\n      dup6\n        /* \"#utility.yul\":4216:4222   */\n      dup3\n        /* \"#utility.yul\":4205:4214   */\n      dup7\n        /* \"#utility.yul\":4201:4223   */\n      add\n        /* \"#utility.yul\":4180:4233   */\n      tag_46\n      jump\t// in\n    tag_128:\n        /* \"#utility.yul\":4170:4233   */\n      swap2\n      pop\n        /* \"#utility.yul\":4125:4243   */\n      pop\n        /* \"#utility.yul\":3596:4250   */\n      swap3\n      pop\n      swap3\n      swap1\n      pop\n      jump\t// out\n        /* \"#utility.yul\":4256:4355   */\n    tag_57:\n        /* \"#utility.yul\":4308:4314   */\n      0x00\n        /* \"#utility.yul\":4342:4347   */\n      dup2\n        /* \"#utility.yul\":4336:4348   */\n      mload\n        /* \"#utility.yul\":4326:4348   */\n      swap1\n      pop\n        /* \"#utility.yul\":4256:4355   */\n      swap2\n      swap1\n      pop\n      jump\t// out\n        /* \"#utility.yul\":4361:4530   */\n    tag_58:\n        /* \"#utility.yul\":4445:4456   */\n      0x00\n        /* \"#utility.yul\":4479:4485   */\n      dup3\n        /* \"#utility.yul\":4474:4477   */\n      dup3\n        /* \"#utility.yul\":4467:4486   */\n      mstore\n        /* \"#utility.yul\":4519:4523   */\n      0x20\n        /* \"#utility.yul\":4514:4517   */\n      dup3\n        /* \"#utility.yul\":4510:4524   */\n      add\n        /* \"#utility.yul\":4495:4524   */\n      swap1\n      pop\n        /* \"#utility.yul\":4361:4530   */\n      swap3\n      swap2\n      pop\n      pop\n      jump\t// out\n        /* \"#utility.yul\":4536:4782   */\n    tag_59:\n        /* \"#utility.yul\":4617:4618   */\n      0x00\n        /* \"#utility.yul\":4627:4740   */\n    tag_132:\n        /* \"#utility.yul\":4641:4647   */\n      dup4\n        /* \"#utility.yul\":4638:4639   */\n      dup2\n        /* \"#utility.yul\":4635:4648   */\n      lt\n        /* \"#utility.yul\":4627:4740   */\n      iszero\n      tag_134\n      jumpi\n        /* \"#utility.yul\":4726:4727   */\n      dup1\n        /* \"#utility.yul\":4721:4724   */\n      dup3\n        /* \"#utility.yul\":4717:4728   */\n      add\n        /* \"#utility.yul\":4711:4729   */\n      mload\n        /* \"#utility.yul\":4707:4708   */\n      dup2\n        /* \"#utility.yul\":4702:4705   */\n      dup5\n        /* \"#utility.yul\":4698:4709   */\n      add\n        /* \"#utility.yul\":4691:4730   */\n      mstore\n        /* \"#utility.yul\":4663:4665   */\n      0x20\n        /* \"#utility.yul\":4660:4661   */\n      dup2\n        /* \"#utility.yul\":4656:4666   */\n      add\n        /* \"#utility.yul\":4651:4666   */\n      swap1\n      pop\n        /* \"#utility.yul\":4627:4740   */\n      jump(tag_132)\n    tag_134:\n        /* \"#utility.yul\":4774:4775   */\n      0x00\n        /* \"#utility.yul\":4765:4771   */\n      dup5\n        /* \"#utility.yul\":4760:4763   */\n      dup5\n        /* \"#utility.yul\":4756:4772   */\n      add\n        /* \"#utility.yul\":4749:4776   */\n      mstore\n        /* \"#utility.yul\":4598:4782   */\n      pop\n        /* \"#utility.yul\":4536:4782   */\n      pop\n      pop\n      pop\n      jump\t// out\n        /* \"#utility.yul\":4788:5165   */\n    tag_60:\n        /* \"#utility.yul\":4876:4879   */\n      0x00\n        /* \"#utility.yul\":4904:4943   */\n      tag_136\n        /* \"#utility.yul\":4937:4942   */\n      dup3\n        /* \"#utility.yul\":4904:4943   */\n      tag_57\n      jump\t// in\n    tag_136:\n        /* \"#utility.yul\":4959:5030   */\n      tag_137\n        /* \"#utility.yul\":5023:5029   */\n      dup2\n        /* \"#utility.yul\":5018:5021   */\n      dup6\n        /* \"#utility.yul\":4959:5030   */\n      tag_58\n      jump\t// in\n    tag_137:\n        /* \"#utility.yul\":4952:5030   */\n      swap4\n      pop\n        /* \"#utility.yul\":5039:5104   */\n      tag_138\n        /* \"#utility.yul\":5097:5103   */\n      dup2\n        /* \"#utility.yul\":5092:5095   */\n      dup6\n        /* \"#utility.yul\":5085:5089   */\n      0x20\n        /* \"#utility.yul\":5078:5083   */\n      dup7\n        /* \"#utility.yul\":5074:5090   */\n      add\n        /* \"#utility.yul\":5039:5104   */\n      tag_59\n      jump\t// in\n    tag_138:\n        /* \"#utility.yul\":5129:5158   */\n      tag_139\n        /* \"#utility.yul\":5151:5157   */\n      dup2\n        /* \"#utility.yul\":5129:5158   */\n      tag_49\n      jump\t// in\n    tag_139:\n        /* \"#utility.yul\":5124:5127   */\n      dup5\n        /* \"#utility.yul\":5120:5159   */\n      add\n        /* \"#utility.yul\":5113:5159   */\n      swap2\n      pop\n        /* \"#utility.yul\":4880:5165   */\n      pop\n        /* \"#utility.yul\":4788:5165   */\n      swap3\n      swap2\n      pop\n      pop\n      jump\t// out\n        /* \"#utility.yul\":5171:5594   */\n    tag_23:\n        /* \"#utility.yul\":5312:5316   */\n      0x00\n        /* \"#utility.yul\":5350:5352   */\n      0x40\n        /* \"#utility.yul\":5339:5348   */\n      dup3\n        /* \"#utility.yul\":5335:5353   */\n      add\n        /* \"#utility.yul\":5327:5353   */\n      swap1\n      pop\n        /* \"#utility.yul\":5363:5434   */\n      tag_141\n        /* \"#utility.yul\":5431:5432   */\n      0x00\n        /* \"#utility.yul\":5420:5429   */\n      dup4\n        /* \"#utility.yul\":5416:5433   */\n      add\n        /* \"#utility.yul\":5407:5413   */\n      dup6\n        /* \"#utility.yul\":5363:5434   */\n      tag_41\n      jump\t// in\n    tag_141:\n        /* \"#utility.yul\":5481:5490   */\n      dup2\n        /* \"#utility.yul\":5475:5479   */\n      dup2\n        /* \"#utility.yul\":5471:5491   */\n      sub\n        /* \"#utility.yul\":5466:5468   */\n      0x20\n        /* \"#utility.yul\":5455:5464   */\n      dup4\n        /* \"#utility.yul\":5451:5469   */\n      add\n        /* \"#utility.yul\":5444:5492   */\n      mstore\n        /* \"#utility.yul\":5509:5587   */\n      tag_142\n        /* \"#utility.yul\":5582:5586   */\n      dup2\n        /* \"#utility.yul\":5573:5579   */\n      dup5\n        /* \"#utility.yul\":5509:5587   */\n      tag_60\n      jump\t// in\n    tag_142:\n        /* \"#utility.yul\":5501:5587   */\n      swap1\n      pop\n        /* \"#utility.yul\":5171:5594   */\n      swap4\n      swap3\n      pop\n      pop\n      pop\n      jump\t// out\n        /* \"#utility.yul\":5600:5780   */\n    tag_61:\n        /* \"#utility.yul\":5648:5725   */\n      0x4e487b7100000000000000000000000000000000000000000000000000000000\n        /* \"#utility.yul\":5645:5646   */\n      0x00\n        /* \"#utility.yul\":5638:5726   */\n      mstore\n        /* \"#utility.yul\":5745:5749   */\n      0x11\n        /* \"#utility.yul\":5742:5743   */\n      0x04\n        /* \"#utility.yul\":5735:5750   */\n      mstore\n        /* \"#utility.yul\":5769:5773   */\n      0x24\n        /* \"#utility.yul\":5766:5767   */\n      0x00\n        /* \"#utility.yul\":5759:5774   */\n      revert\n        /* \"#utility.yul\":5786:6196   */\n    tag_26:\n        /* \"#utility.yul\":5826:5833   */\n      0x00\n        /* \"#utility.yul\":5849:5869   */\n      tag_145\n        /* \"#utility.yul\":5867:5868   */\n      dup3\n        /* \"#utility.yul\":5849:5869   */\n      tag_40\n      jump\t// in\n    tag_145:\n        /* \"#utility.yul\":5844:5869   */\n      swap2\n      pop\n        /* \"#utility.yul\":5883:5903   */\n      tag_146\n        /* \"#utility.yul\":5901:5902   */\n      dup4\n        /* \"#utility.yul\":5883:5903   */\n      tag_40\n      jump\t// in\n    tag_146:\n        /* \"#utility.yul\":5878:5903   */\n      swap3\n      pop\n        /* \"#utility.yul\":5938:5939   */\n      dup3\n        /* \"#utility.yul\":5935:5936   */\n      dup3\n        /* \"#utility.yul\":5931:5940   */\n      mul\n        /* \"#utility.yul\":5960:5990   */\n      tag_147\n        /* \"#utility.yul\":5978:5989   */\n      dup2\n        /* \"#utility.yul\":5960:5990   */\n      tag_40\n      jump\t// in\n    tag_147:\n        /* \"#utility.yul\":5949:5990   */\n      swap2\n      pop\n        /* \"#utility.yul\":6139:6140   */\n      dup3\n        /* \"#utility.yul\":6130:6137   */\n      dup3\n        /* \"#utility.yul\":6126:6141   */\n      div\n        /* \"#utility.yul\":6123:6124   */\n      dup5\n        /* \"#utility.yul\":6120:6142   */\n      eq\n        /* \"#utility.yul\":6100:6101   */\n      dup4\n        /* \"#utility.yul\":6093:6102   */\n      iszero\n        /* \"#utility.yul\":6073:6156   */\n      or\n        /* \"#utility.yul\":6050:6189   */\n      tag_148\n      jumpi\n        /* \"#utility.yul\":6169:6187   */\n      tag_149\n      tag_61\n      jump\t// in\n    tag_149:\n        /* \"#utility.yul\":6050:6189   */\n    tag_148:\n        /* \"#utility.yul\":5834:6196   */\n      pop\n        /* \"#utility.yul\":5786:6196   */\n      swap3\n      swap2\n      pop\n      pop\n      jump\t// out\n        /* \"#utility.yul\":6202:6382   */\n    tag_62:\n        /* \"#utility.yul\":6250:6327   */\n      0x4e487b7100000000000000000000000000000000000000000000000000000000\n        /* \"#utility.yul\":6247:6248   */\n      0x00\n        /* \"#utility.yul\":6240:6328   */\n      mstore\n        /* \"#utility.yul\":6347:6351   */\n      0x22\n        /* \"#utility.yul\":6344:6345   */\n      0x04\n        /* \"#utility.yul\":6337:6352   */\n      mstore\n        /* \"#utility.yul\":6371:6375   */\n      0x24\n        /* \"#utility.yul\":6368:6369   */\n      0x00\n        /* \"#utility.yul\":6361:6376   */\n      revert\n        /* \"#utility.yul\":6388:6708   */\n    tag_35:\n        /* \"#utility.yul\":6432:6438   */\n      0x00\n        /* \"#utility.yul\":6469:6470   */\n      0x02\n        /* \"#utility.yul\":6463:6467   */\n      dup3\n        /* \"#utility.yul\":6459:6471   */\n      div\n        /* \"#utility.yul\":6449:6471   */\n      swap1\n      pop\n        /* \"#utility.yul\":6516:6517   */\n      0x01\n        /* \"#utility.yul\":6510:6514   */\n      dup3\n        /* \"#utility.yul\":6506:6518   */\n      and\n        /* \"#utility.yul\":6537:6555   */\n      dup1\n        /* \"#utility.yul\":6527:6608   */\n      tag_152\n      jumpi\n        /* \"#utility.yul\":6593:6597   */\n      0x7f\n        /* \"#utility.yul\":6585:6591   */\n      dup3\n        /* \"#utility.yul\":6581:6598   */\n      and\n        /* \"#utility.yul\":6571:6598   */\n      swap2\n      pop\n        /* \"#utility.yul\":6527:6608   */\n    tag_152:\n        /* \"#utility.yul\":6655:6657   */\n      0x20\n        /* \"#utility.yul\":6647:6653   */\n      dup3\n        /* \"#utility.yul\":6644:6658   */\n      lt\n        /* \"#utility.yul\":6624:6642   */\n      dup2\n        /* \"#utility.yul\":6621:6659   */\n      sub\n        /* \"#utility.yul\":6618:6702   */\n      tag_153\n      jumpi\n        /* \"#utility.yul\":6674:6692   */\n      tag_154\n      tag_62\n      jump\t// in\n    tag_154:\n        /* \"#utility.yul\":6618:6702   */\n    tag_153:\n        /* \"#utility.yul\":6439:6708   */\n      pop\n        /* \"#utility.yul\":6388:6708   */\n      swap2\n      swap1\n      pop\n      jump\t// out\n        /* \"#utility.yul\":6714:6855   */\n    tag_63:\n        /* \"#utility.yul\":6763:6767   */\n      0x00\n        /* \"#utility.yul\":6786:6789   */\n      dup2\n        /* \"#utility.yul\":6778:6789   */\n      swap1\n      pop\n        /* \"#utility.yul\":6809:6812   */\n      dup2\n        /* \"#utility.yul\":6806:6807   */\n      0x00\n        /* \"#utility.yul\":6799:6813   */\n      mstore\n        /* \"#utility.yul\":6843:6847   */\n      0x20\n        /* \"#utility.yul\":6840:6841   */\n      0x00\n        /* \"#utility.yul\":6830:6848   */\n      keccak256\n        /* \"#utility.yul\":6822:6848   */\n      swap1\n      pop\n        /* \"#utility.yul\":6714:6855   */\n      swap2\n      swap1\n      pop\n      jump\t// out\n        /* \"#utility.yul\":6861:6954   */\n    tag_64:\n        /* \"#utility.yul\":6898:6904   */\n      0x00\n        /* \"#utility.yul\":6945:6947   */\n      0x20\n        /* \"#utility.yul\":6940:6942   */\n      0x1f\n        /* \"#utility.yul\":6933:6938   */\n      dup4\n        /* \"#utility.yul\":6929:6943   */\n      add\n        /* \"#utility.yul\":6925:6948   */\n      div\n        /* \"#utility.yul\":6915:6948   */\n      swap1\n      pop\n        /* \"#utility.yul\":6861:6954   */\n      swap2\n      swap1\n      pop\n      jump\t// out\n        /* \"#utility.yul\":6960:7067   */\n    tag_65:\n        /* \"#utility.yul\":7004:7012   */\n      0x00\n        /* \"#utility.yul\":7054:7059   */\n      dup3\n        /* \"#utility.yul\":7048:7052   */\n      dup3\n        /* \"#utility.yul\":7044:7060   */\n      shl\n        /* \"#utility.yul\":7023:7060   */\n      swap1\n      pop\n        /* \"#utility.yul\":6960:7067   */\n      swap3\n      swap2\n      pop\n      pop\n      jump\t// out\n        /* \"#utility.yul\":7073:7466   */\n    tag_66:\n        /* \"#utility.yul\":7142:7148   */\n      0x00\n        /* \"#utility.yul\":7192:7193   */\n      0x08\n        /* \"#utility.yul\":7180:7190   */\n      dup4\n        /* \"#utility.yul\":7176:7194   */\n      mul\n        /* \"#utility.yul\":7215:7312   */\n      tag_159\n        /* \"#utility.yul\":7245:7311   */\n      0xffffffffffffffffffffffffffffffffffffffffffffffffffffffffffffffff\n        /* \"#utility.yul\":7234:7243   */\n      dup3\n        /* \"#utility.yul\":7215:7312   */\n      tag_65\n      jump\t// in\n    tag_159:\n        /* \"#utility.yul\":7333:7372   */\n      tag_160\n        /* \"#utility.yul\":7363:7371   */\n      dup7\n        /* \"#utility.yul\":7352:7361   */\n      dup4\n        /* \"#utility.yul\":7333:7372   */\n      tag_65\n      jump\t// in\n    tag_160:\n        /* \"#utility.yul\":7321:7372   */\n      swap6\n      pop\n        /* \"#utility.yul\":7405:7409   */\n      dup1\n        /* \"#utility.yul\":7401:7410   */\n      not\n        /* \"#utility.yul\":7394:7399   */\n      dup5\n        /* \"#utility.yul\":7390:7411   */\n      and\n        /* \"#utility.yul\":7381:7411   */\n      swap4\n      pop\n        /* \"#utility.yul\":7454:7458   */\n      dup1\n        /* \"#utility.yul\":7444:7452   */\n      dup7\n        /* \"#utility.yul\":7440:7459   */\n      and\n        /* \"#utility.yul\":7433:7438   */\n      dup5\n        /* \"#utility.yul\":7430:7460   */\n      or\n        /* \"#utility.yul\":7420:7460   */\n      swap3\n      pop\n        /* \"#utility.yul\":7149:7466   */\n      pop\n      pop\n        /* \"#utility.yul\":7073:7466   */\n      swap4\n      swap3\n      pop\n      pop\n      pop\n      jump\t// out\n        /* \"#utility.yul\":7472:7532   */\n    tag_67:\n        /* \"#utility.yul\":7500:7503   */\n      0x00\n        /* \"#utility.yul\":7521:7526   */\n      dup2\n        /* \"#utility.yul\":7514:7526   */\n      swap1\n      pop\n        /* \"#utility.yul\":7472:7532   */\n      swap2\n      swap1\n      pop\n      jump\t// out\n        /* \"#utility.yul\":7538:7680   */\n    tag_68:\n        /* \"#utility.yul\":7588:7597   */\n      0x00\n        /* \"#utility.yul\":7621:7674   */\n      tag_163\n        /* \"#utility.yul\":7639:7673   */\n      tag_164\n        /* \"#utility.yul\":7648:7672   */\n      tag_165\n        /* \"#utility.yul\":7666:7671   */\n      dup5\n        /* \"#utility.yul\":7648:7672   */\n      tag_40\n      jump\t// in\n    tag_165:\n        /* \"#utility.yul\":7639:7673   */\n      tag_67\n      jump\t// in\n    tag_164:\n        /* \"#utility.yul\":7621:7674   */\n      tag_40\n      jump\t// in\n    tag_163:\n        /* \"#utility.yul\":7608:7674   */\n      swap1\n      pop\n        /* \"#utility.yul\":7538:7680   */\n      swap2\n      swap1\n      pop\n      jump\t// out\n        /* \"#utility.yul\":7686:7761   */\n    tag_69:\n        /* \"#utility.yul\":7729:7732   */\n      0x00\n        /* \"#utility.yul\":7750:7755   */\n      dup2\n        /* \"#utility.yul\":7743:7755   */\n      swap1\n      pop\n        /* \"#utility.yul\":7686:7761   */\n      swap2\n      swap1\n      pop\n      jump\t// out\n        /* \"#utility.yul\":7767:8036   */\n    tag_70:\n        /* \"#utility.yul\":7877:7916   */\n      tag_168\n        /* \"#utility.yul\":7908:7915   */\n      dup4\n        /* \"#utility.yul\":7877:7916   */\n      tag_68\n      jump\t// in\n    tag_168:\n        /* \"#utility.yul\":7938:8029   */\n      tag_169\n        /* \"#utility.yul\":7987:8028   */\n      tag_170\n        /* \"#utility.yul\":8011:8027   */\n      dup3\n        /* \"#utility.yul\":7987:8028   */\n      tag_69\n      jump\t// in\n    tag_170:\n        /* \"#utility.yul\":7979:7985   */\n      dup5\n        /* \"#utility.yul\":7972:7976   */\n      dup5\n        /* \"#utility.yul\":7966:7977   */\n      sload\n        /* \"#utility.yul\":7938:8029   */\n      tag_66\n      jump\t// in\n    tag_169:\n        /* \"#utility.yul\":7932:7936   */\n      dup3\n        /* \"#utility.yul\":7925:8030   */\n      sstore\n        /* \"#utility.yul\":7843:8036   */\n      pop\n        /* \"#utility.yul\":7767:8036   */\n      pop\n      pop\n      pop\n      jump\t// out\n        /* \"#utility.yul\":8042:8115   */\n    tag_71:\n        /* \"#utility.yul\":8087:8090   */\n      0x00\n        /* \"#utility.yul\":8042:8115   */\n      swap1\n      jump\t// out\n        /* \"#utility.yul\":8121:8310   */\n    tag_72:\n        /* \"#utility.yul\":8198:8230   */\n      tag_173\n      tag_71\n      jump\t// in\n    tag_173:\n        /* \"#utility.yul\":8239:8304   */\n      tag_174\n        /* \"#utility.yul\":8297:8303   */\n      dup2\n        /* \"#utility.yul\":8289:8295   */\n      dup5\n        /* \"#utility.yul\":8283:8287   */\n      dup5\n        /* \"#utility.yul\":8239:8304   */\n      tag_70\n      jump\t// in\n    tag_174:\n        /* \"#utility.yul\":8174:8310   */\n      pop\n        /* \"#utility.yul\":8121:8310   */\n      pop\n      pop\n      jump\t// out\n        /* \"#utility.yul\":8316:8502   */\n    tag_73:\n        /* \"#utility.yul\":8376:8496   */\n    tag_176:\n        /* \"#utility.yul\":8393:8396   */\n      dup2\n        /* \"#utility.yul\":8386:8391   */\n      dup2\n        /* \"#utility.yul\":8383:8397   */\n      lt\n        /* \"#utility.yul\":8376:8496   */\n      iszero\n      tag_178\n      jumpi\n        /* \"#utility.yul\":8447:8486   */\n      tag_179\n        /* \"#utility.yul\":8484:8485   */\n      0x00\n        /* \"#utility.yul\":8477:8482   */\n      dup3\n        /* \"#utility.yul\":8447:8486   */\n      tag_72\n      jump\t// in\n    tag_179:\n        /* \"#utility.yul\":8420:8421   */\n      0x01\n        /* \"#utility.yul\":8413:8418   */\n      dup2\n        /* \"#utility.yul\":8409:8422   */\n      add\n        /* \"#utility.yul\":8400:8422   */\n      swap1\n      pop\n        /* \"#utility.yul\":8376:8496   */\n      jump(tag_176)\n    tag_178:\n        /* \"#utility.yul\":8316:8502   */\n      pop\n      pop\n      jump\t// out\n        /* \"#utility.yul\":8508:9051   */\n    tag_74:\n        /* \"#utility.yul\":8609:8611   */\n      0x1f\n        /* \"#utility.yul\":8604:8607   */\n      dup3\n        /* \"#utility.yul\":8601:8612   */\n      gt\n        /* \"#utility.yul\":8598:9044   */\n      iszero\n      tag_181\n      jumpi\n        /* \"#utility.yul\":8643:8681   */\n      tag_182\n        /* \"#utility.yul\":8675:8680   */\n      dup2\n        /* \"#utility.yul\":8643:8681   */\n      tag_63\n      jump\t// in\n    tag_182:\n        /* \"#utility.yul\":8727:8756   */\n      tag_183\n        /* \"#utility.yul\":8745:8755   */\n      dup5\n        /* \"#utility.yul\":8727:8756   */\n      tag_64\n      jump\t// in\n    tag_183:\n        /* \"#utility.yul\":8717:8725   */\n      dup2\n        /* \"#utility.yul\":8713:8757   */\n      add\n        /* \"#utility.yul\":8910:8912   */\n      0x20\n        /* \"#utility.yul\":8898:8908   */\n      dup6\n        /* \"#utility.yul\":8895:8913   */\n      lt\n        /* \"#utility.yul\":8892:8941   */\n      iszero\n      tag_184\n      jumpi\n        /* \"#utility.yul\":8931:8939   */\n      dup2\n        /* \"#utility.yul\":8916:8939   */\n      swap1\n      pop\n        /* \"#utility.yul\":8892:8941   */\n    tag_184:\n        /* \"#utility.yul\":8954:9034   */\n      tag_185\n        /* \"#utility.yul\":9010:9032   */\n      tag_186\n        /* \"#utility.yul\":9028:9031   */\n      dup6\n        /* \"#utility.yul\":9010:9032   */\n      tag_64\n      jump\t// in\n    tag_186:\n        /* \"#utility.yul\":9000:9008   */\n      dup4\n        /* \"#utility.yul\":8996:9033   */\n      add\n        /* \"#utility.yul\":8983:8994   */\n      dup3\n        /* \"#utility.yul\":8954:9034   */\n      tag_73\n      jump\t// in\n    tag_185:\n        /* \"#utility.yul\":8613:9044   */\n      pop\n      pop\n        /* \"#utility.yul\":8598:9044   */\n    tag_181:\n        /* \"#utility.yul\":8508:9051   */\n      pop\n      pop\n      pop\n      jump\t// out\n        /* \"#utility.yul\":9057:9174   */\n    tag_75:\n        /* \"#utility.yul\":9111:9119   */\n      0x00\n        /* \"#utility.yul\":9161:9166   */\n      dup3\n        /* \"#utility.yul\":9155:9159   */\n      dup3\n        /* \"#utility.yul\":9151:9167   */\n      shr\n        /* \"#utility.yul\":9130:9167   */\n      swap1\n      pop\n        /* \"#utility.yul\":9057:9174   */\n      swap3\n      swap2\n      pop\n      pop\n      jump\t// out\n        /* \"#utility.yul\":9180:9349   */\n    tag_76:\n        /* \"#utility.yul\":9224:9230   */\n      0x00\n        /* \"#utility.yul\":9257:9308   */\n      tag_189\n        /* \"#utility.yul\":9305:9306   */\n      0x00\n        /* \"#utility.yul\":9301:9307   */\n      not\n        /* \"#utility.yul\":9293:9298   */\n      dup5\n        /* \"#utility.yul\":9290:9291   */\n      0x08\n        /* \"#utility.yul\":9286:9299   */\n      mul\n        /* \"#utility.yul\":9257:9308   */\n      tag_75\n      jump\t// in\n    tag_189:\n        /* \"#utility.yul\":9253:9309   */\n      not\n        /* \"#utility.yul\":9338:9342   */\n      dup1\n        /* \"#utility.yul\":9332:9336   */\n      dup4\n        /* \"#utility.yul\":9328:9343   */\n      and\n        /* \"#utility.yul\":9318:9343   */\n      swap2\n      pop\n        /* \"#utility.yul\":9231:9349   */\n      pop\n        /* \"#utility.yul\":9180:9349   */\n      swap3\n      swap2\n      pop\n      pop\n      jump\t// out\n        /* \"#utility.yul\":9354:9649   */\n    tag_77:\n        /* \"#utility.yul\":9430:9434   */\n      0x00\n        /* \"#utility.yul\":9576:9605   */\n      tag_191\n        /* \"#utility.yul\":9601:9604   */\n      dup4\n        /* \"#utility.yul\":9595:9599   */\n      dup4\n        /* \"#utility.yul\":9576:9605   */\n      tag_76\n      jump\t// in\n    tag_191:\n        /* \"#utility.yul\":9568:9605   */\n      swap2\n      pop\n        /* \"#utility.yul\":9638:9641   */\n      dup3\n        /* \"#utility.yul\":9635:9636   */\n      0x02\n        /* \"#utility.yul\":9631:9642   */\n      mul\n        /* \"#utility.yul\":9625:9629   */\n      dup3\n        /* \"#utility.yul\":9622:9643   */\n      or\n        /* \"#utility.yul\":9614:9643   */\n      swap1\n      pop\n        /* \"#utility.yul\":9354:9649   */\n      swap3\n      swap2\n      pop\n      pop\n      jump\t// out\n        /* \"#utility.yul\":9654:11049   */\n    tag_31:\n        /* \"#utility.yul\":9771:9808   */\n      tag_193\n        /* \"#utility.yul\":9804:9807   */\n      dup3\n        /* \"#utility.yul\":9771:9808   */\n      tag_57\n      jump\t// in\n    tag_193:\n        /* \"#utility.yul\":9873:9891   */\n      0xffffffffffffffff\n        /* \"#utility.yul\":9865:9871   */\n      dup2\n        /* \"#utility.yul\":9862:9892   */\n      gt\n        /* \"#utility.yul\":9859:9915   */\n      iszero\n      tag_194\n      jumpi\n        /* \"#utility.yul\":9895:9913   */\n      tag_195\n      tag_50\n      jump\t// in\n    tag_195:\n        /* \"#utility.yul\":9859:9915   */\n    tag_194:\n        /* \"#utility.yul\":9939:9977   */\n      tag_196\n        /* \"#utility.yul\":9971:9975   */\n      dup3\n        /* \"#utility.yul\":9965:9976   */\n      sload\n        /* \"#utility.yul\":9939:9977   */\n      tag_35\n      jump\t// in\n    tag_196:\n        /* \"#utility.yul\":10024:10091   */\n      tag_197\n        /* \"#utility.yul\":10084:10090   */\n      dup3\n        /* \"#utility.yul\":10076:10082   */\n      dup3\n        /* \"#utility.yul\":10070:10074   */\n      dup6\n        /* \"#utility.yul\":10024:10091   */\n      tag_74\n      jump\t// in\n    tag_197:\n        /* \"#utility.yul\":10118:10119   */\n      0x00\n        /* \"#utility.yul\":10142:10146   */\n      0x20\n        /* \"#utility.yul\":10129:10146   */\n      swap1\n      pop\n        /* \"#utility.yul\":10174:10176   */\n      0x1f\n        /* \"#utility.yul\":10166:10172   */\n      dup4\n        /* \"#utility.yul\":10163:10177   */\n      gt\n        /* \"#utility.yul\":10191:10192   */\n      0x01\n        /* \"#utility.yul\":10186:10804   */\n      dup2\n      eq\n      tag_199\n      jumpi\n        /* \"#utility.yul\":10848:10849   */\n      0x00\n        /* \"#utility.yul\":10865:10871   */\n      dup5\n        /* \"#utility.yul\":10862:10939   */\n      iszero\n      tag_200\n      jumpi\n        /* \"#utility.yul\":10914:10923   */\n      dup3\n        /* \"#utility.yul\":10909:10912   */\n      dup8\n        /* \"#utility.yul\":10905:10924   */\n      add\n        /* \"#utility.yul\":10899:10925   */\n      mload\n        /* \"#utility.yul\":10890:10925   */\n      swap1\n      pop\n        /* \"#utility.yul\":10862:10939   */\n    tag_200:\n        /* \"#utility.yul\":10965:11032   */\n      tag_201\n        /* \"#utility.yul\":11025:11031   */\n      dup6\n        /* \"#utility.yul\":11018:11023   */\n      dup3\n        /* \"#utility.yul\":10965:11032   */\n      tag_77\n      jump\t// in\n    tag_201:\n        /* \"#utility.yul\":10959:10963   */\n      dup7\n        /* \"#utility.yul\":10952:11033   */\n      sstore\n        /* \"#utility.yul\":10821:11043   */\n      pop\n        /* \"#utility.yul\":10156:11043   */\n      jump(tag_198)\n        /* \"#utility.yul\":10186:10804   */\n    tag_199:\n        /* \"#utility.yul\":10238:10242   */\n      0x1f\n        /* \"#utility.yul\":10234:10243   */\n      not\n        /* \"#utility.yul\":10226:10232   */\n      dup5\n        /* \"#utility.yul\":10222:10244   */\n      and\n        /* \"#utility.yul\":10272:10309   */\n      tag_202\n        /* \"#utility.yul\":10304:10308   */\n      dup7\n        /* \"#utility.yul\":10272:10309   */\n      tag_63\n      jump\t// in\n    tag_202:\n        /* \"#utility.yul\":10331:10332   */\n      0x00\n        /* \"#utility.yul\":10345:10553   */\n    tag_203:\n        /* \"#utility.yul\":10359:10366   */\n      dup3\n        /* \"#utility.yul\":10356:10357   */\n      dup2\n        /* \"#utility.yul\":10353:10367   */\n      lt\n        /* \"#utility.yul\":10345:10553   */\n      iszero\n      tag_205\n      jumpi\n        /* \"#utility.yul\":10438:10447   */\n      dup5\n        /* \"#utility.yul\":10433:10436   */\n      dup10\n        /* \"#utility.yul\":10429:10448   */\n      add\n        /* \"#utility.yul\":10423:10449   */\n      mload\n        /* \"#utility.yul\":10415:10421   */\n      dup3\n        /* \"#utility.yul\":10408:10450   */\n      sstore\n        /* \"#utility.yul\":10489:10490   */\n      0x01\n        /* \"#utility.yul\":10481:10487   */\n      dup3\n        /* \"#utility.yul\":10477:10491   */\n      add\n        /* \"#utility.yul\":10467:10491   */\n      swap2\n      pop\n        /* \"#utility.yul\":10536:10538   */\n      0x20\n        /* \"#utility.yul\":10525:10534   */\n      dup6\n        /* \"#utility.yul\":10521:10539   */\n      add\n        /* \"#utility.yul\":10508:10539   */\n      swap5\n      pop\n        /* \"#utility.yul\":10382:10386   */\n      0x20\n        /* \"#utility.yul\":10379:10380   */\n      dup2\n        /* \"#utility.yul\":10375:10387   */\n      add\n        /* \"#utility.yul\":10370:10387   */\n      swap1\n      pop\n        /* \"#utility.yul\":10345:10553   */\n      jump(tag_203)\n    tag_205:\n        /* \"#utility.yul\":10581:10587   */\n      dup7\n        /* \"#utility.yul\":10572:10579   */\n      dup4\n        /* \"#utility.yul\":10569:10588   */\n      lt\n        /* \"#utility.yul\":10566:10745   */\n      iszero\n      tag_206\n      jumpi\n        /* \"#utility.yul\":10639:10648   */\n      dup5\n        /* \"#utility.yul\":10634:10637   */\n      dup10\n        /* \"#utility.yul\":10630:10649   */\n      add\n        /* \"#utility.yul\":10624:10650   */\n      mload\n        /* \"#utility.yul\":10682:10730   */\n      tag_207\n        /* \"#utility.yul\":10724:10728   */\n      0x1f\n        /* \"#utility.yul\":10716:10722   */\n      dup10\n        /* \"#utility.yul\":10712:10729   */\n      and\n        /* \"#utility.yul\":10701:10710   */\n      dup3\n        /* \"#utility.yul\":10682:10730   */\n      tag_76\n      jump\t// in\n    tag_207:\n        /* \"#utility.yul\":10674:10680   */\n      dup4\n        /* \"#utility.yul\":10667:10731   */\n      sstore\n        /* \"#utility.yul\":10589:10745   */\n      pop\n        /* \"#utility.yul\":10566:10745   */\n    tag_206:\n        /* \"#utility.yul\":10791:10792   */\n      0x01\n        /* \"#utility.yul\":10787:10788   */\n      0x02\n        /* \"#utility.yul\":10779:10785   */\n      dup9\n        /* \"#utility.yul\":10775:10789   */\n      mul\n        /* \"#utility.yul\":10771:10793   */\n      add\n        /* \"#utility.yul\":10765:10769   */\n      dup9\n        /* \"#utility.yul\":10758:10794   */\n      sstore\n        /* \"#utility.yul\":10193:10804   */\n      pop\n      pop\n      pop\n        /* \"#utility.yul\":10156:11043   */\n    tag_198:\n      pop\n        /* \"#utility.yul\":9746:11049   */\n      pop\n      pop\n      pop\n        /* \"#utility.yul\":9654:11049   */\n      pop\n      pop\n      jump\t// out\n\n    auxdata: 0xa26469706673582212202bf5dd6461592b1c92dd6ce770e0348a3d0e129526ea2876a3cc6c07f578618864736f6c63430008110033\n}\n",
				"bytecode": {
					"linkReferences": {},
					"object": "608060405234801561001057600080fd5b506108ab806100206000396000f3fe608060405234801561001057600080fd5b506004361061004c5760003560e01c80632e64cec1146100515780636057361d1461006f5780636f760f411461008b5780639e7a13ad146100a7575b600080fd5b6100596100d8565b604051610066919061024d565b60405180910390f35b610089600480360381019061008491906102a8565b6100ee565b005b6100a560048036038101906100a0919061041b565b6100f8565b005b6100c160048036038101906100bc91906102a8565b610178565b6040516100cf9291906104f6565b60405180910390f35b600060026000546100e99190610555565b905090565b8060008190555050565b600060405180604001604052808381526020018481525090506001604051806040016040528084815260200185815250908060018154018082558091505060019003906000526020600020906002020160009091909190915060008201518160000155602082015181600101908161017091906107a3565b505050505050565b6001818154811061018857600080fd5b90600052602060002090600202016000915090508060000154908060010180546101b1906105c6565b80601f01602080910402602001604051908101604052809291908181526020018280546101dd906105c6565b801561022a5780601f106101ff5761010080835404028352916020019161022a565b820191906000526020600020905b81548152906001019060200180831161020d57829003601f168201915b5050505050905082565b6000819050919050565b61024781610234565b82525050565b6000602082019050610262600083018461023e565b92915050565b6000604051905090565b600080fd5b600080fd5b61028581610234565b811461029057600080fd5b50565b6000813590506102a28161027c565b92915050565b6000602082840312156102be576102bd610272565b5b60006102cc84828501610293565b91505092915050565b600080fd5b600080fd5b6000601f19601f8301169050919050565b7f4e487b7100000000000000000000000000000000000000000000000000000000600052604160045260246000fd5b610328826102df565b810181811067ffffffffffffffff82111715610347576103466102f0565b5b80604052505050565b600061035a610268565b9050610366828261031f565b919050565b600067ffffffffffffffff821115610386576103856102f0565b5b61038f826102df565b9050602081019050919050565b82818337600083830152505050565b60006103be6103b98461036b565b610350565b9050828152602081018484840111156103da576103d96102da565b5b6103e584828561039c565b509392505050565b600082601f830112610402576104016102d5565b5b81356104128482602086016103ab565b91505092915050565b6000806040838503121561043257610431610272565b5b600083013567ffffffffffffffff8111156104505761044f610277565b5b61045c858286016103ed565b925050602061046d85828601610293565b9150509250929050565b600081519050919050565b600082825260208201905092915050565b60005b838110156104b1578082015181840152602081019050610496565b60008484015250505050565b60006104c882610477565b6104d28185610482565b93506104e2818560208601610493565b6104eb816102df565b840191505092915050565b600060408201905061050b600083018561023e565b818103602083015261051d81846104bd565b90509392505050565b7f4e487b7100000000000000000000000000000000000000000000000000000000600052601160045260246000fd5b600061056082610234565b915061056b83610234565b925082820261057981610234565b915082820484148315176105905761058f610526565b5b5092915050565b7f4e487b7100000000000000000000000000000000000000000000000000000000600052602260045260246000fd5b600060028204905060018216806105de57607f821691505b6020821081036105f1576105f0610597565b5b50919050565b60008190508160005260206000209050919050565b60006020601f8301049050919050565b600082821b905092915050565b6000600883026106597fffffffffffffffffffffffffffffffffffffffffffffffffffffffffffffffff8261061c565b610663868361061c565b95508019841693508086168417925050509392505050565b6000819050919050565b60006106a061069b61069684610234565b61067b565b610234565b9050919050565b6000819050919050565b6106ba83610685565b6106ce6106c6826106a7565b848454610629565b825550505050565b600090565b6106e36106d6565b6106ee8184846106b1565b505050565b5b81811015610712576107076000826106db565b6001810190506106f4565b5050565b601f82111561075757610728816105f7565b6107318461060c565b81016020851015610740578190505b61075461074c8561060c565b8301826106f3565b50505b505050565b600082821c905092915050565b600061077a6000198460080261075c565b1980831691505092915050565b60006107938383610769565b9150826002028217905092915050565b6107ac82610477565b67ffffffffffffffff8111156107c5576107c46102f0565b5b6107cf82546105c6565b6107da828285610716565b600060209050601f83116001811461080d57600084156107fb578287015190505b6108058582610787565b86555061086d565b601f19841661081b866105f7565b60005b828110156108435784890151825560018201915060208501945060208101905061081e565b86831015610860578489015161085c601f891682610769565b8355505b6001600288020188555050505b50505050505056fea26469706673582212202bf5dd6461592b1c92dd6ce770e0348a3d0e129526ea2876a3cc6c07f578618864736f6c63430008110033",
					"opcodes": "PUSH1 0x80 PUSH1 0x40 MSTORE CALLVALUE DUP1 ISZERO PUSH2 0x10 JUMPI PUSH1 0x0 DUP1 REVERT JUMPDEST POP PUSH2 0x8AB DUP1 PUSH2 0x20 PUSH1 0x0 CODECOPY PUSH1 0x0 RETURN INVALID PUSH1 0x80 PUSH1 0x40 MSTORE CALLVALUE DUP1 ISZERO PUSH2 0x10 JUMPI PUSH1 0x0 DUP1 REVERT JUMPDEST POP PUSH1 0x4 CALLDATASIZE LT PUSH2 0x4C JUMPI PUSH1 0x0 CALLDATALOAD PUSH1 0xE0 SHR DUP1 PUSH4 0x2E64CEC1 EQ PUSH2 0x51 JUMPI DUP1 PUSH4 0x6057361D EQ PUSH2 0x6F JUMPI DUP1 PUSH4 0x6F760F41 EQ PUSH2 0x8B JUMPI DUP1 PUSH4 0x9E7A13AD EQ PUSH2 0xA7 JUMPI JUMPDEST PUSH1 0x0 DUP1 REVERT JUMPDEST PUSH2 0x59 PUSH2 0xD8 JUMP JUMPDEST PUSH1 0x40 MLOAD PUSH2 0x66 SWAP2 SWAP1 PUSH2 0x24D JUMP JUMPDEST PUSH1 0x40 MLOAD DUP1 SWAP2 SUB SWAP1 RETURN JUMPDEST PUSH2 0x89 PUSH1 0x4 DUP1 CALLDATASIZE SUB DUP2 ADD SWAP1 PUSH2 0x84 SWAP2 SWAP1 PUSH2 0x2A8 JUMP JUMPDEST PUSH2 0xEE JUMP JUMPDEST STOP JUMPDEST PUSH2 0xA5 PUSH1 0x4 DUP1 CALLDATASIZE SUB DUP2 ADD SWAP1 PUSH2 0xA0 SWAP2 SWAP1 PUSH2 0x41B JUMP JUMPDEST PUSH2 0xF8 JUMP JUMPDEST STOP JUMPDEST PUSH2 0xC1 PUSH1 0x4 DUP1 CALLDATASIZE SUB DUP2 ADD SWAP1 PUSH2 0xBC SWAP2 SWAP1 PUSH2 0x2A8 JUMP JUMPDEST PUSH2 0x178 JUMP JUMPDEST PUSH1 0x40 MLOAD PUSH2 0xCF SWAP3 SWAP2 SWAP1 PUSH2 0x4F6 JUMP JUMPDEST PUSH1 0x40 MLOAD DUP1 SWAP2 SUB SWAP1 RETURN JUMPDEST PUSH1 0x0 PUSH1 0x2 PUSH1 0x0 SLOAD PUSH2 0xE9 SWAP2 SWAP1 PUSH2 0x555 JUMP JUMPDEST SWAP1 POP SWAP1 JUMP JUMPDEST DUP1 PUSH1 0x0 DUP2 SWAP1 SSTORE POP POP JUMP JUMPDEST PUSH1 0x0 PUSH1 0x40 MLOAD DUP1 PUSH1 0x40 ADD PUSH1 0x40 MSTORE DUP1 DUP4 DUP2 MSTORE PUSH1 0x20 ADD DUP5 DUP2 MSTORE POP SWAP1 POP PUSH1 0x1 PUSH1 0x40 MLOAD DUP1 PUSH1 0x40 ADD PUSH1 0x40 MSTORE DUP1 DUP5 DUP2 MSTORE PUSH1 0x20 ADD DUP6 DUP2 MSTORE POP SWAP1 DUP1 PUSH1 0x1 DUP2 SLOAD ADD DUP1 DUP3 SSTORE DUP1 SWAP2 POP POP PUSH1 0x1 SWAP1 SUB SWAP1 PUSH1 0x0 MSTORE PUSH1 0x20 PUSH1 0x0 KECCAK256 SWAP1 PUSH1 0x2 MUL ADD PUSH1 0x0 SWAP1 SWAP2 SWAP1 SWAP2 SWAP1 SWAP2 POP PUSH1 0x0 DUP3 ADD MLOAD DUP2 PUSH1 0x0 ADD SSTORE PUSH1 0x20 DUP3 ADD MLOAD DUP2 PUSH1 0x1 ADD SWAP1 DUP2 PUSH2 0x170 SWAP2 SWAP1 PUSH2 0x7A3 JUMP JUMPDEST POP POP POP POP POP POP JUMP JUMPDEST PUSH1 0x1 DUP2 DUP2 SLOAD DUP2 LT PUSH2 0x188 JUMPI PUSH1 0x0 DUP1 REVERT JUMPDEST SWAP1 PUSH1 0x0 MSTORE PUSH1 0x20 PUSH1 0x0 KECCAK256 SWAP1 PUSH1 0x2 MUL ADD PUSH1 0x0 SWAP2 POP SWAP1 POP DUP1 PUSH1 0x0 ADD SLOAD SWAP1 DUP1 PUSH1 0x1 ADD DUP1 SLOAD PUSH2 0x1B1 SWAP1 PUSH2 0x5C6 JUMP JUMPDEST DUP1 PUSH1 0x1F ADD PUSH1 0x20 DUP1 SWAP2 DIV MUL PUSH1 0x20 ADD PUSH1 0x40 MLOAD SWAP1 DUP2 ADD PUSH1 0x40 MSTORE DUP1 SWAP3 SWAP2 SWAP1 DUP2 DUP2 MSTORE PUSH1 0x20 ADD DUP3 DUP1 SLOAD PUSH2 0x1DD SWAP1 PUSH2 0x5C6 JUMP JUMPDEST DUP1 ISZERO PUSH2 0x22A JUMPI DUP1 PUSH1 0x1F LT PUSH2 0x1FF JUMPI PUSH2 0x100 DUP1 DUP4 SLOAD DIV MUL DUP4 MSTORE SWAP2 PUSH1 0x20 ADD SWAP2 PUSH2 0x22A JUMP JUMPDEST DUP3 ADD SWAP2 SWAP1 PUSH1 0x0 MSTORE PUSH1 0x20 PUSH1 0x0 KECCAK256 SWAP1 JUMPDEST DUP2 SLOAD DUP2 MSTORE SWAP1 PUSH1 0x1 ADD SWAP1 PUSH1 0x20 ADD DUP1 DUP4 GT PUSH2 0x20D JUMPI DUP3 SWAP1 SUB PUSH1 0x1F AND DUP3 ADD SWAP2 JUMPDEST POP POP POP POP POP SWAP1 POP DUP3 JUMP JUMPDEST PUSH1 0x0 DUP2 SWAP1 POP SWAP2 SWAP1 POP JUMP JUMPDEST PUSH2 0x247 DUP2 PUSH2 0x234 JUMP JUMPDEST DUP3 MSTORE POP POP JUMP JUMPDEST PUSH1 0x0 PUSH1 0x20 DUP3 ADD SWAP1 POP PUSH2 0x262 PUSH1 0x0 DUP4 ADD DUP5 PUSH2 0x23E JUMP JUMPDEST SWAP3 SWAP2 POP POP JUMP JUMPDEST PUSH1 0x0 PUSH1 0x40 MLOAD SWAP1 POP SWAP1 JUMP JUMPDEST PUSH1 0x0 DUP1 REVERT JUMPDEST PUSH1 0x0 DUP1 REVERT JUMPDEST PUSH2 0x285 DUP2 PUSH2 0x234 JUMP JUMPDEST DUP2 EQ PUSH2 0x290 JUMPI PUSH1 0x0 DUP1 REVERT JUMPDEST POP JUMP JUMPDEST PUSH1 0x0 DUP2 CALLDATALOAD SWAP1 POP PUSH2 0x2A2 DUP2 PUSH2 0x27C JUMP JUMPDEST SWAP3 SWAP2 POP POP JUMP JUMPDEST PUSH1 0x0 PUSH1 0x20 DUP3 DUP5 SUB SLT ISZERO PUSH2 0x2BE JUMPI PUSH2 0x2BD PUSH2 0x272 JUMP JUMPDEST JUMPDEST PUSH1 0x0 PUSH2 0x2CC DUP5 DUP3 DUP6 ADD PUSH2 0x293 JUMP JUMPDEST SWAP2 POP POP SWAP3 SWAP2 POP POP JUMP JUMPDEST PUSH1 0x0 DUP1 REVERT JUMPDEST PUSH1 0x0 DUP1 REVERT JUMPDEST PUSH1 0x0 PUSH1 0x1F NOT PUSH1 0x1F DUP4 ADD AND SWAP1 POP SWAP2 SWAP1 POP JUMP JUMPDEST PUSH32 0x4E487B7100000000000000000000000000000000000000000000000000000000 PUSH1 0x0 MSTORE PUSH1 0x41 PUSH1 0x4 MSTORE PUSH1 0x24 PUSH1 0x0 REVERT JUMPDEST PUSH2 0x328 DUP3 PUSH2 0x2DF JUMP JUMPDEST DUP2 ADD DUP2 DUP2 LT PUSH8 0xFFFFFFFFFFFFFFFF DUP3 GT OR ISZERO PUSH2 0x347 JUMPI PUSH2 0x346 PUSH2 0x2F0 JUMP JUMPDEST JUMPDEST DUP1 PUSH1 0x40 MSTORE POP POP POP JUMP JUMPDEST PUSH1 0x0 PUSH2 0x35A PUSH2 0x268 JUMP JUMPDEST SWAP1 POP PUSH2 0x366 DUP3 DUP3 PUSH2 0x31F JUMP JUMPDEST SWAP2 SWAP1 POP JUMP JUMPDEST PUSH1 0x0 PUSH8 0xFFFFFFFFFFFFFFFF DUP3 GT ISZERO PUSH2 0x386 JUMPI PUSH2 0x385 PUSH2 0x2F0 JUMP JUMPDEST JUMPDEST PUSH2 0x38F DUP3 PUSH2 0x2DF JUMP JUMPDEST SWAP1 POP PUSH1 0x20 DUP2 ADD SWAP1 POP SWAP2 SWAP1 POP JUMP JUMPDEST DUP3 DUP2 DUP4 CALLDATACOPY PUSH1 0x0 DUP4 DUP4 ADD MSTORE POP POP POP JUMP JUMPDEST PUSH1 0x0 PUSH2 0x3BE PUSH2 0x3B9 DUP5 PUSH2 0x36B JUMP JUMPDEST PUSH2 0x350 JUMP JUMPDEST SWAP1 POP DUP3 DUP2 MSTORE PUSH1 0x20 DUP2 ADD DUP5 DUP5 DUP5 ADD GT ISZERO PUSH2 0x3DA JUMPI PUSH2 0x3D9 PUSH2 0x2DA JUMP JUMPDEST JUMPDEST PUSH2 0x3E5 DUP5 DUP3 DUP6 PUSH2 0x39C JUMP JUMPDEST POP SWAP4 SWAP3 POP POP POP JUMP JUMPDEST PUSH1 0x0 DUP3 PUSH1 0x1F DUP4 ADD SLT PUSH2 0x402 JUMPI PUSH2 0x401 PUSH2 0x2D5 JUMP JUMPDEST JUMPDEST DUP2 CALLDATALOAD PUSH2 0x412 DUP5 DUP3 PUSH1 0x20 DUP7 ADD PUSH2 0x3AB JUMP JUMPDEST SWAP2 POP POP SWAP3 SWAP2 POP POP JUMP JUMPDEST PUSH1 0x0 DUP1 PUSH1 0x40 DUP4 DUP6 SUB SLT ISZERO PUSH2 0x432 JUMPI PUSH2 0x431 PUSH2 0x272 JUMP JUMPDEST JUMPDEST PUSH1 0x0 DUP4 ADD CALLDATALOAD PUSH8 0xFFFFFFFFFFFFFFFF DUP2 GT ISZERO PUSH2 0x450 JUMPI PUSH2 0x44F PUSH2 0x277 JUMP JUMPDEST JUMPDEST PUSH2 0x45C DUP6 DUP3 DUP7 ADD PUSH2 0x3ED JUMP JUMPDEST SWAP3 POP POP PUSH1 0x20 PUSH2 0x46D DUP6 DUP3 DUP7 ADD PUSH2 0x293 JUMP JUMPDEST SWAP2 POP POP SWAP3 POP SWAP3 SWAP1 POP JUMP JUMPDEST PUSH1 0x0 DUP2 MLOAD SWAP1 POP SWAP2 SWAP1 POP JUMP JUMPDEST PUSH1 0x0 DUP3 DUP3 MSTORE PUSH1 0x20 DUP3 ADD SWAP1 POP SWAP3 SWAP2 POP POP JUMP JUMPDEST PUSH1 0x0 JUMPDEST DUP4 DUP2 LT ISZERO PUSH2 0x4B1 JUMPI DUP1 DUP3 ADD MLOAD DUP2 DUP5 ADD MSTORE PUSH1 0x20 DUP2 ADD SWAP1 POP PUSH2 0x496 JUMP JUMPDEST PUSH1 0x0 DUP5 DUP5 ADD MSTORE POP POP POP POP JUMP JUMPDEST PUSH1 0x0 PUSH2 0x4C8 DUP3 PUSH2 0x477 JUMP JUMPDEST PUSH2 0x4D2 DUP2 DUP6 PUSH2 0x482 JUMP JUMPDEST SWAP4 POP PUSH2 0x4E2 DUP2 DUP6 PUSH1 0x20 DUP7 ADD PUSH2 0x493 JUMP JUMPDEST PUSH2 0x4EB DUP2 PUSH2 0x2DF JUMP JUMPDEST DUP5 ADD SWAP2 POP POP SWAP3 SWAP2 POP POP JUMP JUMPDEST PUSH1 0x0 PUSH1 0x40 DUP3 ADD SWAP1 POP PUSH2 0x50B PUSH1 0x0 DUP4 ADD DUP6 PUSH2 0x23E JUMP JUMPDEST DUP2 DUP2 SUB PUSH1 0x20 DUP4 ADD MSTORE PUSH2 0x51D DUP2 DUP5 PUSH2 0x4BD JUMP JUMPDEST SWAP1 POP SWAP4 SWAP3 POP POP POP JUMP JUMPDEST PUSH32 0x4E487B7100000000000000000000000000000000000000000000000000000000 PUSH1 0x0 MSTORE PUSH1 0x11 PUSH1 0x4 MSTORE PUSH1 0x24 PUSH1 0x0 REVERT JUMPDEST PUSH1 0x0 PUSH2 0x560 DUP3 PUSH2 0x234 JUMP JUMPDEST SWAP2 POP PUSH2 0x56B DUP4 PUSH2 0x234 JUMP JUMPDEST SWAP3 POP DUP3 DUP3 MUL PUSH2 0x579 DUP2 PUSH2 0x234 JUMP JUMPDEST SWAP2 POP DUP3 DUP3 DIV DUP5 EQ DUP4 ISZERO OR PUSH2 0x590 JUMPI PUSH2 0x58F PUSH2 0x526 JUMP JUMPDEST JUMPDEST POP SWAP3 SWAP2 POP POP JUMP JUMPDEST PUSH32 0x4E487B7100000000000000000000000000000000000000000000000000000000 PUSH1 0x0 MSTORE PUSH1 0x22 PUSH1 0x4 MSTORE PUSH1 0x24 PUSH1 0x0 REVERT JUMPDEST PUSH1 0x0 PUSH1 0x2 DUP3 DIV SWAP1 POP PUSH1 0x1 DUP3 AND DUP1 PUSH2 0x5DE JUMPI PUSH1 0x7F DUP3 AND SWAP2 POP JUMPDEST PUSH1 0x20 DUP3 LT DUP2 SUB PUSH2 0x5F1 JUMPI PUSH2 0x5F0 PUSH2 0x597 JUMP JUMPDEST JUMPDEST POP SWAP2 SWAP1 POP JUMP JUMPDEST PUSH1 0x0 DUP2 SWAP1 POP DUP2 PUSH1 0x0 MSTORE PUSH1 0x20 PUSH1 0x0 KECCAK256 SWAP1 POP SWAP2 SWAP1 POP JUMP JUMPDEST PUSH1 0x0 PUSH1 0x20 PUSH1 0x1F DUP4 ADD DIV SWAP1 POP SWAP2 SWAP1 POP JUMP JUMPDEST PUSH1 0x0 DUP3 DUP3 SHL SWAP1 POP SWAP3 SWAP2 POP POP JUMP JUMPDEST PUSH1 0x0 PUSH1 0x8 DUP4 MUL PUSH2 0x659 PUSH32 0xFFFFFFFFFFFFFFFFFFFFFFFFFFFFFFFFFFFFFFFFFFFFFFFFFFFFFFFFFFFFFFFF DUP3 PUSH2 0x61C JUMP JUMPDEST PUSH2 0x663 DUP7 DUP4 PUSH2 0x61C JUMP JUMPDEST SWAP6 POP DUP1 NOT DUP5 AND SWAP4 POP DUP1 DUP7 AND DUP5 OR SWAP3 POP POP POP SWAP4 SWAP3 POP POP POP JUMP JUMPDEST PUSH1 0x0 DUP2 SWAP1 POP SWAP2 SWAP1 POP JUMP JUMPDEST PUSH1 0x0 PUSH2 0x6A0 PUSH2 0x69B PUSH2 0x696 DUP5 PUSH2 0x234 JUMP JUMPDEST PUSH2 0x67B JUMP JUMPDEST PUSH2 0x234 JUMP JUMPDEST SWAP1 POP SWAP2 SWAP1 POP JUMP JUMPDEST PUSH1 0x0 DUP2 SWAP1 POP SWAP2 SWAP1 POP JUMP JUMPDEST PUSH2 0x6BA DUP4 PUSH2 0x685 JUMP JUMPDEST PUSH2 0x6CE PUSH2 0x6C6 DUP3 PUSH2 0x6A7 JUMP JUMPDEST DUP5 DUP5 SLOAD PUSH2 0x629 JUMP JUMPDEST DUP3 SSTORE POP POP POP POP JUMP JUMPDEST PUSH1 0x0 SWAP1 JUMP JUMPDEST PUSH2 0x6E3 PUSH2 0x6D6 JUMP JUMPDEST PUSH2 0x6EE DUP2 DUP5 DUP5 PUSH2 0x6B1 JUMP JUMPDEST POP POP POP JUMP JUMPDEST JUMPDEST DUP2 DUP2 LT ISZERO PUSH2 0x712 JUMPI PUSH2 0x707 PUSH1 0x0 DUP3 PUSH2 0x6DB JUMP JUMPDEST PUSH1 0x1 DUP2 ADD SWAP1 POP PUSH2 0x6F4 JUMP JUMPDEST POP POP JUMP JUMPDEST PUSH1 0x1F DUP3 GT ISZERO PUSH2 0x757 JUMPI PUSH2 0x728 DUP2 PUSH2 0x5F7 JUMP JUMPDEST PUSH2 0x731 DUP5 PUSH2 0x60C JUMP JUMPDEST DUP2 ADD PUSH1 0x20 DUP6 LT ISZERO PUSH2 0x740 JUMPI DUP2 SWAP1 POP JUMPDEST PUSH2 0x754 PUSH2 0x74C DUP6 PUSH2 0x60C JUMP JUMPDEST DUP4 ADD DUP3 PUSH2 0x6F3 JUMP JUMPDEST POP POP JUMPDEST POP POP POP JUMP JUMPDEST PUSH1 0x0 DUP3 DUP3 SHR SWAP1 POP SWAP3 SWAP2 POP POP JUMP JUMPDEST PUSH1 0x0 PUSH2 0x77A PUSH1 0x0 NOT DUP5 PUSH1 0x8 MUL PUSH2 0x75C JUMP JUMPDEST NOT DUP1 DUP4 AND SWAP2 POP POP SWAP3 SWAP2 POP POP JUMP JUMPDEST PUSH1 0x0 PUSH2 0x793 DUP4 DUP4 PUSH2 0x769 JUMP JUMPDEST SWAP2 POP DUP3 PUSH1 0x2 MUL DUP3 OR SWAP1 POP SWAP3 SWAP2 POP POP JUMP JUMPDEST PUSH2 0x7AC DUP3 PUSH2 0x477 JUMP JUMPDEST PUSH8 0xFFFFFFFFFFFFFFFF DUP2 GT ISZERO PUSH2 0x7C5 JUMPI PUSH2 0x7C4 PUSH2 0x2F0 JUMP JUMPDEST JUMPDEST PUSH2 0x7CF DUP3 SLOAD PUSH2 0x5C6 JUMP JUMPDEST PUSH2 0x7DA DUP3 DUP3 DUP6 PUSH2 0x716 JUMP JUMPDEST PUSH1 0x0 PUSH1 0x20 SWAP1 POP PUSH1 0x1F DUP4 GT PUSH1 0x1 DUP2 EQ PUSH2 0x80D JUMPI PUSH1 0x0 DUP5 ISZERO PUSH2 0x7FB JUMPI DUP3 DUP8 ADD MLOAD SWAP1 POP JUMPDEST PUSH2 0x805 DUP6 DUP3 PUSH2 0x787 JUMP JUMPDEST DUP7 SSTORE POP PUSH2 0x86D JUMP JUMPDEST PUSH1 0x1F NOT DUP5 AND PUSH2 0x81B DUP7 PUSH2 0x5F7 JUMP JUMPDEST PUSH1 0x0 JUMPDEST DUP3 DUP2 LT ISZERO PUSH2 0x843 JUMPI DUP5 DUP10 ADD MLOAD DUP3 SSTORE PUSH1 0x1 DUP3 ADD SWAP2 POP PUSH1 0x20 DUP6 ADD SWAP5 POP PUSH1 0x20 DUP2 ADD SWAP1 POP PUSH2 0x81E JUMP JUMPDEST DUP7 DUP4 LT ISZERO PUSH2 0x860 JUMPI DUP5 DUP10 ADD MLOAD PUSH2 0x85C PUSH1 0x1F DUP10 AND DUP3 PUSH2 0x769 JUMP JUMPDEST DUP4 SSTORE POP JUMPDEST PUSH1 0x1 PUSH1 0x2 DUP9 MUL ADD DUP9 SSTORE POP POP POP JUMPDEST POP POP POP POP POP POP JUMP INVALID LOG2 PUSH5 0x6970667358 0x22 SLT KECCAK256 0x2B CREATE2 0xDD PUSH5 0x61592B1C92 0xDD PUSH13 0xE770E0348A3D0E129526EA2876 LOG3 0xCC PUSH13 0x7F578618864736F6C63430008 GT STOP CALLER "
				},
				"gasEstimates": {
					"creation": {
						"codeDepositCost": "443800",
						"executionCost": "480",
						"totalCost": "444280"
					},
					"external": {
						"addPerson(string,uint256)": "infinite",
						"people(uint256)": "infinite",
						"retrieve()": "infinite",
						"store(uint256)": "22520"
					}
				},
				"methodIdentifiers": {
					"addPerson(string,uint256)": "6f760f41",
					"people(uint256)": "9e7a13ad",
					"retrieve()": "2e64cec1",
					"store(uint256)": "6057361d"
				}
			},
			"storageLayout": {
				"storage": [
					{
						"astId": 3,
						"contract": "contracts/SimpleStorage.sol:SimpleStorage",
						"label": "favoriteNumber",
						"offset": 0,
						"slot": "0",
						"type": "t_uint256"
					},
					{
						"astId": 12,
						"contract": "contracts/SimpleStorage.sol:SimpleStorage",
						"label": "people",
						"offset": 0,
						"slot": "1",
						"type": "t_array(t_struct(People)8_storage)dyn_storage"
					}
				],
				"types": {
					"t_array(t_struct(People)8_storage)dyn_storage": {
						"base": "t_struct(People)8_storage",
						"encoding": "dynamic_array",
						"label": "struct SimpleStorage.People[]",
						"numberOfBytes": "32"
					},
					"t_string_storage": {
						"encoding": "bytes",
						"label": "string",
						"numberOfBytes": "32"
					},
					"t_struct(People)8_storage": {
						"encoding": "inplace",
						"label": "struct SimpleStorage.People",
						"members": [
							{
								"astId": 5,
								"contract": "contracts/SimpleStorage.sol:SimpleStorage",
								"label": "favoriteNumber",
								"offset": 0,
								"slot": "0",
								"type": "t_uint256"
							},
							{
								"astId": 7,
								"contract": "contracts/SimpleStorage.sol:SimpleStorage",
								"label": "name",
								"offset": 0,
								"slot": "1",
								"type": "t_string_storage"
							}
						],
						"numberOfBytes": "64"
					},
					"t_uint256": {
						"encoding": "inplace",
						"label": "uint256",
						"numberOfBytes": "32"
					}
				}
			},
			"userdoc": {
				"kind": "user",
				"methods": {},
				"version": 1
			}
		}
	}
}