{
	"contracts/FundMe.sol": {
		"fundMe": {
			"abi": [
				{
					"inputs": [],
					"name": "fund",
					"outputs": [],
					"stateMutability": "payable",
					"type": "function"
				},
				{
					"inputs": [],
					"name": "getConversationRate",
					"outputs": [],
					"stateMutability": "nonpayable",
					"type": "function"
				},
				{
					"inputs": [],
					"name": "getPrice",
					"outputs": [],
					"stateMutability": "nonpayable",
					"type": "function"
				},
				{
					"inputs": [],
					"name": "miminumUsd",
					"outputs": [
						{
							"internalType": "uint256",
							"name": "",
							"type": "uint256"
						}
					],
					"stateMutability": "view",
					"type": "function"
				}
			],
			"devdoc": {
				"kind": "dev",
				"methods": {},
				"version": 1
			},
			"evm": {
				"assembly": "    /* \"contracts/FundMe.sol\":1413:2396  contract fundMe {... */\n  mstore(0x40, 0x80)\n    /* \"contracts/FundMe.sol\":1465:1467  50 */\n  0x32\n    /* \"contracts/FundMe.sol\":1437:1467  uint256 public miminumUsd = 50 */\n  0x00\n  sstore\n    /* \"contracts/FundMe.sol\":1413:2396  contract fundMe {... */\n  callvalue\n  dup1\n  iszero\n  tag_1\n  jumpi\n  0x00\n  dup1\n  revert\ntag_1:\n  pop\n  dataSize(sub_0)\n  dup1\n  dataOffset(sub_0)\n  0x00\n  codecopy\n  0x00\n  return\nstop\n\nsub_0: assembly {\n        /* \"contracts/FundMe.sol\":1413:2396  contract fundMe {... */\n      mstore(0x40, 0x80)\n      jumpi(tag_1, lt(calldatasize, 0x04))\n      shr(0xe0, calldataload(0x00))\n      dup1\n      0x50ce2420\n      eq\n      tag_2\n      jumpi\n      dup1\n      0x75263f22\n      eq\n      tag_3\n      jumpi\n      dup1\n      0x98d5fdca\n      eq\n      tag_4\n      jumpi\n      dup1\n      0xb60d4288\n      eq\n      tag_5\n      jumpi\n    tag_1:\n      0x00\n      dup1\n      revert\n        /* \"contracts/FundMe.sol\":2318:2360  function getConversationRate() public   {} */\n    tag_2:\n      callvalue\n      dup1\n      iszero\n      tag_6\n      jumpi\n      0x00\n      dup1\n      revert\n    tag_6:\n      pop\n      tag_7\n      tag_8\n      jump\t// in\n    tag_7:\n      stop\n        /* \"contracts/FundMe.sol\":1437:1467  uint256 public miminumUsd = 50 */\n    tag_3:\n      callvalue\n      dup1\n      iszero\n      tag_9\n      jumpi\n      0x00\n      dup1\n      revert\n    tag_9:\n      pop\n      tag_10\n      tag_11\n      jump\t// in\n    tag_10:\n      mload(0x40)\n      tag_12\n      swap2\n      swap1\n      tag_13\n      jump\t// in\n    tag_12:\n      mload(0x40)\n      dup1\n      swap2\n      sub\n      swap1\n      return\n        /* \"contracts/FundMe.sol\":1996:2312  function getPrice() public {... */\n    tag_4:\n      callvalue\n      dup1\n      iszero\n      tag_14\n      jumpi\n      0x00\n      dup1\n      revert\n    tag_14:\n      pop\n      tag_15\n      tag_16\n      jump\t// in\n    tag_15:\n      stop\n        /* \"contracts/FundMe.sol\":1534:1990  function fund() public payable {... */\n    tag_5:\n      tag_17\n      tag_18\n      jump\t// in\n    tag_17:\n      stop\n        /* \"contracts/FundMe.sol\":2318:2360  function getConversationRate() public   {} */\n    tag_8:\n      jump\t// out\n        /* \"contracts/FundMe.sol\":1437:1467  uint256 public miminumUsd = 50 */\n    tag_11:\n      sload(0x00)\n      dup2\n      jump\t// out\n        /* \"contracts/FundMe.sol\":1996:2312  function getPrice() public {... */\n    tag_16:\n        /* \"contracts/FundMe.sol\":2160:2191  AggregatorV3Interface priceFeed */\n      0x00\n        /* \"contracts/FundMe.sol\":2216:2258  0xD4a33860578De61DBAbDc8BFdb98FD742fA7028e */\n      0xd4a33860578de61dbabdc8bfdb98fd742fa7028e\n        /* \"contracts/FundMe.sol\":2160:2259  AggregatorV3Interface priceFeed = AggregatorV3Interface(0xD4a33860578De61DBAbDc8BFdb98FD742fA7028e) */\n      swap1\n      pop\n        /* \"contracts/FundMe.sol\":2269:2278  priceFeed */\n      dup1\n        /* \"contracts/FundMe.sol\":2269:2294  priceFeed.latestRoundData */\n      0xffffffffffffffffffffffffffffffffffffffff\n      and\n      0xfeaf968c\n        /* \"contracts/FundMe.sol\":2269:2296  priceFeed.latestRoundData() */\n      mload(0x40)\n      dup2\n      0xffffffff\n      and\n      0xe0\n      shl\n      dup2\n      mstore\n      0x04\n      add\n      0xa0\n      mload(0x40)\n      dup1\n      dup4\n      sub\n      dup2\n      dup7\n      dup1\n      extcodesize\n      iszero\n      dup1\n      iszero\n      tag_21\n      jumpi\n      0x00\n      dup1\n      revert\n    tag_21:\n      pop\n      gas\n      staticcall\n      iszero\n      dup1\n      iszero\n      tag_23\n      jumpi\n      returndatasize\n      0x00\n      dup1\n      returndatacopy\n      revert(0x00, returndatasize)\n    tag_23:\n      pop\n      pop\n      pop\n      pop\n      mload(0x40)\n      returndatasize\n      not(0x1f)\n      0x1f\n      dup3\n      add\n      and\n      dup3\n      add\n      dup1\n      0x40\n      mstore\n      pop\n      dup2\n      add\n      swap1\n      tag_24\n      swap2\n      swap1\n      tag_25\n      jump\t// in\n    tag_24:\n      pop\n      pop\n      pop\n      pop\n      pop\n        /* \"contracts/FundMe.sol\":2023:2312  {... */\n      pop\n        /* \"contracts/FundMe.sol\":1996:2312  function getPrice() public {... */\n      jump\t// out\n        /* \"contracts/FundMe.sol\":1534:1990  function fund() public payable {... */\n    tag_18:\n        /* \"contracts/FundMe.sol\":1958:1968  miminumUsd */\n      sload(0x00)\n        /* \"contracts/FundMe.sol\":1945:1954  msg.value */\n      callvalue\n        /* \"contracts/FundMe.sol\":1945:1968  msg.value >= miminumUsd */\n      lt\n      iszero\n        /* \"contracts/FundMe.sol\":1937:1983  require(msg.value >= miminumUsd, \"Not enough\") */\n      tag_27\n      jumpi\n      mload(0x40)\n      0x08c379a000000000000000000000000000000000000000000000000000000000\n      dup2\n      mstore\n      0x04\n      add\n      tag_28\n      swap1\n      tag_29\n      jump\t// in\n    tag_28:\n      mload(0x40)\n      dup1\n      swap2\n      sub\n      swap1\n      revert\n    tag_27:\n        /* \"contracts/FundMe.sol\":1534:1990  function fund() public payable {... */\n      jump\t// out\n        /* \"#utility.yul\":7:148   */\n    tag_31:\n        /* \"#utility.yul\":63:68   */\n      0x00\n        /* \"#utility.yul\":94:100   */\n      dup2\n        /* \"#utility.yul\":88:101   */\n      mload\n        /* \"#utility.yul\":79:101   */\n      swap1\n      pop\n        /* \"#utility.yul\":110:142   */\n      tag_33\n        /* \"#utility.yul\":136:141   */\n      dup2\n        /* \"#utility.yul\":110:142   */\n      tag_34\n      jump\t// in\n    tag_33:\n        /* \"#utility.yul\":7:148   */\n      swap3\n      swap2\n      pop\n      pop\n      jump\t// out\n        /* \"#utility.yul\":154:297   */\n    tag_35:\n        /* \"#utility.yul\":211:216   */\n      0x00\n        /* \"#utility.yul\":242:248   */\n      dup2\n        /* \"#utility.yul\":236:249   */\n      mload\n        /* \"#utility.yul\":227:249   */\n      swap1\n      pop\n        /* \"#utility.yul\":258:291   */\n      tag_37\n        /* \"#utility.yul\":285:290   */\n      dup2\n        /* \"#utility.yul\":258:291   */\n      tag_38\n      jump\t// in\n    tag_37:\n        /* \"#utility.yul\":154:297   */\n      swap3\n      swap2\n      pop\n      pop\n      jump\t// out\n        /* \"#utility.yul\":303:444   */\n    tag_39:\n        /* \"#utility.yul\":359:364   */\n      0x00\n        /* \"#utility.yul\":390:396   */\n      dup2\n        /* \"#utility.yul\":384:397   */\n      mload\n        /* \"#utility.yul\":375:397   */\n      swap1\n      pop\n        /* \"#utility.yul\":406:438   */\n      tag_41\n        /* \"#utility.yul\":432:437   */\n      dup2\n        /* \"#utility.yul\":406:438   */\n      tag_42\n      jump\t// in\n    tag_41:\n        /* \"#utility.yul\":303:444   */\n      swap3\n      swap2\n      pop\n      pop\n      jump\t// out\n        /* \"#utility.yul\":450:1421   */\n    tag_25:\n        /* \"#utility.yul\":553:559   */\n      0x00\n        /* \"#utility.yul\":561:567   */\n      dup1\n        /* \"#utility.yul\":569:575   */\n      0x00\n        /* \"#utility.yul\":577:583   */\n      dup1\n        /* \"#utility.yul\":585:591   */\n      0x00\n        /* \"#utility.yul\":634:637   */\n      0xa0\n        /* \"#utility.yul\":622:631   */\n      dup7\n        /* \"#utility.yul\":613:620   */\n      dup9\n        /* \"#utility.yul\":609:632   */\n      sub\n        /* \"#utility.yul\":605:638   */\n      slt\n        /* \"#utility.yul\":602:722   */\n      iszero\n      tag_44\n      jumpi\n        /* \"#utility.yul\":641:720   */\n      tag_45\n      tag_46\n      jump\t// in\n    tag_45:\n        /* \"#utility.yul\":602:722   */\n    tag_44:\n        /* \"#utility.yul\":761:762   */\n      0x00\n        /* \"#utility.yul\":786:849   */\n      tag_47\n        /* \"#utility.yul\":841:848   */\n      dup9\n        /* \"#utility.yul\":832:838   */\n      dup3\n        /* \"#utility.yul\":821:830   */\n      dup10\n        /* \"#utility.yul\":817:839   */\n      add\n        /* \"#utility.yul\":786:849   */\n      tag_39\n      jump\t// in\n    tag_47:\n        /* \"#utility.yul\":776:849   */\n      swap6\n      pop\n        /* \"#utility.yul\":732:859   */\n      pop\n        /* \"#utility.yul\":898:900   */\n      0x20\n        /* \"#utility.yul\":924:987   */\n      tag_48\n        /* \"#utility.yul\":979:986   */\n      dup9\n        /* \"#utility.yul\":970:976   */\n      dup3\n        /* \"#utility.yul\":959:968   */\n      dup10\n        /* \"#utility.yul\":955:977   */\n      add\n        /* \"#utility.yul\":924:987   */\n      tag_31\n      jump\t// in\n    tag_48:\n        /* \"#utility.yul\":914:987   */\n      swap5\n      pop\n        /* \"#utility.yul\":869:997   */\n      pop\n        /* \"#utility.yul\":1036:1038   */\n      0x40\n        /* \"#utility.yul\":1062:1126   */\n      tag_49\n        /* \"#utility.yul\":1118:1125   */\n      dup9\n        /* \"#utility.yul\":1109:1115   */\n      dup3\n        /* \"#utility.yul\":1098:1107   */\n      dup10\n        /* \"#utility.yul\":1094:1116   */\n      add\n        /* \"#utility.yul\":1062:1126   */\n      tag_35\n      jump\t// in\n    tag_49:\n        /* \"#utility.yul\":1052:1126   */\n      swap4\n      pop\n        /* \"#utility.yul\":1007:1136   */\n      pop\n        /* \"#utility.yul\":1175:1177   */\n      0x60\n        /* \"#utility.yul\":1201:1265   */\n      tag_50\n        /* \"#utility.yul\":1257:1264   */\n      dup9\n        /* \"#utility.yul\":1248:1254   */\n      dup3\n        /* \"#utility.yul\":1237:1246   */\n      dup10\n        /* \"#utility.yul\":1233:1255   */\n      add\n        /* \"#utility.yul\":1201:1265   */\n      tag_35\n      jump\t// in\n    tag_50:\n        /* \"#utility.yul\":1191:1265   */\n      swap3\n      pop\n        /* \"#utility.yul\":1146:1275   */\n      pop\n        /* \"#utility.yul\":1314:1317   */\n      0x80\n        /* \"#utility.yul\":1341:1404   */\n      tag_51\n        /* \"#utility.yul\":1396:1403   */\n      dup9\n        /* \"#utility.yul\":1387:1393   */\n      dup3\n        /* \"#utility.yul\":1376:1385   */\n      dup10\n        /* \"#utility.yul\":1372:1394   */\n      add\n        /* \"#utility.yul\":1341:1404   */\n      tag_39\n      jump\t// in\n    tag_51:\n        /* \"#utility.yul\":1331:1404   */\n      swap2\n      pop\n        /* \"#utility.yul\":1285:1414   */\n      pop\n        /* \"#utility.yul\":450:1421   */\n      swap3\n      swap6\n      pop\n      swap3\n      swap6\n      swap1\n      swap4\n      pop\n      jump\t// out\n        /* \"#utility.yul\":1427:1793   */\n    tag_52:\n        /* \"#utility.yul\":1569:1572   */\n      0x00\n        /* \"#utility.yul\":1590:1657   */\n      tag_54\n        /* \"#utility.yul\":1654:1656   */\n      0x0a\n        /* \"#utility.yul\":1649:1652   */\n      dup4\n        /* \"#utility.yul\":1590:1657   */\n      tag_55\n      jump\t// in\n    tag_54:\n        /* \"#utility.yul\":1583:1657   */\n      swap2\n      pop\n        /* \"#utility.yul\":1666:1759   */\n      tag_56\n        /* \"#utility.yul\":1755:1758   */\n      dup3\n        /* \"#utility.yul\":1666:1759   */\n      tag_57\n      jump\t// in\n    tag_56:\n        /* \"#utility.yul\":1784:1786   */\n      0x20\n        /* \"#utility.yul\":1779:1782   */\n      dup3\n        /* \"#utility.yul\":1775:1787   */\n      add\n        /* \"#utility.yul\":1768:1787   */\n      swap1\n      pop\n        /* \"#utility.yul\":1427:1793   */\n      swap2\n      swap1\n      pop\n      jump\t// out\n        /* \"#utility.yul\":1799:1917   */\n    tag_58:\n        /* \"#utility.yul\":1886:1910   */\n      tag_60\n        /* \"#utility.yul\":1904:1909   */\n      dup2\n        /* \"#utility.yul\":1886:1910   */\n      tag_61\n      jump\t// in\n    tag_60:\n        /* \"#utility.yul\":1881:1884   */\n      dup3\n        /* \"#utility.yul\":1874:1911   */\n      mstore\n        /* \"#utility.yul\":1799:1917   */\n      pop\n      pop\n      jump\t// out\n        /* \"#utility.yul\":1923:2342   */\n    tag_29:\n        /* \"#utility.yul\":2089:2093   */\n      0x00\n        /* \"#utility.yul\":2127:2129   */\n      0x20\n        /* \"#utility.yul\":2116:2125   */\n      dup3\n        /* \"#utility.yul\":2112:2130   */\n      add\n        /* \"#utility.yul\":2104:2130   */\n      swap1\n      pop\n        /* \"#utility.yul\":2176:2185   */\n      dup2\n        /* \"#utility.yul\":2170:2174   */\n      dup2\n        /* \"#utility.yul\":2166:2186   */\n      sub\n        /* \"#utility.yul\":2162:2163   */\n      0x00\n        /* \"#utility.yul\":2151:2160   */\n      dup4\n        /* \"#utility.yul\":2147:2164   */\n      add\n        /* \"#utility.yul\":2140:2187   */\n      mstore\n        /* \"#utility.yul\":2204:2335   */\n      tag_63\n        /* \"#utility.yul\":2330:2334   */\n      dup2\n        /* \"#utility.yul\":2204:2335   */\n      tag_52\n      jump\t// in\n    tag_63:\n        /* \"#utility.yul\":2196:2335   */\n      swap1\n      pop\n        /* \"#utility.yul\":1923:2342   */\n      swap2\n      swap1\n      pop\n      jump\t// out\n        /* \"#utility.yul\":2348:2570   */\n    tag_13:\n        /* \"#utility.yul\":2441:2445   */\n      0x00\n        /* \"#utility.yul\":2479:2481   */\n      0x20\n        /* \"#utility.yul\":2468:2477   */\n      dup3\n        /* \"#utility.yul\":2464:2482   */\n      add\n        /* \"#utility.yul\":2456:2482   */\n      swap1\n      pop\n        /* \"#utility.yul\":2492:2563   */\n      tag_65\n        /* \"#utility.yul\":2560:2561   */\n      0x00\n        /* \"#utility.yul\":2549:2558   */\n      dup4\n        /* \"#utility.yul\":2545:2562   */\n      add\n        /* \"#utility.yul\":2536:2542   */\n      dup5\n        /* \"#utility.yul\":2492:2563   */\n      tag_58\n      jump\t// in\n    tag_65:\n        /* \"#utility.yul\":2348:2570   */\n      swap3\n      swap2\n      pop\n      pop\n      jump\t// out\n        /* \"#utility.yul\":2657:2826   */\n    tag_55:\n        /* \"#utility.yul\":2741:2752   */\n      0x00\n        /* \"#utility.yul\":2775:2781   */\n      dup3\n        /* \"#utility.yul\":2770:2773   */\n      dup3\n        /* \"#utility.yul\":2763:2782   */\n      mstore\n        /* \"#utility.yul\":2815:2819   */\n      0x20\n        /* \"#utility.yul\":2810:2813   */\n      dup3\n        /* \"#utility.yul\":2806:2820   */\n      add\n        /* \"#utility.yul\":2791:2820   */\n      swap1\n      pop\n        /* \"#utility.yul\":2657:2826   */\n      swap3\n      swap2\n      pop\n      pop\n      jump\t// out\n        /* \"#utility.yul\":2832:2908   */\n    tag_69:\n        /* \"#utility.yul\":2868:2875   */\n      0x00\n        /* \"#utility.yul\":2897:2902   */\n      dup2\n        /* \"#utility.yul\":2886:2902   */\n      swap1\n      pop\n        /* \"#utility.yul\":2832:2908   */\n      swap2\n      swap1\n      pop\n      jump\t// out\n        /* \"#utility.yul\":2914:2991   */\n    tag_61:\n        /* \"#utility.yul\":2951:2958   */\n      0x00\n        /* \"#utility.yul\":2980:2985   */\n      dup2\n        /* \"#utility.yul\":2969:2985   */\n      swap1\n      pop\n        /* \"#utility.yul\":2914:2991   */\n      swap2\n      swap1\n      pop\n      jump\t// out\n        /* \"#utility.yul\":2997:3102   */\n    tag_72:\n        /* \"#utility.yul\":3033:3040   */\n      0x00\n        /* \"#utility.yul\":3073:3095   */\n      0xffffffffffffffffffff\n        /* \"#utility.yul\":3066:3071   */\n      dup3\n        /* \"#utility.yul\":3062:3096   */\n      and\n        /* \"#utility.yul\":3051:3096   */\n      swap1\n      pop\n        /* \"#utility.yul\":2997:3102   */\n      swap2\n      swap1\n      pop\n      jump\t// out\n        /* \"#utility.yul\":3231:3348   */\n    tag_46:\n        /* \"#utility.yul\":3340:3341   */\n      0x00\n        /* \"#utility.yul\":3337:3338   */\n      dup1\n        /* \"#utility.yul\":3330:3342   */\n      revert\n        /* \"#utility.yul\":3354:3514   */\n    tag_57:\n        /* \"#utility.yul\":3494:3506   */\n      0x4e6f7420656e6f75676800000000000000000000000000000000000000000000\n        /* \"#utility.yul\":3490:3491   */\n      0x00\n        /* \"#utility.yul\":3482:3488   */\n      dup3\n        /* \"#utility.yul\":3478:3492   */\n      add\n        /* \"#utility.yul\":3471:3507   */\n      mstore\n        /* \"#utility.yul\":3354:3514   */\n      pop\n      jump\t// out\n        /* \"#utility.yul\":3520:3640   */\n    tag_34:\n        /* \"#utility.yul\":3592:3615   */\n      tag_79\n        /* \"#utility.yul\":3609:3614   */\n      dup2\n        /* \"#utility.yul\":3592:3615   */\n      tag_69\n      jump\t// in\n    tag_79:\n        /* \"#utility.yul\":3585:3590   */\n      dup2\n        /* \"#utility.yul\":3582:3616   */\n      eq\n        /* \"#utility.yul\":3572:3634   */\n      tag_80\n      jumpi\n        /* \"#utility.yul\":3630:3631   */\n      0x00\n        /* \"#utility.yul\":3627:3628   */\n      dup1\n        /* \"#utility.yul\":3620:3632   */\n      revert\n        /* \"#utility.yul\":3572:3634   */\n    tag_80:\n        /* \"#utility.yul\":3520:3640   */\n      pop\n      jump\t// out\n        /* \"#utility.yul\":3646:3768   */\n    tag_38:\n        /* \"#utility.yul\":3719:3743   */\n      tag_82\n        /* \"#utility.yul\":3737:3742   */\n      dup2\n        /* \"#utility.yul\":3719:3743   */\n      tag_61\n      jump\t// in\n    tag_82:\n        /* \"#utility.yul\":3712:3717   */\n      dup2\n        /* \"#utility.yul\":3709:3744   */\n      eq\n        /* \"#utility.yul\":3699:3762   */\n      tag_83\n      jumpi\n        /* \"#utility.yul\":3758:3759   */\n      0x00\n        /* \"#utility.yul\":3755:3756   */\n      dup1\n        /* \"#utility.yul\":3748:3760   */\n      revert\n        /* \"#utility.yul\":3699:3762   */\n    tag_83:\n        /* \"#utility.yul\":3646:3768   */\n      pop\n      jump\t// out\n        /* \"#utility.yul\":3774:3894   */\n    tag_42:\n        /* \"#utility.yul\":3846:3869   */\n      tag_85\n        /* \"#utility.yul\":3863:3868   */\n      dup2\n        /* \"#utility.yul\":3846:3869   */\n      tag_72\n      jump\t// in\n    tag_85:\n        /* \"#utility.yul\":3839:3844   */\n      dup2\n        /* \"#utility.yul\":3836:3870   */\n      eq\n        /* \"#utility.yul\":3826:3888   */\n      tag_86\n      jumpi\n        /* \"#utility.yul\":3884:3885   */\n      0x00\n        /* \"#utility.yul\":3881:3882   */\n      dup1\n        /* \"#utility.yul\":3874:3886   */\n      revert\n        /* \"#utility.yul\":3826:3888   */\n    tag_86:\n        /* \"#utility.yul\":3774:3894   */\n      pop\n      jump\t// out\n\n    auxdata: 0xa2646970667358221220f54c68a279283918a6885e3469bcef0bb7918dc36c20966303eeb259f27e3a0c64736f6c63430008070033\n}\n",
				"bytecode": {
					"linkReferences": {},
					"object": "6080604052603260005534801561001557600080fd5b506103a0806100256000396000f3fe60806040526004361061003f5760003560e01c806350ce24201461004457806375263f221461005b57806398d5fdca14610086578063b60d42881461009d575b600080fd5b34801561005057600080fd5b506100596100a7565b005b34801561006757600080fd5b506100706100a9565b60405161007d91906102a1565b60405180910390f35b34801561009257600080fd5b5061009b6100af565b005b6100a561014e565b005b565b60005481565b600073d4a33860578de61dbabdc8bfdb98fd742fa7028e90508073ffffffffffffffffffffffffffffffffffffffff1663feaf968c6040518163ffffffff1660e01b815260040160a06040518083038186803b15801561010e57600080fd5b505afa158015610122573d6000803e3d6000fd5b505050506040513d601f19601f8201168201806040525081019061014691906101d4565b505050505050565b600054341015610193576040517f08c379a000000000000000000000000000000000000000000000000000000000815260040161018a90610281565b60405180910390fd5b565b6000815190506101a481610325565b92915050565b6000815190506101b98161033c565b92915050565b6000815190506101ce81610353565b92915050565b600080600080600060a086880312156101f0576101ef6102f7565b5b60006101fe888289016101bf565b955050602061020f88828901610195565b9450506040610220888289016101aa565b9350506060610231888289016101aa565b9250506080610242888289016101bf565b9150509295509295909350565b600061025c600a836102bc565b9150610267826102fc565b602082019050919050565b61027b816102d7565b82525050565b6000602082019050818103600083015261029a8161024f565b9050919050565b60006020820190506102b66000830184610272565b92915050565b600082825260208201905092915050565b6000819050919050565b6000819050919050565b600069ffffffffffffffffffff82169050919050565b600080fd5b7f4e6f7420656e6f75676800000000000000000000000000000000000000000000600082015250565b61032e816102cd565b811461033957600080fd5b50565b610345816102d7565b811461035057600080fd5b50565b61035c816102e1565b811461036757600080fd5b5056fea2646970667358221220f54c68a279283918a6885e3469bcef0bb7918dc36c20966303eeb259f27e3a0c64736f6c63430008070033",
					"opcodes": "PUSH1 0x80 PUSH1 0x40 MSTORE PUSH1 0x32 PUSH1 0x0 SSTORE CALLVALUE DUP1 ISZERO PUSH2 0x15 JUMPI PUSH1 0x0 DUP1 REVERT JUMPDEST POP PUSH2 0x3A0 DUP1 PUSH2 0x25 PUSH1 0x0 CODECOPY PUSH1 0x0 RETURN INVALID PUSH1 0x80 PUSH1 0x40 MSTORE PUSH1 0x4 CALLDATASIZE LT PUSH2 0x3F JUMPI PUSH1 0x0 CALLDATALOAD PUSH1 0xE0 SHR DUP1 PUSH4 0x50CE2420 EQ PUSH2 0x44 JUMPI DUP1 PUSH4 0x75263F22 EQ PUSH2 0x5B JUMPI DUP1 PUSH4 0x98D5FDCA EQ PUSH2 0x86 JUMPI DUP1 PUSH4 0xB60D4288 EQ PUSH2 0x9D JUMPI JUMPDEST PUSH1 0x0 DUP1 REVERT JUMPDEST CALLVALUE DUP1 ISZERO PUSH2 0x50 JUMPI PUSH1 0x0 DUP1 REVERT JUMPDEST POP PUSH2 0x59 PUSH2 0xA7 JUMP JUMPDEST STOP JUMPDEST CALLVALUE DUP1 ISZERO PUSH2 0x67 JUMPI PUSH1 0x0 DUP1 REVERT JUMPDEST POP PUSH2 0x70 PUSH2 0xA9 JUMP JUMPDEST PUSH1 0x40 MLOAD PUSH2 0x7D SWAP2 SWAP1 PUSH2 0x2A1 JUMP JUMPDEST PUSH1 0x40 MLOAD DUP1 SWAP2 SUB SWAP1 RETURN JUMPDEST CALLVALUE DUP1 ISZERO PUSH2 0x92 JUMPI PUSH1 0x0 DUP1 REVERT JUMPDEST POP PUSH2 0x9B PUSH2 0xAF JUMP JUMPDEST STOP JUMPDEST PUSH2 0xA5 PUSH2 0x14E JUMP JUMPDEST STOP JUMPDEST JUMP JUMPDEST PUSH1 0x0 SLOAD DUP2 JUMP JUMPDEST PUSH1 0x0 PUSH20 0xD4A33860578DE61DBABDC8BFDB98FD742FA7028E SWAP1 POP DUP1 PUSH20 0xFFFFFFFFFFFFFFFFFFFFFFFFFFFFFFFFFFFFFFFF AND PUSH4 0xFEAF968C PUSH1 0x40 MLOAD DUP2 PUSH4 0xFFFFFFFF AND PUSH1 0xE0 SHL DUP2 MSTORE PUSH1 0x4 ADD PUSH1 0xA0 PUSH1 0x40 MLOAD DUP1 DUP4 SUB DUP2 DUP7 DUP1 EXTCODESIZE ISZERO DUP1 ISZERO PUSH2 0x10E JUMPI PUSH1 0x0 DUP1 REVERT JUMPDEST POP GAS STATICCALL ISZERO DUP1 ISZERO PUSH2 0x122 JUMPI RETURNDATASIZE PUSH1 0x0 DUP1 RETURNDATACOPY RETURNDATASIZE PUSH1 0x0 REVERT JUMPDEST POP POP POP POP PUSH1 0x40 MLOAD RETURNDATASIZE PUSH1 0x1F NOT PUSH1 0x1F DUP3 ADD AND DUP3 ADD DUP1 PUSH1 0x40 MSTORE POP DUP2 ADD SWAP1 PUSH2 0x146 SWAP2 SWAP1 PUSH2 0x1D4 JUMP JUMPDEST POP POP POP POP POP POP JUMP JUMPDEST PUSH1 0x0 SLOAD CALLVALUE LT ISZERO PUSH2 0x193 JUMPI PUSH1 0x40 MLOAD PUSH32 0x8C379A000000000000000000000000000000000000000000000000000000000 DUP2 MSTORE PUSH1 0x4 ADD PUSH2 0x18A SWAP1 PUSH2 0x281 JUMP JUMPDEST PUSH1 0x40 MLOAD DUP1 SWAP2 SUB SWAP1 REVERT JUMPDEST JUMP JUMPDEST PUSH1 0x0 DUP2 MLOAD SWAP1 POP PUSH2 0x1A4 DUP2 PUSH2 0x325 JUMP JUMPDEST SWAP3 SWAP2 POP POP JUMP JUMPDEST PUSH1 0x0 DUP2 MLOAD SWAP1 POP PUSH2 0x1B9 DUP2 PUSH2 0x33C JUMP JUMPDEST SWAP3 SWAP2 POP POP JUMP JUMPDEST PUSH1 0x0 DUP2 MLOAD SWAP1 POP PUSH2 0x1CE DUP2 PUSH2 0x353 JUMP JUMPDEST SWAP3 SWAP2 POP POP JUMP JUMPDEST PUSH1 0x0 DUP1 PUSH1 0x0 DUP1 PUSH1 0x0 PUSH1 0xA0 DUP7 DUP9 SUB SLT ISZERO PUSH2 0x1F0 JUMPI PUSH2 0x1EF PUSH2 0x2F7 JUMP JUMPDEST JUMPDEST PUSH1 0x0 PUSH2 0x1FE DUP9 DUP3 DUP10 ADD PUSH2 0x1BF JUMP JUMPDEST SWAP6 POP POP PUSH1 0x20 PUSH2 0x20F DUP9 DUP3 DUP10 ADD PUSH2 0x195 JUMP JUMPDEST SWAP5 POP POP PUSH1 0x40 PUSH2 0x220 DUP9 DUP3 DUP10 ADD PUSH2 0x1AA JUMP JUMPDEST SWAP4 POP POP PUSH1 0x60 PUSH2 0x231 DUP9 DUP3 DUP10 ADD PUSH2 0x1AA JUMP JUMPDEST SWAP3 POP POP PUSH1 0x80 PUSH2 0x242 DUP9 DUP3 DUP10 ADD PUSH2 0x1BF JUMP JUMPDEST SWAP2 POP POP SWAP3 SWAP6 POP SWAP3 SWAP6 SWAP1 SWAP4 POP JUMP JUMPDEST PUSH1 0x0 PUSH2 0x25C PUSH1 0xA DUP4 PUSH2 0x2BC JUMP JUMPDEST SWAP2 POP PUSH2 0x267 DUP3 PUSH2 0x2FC JUMP JUMPDEST PUSH1 0x20 DUP3 ADD SWAP1 POP SWAP2 SWAP1 POP JUMP JUMPDEST PUSH2 0x27B DUP2 PUSH2 0x2D7 JUMP JUMPDEST DUP3 MSTORE POP POP JUMP JUMPDEST PUSH1 0x0 PUSH1 0x20 DUP3 ADD SWAP1 POP DUP2 DUP2 SUB PUSH1 0x0 DUP4 ADD MSTORE PUSH2 0x29A DUP2 PUSH2 0x24F JUMP JUMPDEST SWAP1 POP SWAP2 SWAP1 POP JUMP JUMPDEST PUSH1 0x0 PUSH1 0x20 DUP3 ADD SWAP1 POP PUSH2 0x2B6 PUSH1 0x0 DUP4 ADD DUP5 PUSH2 0x272 JUMP JUMPDEST SWAP3 SWAP2 POP POP JUMP JUMPDEST PUSH1 0x0 DUP3 DUP3 MSTORE PUSH1 0x20 DUP3 ADD SWAP1 POP SWAP3 SWAP2 POP POP JUMP JUMPDEST PUSH1 0x0 DUP2 SWAP1 POP SWAP2 SWAP1 POP JUMP JUMPDEST PUSH1 0x0 DUP2 SWAP1 POP SWAP2 SWAP1 POP JUMP JUMPDEST PUSH1 0x0 PUSH10 0xFFFFFFFFFFFFFFFFFFFF DUP3 AND SWAP1 POP SWAP2 SWAP1 POP JUMP JUMPDEST PUSH1 0x0 DUP1 REVERT JUMPDEST PUSH32 0x4E6F7420656E6F75676800000000000000000000000000000000000000000000 PUSH1 0x0 DUP3 ADD MSTORE POP JUMP JUMPDEST PUSH2 0x32E DUP2 PUSH2 0x2CD JUMP JUMPDEST DUP2 EQ PUSH2 0x339 JUMPI PUSH1 0x0 DUP1 REVERT JUMPDEST POP JUMP JUMPDEST PUSH2 0x345 DUP2 PUSH2 0x2D7 JUMP JUMPDEST DUP2 EQ PUSH2 0x350 JUMPI PUSH1 0x0 DUP1 REVERT JUMPDEST POP JUMP JUMPDEST PUSH2 0x35C DUP2 PUSH2 0x2E1 JUMP JUMPDEST DUP2 EQ PUSH2 0x367 JUMPI PUSH1 0x0 DUP1 REVERT JUMPDEST POP JUMP INVALID LOG2 PUSH5 0x6970667358 0x22 SLT KECCAK256 CREATE2 0x4C PUSH9 0xA279283918A6885E34 PUSH10 0xBCEF0BB7918DC36C2096 PUSH4 0x3EEB259 CALLCODE PUSH31 0x3A0C64736F6C63430008070033000000000000000000000000000000000000 "
				},
				"gasEstimates": {
					"creation": {
						"codeDepositCost": "185600",
						"executionCost": "22332",
						"totalCost": "207932"
					},
					"external": {
						"fund()": "2578",
						"getConversationRate()": "122",
						"getPrice()": "infinite",
						"miminumUsd()": "2429"
					}
				},
				"methodIdentifiers": {
					"fund()": "b60d4288",
					"getConversationRate()": "50ce2420",
					"getPrice()": "98d5fdca",
					"miminumUsd()": "75263f22"
				}
			},
			"storageLayout": {
				"storage": [
					{
						"astId": 51,
						"contract": "contracts/FundMe.sol:fundMe",
						"label": "miminumUsd",
						"offset": 0,
						"slot": "0",
						"type": "t_uint256"
					}
				],
				"types": {
					"t_uint256": {
						"encoding": "inplace",
						"label": "uint256",
						"numberOfBytes": "32"
					}
				}
			},
			"userdoc": {
				"kind": "user",
				"methods": {},
				"version": 1
			}
		}
	}
}