{
	"contracts/FundMe.sol": {
		"fundMe": {
			"abi": [
				{
					"inputs": [
						{
							"internalType": "address",
							"name": "",
							"type": "address"
						}
					],
					"name": "addressToAmountFunded",
					"outputs": [
						{
							"internalType": "uint256",
							"name": "",
							"type": "uint256"
						}
					],
					"stateMutability": "view",
					"type": "function"
				},
				{
					"inputs": [],
					"name": "fund",
					"outputs": [],
					"stateMutability": "payable",
					"type": "function"
				},
				{
					"inputs": [
						{
							"internalType": "uint256",
							"name": "",
							"type": "uint256"
						}
					],
					"name": "funders",
					"outputs": [
						{
							"internalType": "address",
							"name": "",
							"type": "address"
						}
					],
					"stateMutability": "view",
					"type": "function"
				},
				{
					"inputs": [],
					"name": "miminumUsd",
					"outputs": [
						{
							"internalType": "uint256",
							"name": "",
							"type": "uint256"
						}
					],
					"stateMutability": "view",
					"type": "function"
				},
				{
					"inputs": [],
					"name": "withdraw",
					"outputs": [],
					"stateMutability": "nonpayable",
					"type": "function"
				}
			],
			"devdoc": {
				"kind": "dev",
				"methods": {},
				"version": 1
			},
			"evm": {
				"assembly": "    /* \"contracts/FundMe.sol\":1364:3405  contract fundMe {... */\n  mstore(0x40, 0x80)\n    /* \"contracts/FundMe.sol\":1453:1462  50 * 1e18 */\n  0x02b5e3af16b1880000\n    /* \"contracts/FundMe.sol\":1425:1462  uint256 public miminumUsd = 50 * 1e18 */\n  0x00\n  sstore\n    /* \"contracts/FundMe.sol\":1364:3405  contract fundMe {... */\n  callvalue\n  dup1\n  iszero\n  tag_1\n  jumpi\n  0x00\n  dup1\n  revert\ntag_1:\n  pop\n  dataSize(sub_0)\n  dup1\n  dataOffset(sub_0)\n  0x00\n  codecopy\n  0x00\n  return\nstop\n\nsub_0: assembly {\n        /* \"contracts/FundMe.sol\":1364:3405  contract fundMe {... */\n      mstore(0x40, 0x80)\n      jumpi(tag_1, lt(calldatasize, 0x04))\n      shr(0xe0, calldataload(0x00))\n      dup1\n      0x3ccfd60b\n      eq\n      tag_2\n      jumpi\n      dup1\n      0x3e47d6f3\n      eq\n      tag_3\n      jumpi\n      dup1\n      0x75263f22\n      eq\n      tag_4\n      jumpi\n      dup1\n      0xb60d4288\n      eq\n      tag_5\n      jumpi\n      dup1\n      0xdc0d3dff\n      eq\n      tag_6\n      jumpi\n    tag_1:\n      0x00\n      dup1\n      revert\n        /* \"contracts/FundMe.sol\":2344:3397  function withdraw() public {... */\n    tag_2:\n      callvalue\n      dup1\n      iszero\n      tag_7\n      jumpi\n      0x00\n      dup1\n      revert\n    tag_7:\n      pop\n      tag_8\n      tag_9\n      jump\t// in\n    tag_8:\n      stop\n        /* \"contracts/FundMe.sol\":1573:1629  mapping(address => uint256) public addressToAmountFunded */\n    tag_3:\n      callvalue\n      dup1\n      iszero\n      tag_10\n      jumpi\n      0x00\n      dup1\n      revert\n    tag_10:\n      pop\n      tag_11\n      0x04\n      dup1\n      calldatasize\n      sub\n      dup2\n      add\n      swap1\n      tag_12\n      swap2\n      swap1\n      tag_13\n      jump\t// in\n    tag_12:\n      tag_14\n      jump\t// in\n    tag_11:\n      mload(0x40)\n      tag_15\n      swap2\n      swap1\n      tag_16\n      jump\t// in\n    tag_15:\n      mload(0x40)\n      dup1\n      swap2\n      sub\n      swap1\n      return\n        /* \"contracts/FundMe.sol\":1425:1462  uint256 public miminumUsd = 50 * 1e18 */\n    tag_4:\n      callvalue\n      dup1\n      iszero\n      tag_17\n      jumpi\n      0x00\n      dup1\n      revert\n    tag_17:\n      pop\n      tag_18\n      tag_19\n      jump\t// in\n    tag_18:\n      mload(0x40)\n      tag_20\n      swap2\n      swap1\n      tag_16\n      jump\t// in\n    tag_20:\n      mload(0x40)\n      dup1\n      swap2\n      sub\n      swap1\n      return\n        /* \"contracts/FundMe.sol\":1696:2334  function fund() public payable {... */\n    tag_5:\n      tag_21\n      tag_22\n      jump\t// in\n    tag_21:\n      stop\n        /* \"contracts/FundMe.sol\":1495:1519  address[] public funders */\n    tag_6:\n      callvalue\n      dup1\n      iszero\n      tag_23\n      jumpi\n      0x00\n      dup1\n      revert\n    tag_23:\n      pop\n      tag_24\n      0x04\n      dup1\n      calldatasize\n      sub\n      dup2\n      add\n      swap1\n      tag_25\n      swap2\n      swap1\n      tag_26\n      jump\t// in\n    tag_25:\n      tag_27\n      jump\t// in\n    tag_24:\n      mload(0x40)\n      tag_28\n      swap2\n      swap1\n      tag_29\n      jump\t// in\n    tag_28:\n      mload(0x40)\n      dup1\n      swap2\n      sub\n      swap1\n      return\n        /* \"contracts/FundMe.sol\":2344:3397  function withdraw() public {... */\n    tag_9:\n        /* \"contracts/FundMe.sol\":2385:2404  uint256 funderIndex */\n      0x00\n        /* \"contracts/FundMe.sol\":2381:2648  for(uint256 funderIndex = 0; funderIndex < funders.length; funderIndex ++) {... */\n    tag_31:\n        /* \"contracts/FundMe.sol\":2424:2431  funders */\n      0x01\n        /* \"contracts/FundMe.sol\":2424:2438  funders.length */\n      dup1\n      sload\n      swap1\n      pop\n        /* \"contracts/FundMe.sol\":2410:2421  funderIndex */\n      dup2\n        /* \"contracts/FundMe.sol\":2410:2438  funderIndex < funders.length */\n      lt\n        /* \"contracts/FundMe.sol\":2381:2648  for(uint256 funderIndex = 0; funderIndex < funders.length; funderIndex ++) {... */\n      iszero\n      tag_32\n      jumpi\n        /* \"contracts/FundMe.sol\":2528:2542  address funder */\n      0x00\n        /* \"contracts/FundMe.sol\":2545:2552  funders */\n      0x01\n        /* \"contracts/FundMe.sol\":2553:2564  funderIndex */\n      dup3\n        /* \"contracts/FundMe.sol\":2545:2565  funders[funderIndex] */\n      dup2\n      sload\n      dup2\n      lt\n      tag_34\n      jumpi\n      tag_35\n      tag_36\n      jump\t// in\n    tag_35:\n    tag_34:\n      swap1\n      0x00\n      mstore\n      keccak256(0x00, 0x20)\n      add\n      0x00\n      swap1\n      sload\n      swap1\n      0x0100\n      exp\n      swap1\n      div\n      0xffffffffffffffffffffffffffffffffffffffff\n      and\n        /* \"contracts/FundMe.sol\":2528:2565  address funder = funders[funderIndex] */\n      swap1\n      pop\n        /* \"contracts/FundMe.sol\":2636:2637  0 */\n      0x00\n        /* \"contracts/FundMe.sol\":2604:2625  addressToAmountFunded */\n      0x02\n        /* \"contracts/FundMe.sol\":2604:2633  addressToAmountFunded[funder] */\n      0x00\n        /* \"contracts/FundMe.sol\":2626:2632  funder */\n      dup4\n        /* \"contracts/FundMe.sol\":2604:2633  addressToAmountFunded[funder] */\n      0xffffffffffffffffffffffffffffffffffffffff\n      and\n      0xffffffffffffffffffffffffffffffffffffffff\n      and\n      dup2\n      mstore\n      0x20\n      add\n      swap1\n      dup2\n      mstore\n      0x20\n      add\n      0x00\n      keccak256\n        /* \"contracts/FundMe.sol\":2604:2637  addressToAmountFunded[funder] = 0 */\n      dup2\n      swap1\n      sstore\n      pop\n        /* \"contracts/FundMe.sol\":2456:2648  {... */\n      pop\n        /* \"contracts/FundMe.sol\":2440:2454  funderIndex ++ */\n      dup1\n      dup1\n      tag_38\n      swap1\n      tag_39\n      jump\t// in\n    tag_38:\n      swap2\n      pop\n      pop\n        /* \"contracts/FundMe.sol\":2381:2648  for(uint256 funderIndex = 0; funderIndex < funders.length; funderIndex ++) {... */\n      jump(tag_31)\n    tag_32:\n      pop\n        /* \"contracts/FundMe.sol\":2709:2710  0 */\n      0x00\n        /* \"contracts/FundMe.sol\":2695:2711  new address[](0) */\n      0xffffffffffffffff\n      dup2\n      gt\n      iszero\n      tag_40\n      jumpi\n      tag_41\n      tag_42\n      jump\t// in\n    tag_41:\n    tag_40:\n      mload(0x40)\n      swap1\n      dup1\n      dup3\n      mstore\n      dup1\n      0x20\n      mul\n      0x20\n      add\n      dup3\n      add\n      0x40\n      mstore\n      dup1\n      iszero\n      tag_43\n      jumpi\n      dup2\n      0x20\n      add\n      0x20\n      dup3\n      mul\n      dup1\n      calldatasize\n      dup4\n      calldatacopy\n      dup1\n      dup3\n      add\n      swap2\n      pop\n      pop\n      swap1\n      pop\n    tag_43:\n      pop\n        /* \"contracts/FundMe.sol\":2685:2692  funders */\n      0x01\n        /* \"contracts/FundMe.sol\":2685:2711  funders = new address[](0) */\n      swap1\n      dup1\n      mload\n      swap1\n      0x20\n      add\n      swap1\n      tag_44\n      swap3\n      swap2\n      swap1\n      tag_45\n      jump\t// in\n    tag_44:\n      pop\n        /* \"contracts/FundMe.sol\":3015:3025  msg.sender */\n      caller\n        /* \"contracts/FundMe.sol\":3007:3035  payable(msg.sender).transfer */\n      0xffffffffffffffffffffffffffffffffffffffff\n      and\n        /* \"contracts/FundMe.sol\":3007:3058  payable(msg.sender).transfer(address(this).balance) */\n      0x08fc\n        /* \"contracts/FundMe.sol\":3036:3057  address(this).balance */\n      selfbalance\n        /* \"contracts/FundMe.sol\":3007:3058  payable(msg.sender).transfer(address(this).balance) */\n      swap1\n      dup2\n      iszero\n      mul\n      swap1\n      mload(0x40)\n      0x00\n      mload(0x40)\n      dup1\n      dup4\n      sub\n      dup2\n      dup6\n      dup9\n      dup9\n      call\n      swap4\n      pop\n      pop\n      pop\n      pop\n      iszero\n      dup1\n      iszero\n      tag_47\n      jumpi\n      returndatasize\n      0x00\n      dup1\n      returndatacopy\n      revert(0x00, returndatasize)\n    tag_47:\n      pop\n        /* \"contracts/FundMe.sol\":3269:3285  bool sendSuccess */\n      0x00\n        /* \"contracts/FundMe.sol\":3296:3306  msg.sender */\n      caller\n        /* \"contracts/FundMe.sol\":3288:3312  payable(msg.sender).send */\n      0xffffffffffffffffffffffffffffffffffffffff\n      and\n        /* \"contracts/FundMe.sol\":3288:3335  payable(msg.sender).send(address(this).balance) */\n      0x08fc\n        /* \"contracts/FundMe.sol\":3313:3334  address(this).balance */\n      selfbalance\n        /* \"contracts/FundMe.sol\":3288:3335  payable(msg.sender).send(address(this).balance) */\n      swap1\n      dup2\n      iszero\n      mul\n      swap1\n      mload(0x40)\n      0x00\n      mload(0x40)\n      dup1\n      dup4\n      sub\n      dup2\n      dup6\n      dup9\n      dup9\n      call\n      swap4\n      pop\n      pop\n      pop\n      pop\n        /* \"contracts/FundMe.sol\":3269:3335  bool sendSuccess = payable(msg.sender).send(address(this).balance) */\n      swap1\n      pop\n        /* \"contracts/FundMe.sol\":3353:3364  sendSuccess */\n      dup1\n        /* \"contracts/FundMe.sol\":3345:3380  require(sendSuccess, \"Send failed\") */\n      tag_49\n      jumpi\n      mload(0x40)\n      0x08c379a000000000000000000000000000000000000000000000000000000000\n      dup2\n      mstore\n      0x04\n      add\n      tag_50\n      swap1\n      tag_51\n      jump\t// in\n    tag_50:\n      mload(0x40)\n      dup1\n      swap2\n      sub\n      swap1\n      revert\n    tag_49:\n        /* \"contracts/FundMe.sol\":2371:3397  {... */\n      pop\n        /* \"contracts/FundMe.sol\":2344:3397  function withdraw() public {... */\n      jump\t// out\n        /* \"contracts/FundMe.sol\":1573:1629  mapping(address => uint256) public addressToAmountFunded */\n    tag_14:\n      mstore(0x20, 0x02)\n      dup1\n      0x00\n      mstore\n      keccak256(0x00, 0x40)\n      0x00\n      swap2\n      pop\n      swap1\n      pop\n      sload\n      dup2\n      jump\t// out\n        /* \"contracts/FundMe.sol\":1425:1462  uint256 public miminumUsd = 50 * 1e18 */\n    tag_19:\n      sload(0x00)\n      dup2\n      jump\t// out\n        /* \"contracts/FundMe.sol\":1696:2334  function fund() public payable {... */\n    tag_22:\n        /* \"contracts/FundMe.sol\":2220:2230  miminumUsd */\n      sload(0x00)\n        /* \"contracts/FundMe.sol\":2185:2216  msg.value.getConversationRate() */\n      tag_53\n        /* \"contracts/FundMe.sol\":2185:2194  msg.value */\n      callvalue\n        /* \"contracts/FundMe.sol\":2185:2214  msg.value.getConversationRate */\n      tag_54\n        /* \"contracts/FundMe.sol\":2185:2216  msg.value.getConversationRate() */\n      jump\t// in\n    tag_53:\n        /* \"contracts/FundMe.sol\":2185:2230  msg.value.getConversationRate() >= miminumUsd */\n      lt\n      iszero\n        /* \"contracts/FundMe.sol\":2177:2245  require(msg.value.getConversationRate() >= miminumUsd, \"Not enough\") */\n      tag_55\n      jumpi\n      mload(0x40)\n      0x08c379a000000000000000000000000000000000000000000000000000000000\n      dup2\n      mstore\n      0x04\n      add\n      tag_56\n      swap1\n      tag_57\n      jump\t// in\n    tag_56:\n      mload(0x40)\n      dup1\n      swap2\n      sub\n      swap1\n      revert\n    tag_55:\n        /* \"contracts/FundMe.sol\":2251:2258  funders */\n      0x01\n        /* \"contracts/FundMe.sol\":2264:2274  msg.sender */\n      caller\n        /* \"contracts/FundMe.sol\":2251:2275  funders.push(msg.sender) */\n      swap1\n      dup1\n      0x01\n      dup2\n      sload\n      add\n      dup1\n      dup3\n      sstore\n      dup1\n      swap2\n      pop\n      pop\n      0x01\n      swap1\n      sub\n      swap1\n      0x00\n      mstore\n      keccak256(0x00, 0x20)\n      add\n      0x00\n      swap1\n      swap2\n      swap1\n      swap2\n      swap1\n      swap2\n      0x0100\n      exp\n      dup2\n      sload\n      dup2\n      0xffffffffffffffffffffffffffffffffffffffff\n      mul\n      not\n      and\n      swap1\n      dup4\n      0xffffffffffffffffffffffffffffffffffffffff\n      and\n      mul\n      or\n      swap1\n      sstore\n      pop\n        /* \"contracts/FundMe.sol\":2318:2327  msg.value */\n      callvalue\n        /* \"contracts/FundMe.sol\":2282:2303  addressToAmountFunded */\n      0x02\n        /* \"contracts/FundMe.sol\":2282:2315  addressToAmountFunded[msg.sender] */\n      0x00\n        /* \"contracts/FundMe.sol\":2304:2314  msg.sender */\n      caller\n        /* \"contracts/FundMe.sol\":2282:2315  addressToAmountFunded[msg.sender] */\n      0xffffffffffffffffffffffffffffffffffffffff\n      and\n      0xffffffffffffffffffffffffffffffffffffffff\n      and\n      dup2\n      mstore\n      0x20\n      add\n      swap1\n      dup2\n      mstore\n      0x20\n      add\n      0x00\n      keccak256\n        /* \"contracts/FundMe.sol\":2282:2327  addressToAmountFunded[msg.sender] = msg.value */\n      dup2\n      swap1\n      sstore\n      pop\n        /* \"contracts/FundMe.sol\":1696:2334  function fund() public payable {... */\n      jump\t// out\n        /* \"contracts/FundMe.sol\":1495:1519  address[] public funders */\n    tag_27:\n      0x01\n      dup2\n      dup2\n      sload\n      dup2\n      lt\n      tag_59\n      jumpi\n      0x00\n      dup1\n      revert\n    tag_59:\n      swap1\n      0x00\n      mstore\n      keccak256(0x00, 0x20)\n      add\n      0x00\n      swap2\n      pop\n      sload\n      swap1\n      0x0100\n      exp\n      swap1\n      div\n      0xffffffffffffffffffffffffffffffffffffffff\n      and\n      dup2\n      jump\t// out\n        /* \"contracts/PriceConverter.sol\":1001:1221  function getConversationRate(uint256 ethAmount) internal view returns(uint256) {... */\n    tag_54:\n        /* \"contracts/PriceConverter.sol\":1071:1078  uint256 */\n      0x00\n        /* \"contracts/PriceConverter.sol\":1090:1106  uint256 ethPrice */\n      dup1\n        /* \"contracts/PriceConverter.sol\":1109:1119  getPrice() */\n      tag_62\n        /* \"contracts/PriceConverter.sol\":1109:1117  getPrice */\n      tag_63\n        /* \"contracts/PriceConverter.sol\":1109:1119  getPrice() */\n      jump\t// in\n    tag_62:\n        /* \"contracts/PriceConverter.sol\":1090:1119  uint256 ethPrice = getPrice() */\n      swap1\n      pop\n        /* \"contracts/PriceConverter.sol\":1129:1151  uint256 ethAmountInUsd */\n      0x00\n        /* \"contracts/PriceConverter.sol\":1179:1183  1e18 */\n      0x0de0b6b3a7640000\n        /* \"contracts/PriceConverter.sol\":1166:1175  ethAmount */\n      dup5\n        /* \"contracts/PriceConverter.sol\":1155:1163  ethPrice */\n      dup4\n        /* \"contracts/PriceConverter.sol\":1155:1175  ethPrice * ethAmount */\n      tag_64\n      swap2\n      swap1\n      tag_65\n      jump\t// in\n    tag_64:\n        /* \"contracts/PriceConverter.sol\":1154:1183  (ethPrice * ethAmount) / 1e18 */\n      tag_66\n      swap2\n      swap1\n      tag_67\n      jump\t// in\n    tag_66:\n        /* \"contracts/PriceConverter.sol\":1129:1183  uint256 ethAmountInUsd = (ethPrice * ethAmount) / 1e18 */\n      swap1\n      pop\n        /* \"contracts/PriceConverter.sol\":1200:1214  ethAmountInUsd */\n      dup1\n        /* \"contracts/PriceConverter.sol\":1193:1214  return ethAmountInUsd */\n      swap3\n      pop\n      pop\n      pop\n        /* \"contracts/PriceConverter.sol\":1001:1221  function getConversationRate(uint256 ethAmount) internal view returns(uint256) {... */\n      swap2\n      swap1\n      pop\n      jump\t// out\n        /* \"contracts/PriceConverter.sol\":208:783  function getPrice() internal view returns(uint256){... */\n    tag_63:\n        /* \"contracts/PriceConverter.sol\":250:257  uint256 */\n      0x00\n        /* \"contracts/PriceConverter.sol\":395:426  AggregatorV3Interface priceFeed */\n      dup1\n        /* \"contracts/PriceConverter.sol\":451:493  0xD4a33860578De61DBAbDc8BFdb98FD742fA7028e */\n      0xd4a33860578de61dbabdc8bfdb98fd742fa7028e\n        /* \"contracts/PriceConverter.sol\":395:494  AggregatorV3Interface priceFeed = AggregatorV3Interface(0xD4a33860578De61DBAbDc8BFdb98FD742fA7028e) */\n      swap1\n      pop\n        /* \"contracts/PriceConverter.sol\":547:559  int256 price */\n      0x00\n        /* \"contracts/PriceConverter.sol\":566:575  priceFeed */\n      dup2\n        /* \"contracts/PriceConverter.sol\":566:591  priceFeed.latestRoundData */\n      0xffffffffffffffffffffffffffffffffffffffff\n      and\n      0xfeaf968c\n        /* \"contracts/PriceConverter.sol\":566:593  priceFeed.latestRoundData() */\n      mload(0x40)\n      dup2\n      0xffffffff\n      and\n      0xe0\n      shl\n      dup2\n      mstore\n      0x04\n      add\n      0xa0\n      mload(0x40)\n      dup1\n      dup4\n      sub\n      dup2\n      dup7\n      dup1\n      extcodesize\n      iszero\n      dup1\n      iszero\n      tag_69\n      jumpi\n      0x00\n      dup1\n      revert\n    tag_69:\n      pop\n      gas\n      staticcall\n      iszero\n      dup1\n      iszero\n      tag_71\n      jumpi\n      returndatasize\n      0x00\n      dup1\n      returndatacopy\n      revert(0x00, returndatasize)\n    tag_71:\n      pop\n      pop\n      pop\n      pop\n      mload(0x40)\n      returndatasize\n      not(0x1f)\n      0x1f\n      dup3\n      add\n      and\n      dup3\n      add\n      dup1\n      0x40\n      mstore\n      pop\n      dup2\n      add\n      swap1\n      tag_72\n      swap2\n      swap1\n      tag_73\n      jump\t// in\n    tag_72:\n        /* \"contracts/PriceConverter.sol\":544:593  (, int256 price,,,) = priceFeed.latestRoundData() */\n      pop\n      pop\n      pop\n      swap2\n      pop\n      pop\n        /* \"contracts/PriceConverter.sol\":680:684  1e10 */\n      0x02540be400\n        /* \"contracts/PriceConverter.sol\":672:677  price */\n      dup2\n        /* \"contracts/PriceConverter.sol\":672:684  price * 1e10 */\n      tag_74\n      swap2\n      swap1\n      tag_75\n      jump\t// in\n    tag_74:\n        /* \"contracts/PriceConverter.sol\":657:685  return uint256(price * 1e10) */\n      swap3\n      pop\n      pop\n      pop\n        /* \"contracts/PriceConverter.sol\":208:783  function getPrice() internal view returns(uint256){... */\n      swap1\n      jump\t// out\n    tag_45:\n      dup3\n      dup1\n      sload\n      dup3\n      dup3\n      sstore\n      swap1\n      0x00\n      mstore\n      keccak256(0x00, 0x20)\n      swap1\n      dup2\n      add\n      swap3\n      dup3\n      iszero\n      tag_76\n      jumpi\n      swap2\n      0x20\n      mul\n      dup3\n      add\n    tag_77:\n      dup3\n      dup2\n      gt\n      iszero\n      tag_78\n      jumpi\n      dup3\n      mload\n      dup3\n      exp(0x0100, 0x00)\n      dup2\n      sload\n      dup2\n      0xffffffffffffffffffffffffffffffffffffffff\n      mul\n      not\n      and\n      swap1\n      dup4\n      0xffffffffffffffffffffffffffffffffffffffff\n      and\n      mul\n      or\n      swap1\n      sstore\n      pop\n      swap2\n      0x20\n      add\n      swap2\n      swap1\n      0x01\n      add\n      swap1\n      jump(tag_77)\n    tag_78:\n    tag_76:\n      pop\n      swap1\n      pop\n      tag_79\n      swap2\n      swap1\n      tag_80\n      jump\t// in\n    tag_79:\n      pop\n      swap1\n      jump\t// out\n    tag_80:\n    tag_81:\n      dup1\n      dup3\n      gt\n      iszero\n      tag_82\n      jumpi\n      0x00\n      dup2\n      0x00\n      swap1\n      sstore\n      pop\n      0x01\n      add\n      jump(tag_81)\n    tag_82:\n      pop\n      swap1\n      jump\t// out\n        /* \"#utility.yul\":7:146   */\n    tag_84:\n        /* \"#utility.yul\":53:58   */\n      0x00\n        /* \"#utility.yul\":91:97   */\n      dup2\n        /* \"#utility.yul\":78:98   */\n      calldataload\n        /* \"#utility.yul\":69:98   */\n      swap1\n      pop\n        /* \"#utility.yul\":107:140   */\n      tag_86\n        /* \"#utility.yul\":134:139   */\n      dup2\n        /* \"#utility.yul\":107:140   */\n      tag_87\n      jump\t// in\n    tag_86:\n        /* \"#utility.yul\":7:146   */\n      swap3\n      swap2\n      pop\n      pop\n      jump\t// out\n        /* \"#utility.yul\":152:293   */\n    tag_88:\n        /* \"#utility.yul\":208:213   */\n      0x00\n        /* \"#utility.yul\":239:245   */\n      dup2\n        /* \"#utility.yul\":233:246   */\n      mload\n        /* \"#utility.yul\":224:246   */\n      swap1\n      pop\n        /* \"#utility.yul\":255:287   */\n      tag_90\n        /* \"#utility.yul\":281:286   */\n      dup2\n        /* \"#utility.yul\":255:287   */\n      tag_91\n      jump\t// in\n    tag_90:\n        /* \"#utility.yul\":152:293   */\n      swap3\n      swap2\n      pop\n      pop\n      jump\t// out\n        /* \"#utility.yul\":299:438   */\n    tag_92:\n        /* \"#utility.yul\":345:350   */\n      0x00\n        /* \"#utility.yul\":383:389   */\n      dup2\n        /* \"#utility.yul\":370:390   */\n      calldataload\n        /* \"#utility.yul\":361:390   */\n      swap1\n      pop\n        /* \"#utility.yul\":399:432   */\n      tag_94\n        /* \"#utility.yul\":426:431   */\n      dup2\n        /* \"#utility.yul\":399:432   */\n      tag_95\n      jump\t// in\n    tag_94:\n        /* \"#utility.yul\":299:438   */\n      swap3\n      swap2\n      pop\n      pop\n      jump\t// out\n        /* \"#utility.yul\":444:587   */\n    tag_96:\n        /* \"#utility.yul\":501:506   */\n      0x00\n        /* \"#utility.yul\":532:538   */\n      dup2\n        /* \"#utility.yul\":526:539   */\n      mload\n        /* \"#utility.yul\":517:539   */\n      swap1\n      pop\n        /* \"#utility.yul\":548:581   */\n      tag_98\n        /* \"#utility.yul\":575:580   */\n      dup2\n        /* \"#utility.yul\":548:581   */\n      tag_95\n      jump\t// in\n    tag_98:\n        /* \"#utility.yul\":444:587   */\n      swap3\n      swap2\n      pop\n      pop\n      jump\t// out\n        /* \"#utility.yul\":593:734   */\n    tag_99:\n        /* \"#utility.yul\":649:654   */\n      0x00\n        /* \"#utility.yul\":680:686   */\n      dup2\n        /* \"#utility.yul\":674:687   */\n      mload\n        /* \"#utility.yul\":665:687   */\n      swap1\n      pop\n        /* \"#utility.yul\":696:728   */\n      tag_101\n        /* \"#utility.yul\":722:727   */\n      dup2\n        /* \"#utility.yul\":696:728   */\n      tag_102\n      jump\t// in\n    tag_101:\n        /* \"#utility.yul\":593:734   */\n      swap3\n      swap2\n      pop\n      pop\n      jump\t// out\n        /* \"#utility.yul\":740:1069   */\n    tag_13:\n        /* \"#utility.yul\":799:805   */\n      0x00\n        /* \"#utility.yul\":848:850   */\n      0x20\n        /* \"#utility.yul\":836:845   */\n      dup3\n        /* \"#utility.yul\":827:834   */\n      dup5\n        /* \"#utility.yul\":823:846   */\n      sub\n        /* \"#utility.yul\":819:851   */\n      slt\n        /* \"#utility.yul\":816:935   */\n      iszero\n      tag_104\n      jumpi\n        /* \"#utility.yul\":854:933   */\n      tag_105\n      tag_106\n      jump\t// in\n    tag_105:\n        /* \"#utility.yul\":816:935   */\n    tag_104:\n        /* \"#utility.yul\":974:975   */\n      0x00\n        /* \"#utility.yul\":999:1052   */\n      tag_107\n        /* \"#utility.yul\":1044:1051   */\n      dup5\n        /* \"#utility.yul\":1035:1041   */\n      dup3\n        /* \"#utility.yul\":1024:1033   */\n      dup6\n        /* \"#utility.yul\":1020:1042   */\n      add\n        /* \"#utility.yul\":999:1052   */\n      tag_84\n      jump\t// in\n    tag_107:\n        /* \"#utility.yul\":989:1052   */\n      swap2\n      pop\n        /* \"#utility.yul\":945:1062   */\n      pop\n        /* \"#utility.yul\":740:1069   */\n      swap3\n      swap2\n      pop\n      pop\n      jump\t// out\n        /* \"#utility.yul\":1075:1404   */\n    tag_26:\n        /* \"#utility.yul\":1134:1140   */\n      0x00\n        /* \"#utility.yul\":1183:1185   */\n      0x20\n        /* \"#utility.yul\":1171:1180   */\n      dup3\n        /* \"#utility.yul\":1162:1169   */\n      dup5\n        /* \"#utility.yul\":1158:1181   */\n      sub\n        /* \"#utility.yul\":1154:1186   */\n      slt\n        /* \"#utility.yul\":1151:1270   */\n      iszero\n      tag_109\n      jumpi\n        /* \"#utility.yul\":1189:1268   */\n      tag_110\n      tag_106\n      jump\t// in\n    tag_110:\n        /* \"#utility.yul\":1151:1270   */\n    tag_109:\n        /* \"#utility.yul\":1309:1310   */\n      0x00\n        /* \"#utility.yul\":1334:1387   */\n      tag_111\n        /* \"#utility.yul\":1379:1386   */\n      dup5\n        /* \"#utility.yul\":1370:1376   */\n      dup3\n        /* \"#utility.yul\":1359:1368   */\n      dup6\n        /* \"#utility.yul\":1355:1377   */\n      add\n        /* \"#utility.yul\":1334:1387   */\n      tag_92\n      jump\t// in\n    tag_111:\n        /* \"#utility.yul\":1324:1387   */\n      swap2\n      pop\n        /* \"#utility.yul\":1280:1397   */\n      pop\n        /* \"#utility.yul\":1075:1404   */\n      swap3\n      swap2\n      pop\n      pop\n      jump\t// out\n        /* \"#utility.yul\":1410:2381   */\n    tag_73:\n        /* \"#utility.yul\":1513:1519   */\n      0x00\n        /* \"#utility.yul\":1521:1527   */\n      dup1\n        /* \"#utility.yul\":1529:1535   */\n      0x00\n        /* \"#utility.yul\":1537:1543   */\n      dup1\n        /* \"#utility.yul\":1545:1551   */\n      0x00\n        /* \"#utility.yul\":1594:1597   */\n      0xa0\n        /* \"#utility.yul\":1582:1591   */\n      dup7\n        /* \"#utility.yul\":1573:1580   */\n      dup9\n        /* \"#utility.yul\":1569:1592   */\n      sub\n        /* \"#utility.yul\":1565:1598   */\n      slt\n        /* \"#utility.yul\":1562:1682   */\n      iszero\n      tag_113\n      jumpi\n        /* \"#utility.yul\":1601:1680   */\n      tag_114\n      tag_106\n      jump\t// in\n    tag_114:\n        /* \"#utility.yul\":1562:1682   */\n    tag_113:\n        /* \"#utility.yul\":1721:1722   */\n      0x00\n        /* \"#utility.yul\":1746:1809   */\n      tag_115\n        /* \"#utility.yul\":1801:1808   */\n      dup9\n        /* \"#utility.yul\":1792:1798   */\n      dup3\n        /* \"#utility.yul\":1781:1790   */\n      dup10\n        /* \"#utility.yul\":1777:1799   */\n      add\n        /* \"#utility.yul\":1746:1809   */\n      tag_99\n      jump\t// in\n    tag_115:\n        /* \"#utility.yul\":1736:1809   */\n      swap6\n      pop\n        /* \"#utility.yul\":1692:1819   */\n      pop\n        /* \"#utility.yul\":1858:1860   */\n      0x20\n        /* \"#utility.yul\":1884:1947   */\n      tag_116\n        /* \"#utility.yul\":1939:1946   */\n      dup9\n        /* \"#utility.yul\":1930:1936   */\n      dup3\n        /* \"#utility.yul\":1919:1928   */\n      dup10\n        /* \"#utility.yul\":1915:1937   */\n      add\n        /* \"#utility.yul\":1884:1947   */\n      tag_88\n      jump\t// in\n    tag_116:\n        /* \"#utility.yul\":1874:1947   */\n      swap5\n      pop\n        /* \"#utility.yul\":1829:1957   */\n      pop\n        /* \"#utility.yul\":1996:1998   */\n      0x40\n        /* \"#utility.yul\":2022:2086   */\n      tag_117\n        /* \"#utility.yul\":2078:2085   */\n      dup9\n        /* \"#utility.yul\":2069:2075   */\n      dup3\n        /* \"#utility.yul\":2058:2067   */\n      dup10\n        /* \"#utility.yul\":2054:2076   */\n      add\n        /* \"#utility.yul\":2022:2086   */\n      tag_96\n      jump\t// in\n    tag_117:\n        /* \"#utility.yul\":2012:2086   */\n      swap4\n      pop\n        /* \"#utility.yul\":1967:2096   */\n      pop\n        /* \"#utility.yul\":2135:2137   */\n      0x60\n        /* \"#utility.yul\":2161:2225   */\n      tag_118\n        /* \"#utility.yul\":2217:2224   */\n      dup9\n        /* \"#utility.yul\":2208:2214   */\n      dup3\n        /* \"#utility.yul\":2197:2206   */\n      dup10\n        /* \"#utility.yul\":2193:2215   */\n      add\n        /* \"#utility.yul\":2161:2225   */\n      tag_96\n      jump\t// in\n    tag_118:\n        /* \"#utility.yul\":2151:2225   */\n      swap3\n      pop\n        /* \"#utility.yul\":2106:2235   */\n      pop\n        /* \"#utility.yul\":2274:2277   */\n      0x80\n        /* \"#utility.yul\":2301:2364   */\n      tag_119\n        /* \"#utility.yul\":2356:2363   */\n      dup9\n        /* \"#utility.yul\":2347:2353   */\n      dup3\n        /* \"#utility.yul\":2336:2345   */\n      dup10\n        /* \"#utility.yul\":2332:2354   */\n      add\n        /* \"#utility.yul\":2301:2364   */\n      tag_99\n      jump\t// in\n    tag_119:\n        /* \"#utility.yul\":2291:2364   */\n      swap2\n      pop\n        /* \"#utility.yul\":2245:2374   */\n      pop\n        /* \"#utility.yul\":1410:2381   */\n      swap3\n      swap6\n      pop\n      swap3\n      swap6\n      swap1\n      swap4\n      pop\n      jump\t// out\n        /* \"#utility.yul\":2387:2505   */\n    tag_120:\n        /* \"#utility.yul\":2474:2498   */\n      tag_122\n        /* \"#utility.yul\":2492:2497   */\n      dup2\n        /* \"#utility.yul\":2474:2498   */\n      tag_123\n      jump\t// in\n    tag_122:\n        /* \"#utility.yul\":2469:2472   */\n      dup3\n        /* \"#utility.yul\":2462:2499   */\n      mstore\n        /* \"#utility.yul\":2387:2505   */\n      pop\n      pop\n      jump\t// out\n        /* \"#utility.yul\":2511:2877   */\n    tag_124:\n        /* \"#utility.yul\":2653:2656   */\n      0x00\n        /* \"#utility.yul\":2674:2741   */\n      tag_126\n        /* \"#utility.yul\":2738:2740   */\n      0x0a\n        /* \"#utility.yul\":2733:2736   */\n      dup4\n        /* \"#utility.yul\":2674:2741   */\n      tag_127\n      jump\t// in\n    tag_126:\n        /* \"#utility.yul\":2667:2741   */\n      swap2\n      pop\n        /* \"#utility.yul\":2750:2843   */\n      tag_128\n        /* \"#utility.yul\":2839:2842   */\n      dup3\n        /* \"#utility.yul\":2750:2843   */\n      tag_129\n      jump\t// in\n    tag_128:\n        /* \"#utility.yul\":2868:2870   */\n      0x20\n        /* \"#utility.yul\":2863:2866   */\n      dup3\n        /* \"#utility.yul\":2859:2871   */\n      add\n        /* \"#utility.yul\":2852:2871   */\n      swap1\n      pop\n        /* \"#utility.yul\":2511:2877   */\n      swap2\n      swap1\n      pop\n      jump\t// out\n        /* \"#utility.yul\":2883:3249   */\n    tag_130:\n        /* \"#utility.yul\":3025:3028   */\n      0x00\n        /* \"#utility.yul\":3046:3113   */\n      tag_132\n        /* \"#utility.yul\":3110:3112   */\n      0x0b\n        /* \"#utility.yul\":3105:3108   */\n      dup4\n        /* \"#utility.yul\":3046:3113   */\n      tag_127\n      jump\t// in\n    tag_132:\n        /* \"#utility.yul\":3039:3113   */\n      swap2\n      pop\n        /* \"#utility.yul\":3122:3215   */\n      tag_133\n        /* \"#utility.yul\":3211:3214   */\n      dup3\n        /* \"#utility.yul\":3122:3215   */\n      tag_134\n      jump\t// in\n    tag_133:\n        /* \"#utility.yul\":3240:3242   */\n      0x20\n        /* \"#utility.yul\":3235:3238   */\n      dup3\n        /* \"#utility.yul\":3231:3243   */\n      add\n        /* \"#utility.yul\":3224:3243   */\n      swap1\n      pop\n        /* \"#utility.yul\":2883:3249   */\n      swap2\n      swap1\n      pop\n      jump\t// out\n        /* \"#utility.yul\":3255:3373   */\n    tag_135:\n        /* \"#utility.yul\":3342:3366   */\n      tag_137\n        /* \"#utility.yul\":3360:3365   */\n      dup2\n        /* \"#utility.yul\":3342:3366   */\n      tag_138\n      jump\t// in\n    tag_137:\n        /* \"#utility.yul\":3337:3340   */\n      dup3\n        /* \"#utility.yul\":3330:3367   */\n      mstore\n        /* \"#utility.yul\":3255:3373   */\n      pop\n      pop\n      jump\t// out\n        /* \"#utility.yul\":3379:3601   */\n    tag_29:\n        /* \"#utility.yul\":3472:3476   */\n      0x00\n        /* \"#utility.yul\":3510:3512   */\n      0x20\n        /* \"#utility.yul\":3499:3508   */\n      dup3\n        /* \"#utility.yul\":3495:3513   */\n      add\n        /* \"#utility.yul\":3487:3513   */\n      swap1\n      pop\n        /* \"#utility.yul\":3523:3594   */\n      tag_140\n        /* \"#utility.yul\":3591:3592   */\n      0x00\n        /* \"#utility.yul\":3580:3589   */\n      dup4\n        /* \"#utility.yul\":3576:3593   */\n      add\n        /* \"#utility.yul\":3567:3573   */\n      dup5\n        /* \"#utility.yul\":3523:3594   */\n      tag_120\n      jump\t// in\n    tag_140:\n        /* \"#utility.yul\":3379:3601   */\n      swap3\n      swap2\n      pop\n      pop\n      jump\t// out\n        /* \"#utility.yul\":3607:4026   */\n    tag_57:\n        /* \"#utility.yul\":3773:3777   */\n      0x00\n        /* \"#utility.yul\":3811:3813   */\n      0x20\n        /* \"#utility.yul\":3800:3809   */\n      dup3\n        /* \"#utility.yul\":3796:3814   */\n      add\n        /* \"#utility.yul\":3788:3814   */\n      swap1\n      pop\n        /* \"#utility.yul\":3860:3869   */\n      dup2\n        /* \"#utility.yul\":3854:3858   */\n      dup2\n        /* \"#utility.yul\":3850:3870   */\n      sub\n        /* \"#utility.yul\":3846:3847   */\n      0x00\n        /* \"#utility.yul\":3835:3844   */\n      dup4\n        /* \"#utility.yul\":3831:3848   */\n      add\n        /* \"#utility.yul\":3824:3871   */\n      mstore\n        /* \"#utility.yul\":3888:4019   */\n      tag_142\n        /* \"#utility.yul\":4014:4018   */\n      dup2\n        /* \"#utility.yul\":3888:4019   */\n      tag_124\n      jump\t// in\n    tag_142:\n        /* \"#utility.yul\":3880:4019   */\n      swap1\n      pop\n        /* \"#utility.yul\":3607:4026   */\n      swap2\n      swap1\n      pop\n      jump\t// out\n        /* \"#utility.yul\":4032:4451   */\n    tag_51:\n        /* \"#utility.yul\":4198:4202   */\n      0x00\n        /* \"#utility.yul\":4236:4238   */\n      0x20\n        /* \"#utility.yul\":4225:4234   */\n      dup3\n        /* \"#utility.yul\":4221:4239   */\n      add\n        /* \"#utility.yul\":4213:4239   */\n      swap1\n      pop\n        /* \"#utility.yul\":4285:4294   */\n      dup2\n        /* \"#utility.yul\":4279:4283   */\n      dup2\n        /* \"#utility.yul\":4275:4295   */\n      sub\n        /* \"#utility.yul\":4271:4272   */\n      0x00\n        /* \"#utility.yul\":4260:4269   */\n      dup4\n        /* \"#utility.yul\":4256:4273   */\n      add\n        /* \"#utility.yul\":4249:4296   */\n      mstore\n        /* \"#utility.yul\":4313:4444   */\n      tag_144\n        /* \"#utility.yul\":4439:4443   */\n      dup2\n        /* \"#utility.yul\":4313:4444   */\n      tag_130\n      jump\t// in\n    tag_144:\n        /* \"#utility.yul\":4305:4444   */\n      swap1\n      pop\n        /* \"#utility.yul\":4032:4451   */\n      swap2\n      swap1\n      pop\n      jump\t// out\n        /* \"#utility.yul\":4457:4679   */\n    tag_16:\n        /* \"#utility.yul\":4550:4554   */\n      0x00\n        /* \"#utility.yul\":4588:4590   */\n      0x20\n        /* \"#utility.yul\":4577:4586   */\n      dup3\n        /* \"#utility.yul\":4573:4591   */\n      add\n        /* \"#utility.yul\":4565:4591   */\n      swap1\n      pop\n        /* \"#utility.yul\":4601:4672   */\n      tag_146\n        /* \"#utility.yul\":4669:4670   */\n      0x00\n        /* \"#utility.yul\":4658:4667   */\n      dup4\n        /* \"#utility.yul\":4654:4671   */\n      add\n        /* \"#utility.yul\":4645:4651   */\n      dup5\n        /* \"#utility.yul\":4601:4672   */\n      tag_135\n      jump\t// in\n    tag_146:\n        /* \"#utility.yul\":4457:4679   */\n      swap3\n      swap2\n      pop\n      pop\n      jump\t// out\n        /* \"#utility.yul\":4766:4935   */\n    tag_127:\n        /* \"#utility.yul\":4850:4861   */\n      0x00\n        /* \"#utility.yul\":4884:4890   */\n      dup3\n        /* \"#utility.yul\":4879:4882   */\n      dup3\n        /* \"#utility.yul\":4872:4891   */\n      mstore\n        /* \"#utility.yul\":4924:4928   */\n      0x20\n        /* \"#utility.yul\":4919:4922   */\n      dup3\n        /* \"#utility.yul\":4915:4929   */\n      add\n        /* \"#utility.yul\":4900:4929   */\n      swap1\n      pop\n        /* \"#utility.yul\":4766:4935   */\n      swap3\n      swap2\n      pop\n      pop\n      jump\t// out\n        /* \"#utility.yul\":4941:5126   */\n    tag_67:\n        /* \"#utility.yul\":4981:4982   */\n      0x00\n        /* \"#utility.yul\":4998:5018   */\n      tag_151\n        /* \"#utility.yul\":5016:5017   */\n      dup3\n        /* \"#utility.yul\":4998:5018   */\n      tag_138\n      jump\t// in\n    tag_151:\n        /* \"#utility.yul\":4993:5018   */\n      swap2\n      pop\n        /* \"#utility.yul\":5032:5052   */\n      tag_152\n        /* \"#utility.yul\":5050:5051   */\n      dup4\n        /* \"#utility.yul\":5032:5052   */\n      tag_138\n      jump\t// in\n    tag_152:\n        /* \"#utility.yul\":5027:5052   */\n      swap3\n      pop\n        /* \"#utility.yul\":5071:5072   */\n      dup3\n        /* \"#utility.yul\":5061:5096   */\n      tag_153\n      jumpi\n        /* \"#utility.yul\":5076:5094   */\n      tag_154\n      tag_155\n      jump\t// in\n    tag_154:\n        /* \"#utility.yul\":5061:5096   */\n    tag_153:\n        /* \"#utility.yul\":5118:5119   */\n      dup3\n        /* \"#utility.yul\":5115:5116   */\n      dup3\n        /* \"#utility.yul\":5111:5120   */\n      div\n        /* \"#utility.yul\":5106:5120   */\n      swap1\n      pop\n        /* \"#utility.yul\":4941:5126   */\n      swap3\n      swap2\n      pop\n      pop\n      jump\t// out\n        /* \"#utility.yul\":5132:6123   */\n    tag_75:\n        /* \"#utility.yul\":5171:5178   */\n      0x00\n        /* \"#utility.yul\":5194:5213   */\n      tag_157\n        /* \"#utility.yul\":5211:5212   */\n      dup3\n        /* \"#utility.yul\":5194:5213   */\n      tag_158\n      jump\t// in\n    tag_157:\n        /* \"#utility.yul\":5189:5213   */\n      swap2\n      pop\n        /* \"#utility.yul\":5227:5246   */\n      tag_159\n        /* \"#utility.yul\":5244:5245   */\n      dup4\n        /* \"#utility.yul\":5227:5246   */\n      tag_158\n      jump\t// in\n    tag_159:\n        /* \"#utility.yul\":5222:5246   */\n      swap3\n      pop\n        /* \"#utility.yul\":5428:5429   */\n      dup3\n        /* \"#utility.yul\":5360:5426   */\n      0x7fffffffffffffffffffffffffffffffffffffffffffffffffffffffffffffff\n        /* \"#utility.yul\":5356:5430   */\n      div\n        /* \"#utility.yul\":5353:5354   */\n      dup3\n        /* \"#utility.yul\":5350:5431   */\n      gt\n        /* \"#utility.yul\":5345:5346   */\n      0x00\n        /* \"#utility.yul\":5342:5343   */\n      dup5\n        /* \"#utility.yul\":5338:5347   */\n      sgt\n        /* \"#utility.yul\":5334:5335   */\n      0x00\n        /* \"#utility.yul\":5331:5332   */\n      dup5\n        /* \"#utility.yul\":5327:5336   */\n      sgt\n        /* \"#utility.yul\":5323:5348   */\n      and\n        /* \"#utility.yul\":5319:5432   */\n      and\n        /* \"#utility.yul\":5316:5455   */\n      iszero\n      tag_160\n      jumpi\n        /* \"#utility.yul\":5435:5453   */\n      tag_161\n      tag_162\n      jump\t// in\n    tag_161:\n        /* \"#utility.yul\":5316:5455   */\n    tag_160:\n        /* \"#utility.yul\":5639:5640   */\n      dup2\n        /* \"#utility.yul\":5571:5637   */\n      0x8000000000000000000000000000000000000000000000000000000000000000\n        /* \"#utility.yul\":5566:5641   */\n      sdiv\n        /* \"#utility.yul\":5563:5564   */\n      dup4\n        /* \"#utility.yul\":5559:5642   */\n      slt\n        /* \"#utility.yul\":5554:5555   */\n      0x00\n        /* \"#utility.yul\":5551:5552   */\n      dup5\n        /* \"#utility.yul\":5547:5556   */\n      slt\n        /* \"#utility.yul\":5543:5544   */\n      0x00\n        /* \"#utility.yul\":5540:5541   */\n      dup5\n        /* \"#utility.yul\":5536:5545   */\n      sgt\n        /* \"#utility.yul\":5532:5557   */\n      and\n        /* \"#utility.yul\":5528:5643   */\n      and\n        /* \"#utility.yul\":5525:5666   */\n      iszero\n      tag_163\n      jumpi\n        /* \"#utility.yul\":5646:5664   */\n      tag_164\n      tag_162\n      jump\t// in\n    tag_164:\n        /* \"#utility.yul\":5525:5666   */\n    tag_163:\n        /* \"#utility.yul\":5850:5851   */\n      dup3\n        /* \"#utility.yul\":5782:5848   */\n      0x8000000000000000000000000000000000000000000000000000000000000000\n        /* \"#utility.yul\":5777:5852   */\n      sdiv\n        /* \"#utility.yul\":5774:5775   */\n      dup3\n        /* \"#utility.yul\":5770:5853   */\n      slt\n        /* \"#utility.yul\":5765:5766   */\n      0x00\n        /* \"#utility.yul\":5762:5763   */\n      dup5\n        /* \"#utility.yul\":5758:5767   */\n      sgt\n        /* \"#utility.yul\":5754:5755   */\n      0x00\n        /* \"#utility.yul\":5751:5752   */\n      dup5\n        /* \"#utility.yul\":5747:5756   */\n      slt\n        /* \"#utility.yul\":5743:5768   */\n      and\n        /* \"#utility.yul\":5739:5854   */\n      and\n        /* \"#utility.yul\":5736:5877   */\n      iszero\n      tag_165\n      jumpi\n        /* \"#utility.yul\":5857:5875   */\n      tag_166\n      tag_162\n      jump\t// in\n    tag_166:\n        /* \"#utility.yul\":5736:5877   */\n    tag_165:\n        /* \"#utility.yul\":6060:6061   */\n      dup3\n        /* \"#utility.yul\":5992:6058   */\n      0x7fffffffffffffffffffffffffffffffffffffffffffffffffffffffffffffff\n        /* \"#utility.yul\":5987:6062   */\n      sdiv\n        /* \"#utility.yul\":5984:5985   */\n      dup3\n        /* \"#utility.yul\":5980:6063   */\n      slt\n        /* \"#utility.yul\":5975:5976   */\n      0x00\n        /* \"#utility.yul\":5972:5973   */\n      dup5\n        /* \"#utility.yul\":5968:5977   */\n      slt\n        /* \"#utility.yul\":5964:5965   */\n      0x00\n        /* \"#utility.yul\":5961:5962   */\n      dup5\n        /* \"#utility.yul\":5957:5966   */\n      slt\n        /* \"#utility.yul\":5953:5978   */\n      and\n        /* \"#utility.yul\":5949:6064   */\n      and\n        /* \"#utility.yul\":5946:6087   */\n      iszero\n      tag_167\n      jumpi\n        /* \"#utility.yul\":6067:6085   */\n      tag_168\n      tag_162\n      jump\t// in\n    tag_168:\n        /* \"#utility.yul\":5946:6087   */\n    tag_167:\n        /* \"#utility.yul\":6115:6116   */\n      dup3\n        /* \"#utility.yul\":6112:6113   */\n      dup3\n        /* \"#utility.yul\":6108:6117   */\n      mul\n        /* \"#utility.yul\":6097:6117   */\n      swap1\n      pop\n        /* \"#utility.yul\":5132:6123   */\n      swap3\n      swap2\n      pop\n      pop\n      jump\t// out\n        /* \"#utility.yul\":6129:6477   */\n    tag_65:\n        /* \"#utility.yul\":6169:6176   */\n      0x00\n        /* \"#utility.yul\":6192:6212   */\n      tag_170\n        /* \"#utility.yul\":6210:6211   */\n      dup3\n        /* \"#utility.yul\":6192:6212   */\n      tag_138\n      jump\t// in\n    tag_170:\n        /* \"#utility.yul\":6187:6212   */\n      swap2\n      pop\n        /* \"#utility.yul\":6226:6246   */\n      tag_171\n        /* \"#utility.yul\":6244:6245   */\n      dup4\n        /* \"#utility.yul\":6226:6246   */\n      tag_138\n      jump\t// in\n    tag_171:\n        /* \"#utility.yul\":6221:6246   */\n      swap3\n      pop\n        /* \"#utility.yul\":6414:6415   */\n      dup2\n        /* \"#utility.yul\":6346:6412   */\n      0xffffffffffffffffffffffffffffffffffffffffffffffffffffffffffffffff\n        /* \"#utility.yul\":6342:6416   */\n      div\n        /* \"#utility.yul\":6339:6340   */\n      dup4\n        /* \"#utility.yul\":6336:6417   */\n      gt\n        /* \"#utility.yul\":6331:6332   */\n      dup3\n        /* \"#utility.yul\":6324:6333   */\n      iszero\n        /* \"#utility.yul\":6317:6334   */\n      iszero\n        /* \"#utility.yul\":6313:6418   */\n      and\n        /* \"#utility.yul\":6310:6441   */\n      iszero\n      tag_172\n      jumpi\n        /* \"#utility.yul\":6421:6439   */\n      tag_173\n      tag_162\n      jump\t// in\n    tag_173:\n        /* \"#utility.yul\":6310:6441   */\n    tag_172:\n        /* \"#utility.yul\":6469:6470   */\n      dup3\n        /* \"#utility.yul\":6466:6467   */\n      dup3\n        /* \"#utility.yul\":6462:6471   */\n      mul\n        /* \"#utility.yul\":6451:6471   */\n      swap1\n      pop\n        /* \"#utility.yul\":6129:6477   */\n      swap3\n      swap2\n      pop\n      pop\n      jump\t// out\n        /* \"#utility.yul\":6483:6579   */\n    tag_123:\n        /* \"#utility.yul\":6520:6527   */\n      0x00\n        /* \"#utility.yul\":6549:6573   */\n      tag_175\n        /* \"#utility.yul\":6567:6572   */\n      dup3\n        /* \"#utility.yul\":6549:6573   */\n      tag_176\n      jump\t// in\n    tag_175:\n        /* \"#utility.yul\":6538:6573   */\n      swap1\n      pop\n        /* \"#utility.yul\":6483:6579   */\n      swap2\n      swap1\n      pop\n      jump\t// out\n        /* \"#utility.yul\":6585:6661   */\n    tag_158:\n        /* \"#utility.yul\":6621:6628   */\n      0x00\n        /* \"#utility.yul\":6650:6655   */\n      dup2\n        /* \"#utility.yul\":6639:6655   */\n      swap1\n      pop\n        /* \"#utility.yul\":6585:6661   */\n      swap2\n      swap1\n      pop\n      jump\t// out\n        /* \"#utility.yul\":6667:6793   */\n    tag_176:\n        /* \"#utility.yul\":6704:6711   */\n      0x00\n        /* \"#utility.yul\":6744:6786   */\n      0xffffffffffffffffffffffffffffffffffffffff\n        /* \"#utility.yul\":6737:6742   */\n      dup3\n        /* \"#utility.yul\":6733:6787   */\n      and\n        /* \"#utility.yul\":6722:6787   */\n      swap1\n      pop\n        /* \"#utility.yul\":6667:6793   */\n      swap2\n      swap1\n      pop\n      jump\t// out\n        /* \"#utility.yul\":6799:6876   */\n    tag_138:\n        /* \"#utility.yul\":6836:6843   */\n      0x00\n        /* \"#utility.yul\":6865:6870   */\n      dup2\n        /* \"#utility.yul\":6854:6870   */\n      swap1\n      pop\n        /* \"#utility.yul\":6799:6876   */\n      swap2\n      swap1\n      pop\n      jump\t// out\n        /* \"#utility.yul\":6882:6987   */\n    tag_180:\n        /* \"#utility.yul\":6918:6925   */\n      0x00\n        /* \"#utility.yul\":6958:6980   */\n      0xffffffffffffffffffff\n        /* \"#utility.yul\":6951:6956   */\n      dup3\n        /* \"#utility.yul\":6947:6981   */\n      and\n        /* \"#utility.yul\":6936:6981   */\n      swap1\n      pop\n        /* \"#utility.yul\":6882:6987   */\n      swap2\n      swap1\n      pop\n      jump\t// out\n        /* \"#utility.yul\":6993:7226   */\n    tag_39:\n        /* \"#utility.yul\":7032:7035   */\n      0x00\n        /* \"#utility.yul\":7055:7079   */\n      tag_183\n        /* \"#utility.yul\":7073:7078   */\n      dup3\n        /* \"#utility.yul\":7055:7079   */\n      tag_138\n      jump\t// in\n    tag_183:\n        /* \"#utility.yul\":7046:7079   */\n      swap2\n      pop\n        /* \"#utility.yul\":7101:7167   */\n      0xffffffffffffffffffffffffffffffffffffffffffffffffffffffffffffffff\n        /* \"#utility.yul\":7094:7099   */\n      dup3\n        /* \"#utility.yul\":7091:7168   */\n      eq\n        /* \"#utility.yul\":7088:7191   */\n      iszero\n      tag_184\n      jumpi\n        /* \"#utility.yul\":7171:7189   */\n      tag_185\n      tag_162\n      jump\t// in\n    tag_185:\n        /* \"#utility.yul\":7088:7191   */\n    tag_184:\n        /* \"#utility.yul\":7218:7219   */\n      0x01\n        /* \"#utility.yul\":7211:7216   */\n      dup3\n        /* \"#utility.yul\":7207:7220   */\n      add\n        /* \"#utility.yul\":7200:7220   */\n      swap1\n      pop\n        /* \"#utility.yul\":6993:7226   */\n      swap2\n      swap1\n      pop\n      jump\t// out\n        /* \"#utility.yul\":7232:7412   */\n    tag_162:\n        /* \"#utility.yul\":7280:7357   */\n      0x4e487b7100000000000000000000000000000000000000000000000000000000\n        /* \"#utility.yul\":7277:7278   */\n      0x00\n        /* \"#utility.yul\":7270:7358   */\n      mstore\n        /* \"#utility.yul\":7377:7381   */\n      0x11\n        /* \"#utility.yul\":7374:7375   */\n      0x04\n        /* \"#utility.yul\":7367:7382   */\n      mstore\n        /* \"#utility.yul\":7401:7405   */\n      0x24\n        /* \"#utility.yul\":7398:7399   */\n      0x00\n        /* \"#utility.yul\":7391:7406   */\n      revert\n        /* \"#utility.yul\":7418:7598   */\n    tag_155:\n        /* \"#utility.yul\":7466:7543   */\n      0x4e487b7100000000000000000000000000000000000000000000000000000000\n        /* \"#utility.yul\":7463:7464   */\n      0x00\n        /* \"#utility.yul\":7456:7544   */\n      mstore\n        /* \"#utility.yul\":7563:7567   */\n      0x12\n        /* \"#utility.yul\":7560:7561   */\n      0x04\n        /* \"#utility.yul\":7553:7568   */\n      mstore\n        /* \"#utility.yul\":7587:7591   */\n      0x24\n        /* \"#utility.yul\":7584:7585   */\n      0x00\n        /* \"#utility.yul\":7577:7592   */\n      revert\n        /* \"#utility.yul\":7604:7784   */\n    tag_36:\n        /* \"#utility.yul\":7652:7729   */\n      0x4e487b7100000000000000000000000000000000000000000000000000000000\n        /* \"#utility.yul\":7649:7650   */\n      0x00\n        /* \"#utility.yul\":7642:7730   */\n      mstore\n        /* \"#utility.yul\":7749:7753   */\n      0x32\n        /* \"#utility.yul\":7746:7747   */\n      0x04\n        /* \"#utility.yul\":7739:7754   */\n      mstore\n        /* \"#utility.yul\":7773:7777   */\n      0x24\n        /* \"#utility.yul\":7770:7771   */\n      0x00\n        /* \"#utility.yul\":7763:7778   */\n      revert\n        /* \"#utility.yul\":7790:7970   */\n    tag_42:\n        /* \"#utility.yul\":7838:7915   */\n      0x4e487b7100000000000000000000000000000000000000000000000000000000\n        /* \"#utility.yul\":7835:7836   */\n      0x00\n        /* \"#utility.yul\":7828:7916   */\n      mstore\n        /* \"#utility.yul\":7935:7939   */\n      0x41\n        /* \"#utility.yul\":7932:7933   */\n      0x04\n        /* \"#utility.yul\":7925:7940   */\n      mstore\n        /* \"#utility.yul\":7959:7963   */\n      0x24\n        /* \"#utility.yul\":7956:7957   */\n      0x00\n        /* \"#utility.yul\":7949:7964   */\n      revert\n        /* \"#utility.yul\":8099:8216   */\n    tag_106:\n        /* \"#utility.yul\":8208:8209   */\n      0x00\n        /* \"#utility.yul\":8205:8206   */\n      dup1\n        /* \"#utility.yul\":8198:8210   */\n      revert\n        /* \"#utility.yul\":8222:8382   */\n    tag_129:\n        /* \"#utility.yul\":8362:8374   */\n      0x4e6f7420656e6f75676800000000000000000000000000000000000000000000\n        /* \"#utility.yul\":8358:8359   */\n      0x00\n        /* \"#utility.yul\":8350:8356   */\n      dup3\n        /* \"#utility.yul\":8346:8360   */\n      add\n        /* \"#utility.yul\":8339:8375   */\n      mstore\n        /* \"#utility.yul\":8222:8382   */\n      pop\n      jump\t// out\n        /* \"#utility.yul\":8388:8549   */\n    tag_134:\n        /* \"#utility.yul\":8528:8541   */\n      0x53656e64206661696c6564000000000000000000000000000000000000000000\n        /* \"#utility.yul\":8524:8525   */\n      0x00\n        /* \"#utility.yul\":8516:8522   */\n      dup3\n        /* \"#utility.yul\":8512:8526   */\n      add\n        /* \"#utility.yul\":8505:8542   */\n      mstore\n        /* \"#utility.yul\":8388:8549   */\n      pop\n      jump\t// out\n        /* \"#utility.yul\":8555:8677   */\n    tag_87:\n        /* \"#utility.yul\":8628:8652   */\n      tag_196\n        /* \"#utility.yul\":8646:8651   */\n      dup2\n        /* \"#utility.yul\":8628:8652   */\n      tag_123\n      jump\t// in\n    tag_196:\n        /* \"#utility.yul\":8621:8626   */\n      dup2\n        /* \"#utility.yul\":8618:8653   */\n      eq\n        /* \"#utility.yul\":8608:8671   */\n      tag_197\n      jumpi\n        /* \"#utility.yul\":8667:8668   */\n      0x00\n        /* \"#utility.yul\":8664:8665   */\n      dup1\n        /* \"#utility.yul\":8657:8669   */\n      revert\n        /* \"#utility.yul\":8608:8671   */\n    tag_197:\n        /* \"#utility.yul\":8555:8677   */\n      pop\n      jump\t// out\n        /* \"#utility.yul\":8683:8803   */\n    tag_91:\n        /* \"#utility.yul\":8755:8778   */\n      tag_199\n        /* \"#utility.yul\":8772:8777   */\n      dup2\n        /* \"#utility.yul\":8755:8778   */\n      tag_158\n      jump\t// in\n    tag_199:\n        /* \"#utility.yul\":8748:8753   */\n      dup2\n        /* \"#utility.yul\":8745:8779   */\n      eq\n        /* \"#utility.yul\":8735:8797   */\n      tag_200\n      jumpi\n        /* \"#utility.yul\":8793:8794   */\n      0x00\n        /* \"#utility.yul\":8790:8791   */\n      dup1\n        /* \"#utility.yul\":8783:8795   */\n      revert\n        /* \"#utility.yul\":8735:8797   */\n    tag_200:\n        /* \"#utility.yul\":8683:8803   */\n      pop\n      jump\t// out\n        /* \"#utility.yul\":8809:8931   */\n    tag_95:\n        /* \"#utility.yul\":8882:8906   */\n      tag_202\n        /* \"#utility.yul\":8900:8905   */\n      dup2\n        /* \"#utility.yul\":8882:8906   */\n      tag_138\n      jump\t// in\n    tag_202:\n        /* \"#utility.yul\":8875:8880   */\n      dup2\n        /* \"#utility.yul\":8872:8907   */\n      eq\n        /* \"#utility.yul\":8862:8925   */\n      tag_203\n      jumpi\n        /* \"#utility.yul\":8921:8922   */\n      0x00\n        /* \"#utility.yul\":8918:8919   */\n      dup1\n        /* \"#utility.yul\":8911:8923   */\n      revert\n        /* \"#utility.yul\":8862:8925   */\n    tag_203:\n        /* \"#utility.yul\":8809:8931   */\n      pop\n      jump\t// out\n        /* \"#utility.yul\":8937:9057   */\n    tag_102:\n        /* \"#utility.yul\":9009:9032   */\n      tag_205\n        /* \"#utility.yul\":9026:9031   */\n      dup2\n        /* \"#utility.yul\":9009:9032   */\n      tag_180\n      jump\t// in\n    tag_205:\n        /* \"#utility.yul\":9002:9007   */\n      dup2\n        /* \"#utility.yul\":8999:9033   */\n      eq\n        /* \"#utility.yul\":8989:9051   */\n      tag_206\n      jumpi\n        /* \"#utility.yul\":9047:9048   */\n      0x00\n        /* \"#utility.yul\":9044:9045   */\n      dup1\n        /* \"#utility.yul\":9037:9049   */\n      revert\n        /* \"#utility.yul\":8989:9051   */\n    tag_206:\n        /* \"#utility.yul\":8937:9057   */\n      pop\n      jump\t// out\n\n    auxdata: 0xa26469706673582212204d960a94ba1d946fd306c11e0328574d1906c8975df194309bfa05267821d06a64736f6c63430008070033\n}\n",
				"bytecode": {
					"linkReferences": {},
					"object": "60806040526802b5e3af16b188000060005534801561001d57600080fd5b50610be68061002d6000396000f3fe60806040526004361061004a5760003560e01c80633ccfd60b1461004f5780633e47d6f31461006657806375263f22146100a3578063b60d4288146100ce578063dc0d3dff146100d8575b600080fd5b34801561005b57600080fd5b50610064610115565b005b34801561007257600080fd5b5061008d6004803603810190610088919061063a565b6102e5565b60405161009a91906107ce565b60405180910390f35b3480156100af57600080fd5b506100b86102fd565b6040516100c591906107ce565b60405180910390f35b6100d6610303565b005b3480156100e457600080fd5b506100ff60048036038101906100fa9190610667565b6103f9565b60405161010c9190610773565b60405180910390f35b60005b6001805490508110156101c15760006001828154811061013b5761013a610a9f565b5b9060005260206000200160009054906101000a900473ffffffffffffffffffffffffffffffffffffffff1690506000600260008373ffffffffffffffffffffffffffffffffffffffff1673ffffffffffffffffffffffffffffffffffffffff168152602001908152602001600020819055505080806101b9906109f8565b915050610118565b50600067ffffffffffffffff8111156101dd576101dc610ace565b5b60405190808252806020026020018201604052801561020b5781602001602082028036833780820191505090505b506001908051906020019061022192919061052a565b503373ffffffffffffffffffffffffffffffffffffffff166108fc479081150290604051600060405180830381858888f19350505050158015610268573d6000803e3d6000fd5b5060003373ffffffffffffffffffffffffffffffffffffffff166108fc479081150290604051600060405180830381858888f193505050509050806102e2576040517f08c379a00000000000000000000000000000000000000000000000000000000081526004016102d9906107ae565b60405180910390fd5b50565b60026020528060005260406000206000915090505481565b60005481565b60005461030f34610438565b1015610350576040517f08c379a00000000000000000000000000000000000000000000000000000000081526004016103479061078e565b60405180910390fd5b6001339080600181540180825580915050600190039060005260206000200160009091909190916101000a81548173ffffffffffffffffffffffffffffffffffffffff021916908373ffffffffffffffffffffffffffffffffffffffff16021790555034600260003373ffffffffffffffffffffffffffffffffffffffff1673ffffffffffffffffffffffffffffffffffffffff16815260200190815260200160002081905550565b6001818154811061040957600080fd5b906000526020600020016000915054906101000a900473ffffffffffffffffffffffffffffffffffffffff1681565b600080610443610472565b90506000670de0b6b3a7640000848361045c9190610942565b61046691906107fa565b90508092505050919050565b60008073d4a33860578de61dbabdc8bfdb98fd742fa7028e905060008173ffffffffffffffffffffffffffffffffffffffff1663feaf968c6040518163ffffffff1660e01b815260040160a06040518083038186803b1580156104d457600080fd5b505afa1580156104e8573d6000803e3d6000fd5b505050506040513d601f19601f8201168201806040525081019061050c9190610694565b5050509150506402540be40081610523919061082b565b9250505090565b8280548282559060005260206000209081019282156105a3579160200282015b828111156105a25782518260006101000a81548173ffffffffffffffffffffffffffffffffffffffff021916908373ffffffffffffffffffffffffffffffffffffffff1602179055509160200191906001019061054a565b5b5090506105b091906105b4565b5090565b5b808211156105cd5760008160009055506001016105b5565b5090565b6000813590506105e081610b54565b92915050565b6000815190506105f581610b6b565b92915050565b60008135905061060a81610b82565b92915050565b60008151905061061f81610b82565b92915050565b60008151905061063481610b99565b92915050565b6000602082840312156106505761064f610afd565b5b600061065e848285016105d1565b91505092915050565b60006020828403121561067d5761067c610afd565b5b600061068b848285016105fb565b91505092915050565b600080600080600060a086880312156106b0576106af610afd565b5b60006106be88828901610625565b95505060206106cf888289016105e6565b94505060406106e088828901610610565b93505060606106f188828901610610565b925050608061070288828901610625565b9150509295509295909350565b6107188161099c565b82525050565b600061072b600a836107e9565b915061073682610b02565b602082019050919050565b600061074e600b836107e9565b915061075982610b2b565b602082019050919050565b61076d816109d8565b82525050565b6000602082019050610788600083018461070f565b92915050565b600060208201905081810360008301526107a78161071e565b9050919050565b600060208201905081810360008301526107c781610741565b9050919050565b60006020820190506107e36000830184610764565b92915050565b600082825260208201905092915050565b6000610805826109d8565b9150610810836109d8565b9250826108205761081f610a70565b5b828204905092915050565b6000610836826109ae565b9150610841836109ae565b9250827f7fffffffffffffffffffffffffffffffffffffffffffffffffffffffffffffff04821160008413600084131616156108805761087f610a41565b5b817f800000000000000000000000000000000000000000000000000000000000000005831260008412600084131616156108bd576108bc610a41565b5b827f800000000000000000000000000000000000000000000000000000000000000005821260008413600084121616156108fa576108f9610a41565b5b827f7fffffffffffffffffffffffffffffffffffffffffffffffffffffffffffffff058212600084126000841216161561093757610936610a41565b5b828202905092915050565b600061094d826109d8565b9150610958836109d8565b9250817fffffffffffffffffffffffffffffffffffffffffffffffffffffffffffffffff048311821515161561099157610990610a41565b5b828202905092915050565b60006109a7826109b8565b9050919050565b6000819050919050565b600073ffffffffffffffffffffffffffffffffffffffff82169050919050565b6000819050919050565b600069ffffffffffffffffffff82169050919050565b6000610a03826109d8565b91507fffffffffffffffffffffffffffffffffffffffffffffffffffffffffffffffff821415610a3657610a35610a41565b5b600182019050919050565b7f4e487b7100000000000000000000000000000000000000000000000000000000600052601160045260246000fd5b7f4e487b7100000000000000000000000000000000000000000000000000000000600052601260045260246000fd5b7f4e487b7100000000000000000000000000000000000000000000000000000000600052603260045260246000fd5b7f4e487b7100000000000000000000000000000000000000000000000000000000600052604160045260246000fd5b600080fd5b7f4e6f7420656e6f75676800000000000000000000000000000000000000000000600082015250565b7f53656e64206661696c6564000000000000000000000000000000000000000000600082015250565b610b5d8161099c565b8114610b6857600080fd5b50565b610b74816109ae565b8114610b7f57600080fd5b50565b610b8b816109d8565b8114610b9657600080fd5b50565b610ba2816109e2565b8114610bad57600080fd5b5056fea26469706673582212204d960a94ba1d946fd306c11e0328574d1906c8975df194309bfa05267821d06a64736f6c63430008070033",
					"opcodes": "PUSH1 0x80 PUSH1 0x40 MSTORE PUSH9 0x2B5E3AF16B1880000 PUSH1 0x0 SSTORE CALLVALUE DUP1 ISZERO PUSH2 0x1D JUMPI PUSH1 0x0 DUP1 REVERT JUMPDEST POP PUSH2 0xBE6 DUP1 PUSH2 0x2D PUSH1 0x0 CODECOPY PUSH1 0x0 RETURN INVALID PUSH1 0x80 PUSH1 0x40 MSTORE PUSH1 0x4 CALLDATASIZE LT PUSH2 0x4A JUMPI PUSH1 0x0 CALLDATALOAD PUSH1 0xE0 SHR DUP1 PUSH4 0x3CCFD60B EQ PUSH2 0x4F JUMPI DUP1 PUSH4 0x3E47D6F3 EQ PUSH2 0x66 JUMPI DUP1 PUSH4 0x75263F22 EQ PUSH2 0xA3 JUMPI DUP1 PUSH4 0xB60D4288 EQ PUSH2 0xCE JUMPI DUP1 PUSH4 0xDC0D3DFF EQ PUSH2 0xD8 JUMPI JUMPDEST PUSH1 0x0 DUP1 REVERT JUMPDEST CALLVALUE DUP1 ISZERO PUSH2 0x5B JUMPI PUSH1 0x0 DUP1 REVERT JUMPDEST POP PUSH2 0x64 PUSH2 0x115 JUMP JUMPDEST STOP JUMPDEST CALLVALUE DUP1 ISZERO PUSH2 0x72 JUMPI PUSH1 0x0 DUP1 REVERT JUMPDEST POP PUSH2 0x8D PUSH1 0x4 DUP1 CALLDATASIZE SUB DUP2 ADD SWAP1 PUSH2 0x88 SWAP2 SWAP1 PUSH2 0x63A JUMP JUMPDEST PUSH2 0x2E5 JUMP JUMPDEST PUSH1 0x40 MLOAD PUSH2 0x9A SWAP2 SWAP1 PUSH2 0x7CE JUMP JUMPDEST PUSH1 0x40 MLOAD DUP1 SWAP2 SUB SWAP1 RETURN JUMPDEST CALLVALUE DUP1 ISZERO PUSH2 0xAF JUMPI PUSH1 0x0 DUP1 REVERT JUMPDEST POP PUSH2 0xB8 PUSH2 0x2FD JUMP JUMPDEST PUSH1 0x40 MLOAD PUSH2 0xC5 SWAP2 SWAP1 PUSH2 0x7CE JUMP JUMPDEST PUSH1 0x40 MLOAD DUP1 SWAP2 SUB SWAP1 RETURN JUMPDEST PUSH2 0xD6 PUSH2 0x303 JUMP JUMPDEST STOP JUMPDEST CALLVALUE DUP1 ISZERO PUSH2 0xE4 JUMPI PUSH1 0x0 DUP1 REVERT JUMPDEST POP PUSH2 0xFF PUSH1 0x4 DUP1 CALLDATASIZE SUB DUP2 ADD SWAP1 PUSH2 0xFA SWAP2 SWAP1 PUSH2 0x667 JUMP JUMPDEST PUSH2 0x3F9 JUMP JUMPDEST PUSH1 0x40 MLOAD PUSH2 0x10C SWAP2 SWAP1 PUSH2 0x773 JUMP JUMPDEST PUSH1 0x40 MLOAD DUP1 SWAP2 SUB SWAP1 RETURN JUMPDEST PUSH1 0x0 JUMPDEST PUSH1 0x1 DUP1 SLOAD SWAP1 POP DUP2 LT ISZERO PUSH2 0x1C1 JUMPI PUSH1 0x0 PUSH1 0x1 DUP3 DUP2 SLOAD DUP2 LT PUSH2 0x13B JUMPI PUSH2 0x13A PUSH2 0xA9F JUMP JUMPDEST JUMPDEST SWAP1 PUSH1 0x0 MSTORE PUSH1 0x20 PUSH1 0x0 KECCAK256 ADD PUSH1 0x0 SWAP1 SLOAD SWAP1 PUSH2 0x100 EXP SWAP1 DIV PUSH20 0xFFFFFFFFFFFFFFFFFFFFFFFFFFFFFFFFFFFFFFFF AND SWAP1 POP PUSH1 0x0 PUSH1 0x2 PUSH1 0x0 DUP4 PUSH20 0xFFFFFFFFFFFFFFFFFFFFFFFFFFFFFFFFFFFFFFFF AND PUSH20 0xFFFFFFFFFFFFFFFFFFFFFFFFFFFFFFFFFFFFFFFF AND DUP2 MSTORE PUSH1 0x20 ADD SWAP1 DUP2 MSTORE PUSH1 0x20 ADD PUSH1 0x0 KECCAK256 DUP2 SWAP1 SSTORE POP POP DUP1 DUP1 PUSH2 0x1B9 SWAP1 PUSH2 0x9F8 JUMP JUMPDEST SWAP2 POP POP PUSH2 0x118 JUMP JUMPDEST POP PUSH1 0x0 PUSH8 0xFFFFFFFFFFFFFFFF DUP2 GT ISZERO PUSH2 0x1DD JUMPI PUSH2 0x1DC PUSH2 0xACE JUMP JUMPDEST JUMPDEST PUSH1 0x40 MLOAD SWAP1 DUP1 DUP3 MSTORE DUP1 PUSH1 0x20 MUL PUSH1 0x20 ADD DUP3 ADD PUSH1 0x40 MSTORE DUP1 ISZERO PUSH2 0x20B JUMPI DUP2 PUSH1 0x20 ADD PUSH1 0x20 DUP3 MUL DUP1 CALLDATASIZE DUP4 CALLDATACOPY DUP1 DUP3 ADD SWAP2 POP POP SWAP1 POP JUMPDEST POP PUSH1 0x1 SWAP1 DUP1 MLOAD SWAP1 PUSH1 0x20 ADD SWAP1 PUSH2 0x221 SWAP3 SWAP2 SWAP1 PUSH2 0x52A JUMP JUMPDEST POP CALLER PUSH20 0xFFFFFFFFFFFFFFFFFFFFFFFFFFFFFFFFFFFFFFFF AND PUSH2 0x8FC SELFBALANCE SWAP1 DUP2 ISZERO MUL SWAP1 PUSH1 0x40 MLOAD PUSH1 0x0 PUSH1 0x40 MLOAD DUP1 DUP4 SUB DUP2 DUP6 DUP9 DUP9 CALL SWAP4 POP POP POP POP ISZERO DUP1 ISZERO PUSH2 0x268 JUMPI RETURNDATASIZE PUSH1 0x0 DUP1 RETURNDATACOPY RETURNDATASIZE PUSH1 0x0 REVERT JUMPDEST POP PUSH1 0x0 CALLER PUSH20 0xFFFFFFFFFFFFFFFFFFFFFFFFFFFFFFFFFFFFFFFF AND PUSH2 0x8FC SELFBALANCE SWAP1 DUP2 ISZERO MUL SWAP1 PUSH1 0x40 MLOAD PUSH1 0x0 PUSH1 0x40 MLOAD DUP1 DUP4 SUB DUP2 DUP6 DUP9 DUP9 CALL SWAP4 POP POP POP POP SWAP1 POP DUP1 PUSH2 0x2E2 JUMPI PUSH1 0x40 MLOAD PUSH32 0x8C379A000000000000000000000000000000000000000000000000000000000 DUP2 MSTORE PUSH1 0x4 ADD PUSH2 0x2D9 SWAP1 PUSH2 0x7AE JUMP JUMPDEST PUSH1 0x40 MLOAD DUP1 SWAP2 SUB SWAP1 REVERT JUMPDEST POP JUMP JUMPDEST PUSH1 0x2 PUSH1 0x20 MSTORE DUP1 PUSH1 0x0 MSTORE PUSH1 0x40 PUSH1 0x0 KECCAK256 PUSH1 0x0 SWAP2 POP SWAP1 POP SLOAD DUP2 JUMP JUMPDEST PUSH1 0x0 SLOAD DUP2 JUMP JUMPDEST PUSH1 0x0 SLOAD PUSH2 0x30F CALLVALUE PUSH2 0x438 JUMP JUMPDEST LT ISZERO PUSH2 0x350 JUMPI PUSH1 0x40 MLOAD PUSH32 0x8C379A000000000000000000000000000000000000000000000000000000000 DUP2 MSTORE PUSH1 0x4 ADD PUSH2 0x347 SWAP1 PUSH2 0x78E JUMP JUMPDEST PUSH1 0x40 MLOAD DUP1 SWAP2 SUB SWAP1 REVERT JUMPDEST PUSH1 0x1 CALLER SWAP1 DUP1 PUSH1 0x1 DUP2 SLOAD ADD DUP1 DUP3 SSTORE DUP1 SWAP2 POP POP PUSH1 0x1 SWAP1 SUB SWAP1 PUSH1 0x0 MSTORE PUSH1 0x20 PUSH1 0x0 KECCAK256 ADD PUSH1 0x0 SWAP1 SWAP2 SWAP1 SWAP2 SWAP1 SWAP2 PUSH2 0x100 EXP DUP2 SLOAD DUP2 PUSH20 0xFFFFFFFFFFFFFFFFFFFFFFFFFFFFFFFFFFFFFFFF MUL NOT AND SWAP1 DUP4 PUSH20 0xFFFFFFFFFFFFFFFFFFFFFFFFFFFFFFFFFFFFFFFF AND MUL OR SWAP1 SSTORE POP CALLVALUE PUSH1 0x2 PUSH1 0x0 CALLER PUSH20 0xFFFFFFFFFFFFFFFFFFFFFFFFFFFFFFFFFFFFFFFF AND PUSH20 0xFFFFFFFFFFFFFFFFFFFFFFFFFFFFFFFFFFFFFFFF AND DUP2 MSTORE PUSH1 0x20 ADD SWAP1 DUP2 MSTORE PUSH1 0x20 ADD PUSH1 0x0 KECCAK256 DUP2 SWAP1 SSTORE POP JUMP JUMPDEST PUSH1 0x1 DUP2 DUP2 SLOAD DUP2 LT PUSH2 0x409 JUMPI PUSH1 0x0 DUP1 REVERT JUMPDEST SWAP1 PUSH1 0x0 MSTORE PUSH1 0x20 PUSH1 0x0 KECCAK256 ADD PUSH1 0x0 SWAP2 POP SLOAD SWAP1 PUSH2 0x100 EXP SWAP1 DIV PUSH20 0xFFFFFFFFFFFFFFFFFFFFFFFFFFFFFFFFFFFFFFFF AND DUP2 JUMP JUMPDEST PUSH1 0x0 DUP1 PUSH2 0x443 PUSH2 0x472 JUMP JUMPDEST SWAP1 POP PUSH1 0x0 PUSH8 0xDE0B6B3A7640000 DUP5 DUP4 PUSH2 0x45C SWAP2 SWAP1 PUSH2 0x942 JUMP JUMPDEST PUSH2 0x466 SWAP2 SWAP1 PUSH2 0x7FA JUMP JUMPDEST SWAP1 POP DUP1 SWAP3 POP POP POP SWAP2 SWAP1 POP JUMP JUMPDEST PUSH1 0x0 DUP1 PUSH20 0xD4A33860578DE61DBABDC8BFDB98FD742FA7028E SWAP1 POP PUSH1 0x0 DUP2 PUSH20 0xFFFFFFFFFFFFFFFFFFFFFFFFFFFFFFFFFFFFFFFF AND PUSH4 0xFEAF968C PUSH1 0x40 MLOAD DUP2 PUSH4 0xFFFFFFFF AND PUSH1 0xE0 SHL DUP2 MSTORE PUSH1 0x4 ADD PUSH1 0xA0 PUSH1 0x40 MLOAD DUP1 DUP4 SUB DUP2 DUP7 DUP1 EXTCODESIZE ISZERO DUP1 ISZERO PUSH2 0x4D4 JUMPI PUSH1 0x0 DUP1 REVERT JUMPDEST POP GAS STATICCALL ISZERO DUP1 ISZERO PUSH2 0x4E8 JUMPI RETURNDATASIZE PUSH1 0x0 DUP1 RETURNDATACOPY RETURNDATASIZE PUSH1 0x0 REVERT JUMPDEST POP POP POP POP PUSH1 0x40 MLOAD RETURNDATASIZE PUSH1 0x1F NOT PUSH1 0x1F DUP3 ADD AND DUP3 ADD DUP1 PUSH1 0x40 MSTORE POP DUP2 ADD SWAP1 PUSH2 0x50C SWAP2 SWAP1 PUSH2 0x694 JUMP JUMPDEST POP POP POP SWAP2 POP POP PUSH5 0x2540BE400 DUP2 PUSH2 0x523 SWAP2 SWAP1 PUSH2 0x82B JUMP JUMPDEST SWAP3 POP POP POP SWAP1 JUMP JUMPDEST DUP3 DUP1 SLOAD DUP3 DUP3 SSTORE SWAP1 PUSH1 0x0 MSTORE PUSH1 0x20 PUSH1 0x0 KECCAK256 SWAP1 DUP2 ADD SWAP3 DUP3 ISZERO PUSH2 0x5A3 JUMPI SWAP2 PUSH1 0x20 MUL DUP3 ADD JUMPDEST DUP3 DUP2 GT ISZERO PUSH2 0x5A2 JUMPI DUP3 MLOAD DUP3 PUSH1 0x0 PUSH2 0x100 EXP DUP2 SLOAD DUP2 PUSH20 0xFFFFFFFFFFFFFFFFFFFFFFFFFFFFFFFFFFFFFFFF MUL NOT AND SWAP1 DUP4 PUSH20 0xFFFFFFFFFFFFFFFFFFFFFFFFFFFFFFFFFFFFFFFF AND MUL OR SWAP1 SSTORE POP SWAP2 PUSH1 0x20 ADD SWAP2 SWAP1 PUSH1 0x1 ADD SWAP1 PUSH2 0x54A JUMP JUMPDEST JUMPDEST POP SWAP1 POP PUSH2 0x5B0 SWAP2 SWAP1 PUSH2 0x5B4 JUMP JUMPDEST POP SWAP1 JUMP JUMPDEST JUMPDEST DUP1 DUP3 GT ISZERO PUSH2 0x5CD JUMPI PUSH1 0x0 DUP2 PUSH1 0x0 SWAP1 SSTORE POP PUSH1 0x1 ADD PUSH2 0x5B5 JUMP JUMPDEST POP SWAP1 JUMP JUMPDEST PUSH1 0x0 DUP2 CALLDATALOAD SWAP1 POP PUSH2 0x5E0 DUP2 PUSH2 0xB54 JUMP JUMPDEST SWAP3 SWAP2 POP POP JUMP JUMPDEST PUSH1 0x0 DUP2 MLOAD SWAP1 POP PUSH2 0x5F5 DUP2 PUSH2 0xB6B JUMP JUMPDEST SWAP3 SWAP2 POP POP JUMP JUMPDEST PUSH1 0x0 DUP2 CALLDATALOAD SWAP1 POP PUSH2 0x60A DUP2 PUSH2 0xB82 JUMP JUMPDEST SWAP3 SWAP2 POP POP JUMP JUMPDEST PUSH1 0x0 DUP2 MLOAD SWAP1 POP PUSH2 0x61F DUP2 PUSH2 0xB82 JUMP JUMPDEST SWAP3 SWAP2 POP POP JUMP JUMPDEST PUSH1 0x0 DUP2 MLOAD SWAP1 POP PUSH2 0x634 DUP2 PUSH2 0xB99 JUMP JUMPDEST SWAP3 SWAP2 POP POP JUMP JUMPDEST PUSH1 0x0 PUSH1 0x20 DUP3 DUP5 SUB SLT ISZERO PUSH2 0x650 JUMPI PUSH2 0x64F PUSH2 0xAFD JUMP JUMPDEST JUMPDEST PUSH1 0x0 PUSH2 0x65E DUP5 DUP3 DUP6 ADD PUSH2 0x5D1 JUMP JUMPDEST SWAP2 POP POP SWAP3 SWAP2 POP POP JUMP JUMPDEST PUSH1 0x0 PUSH1 0x20 DUP3 DUP5 SUB SLT ISZERO PUSH2 0x67D JUMPI PUSH2 0x67C PUSH2 0xAFD JUMP JUMPDEST JUMPDEST PUSH1 0x0 PUSH2 0x68B DUP5 DUP3 DUP6 ADD PUSH2 0x5FB JUMP JUMPDEST SWAP2 POP POP SWAP3 SWAP2 POP POP JUMP JUMPDEST PUSH1 0x0 DUP1 PUSH1 0x0 DUP1 PUSH1 0x0 PUSH1 0xA0 DUP7 DUP9 SUB SLT ISZERO PUSH2 0x6B0 JUMPI PUSH2 0x6AF PUSH2 0xAFD JUMP JUMPDEST JUMPDEST PUSH1 0x0 PUSH2 0x6BE DUP9 DUP3 DUP10 ADD PUSH2 0x625 JUMP JUMPDEST SWAP6 POP POP PUSH1 0x20 PUSH2 0x6CF DUP9 DUP3 DUP10 ADD PUSH2 0x5E6 JUMP JUMPDEST SWAP5 POP POP PUSH1 0x40 PUSH2 0x6E0 DUP9 DUP3 DUP10 ADD PUSH2 0x610 JUMP JUMPDEST SWAP4 POP POP PUSH1 0x60 PUSH2 0x6F1 DUP9 DUP3 DUP10 ADD PUSH2 0x610 JUMP JUMPDEST SWAP3 POP POP PUSH1 0x80 PUSH2 0x702 DUP9 DUP3 DUP10 ADD PUSH2 0x625 JUMP JUMPDEST SWAP2 POP POP SWAP3 SWAP6 POP SWAP3 SWAP6 SWAP1 SWAP4 POP JUMP JUMPDEST PUSH2 0x718 DUP2 PUSH2 0x99C JUMP JUMPDEST DUP3 MSTORE POP POP JUMP JUMPDEST PUSH1 0x0 PUSH2 0x72B PUSH1 0xA DUP4 PUSH2 0x7E9 JUMP JUMPDEST SWAP2 POP PUSH2 0x736 DUP3 PUSH2 0xB02 JUMP JUMPDEST PUSH1 0x20 DUP3 ADD SWAP1 POP SWAP2 SWAP1 POP JUMP JUMPDEST PUSH1 0x0 PUSH2 0x74E PUSH1 0xB DUP4 PUSH2 0x7E9 JUMP JUMPDEST SWAP2 POP PUSH2 0x759 DUP3 PUSH2 0xB2B JUMP JUMPDEST PUSH1 0x20 DUP3 ADD SWAP1 POP SWAP2 SWAP1 POP JUMP JUMPDEST PUSH2 0x76D DUP2 PUSH2 0x9D8 JUMP JUMPDEST DUP3 MSTORE POP POP JUMP JUMPDEST PUSH1 0x0 PUSH1 0x20 DUP3 ADD SWAP1 POP PUSH2 0x788 PUSH1 0x0 DUP4 ADD DUP5 PUSH2 0x70F JUMP JUMPDEST SWAP3 SWAP2 POP POP JUMP JUMPDEST PUSH1 0x0 PUSH1 0x20 DUP3 ADD SWAP1 POP DUP2 DUP2 SUB PUSH1 0x0 DUP4 ADD MSTORE PUSH2 0x7A7 DUP2 PUSH2 0x71E JUMP JUMPDEST SWAP1 POP SWAP2 SWAP1 POP JUMP JUMPDEST PUSH1 0x0 PUSH1 0x20 DUP3 ADD SWAP1 POP DUP2 DUP2 SUB PUSH1 0x0 DUP4 ADD MSTORE PUSH2 0x7C7 DUP2 PUSH2 0x741 JUMP JUMPDEST SWAP1 POP SWAP2 SWAP1 POP JUMP JUMPDEST PUSH1 0x0 PUSH1 0x20 DUP3 ADD SWAP1 POP PUSH2 0x7E3 PUSH1 0x0 DUP4 ADD DUP5 PUSH2 0x764 JUMP JUMPDEST SWAP3 SWAP2 POP POP JUMP JUMPDEST PUSH1 0x0 DUP3 DUP3 MSTORE PUSH1 0x20 DUP3 ADD SWAP1 POP SWAP3 SWAP2 POP POP JUMP JUMPDEST PUSH1 0x0 PUSH2 0x805 DUP3 PUSH2 0x9D8 JUMP JUMPDEST SWAP2 POP PUSH2 0x810 DUP4 PUSH2 0x9D8 JUMP JUMPDEST SWAP3 POP DUP3 PUSH2 0x820 JUMPI PUSH2 0x81F PUSH2 0xA70 JUMP JUMPDEST JUMPDEST DUP3 DUP3 DIV SWAP1 POP SWAP3 SWAP2 POP POP JUMP JUMPDEST PUSH1 0x0 PUSH2 0x836 DUP3 PUSH2 0x9AE JUMP JUMPDEST SWAP2 POP PUSH2 0x841 DUP4 PUSH2 0x9AE JUMP JUMPDEST SWAP3 POP DUP3 PUSH32 0x7FFFFFFFFFFFFFFFFFFFFFFFFFFFFFFFFFFFFFFFFFFFFFFFFFFFFFFFFFFFFFFF DIV DUP3 GT PUSH1 0x0 DUP5 SGT PUSH1 0x0 DUP5 SGT AND AND ISZERO PUSH2 0x880 JUMPI PUSH2 0x87F PUSH2 0xA41 JUMP JUMPDEST JUMPDEST DUP2 PUSH32 0x8000000000000000000000000000000000000000000000000000000000000000 SDIV DUP4 SLT PUSH1 0x0 DUP5 SLT PUSH1 0x0 DUP5 SGT AND AND ISZERO PUSH2 0x8BD JUMPI PUSH2 0x8BC PUSH2 0xA41 JUMP JUMPDEST JUMPDEST DUP3 PUSH32 0x8000000000000000000000000000000000000000000000000000000000000000 SDIV DUP3 SLT PUSH1 0x0 DUP5 SGT PUSH1 0x0 DUP5 SLT AND AND ISZERO PUSH2 0x8FA JUMPI PUSH2 0x8F9 PUSH2 0xA41 JUMP JUMPDEST JUMPDEST DUP3 PUSH32 0x7FFFFFFFFFFFFFFFFFFFFFFFFFFFFFFFFFFFFFFFFFFFFFFFFFFFFFFFFFFFFFFF SDIV DUP3 SLT PUSH1 0x0 DUP5 SLT PUSH1 0x0 DUP5 SLT AND AND ISZERO PUSH2 0x937 JUMPI PUSH2 0x936 PUSH2 0xA41 JUMP JUMPDEST JUMPDEST DUP3 DUP3 MUL SWAP1 POP SWAP3 SWAP2 POP POP JUMP JUMPDEST PUSH1 0x0 PUSH2 0x94D DUP3 PUSH2 0x9D8 JUMP JUMPDEST SWAP2 POP PUSH2 0x958 DUP4 PUSH2 0x9D8 JUMP JUMPDEST SWAP3 POP DUP2 PUSH32 0xFFFFFFFFFFFFFFFFFFFFFFFFFFFFFFFFFFFFFFFFFFFFFFFFFFFFFFFFFFFFFFFF DIV DUP4 GT DUP3 ISZERO ISZERO AND ISZERO PUSH2 0x991 JUMPI PUSH2 0x990 PUSH2 0xA41 JUMP JUMPDEST JUMPDEST DUP3 DUP3 MUL SWAP1 POP SWAP3 SWAP2 POP POP JUMP JUMPDEST PUSH1 0x0 PUSH2 0x9A7 DUP3 PUSH2 0x9B8 JUMP JUMPDEST SWAP1 POP SWAP2 SWAP1 POP JUMP JUMPDEST PUSH1 0x0 DUP2 SWAP1 POP SWAP2 SWAP1 POP JUMP JUMPDEST PUSH1 0x0 PUSH20 0xFFFFFFFFFFFFFFFFFFFFFFFFFFFFFFFFFFFFFFFF DUP3 AND SWAP1 POP SWAP2 SWAP1 POP JUMP JUMPDEST PUSH1 0x0 DUP2 SWAP1 POP SWAP2 SWAP1 POP JUMP JUMPDEST PUSH1 0x0 PUSH10 0xFFFFFFFFFFFFFFFFFFFF DUP3 AND SWAP1 POP SWAP2 SWAP1 POP JUMP JUMPDEST PUSH1 0x0 PUSH2 0xA03 DUP3 PUSH2 0x9D8 JUMP JUMPDEST SWAP2 POP PUSH32 0xFFFFFFFFFFFFFFFFFFFFFFFFFFFFFFFFFFFFFFFFFFFFFFFFFFFFFFFFFFFFFFFF DUP3 EQ ISZERO PUSH2 0xA36 JUMPI PUSH2 0xA35 PUSH2 0xA41 JUMP JUMPDEST JUMPDEST PUSH1 0x1 DUP3 ADD SWAP1 POP SWAP2 SWAP1 POP JUMP JUMPDEST PUSH32 0x4E487B7100000000000000000000000000000000000000000000000000000000 PUSH1 0x0 MSTORE PUSH1 0x11 PUSH1 0x4 MSTORE PUSH1 0x24 PUSH1 0x0 REVERT JUMPDEST PUSH32 0x4E487B7100000000000000000000000000000000000000000000000000000000 PUSH1 0x0 MSTORE PUSH1 0x12 PUSH1 0x4 MSTORE PUSH1 0x24 PUSH1 0x0 REVERT JUMPDEST PUSH32 0x4E487B7100000000000000000000000000000000000000000000000000000000 PUSH1 0x0 MSTORE PUSH1 0x32 PUSH1 0x4 MSTORE PUSH1 0x24 PUSH1 0x0 REVERT JUMPDEST PUSH32 0x4E487B7100000000000000000000000000000000000000000000000000000000 PUSH1 0x0 MSTORE PUSH1 0x41 PUSH1 0x4 MSTORE PUSH1 0x24 PUSH1 0x0 REVERT JUMPDEST PUSH1 0x0 DUP1 REVERT JUMPDEST PUSH32 0x4E6F7420656E6F75676800000000000000000000000000000000000000000000 PUSH1 0x0 DUP3 ADD MSTORE POP JUMP JUMPDEST PUSH32 0x53656E64206661696C6564000000000000000000000000000000000000000000 PUSH1 0x0 DUP3 ADD MSTORE POP JUMP JUMPDEST PUSH2 0xB5D DUP2 PUSH2 0x99C JUMP JUMPDEST DUP2 EQ PUSH2 0xB68 JUMPI PUSH1 0x0 DUP1 REVERT JUMPDEST POP JUMP JUMPDEST PUSH2 0xB74 DUP2 PUSH2 0x9AE JUMP JUMPDEST DUP2 EQ PUSH2 0xB7F JUMPI PUSH1 0x0 DUP1 REVERT JUMPDEST POP JUMP JUMPDEST PUSH2 0xB8B DUP2 PUSH2 0x9D8 JUMP JUMPDEST DUP2 EQ PUSH2 0xB96 JUMPI PUSH1 0x0 DUP1 REVERT JUMPDEST POP JUMP JUMPDEST PUSH2 0xBA2 DUP2 PUSH2 0x9E2 JUMP JUMPDEST DUP2 EQ PUSH2 0xBAD JUMPI PUSH1 0x0 DUP1 REVERT JUMPDEST POP JUMP INVALID LOG2 PUSH5 0x6970667358 0x22 SLT KECCAK256 0x4D SWAP7 EXP SWAP5 0xBA SAR SWAP5 PUSH16 0xD306C11E0328574D1906C8975DF19430 SWAP12 STATICCALL SDIV 0x26 PUSH25 0x21D06A64736F6C634300080700330000000000000000000000 "
				},
				"gasEstimates": {
					"creation": {
						"codeDepositCost": "609200",
						"executionCost": "22751",
						"totalCost": "631951"
					},
					"external": {
						"addressToAmountFunded(address)": "2814",
						"fund()": "infinite",
						"funders(uint256)": "5022",
						"miminumUsd()": "2451",
						"withdraw()": "infinite"
					}
				},
				"methodIdentifiers": {
					"addressToAmountFunded(address)": "3e47d6f3",
					"fund()": "b60d4288",
					"funders(uint256)": "dc0d3dff",
					"miminumUsd()": "75263f22",
					"withdraw()": "3ccfd60b"
				}
			},
			"storageLayout": {
				"storage": [
					{
						"astId": 56,
						"contract": "contracts/FundMe.sol:fundMe",
						"label": "miminumUsd",
						"offset": 0,
						"slot": "0",
						"type": "t_uint256"
					},
					{
						"astId": 59,
						"contract": "contracts/FundMe.sol:fundMe",
						"label": "funders",
						"offset": 0,
						"slot": "1",
						"type": "t_array(t_address)dyn_storage"
					},
					{
						"astId": 63,
						"contract": "contracts/FundMe.sol:fundMe",
						"label": "addressToAmountFunded",
						"offset": 0,
						"slot": "2",
						"type": "t_mapping(t_address,t_uint256)"
					}
				],
				"types": {
					"t_address": {
						"encoding": "inplace",
						"label": "address",
						"numberOfBytes": "20"
					},
					"t_array(t_address)dyn_storage": {
						"base": "t_address",
						"encoding": "dynamic_array",
						"label": "address[]",
						"numberOfBytes": "32"
					},
					"t_mapping(t_address,t_uint256)": {
						"encoding": "mapping",
						"key": "t_address",
						"label": "mapping(address => uint256)",
						"numberOfBytes": "32",
						"value": "t_uint256"
					},
					"t_uint256": {
						"encoding": "inplace",
						"label": "uint256",
						"numberOfBytes": "32"
					}
				}
			},
			"userdoc": {
				"kind": "user",
				"methods": {},
				"version": 1
			}
		}
	}
}