{
	"contracts/CoinFlipAttack.sol": {
		"CoinFlipAttack": {
			"abi": [
				{
					"inputs": [
						{
							"internalType": "address",
							"name": "_victimContractAddr",
							"type": "address"
						}
					],
					"stateMutability": "nonpayable",
					"type": "constructor"
				},
				{
					"inputs": [],
					"name": "flip",
					"outputs": [
						{
							"internalType": "bool",
							"name": "",
							"type": "bool"
						}
					],
					"stateMutability": "nonpayable",
					"type": "function"
				},
				{
					"inputs": [],
					"name": "victimContract",
					"outputs": [
						{
							"internalType": "contract CoinFlip",
							"name": "",
							"type": "address"
						}
					],
					"stateMutability": "view",
					"type": "function"
				}
			],
			"devdoc": {
				"kind": "dev",
				"methods": {},
				"version": 1
			},
			"evm": {
				"assembly": "    /* \"contracts/CoinFlipAttack.sol\":85:483  contract CoinFlipAttack {... */\n  mstore(0x40, 0x80)\n    /* \"contracts/CoinFlipAttack.sol\":169:246  57896044618658097711785492504343953926634992332820282019728792003956564819968 */\n  0x8000000000000000000000000000000000000000000000000000000000000000\n    /* \"contracts/CoinFlipAttack.sol\":152:246  uint256 FACTOR = 57896044618658097711785492504343953926634992332820282019728792003956564819968 */\n  0x01\n  sstore\n    /* \"contracts/CoinFlipAttack.sol\":253:364  constructor(address _victimContractAddr) public {... */\n  callvalue\n  dup1\n  iszero\n  tag_1\n  jumpi\n  0x00\n  dup1\n  revert\ntag_1:\n  pop\n  mload(0x40)\n  sub(codesize, bytecodeSize)\n  dup1\n  bytecodeSize\n  dup4\n  codecopy\n  dup2\n  dup2\n  add\n  0x40\n  mstore\n  dup2\n  add\n  swap1\n  tag_2\n  swap2\n  swap1\n  tag_3\n  jump\t// in\ntag_2:\n    /* \"contracts/CoinFlipAttack.sol\":337:356  _victimContractAddr */\n  dup1\n    /* \"contracts/CoinFlipAttack.sol\":311:325  victimContract */\n  0x00\n  dup1\n    /* \"contracts/CoinFlipAttack.sol\":311:357  victimContract = CoinFlip(_victimContractAddr) */\n  0x0100\n  exp\n  dup2\n  sload\n  dup2\n  0xffffffffffffffffffffffffffffffffffffffff\n  mul\n  not\n  and\n  swap1\n  dup4\n  0xffffffffffffffffffffffffffffffffffffffff\n  and\n  mul\n  or\n  swap1\n  sstore\n  pop\n    /* \"contracts/CoinFlipAttack.sol\":253:364  constructor(address _victimContractAddr) public {... */\n  pop\n    /* \"contracts/CoinFlipAttack.sol\":85:483  contract CoinFlipAttack {... */\n  jump(tag_6)\n    /* \"#utility.yul\":7:150   */\ntag_8:\n    /* \"#utility.yul\":64:69   */\n  0x00\n    /* \"#utility.yul\":95:101   */\n  dup2\n    /* \"#utility.yul\":89:102   */\n  mload\n    /* \"#utility.yul\":80:102   */\n  swap1\n  pop\n    /* \"#utility.yul\":111:144   */\n  tag_10\n    /* \"#utility.yul\":138:143   */\n  dup2\n    /* \"#utility.yul\":111:144   */\n  tag_11\n  jump\t// in\ntag_10:\n    /* \"#utility.yul\":7:150   */\n  swap3\n  swap2\n  pop\n  pop\n  jump\t// out\n    /* \"#utility.yul\":156:507   */\ntag_3:\n    /* \"#utility.yul\":226:232   */\n  0x00\n    /* \"#utility.yul\":275:277   */\n  0x20\n    /* \"#utility.yul\":263:272   */\n  dup3\n    /* \"#utility.yul\":254:261   */\n  dup5\n    /* \"#utility.yul\":250:273   */\n  sub\n    /* \"#utility.yul\":246:278   */\n  slt\n    /* \"#utility.yul\":243:362   */\n  iszero\n  tag_13\n  jumpi\n    /* \"#utility.yul\":281:360   */\n  tag_14\n  tag_15\n  jump\t// in\ntag_14:\n    /* \"#utility.yul\":243:362   */\ntag_13:\n    /* \"#utility.yul\":401:402   */\n  0x00\n    /* \"#utility.yul\":426:490   */\n  tag_16\n    /* \"#utility.yul\":482:489   */\n  dup5\n    /* \"#utility.yul\":473:479   */\n  dup3\n    /* \"#utility.yul\":462:471   */\n  dup6\n    /* \"#utility.yul\":458:480   */\n  add\n    /* \"#utility.yul\":426:490   */\n  tag_8\n  jump\t// in\ntag_16:\n    /* \"#utility.yul\":416:490   */\n  swap2\n  pop\n    /* \"#utility.yul\":372:500   */\n  pop\n    /* \"#utility.yul\":156:507   */\n  swap3\n  swap2\n  pop\n  pop\n  jump\t// out\n    /* \"#utility.yul\":594:690   */\ntag_19:\n    /* \"#utility.yul\":631:638   */\n  0x00\n    /* \"#utility.yul\":660:684   */\n  tag_21\n    /* \"#utility.yul\":678:683   */\n  dup3\n    /* \"#utility.yul\":660:684   */\n  tag_22\n  jump\t// in\ntag_21:\n    /* \"#utility.yul\":649:684   */\n  swap1\n  pop\n    /* \"#utility.yul\":594:690   */\n  swap2\n  swap1\n  pop\n  jump\t// out\n    /* \"#utility.yul\":696:822   */\ntag_22:\n    /* \"#utility.yul\":733:740   */\n  0x00\n    /* \"#utility.yul\":773:815   */\n  0xffffffffffffffffffffffffffffffffffffffff\n    /* \"#utility.yul\":766:771   */\n  dup3\n    /* \"#utility.yul\":762:816   */\n  and\n    /* \"#utility.yul\":751:816   */\n  swap1\n  pop\n    /* \"#utility.yul\":696:822   */\n  swap2\n  swap1\n  pop\n  jump\t// out\n    /* \"#utility.yul\":951:1068   */\ntag_15:\n    /* \"#utility.yul\":1060:1061   */\n  0x00\n    /* \"#utility.yul\":1057:1058   */\n  dup1\n    /* \"#utility.yul\":1050:1062   */\n  revert\n    /* \"#utility.yul\":1074:1196   */\ntag_11:\n    /* \"#utility.yul\":1147:1171   */\n  tag_28\n    /* \"#utility.yul\":1165:1170   */\n  dup2\n    /* \"#utility.yul\":1147:1171   */\n  tag_19\n  jump\t// in\ntag_28:\n    /* \"#utility.yul\":1140:1145   */\n  dup2\n    /* \"#utility.yul\":1137:1172   */\n  eq\n    /* \"#utility.yul\":1127:1190   */\n  tag_29\n  jumpi\n    /* \"#utility.yul\":1186:1187   */\n  0x00\n    /* \"#utility.yul\":1183:1184   */\n  dup1\n    /* \"#utility.yul\":1176:1188   */\n  revert\n    /* \"#utility.yul\":1127:1190   */\ntag_29:\n    /* \"#utility.yul\":1074:1196   */\n  pop\n  jump\t// out\n    /* \"contracts/CoinFlipAttack.sol\":85:483  contract CoinFlipAttack {... */\ntag_6:\n  dataSize(sub_0)\n  dup1\n  dataOffset(sub_0)\n  0x00\n  codecopy\n  0x00\n  return\nstop\n\nsub_0: assembly {\n        /* \"contracts/CoinFlipAttack.sol\":85:483  contract CoinFlipAttack {... */\n      mstore(0x40, 0x80)\n      callvalue\n      dup1\n      iszero\n      tag_1\n      jumpi\n      0x00\n      dup1\n      revert\n    tag_1:\n      pop\n      jumpi(tag_2, lt(calldatasize, 0x04))\n      shr(0xe0, calldataload(0x00))\n      dup1\n      0xcde4efa9\n      eq\n      tag_3\n      jumpi\n      dup1\n      0xf32d251d\n      eq\n      tag_4\n      jumpi\n    tag_2:\n      0x00\n      dup1\n      revert\n        /* \"contracts/CoinFlipAttack.sol\":370:481  function flip() public returns (bool){... */\n    tag_3:\n      tag_5\n      tag_6\n      jump\t// in\n    tag_5:\n      mload(0x40)\n      tag_7\n      swap2\n      swap1\n      tag_8\n      jump\t// in\n    tag_7:\n      mload(0x40)\n      dup1\n      swap2\n      sub\n      swap1\n      return\n        /* \"contracts/CoinFlipAttack.sol\":116:146  CoinFlip public victimContract */\n    tag_4:\n      tag_9\n      tag_10\n      jump\t// in\n    tag_9:\n      mload(0x40)\n      tag_11\n      swap2\n      swap1\n      tag_12\n      jump\t// in\n    tag_11:\n      mload(0x40)\n      dup1\n      swap2\n      sub\n      swap1\n      return\n        /* \"contracts/CoinFlipAttack.sol\":370:481  function flip() public returns (bool){... */\n    tag_6:\n        /* \"contracts/CoinFlipAttack.sol\":402:406  bool */\n      0x00\n        /* \"contracts/CoinFlipAttack.sol\":417:435  uint256 blockValue */\n      dup1\n        /* \"contracts/CoinFlipAttack.sol\":471:472  1 */\n      0x01\n        /* \"contracts/CoinFlipAttack.sol\":456:468  block.number */\n      number\n        /* \"contracts/CoinFlipAttack.sol\":456:472  block.number - 1 */\n      tag_14\n      swap2\n      swap1\n      tag_15\n      jump\t// in\n    tag_14:\n        /* \"contracts/CoinFlipAttack.sol\":446:473  blockhash(block.number - 1) */\n      blockhash\n        /* \"contracts/CoinFlipAttack.sol\":438:474  uint256(blockhash(block.number - 1)) */\n      0x00\n      shr\n        /* \"contracts/CoinFlipAttack.sol\":417:474  uint256 blockValue = uint256(blockhash(block.number - 1)) */\n      swap1\n      pop\n        /* \"contracts/CoinFlipAttack.sol\":407:481  {... */\n      pop\n        /* \"contracts/CoinFlipAttack.sol\":370:481  function flip() public returns (bool){... */\n      swap1\n      jump\t// out\n        /* \"contracts/CoinFlipAttack.sol\":116:146  CoinFlip public victimContract */\n    tag_10:\n      0x00\n      dup1\n      sload\n      swap1\n      0x0100\n      exp\n      swap1\n      div\n      0xffffffffffffffffffffffffffffffffffffffff\n      and\n      dup2\n      jump\t// out\n        /* \"#utility.yul\":7:116   */\n    tag_17:\n        /* \"#utility.yul\":88:109   */\n      tag_19\n        /* \"#utility.yul\":103:108   */\n      dup2\n        /* \"#utility.yul\":88:109   */\n      tag_20\n      jump\t// in\n    tag_19:\n        /* \"#utility.yul\":83:86   */\n      dup3\n        /* \"#utility.yul\":76:110   */\n      mstore\n        /* \"#utility.yul\":7:116   */\n      pop\n      pop\n      jump\t// out\n        /* \"#utility.yul\":122:283   */\n    tag_21:\n        /* \"#utility.yul\":224:276   */\n      tag_23\n        /* \"#utility.yul\":270:275   */\n      dup2\n        /* \"#utility.yul\":224:276   */\n      tag_24\n      jump\t// in\n    tag_23:\n        /* \"#utility.yul\":219:222   */\n      dup3\n        /* \"#utility.yul\":212:277   */\n      mstore\n        /* \"#utility.yul\":122:283   */\n      pop\n      pop\n      jump\t// out\n        /* \"#utility.yul\":289:499   */\n    tag_8:\n        /* \"#utility.yul\":376:380   */\n      0x00\n        /* \"#utility.yul\":414:416   */\n      0x20\n        /* \"#utility.yul\":403:412   */\n      dup3\n        /* \"#utility.yul\":399:417   */\n      add\n        /* \"#utility.yul\":391:417   */\n      swap1\n      pop\n        /* \"#utility.yul\":427:492   */\n      tag_26\n        /* \"#utility.yul\":489:490   */\n      0x00\n        /* \"#utility.yul\":478:487   */\n      dup4\n        /* \"#utility.yul\":474:491   */\n      add\n        /* \"#utility.yul\":465:471   */\n      dup5\n        /* \"#utility.yul\":427:492   */\n      tag_17\n      jump\t// in\n    tag_26:\n        /* \"#utility.yul\":289:499   */\n      swap3\n      swap2\n      pop\n      pop\n      jump\t// out\n        /* \"#utility.yul\":505:757   */\n    tag_12:\n        /* \"#utility.yul\":613:617   */\n      0x00\n        /* \"#utility.yul\":651:653   */\n      0x20\n        /* \"#utility.yul\":640:649   */\n      dup3\n        /* \"#utility.yul\":636:654   */\n      add\n        /* \"#utility.yul\":628:654   */\n      swap1\n      pop\n        /* \"#utility.yul\":664:750   */\n      tag_28\n        /* \"#utility.yul\":747:748   */\n      0x00\n        /* \"#utility.yul\":736:745   */\n      dup4\n        /* \"#utility.yul\":732:749   */\n      add\n        /* \"#utility.yul\":723:729   */\n      dup5\n        /* \"#utility.yul\":664:750   */\n      tag_21\n      jump\t// in\n    tag_28:\n        /* \"#utility.yul\":505:757   */\n      swap3\n      swap2\n      pop\n      pop\n      jump\t// out\n        /* \"#utility.yul\":763:954   */\n    tag_15:\n        /* \"#utility.yul\":803:807   */\n      0x00\n        /* \"#utility.yul\":823:843   */\n      tag_30\n        /* \"#utility.yul\":841:842   */\n      dup3\n        /* \"#utility.yul\":823:843   */\n      tag_31\n      jump\t// in\n    tag_30:\n        /* \"#utility.yul\":818:843   */\n      swap2\n      pop\n        /* \"#utility.yul\":857:877   */\n      tag_32\n        /* \"#utility.yul\":875:876   */\n      dup4\n        /* \"#utility.yul\":857:877   */\n      tag_31\n      jump\t// in\n    tag_32:\n        /* \"#utility.yul\":852:877   */\n      swap3\n      pop\n        /* \"#utility.yul\":896:897   */\n      dup3\n        /* \"#utility.yul\":893:894   */\n      dup3\n        /* \"#utility.yul\":890:898   */\n      lt\n        /* \"#utility.yul\":887:921   */\n      iszero\n      tag_33\n      jumpi\n        /* \"#utility.yul\":901:919   */\n      tag_34\n      tag_35\n      jump\t// in\n    tag_34:\n        /* \"#utility.yul\":887:921   */\n    tag_33:\n        /* \"#utility.yul\":946:947   */\n      dup3\n        /* \"#utility.yul\":943:944   */\n      dup3\n        /* \"#utility.yul\":939:948   */\n      sub\n        /* \"#utility.yul\":931:948   */\n      swap1\n      pop\n        /* \"#utility.yul\":763:954   */\n      swap3\n      swap2\n      pop\n      pop\n      jump\t// out\n        /* \"#utility.yul\":960:1050   */\n    tag_20:\n        /* \"#utility.yul\":994:1001   */\n      0x00\n        /* \"#utility.yul\":1037:1042   */\n      dup2\n        /* \"#utility.yul\":1030:1043   */\n      iszero\n        /* \"#utility.yul\":1023:1044   */\n      iszero\n        /* \"#utility.yul\":1012:1044   */\n      swap1\n      pop\n        /* \"#utility.yul\":960:1050   */\n      swap2\n      swap1\n      pop\n      jump\t// out\n        /* \"#utility.yul\":1056:1182   */\n    tag_37:\n        /* \"#utility.yul\":1093:1100   */\n      0x00\n        /* \"#utility.yul\":1133:1175   */\n      0xffffffffffffffffffffffffffffffffffffffff\n        /* \"#utility.yul\":1126:1131   */\n      dup3\n        /* \"#utility.yul\":1122:1176   */\n      and\n        /* \"#utility.yul\":1111:1176   */\n      swap1\n      pop\n        /* \"#utility.yul\":1056:1182   */\n      swap2\n      swap1\n      pop\n      jump\t// out\n        /* \"#utility.yul\":1188:1265   */\n    tag_31:\n        /* \"#utility.yul\":1225:1232   */\n      0x00\n        /* \"#utility.yul\":1254:1259   */\n      dup2\n        /* \"#utility.yul\":1243:1259   */\n      swap1\n      pop\n        /* \"#utility.yul\":1188:1265   */\n      swap2\n      swap1\n      pop\n      jump\t// out\n        /* \"#utility.yul\":1271:1412   */\n    tag_24:\n        /* \"#utility.yul\":1336:1345   */\n      0x00\n        /* \"#utility.yul\":1369:1406   */\n      tag_41\n        /* \"#utility.yul\":1400:1405   */\n      dup3\n        /* \"#utility.yul\":1369:1406   */\n      tag_42\n      jump\t// in\n    tag_41:\n        /* \"#utility.yul\":1356:1406   */\n      swap1\n      pop\n        /* \"#utility.yul\":1271:1412   */\n      swap2\n      swap1\n      pop\n      jump\t// out\n        /* \"#utility.yul\":1418:1544   */\n    tag_42:\n        /* \"#utility.yul\":1468:1477   */\n      0x00\n        /* \"#utility.yul\":1501:1538   */\n      tag_44\n        /* \"#utility.yul\":1532:1537   */\n      dup3\n        /* \"#utility.yul\":1501:1538   */\n      tag_45\n      jump\t// in\n    tag_44:\n        /* \"#utility.yul\":1488:1538   */\n      swap1\n      pop\n        /* \"#utility.yul\":1418:1544   */\n      swap2\n      swap1\n      pop\n      jump\t// out\n        /* \"#utility.yul\":1550:1663   */\n    tag_45:\n        /* \"#utility.yul\":1600:1609   */\n      0x00\n        /* \"#utility.yul\":1633:1657   */\n      tag_47\n        /* \"#utility.yul\":1651:1656   */\n      dup3\n        /* \"#utility.yul\":1633:1657   */\n      tag_37\n      jump\t// in\n    tag_47:\n        /* \"#utility.yul\":1620:1657   */\n      swap1\n      pop\n        /* \"#utility.yul\":1550:1663   */\n      swap2\n      swap1\n      pop\n      jump\t// out\n        /* \"#utility.yul\":1669:1849   */\n    tag_35:\n        /* \"#utility.yul\":1717:1794   */\n      0x4e487b7100000000000000000000000000000000000000000000000000000000\n        /* \"#utility.yul\":1714:1715   */\n      0x00\n        /* \"#utility.yul\":1707:1795   */\n      mstore\n        /* \"#utility.yul\":1814:1818   */\n      0x11\n        /* \"#utility.yul\":1811:1812   */\n      0x04\n        /* \"#utility.yul\":1804:1819   */\n      mstore\n        /* \"#utility.yul\":1838:1842   */\n      0x24\n        /* \"#utility.yul\":1835:1836   */\n      0x00\n        /* \"#utility.yul\":1828:1843   */\n      revert\n\n    auxdata: 0xa26469706673582212200f395e280b04bb6dc8209e1de228cadb50f18815b7c63502ea0fe3362d53f35064736f6c63430008070033\n}\n",
				"bytecode": {
					"linkReferences": {},
					"object": "60806040527f800000000000000000000000000000000000000000000000000000000000000060015534801561003457600080fd5b50604051610349380380610349833981810160405281019061005691906100b1565b806000806101000a81548173ffffffffffffffffffffffffffffffffffffffff021916908373ffffffffffffffffffffffffffffffffffffffff1602179055505061012c565b6000815190506100ab81610115565b92915050565b6000602082840312156100c7576100c6610110565b5b60006100d58482850161009c565b91505092915050565b60006100e9826100f0565b9050919050565b600073ffffffffffffffffffffffffffffffffffffffff82169050919050565b600080fd5b61011e816100de565b811461012957600080fd5b50565b61020e8061013b6000396000f3fe608060405234801561001057600080fd5b50600436106100365760003560e01c8063cde4efa91461003b578063f32d251d14610059575b600080fd5b610043610077565b60405161005091906100d3565b60405180910390f35b610061610091565b60405161006e91906100ee565b60405180910390f35b6000806001436100879190610109565b4060001c90505090565b60008054906101000a900473ffffffffffffffffffffffffffffffffffffffff1681565b6100be8161013d565b82525050565b6100cd81610173565b82525050565b60006020820190506100e860008301846100b5565b92915050565b600060208201905061010360008301846100c4565b92915050565b600061011482610169565b915061011f83610169565b925082821015610132576101316101a9565b5b828203905092915050565b60008115159050919050565b600073ffffffffffffffffffffffffffffffffffffffff82169050919050565b6000819050919050565b600061017e82610185565b9050919050565b600061019082610197565b9050919050565b60006101a282610149565b9050919050565b7f4e487b7100000000000000000000000000000000000000000000000000000000600052601160045260246000fdfea26469706673582212200f395e280b04bb6dc8209e1de228cadb50f18815b7c63502ea0fe3362d53f35064736f6c63430008070033",
					"opcodes": "PUSH1 0x80 PUSH1 0x40 MSTORE PUSH32 0x8000000000000000000000000000000000000000000000000000000000000000 PUSH1 0x1 SSTORE CALLVALUE DUP1 ISZERO PUSH2 0x34 JUMPI PUSH1 0x0 DUP1 REVERT JUMPDEST POP PUSH1 0x40 MLOAD PUSH2 0x349 CODESIZE SUB DUP1 PUSH2 0x349 DUP4 CODECOPY DUP2 DUP2 ADD PUSH1 0x40 MSTORE DUP2 ADD SWAP1 PUSH2 0x56 SWAP2 SWAP1 PUSH2 0xB1 JUMP JUMPDEST DUP1 PUSH1 0x0 DUP1 PUSH2 0x100 EXP DUP2 SLOAD DUP2 PUSH20 0xFFFFFFFFFFFFFFFFFFFFFFFFFFFFFFFFFFFFFFFF MUL NOT AND SWAP1 DUP4 PUSH20 0xFFFFFFFFFFFFFFFFFFFFFFFFFFFFFFFFFFFFFFFF AND MUL OR SWAP1 SSTORE POP POP PUSH2 0x12C JUMP JUMPDEST PUSH1 0x0 DUP2 MLOAD SWAP1 POP PUSH2 0xAB DUP2 PUSH2 0x115 JUMP JUMPDEST SWAP3 SWAP2 POP POP JUMP JUMPDEST PUSH1 0x0 PUSH1 0x20 DUP3 DUP5 SUB SLT ISZERO PUSH2 0xC7 JUMPI PUSH2 0xC6 PUSH2 0x110 JUMP JUMPDEST JUMPDEST PUSH1 0x0 PUSH2 0xD5 DUP5 DUP3 DUP6 ADD PUSH2 0x9C JUMP JUMPDEST SWAP2 POP POP SWAP3 SWAP2 POP POP JUMP JUMPDEST PUSH1 0x0 PUSH2 0xE9 DUP3 PUSH2 0xF0 JUMP JUMPDEST SWAP1 POP SWAP2 SWAP1 POP JUMP JUMPDEST PUSH1 0x0 PUSH20 0xFFFFFFFFFFFFFFFFFFFFFFFFFFFFFFFFFFFFFFFF DUP3 AND SWAP1 POP SWAP2 SWAP1 POP JUMP JUMPDEST PUSH1 0x0 DUP1 REVERT JUMPDEST PUSH2 0x11E DUP2 PUSH2 0xDE JUMP JUMPDEST DUP2 EQ PUSH2 0x129 JUMPI PUSH1 0x0 DUP1 REVERT JUMPDEST POP JUMP JUMPDEST PUSH2 0x20E DUP1 PUSH2 0x13B PUSH1 0x0 CODECOPY PUSH1 0x0 RETURN INVALID PUSH1 0x80 PUSH1 0x40 MSTORE CALLVALUE DUP1 ISZERO PUSH2 0x10 JUMPI PUSH1 0x0 DUP1 REVERT JUMPDEST POP PUSH1 0x4 CALLDATASIZE LT PUSH2 0x36 JUMPI PUSH1 0x0 CALLDATALOAD PUSH1 0xE0 SHR DUP1 PUSH4 0xCDE4EFA9 EQ PUSH2 0x3B JUMPI DUP1 PUSH4 0xF32D251D EQ PUSH2 0x59 JUMPI JUMPDEST PUSH1 0x0 DUP1 REVERT JUMPDEST PUSH2 0x43 PUSH2 0x77 JUMP JUMPDEST PUSH1 0x40 MLOAD PUSH2 0x50 SWAP2 SWAP1 PUSH2 0xD3 JUMP JUMPDEST PUSH1 0x40 MLOAD DUP1 SWAP2 SUB SWAP1 RETURN JUMPDEST PUSH2 0x61 PUSH2 0x91 JUMP JUMPDEST PUSH1 0x40 MLOAD PUSH2 0x6E SWAP2 SWAP1 PUSH2 0xEE JUMP JUMPDEST PUSH1 0x40 MLOAD DUP1 SWAP2 SUB SWAP1 RETURN JUMPDEST PUSH1 0x0 DUP1 PUSH1 0x1 NUMBER PUSH2 0x87 SWAP2 SWAP1 PUSH2 0x109 JUMP JUMPDEST BLOCKHASH PUSH1 0x0 SHR SWAP1 POP POP SWAP1 JUMP JUMPDEST PUSH1 0x0 DUP1 SLOAD SWAP1 PUSH2 0x100 EXP SWAP1 DIV PUSH20 0xFFFFFFFFFFFFFFFFFFFFFFFFFFFFFFFFFFFFFFFF AND DUP2 JUMP JUMPDEST PUSH2 0xBE DUP2 PUSH2 0x13D JUMP JUMPDEST DUP3 MSTORE POP POP JUMP JUMPDEST PUSH2 0xCD DUP2 PUSH2 0x173 JUMP JUMPDEST DUP3 MSTORE POP POP JUMP JUMPDEST PUSH1 0x0 PUSH1 0x20 DUP3 ADD SWAP1 POP PUSH2 0xE8 PUSH1 0x0 DUP4 ADD DUP5 PUSH2 0xB5 JUMP JUMPDEST SWAP3 SWAP2 POP POP JUMP JUMPDEST PUSH1 0x0 PUSH1 0x20 DUP3 ADD SWAP1 POP PUSH2 0x103 PUSH1 0x0 DUP4 ADD DUP5 PUSH2 0xC4 JUMP JUMPDEST SWAP3 SWAP2 POP POP JUMP JUMPDEST PUSH1 0x0 PUSH2 0x114 DUP3 PUSH2 0x169 JUMP JUMPDEST SWAP2 POP PUSH2 0x11F DUP4 PUSH2 0x169 JUMP JUMPDEST SWAP3 POP DUP3 DUP3 LT ISZERO PUSH2 0x132 JUMPI PUSH2 0x131 PUSH2 0x1A9 JUMP JUMPDEST JUMPDEST DUP3 DUP3 SUB SWAP1 POP SWAP3 SWAP2 POP POP JUMP JUMPDEST PUSH1 0x0 DUP2 ISZERO ISZERO SWAP1 POP SWAP2 SWAP1 POP JUMP JUMPDEST PUSH1 0x0 PUSH20 0xFFFFFFFFFFFFFFFFFFFFFFFFFFFFFFFFFFFFFFFF DUP3 AND SWAP1 POP SWAP2 SWAP1 POP JUMP JUMPDEST PUSH1 0x0 DUP2 SWAP1 POP SWAP2 SWAP1 POP JUMP JUMPDEST PUSH1 0x0 PUSH2 0x17E DUP3 PUSH2 0x185 JUMP JUMPDEST SWAP1 POP SWAP2 SWAP1 POP JUMP JUMPDEST PUSH1 0x0 PUSH2 0x190 DUP3 PUSH2 0x197 JUMP JUMPDEST SWAP1 POP SWAP2 SWAP1 POP JUMP JUMPDEST PUSH1 0x0 PUSH2 0x1A2 DUP3 PUSH2 0x149 JUMP JUMPDEST SWAP1 POP SWAP2 SWAP1 POP JUMP JUMPDEST PUSH32 0x4E487B7100000000000000000000000000000000000000000000000000000000 PUSH1 0x0 MSTORE PUSH1 0x11 PUSH1 0x4 MSTORE PUSH1 0x24 PUSH1 0x0 REVERT INVALID LOG2 PUSH5 0x6970667358 0x22 SLT KECCAK256 0xF CODECOPY 0x5E 0x28 SIGNEXTEND DIV 0xBB PUSH14 0xC8209E1DE228CADB50F18815B7C6 CALLDATALOAD MUL 0xEA 0xF 0xE3 CALLDATASIZE 0x2D MSTORE8 RETURN POP PUSH5 0x736F6C6343 STOP ADDMOD SMOD STOP CALLER "
				},
				"gasEstimates": {
					"creation": {
						"codeDepositCost": "105200",
						"executionCost": "infinite",
						"totalCost": "infinite"
					},
					"external": {
						"flip()": "infinite",
						"victimContract()": "2597"
					}
				},
				"methodIdentifiers": {
					"flip()": "cde4efa9",
					"victimContract()": "f32d251d"
				}
			},
			"storageLayout": {
				"storage": [
					{
						"astId": 93,
						"contract": "contracts/CoinFlipAttack.sol:CoinFlipAttack",
						"label": "victimContract",
						"offset": 0,
						"slot": "0",
						"type": "t_contract(CoinFlip)87"
					},
					{
						"astId": 96,
						"contract": "contracts/CoinFlipAttack.sol:CoinFlipAttack",
						"label": "FACTOR",
						"offset": 0,
						"slot": "1",
						"type": "t_uint256"
					}
				],
				"types": {
					"t_contract(CoinFlip)87": {
						"encoding": "inplace",
						"label": "contract CoinFlip",
						"numberOfBytes": "20"
					},
					"t_uint256": {
						"encoding": "inplace",
						"label": "uint256",
						"numberOfBytes": "32"
					}
				}
			},
			"userdoc": {
				"kind": "user",
				"methods": {},
				"version": 1
			}
		}
	}
}