{
	"contracts/CoinFlip.sol": {
		"CoinFlip": {
			"abi": [
				{
					"inputs": [],
					"stateMutability": "nonpayable",
					"type": "constructor"
				},
				{
					"inputs": [],
					"name": "consecutiveWins",
					"outputs": [
						{
							"internalType": "uint256",
							"name": "",
							"type": "uint256"
						}
					],
					"stateMutability": "view",
					"type": "function"
				},
				{
					"inputs": [
						{
							"internalType": "bool",
							"name": "_guess",
							"type": "bool"
						}
					],
					"name": "flip",
					"outputs": [
						{
							"internalType": "bool",
							"name": "",
							"type": "bool"
						}
					],
					"stateMutability": "nonpayable",
					"type": "function"
				}
			],
			"devdoc": {
				"kind": "dev",
				"methods": {},
				"version": 1
			},
			"evm": {
				"assembly": "    /* \"contracts/CoinFlip.sol\":205:906  contract CoinFlip {... */\n  mstore(0x40, 0x80)\n    /* \"contracts/CoinFlip.sol\":331:408  57896044618658097711785492504343953926634992332820282019728792003956564819968 */\n  0x8000000000000000000000000000000000000000000000000000000000000000\n    /* \"contracts/CoinFlip.sol\":314:408  uint256 FACTOR = 57896044618658097711785492504343953926634992332820282019728792003956564819968 */\n  0x02\n  sstore\n    /* \"contracts/CoinFlip.sol\":413:464  constructor() public {... */\n  callvalue\n  dup1\n  iszero\n  tag_1\n  jumpi\n  0x00\n  dup1\n  revert\ntag_1:\n  pop\n    /* \"contracts/CoinFlip.sol\":458:459  0 */\n  0x00\n    /* \"contracts/CoinFlip.sol\":440:455  consecutiveWins */\n  dup1\n    /* \"contracts/CoinFlip.sol\":440:459  consecutiveWins = 0 */\n  dup2\n  swap1\n  sstore\n  pop\n    /* \"contracts/CoinFlip.sol\":205:906  contract CoinFlip {... */\n  dataSize(sub_0)\n  dup1\n  dataOffset(sub_0)\n  0x00\n  codecopy\n  0x00\n  return\nstop\n\nsub_0: assembly {\n        /* \"contracts/CoinFlip.sol\":205:906  contract CoinFlip {... */\n      mstore(0x40, 0x80)\n      callvalue\n      dup1\n      iszero\n      tag_1\n      jumpi\n      0x00\n      dup1\n      revert\n    tag_1:\n      pop\n      jumpi(tag_2, lt(calldatasize, 0x04))\n      shr(0xe0, calldataload(0x00))\n      dup1\n      0x1d263f67\n      eq\n      tag_3\n      jumpi\n      dup1\n      0xe6f334d7\n      eq\n      tag_4\n      jumpi\n    tag_2:\n      0x00\n      dup1\n      revert\n        /* \"contracts/CoinFlip.sol\":468:903  function flip(bool _guess) public returns (bool) {... */\n    tag_3:\n      tag_5\n      0x04\n      dup1\n      calldatasize\n      sub\n      dup2\n      add\n      swap1\n      tag_6\n      swap2\n      swap1\n      tag_7\n      jump\t// in\n    tag_6:\n      tag_8\n      jump\t// in\n    tag_5:\n      mload(0x40)\n      tag_9\n      swap2\n      swap1\n      tag_10\n      jump\t// in\n    tag_9:\n      mload(0x40)\n      dup1\n      swap2\n      sub\n      swap1\n      return\n        /* \"contracts/CoinFlip.sol\":260:290  uint256 public consecutiveWins */\n    tag_4:\n      tag_11\n      tag_12\n      jump\t// in\n    tag_11:\n      mload(0x40)\n      tag_13\n      swap2\n      swap1\n      tag_14\n      jump\t// in\n    tag_13:\n      mload(0x40)\n      dup1\n      swap2\n      sub\n      swap1\n      return\n        /* \"contracts/CoinFlip.sol\":468:903  function flip(bool _guess) public returns (bool) {... */\n    tag_8:\n        /* \"contracts/CoinFlip.sol\":511:515  bool */\n      0x00\n        /* \"contracts/CoinFlip.sol\":523:541  uint256 blockValue */\n      dup1\n        /* \"contracts/CoinFlip.sol\":562:581  block.number.sub(1) */\n      tag_16\n        /* \"contracts/CoinFlip.sol\":579:580  1 */\n      0x01\n        /* \"contracts/CoinFlip.sol\":562:574  block.number */\n      number\n        /* \"contracts/CoinFlip.sol\":562:578  block.number.sub */\n      tag_17\n      swap1\n        /* \"contracts/CoinFlip.sol\":562:581  block.number.sub(1) */\n      swap2\n      swap1\n      0xffffffff\n      and\n      jump\t// in\n    tag_16:\n        /* \"contracts/CoinFlip.sol\":552:582  blockhash(block.number.sub(1)) */\n      blockhash\n        /* \"contracts/CoinFlip.sol\":544:583  uint256(blockhash(block.number.sub(1))) */\n      0x00\n      shr\n        /* \"contracts/CoinFlip.sol\":523:583  uint256 blockValue = uint256(blockhash(block.number.sub(1))) */\n      swap1\n      pop\n        /* \"contracts/CoinFlip.sol\":606:616  blockValue */\n      dup1\n        /* \"contracts/CoinFlip.sol\":594:602  lastHash */\n      sload(0x01)\n        /* \"contracts/CoinFlip.sol\":594:616  lastHash == blockValue */\n      eq\n        /* \"contracts/CoinFlip.sol\":590:641  if (lastHash == blockValue) {... */\n      iszero\n      tag_18\n      jumpi\n        /* \"contracts/CoinFlip.sol\":626:634  revert() */\n      0x00\n      dup1\n      revert\n        /* \"contracts/CoinFlip.sol\":590:641  if (lastHash == blockValue) {... */\n    tag_18:\n        /* \"contracts/CoinFlip.sol\":658:668  blockValue */\n      dup1\n        /* \"contracts/CoinFlip.sol\":647:655  lastHash */\n      0x01\n        /* \"contracts/CoinFlip.sol\":647:668  lastHash = blockValue */\n      dup2\n      swap1\n      sstore\n      pop\n        /* \"contracts/CoinFlip.sol\":674:690  uint256 coinFlip */\n      0x00\n        /* \"contracts/CoinFlip.sol\":693:715  blockValue.div(FACTOR) */\n      tag_19\n        /* \"contracts/CoinFlip.sol\":708:714  FACTOR */\n      sload(0x02)\n        /* \"contracts/CoinFlip.sol\":693:703  blockValue */\n      dup4\n        /* \"contracts/CoinFlip.sol\":693:707  blockValue.div */\n      tag_20\n      swap1\n        /* \"contracts/CoinFlip.sol\":693:715  blockValue.div(FACTOR) */\n      swap2\n      swap1\n      0xffffffff\n      and\n      jump\t// in\n    tag_19:\n        /* \"contracts/CoinFlip.sol\":674:715  uint256 coinFlip = blockValue.div(FACTOR) */\n      swap1\n      pop\n        /* \"contracts/CoinFlip.sol\":721:730  bool side */\n      0x00\n        /* \"contracts/CoinFlip.sol\":745:746  1 */\n      0x01\n        /* \"contracts/CoinFlip.sol\":733:741  coinFlip */\n      dup3\n        /* \"contracts/CoinFlip.sol\":733:746  coinFlip == 1 */\n      eq\n        /* \"contracts/CoinFlip.sol\":733:761  coinFlip == 1 ? true : false */\n      tag_21\n      jumpi\n        /* \"contracts/CoinFlip.sol\":756:761  false */\n      0x00\n        /* \"contracts/CoinFlip.sol\":733:761  coinFlip == 1 ? true : false */\n      jump(tag_22)\n    tag_21:\n        /* \"contracts/CoinFlip.sol\":749:753  true */\n      0x01\n        /* \"contracts/CoinFlip.sol\":733:761  coinFlip == 1 ? true : false */\n    tag_22:\n        /* \"contracts/CoinFlip.sol\":721:761  bool side = coinFlip == 1 ? true : false */\n      swap1\n      pop\n        /* \"contracts/CoinFlip.sol\":780:786  _guess */\n      dup5\n        /* \"contracts/CoinFlip.sol\":772:786  side == _guess */\n      iszero\n      iszero\n        /* \"contracts/CoinFlip.sol\":772:776  side */\n      dup2\n        /* \"contracts/CoinFlip.sol\":772:786  side == _guess */\n      iszero\n      iszero\n      eq\n        /* \"contracts/CoinFlip.sol\":768:899  if (side == _guess) {... */\n      iszero\n      tag_23\n      jumpi\n        /* \"contracts/CoinFlip.sol\":796:811  consecutiveWins */\n      0x00\n      dup1\n        /* \"contracts/CoinFlip.sol\":796:813  consecutiveWins++ */\n      dup2\n      sload\n      dup1\n      swap3\n      swap2\n      swap1\n      tag_24\n      swap1\n      tag_25\n      jump\t// in\n    tag_24:\n      swap2\n      swap1\n      pop\n      sstore\n      pop\n        /* \"contracts/CoinFlip.sol\":828:832  true */\n      0x01\n        /* \"contracts/CoinFlip.sol\":821:832  return true */\n      swap4\n      pop\n      pop\n      pop\n      pop\n      jump(tag_15)\n        /* \"contracts/CoinFlip.sol\":768:899  if (side == _guess) {... */\n    tag_23:\n        /* \"contracts/CoinFlip.sol\":871:872  0 */\n      0x00\n        /* \"contracts/CoinFlip.sol\":853:868  consecutiveWins */\n      dup1\n        /* \"contracts/CoinFlip.sol\":853:872  consecutiveWins = 0 */\n      dup2\n      swap1\n      sstore\n      pop\n        /* \"contracts/CoinFlip.sol\":887:892  false */\n      0x00\n        /* \"contracts/CoinFlip.sol\":880:892  return false */\n      swap4\n      pop\n      pop\n      pop\n      pop\n        /* \"contracts/CoinFlip.sol\":468:903  function flip(bool _guess) public returns (bool) {... */\n    tag_15:\n      swap2\n      swap1\n      pop\n      jump\t// out\n        /* \"contracts/CoinFlip.sol\":260:290  uint256 public consecutiveWins */\n    tag_12:\n      sload(0x00)\n      dup2\n      jump\t// out\n        /* \"https://github.com/OpenZeppelin/openzeppelin-contracts/blob/7201e6707f6631d9499a569f492870ebdd4133cf/contracts/utils/math/SafeMath.sol\":3122:3218  function sub(uint256 a, uint256 b) internal pure returns (uint256) {... */\n    tag_17:\n        /* \"https://github.com/OpenZeppelin/openzeppelin-contracts/blob/7201e6707f6631d9499a569f492870ebdd4133cf/contracts/utils/math/SafeMath.sol\":3180:3187  uint256 */\n      0x00\n        /* \"https://github.com/OpenZeppelin/openzeppelin-contracts/blob/7201e6707f6631d9499a569f492870ebdd4133cf/contracts/utils/math/SafeMath.sol\":3210:3211  b */\n      dup2\n        /* \"https://github.com/OpenZeppelin/openzeppelin-contracts/blob/7201e6707f6631d9499a569f492870ebdd4133cf/contracts/utils/math/SafeMath.sol\":3206:3207  a */\n      dup4\n        /* \"https://github.com/OpenZeppelin/openzeppelin-contracts/blob/7201e6707f6631d9499a569f492870ebdd4133cf/contracts/utils/math/SafeMath.sol\":3206:3211  a - b */\n      tag_28\n      swap2\n      swap1\n      tag_29\n      jump\t// in\n    tag_28:\n        /* \"https://github.com/OpenZeppelin/openzeppelin-contracts/blob/7201e6707f6631d9499a569f492870ebdd4133cf/contracts/utils/math/SafeMath.sol\":3199:3211  return a - b */\n      swap1\n      pop\n        /* \"https://github.com/OpenZeppelin/openzeppelin-contracts/blob/7201e6707f6631d9499a569f492870ebdd4133cf/contracts/utils/math/SafeMath.sol\":3122:3218  function sub(uint256 a, uint256 b) internal pure returns (uint256) {... */\n      swap3\n      swap2\n      pop\n      pop\n      jump\t// out\n        /* \"https://github.com/OpenZeppelin/openzeppelin-contracts/blob/7201e6707f6631d9499a569f492870ebdd4133cf/contracts/utils/math/SafeMath.sol\":3850:3946  function div(uint256 a, uint256 b) internal pure returns (uint256) {... */\n    tag_20:\n        /* \"https://github.com/OpenZeppelin/openzeppelin-contracts/blob/7201e6707f6631d9499a569f492870ebdd4133cf/contracts/utils/math/SafeMath.sol\":3908:3915  uint256 */\n      0x00\n        /* \"https://github.com/OpenZeppelin/openzeppelin-contracts/blob/7201e6707f6631d9499a569f492870ebdd4133cf/contracts/utils/math/SafeMath.sol\":3938:3939  b */\n      dup2\n        /* \"https://github.com/OpenZeppelin/openzeppelin-contracts/blob/7201e6707f6631d9499a569f492870ebdd4133cf/contracts/utils/math/SafeMath.sol\":3934:3935  a */\n      dup4\n        /* \"https://github.com/OpenZeppelin/openzeppelin-contracts/blob/7201e6707f6631d9499a569f492870ebdd4133cf/contracts/utils/math/SafeMath.sol\":3934:3939  a / b */\n      tag_31\n      swap2\n      swap1\n      tag_32\n      jump\t// in\n    tag_31:\n        /* \"https://github.com/OpenZeppelin/openzeppelin-contracts/blob/7201e6707f6631d9499a569f492870ebdd4133cf/contracts/utils/math/SafeMath.sol\":3927:3939  return a / b */\n      swap1\n      pop\n        /* \"https://github.com/OpenZeppelin/openzeppelin-contracts/blob/7201e6707f6631d9499a569f492870ebdd4133cf/contracts/utils/math/SafeMath.sol\":3850:3946  function div(uint256 a, uint256 b) internal pure returns (uint256) {... */\n      swap3\n      swap2\n      pop\n      pop\n      jump\t// out\n        /* \"#utility.yul\":7:140   */\n    tag_34:\n        /* \"#utility.yul\":50:55   */\n      0x00\n        /* \"#utility.yul\":88:94   */\n      dup2\n        /* \"#utility.yul\":75:95   */\n      calldataload\n        /* \"#utility.yul\":66:95   */\n      swap1\n      pop\n        /* \"#utility.yul\":104:134   */\n      tag_36\n        /* \"#utility.yul\":128:133   */\n      dup2\n        /* \"#utility.yul\":104:134   */\n      tag_37\n      jump\t// in\n    tag_36:\n        /* \"#utility.yul\":7:140   */\n      swap3\n      swap2\n      pop\n      pop\n      jump\t// out\n        /* \"#utility.yul\":146:469   */\n    tag_7:\n        /* \"#utility.yul\":202:208   */\n      0x00\n        /* \"#utility.yul\":251:253   */\n      0x20\n        /* \"#utility.yul\":239:248   */\n      dup3\n        /* \"#utility.yul\":230:237   */\n      dup5\n        /* \"#utility.yul\":226:249   */\n      sub\n        /* \"#utility.yul\":222:254   */\n      slt\n        /* \"#utility.yul\":219:338   */\n      iszero\n      tag_39\n      jumpi\n        /* \"#utility.yul\":257:336   */\n      tag_40\n      tag_41\n      jump\t// in\n    tag_40:\n        /* \"#utility.yul\":219:338   */\n    tag_39:\n        /* \"#utility.yul\":377:378   */\n      0x00\n        /* \"#utility.yul\":402:452   */\n      tag_42\n        /* \"#utility.yul\":444:451   */\n      dup5\n        /* \"#utility.yul\":435:441   */\n      dup3\n        /* \"#utility.yul\":424:433   */\n      dup6\n        /* \"#utility.yul\":420:442   */\n      add\n        /* \"#utility.yul\":402:452   */\n      tag_34\n      jump\t// in\n    tag_42:\n        /* \"#utility.yul\":392:452   */\n      swap2\n      pop\n        /* \"#utility.yul\":348:462   */\n      pop\n        /* \"#utility.yul\":146:469   */\n      swap3\n      swap2\n      pop\n      pop\n      jump\t// out\n        /* \"#utility.yul\":475:584   */\n    tag_43:\n        /* \"#utility.yul\":556:577   */\n      tag_45\n        /* \"#utility.yul\":571:576   */\n      dup2\n        /* \"#utility.yul\":556:577   */\n      tag_46\n      jump\t// in\n    tag_45:\n        /* \"#utility.yul\":551:554   */\n      dup3\n        /* \"#utility.yul\":544:578   */\n      mstore\n        /* \"#utility.yul\":475:584   */\n      pop\n      pop\n      jump\t// out\n        /* \"#utility.yul\":590:708   */\n    tag_47:\n        /* \"#utility.yul\":677:701   */\n      tag_49\n        /* \"#utility.yul\":695:700   */\n      dup2\n        /* \"#utility.yul\":677:701   */\n      tag_50\n      jump\t// in\n    tag_49:\n        /* \"#utility.yul\":672:675   */\n      dup3\n        /* \"#utility.yul\":665:702   */\n      mstore\n        /* \"#utility.yul\":590:708   */\n      pop\n      pop\n      jump\t// out\n        /* \"#utility.yul\":714:924   */\n    tag_10:\n        /* \"#utility.yul\":801:805   */\n      0x00\n        /* \"#utility.yul\":839:841   */\n      0x20\n        /* \"#utility.yul\":828:837   */\n      dup3\n        /* \"#utility.yul\":824:842   */\n      add\n        /* \"#utility.yul\":816:842   */\n      swap1\n      pop\n        /* \"#utility.yul\":852:917   */\n      tag_52\n        /* \"#utility.yul\":914:915   */\n      0x00\n        /* \"#utility.yul\":903:912   */\n      dup4\n        /* \"#utility.yul\":899:916   */\n      add\n        /* \"#utility.yul\":890:896   */\n      dup5\n        /* \"#utility.yul\":852:917   */\n      tag_43\n      jump\t// in\n    tag_52:\n        /* \"#utility.yul\":714:924   */\n      swap3\n      swap2\n      pop\n      pop\n      jump\t// out\n        /* \"#utility.yul\":930:1152   */\n    tag_14:\n        /* \"#utility.yul\":1023:1027   */\n      0x00\n        /* \"#utility.yul\":1061:1063   */\n      0x20\n        /* \"#utility.yul\":1050:1059   */\n      dup3\n        /* \"#utility.yul\":1046:1064   */\n      add\n        /* \"#utility.yul\":1038:1064   */\n      swap1\n      pop\n        /* \"#utility.yul\":1074:1145   */\n      tag_54\n        /* \"#utility.yul\":1142:1143   */\n      0x00\n        /* \"#utility.yul\":1131:1140   */\n      dup4\n        /* \"#utility.yul\":1127:1144   */\n      add\n        /* \"#utility.yul\":1118:1124   */\n      dup5\n        /* \"#utility.yul\":1074:1145   */\n      tag_47\n      jump\t// in\n    tag_54:\n        /* \"#utility.yul\":930:1152   */\n      swap3\n      swap2\n      pop\n      pop\n      jump\t// out\n        /* \"#utility.yul\":1239:1424   */\n    tag_32:\n        /* \"#utility.yul\":1279:1280   */\n      0x00\n        /* \"#utility.yul\":1296:1316   */\n      tag_58\n        /* \"#utility.yul\":1314:1315   */\n      dup3\n        /* \"#utility.yul\":1296:1316   */\n      tag_50\n      jump\t// in\n    tag_58:\n        /* \"#utility.yul\":1291:1316   */\n      swap2\n      pop\n        /* \"#utility.yul\":1330:1350   */\n      tag_59\n        /* \"#utility.yul\":1348:1349   */\n      dup4\n        /* \"#utility.yul\":1330:1350   */\n      tag_50\n      jump\t// in\n    tag_59:\n        /* \"#utility.yul\":1325:1350   */\n      swap3\n      pop\n        /* \"#utility.yul\":1369:1370   */\n      dup3\n        /* \"#utility.yul\":1359:1394   */\n      tag_60\n      jumpi\n        /* \"#utility.yul\":1374:1392   */\n      tag_61\n      tag_62\n      jump\t// in\n    tag_61:\n        /* \"#utility.yul\":1359:1394   */\n    tag_60:\n        /* \"#utility.yul\":1416:1417   */\n      dup3\n        /* \"#utility.yul\":1413:1414   */\n      dup3\n        /* \"#utility.yul\":1409:1418   */\n      div\n        /* \"#utility.yul\":1404:1418   */\n      swap1\n      pop\n        /* \"#utility.yul\":1239:1424   */\n      swap3\n      swap2\n      pop\n      pop\n      jump\t// out\n        /* \"#utility.yul\":1430:1621   */\n    tag_29:\n        /* \"#utility.yul\":1470:1474   */\n      0x00\n        /* \"#utility.yul\":1490:1510   */\n      tag_64\n        /* \"#utility.yul\":1508:1509   */\n      dup3\n        /* \"#utility.yul\":1490:1510   */\n      tag_50\n      jump\t// in\n    tag_64:\n        /* \"#utility.yul\":1485:1510   */\n      swap2\n      pop\n        /* \"#utility.yul\":1524:1544   */\n      tag_65\n        /* \"#utility.yul\":1542:1543   */\n      dup4\n        /* \"#utility.yul\":1524:1544   */\n      tag_50\n      jump\t// in\n    tag_65:\n        /* \"#utility.yul\":1519:1544   */\n      swap3\n      pop\n        /* \"#utility.yul\":1563:1564   */\n      dup3\n        /* \"#utility.yul\":1560:1561   */\n      dup3\n        /* \"#utility.yul\":1557:1565   */\n      lt\n        /* \"#utility.yul\":1554:1588   */\n      iszero\n      tag_66\n      jumpi\n        /* \"#utility.yul\":1568:1586   */\n      tag_67\n      tag_68\n      jump\t// in\n    tag_67:\n        /* \"#utility.yul\":1554:1588   */\n    tag_66:\n        /* \"#utility.yul\":1613:1614   */\n      dup3\n        /* \"#utility.yul\":1610:1611   */\n      dup3\n        /* \"#utility.yul\":1606:1615   */\n      sub\n        /* \"#utility.yul\":1598:1615   */\n      swap1\n      pop\n        /* \"#utility.yul\":1430:1621   */\n      swap3\n      swap2\n      pop\n      pop\n      jump\t// out\n        /* \"#utility.yul\":1627:1717   */\n    tag_46:\n        /* \"#utility.yul\":1661:1668   */\n      0x00\n        /* \"#utility.yul\":1704:1709   */\n      dup2\n        /* \"#utility.yul\":1697:1710   */\n      iszero\n        /* \"#utility.yul\":1690:1711   */\n      iszero\n        /* \"#utility.yul\":1679:1711   */\n      swap1\n      pop\n        /* \"#utility.yul\":1627:1717   */\n      swap2\n      swap1\n      pop\n      jump\t// out\n        /* \"#utility.yul\":1723:1800   */\n    tag_50:\n        /* \"#utility.yul\":1760:1767   */\n      0x00\n        /* \"#utility.yul\":1789:1794   */\n      dup2\n        /* \"#utility.yul\":1778:1794   */\n      swap1\n      pop\n        /* \"#utility.yul\":1723:1800   */\n      swap2\n      swap1\n      pop\n      jump\t// out\n        /* \"#utility.yul\":1806:2039   */\n    tag_25:\n        /* \"#utility.yul\":1845:1848   */\n      0x00\n        /* \"#utility.yul\":1868:1892   */\n      tag_72\n        /* \"#utility.yul\":1886:1891   */\n      dup3\n        /* \"#utility.yul\":1868:1892   */\n      tag_50\n      jump\t// in\n    tag_72:\n        /* \"#utility.yul\":1859:1892   */\n      swap2\n      pop\n        /* \"#utility.yul\":1914:1980   */\n      0xffffffffffffffffffffffffffffffffffffffffffffffffffffffffffffffff\n        /* \"#utility.yul\":1907:1912   */\n      dup3\n        /* \"#utility.yul\":1904:1981   */\n      eq\n        /* \"#utility.yul\":1901:2004   */\n      iszero\n      tag_73\n      jumpi\n        /* \"#utility.yul\":1984:2002   */\n      tag_74\n      tag_68\n      jump\t// in\n    tag_74:\n        /* \"#utility.yul\":1901:2004   */\n    tag_73:\n        /* \"#utility.yul\":2031:2032   */\n      0x01\n        /* \"#utility.yul\":2024:2029   */\n      dup3\n        /* \"#utility.yul\":2020:2033   */\n      add\n        /* \"#utility.yul\":2013:2033   */\n      swap1\n      pop\n        /* \"#utility.yul\":1806:2039   */\n      swap2\n      swap1\n      pop\n      jump\t// out\n        /* \"#utility.yul\":2045:2225   */\n    tag_68:\n        /* \"#utility.yul\":2093:2170   */\n      0x4e487b7100000000000000000000000000000000000000000000000000000000\n        /* \"#utility.yul\":2090:2091   */\n      0x00\n        /* \"#utility.yul\":2083:2171   */\n      mstore\n        /* \"#utility.yul\":2190:2194   */\n      0x11\n        /* \"#utility.yul\":2187:2188   */\n      0x04\n        /* \"#utility.yul\":2180:2195   */\n      mstore\n        /* \"#utility.yul\":2214:2218   */\n      0x24\n        /* \"#utility.yul\":2211:2212   */\n      0x00\n        /* \"#utility.yul\":2204:2219   */\n      revert\n        /* \"#utility.yul\":2231:2411   */\n    tag_62:\n        /* \"#utility.yul\":2279:2356   */\n      0x4e487b7100000000000000000000000000000000000000000000000000000000\n        /* \"#utility.yul\":2276:2277   */\n      0x00\n        /* \"#utility.yul\":2269:2357   */\n      mstore\n        /* \"#utility.yul\":2376:2380   */\n      0x12\n        /* \"#utility.yul\":2373:2374   */\n      0x04\n        /* \"#utility.yul\":2366:2381   */\n      mstore\n        /* \"#utility.yul\":2400:2404   */\n      0x24\n        /* \"#utility.yul\":2397:2398   */\n      0x00\n        /* \"#utility.yul\":2390:2405   */\n      revert\n        /* \"#utility.yul\":2540:2657   */\n    tag_41:\n        /* \"#utility.yul\":2649:2650   */\n      0x00\n        /* \"#utility.yul\":2646:2647   */\n      dup1\n        /* \"#utility.yul\":2639:2651   */\n      revert\n        /* \"#utility.yul\":2663:2779   */\n    tag_37:\n        /* \"#utility.yul\":2733:2754   */\n      tag_81\n        /* \"#utility.yul\":2748:2753   */\n      dup2\n        /* \"#utility.yul\":2733:2754   */\n      tag_46\n      jump\t// in\n    tag_81:\n        /* \"#utility.yul\":2726:2731   */\n      dup2\n        /* \"#utility.yul\":2723:2755   */\n      eq\n        /* \"#utility.yul\":2713:2773   */\n      tag_82\n      jumpi\n        /* \"#utility.yul\":2769:2770   */\n      0x00\n        /* \"#utility.yul\":2766:2767   */\n      dup1\n        /* \"#utility.yul\":2759:2771   */\n      revert\n        /* \"#utility.yul\":2713:2773   */\n    tag_82:\n        /* \"#utility.yul\":2663:2779   */\n      pop\n      jump\t// out\n\n    auxdata: 0xa2646970667358221220f8fa1674d424d2cb0f9c438b82205994b8bad0608bf1d0dbaad2a580f4cc336064736f6c63430008070033\n}\n",
				"bytecode": {
					"linkReferences": {},
					"object": "60806040527f800000000000000000000000000000000000000000000000000000000000000060025534801561003457600080fd5b506000808190555061036a8061004b6000396000f3fe608060405234801561001057600080fd5b50600436106100365760003560e01c80631d263f671461003b578063e6f334d71461006b575b600080fd5b61005560048036038101906100509190610175565b610089565b60405161006291906101c0565b60405180910390f35b61007361012e565b60405161008091906101db565b60405180910390f35b6000806100a060014361013490919063ffffffff16565b4060001c90508060015414156100b557600080fd5b8060018190555060006100d36002548361014a90919063ffffffff16565b90506000600182146100e65760006100e9565b60015b9050841515811515141561011a5760008081548092919061010990610271565b919050555060019350505050610129565b60008081905550600093505050505b919050565b60005481565b600081836101429190610227565b905092915050565b6000818361015891906101f6565b905092915050565b60008135905061016f8161031d565b92915050565b60006020828403121561018b5761018a610318565b5b600061019984828501610160565b91505092915050565b6101ab8161025b565b82525050565b6101ba81610267565b82525050565b60006020820190506101d560008301846101a2565b92915050565b60006020820190506101f060008301846101b1565b92915050565b600061020182610267565b915061020c83610267565b92508261021c5761021b6102e9565b5b828204905092915050565b600061023282610267565b915061023d83610267565b9250828210156102505761024f6102ba565b5b828203905092915050565b60008115159050919050565b6000819050919050565b600061027c82610267565b91507fffffffffffffffffffffffffffffffffffffffffffffffffffffffffffffffff8214156102af576102ae6102ba565b5b600182019050919050565b7f4e487b7100000000000000000000000000000000000000000000000000000000600052601160045260246000fd5b7f4e487b7100000000000000000000000000000000000000000000000000000000600052601260045260246000fd5b600080fd5b6103268161025b565b811461033157600080fd5b5056fea2646970667358221220f8fa1674d424d2cb0f9c438b82205994b8bad0608bf1d0dbaad2a580f4cc336064736f6c63430008070033",
					"opcodes": "PUSH1 0x80 PUSH1 0x40 MSTORE PUSH32 0x8000000000000000000000000000000000000000000000000000000000000000 PUSH1 0x2 SSTORE CALLVALUE DUP1 ISZERO PUSH2 0x34 JUMPI PUSH1 0x0 DUP1 REVERT JUMPDEST POP PUSH1 0x0 DUP1 DUP2 SWAP1 SSTORE POP PUSH2 0x36A DUP1 PUSH2 0x4B PUSH1 0x0 CODECOPY PUSH1 0x0 RETURN INVALID PUSH1 0x80 PUSH1 0x40 MSTORE CALLVALUE DUP1 ISZERO PUSH2 0x10 JUMPI PUSH1 0x0 DUP1 REVERT JUMPDEST POP PUSH1 0x4 CALLDATASIZE LT PUSH2 0x36 JUMPI PUSH1 0x0 CALLDATALOAD PUSH1 0xE0 SHR DUP1 PUSH4 0x1D263F67 EQ PUSH2 0x3B JUMPI DUP1 PUSH4 0xE6F334D7 EQ PUSH2 0x6B JUMPI JUMPDEST PUSH1 0x0 DUP1 REVERT JUMPDEST PUSH2 0x55 PUSH1 0x4 DUP1 CALLDATASIZE SUB DUP2 ADD SWAP1 PUSH2 0x50 SWAP2 SWAP1 PUSH2 0x175 JUMP JUMPDEST PUSH2 0x89 JUMP JUMPDEST PUSH1 0x40 MLOAD PUSH2 0x62 SWAP2 SWAP1 PUSH2 0x1C0 JUMP JUMPDEST PUSH1 0x40 MLOAD DUP1 SWAP2 SUB SWAP1 RETURN JUMPDEST PUSH2 0x73 PUSH2 0x12E JUMP JUMPDEST PUSH1 0x40 MLOAD PUSH2 0x80 SWAP2 SWAP1 PUSH2 0x1DB JUMP JUMPDEST PUSH1 0x40 MLOAD DUP1 SWAP2 SUB SWAP1 RETURN JUMPDEST PUSH1 0x0 DUP1 PUSH2 0xA0 PUSH1 0x1 NUMBER PUSH2 0x134 SWAP1 SWAP2 SWAP1 PUSH4 0xFFFFFFFF AND JUMP JUMPDEST BLOCKHASH PUSH1 0x0 SHR SWAP1 POP DUP1 PUSH1 0x1 SLOAD EQ ISZERO PUSH2 0xB5 JUMPI PUSH1 0x0 DUP1 REVERT JUMPDEST DUP1 PUSH1 0x1 DUP2 SWAP1 SSTORE POP PUSH1 0x0 PUSH2 0xD3 PUSH1 0x2 SLOAD DUP4 PUSH2 0x14A SWAP1 SWAP2 SWAP1 PUSH4 0xFFFFFFFF AND JUMP JUMPDEST SWAP1 POP PUSH1 0x0 PUSH1 0x1 DUP3 EQ PUSH2 0xE6 JUMPI PUSH1 0x0 PUSH2 0xE9 JUMP JUMPDEST PUSH1 0x1 JUMPDEST SWAP1 POP DUP5 ISZERO ISZERO DUP2 ISZERO ISZERO EQ ISZERO PUSH2 0x11A JUMPI PUSH1 0x0 DUP1 DUP2 SLOAD DUP1 SWAP3 SWAP2 SWAP1 PUSH2 0x109 SWAP1 PUSH2 0x271 JUMP JUMPDEST SWAP2 SWAP1 POP SSTORE POP PUSH1 0x1 SWAP4 POP POP POP POP PUSH2 0x129 JUMP JUMPDEST PUSH1 0x0 DUP1 DUP2 SWAP1 SSTORE POP PUSH1 0x0 SWAP4 POP POP POP POP JUMPDEST SWAP2 SWAP1 POP JUMP JUMPDEST PUSH1 0x0 SLOAD DUP2 JUMP JUMPDEST PUSH1 0x0 DUP2 DUP4 PUSH2 0x142 SWAP2 SWAP1 PUSH2 0x227 JUMP JUMPDEST SWAP1 POP SWAP3 SWAP2 POP POP JUMP JUMPDEST PUSH1 0x0 DUP2 DUP4 PUSH2 0x158 SWAP2 SWAP1 PUSH2 0x1F6 JUMP JUMPDEST SWAP1 POP SWAP3 SWAP2 POP POP JUMP JUMPDEST PUSH1 0x0 DUP2 CALLDATALOAD SWAP1 POP PUSH2 0x16F DUP2 PUSH2 0x31D JUMP JUMPDEST SWAP3 SWAP2 POP POP JUMP JUMPDEST PUSH1 0x0 PUSH1 0x20 DUP3 DUP5 SUB SLT ISZERO PUSH2 0x18B JUMPI PUSH2 0x18A PUSH2 0x318 JUMP JUMPDEST JUMPDEST PUSH1 0x0 PUSH2 0x199 DUP5 DUP3 DUP6 ADD PUSH2 0x160 JUMP JUMPDEST SWAP2 POP POP SWAP3 SWAP2 POP POP JUMP JUMPDEST PUSH2 0x1AB DUP2 PUSH2 0x25B JUMP JUMPDEST DUP3 MSTORE POP POP JUMP JUMPDEST PUSH2 0x1BA DUP2 PUSH2 0x267 JUMP JUMPDEST DUP3 MSTORE POP POP JUMP JUMPDEST PUSH1 0x0 PUSH1 0x20 DUP3 ADD SWAP1 POP PUSH2 0x1D5 PUSH1 0x0 DUP4 ADD DUP5 PUSH2 0x1A2 JUMP JUMPDEST SWAP3 SWAP2 POP POP JUMP JUMPDEST PUSH1 0x0 PUSH1 0x20 DUP3 ADD SWAP1 POP PUSH2 0x1F0 PUSH1 0x0 DUP4 ADD DUP5 PUSH2 0x1B1 JUMP JUMPDEST SWAP3 SWAP2 POP POP JUMP JUMPDEST PUSH1 0x0 PUSH2 0x201 DUP3 PUSH2 0x267 JUMP JUMPDEST SWAP2 POP PUSH2 0x20C DUP4 PUSH2 0x267 JUMP JUMPDEST SWAP3 POP DUP3 PUSH2 0x21C JUMPI PUSH2 0x21B PUSH2 0x2E9 JUMP JUMPDEST JUMPDEST DUP3 DUP3 DIV SWAP1 POP SWAP3 SWAP2 POP POP JUMP JUMPDEST PUSH1 0x0 PUSH2 0x232 DUP3 PUSH2 0x267 JUMP JUMPDEST SWAP2 POP PUSH2 0x23D DUP4 PUSH2 0x267 JUMP JUMPDEST SWAP3 POP DUP3 DUP3 LT ISZERO PUSH2 0x250 JUMPI PUSH2 0x24F PUSH2 0x2BA JUMP JUMPDEST JUMPDEST DUP3 DUP3 SUB SWAP1 POP SWAP3 SWAP2 POP POP JUMP JUMPDEST PUSH1 0x0 DUP2 ISZERO ISZERO SWAP1 POP SWAP2 SWAP1 POP JUMP JUMPDEST PUSH1 0x0 DUP2 SWAP1 POP SWAP2 SWAP1 POP JUMP JUMPDEST PUSH1 0x0 PUSH2 0x27C DUP3 PUSH2 0x267 JUMP JUMPDEST SWAP2 POP PUSH32 0xFFFFFFFFFFFFFFFFFFFFFFFFFFFFFFFFFFFFFFFFFFFFFFFFFFFFFFFFFFFFFFFF DUP3 EQ ISZERO PUSH2 0x2AF JUMPI PUSH2 0x2AE PUSH2 0x2BA JUMP JUMPDEST JUMPDEST PUSH1 0x1 DUP3 ADD SWAP1 POP SWAP2 SWAP1 POP JUMP JUMPDEST PUSH32 0x4E487B7100000000000000000000000000000000000000000000000000000000 PUSH1 0x0 MSTORE PUSH1 0x11 PUSH1 0x4 MSTORE PUSH1 0x24 PUSH1 0x0 REVERT JUMPDEST PUSH32 0x4E487B7100000000000000000000000000000000000000000000000000000000 PUSH1 0x0 MSTORE PUSH1 0x12 PUSH1 0x4 MSTORE PUSH1 0x24 PUSH1 0x0 REVERT JUMPDEST PUSH1 0x0 DUP1 REVERT JUMPDEST PUSH2 0x326 DUP2 PUSH2 0x25B JUMP JUMPDEST DUP2 EQ PUSH2 0x331 JUMPI PUSH1 0x0 DUP1 REVERT JUMPDEST POP JUMP INVALID LOG2 PUSH5 0x6970667358 0x22 SLT KECCAK256 0xF8 STATICCALL AND PUSH21 0xD424D2CB0F9C438B82205994B8BAD0608BF1D0DBAA 0xD2 0xA5 DUP1 DELEGATECALL 0xCC CALLER PUSH1 0x64 PUSH20 0x6F6C634300080700330000000000000000000000 "
				},
				"gasEstimates": {
					"creation": {
						"codeDepositCost": "174800",
						"executionCost": "27340",
						"totalCost": "202140"
					},
					"external": {
						"consecutiveWins()": "2429",
						"flip(bool)": "infinite"
					}
				},
				"methodIdentifiers": {
					"consecutiveWins()": "e6f334d7",
					"flip(bool)": "1d263f67"
				}
			},
			"storageLayout": {
				"storage": [
					{
						"astId": 7,
						"contract": "contracts/CoinFlip.sol:CoinFlip",
						"label": "consecutiveWins",
						"offset": 0,
						"slot": "0",
						"type": "t_uint256"
					},
					{
						"astId": 9,
						"contract": "contracts/CoinFlip.sol:CoinFlip",
						"label": "lastHash",
						"offset": 0,
						"slot": "1",
						"type": "t_uint256"
					},
					{
						"astId": 12,
						"contract": "contracts/CoinFlip.sol:CoinFlip",
						"label": "FACTOR",
						"offset": 0,
						"slot": "2",
						"type": "t_uint256"
					}
				],
				"types": {
					"t_uint256": {
						"encoding": "inplace",
						"label": "uint256",
						"numberOfBytes": "32"
					}
				}
			},
			"userdoc": {
				"kind": "user",
				"methods": {},
				"version": 1
			}
		}
	}
}