{
	"contracts/FundMe.sol": {
		"fundMe": {
			"abi": [
				{
					"inputs": [],
					"stateMutability": "nonpayable",
					"type": "constructor"
				},
				{
					"inputs": [],
					"name": "NotOwer",
					"type": "error"
				},
				{
					"inputs": [],
					"name": "MINIUM_USD",
					"outputs": [
						{
							"internalType": "uint256",
							"name": "",
							"type": "uint256"
						}
					],
					"stateMutability": "view",
					"type": "function"
				},
				{
					"inputs": [
						{
							"internalType": "address",
							"name": "",
							"type": "address"
						}
					],
					"name": "addressToAmountFunded",
					"outputs": [
						{
							"internalType": "uint256",
							"name": "",
							"type": "uint256"
						}
					],
					"stateMutability": "view",
					"type": "function"
				},
				{
					"inputs": [],
					"name": "fund",
					"outputs": [],
					"stateMutability": "payable",
					"type": "function"
				},
				{
					"inputs": [
						{
							"internalType": "uint256",
							"name": "",
							"type": "uint256"
						}
					],
					"name": "funders",
					"outputs": [
						{
							"internalType": "address",
							"name": "",
							"type": "address"
						}
					],
					"stateMutability": "view",
					"type": "function"
				},
				{
					"inputs": [],
					"name": "i_owner",
					"outputs": [
						{
							"internalType": "address",
							"name": "",
							"type": "address"
						}
					],
					"stateMutability": "view",
					"type": "function"
				},
				{
					"inputs": [],
					"name": "withdraw",
					"outputs": [],
					"stateMutability": "nonpayable",
					"type": "function"
				},
				{
					"stateMutability": "payable",
					"type": "receive"
				}
			],
			"devdoc": {
				"kind": "dev",
				"methods": {},
				"version": 1
			},
			"evm": {
				"assembly": "    /* \"contracts/FundMe.sol\":1382:4477  contract fundMe {... */\n  mstore(0x40, 0xa0)\n    /* \"contracts/FundMe.sol\":1861:1911  constructor(){... */\n  callvalue\n  dup1\n  iszero\n  tag_1\n  jumpi\n  0x00\n  dup1\n  revert\ntag_1:\n  pop\n    /* \"contracts/FundMe.sol\":1894:1904  msg.sender */\n  caller\n    /* \"contracts/FundMe.sol\":1884:1904  i_owner = msg.sender */\n  0xffffffffffffffffffffffffffffffffffffffff\n  and\n  0x80\n  dup2\n  0xffffffffffffffffffffffffffffffffffffffff\n  and\n  0x60\n  shl\n  dup2\n  mstore\n  pop\n  pop\n    /* \"contracts/FundMe.sol\":1382:4477  contract fundMe {... */\n  shr(0x60, mload(0x80))\n  codecopy(0x00, dataOffset(sub_0), dataSize(sub_0))\n  0x00\n  assignImmutable(\"0xeafa31dc210956fc0884ec5660eba9405197797219cbbda41b6aaf7118c651d8\")\n  return(0x00, dataSize(sub_0))\nstop\n\nsub_0: assembly {\n        /* \"contracts/FundMe.sol\":1382:4477  contract fundMe {... */\n      mstore(0x40, 0x80)\n      jumpi(tag_1, lt(calldatasize, 0x04))\n      shr(0xe0, calldataload(0x00))\n      dup1\n      0x3ccfd60b\n      eq\n      tag_3\n      jumpi\n      dup1\n      0x3e47d6f3\n      eq\n      tag_4\n      jumpi\n      dup1\n      0x9b366b76\n      eq\n      tag_5\n      jumpi\n      dup1\n      0xb60d4288\n      eq\n      tag_6\n      jumpi\n      dup1\n      0xdba6335f\n      eq\n      tag_7\n      jumpi\n      dup1\n      0xdc0d3dff\n      eq\n      tag_8\n      jumpi\n      jump(tag_2)\n    tag_1:\n      jumpi(tag_2, calldatasize)\n        /* \"contracts/FundMe.sol\":4449:4455  fund() */\n      tag_11\n        /* \"contracts/FundMe.sol\":4449:4453  fund */\n      tag_12\n        /* \"contracts/FundMe.sol\":4449:4455  fund() */\n      jump\t// in\n    tag_11:\n        /* \"contracts/FundMe.sol\":1382:4477  contract fundMe {... */\n      stop\n    tag_2:\n      0x00\n      dup1\n      revert\n        /* \"contracts/FundMe.sol\":2625:4012  function withdraw() public onlyOwner{... */\n    tag_3:\n      callvalue\n      dup1\n      iszero\n      tag_13\n      jumpi\n      0x00\n      dup1\n      revert\n    tag_13:\n      pop\n      tag_14\n      tag_15\n      jump\t// in\n    tag_14:\n      stop\n        /* \"contracts/FundMe.sol\":1678:1734  mapping(address => uint256) public addressToAmountFunded */\n    tag_4:\n      callvalue\n      dup1\n      iszero\n      tag_16\n      jumpi\n      0x00\n      dup1\n      revert\n    tag_16:\n      pop\n      tag_17\n      0x04\n      dup1\n      calldatasize\n      sub\n      dup2\n      add\n      swap1\n      tag_18\n      swap2\n      swap1\n      tag_19\n      jump\t// in\n    tag_18:\n      tag_20\n      jump\t// in\n    tag_17:\n      mload(0x40)\n      tag_21\n      swap2\n      swap1\n      tag_22\n      jump\t// in\n    tag_21:\n      mload(0x40)\n      dup1\n      swap2\n      sub\n      swap1\n      return\n        /* \"contracts/FundMe.sol\":1443:1489  uint256 public constant MINIUM_USD = 50 * 1e18 */\n    tag_5:\n      callvalue\n      dup1\n      iszero\n      tag_23\n      jumpi\n      0x00\n      dup1\n      revert\n    tag_23:\n      pop\n      tag_24\n      tag_25\n      jump\t// in\n    tag_24:\n      mload(0x40)\n      tag_26\n      swap2\n      swap1\n      tag_22\n      jump\t// in\n    tag_26:\n      mload(0x40)\n      dup1\n      swap2\n      sub\n      swap1\n      return\n        /* \"contracts/FundMe.sol\":1977:2615  function fund() public payable {... */\n    tag_6:\n      tag_27\n      tag_12\n      jump\t// in\n    tag_27:\n      stop\n        /* \"contracts/FundMe.sol\":1822:1854  address public immutable i_owner */\n    tag_7:\n      callvalue\n      dup1\n      iszero\n      tag_28\n      jumpi\n      0x00\n      dup1\n      revert\n    tag_28:\n      pop\n      tag_29\n      tag_30\n      jump\t// in\n    tag_29:\n      mload(0x40)\n      tag_31\n      swap2\n      swap1\n      tag_32\n      jump\t// in\n    tag_31:\n      mload(0x40)\n      dup1\n      swap2\n      sub\n      swap1\n      return\n        /* \"contracts/FundMe.sol\":1600:1624  address[] public funders */\n    tag_8:\n      callvalue\n      dup1\n      iszero\n      tag_33\n      jumpi\n      0x00\n      dup1\n      revert\n    tag_33:\n      pop\n      tag_34\n      0x04\n      dup1\n      calldatasize\n      sub\n      dup2\n      add\n      swap1\n      tag_35\n      swap2\n      swap1\n      tag_36\n      jump\t// in\n    tag_35:\n      tag_37\n      jump\t// in\n    tag_34:\n      mload(0x40)\n      tag_38\n      swap2\n      swap1\n      tag_32\n      jump\t// in\n    tag_38:\n      mload(0x40)\n      dup1\n      swap2\n      sub\n      swap1\n      return\n        /* \"contracts/FundMe.sol\":1977:2615  function fund() public payable {... */\n    tag_12:\n        /* \"contracts/FundMe.sol\":1480:1489  50 * 1e18 */\n      0x02b5e3af16b1880000\n        /* \"contracts/FundMe.sol\":2466:2497  msg.value.getConversationRate() */\n      tag_40\n        /* \"contracts/FundMe.sol\":2466:2475  msg.value */\n      callvalue\n        /* \"contracts/FundMe.sol\":2466:2495  msg.value.getConversationRate */\n      tag_41\n        /* \"contracts/FundMe.sol\":2466:2497  msg.value.getConversationRate() */\n      jump\t// in\n    tag_40:\n        /* \"contracts/FundMe.sol\":2466:2511  msg.value.getConversationRate() >= MINIUM_USD */\n      lt\n      iszero\n        /* \"contracts/FundMe.sol\":2458:2526  require(msg.value.getConversationRate() >= MINIUM_USD, \"Not enough\") */\n      tag_42\n      jumpi\n      mload(0x40)\n      0x08c379a000000000000000000000000000000000000000000000000000000000\n      dup2\n      mstore\n      0x04\n      add\n      tag_43\n      swap1\n      tag_44\n      jump\t// in\n    tag_43:\n      mload(0x40)\n      dup1\n      swap2\n      sub\n      swap1\n      revert\n    tag_42:\n        /* \"contracts/FundMe.sol\":2532:2539  funders */\n      0x00\n        /* \"contracts/FundMe.sol\":2545:2555  msg.sender */\n      caller\n        /* \"contracts/FundMe.sol\":2532:2556  funders.push(msg.sender) */\n      swap1\n      dup1\n      0x01\n      dup2\n      sload\n      add\n      dup1\n      dup3\n      sstore\n      dup1\n      swap2\n      pop\n      pop\n      0x01\n      swap1\n      sub\n      swap1\n      0x00\n      mstore\n      keccak256(0x00, 0x20)\n      add\n      0x00\n      swap1\n      swap2\n      swap1\n      swap2\n      swap1\n      swap2\n      0x0100\n      exp\n      dup2\n      sload\n      dup2\n      0xffffffffffffffffffffffffffffffffffffffff\n      mul\n      not\n      and\n      swap1\n      dup4\n      0xffffffffffffffffffffffffffffffffffffffff\n      and\n      mul\n      or\n      swap1\n      sstore\n      pop\n        /* \"contracts/FundMe.sol\":2599:2608  msg.value */\n      callvalue\n        /* \"contracts/FundMe.sol\":2563:2584  addressToAmountFunded */\n      0x01\n        /* \"contracts/FundMe.sol\":2563:2596  addressToAmountFunded[msg.sender] */\n      0x00\n        /* \"contracts/FundMe.sol\":2585:2595  msg.sender */\n      caller\n        /* \"contracts/FundMe.sol\":2563:2596  addressToAmountFunded[msg.sender] */\n      0xffffffffffffffffffffffffffffffffffffffff\n      and\n      0xffffffffffffffffffffffffffffffffffffffff\n      and\n      dup2\n      mstore\n      0x20\n      add\n      swap1\n      dup2\n      mstore\n      0x20\n      add\n      0x00\n      keccak256\n        /* \"contracts/FundMe.sol\":2563:2608  addressToAmountFunded[msg.sender] = msg.value */\n      dup2\n      swap1\n      sstore\n      pop\n        /* \"contracts/FundMe.sol\":1977:2615  function fund() public payable {... */\n      jump\t// out\n        /* \"contracts/FundMe.sol\":2625:4012  function withdraw() public onlyOwner{... */\n    tag_15:\n        /* \"contracts/FundMe.sol\":4360:4367  i_owner */\n      immutable(\"0xeafa31dc210956fc0884ec5660eba9405197797219cbbda41b6aaf7118c651d8\")\n        /* \"contracts/FundMe.sol\":4346:4367  msg.sender != i_owner */\n      0xffffffffffffffffffffffffffffffffffffffff\n      and\n        /* \"contracts/FundMe.sol\":4346:4356  msg.sender */\n      caller\n        /* \"contracts/FundMe.sol\":4346:4367  msg.sender != i_owner */\n      0xffffffffffffffffffffffffffffffffffffffff\n      and\n      eq\n        /* \"contracts/FundMe.sol\":4343:4389  if(msg.sender != i_owner) { revert NotOwer();} */\n      tag_47\n      jumpi\n        /* \"contracts/FundMe.sol\":4378:4387  NotOwer() */\n      mload(0x40)\n      0xed9ef86500000000000000000000000000000000000000000000000000000000\n      dup2\n      mstore\n      0x04\n      add\n      mload(0x40)\n      dup1\n      swap2\n      sub\n      swap1\n      revert\n        /* \"contracts/FundMe.sol\":4343:4389  if(msg.sender != i_owner) { revert NotOwer();} */\n    tag_47:\n        /* \"contracts/FundMe.sol\":2675:2694  uint256 funderIndex */\n      0x00\n        /* \"contracts/FundMe.sol\":2671:2938  for(uint256 funderIndex = 0; funderIndex < funders.length; funderIndex ++) {... */\n    tag_49:\n        /* \"contracts/FundMe.sol\":2714:2721  funders */\n      0x00\n        /* \"contracts/FundMe.sol\":2714:2728  funders.length */\n      dup1\n      sload\n      swap1\n      pop\n        /* \"contracts/FundMe.sol\":2700:2711  funderIndex */\n      dup2\n        /* \"contracts/FundMe.sol\":2700:2728  funderIndex < funders.length */\n      lt\n        /* \"contracts/FundMe.sol\":2671:2938  for(uint256 funderIndex = 0; funderIndex < funders.length; funderIndex ++) {... */\n      iszero\n      tag_50\n      jumpi\n        /* \"contracts/FundMe.sol\":2818:2832  address funder */\n      0x00\n        /* \"contracts/FundMe.sol\":2835:2842  funders */\n      dup1\n        /* \"contracts/FundMe.sol\":2843:2854  funderIndex */\n      dup3\n        /* \"contracts/FundMe.sol\":2835:2855  funders[funderIndex] */\n      dup2\n      sload\n      dup2\n      lt\n      tag_52\n      jumpi\n      tag_53\n      tag_54\n      jump\t// in\n    tag_53:\n    tag_52:\n      swap1\n      0x00\n      mstore\n      keccak256(0x00, 0x20)\n      add\n      0x00\n      swap1\n      sload\n      swap1\n      0x0100\n      exp\n      swap1\n      div\n      0xffffffffffffffffffffffffffffffffffffffff\n      and\n        /* \"contracts/FundMe.sol\":2818:2855  address funder = funders[funderIndex] */\n      swap1\n      pop\n        /* \"contracts/FundMe.sol\":2926:2927  0 */\n      0x00\n        /* \"contracts/FundMe.sol\":2894:2915  addressToAmountFunded */\n      0x01\n        /* \"contracts/FundMe.sol\":2894:2923  addressToAmountFunded[funder] */\n      0x00\n        /* \"contracts/FundMe.sol\":2916:2922  funder */\n      dup4\n        /* \"contracts/FundMe.sol\":2894:2923  addressToAmountFunded[funder] */\n      0xffffffffffffffffffffffffffffffffffffffff\n      and\n      0xffffffffffffffffffffffffffffffffffffffff\n      and\n      dup2\n      mstore\n      0x20\n      add\n      swap1\n      dup2\n      mstore\n      0x20\n      add\n      0x00\n      keccak256\n        /* \"contracts/FundMe.sol\":2894:2927  addressToAmountFunded[funder] = 0 */\n      dup2\n      swap1\n      sstore\n      pop\n        /* \"contracts/FundMe.sol\":2746:2938  {... */\n      pop\n        /* \"contracts/FundMe.sol\":2730:2744  funderIndex ++ */\n      dup1\n      dup1\n      tag_56\n      swap1\n      tag_57\n      jump\t// in\n    tag_56:\n      swap2\n      pop\n      pop\n        /* \"contracts/FundMe.sol\":2671:2938  for(uint256 funderIndex = 0; funderIndex < funders.length; funderIndex ++) {... */\n      jump(tag_49)\n    tag_50:\n      pop\n        /* \"contracts/FundMe.sol\":2999:3000  0 */\n      0x00\n        /* \"contracts/FundMe.sol\":2985:3001  new address[](0) */\n      0xffffffffffffffff\n      dup2\n      gt\n      iszero\n      tag_58\n      jumpi\n      tag_59\n      tag_60\n      jump\t// in\n    tag_59:\n    tag_58:\n      mload(0x40)\n      swap1\n      dup1\n      dup3\n      mstore\n      dup1\n      0x20\n      mul\n      0x20\n      add\n      dup3\n      add\n      0x40\n      mstore\n      dup1\n      iszero\n      tag_61\n      jumpi\n      dup2\n      0x20\n      add\n      0x20\n      dup3\n      mul\n      dup1\n      calldatasize\n      dup4\n      calldatacopy\n      dup1\n      dup3\n      add\n      swap2\n      pop\n      pop\n      swap1\n      pop\n    tag_61:\n      pop\n        /* \"contracts/FundMe.sol\":2975:2982  funders */\n      0x00\n        /* \"contracts/FundMe.sol\":2975:3001  funders = new address[](0) */\n      swap1\n      dup1\n      mload\n      swap1\n      0x20\n      add\n      swap1\n      tag_62\n      swap3\n      swap2\n      swap1\n      tag_63\n      jump\t// in\n    tag_62:\n      pop\n        /* \"contracts/FundMe.sol\":3882:3897  bool callSucess */\n      0x00\n        /* \"contracts/FundMe.sol\":3911:3921  msg.sender */\n      caller\n        /* \"contracts/FundMe.sol\":3903:3927  payable(msg.sender).call */\n      0xffffffffffffffffffffffffffffffffffffffff\n      and\n        /* \"contracts/FundMe.sol\":3935:3956  address(this).balance */\n      selfbalance\n        /* \"contracts/FundMe.sol\":3903:3961  payable(msg.sender).call{value: address(this).balance}(\"\") */\n      mload(0x40)\n      tag_64\n      swap1\n      tag_65\n      jump\t// in\n    tag_64:\n      0x00\n      mload(0x40)\n      dup1\n      dup4\n      sub\n      dup2\n      dup6\n      dup8\n      gas\n      call\n      swap3\n      pop\n      pop\n      pop\n      returndatasize\n      dup1\n      0x00\n      dup2\n      eq\n      tag_68\n      jumpi\n      mload(0x40)\n      swap2\n      pop\n      and(add(returndatasize, 0x3f), not(0x1f))\n      dup3\n      add\n      0x40\n      mstore\n      returndatasize\n      dup3\n      mstore\n      returndatasize\n      0x00\n      0x20\n      dup5\n      add\n      returndatacopy\n      jump(tag_67)\n    tag_68:\n      0x60\n      swap2\n      pop\n    tag_67:\n      pop\n        /* \"contracts/FundMe.sol\":3881:3961  (bool callSucess, ) = payable(msg.sender).call{value: address(this).balance}(\"\") */\n      pop\n      swap1\n      pop\n        /* \"contracts/FundMe.sol\":3979:3989  callSucess */\n      dup1\n        /* \"contracts/FundMe.sol\":3971:4005  require(callSucess, \"call failed\") */\n      tag_69\n      jumpi\n      mload(0x40)\n      0x08c379a000000000000000000000000000000000000000000000000000000000\n      dup2\n      mstore\n      0x04\n      add\n      tag_70\n      swap1\n      tag_71\n      jump\t// in\n    tag_70:\n      mload(0x40)\n      dup1\n      swap2\n      sub\n      swap1\n      revert\n    tag_69:\n        /* \"contracts/FundMe.sol\":2661:4012  {... */\n      pop\n        /* \"contracts/FundMe.sol\":2625:4012  function withdraw() public onlyOwner{... */\n      jump\t// out\n        /* \"contracts/FundMe.sol\":1678:1734  mapping(address => uint256) public addressToAmountFunded */\n    tag_20:\n      mstore(0x20, 0x01)\n      dup1\n      0x00\n      mstore\n      keccak256(0x00, 0x40)\n      0x00\n      swap2\n      pop\n      swap1\n      pop\n      sload\n      dup2\n      jump\t// out\n        /* \"contracts/FundMe.sol\":1443:1489  uint256 public constant MINIUM_USD = 50 * 1e18 */\n    tag_25:\n        /* \"contracts/FundMe.sol\":1480:1489  50 * 1e18 */\n      0x02b5e3af16b1880000\n        /* \"contracts/FundMe.sol\":1443:1489  uint256 public constant MINIUM_USD = 50 * 1e18 */\n      dup2\n      jump\t// out\n        /* \"contracts/FundMe.sol\":1822:1854  address public immutable i_owner */\n    tag_30:\n      immutable(\"0xeafa31dc210956fc0884ec5660eba9405197797219cbbda41b6aaf7118c651d8\")\n      dup2\n      jump\t// out\n        /* \"contracts/FundMe.sol\":1600:1624  address[] public funders */\n    tag_37:\n      0x00\n      dup2\n      dup2\n      sload\n      dup2\n      lt\n      tag_72\n      jumpi\n      0x00\n      dup1\n      revert\n    tag_72:\n      swap1\n      0x00\n      mstore\n      keccak256(0x00, 0x20)\n      add\n      0x00\n      swap2\n      pop\n      sload\n      swap1\n      0x0100\n      exp\n      swap1\n      div\n      0xffffffffffffffffffffffffffffffffffffffff\n      and\n      dup2\n      jump\t// out\n        /* \"contracts/PriceConverter.sol\":1001:1221  function getConversationRate(uint256 ethAmount) internal view returns(uint256) {... */\n    tag_41:\n        /* \"contracts/PriceConverter.sol\":1071:1078  uint256 */\n      0x00\n        /* \"contracts/PriceConverter.sol\":1090:1106  uint256 ethPrice */\n      dup1\n        /* \"contracts/PriceConverter.sol\":1109:1119  getPrice() */\n      tag_75\n        /* \"contracts/PriceConverter.sol\":1109:1117  getPrice */\n      tag_76\n        /* \"contracts/PriceConverter.sol\":1109:1119  getPrice() */\n      jump\t// in\n    tag_75:\n        /* \"contracts/PriceConverter.sol\":1090:1119  uint256 ethPrice = getPrice() */\n      swap1\n      pop\n        /* \"contracts/PriceConverter.sol\":1129:1151  uint256 ethAmountInUsd */\n      0x00\n        /* \"contracts/PriceConverter.sol\":1179:1183  1e18 */\n      0x0de0b6b3a7640000\n        /* \"contracts/PriceConverter.sol\":1166:1175  ethAmount */\n      dup5\n        /* \"contracts/PriceConverter.sol\":1155:1163  ethPrice */\n      dup4\n        /* \"contracts/PriceConverter.sol\":1155:1175  ethPrice * ethAmount */\n      tag_77\n      swap2\n      swap1\n      tag_78\n      jump\t// in\n    tag_77:\n        /* \"contracts/PriceConverter.sol\":1154:1183  (ethPrice * ethAmount) / 1e18 */\n      tag_79\n      swap2\n      swap1\n      tag_80\n      jump\t// in\n    tag_79:\n        /* \"contracts/PriceConverter.sol\":1129:1183  uint256 ethAmountInUsd = (ethPrice * ethAmount) / 1e18 */\n      swap1\n      pop\n        /* \"contracts/PriceConverter.sol\":1200:1214  ethAmountInUsd */\n      dup1\n        /* \"contracts/PriceConverter.sol\":1193:1214  return ethAmountInUsd */\n      swap3\n      pop\n      pop\n      pop\n        /* \"contracts/PriceConverter.sol\":1001:1221  function getConversationRate(uint256 ethAmount) internal view returns(uint256) {... */\n      swap2\n      swap1\n      pop\n      jump\t// out\n        /* \"contracts/PriceConverter.sol\":208:783  function getPrice() internal view returns(uint256){... */\n    tag_76:\n        /* \"contracts/PriceConverter.sol\":250:257  uint256 */\n      0x00\n        /* \"contracts/PriceConverter.sol\":395:426  AggregatorV3Interface priceFeed */\n      dup1\n        /* \"contracts/PriceConverter.sol\":451:493  0xD4a33860578De61DBAbDc8BFdb98FD742fA7028e */\n      0xd4a33860578de61dbabdc8bfdb98fd742fa7028e\n        /* \"contracts/PriceConverter.sol\":395:494  AggregatorV3Interface priceFeed = AggregatorV3Interface(0xD4a33860578De61DBAbDc8BFdb98FD742fA7028e) */\n      swap1\n      pop\n        /* \"contracts/PriceConverter.sol\":547:559  int256 price */\n      0x00\n        /* \"contracts/PriceConverter.sol\":566:575  priceFeed */\n      dup2\n        /* \"contracts/PriceConverter.sol\":566:591  priceFeed.latestRoundData */\n      0xffffffffffffffffffffffffffffffffffffffff\n      and\n      0xfeaf968c\n        /* \"contracts/PriceConverter.sol\":566:593  priceFeed.latestRoundData() */\n      mload(0x40)\n      dup2\n      0xffffffff\n      and\n      0xe0\n      shl\n      dup2\n      mstore\n      0x04\n      add\n      0xa0\n      mload(0x40)\n      dup1\n      dup4\n      sub\n      dup2\n      dup7\n      dup1\n      extcodesize\n      iszero\n      dup1\n      iszero\n      tag_82\n      jumpi\n      0x00\n      dup1\n      revert\n    tag_82:\n      pop\n      gas\n      staticcall\n      iszero\n      dup1\n      iszero\n      tag_84\n      jumpi\n      returndatasize\n      0x00\n      dup1\n      returndatacopy\n      revert(0x00, returndatasize)\n    tag_84:\n      pop\n      pop\n      pop\n      pop\n      mload(0x40)\n      returndatasize\n      not(0x1f)\n      0x1f\n      dup3\n      add\n      and\n      dup3\n      add\n      dup1\n      0x40\n      mstore\n      pop\n      dup2\n      add\n      swap1\n      tag_85\n      swap2\n      swap1\n      tag_86\n      jump\t// in\n    tag_85:\n        /* \"contracts/PriceConverter.sol\":544:593  (, int256 price,,,) = priceFeed.latestRoundData() */\n      pop\n      pop\n      pop\n      swap2\n      pop\n      pop\n        /* \"contracts/PriceConverter.sol\":680:684  1e10 */\n      0x02540be400\n        /* \"contracts/PriceConverter.sol\":672:677  price */\n      dup2\n        /* \"contracts/PriceConverter.sol\":672:684  price * 1e10 */\n      tag_87\n      swap2\n      swap1\n      tag_88\n      jump\t// in\n    tag_87:\n        /* \"contracts/PriceConverter.sol\":657:685  return uint256(price * 1e10) */\n      swap3\n      pop\n      pop\n      pop\n        /* \"contracts/PriceConverter.sol\":208:783  function getPrice() internal view returns(uint256){... */\n      swap1\n      jump\t// out\n    tag_63:\n      dup3\n      dup1\n      sload\n      dup3\n      dup3\n      sstore\n      swap1\n      0x00\n      mstore\n      keccak256(0x00, 0x20)\n      swap1\n      dup2\n      add\n      swap3\n      dup3\n      iszero\n      tag_89\n      jumpi\n      swap2\n      0x20\n      mul\n      dup3\n      add\n    tag_90:\n      dup3\n      dup2\n      gt\n      iszero\n      tag_91\n      jumpi\n      dup3\n      mload\n      dup3\n      exp(0x0100, 0x00)\n      dup2\n      sload\n      dup2\n      0xffffffffffffffffffffffffffffffffffffffff\n      mul\n      not\n      and\n      swap1\n      dup4\n      0xffffffffffffffffffffffffffffffffffffffff\n      and\n      mul\n      or\n      swap1\n      sstore\n      pop\n      swap2\n      0x20\n      add\n      swap2\n      swap1\n      0x01\n      add\n      swap1\n      jump(tag_90)\n    tag_91:\n    tag_89:\n      pop\n      swap1\n      pop\n      tag_92\n      swap2\n      swap1\n      tag_93\n      jump\t// in\n    tag_92:\n      pop\n      swap1\n      jump\t// out\n    tag_93:\n    tag_94:\n      dup1\n      dup3\n      gt\n      iszero\n      tag_95\n      jumpi\n      0x00\n      dup2\n      0x00\n      swap1\n      sstore\n      pop\n      0x01\n      add\n      jump(tag_94)\n    tag_95:\n      pop\n      swap1\n      jump\t// out\n        /* \"#utility.yul\":7:146   */\n    tag_97:\n        /* \"#utility.yul\":53:58   */\n      0x00\n        /* \"#utility.yul\":91:97   */\n      dup2\n        /* \"#utility.yul\":78:98   */\n      calldataload\n        /* \"#utility.yul\":69:98   */\n      swap1\n      pop\n        /* \"#utility.yul\":107:140   */\n      tag_99\n        /* \"#utility.yul\":134:139   */\n      dup2\n        /* \"#utility.yul\":107:140   */\n      tag_100\n      jump\t// in\n    tag_99:\n        /* \"#utility.yul\":7:146   */\n      swap3\n      swap2\n      pop\n      pop\n      jump\t// out\n        /* \"#utility.yul\":152:293   */\n    tag_101:\n        /* \"#utility.yul\":208:213   */\n      0x00\n        /* \"#utility.yul\":239:245   */\n      dup2\n        /* \"#utility.yul\":233:246   */\n      mload\n        /* \"#utility.yul\":224:246   */\n      swap1\n      pop\n        /* \"#utility.yul\":255:287   */\n      tag_103\n        /* \"#utility.yul\":281:286   */\n      dup2\n        /* \"#utility.yul\":255:287   */\n      tag_104\n      jump\t// in\n    tag_103:\n        /* \"#utility.yul\":152:293   */\n      swap3\n      swap2\n      pop\n      pop\n      jump\t// out\n        /* \"#utility.yul\":299:438   */\n    tag_105:\n        /* \"#utility.yul\":345:350   */\n      0x00\n        /* \"#utility.yul\":383:389   */\n      dup2\n        /* \"#utility.yul\":370:390   */\n      calldataload\n        /* \"#utility.yul\":361:390   */\n      swap1\n      pop\n        /* \"#utility.yul\":399:432   */\n      tag_107\n        /* \"#utility.yul\":426:431   */\n      dup2\n        /* \"#utility.yul\":399:432   */\n      tag_108\n      jump\t// in\n    tag_107:\n        /* \"#utility.yul\":299:438   */\n      swap3\n      swap2\n      pop\n      pop\n      jump\t// out\n        /* \"#utility.yul\":444:587   */\n    tag_109:\n        /* \"#utility.yul\":501:506   */\n      0x00\n        /* \"#utility.yul\":532:538   */\n      dup2\n        /* \"#utility.yul\":526:539   */\n      mload\n        /* \"#utility.yul\":517:539   */\n      swap1\n      pop\n        /* \"#utility.yul\":548:581   */\n      tag_111\n        /* \"#utility.yul\":575:580   */\n      dup2\n        /* \"#utility.yul\":548:581   */\n      tag_108\n      jump\t// in\n    tag_111:\n        /* \"#utility.yul\":444:587   */\n      swap3\n      swap2\n      pop\n      pop\n      jump\t// out\n        /* \"#utility.yul\":593:734   */\n    tag_112:\n        /* \"#utility.yul\":649:654   */\n      0x00\n        /* \"#utility.yul\":680:686   */\n      dup2\n        /* \"#utility.yul\":674:687   */\n      mload\n        /* \"#utility.yul\":665:687   */\n      swap1\n      pop\n        /* \"#utility.yul\":696:728   */\n      tag_114\n        /* \"#utility.yul\":722:727   */\n      dup2\n        /* \"#utility.yul\":696:728   */\n      tag_115\n      jump\t// in\n    tag_114:\n        /* \"#utility.yul\":593:734   */\n      swap3\n      swap2\n      pop\n      pop\n      jump\t// out\n        /* \"#utility.yul\":740:1069   */\n    tag_19:\n        /* \"#utility.yul\":799:805   */\n      0x00\n        /* \"#utility.yul\":848:850   */\n      0x20\n        /* \"#utility.yul\":836:845   */\n      dup3\n        /* \"#utility.yul\":827:834   */\n      dup5\n        /* \"#utility.yul\":823:846   */\n      sub\n        /* \"#utility.yul\":819:851   */\n      slt\n        /* \"#utility.yul\":816:935   */\n      iszero\n      tag_117\n      jumpi\n        /* \"#utility.yul\":854:933   */\n      tag_118\n      tag_119\n      jump\t// in\n    tag_118:\n        /* \"#utility.yul\":816:935   */\n    tag_117:\n        /* \"#utility.yul\":974:975   */\n      0x00\n        /* \"#utility.yul\":999:1052   */\n      tag_120\n        /* \"#utility.yul\":1044:1051   */\n      dup5\n        /* \"#utility.yul\":1035:1041   */\n      dup3\n        /* \"#utility.yul\":1024:1033   */\n      dup6\n        /* \"#utility.yul\":1020:1042   */\n      add\n        /* \"#utility.yul\":999:1052   */\n      tag_97\n      jump\t// in\n    tag_120:\n        /* \"#utility.yul\":989:1052   */\n      swap2\n      pop\n        /* \"#utility.yul\":945:1062   */\n      pop\n        /* \"#utility.yul\":740:1069   */\n      swap3\n      swap2\n      pop\n      pop\n      jump\t// out\n        /* \"#utility.yul\":1075:1404   */\n    tag_36:\n        /* \"#utility.yul\":1134:1140   */\n      0x00\n        /* \"#utility.yul\":1183:1185   */\n      0x20\n        /* \"#utility.yul\":1171:1180   */\n      dup3\n        /* \"#utility.yul\":1162:1169   */\n      dup5\n        /* \"#utility.yul\":1158:1181   */\n      sub\n        /* \"#utility.yul\":1154:1186   */\n      slt\n        /* \"#utility.yul\":1151:1270   */\n      iszero\n      tag_122\n      jumpi\n        /* \"#utility.yul\":1189:1268   */\n      tag_123\n      tag_119\n      jump\t// in\n    tag_123:\n        /* \"#utility.yul\":1151:1270   */\n    tag_122:\n        /* \"#utility.yul\":1309:1310   */\n      0x00\n        /* \"#utility.yul\":1334:1387   */\n      tag_124\n        /* \"#utility.yul\":1379:1386   */\n      dup5\n        /* \"#utility.yul\":1370:1376   */\n      dup3\n        /* \"#utility.yul\":1359:1368   */\n      dup6\n        /* \"#utility.yul\":1355:1377   */\n      add\n        /* \"#utility.yul\":1334:1387   */\n      tag_105\n      jump\t// in\n    tag_124:\n        /* \"#utility.yul\":1324:1387   */\n      swap2\n      pop\n        /* \"#utility.yul\":1280:1397   */\n      pop\n        /* \"#utility.yul\":1075:1404   */\n      swap3\n      swap2\n      pop\n      pop\n      jump\t// out\n        /* \"#utility.yul\":1410:2381   */\n    tag_86:\n        /* \"#utility.yul\":1513:1519   */\n      0x00\n        /* \"#utility.yul\":1521:1527   */\n      dup1\n        /* \"#utility.yul\":1529:1535   */\n      0x00\n        /* \"#utility.yul\":1537:1543   */\n      dup1\n        /* \"#utility.yul\":1545:1551   */\n      0x00\n        /* \"#utility.yul\":1594:1597   */\n      0xa0\n        /* \"#utility.yul\":1582:1591   */\n      dup7\n        /* \"#utility.yul\":1573:1580   */\n      dup9\n        /* \"#utility.yul\":1569:1592   */\n      sub\n        /* \"#utility.yul\":1565:1598   */\n      slt\n        /* \"#utility.yul\":1562:1682   */\n      iszero\n      tag_126\n      jumpi\n        /* \"#utility.yul\":1601:1680   */\n      tag_127\n      tag_119\n      jump\t// in\n    tag_127:\n        /* \"#utility.yul\":1562:1682   */\n    tag_126:\n        /* \"#utility.yul\":1721:1722   */\n      0x00\n        /* \"#utility.yul\":1746:1809   */\n      tag_128\n        /* \"#utility.yul\":1801:1808   */\n      dup9\n        /* \"#utility.yul\":1792:1798   */\n      dup3\n        /* \"#utility.yul\":1781:1790   */\n      dup10\n        /* \"#utility.yul\":1777:1799   */\n      add\n        /* \"#utility.yul\":1746:1809   */\n      tag_112\n      jump\t// in\n    tag_128:\n        /* \"#utility.yul\":1736:1809   */\n      swap6\n      pop\n        /* \"#utility.yul\":1692:1819   */\n      pop\n        /* \"#utility.yul\":1858:1860   */\n      0x20\n        /* \"#utility.yul\":1884:1947   */\n      tag_129\n        /* \"#utility.yul\":1939:1946   */\n      dup9\n        /* \"#utility.yul\":1930:1936   */\n      dup3\n        /* \"#utility.yul\":1919:1928   */\n      dup10\n        /* \"#utility.yul\":1915:1937   */\n      add\n        /* \"#utility.yul\":1884:1947   */\n      tag_101\n      jump\t// in\n    tag_129:\n        /* \"#utility.yul\":1874:1947   */\n      swap5\n      pop\n        /* \"#utility.yul\":1829:1957   */\n      pop\n        /* \"#utility.yul\":1996:1998   */\n      0x40\n        /* \"#utility.yul\":2022:2086   */\n      tag_130\n        /* \"#utility.yul\":2078:2085   */\n      dup9\n        /* \"#utility.yul\":2069:2075   */\n      dup3\n        /* \"#utility.yul\":2058:2067   */\n      dup10\n        /* \"#utility.yul\":2054:2076   */\n      add\n        /* \"#utility.yul\":2022:2086   */\n      tag_109\n      jump\t// in\n    tag_130:\n        /* \"#utility.yul\":2012:2086   */\n      swap4\n      pop\n        /* \"#utility.yul\":1967:2096   */\n      pop\n        /* \"#utility.yul\":2135:2137   */\n      0x60\n        /* \"#utility.yul\":2161:2225   */\n      tag_131\n        /* \"#utility.yul\":2217:2224   */\n      dup9\n        /* \"#utility.yul\":2208:2214   */\n      dup3\n        /* \"#utility.yul\":2197:2206   */\n      dup10\n        /* \"#utility.yul\":2193:2215   */\n      add\n        /* \"#utility.yul\":2161:2225   */\n      tag_109\n      jump\t// in\n    tag_131:\n        /* \"#utility.yul\":2151:2225   */\n      swap3\n      pop\n        /* \"#utility.yul\":2106:2235   */\n      pop\n        /* \"#utility.yul\":2274:2277   */\n      0x80\n        /* \"#utility.yul\":2301:2364   */\n      tag_132\n        /* \"#utility.yul\":2356:2363   */\n      dup9\n        /* \"#utility.yul\":2347:2353   */\n      dup3\n        /* \"#utility.yul\":2336:2345   */\n      dup10\n        /* \"#utility.yul\":2332:2354   */\n      add\n        /* \"#utility.yul\":2301:2364   */\n      tag_112\n      jump\t// in\n    tag_132:\n        /* \"#utility.yul\":2291:2364   */\n      swap2\n      pop\n        /* \"#utility.yul\":2245:2374   */\n      pop\n        /* \"#utility.yul\":1410:2381   */\n      swap3\n      swap6\n      pop\n      swap3\n      swap6\n      swap1\n      swap4\n      pop\n      jump\t// out\n        /* \"#utility.yul\":2387:2505   */\n    tag_133:\n        /* \"#utility.yul\":2474:2498   */\n      tag_135\n        /* \"#utility.yul\":2492:2497   */\n      dup2\n        /* \"#utility.yul\":2474:2498   */\n      tag_136\n      jump\t// in\n    tag_135:\n        /* \"#utility.yul\":2469:2472   */\n      dup3\n        /* \"#utility.yul\":2462:2499   */\n      mstore\n        /* \"#utility.yul\":2387:2505   */\n      pop\n      pop\n      jump\t// out\n        /* \"#utility.yul\":2511:2877   */\n    tag_137:\n        /* \"#utility.yul\":2653:2656   */\n      0x00\n        /* \"#utility.yul\":2674:2741   */\n      tag_139\n        /* \"#utility.yul\":2738:2740   */\n      0x0a\n        /* \"#utility.yul\":2733:2736   */\n      dup4\n        /* \"#utility.yul\":2674:2741   */\n      tag_140\n      jump\t// in\n    tag_139:\n        /* \"#utility.yul\":2667:2741   */\n      swap2\n      pop\n        /* \"#utility.yul\":2750:2843   */\n      tag_141\n        /* \"#utility.yul\":2839:2842   */\n      dup3\n        /* \"#utility.yul\":2750:2843   */\n      tag_142\n      jump\t// in\n    tag_141:\n        /* \"#utility.yul\":2868:2870   */\n      0x20\n        /* \"#utility.yul\":2863:2866   */\n      dup3\n        /* \"#utility.yul\":2859:2871   */\n      add\n        /* \"#utility.yul\":2852:2871   */\n      swap1\n      pop\n        /* \"#utility.yul\":2511:2877   */\n      swap2\n      swap1\n      pop\n      jump\t// out\n        /* \"#utility.yul\":2883:3249   */\n    tag_143:\n        /* \"#utility.yul\":3025:3028   */\n      0x00\n        /* \"#utility.yul\":3046:3113   */\n      tag_145\n        /* \"#utility.yul\":3110:3112   */\n      0x0b\n        /* \"#utility.yul\":3105:3108   */\n      dup4\n        /* \"#utility.yul\":3046:3113   */\n      tag_140\n      jump\t// in\n    tag_145:\n        /* \"#utility.yul\":3039:3113   */\n      swap2\n      pop\n        /* \"#utility.yul\":3122:3215   */\n      tag_146\n        /* \"#utility.yul\":3211:3214   */\n      dup3\n        /* \"#utility.yul\":3122:3215   */\n      tag_147\n      jump\t// in\n    tag_146:\n        /* \"#utility.yul\":3240:3242   */\n      0x20\n        /* \"#utility.yul\":3235:3238   */\n      dup3\n        /* \"#utility.yul\":3231:3243   */\n      add\n        /* \"#utility.yul\":3224:3243   */\n      swap1\n      pop\n        /* \"#utility.yul\":2883:3249   */\n      swap2\n      swap1\n      pop\n      jump\t// out\n        /* \"#utility.yul\":3255:3653   */\n    tag_148:\n        /* \"#utility.yul\":3414:3417   */\n      0x00\n        /* \"#utility.yul\":3435:3518   */\n      tag_150\n        /* \"#utility.yul\":3516:3517   */\n      0x00\n        /* \"#utility.yul\":3511:3514   */\n      dup4\n        /* \"#utility.yul\":3435:3518   */\n      tag_151\n      jump\t// in\n    tag_150:\n        /* \"#utility.yul\":3428:3518   */\n      swap2\n      pop\n        /* \"#utility.yul\":3527:3620   */\n      tag_152\n        /* \"#utility.yul\":3616:3619   */\n      dup3\n        /* \"#utility.yul\":3527:3620   */\n      tag_153\n      jump\t// in\n    tag_152:\n        /* \"#utility.yul\":3645:3646   */\n      0x00\n        /* \"#utility.yul\":3640:3643   */\n      dup3\n        /* \"#utility.yul\":3636:3647   */\n      add\n        /* \"#utility.yul\":3629:3647   */\n      swap1\n      pop\n        /* \"#utility.yul\":3255:3653   */\n      swap2\n      swap1\n      pop\n      jump\t// out\n        /* \"#utility.yul\":3659:3777   */\n    tag_154:\n        /* \"#utility.yul\":3746:3770   */\n      tag_156\n        /* \"#utility.yul\":3764:3769   */\n      dup2\n        /* \"#utility.yul\":3746:3770   */\n      tag_157\n      jump\t// in\n    tag_156:\n        /* \"#utility.yul\":3741:3744   */\n      dup3\n        /* \"#utility.yul\":3734:3771   */\n      mstore\n        /* \"#utility.yul\":3659:3777   */\n      pop\n      pop\n      jump\t// out\n        /* \"#utility.yul\":3783:4162   */\n    tag_65:\n        /* \"#utility.yul\":3967:3970   */\n      0x00\n        /* \"#utility.yul\":3989:4136   */\n      tag_159\n        /* \"#utility.yul\":4132:4135   */\n      dup3\n        /* \"#utility.yul\":3989:4136   */\n      tag_148\n      jump\t// in\n    tag_159:\n        /* \"#utility.yul\":3982:4136   */\n      swap2\n      pop\n        /* \"#utility.yul\":4153:4156   */\n      dup2\n        /* \"#utility.yul\":4146:4156   */\n      swap1\n      pop\n        /* \"#utility.yul\":3783:4162   */\n      swap2\n      swap1\n      pop\n      jump\t// out\n        /* \"#utility.yul\":4168:4390   */\n    tag_32:\n        /* \"#utility.yul\":4261:4265   */\n      0x00\n        /* \"#utility.yul\":4299:4301   */\n      0x20\n        /* \"#utility.yul\":4288:4297   */\n      dup3\n        /* \"#utility.yul\":4284:4302   */\n      add\n        /* \"#utility.yul\":4276:4302   */\n      swap1\n      pop\n        /* \"#utility.yul\":4312:4383   */\n      tag_161\n        /* \"#utility.yul\":4380:4381   */\n      0x00\n        /* \"#utility.yul\":4369:4378   */\n      dup4\n        /* \"#utility.yul\":4365:4382   */\n      add\n        /* \"#utility.yul\":4356:4362   */\n      dup5\n        /* \"#utility.yul\":4312:4383   */\n      tag_133\n      jump\t// in\n    tag_161:\n        /* \"#utility.yul\":4168:4390   */\n      swap3\n      swap2\n      pop\n      pop\n      jump\t// out\n        /* \"#utility.yul\":4396:4815   */\n    tag_44:\n        /* \"#utility.yul\":4562:4566   */\n      0x00\n        /* \"#utility.yul\":4600:4602   */\n      0x20\n        /* \"#utility.yul\":4589:4598   */\n      dup3\n        /* \"#utility.yul\":4585:4603   */\n      add\n        /* \"#utility.yul\":4577:4603   */\n      swap1\n      pop\n        /* \"#utility.yul\":4649:4658   */\n      dup2\n        /* \"#utility.yul\":4643:4647   */\n      dup2\n        /* \"#utility.yul\":4639:4659   */\n      sub\n        /* \"#utility.yul\":4635:4636   */\n      0x00\n        /* \"#utility.yul\":4624:4633   */\n      dup4\n        /* \"#utility.yul\":4620:4637   */\n      add\n        /* \"#utility.yul\":4613:4660   */\n      mstore\n        /* \"#utility.yul\":4677:4808   */\n      tag_163\n        /* \"#utility.yul\":4803:4807   */\n      dup2\n        /* \"#utility.yul\":4677:4808   */\n      tag_137\n      jump\t// in\n    tag_163:\n        /* \"#utility.yul\":4669:4808   */\n      swap1\n      pop\n        /* \"#utility.yul\":4396:4815   */\n      swap2\n      swap1\n      pop\n      jump\t// out\n        /* \"#utility.yul\":4821:5240   */\n    tag_71:\n        /* \"#utility.yul\":4987:4991   */\n      0x00\n        /* \"#utility.yul\":5025:5027   */\n      0x20\n        /* \"#utility.yul\":5014:5023   */\n      dup3\n        /* \"#utility.yul\":5010:5028   */\n      add\n        /* \"#utility.yul\":5002:5028   */\n      swap1\n      pop\n        /* \"#utility.yul\":5074:5083   */\n      dup2\n        /* \"#utility.yul\":5068:5072   */\n      dup2\n        /* \"#utility.yul\":5064:5084   */\n      sub\n        /* \"#utility.yul\":5060:5061   */\n      0x00\n        /* \"#utility.yul\":5049:5058   */\n      dup4\n        /* \"#utility.yul\":5045:5062   */\n      add\n        /* \"#utility.yul\":5038:5085   */\n      mstore\n        /* \"#utility.yul\":5102:5233   */\n      tag_165\n        /* \"#utility.yul\":5228:5232   */\n      dup2\n        /* \"#utility.yul\":5102:5233   */\n      tag_143\n      jump\t// in\n    tag_165:\n        /* \"#utility.yul\":5094:5233   */\n      swap1\n      pop\n        /* \"#utility.yul\":4821:5240   */\n      swap2\n      swap1\n      pop\n      jump\t// out\n        /* \"#utility.yul\":5246:5468   */\n    tag_22:\n        /* \"#utility.yul\":5339:5343   */\n      0x00\n        /* \"#utility.yul\":5377:5379   */\n      0x20\n        /* \"#utility.yul\":5366:5375   */\n      dup3\n        /* \"#utility.yul\":5362:5380   */\n      add\n        /* \"#utility.yul\":5354:5380   */\n      swap1\n      pop\n        /* \"#utility.yul\":5390:5461   */\n      tag_167\n        /* \"#utility.yul\":5458:5459   */\n      0x00\n        /* \"#utility.yul\":5447:5456   */\n      dup4\n        /* \"#utility.yul\":5443:5460   */\n      add\n        /* \"#utility.yul\":5434:5440   */\n      dup5\n        /* \"#utility.yul\":5390:5461   */\n      tag_154\n      jump\t// in\n    tag_167:\n        /* \"#utility.yul\":5246:5468   */\n      swap3\n      swap2\n      pop\n      pop\n      jump\t// out\n        /* \"#utility.yul\":5555:5702   */\n    tag_151:\n        /* \"#utility.yul\":5656:5667   */\n      0x00\n        /* \"#utility.yul\":5693:5696   */\n      dup2\n        /* \"#utility.yul\":5678:5696   */\n      swap1\n      pop\n        /* \"#utility.yul\":5555:5702   */\n      swap3\n      swap2\n      pop\n      pop\n      jump\t// out\n        /* \"#utility.yul\":5708:5877   */\n    tag_140:\n        /* \"#utility.yul\":5792:5803   */\n      0x00\n        /* \"#utility.yul\":5826:5832   */\n      dup3\n        /* \"#utility.yul\":5821:5824   */\n      dup3\n        /* \"#utility.yul\":5814:5833   */\n      mstore\n        /* \"#utility.yul\":5866:5870   */\n      0x20\n        /* \"#utility.yul\":5861:5864   */\n      dup3\n        /* \"#utility.yul\":5857:5871   */\n      add\n        /* \"#utility.yul\":5842:5871   */\n      swap1\n      pop\n        /* \"#utility.yul\":5708:5877   */\n      swap3\n      swap2\n      pop\n      pop\n      jump\t// out\n        /* \"#utility.yul\":5883:6068   */\n    tag_80:\n        /* \"#utility.yul\":5923:5924   */\n      0x00\n        /* \"#utility.yul\":5940:5960   */\n      tag_173\n        /* \"#utility.yul\":5958:5959   */\n      dup3\n        /* \"#utility.yul\":5940:5960   */\n      tag_157\n      jump\t// in\n    tag_173:\n        /* \"#utility.yul\":5935:5960   */\n      swap2\n      pop\n        /* \"#utility.yul\":5974:5994   */\n      tag_174\n        /* \"#utility.yul\":5992:5993   */\n      dup4\n        /* \"#utility.yul\":5974:5994   */\n      tag_157\n      jump\t// in\n    tag_174:\n        /* \"#utility.yul\":5969:5994   */\n      swap3\n      pop\n        /* \"#utility.yul\":6013:6014   */\n      dup3\n        /* \"#utility.yul\":6003:6038   */\n      tag_175\n      jumpi\n        /* \"#utility.yul\":6018:6036   */\n      tag_176\n      tag_177\n      jump\t// in\n    tag_176:\n        /* \"#utility.yul\":6003:6038   */\n    tag_175:\n        /* \"#utility.yul\":6060:6061   */\n      dup3\n        /* \"#utility.yul\":6057:6058   */\n      dup3\n        /* \"#utility.yul\":6053:6062   */\n      div\n        /* \"#utility.yul\":6048:6062   */\n      swap1\n      pop\n        /* \"#utility.yul\":5883:6068   */\n      swap3\n      swap2\n      pop\n      pop\n      jump\t// out\n        /* \"#utility.yul\":6074:7065   */\n    tag_88:\n        /* \"#utility.yul\":6113:6120   */\n      0x00\n        /* \"#utility.yul\":6136:6155   */\n      tag_179\n        /* \"#utility.yul\":6153:6154   */\n      dup3\n        /* \"#utility.yul\":6136:6155   */\n      tag_180\n      jump\t// in\n    tag_179:\n        /* \"#utility.yul\":6131:6155   */\n      swap2\n      pop\n        /* \"#utility.yul\":6169:6188   */\n      tag_181\n        /* \"#utility.yul\":6186:6187   */\n      dup4\n        /* \"#utility.yul\":6169:6188   */\n      tag_180\n      jump\t// in\n    tag_181:\n        /* \"#utility.yul\":6164:6188   */\n      swap3\n      pop\n        /* \"#utility.yul\":6370:6371   */\n      dup3\n        /* \"#utility.yul\":6302:6368   */\n      0x7fffffffffffffffffffffffffffffffffffffffffffffffffffffffffffffff\n        /* \"#utility.yul\":6298:6372   */\n      div\n        /* \"#utility.yul\":6295:6296   */\n      dup3\n        /* \"#utility.yul\":6292:6373   */\n      gt\n        /* \"#utility.yul\":6287:6288   */\n      0x00\n        /* \"#utility.yul\":6284:6285   */\n      dup5\n        /* \"#utility.yul\":6280:6289   */\n      sgt\n        /* \"#utility.yul\":6276:6277   */\n      0x00\n        /* \"#utility.yul\":6273:6274   */\n      dup5\n        /* \"#utility.yul\":6269:6278   */\n      sgt\n        /* \"#utility.yul\":6265:6290   */\n      and\n        /* \"#utility.yul\":6261:6374   */\n      and\n        /* \"#utility.yul\":6258:6397   */\n      iszero\n      tag_182\n      jumpi\n        /* \"#utility.yul\":6377:6395   */\n      tag_183\n      tag_184\n      jump\t// in\n    tag_183:\n        /* \"#utility.yul\":6258:6397   */\n    tag_182:\n        /* \"#utility.yul\":6581:6582   */\n      dup2\n        /* \"#utility.yul\":6513:6579   */\n      0x8000000000000000000000000000000000000000000000000000000000000000\n        /* \"#utility.yul\":6508:6583   */\n      sdiv\n        /* \"#utility.yul\":6505:6506   */\n      dup4\n        /* \"#utility.yul\":6501:6584   */\n      slt\n        /* \"#utility.yul\":6496:6497   */\n      0x00\n        /* \"#utility.yul\":6493:6494   */\n      dup5\n        /* \"#utility.yul\":6489:6498   */\n      slt\n        /* \"#utility.yul\":6485:6486   */\n      0x00\n        /* \"#utility.yul\":6482:6483   */\n      dup5\n        /* \"#utility.yul\":6478:6487   */\n      sgt\n        /* \"#utility.yul\":6474:6499   */\n      and\n        /* \"#utility.yul\":6470:6585   */\n      and\n        /* \"#utility.yul\":6467:6608   */\n      iszero\n      tag_185\n      jumpi\n        /* \"#utility.yul\":6588:6606   */\n      tag_186\n      tag_184\n      jump\t// in\n    tag_186:\n        /* \"#utility.yul\":6467:6608   */\n    tag_185:\n        /* \"#utility.yul\":6792:6793   */\n      dup3\n        /* \"#utility.yul\":6724:6790   */\n      0x8000000000000000000000000000000000000000000000000000000000000000\n        /* \"#utility.yul\":6719:6794   */\n      sdiv\n        /* \"#utility.yul\":6716:6717   */\n      dup3\n        /* \"#utility.yul\":6712:6795   */\n      slt\n        /* \"#utility.yul\":6707:6708   */\n      0x00\n        /* \"#utility.yul\":6704:6705   */\n      dup5\n        /* \"#utility.yul\":6700:6709   */\n      sgt\n        /* \"#utility.yul\":6696:6697   */\n      0x00\n        /* \"#utility.yul\":6693:6694   */\n      dup5\n        /* \"#utility.yul\":6689:6698   */\n      slt\n        /* \"#utility.yul\":6685:6710   */\n      and\n        /* \"#utility.yul\":6681:6796   */\n      and\n        /* \"#utility.yul\":6678:6819   */\n      iszero\n      tag_187\n      jumpi\n        /* \"#utility.yul\":6799:6817   */\n      tag_188\n      tag_184\n      jump\t// in\n    tag_188:\n        /* \"#utility.yul\":6678:6819   */\n    tag_187:\n        /* \"#utility.yul\":7002:7003   */\n      dup3\n        /* \"#utility.yul\":6934:7000   */\n      0x7fffffffffffffffffffffffffffffffffffffffffffffffffffffffffffffff\n        /* \"#utility.yul\":6929:7004   */\n      sdiv\n        /* \"#utility.yul\":6926:6927   */\n      dup3\n        /* \"#utility.yul\":6922:7005   */\n      slt\n        /* \"#utility.yul\":6917:6918   */\n      0x00\n        /* \"#utility.yul\":6914:6915   */\n      dup5\n        /* \"#utility.yul\":6910:6919   */\n      slt\n        /* \"#utility.yul\":6906:6907   */\n      0x00\n        /* \"#utility.yul\":6903:6904   */\n      dup5\n        /* \"#utility.yul\":6899:6908   */\n      slt\n        /* \"#utility.yul\":6895:6920   */\n      and\n        /* \"#utility.yul\":6891:7006   */\n      and\n        /* \"#utility.yul\":6888:7029   */\n      iszero\n      tag_189\n      jumpi\n        /* \"#utility.yul\":7009:7027   */\n      tag_190\n      tag_184\n      jump\t// in\n    tag_190:\n        /* \"#utility.yul\":6888:7029   */\n    tag_189:\n        /* \"#utility.yul\":7057:7058   */\n      dup3\n        /* \"#utility.yul\":7054:7055   */\n      dup3\n        /* \"#utility.yul\":7050:7059   */\n      mul\n        /* \"#utility.yul\":7039:7059   */\n      swap1\n      pop\n        /* \"#utility.yul\":6074:7065   */\n      swap3\n      swap2\n      pop\n      pop\n      jump\t// out\n        /* \"#utility.yul\":7071:7419   */\n    tag_78:\n        /* \"#utility.yul\":7111:7118   */\n      0x00\n        /* \"#utility.yul\":7134:7154   */\n      tag_192\n        /* \"#utility.yul\":7152:7153   */\n      dup3\n        /* \"#utility.yul\":7134:7154   */\n      tag_157\n      jump\t// in\n    tag_192:\n        /* \"#utility.yul\":7129:7154   */\n      swap2\n      pop\n        /* \"#utility.yul\":7168:7188   */\n      tag_193\n        /* \"#utility.yul\":7186:7187   */\n      dup4\n        /* \"#utility.yul\":7168:7188   */\n      tag_157\n      jump\t// in\n    tag_193:\n        /* \"#utility.yul\":7163:7188   */\n      swap3\n      pop\n        /* \"#utility.yul\":7356:7357   */\n      dup2\n        /* \"#utility.yul\":7288:7354   */\n      0xffffffffffffffffffffffffffffffffffffffffffffffffffffffffffffffff\n        /* \"#utility.yul\":7284:7358   */\n      div\n        /* \"#utility.yul\":7281:7282   */\n      dup4\n        /* \"#utility.yul\":7278:7359   */\n      gt\n        /* \"#utility.yul\":7273:7274   */\n      dup3\n        /* \"#utility.yul\":7266:7275   */\n      iszero\n        /* \"#utility.yul\":7259:7276   */\n      iszero\n        /* \"#utility.yul\":7255:7360   */\n      and\n        /* \"#utility.yul\":7252:7383   */\n      iszero\n      tag_194\n      jumpi\n        /* \"#utility.yul\":7363:7381   */\n      tag_195\n      tag_184\n      jump\t// in\n    tag_195:\n        /* \"#utility.yul\":7252:7383   */\n    tag_194:\n        /* \"#utility.yul\":7411:7412   */\n      dup3\n        /* \"#utility.yul\":7408:7409   */\n      dup3\n        /* \"#utility.yul\":7404:7413   */\n      mul\n        /* \"#utility.yul\":7393:7413   */\n      swap1\n      pop\n        /* \"#utility.yul\":7071:7419   */\n      swap3\n      swap2\n      pop\n      pop\n      jump\t// out\n        /* \"#utility.yul\":7425:7521   */\n    tag_136:\n        /* \"#utility.yul\":7462:7469   */\n      0x00\n        /* \"#utility.yul\":7491:7515   */\n      tag_197\n        /* \"#utility.yul\":7509:7514   */\n      dup3\n        /* \"#utility.yul\":7491:7515   */\n      tag_198\n      jump\t// in\n    tag_197:\n        /* \"#utility.yul\":7480:7515   */\n      swap1\n      pop\n        /* \"#utility.yul\":7425:7521   */\n      swap2\n      swap1\n      pop\n      jump\t// out\n        /* \"#utility.yul\":7527:7603   */\n    tag_180:\n        /* \"#utility.yul\":7563:7570   */\n      0x00\n        /* \"#utility.yul\":7592:7597   */\n      dup2\n        /* \"#utility.yul\":7581:7597   */\n      swap1\n      pop\n        /* \"#utility.yul\":7527:7603   */\n      swap2\n      swap1\n      pop\n      jump\t// out\n        /* \"#utility.yul\":7609:7735   */\n    tag_198:\n        /* \"#utility.yul\":7646:7653   */\n      0x00\n        /* \"#utility.yul\":7686:7728   */\n      0xffffffffffffffffffffffffffffffffffffffff\n        /* \"#utility.yul\":7679:7684   */\n      dup3\n        /* \"#utility.yul\":7675:7729   */\n      and\n        /* \"#utility.yul\":7664:7729   */\n      swap1\n      pop\n        /* \"#utility.yul\":7609:7735   */\n      swap2\n      swap1\n      pop\n      jump\t// out\n        /* \"#utility.yul\":7741:7818   */\n    tag_157:\n        /* \"#utility.yul\":7778:7785   */\n      0x00\n        /* \"#utility.yul\":7807:7812   */\n      dup2\n        /* \"#utility.yul\":7796:7812   */\n      swap1\n      pop\n        /* \"#utility.yul\":7741:7818   */\n      swap2\n      swap1\n      pop\n      jump\t// out\n        /* \"#utility.yul\":7824:7929   */\n    tag_202:\n        /* \"#utility.yul\":7860:7867   */\n      0x00\n        /* \"#utility.yul\":7900:7922   */\n      0xffffffffffffffffffff\n        /* \"#utility.yul\":7893:7898   */\n      dup3\n        /* \"#utility.yul\":7889:7923   */\n      and\n        /* \"#utility.yul\":7878:7923   */\n      swap1\n      pop\n        /* \"#utility.yul\":7824:7929   */\n      swap2\n      swap1\n      pop\n      jump\t// out\n        /* \"#utility.yul\":7935:8168   */\n    tag_57:\n        /* \"#utility.yul\":7974:7977   */\n      0x00\n        /* \"#utility.yul\":7997:8021   */\n      tag_205\n        /* \"#utility.yul\":8015:8020   */\n      dup3\n        /* \"#utility.yul\":7997:8021   */\n      tag_157\n      jump\t// in\n    tag_205:\n        /* \"#utility.yul\":7988:8021   */\n      swap2\n      pop\n        /* \"#utility.yul\":8043:8109   */\n      0xffffffffffffffffffffffffffffffffffffffffffffffffffffffffffffffff\n        /* \"#utility.yul\":8036:8041   */\n      dup3\n        /* \"#utility.yul\":8033:8110   */\n      eq\n        /* \"#utility.yul\":8030:8133   */\n      iszero\n      tag_206\n      jumpi\n        /* \"#utility.yul\":8113:8131   */\n      tag_207\n      tag_184\n      jump\t// in\n    tag_207:\n        /* \"#utility.yul\":8030:8133   */\n    tag_206:\n        /* \"#utility.yul\":8160:8161   */\n      0x01\n        /* \"#utility.yul\":8153:8158   */\n      dup3\n        /* \"#utility.yul\":8149:8162   */\n      add\n        /* \"#utility.yul\":8142:8162   */\n      swap1\n      pop\n        /* \"#utility.yul\":7935:8168   */\n      swap2\n      swap1\n      pop\n      jump\t// out\n        /* \"#utility.yul\":8174:8354   */\n    tag_184:\n        /* \"#utility.yul\":8222:8299   */\n      0x4e487b7100000000000000000000000000000000000000000000000000000000\n        /* \"#utility.yul\":8219:8220   */\n      0x00\n        /* \"#utility.yul\":8212:8300   */\n      mstore\n        /* \"#utility.yul\":8319:8323   */\n      0x11\n        /* \"#utility.yul\":8316:8317   */\n      0x04\n        /* \"#utility.yul\":8309:8324   */\n      mstore\n        /* \"#utility.yul\":8343:8347   */\n      0x24\n        /* \"#utility.yul\":8340:8341   */\n      0x00\n        /* \"#utility.yul\":8333:8348   */\n      revert\n        /* \"#utility.yul\":8360:8540   */\n    tag_177:\n        /* \"#utility.yul\":8408:8485   */\n      0x4e487b7100000000000000000000000000000000000000000000000000000000\n        /* \"#utility.yul\":8405:8406   */\n      0x00\n        /* \"#utility.yul\":8398:8486   */\n      mstore\n        /* \"#utility.yul\":8505:8509   */\n      0x12\n        /* \"#utility.yul\":8502:8503   */\n      0x04\n        /* \"#utility.yul\":8495:8510   */\n      mstore\n        /* \"#utility.yul\":8529:8533   */\n      0x24\n        /* \"#utility.yul\":8526:8527   */\n      0x00\n        /* \"#utility.yul\":8519:8534   */\n      revert\n        /* \"#utility.yul\":8546:8726   */\n    tag_54:\n        /* \"#utility.yul\":8594:8671   */\n      0x4e487b7100000000000000000000000000000000000000000000000000000000\n        /* \"#utility.yul\":8591:8592   */\n      0x00\n        /* \"#utility.yul\":8584:8672   */\n      mstore\n        /* \"#utility.yul\":8691:8695   */\n      0x32\n        /* \"#utility.yul\":8688:8689   */\n      0x04\n        /* \"#utility.yul\":8681:8696   */\n      mstore\n        /* \"#utility.yul\":8715:8719   */\n      0x24\n        /* \"#utility.yul\":8712:8713   */\n      0x00\n        /* \"#utility.yul\":8705:8720   */\n      revert\n        /* \"#utility.yul\":8732:8912   */\n    tag_60:\n        /* \"#utility.yul\":8780:8857   */\n      0x4e487b7100000000000000000000000000000000000000000000000000000000\n        /* \"#utility.yul\":8777:8778   */\n      0x00\n        /* \"#utility.yul\":8770:8858   */\n      mstore\n        /* \"#utility.yul\":8877:8881   */\n      0x41\n        /* \"#utility.yul\":8874:8875   */\n      0x04\n        /* \"#utility.yul\":8867:8882   */\n      mstore\n        /* \"#utility.yul\":8901:8905   */\n      0x24\n        /* \"#utility.yul\":8898:8899   */\n      0x00\n        /* \"#utility.yul\":8891:8906   */\n      revert\n        /* \"#utility.yul\":9041:9158   */\n    tag_119:\n        /* \"#utility.yul\":9150:9151   */\n      0x00\n        /* \"#utility.yul\":9147:9148   */\n      dup1\n        /* \"#utility.yul\":9140:9152   */\n      revert\n        /* \"#utility.yul\":9164:9324   */\n    tag_142:\n        /* \"#utility.yul\":9304:9316   */\n      0x4e6f7420656e6f75676800000000000000000000000000000000000000000000\n        /* \"#utility.yul\":9300:9301   */\n      0x00\n        /* \"#utility.yul\":9292:9298   */\n      dup3\n        /* \"#utility.yul\":9288:9302   */\n      add\n        /* \"#utility.yul\":9281:9317   */\n      mstore\n        /* \"#utility.yul\":9164:9324   */\n      pop\n      jump\t// out\n        /* \"#utility.yul\":9330:9491   */\n    tag_147:\n        /* \"#utility.yul\":9470:9483   */\n      0x63616c6c206661696c6564000000000000000000000000000000000000000000\n        /* \"#utility.yul\":9466:9467   */\n      0x00\n        /* \"#utility.yul\":9458:9464   */\n      dup3\n        /* \"#utility.yul\":9454:9468   */\n      add\n        /* \"#utility.yul\":9447:9484   */\n      mstore\n        /* \"#utility.yul\":9330:9491   */\n      pop\n      jump\t// out\n        /* \"#utility.yul\":9497:9611   */\n    tag_153:\n      pop\n      jump\t// out\n        /* \"#utility.yul\":9617:9739   */\n    tag_100:\n        /* \"#utility.yul\":9690:9714   */\n      tag_219\n        /* \"#utility.yul\":9708:9713   */\n      dup2\n        /* \"#utility.yul\":9690:9714   */\n      tag_136\n      jump\t// in\n    tag_219:\n        /* \"#utility.yul\":9683:9688   */\n      dup2\n        /* \"#utility.yul\":9680:9715   */\n      eq\n        /* \"#utility.yul\":9670:9733   */\n      tag_220\n      jumpi\n        /* \"#utility.yul\":9729:9730   */\n      0x00\n        /* \"#utility.yul\":9726:9727   */\n      dup1\n        /* \"#utility.yul\":9719:9731   */\n      revert\n        /* \"#utility.yul\":9670:9733   */\n    tag_220:\n        /* \"#utility.yul\":9617:9739   */\n      pop\n      jump\t// out\n        /* \"#utility.yul\":9745:9865   */\n    tag_104:\n        /* \"#utility.yul\":9817:9840   */\n      tag_222\n        /* \"#utility.yul\":9834:9839   */\n      dup2\n        /* \"#utility.yul\":9817:9840   */\n      tag_180\n      jump\t// in\n    tag_222:\n        /* \"#utility.yul\":9810:9815   */\n      dup2\n        /* \"#utility.yul\":9807:9841   */\n      eq\n        /* \"#utility.yul\":9797:9859   */\n      tag_223\n      jumpi\n        /* \"#utility.yul\":9855:9856   */\n      0x00\n        /* \"#utility.yul\":9852:9853   */\n      dup1\n        /* \"#utility.yul\":9845:9857   */\n      revert\n        /* \"#utility.yul\":9797:9859   */\n    tag_223:\n        /* \"#utility.yul\":9745:9865   */\n      pop\n      jump\t// out\n        /* \"#utility.yul\":9871:9993   */\n    tag_108:\n        /* \"#utility.yul\":9944:9968   */\n      tag_225\n        /* \"#utility.yul\":9962:9967   */\n      dup2\n        /* \"#utility.yul\":9944:9968   */\n      tag_157\n      jump\t// in\n    tag_225:\n        /* \"#utility.yul\":9937:9942   */\n      dup2\n        /* \"#utility.yul\":9934:9969   */\n      eq\n        /* \"#utility.yul\":9924:9987   */\n      tag_226\n      jumpi\n        /* \"#utility.yul\":9983:9984   */\n      0x00\n        /* \"#utility.yul\":9980:9981   */\n      dup1\n        /* \"#utility.yul\":9973:9985   */\n      revert\n        /* \"#utility.yul\":9924:9987   */\n    tag_226:\n        /* \"#utility.yul\":9871:9993   */\n      pop\n      jump\t// out\n        /* \"#utility.yul\":9999:10119   */\n    tag_115:\n        /* \"#utility.yul\":10071:10094   */\n      tag_228\n        /* \"#utility.yul\":10088:10093   */\n      dup2\n        /* \"#utility.yul\":10071:10094   */\n      tag_202\n      jump\t// in\n    tag_228:\n        /* \"#utility.yul\":10064:10069   */\n      dup2\n        /* \"#utility.yul\":10061:10095   */\n      eq\n        /* \"#utility.yul\":10051:10113   */\n      tag_229\n      jumpi\n        /* \"#utility.yul\":10109:10110   */\n      0x00\n        /* \"#utility.yul\":10106:10107   */\n      dup1\n        /* \"#utility.yul\":10099:10111   */\n      revert\n        /* \"#utility.yul\":10051:10113   */\n    tag_229:\n        /* \"#utility.yul\":9999:10119   */\n      pop\n      jump\t// out\n\n    auxdata: 0xa2646970667358221220ed943b1e379b6be39faae0eb0a5f06f218fe2820f07ac9829addd357c4c487f964736f6c63430008070033\n}\n",
				"bytecode": {
					"linkReferences": {},
					"object": "60a060405234801561001057600080fd5b503373ffffffffffffffffffffffffffffffffffffffff1660808173ffffffffffffffffffffffffffffffffffffffff1660601b8152505060805160601c610d1761006d6000396000818161025d01526104c20152610d176000f3fe6080604052600436106100595760003560e01c80633ccfd60b1461006d5780633e47d6f3146100845780639b366b76146100c1578063b60d4288146100ec578063dba6335f146100f6578063dc0d3dff1461012157610068565b366100685761006661015e565b005b600080fd5b34801561007957600080fd5b5061008261025b565b005b34801561009057600080fd5b506100ab60048036038101906100a69190610725565b61049b565b6040516100b891906108f1565b60405180910390f35b3480156100cd57600080fd5b506100d66104b3565b6040516100e391906108f1565b60405180910390f35b6100f461015e565b005b34801561010257600080fd5b5061010b6104c0565b6040516101189190610896565b60405180910390f35b34801561012d57600080fd5b5061014860048036038101906101439190610752565b6104e4565b6040516101559190610896565b60405180910390f35b6802b5e3af16b188000061017134610523565b10156101b2576040517f08c379a00000000000000000000000000000000000000000000000000000000081526004016101a9906108b1565b60405180910390fd5b6000339080600181540180825580915050600190039060005260206000200160009091909190916101000a81548173ffffffffffffffffffffffffffffffffffffffff021916908373ffffffffffffffffffffffffffffffffffffffff16021790555034600160003373ffffffffffffffffffffffffffffffffffffffff1673ffffffffffffffffffffffffffffffffffffffff16815260200190815260200160002081905550565b7f000000000000000000000000000000000000000000000000000000000000000073ffffffffffffffffffffffffffffffffffffffff163373ffffffffffffffffffffffffffffffffffffffff16146102e0576040517fed9ef86500000000000000000000000000000000000000000000000000000000815260040160405180910390fd5b60005b60008054905081101561038b57600080828154811061030557610304610bcd565b5b9060005260206000200160009054906101000a900473ffffffffffffffffffffffffffffffffffffffff1690506000600160008373ffffffffffffffffffffffffffffffffffffffff1673ffffffffffffffffffffffffffffffffffffffff1681526020019081526020016000208190555050808061038390610b26565b9150506102e3565b50600067ffffffffffffffff8111156103a7576103a6610bfc565b5b6040519080825280602002602001820160405280156103d55781602001602082028036833780820191505090505b50600090805190602001906103eb929190610615565b5060003373ffffffffffffffffffffffffffffffffffffffff164760405161041290610881565b60006040518083038185875af1925050503d806000811461044f576040519150601f19603f3d011682016040523d82523d6000602084013e610454565b606091505b5050905080610498576040517f08c379a000000000000000000000000000000000000000000000000000000000815260040161048f906108d1565b60405180910390fd5b50565b60016020528060005260406000206000915090505481565b6802b5e3af16b188000081565b7f000000000000000000000000000000000000000000000000000000000000000081565b600081815481106104f457600080fd5b906000526020600020016000915054906101000a900473ffffffffffffffffffffffffffffffffffffffff1681565b60008061052e61055d565b90506000670de0b6b3a764000084836105479190610a70565b6105519190610928565b90508092505050919050565b60008073d4a33860578de61dbabdc8bfdb98fd742fa7028e905060008173ffffffffffffffffffffffffffffffffffffffff1663feaf968c6040518163ffffffff1660e01b815260040160a06040518083038186803b1580156105bf57600080fd5b505afa1580156105d3573d6000803e3d6000fd5b505050506040513d601f19601f820116820180604052508101906105f7919061077f565b5050509150506402540be4008161060e9190610959565b9250505090565b82805482825590600052602060002090810192821561068e579160200282015b8281111561068d5782518260006101000a81548173ffffffffffffffffffffffffffffffffffffffff021916908373ffffffffffffffffffffffffffffffffffffffff16021790555091602001919060010190610635565b5b50905061069b919061069f565b5090565b5b808211156106b85760008160009055506001016106a0565b5090565b6000813590506106cb81610c85565b92915050565b6000815190506106e081610c9c565b92915050565b6000813590506106f581610cb3565b92915050565b60008151905061070a81610cb3565b92915050565b60008151905061071f81610cca565b92915050565b60006020828403121561073b5761073a610c2b565b5b6000610749848285016106bc565b91505092915050565b60006020828403121561076857610767610c2b565b5b6000610776848285016106e6565b91505092915050565b600080600080600060a0868803121561079b5761079a610c2b565b5b60006107a988828901610710565b95505060206107ba888289016106d1565b94505060406107cb888289016106fb565b93505060606107dc888289016106fb565b92505060806107ed88828901610710565b9150509295509295909350565b61080381610aca565b82525050565b6000610816600a83610917565b915061082182610c30565b602082019050919050565b6000610839600b83610917565b915061084482610c59565b602082019050919050565b600061085c60008361090c565b915061086782610c82565b600082019050919050565b61087b81610b06565b82525050565b600061088c8261084f565b9150819050919050565b60006020820190506108ab60008301846107fa565b92915050565b600060208201905081810360008301526108ca81610809565b9050919050565b600060208201905081810360008301526108ea8161082c565b9050919050565b60006020820190506109066000830184610872565b92915050565b600081905092915050565b600082825260208201905092915050565b600061093382610b06565b915061093e83610b06565b92508261094e5761094d610b9e565b5b828204905092915050565b600061096482610adc565b915061096f83610adc565b9250827f7fffffffffffffffffffffffffffffffffffffffffffffffffffffffffffffff04821160008413600084131616156109ae576109ad610b6f565b5b817f800000000000000000000000000000000000000000000000000000000000000005831260008412600084131616156109eb576109ea610b6f565b5b827f80000000000000000000000000000000000000000000000000000000000000000582126000841360008412161615610a2857610a27610b6f565b5b827f7fffffffffffffffffffffffffffffffffffffffffffffffffffffffffffffff0582126000841260008412161615610a6557610a64610b6f565b5b828202905092915050565b6000610a7b82610b06565b9150610a8683610b06565b9250817fffffffffffffffffffffffffffffffffffffffffffffffffffffffffffffffff0483118215151615610abf57610abe610b6f565b5b828202905092915050565b6000610ad582610ae6565b9050919050565b6000819050919050565b600073ffffffffffffffffffffffffffffffffffffffff82169050919050565b6000819050919050565b600069ffffffffffffffffffff82169050919050565b6000610b3182610b06565b91507fffffffffffffffffffffffffffffffffffffffffffffffffffffffffffffffff821415610b6457610b63610b6f565b5b600182019050919050565b7f4e487b7100000000000000000000000000000000000000000000000000000000600052601160045260246000fd5b7f4e487b7100000000000000000000000000000000000000000000000000000000600052601260045260246000fd5b7f4e487b7100000000000000000000000000000000000000000000000000000000600052603260045260246000fd5b7f4e487b7100000000000000000000000000000000000000000000000000000000600052604160045260246000fd5b600080fd5b7f4e6f7420656e6f75676800000000000000000000000000000000000000000000600082015250565b7f63616c6c206661696c6564000000000000000000000000000000000000000000600082015250565b50565b610c8e81610aca565b8114610c9957600080fd5b50565b610ca581610adc565b8114610cb057600080fd5b50565b610cbc81610b06565b8114610cc757600080fd5b50565b610cd381610b10565b8114610cde57600080fd5b5056fea2646970667358221220ed943b1e379b6be39faae0eb0a5f06f218fe2820f07ac9829addd357c4c487f964736f6c63430008070033",
					"opcodes": "PUSH1 0xA0 PUSH1 0x40 MSTORE CALLVALUE DUP1 ISZERO PUSH2 0x10 JUMPI PUSH1 0x0 DUP1 REVERT JUMPDEST POP CALLER PUSH20 0xFFFFFFFFFFFFFFFFFFFFFFFFFFFFFFFFFFFFFFFF AND PUSH1 0x80 DUP2 PUSH20 0xFFFFFFFFFFFFFFFFFFFFFFFFFFFFFFFFFFFFFFFF AND PUSH1 0x60 SHL DUP2 MSTORE POP POP PUSH1 0x80 MLOAD PUSH1 0x60 SHR PUSH2 0xD17 PUSH2 0x6D PUSH1 0x0 CODECOPY PUSH1 0x0 DUP2 DUP2 PUSH2 0x25D ADD MSTORE PUSH2 0x4C2 ADD MSTORE PUSH2 0xD17 PUSH1 0x0 RETURN INVALID PUSH1 0x80 PUSH1 0x40 MSTORE PUSH1 0x4 CALLDATASIZE LT PUSH2 0x59 JUMPI PUSH1 0x0 CALLDATALOAD PUSH1 0xE0 SHR DUP1 PUSH4 0x3CCFD60B EQ PUSH2 0x6D JUMPI DUP1 PUSH4 0x3E47D6F3 EQ PUSH2 0x84 JUMPI DUP1 PUSH4 0x9B366B76 EQ PUSH2 0xC1 JUMPI DUP1 PUSH4 0xB60D4288 EQ PUSH2 0xEC JUMPI DUP1 PUSH4 0xDBA6335F EQ PUSH2 0xF6 JUMPI DUP1 PUSH4 0xDC0D3DFF EQ PUSH2 0x121 JUMPI PUSH2 0x68 JUMP JUMPDEST CALLDATASIZE PUSH2 0x68 JUMPI PUSH2 0x66 PUSH2 0x15E JUMP JUMPDEST STOP JUMPDEST PUSH1 0x0 DUP1 REVERT JUMPDEST CALLVALUE DUP1 ISZERO PUSH2 0x79 JUMPI PUSH1 0x0 DUP1 REVERT JUMPDEST POP PUSH2 0x82 PUSH2 0x25B JUMP JUMPDEST STOP JUMPDEST CALLVALUE DUP1 ISZERO PUSH2 0x90 JUMPI PUSH1 0x0 DUP1 REVERT JUMPDEST POP PUSH2 0xAB PUSH1 0x4 DUP1 CALLDATASIZE SUB DUP2 ADD SWAP1 PUSH2 0xA6 SWAP2 SWAP1 PUSH2 0x725 JUMP JUMPDEST PUSH2 0x49B JUMP JUMPDEST PUSH1 0x40 MLOAD PUSH2 0xB8 SWAP2 SWAP1 PUSH2 0x8F1 JUMP JUMPDEST PUSH1 0x40 MLOAD DUP1 SWAP2 SUB SWAP1 RETURN JUMPDEST CALLVALUE DUP1 ISZERO PUSH2 0xCD JUMPI PUSH1 0x0 DUP1 REVERT JUMPDEST POP PUSH2 0xD6 PUSH2 0x4B3 JUMP JUMPDEST PUSH1 0x40 MLOAD PUSH2 0xE3 SWAP2 SWAP1 PUSH2 0x8F1 JUMP JUMPDEST PUSH1 0x40 MLOAD DUP1 SWAP2 SUB SWAP1 RETURN JUMPDEST PUSH2 0xF4 PUSH2 0x15E JUMP JUMPDEST STOP JUMPDEST CALLVALUE DUP1 ISZERO PUSH2 0x102 JUMPI PUSH1 0x0 DUP1 REVERT JUMPDEST POP PUSH2 0x10B PUSH2 0x4C0 JUMP JUMPDEST PUSH1 0x40 MLOAD PUSH2 0x118 SWAP2 SWAP1 PUSH2 0x896 JUMP JUMPDEST PUSH1 0x40 MLOAD DUP1 SWAP2 SUB SWAP1 RETURN JUMPDEST CALLVALUE DUP1 ISZERO PUSH2 0x12D JUMPI PUSH1 0x0 DUP1 REVERT JUMPDEST POP PUSH2 0x148 PUSH1 0x4 DUP1 CALLDATASIZE SUB DUP2 ADD SWAP1 PUSH2 0x143 SWAP2 SWAP1 PUSH2 0x752 JUMP JUMPDEST PUSH2 0x4E4 JUMP JUMPDEST PUSH1 0x40 MLOAD PUSH2 0x155 SWAP2 SWAP1 PUSH2 0x896 JUMP JUMPDEST PUSH1 0x40 MLOAD DUP1 SWAP2 SUB SWAP1 RETURN JUMPDEST PUSH9 0x2B5E3AF16B1880000 PUSH2 0x171 CALLVALUE PUSH2 0x523 JUMP JUMPDEST LT ISZERO PUSH2 0x1B2 JUMPI PUSH1 0x40 MLOAD PUSH32 0x8C379A000000000000000000000000000000000000000000000000000000000 DUP2 MSTORE PUSH1 0x4 ADD PUSH2 0x1A9 SWAP1 PUSH2 0x8B1 JUMP JUMPDEST PUSH1 0x40 MLOAD DUP1 SWAP2 SUB SWAP1 REVERT JUMPDEST PUSH1 0x0 CALLER SWAP1 DUP1 PUSH1 0x1 DUP2 SLOAD ADD DUP1 DUP3 SSTORE DUP1 SWAP2 POP POP PUSH1 0x1 SWAP1 SUB SWAP1 PUSH1 0x0 MSTORE PUSH1 0x20 PUSH1 0x0 KECCAK256 ADD PUSH1 0x0 SWAP1 SWAP2 SWAP1 SWAP2 SWAP1 SWAP2 PUSH2 0x100 EXP DUP2 SLOAD DUP2 PUSH20 0xFFFFFFFFFFFFFFFFFFFFFFFFFFFFFFFFFFFFFFFF MUL NOT AND SWAP1 DUP4 PUSH20 0xFFFFFFFFFFFFFFFFFFFFFFFFFFFFFFFFFFFFFFFF AND MUL OR SWAP1 SSTORE POP CALLVALUE PUSH1 0x1 PUSH1 0x0 CALLER PUSH20 0xFFFFFFFFFFFFFFFFFFFFFFFFFFFFFFFFFFFFFFFF AND PUSH20 0xFFFFFFFFFFFFFFFFFFFFFFFFFFFFFFFFFFFFFFFF AND DUP2 MSTORE PUSH1 0x20 ADD SWAP1 DUP2 MSTORE PUSH1 0x20 ADD PUSH1 0x0 KECCAK256 DUP2 SWAP1 SSTORE POP JUMP JUMPDEST PUSH32 0x0 PUSH20 0xFFFFFFFFFFFFFFFFFFFFFFFFFFFFFFFFFFFFFFFF AND CALLER PUSH20 0xFFFFFFFFFFFFFFFFFFFFFFFFFFFFFFFFFFFFFFFF AND EQ PUSH2 0x2E0 JUMPI PUSH1 0x40 MLOAD PUSH32 0xED9EF86500000000000000000000000000000000000000000000000000000000 DUP2 MSTORE PUSH1 0x4 ADD PUSH1 0x40 MLOAD DUP1 SWAP2 SUB SWAP1 REVERT JUMPDEST PUSH1 0x0 JUMPDEST PUSH1 0x0 DUP1 SLOAD SWAP1 POP DUP2 LT ISZERO PUSH2 0x38B JUMPI PUSH1 0x0 DUP1 DUP3 DUP2 SLOAD DUP2 LT PUSH2 0x305 JUMPI PUSH2 0x304 PUSH2 0xBCD JUMP JUMPDEST JUMPDEST SWAP1 PUSH1 0x0 MSTORE PUSH1 0x20 PUSH1 0x0 KECCAK256 ADD PUSH1 0x0 SWAP1 SLOAD SWAP1 PUSH2 0x100 EXP SWAP1 DIV PUSH20 0xFFFFFFFFFFFFFFFFFFFFFFFFFFFFFFFFFFFFFFFF AND SWAP1 POP PUSH1 0x0 PUSH1 0x1 PUSH1 0x0 DUP4 PUSH20 0xFFFFFFFFFFFFFFFFFFFFFFFFFFFFFFFFFFFFFFFF AND PUSH20 0xFFFFFFFFFFFFFFFFFFFFFFFFFFFFFFFFFFFFFFFF AND DUP2 MSTORE PUSH1 0x20 ADD SWAP1 DUP2 MSTORE PUSH1 0x20 ADD PUSH1 0x0 KECCAK256 DUP2 SWAP1 SSTORE POP POP DUP1 DUP1 PUSH2 0x383 SWAP1 PUSH2 0xB26 JUMP JUMPDEST SWAP2 POP POP PUSH2 0x2E3 JUMP JUMPDEST POP PUSH1 0x0 PUSH8 0xFFFFFFFFFFFFFFFF DUP2 GT ISZERO PUSH2 0x3A7 JUMPI PUSH2 0x3A6 PUSH2 0xBFC JUMP JUMPDEST JUMPDEST PUSH1 0x40 MLOAD SWAP1 DUP1 DUP3 MSTORE DUP1 PUSH1 0x20 MUL PUSH1 0x20 ADD DUP3 ADD PUSH1 0x40 MSTORE DUP1 ISZERO PUSH2 0x3D5 JUMPI DUP2 PUSH1 0x20 ADD PUSH1 0x20 DUP3 MUL DUP1 CALLDATASIZE DUP4 CALLDATACOPY DUP1 DUP3 ADD SWAP2 POP POP SWAP1 POP JUMPDEST POP PUSH1 0x0 SWAP1 DUP1 MLOAD SWAP1 PUSH1 0x20 ADD SWAP1 PUSH2 0x3EB SWAP3 SWAP2 SWAP1 PUSH2 0x615 JUMP JUMPDEST POP PUSH1 0x0 CALLER PUSH20 0xFFFFFFFFFFFFFFFFFFFFFFFFFFFFFFFFFFFFFFFF AND SELFBALANCE PUSH1 0x40 MLOAD PUSH2 0x412 SWAP1 PUSH2 0x881 JUMP JUMPDEST PUSH1 0x0 PUSH1 0x40 MLOAD DUP1 DUP4 SUB DUP2 DUP6 DUP8 GAS CALL SWAP3 POP POP POP RETURNDATASIZE DUP1 PUSH1 0x0 DUP2 EQ PUSH2 0x44F JUMPI PUSH1 0x40 MLOAD SWAP2 POP PUSH1 0x1F NOT PUSH1 0x3F RETURNDATASIZE ADD AND DUP3 ADD PUSH1 0x40 MSTORE RETURNDATASIZE DUP3 MSTORE RETURNDATASIZE PUSH1 0x0 PUSH1 0x20 DUP5 ADD RETURNDATACOPY PUSH2 0x454 JUMP JUMPDEST PUSH1 0x60 SWAP2 POP JUMPDEST POP POP SWAP1 POP DUP1 PUSH2 0x498 JUMPI PUSH1 0x40 MLOAD PUSH32 0x8C379A000000000000000000000000000000000000000000000000000000000 DUP2 MSTORE PUSH1 0x4 ADD PUSH2 0x48F SWAP1 PUSH2 0x8D1 JUMP JUMPDEST PUSH1 0x40 MLOAD DUP1 SWAP2 SUB SWAP1 REVERT JUMPDEST POP JUMP JUMPDEST PUSH1 0x1 PUSH1 0x20 MSTORE DUP1 PUSH1 0x0 MSTORE PUSH1 0x40 PUSH1 0x0 KECCAK256 PUSH1 0x0 SWAP2 POP SWAP1 POP SLOAD DUP2 JUMP JUMPDEST PUSH9 0x2B5E3AF16B1880000 DUP2 JUMP JUMPDEST PUSH32 0x0 DUP2 JUMP JUMPDEST PUSH1 0x0 DUP2 DUP2 SLOAD DUP2 LT PUSH2 0x4F4 JUMPI PUSH1 0x0 DUP1 REVERT JUMPDEST SWAP1 PUSH1 0x0 MSTORE PUSH1 0x20 PUSH1 0x0 KECCAK256 ADD PUSH1 0x0 SWAP2 POP SLOAD SWAP1 PUSH2 0x100 EXP SWAP1 DIV PUSH20 0xFFFFFFFFFFFFFFFFFFFFFFFFFFFFFFFFFFFFFFFF AND DUP2 JUMP JUMPDEST PUSH1 0x0 DUP1 PUSH2 0x52E PUSH2 0x55D JUMP JUMPDEST SWAP1 POP PUSH1 0x0 PUSH8 0xDE0B6B3A7640000 DUP5 DUP4 PUSH2 0x547 SWAP2 SWAP1 PUSH2 0xA70 JUMP JUMPDEST PUSH2 0x551 SWAP2 SWAP1 PUSH2 0x928 JUMP JUMPDEST SWAP1 POP DUP1 SWAP3 POP POP POP SWAP2 SWAP1 POP JUMP JUMPDEST PUSH1 0x0 DUP1 PUSH20 0xD4A33860578DE61DBABDC8BFDB98FD742FA7028E SWAP1 POP PUSH1 0x0 DUP2 PUSH20 0xFFFFFFFFFFFFFFFFFFFFFFFFFFFFFFFFFFFFFFFF AND PUSH4 0xFEAF968C PUSH1 0x40 MLOAD DUP2 PUSH4 0xFFFFFFFF AND PUSH1 0xE0 SHL DUP2 MSTORE PUSH1 0x4 ADD PUSH1 0xA0 PUSH1 0x40 MLOAD DUP1 DUP4 SUB DUP2 DUP7 DUP1 EXTCODESIZE ISZERO DUP1 ISZERO PUSH2 0x5BF JUMPI PUSH1 0x0 DUP1 REVERT JUMPDEST POP GAS STATICCALL ISZERO DUP1 ISZERO PUSH2 0x5D3 JUMPI RETURNDATASIZE PUSH1 0x0 DUP1 RETURNDATACOPY RETURNDATASIZE PUSH1 0x0 REVERT JUMPDEST POP POP POP POP PUSH1 0x40 MLOAD RETURNDATASIZE PUSH1 0x1F NOT PUSH1 0x1F DUP3 ADD AND DUP3 ADD DUP1 PUSH1 0x40 MSTORE POP DUP2 ADD SWAP1 PUSH2 0x5F7 SWAP2 SWAP1 PUSH2 0x77F JUMP JUMPDEST POP POP POP SWAP2 POP POP PUSH5 0x2540BE400 DUP2 PUSH2 0x60E SWAP2 SWAP1 PUSH2 0x959 JUMP JUMPDEST SWAP3 POP POP POP SWAP1 JUMP JUMPDEST DUP3 DUP1 SLOAD DUP3 DUP3 SSTORE SWAP1 PUSH1 0x0 MSTORE PUSH1 0x20 PUSH1 0x0 KECCAK256 SWAP1 DUP2 ADD SWAP3 DUP3 ISZERO PUSH2 0x68E JUMPI SWAP2 PUSH1 0x20 MUL DUP3 ADD JUMPDEST DUP3 DUP2 GT ISZERO PUSH2 0x68D JUMPI DUP3 MLOAD DUP3 PUSH1 0x0 PUSH2 0x100 EXP DUP2 SLOAD DUP2 PUSH20 0xFFFFFFFFFFFFFFFFFFFFFFFFFFFFFFFFFFFFFFFF MUL NOT AND SWAP1 DUP4 PUSH20 0xFFFFFFFFFFFFFFFFFFFFFFFFFFFFFFFFFFFFFFFF AND MUL OR SWAP1 SSTORE POP SWAP2 PUSH1 0x20 ADD SWAP2 SWAP1 PUSH1 0x1 ADD SWAP1 PUSH2 0x635 JUMP JUMPDEST JUMPDEST POP SWAP1 POP PUSH2 0x69B SWAP2 SWAP1 PUSH2 0x69F JUMP JUMPDEST POP SWAP1 JUMP JUMPDEST JUMPDEST DUP1 DUP3 GT ISZERO PUSH2 0x6B8 JUMPI PUSH1 0x0 DUP2 PUSH1 0x0 SWAP1 SSTORE POP PUSH1 0x1 ADD PUSH2 0x6A0 JUMP JUMPDEST POP SWAP1 JUMP JUMPDEST PUSH1 0x0 DUP2 CALLDATALOAD SWAP1 POP PUSH2 0x6CB DUP2 PUSH2 0xC85 JUMP JUMPDEST SWAP3 SWAP2 POP POP JUMP JUMPDEST PUSH1 0x0 DUP2 MLOAD SWAP1 POP PUSH2 0x6E0 DUP2 PUSH2 0xC9C JUMP JUMPDEST SWAP3 SWAP2 POP POP JUMP JUMPDEST PUSH1 0x0 DUP2 CALLDATALOAD SWAP1 POP PUSH2 0x6F5 DUP2 PUSH2 0xCB3 JUMP JUMPDEST SWAP3 SWAP2 POP POP JUMP JUMPDEST PUSH1 0x0 DUP2 MLOAD SWAP1 POP PUSH2 0x70A DUP2 PUSH2 0xCB3 JUMP JUMPDEST SWAP3 SWAP2 POP POP JUMP JUMPDEST PUSH1 0x0 DUP2 MLOAD SWAP1 POP PUSH2 0x71F DUP2 PUSH2 0xCCA JUMP JUMPDEST SWAP3 SWAP2 POP POP JUMP JUMPDEST PUSH1 0x0 PUSH1 0x20 DUP3 DUP5 SUB SLT ISZERO PUSH2 0x73B JUMPI PUSH2 0x73A PUSH2 0xC2B JUMP JUMPDEST JUMPDEST PUSH1 0x0 PUSH2 0x749 DUP5 DUP3 DUP6 ADD PUSH2 0x6BC JUMP JUMPDEST SWAP2 POP POP SWAP3 SWAP2 POP POP JUMP JUMPDEST PUSH1 0x0 PUSH1 0x20 DUP3 DUP5 SUB SLT ISZERO PUSH2 0x768 JUMPI PUSH2 0x767 PUSH2 0xC2B JUMP JUMPDEST JUMPDEST PUSH1 0x0 PUSH2 0x776 DUP5 DUP3 DUP6 ADD PUSH2 0x6E6 JUMP JUMPDEST SWAP2 POP POP SWAP3 SWAP2 POP POP JUMP JUMPDEST PUSH1 0x0 DUP1 PUSH1 0x0 DUP1 PUSH1 0x0 PUSH1 0xA0 DUP7 DUP9 SUB SLT ISZERO PUSH2 0x79B JUMPI PUSH2 0x79A PUSH2 0xC2B JUMP JUMPDEST JUMPDEST PUSH1 0x0 PUSH2 0x7A9 DUP9 DUP3 DUP10 ADD PUSH2 0x710 JUMP JUMPDEST SWAP6 POP POP PUSH1 0x20 PUSH2 0x7BA DUP9 DUP3 DUP10 ADD PUSH2 0x6D1 JUMP JUMPDEST SWAP5 POP POP PUSH1 0x40 PUSH2 0x7CB DUP9 DUP3 DUP10 ADD PUSH2 0x6FB JUMP JUMPDEST SWAP4 POP POP PUSH1 0x60 PUSH2 0x7DC DUP9 DUP3 DUP10 ADD PUSH2 0x6FB JUMP JUMPDEST SWAP3 POP POP PUSH1 0x80 PUSH2 0x7ED DUP9 DUP3 DUP10 ADD PUSH2 0x710 JUMP JUMPDEST SWAP2 POP POP SWAP3 SWAP6 POP SWAP3 SWAP6 SWAP1 SWAP4 POP JUMP JUMPDEST PUSH2 0x803 DUP2 PUSH2 0xACA JUMP JUMPDEST DUP3 MSTORE POP POP JUMP JUMPDEST PUSH1 0x0 PUSH2 0x816 PUSH1 0xA DUP4 PUSH2 0x917 JUMP JUMPDEST SWAP2 POP PUSH2 0x821 DUP3 PUSH2 0xC30 JUMP JUMPDEST PUSH1 0x20 DUP3 ADD SWAP1 POP SWAP2 SWAP1 POP JUMP JUMPDEST PUSH1 0x0 PUSH2 0x839 PUSH1 0xB DUP4 PUSH2 0x917 JUMP JUMPDEST SWAP2 POP PUSH2 0x844 DUP3 PUSH2 0xC59 JUMP JUMPDEST PUSH1 0x20 DUP3 ADD SWAP1 POP SWAP2 SWAP1 POP JUMP JUMPDEST PUSH1 0x0 PUSH2 0x85C PUSH1 0x0 DUP4 PUSH2 0x90C JUMP JUMPDEST SWAP2 POP PUSH2 0x867 DUP3 PUSH2 0xC82 JUMP JUMPDEST PUSH1 0x0 DUP3 ADD SWAP1 POP SWAP2 SWAP1 POP JUMP JUMPDEST PUSH2 0x87B DUP2 PUSH2 0xB06 JUMP JUMPDEST DUP3 MSTORE POP POP JUMP JUMPDEST PUSH1 0x0 PUSH2 0x88C DUP3 PUSH2 0x84F JUMP JUMPDEST SWAP2 POP DUP2 SWAP1 POP SWAP2 SWAP1 POP JUMP JUMPDEST PUSH1 0x0 PUSH1 0x20 DUP3 ADD SWAP1 POP PUSH2 0x8AB PUSH1 0x0 DUP4 ADD DUP5 PUSH2 0x7FA JUMP JUMPDEST SWAP3 SWAP2 POP POP JUMP JUMPDEST PUSH1 0x0 PUSH1 0x20 DUP3 ADD SWAP1 POP DUP2 DUP2 SUB PUSH1 0x0 DUP4 ADD MSTORE PUSH2 0x8CA DUP2 PUSH2 0x809 JUMP JUMPDEST SWAP1 POP SWAP2 SWAP1 POP JUMP JUMPDEST PUSH1 0x0 PUSH1 0x20 DUP3 ADD SWAP1 POP DUP2 DUP2 SUB PUSH1 0x0 DUP4 ADD MSTORE PUSH2 0x8EA DUP2 PUSH2 0x82C JUMP JUMPDEST SWAP1 POP SWAP2 SWAP1 POP JUMP JUMPDEST PUSH1 0x0 PUSH1 0x20 DUP3 ADD SWAP1 POP PUSH2 0x906 PUSH1 0x0 DUP4 ADD DUP5 PUSH2 0x872 JUMP JUMPDEST SWAP3 SWAP2 POP POP JUMP JUMPDEST PUSH1 0x0 DUP2 SWAP1 POP SWAP3 SWAP2 POP POP JUMP JUMPDEST PUSH1 0x0 DUP3 DUP3 MSTORE PUSH1 0x20 DUP3 ADD SWAP1 POP SWAP3 SWAP2 POP POP JUMP JUMPDEST PUSH1 0x0 PUSH2 0x933 DUP3 PUSH2 0xB06 JUMP JUMPDEST SWAP2 POP PUSH2 0x93E DUP4 PUSH2 0xB06 JUMP JUMPDEST SWAP3 POP DUP3 PUSH2 0x94E JUMPI PUSH2 0x94D PUSH2 0xB9E JUMP JUMPDEST JUMPDEST DUP3 DUP3 DIV SWAP1 POP SWAP3 SWAP2 POP POP JUMP JUMPDEST PUSH1 0x0 PUSH2 0x964 DUP3 PUSH2 0xADC JUMP JUMPDEST SWAP2 POP PUSH2 0x96F DUP4 PUSH2 0xADC JUMP JUMPDEST SWAP3 POP DUP3 PUSH32 0x7FFFFFFFFFFFFFFFFFFFFFFFFFFFFFFFFFFFFFFFFFFFFFFFFFFFFFFFFFFFFFFF DIV DUP3 GT PUSH1 0x0 DUP5 SGT PUSH1 0x0 DUP5 SGT AND AND ISZERO PUSH2 0x9AE JUMPI PUSH2 0x9AD PUSH2 0xB6F JUMP JUMPDEST JUMPDEST DUP2 PUSH32 0x8000000000000000000000000000000000000000000000000000000000000000 SDIV DUP4 SLT PUSH1 0x0 DUP5 SLT PUSH1 0x0 DUP5 SGT AND AND ISZERO PUSH2 0x9EB JUMPI PUSH2 0x9EA PUSH2 0xB6F JUMP JUMPDEST JUMPDEST DUP3 PUSH32 0x8000000000000000000000000000000000000000000000000000000000000000 SDIV DUP3 SLT PUSH1 0x0 DUP5 SGT PUSH1 0x0 DUP5 SLT AND AND ISZERO PUSH2 0xA28 JUMPI PUSH2 0xA27 PUSH2 0xB6F JUMP JUMPDEST JUMPDEST DUP3 PUSH32 0x7FFFFFFFFFFFFFFFFFFFFFFFFFFFFFFFFFFFFFFFFFFFFFFFFFFFFFFFFFFFFFFF SDIV DUP3 SLT PUSH1 0x0 DUP5 SLT PUSH1 0x0 DUP5 SLT AND AND ISZERO PUSH2 0xA65 JUMPI PUSH2 0xA64 PUSH2 0xB6F JUMP JUMPDEST JUMPDEST DUP3 DUP3 MUL SWAP1 POP SWAP3 SWAP2 POP POP JUMP JUMPDEST PUSH1 0x0 PUSH2 0xA7B DUP3 PUSH2 0xB06 JUMP JUMPDEST SWAP2 POP PUSH2 0xA86 DUP4 PUSH2 0xB06 JUMP JUMPDEST SWAP3 POP DUP2 PUSH32 0xFFFFFFFFFFFFFFFFFFFFFFFFFFFFFFFFFFFFFFFFFFFFFFFFFFFFFFFFFFFFFFFF DIV DUP4 GT DUP3 ISZERO ISZERO AND ISZERO PUSH2 0xABF JUMPI PUSH2 0xABE PUSH2 0xB6F JUMP JUMPDEST JUMPDEST DUP3 DUP3 MUL SWAP1 POP SWAP3 SWAP2 POP POP JUMP JUMPDEST PUSH1 0x0 PUSH2 0xAD5 DUP3 PUSH2 0xAE6 JUMP JUMPDEST SWAP1 POP SWAP2 SWAP1 POP JUMP JUMPDEST PUSH1 0x0 DUP2 SWAP1 POP SWAP2 SWAP1 POP JUMP JUMPDEST PUSH1 0x0 PUSH20 0xFFFFFFFFFFFFFFFFFFFFFFFFFFFFFFFFFFFFFFFF DUP3 AND SWAP1 POP SWAP2 SWAP1 POP JUMP JUMPDEST PUSH1 0x0 DUP2 SWAP1 POP SWAP2 SWAP1 POP JUMP JUMPDEST PUSH1 0x0 PUSH10 0xFFFFFFFFFFFFFFFFFFFF DUP3 AND SWAP1 POP SWAP2 SWAP1 POP JUMP JUMPDEST PUSH1 0x0 PUSH2 0xB31 DUP3 PUSH2 0xB06 JUMP JUMPDEST SWAP2 POP PUSH32 0xFFFFFFFFFFFFFFFFFFFFFFFFFFFFFFFFFFFFFFFFFFFFFFFFFFFFFFFFFFFFFFFF DUP3 EQ ISZERO PUSH2 0xB64 JUMPI PUSH2 0xB63 PUSH2 0xB6F JUMP JUMPDEST JUMPDEST PUSH1 0x1 DUP3 ADD SWAP1 POP SWAP2 SWAP1 POP JUMP JUMPDEST PUSH32 0x4E487B7100000000000000000000000000000000000000000000000000000000 PUSH1 0x0 MSTORE PUSH1 0x11 PUSH1 0x4 MSTORE PUSH1 0x24 PUSH1 0x0 REVERT JUMPDEST PUSH32 0x4E487B7100000000000000000000000000000000000000000000000000000000 PUSH1 0x0 MSTORE PUSH1 0x12 PUSH1 0x4 MSTORE PUSH1 0x24 PUSH1 0x0 REVERT JUMPDEST PUSH32 0x4E487B7100000000000000000000000000000000000000000000000000000000 PUSH1 0x0 MSTORE PUSH1 0x32 PUSH1 0x4 MSTORE PUSH1 0x24 PUSH1 0x0 REVERT JUMPDEST PUSH32 0x4E487B7100000000000000000000000000000000000000000000000000000000 PUSH1 0x0 MSTORE PUSH1 0x41 PUSH1 0x4 MSTORE PUSH1 0x24 PUSH1 0x0 REVERT JUMPDEST PUSH1 0x0 DUP1 REVERT JUMPDEST PUSH32 0x4E6F7420656E6F75676800000000000000000000000000000000000000000000 PUSH1 0x0 DUP3 ADD MSTORE POP JUMP JUMPDEST PUSH32 0x63616C6C206661696C6564000000000000000000000000000000000000000000 PUSH1 0x0 DUP3 ADD MSTORE POP JUMP JUMPDEST POP JUMP JUMPDEST PUSH2 0xC8E DUP2 PUSH2 0xACA JUMP JUMPDEST DUP2 EQ PUSH2 0xC99 JUMPI PUSH1 0x0 DUP1 REVERT JUMPDEST POP JUMP JUMPDEST PUSH2 0xCA5 DUP2 PUSH2 0xADC JUMP JUMPDEST DUP2 EQ PUSH2 0xCB0 JUMPI PUSH1 0x0 DUP1 REVERT JUMPDEST POP JUMP JUMPDEST PUSH2 0xCBC DUP2 PUSH2 0xB06 JUMP JUMPDEST DUP2 EQ PUSH2 0xCC7 JUMPI PUSH1 0x0 DUP1 REVERT JUMPDEST POP JUMP JUMPDEST PUSH2 0xCD3 DUP2 PUSH2 0xB10 JUMP JUMPDEST DUP2 EQ PUSH2 0xCDE JUMPI PUSH1 0x0 DUP1 REVERT JUMPDEST POP JUMP INVALID LOG2 PUSH5 0x6970667358 0x22 SLT KECCAK256 0xED SWAP5 EXTCODESIZE 0x1E CALLDATACOPY SWAP12 PUSH12 0xE39FAAE0EB0A5F06F218FE28 KECCAK256 CREATE PUSH27 0xC9829ADDD357C4C487F964736F6C63430008070033000000000000 "
				},
				"gasEstimates": {
					"creation": {
						"codeDepositCost": "670200",
						"executionCost": "infinite",
						"totalCost": "infinite"
					},
					"external": {
						"MINIUM_USD()": "351",
						"addressToAmountFunded(address)": "2814",
						"fund()": "infinite",
						"funders(uint256)": "5044",
						"i_owner()": "infinite",
						"withdraw()": "infinite"
					}
				},
				"methodIdentifiers": {
					"MINIUM_USD()": "9b366b76",
					"addressToAmountFunded(address)": "3e47d6f3",
					"fund()": "b60d4288",
					"funders(uint256)": "dc0d3dff",
					"i_owner()": "dba6335f",
					"withdraw()": "3ccfd60b"
				}
			},
			"storageLayout": {
				"storage": [
					{
						"astId": 61,
						"contract": "contracts/FundMe.sol:fundMe",
						"label": "funders",
						"offset": 0,
						"slot": "0",
						"type": "t_array(t_address)dyn_storage"
					},
					{
						"astId": 65,
						"contract": "contracts/FundMe.sol:fundMe",
						"label": "addressToAmountFunded",
						"offset": 0,
						"slot": "1",
						"type": "t_mapping(t_address,t_uint256)"
					}
				],
				"types": {
					"t_address": {
						"encoding": "inplace",
						"label": "address",
						"numberOfBytes": "20"
					},
					"t_array(t_address)dyn_storage": {
						"base": "t_address",
						"encoding": "dynamic_array",
						"label": "address[]",
						"numberOfBytes": "32"
					},
					"t_mapping(t_address,t_uint256)": {
						"encoding": "mapping",
						"key": "t_address",
						"label": "mapping(address => uint256)",
						"numberOfBytes": "32",
						"value": "t_uint256"
					},
					"t_uint256": {
						"encoding": "inplace",
						"label": "uint256",
						"numberOfBytes": "32"
					}
				}
			},
			"userdoc": {
				"kind": "user",
				"methods": {},
				"version": 1
			}
		}
	}
}