{
	"data": {
		"bytecode": {
			"linkReferences": {},
			"object": "608060405234801561001057600080fd5b50610d47806100206000396000f3fe608060405234801561001057600080fd5b506004361061004c5760003560e01c80631563700f1461005157806364591bf11461006d578063969c7f5a1461009d578063c5f19c20146100a7575b600080fd5b61006b600480360381019061006691906103ab565b6100d7565b005b61008760048036038101906100829190610351565b610184565b6040516100949190610409565b60405180910390f35b6100a56101c3565b005b6100c160048036038101906100bc9190610351565b610256565b6040516100ce9190610424565b60405180910390f35b600082815481106100eb576100ea61049f565b5b9060005260206000200160009054906101000a900473ffffffffffffffffffffffffffffffffffffffff1673ffffffffffffffffffffffffffffffffffffffff16636057361d826040518263ffffffff1660e01b815260040161014e9190610424565b600060405180830381600087803b15801561016857600080fd5b505af115801561017c573d6000803e3d6000fd5b505050505050565b6000818154811061019457600080fd5b906000526020600020016000915054906101000a900473ffffffffffffffffffffffffffffffffffffffff1681565b60006040516101d19061031a565b604051809103906000f0801580156101ed573d6000803e3d6000fd5b5090506000819080600181540180825580915050600190039060005260206000200160009091909190916101000a81548173ffffffffffffffffffffffffffffffffffffffff021916908373ffffffffffffffffffffffffffffffffffffffff16021790555050565b600080828154811061026b5761026a61049f565b5b9060005260206000200160009054906101000a900473ffffffffffffffffffffffffffffffffffffffff1673ffffffffffffffffffffffffffffffffffffffff16632e64cec16040518163ffffffff1660e01b815260040160206040518083038186803b1580156102db57600080fd5b505afa1580156102ef573d6000803e3d6000fd5b505050506040513d601f19601f82011682018060405250810190610313919061037e565b9050919050565b610827806104eb83390190565b600081359050610336816104d3565b92915050565b60008151905061034b816104d3565b92915050565b600060208284031215610367576103666104ce565b5b600061037584828501610327565b91505092915050565b600060208284031215610394576103936104ce565b5b60006103a28482850161033c565b91505092915050565b600080604083850312156103c2576103c16104ce565b5b60006103d085828601610327565b92505060206103e185828601610327565b9150509250929050565b6103f481610469565b82525050565b6104038161045f565b82525050565b600060208201905061041e60008301846103eb565b92915050565b600060208201905061043960008301846103fa565b92915050565b600073ffffffffffffffffffffffffffffffffffffffff82169050919050565b6000819050919050565b60006104748261047b565b9050919050565b60006104868261048d565b9050919050565b60006104988261043f565b9050919050565b7f4e487b7100000000000000000000000000000000000000000000000000000000600052603260045260246000fd5b600080fd5b6104dc8161045f565b81146104e757600080fd5b5056fe608060405234801561001057600080fd5b50610807806100206000396000f3fe608060405234801561001057600080fd5b50600436106100575760003560e01c80632e64cec11461005c5780636057361d1461007a5780636f760f41146100965780638bab8dd5146100b25780639e7a13ad146100e2575b600080fd5b610064610113565b6040516100719190610537565b60405180910390f35b610094600480360381019061008f919061047a565b610129565b005b6100b060048036038101906100ab919061041e565b610133565b005b6100cc60048036038101906100c791906103d5565b6101c3565b6040516100d99190610537565b60405180910390f35b6100fc60048036038101906100f7919061047a565b6101f1565b60405161010a929190610552565b60405180910390f35b6000600260005461012491906105ff565b905090565b8060008190555050565b600260405180604001604052808381526020018481525090806001815401808255809150506001900390600052602060002090600202016000909190919091506000820151816000015560208201518160010190805190602001906101999291906102ad565b505050806001836040516101ad9190610520565b9081526020016040518091039020819055505050565b6001818051602081018201805184825260208301602085012081835280955050505050506000915090505481565b6002818154811061020157600080fd5b906000526020600020906002020160009150905080600001549080600101805461022a906106a5565b80601f0160208091040260200160405190810160405280929190818152602001828054610256906106a5565b80156102a35780601f10610278576101008083540402835291602001916102a3565b820191906000526020600020905b81548152906001019060200180831161028657829003601f168201915b5050505050905082565b8280546102b9906106a5565b90600052602060002090601f0160209004810192826102db5760008555610322565b82601f106102f457805160ff1916838001178555610322565b82800160010185558215610322579182015b82811115610321578251825591602001919060010190610306565b5b50905061032f9190610333565b5090565b5b8082111561034c576000816000905550600101610334565b5090565b600061036361035e846105a7565b610582565b90508281526020810184848401111561037f5761037e61079a565b5b61038a848285610663565b509392505050565b600082601f8301126103a7576103a6610795565b5b81356103b7848260208601610350565b91505092915050565b6000813590506103cf816107ba565b92915050565b6000602082840312156103eb576103ea6107a4565b5b600082013567ffffffffffffffff8111156104095761040861079f565b5b61041584828501610392565b91505092915050565b60008060408385031215610435576104346107a4565b5b600083013567ffffffffffffffff8111156104535761045261079f565b5b61045f85828601610392565b9250506020610470858286016103c0565b9150509250929050565b6000602082840312156104905761048f6107a4565b5b600061049e848285016103c0565b91505092915050565b60006104b2826105d8565b6104bc81856105e3565b93506104cc818560208601610672565b6104d5816107a9565b840191505092915050565b60006104eb826105d8565b6104f581856105f4565b9350610505818560208601610672565b80840191505092915050565b61051a81610659565b82525050565b600061052c82846104e0565b915081905092915050565b600060208201905061054c6000830184610511565b92915050565b60006040820190506105676000830185610511565b818103602083015261057981846104a7565b90509392505050565b600061058c61059d565b905061059882826106d7565b919050565b6000604051905090565b600067ffffffffffffffff8211156105c2576105c1610766565b5b6105cb826107a9565b9050602081019050919050565b600081519050919050565b600082825260208201905092915050565b600081905092915050565b600061060a82610659565b915061061583610659565b9250817fffffffffffffffffffffffffffffffffffffffffffffffffffffffffffffffff048311821515161561064e5761064d610708565b5b828202905092915050565b6000819050919050565b82818337600083830152505050565b60005b83811015610690578082015181840152602081019050610675565b8381111561069f576000848401525b50505050565b600060028204905060018216806106bd57607f821691505b602082108114156106d1576106d0610737565b5b50919050565b6106e0826107a9565b810181811067ffffffffffffffff821117156106ff576106fe610766565b5b80604052505050565b7f4e487b7100000000000000000000000000000000000000000000000000000000600052601160045260246000fd5b7f4e487b7100000000000000000000000000000000000000000000000000000000600052602260045260246000fd5b7f4e487b7100000000000000000000000000000000000000000000000000000000600052604160045260246000fd5b600080fd5b600080fd5b600080fd5b600080fd5b6000601f19601f8301169050919050565b6107c381610659565b81146107ce57600080fd5b5056fea2646970667358221220680d800ecf5f43866b75d5af22565ba234219d604c15b88b5c74bc500c7e83b864736f6c63430008070033a264697066735822122041a1736a627f2efcc0632ac08336324a39889e3b8b0945a1f63550dd87d1476564736f6c63430008070033",
			"opcodes": "PUSH1 0x80 PUSH1 0x40 MSTORE CALLVALUE DUP1 ISZERO PUSH2 0x10 JUMPI PUSH1 0x0 DUP1 REVERT JUMPDEST POP PUSH2 0xD47 DUP1 PUSH2 0x20 PUSH1 0x0 CODECOPY PUSH1 0x0 RETURN INVALID PUSH1 0x80 PUSH1 0x40 MSTORE CALLVALUE DUP1 ISZERO PUSH2 0x10 JUMPI PUSH1 0x0 DUP1 REVERT JUMPDEST POP PUSH1 0x4 CALLDATASIZE LT PUSH2 0x4C JUMPI PUSH1 0x0 CALLDATALOAD PUSH1 0xE0 SHR DUP1 PUSH4 0x1563700F EQ PUSH2 0x51 JUMPI DUP1 PUSH4 0x64591BF1 EQ PUSH2 0x6D JUMPI DUP1 PUSH4 0x969C7F5A EQ PUSH2 0x9D JUMPI DUP1 PUSH4 0xC5F19C20 EQ PUSH2 0xA7 JUMPI JUMPDEST PUSH1 0x0 DUP1 REVERT JUMPDEST PUSH2 0x6B PUSH1 0x4 DUP1 CALLDATASIZE SUB DUP2 ADD SWAP1 PUSH2 0x66 SWAP2 SWAP1 PUSH2 0x3AB JUMP JUMPDEST PUSH2 0xD7 JUMP JUMPDEST STOP JUMPDEST PUSH2 0x87 PUSH1 0x4 DUP1 CALLDATASIZE SUB DUP2 ADD SWAP1 PUSH2 0x82 SWAP2 SWAP1 PUSH2 0x351 JUMP JUMPDEST PUSH2 0x184 JUMP JUMPDEST PUSH1 0x40 MLOAD PUSH2 0x94 SWAP2 SWAP1 PUSH2 0x409 JUMP JUMPDEST PUSH1 0x40 MLOAD DUP1 SWAP2 SUB SWAP1 RETURN JUMPDEST PUSH2 0xA5 PUSH2 0x1C3 JUMP JUMPDEST STOP JUMPDEST PUSH2 0xC1 PUSH1 0x4 DUP1 CALLDATASIZE SUB DUP2 ADD SWAP1 PUSH2 0xBC SWAP2 SWAP1 PUSH2 0x351 JUMP JUMPDEST PUSH2 0x256 JUMP JUMPDEST PUSH1 0x40 MLOAD PUSH2 0xCE SWAP2 SWAP1 PUSH2 0x424 JUMP JUMPDEST PUSH1 0x40 MLOAD DUP1 SWAP2 SUB SWAP1 RETURN JUMPDEST PUSH1 0x0 DUP3 DUP2 SLOAD DUP2 LT PUSH2 0xEB JUMPI PUSH2 0xEA PUSH2 0x49F JUMP JUMPDEST JUMPDEST SWAP1 PUSH1 0x0 MSTORE PUSH1 0x20 PUSH1 0x0 KECCAK256 ADD PUSH1 0x0 SWAP1 SLOAD SWAP1 PUSH2 0x100 EXP SWAP1 DIV PUSH20 0xFFFFFFFFFFFFFFFFFFFFFFFFFFFFFFFFFFFFFFFF AND PUSH20 0xFFFFFFFFFFFFFFFFFFFFFFFFFFFFFFFFFFFFFFFF AND PUSH4 0x6057361D DUP3 PUSH1 0x40 MLOAD DUP3 PUSH4 0xFFFFFFFF AND PUSH1 0xE0 SHL DUP2 MSTORE PUSH1 0x4 ADD PUSH2 0x14E SWAP2 SWAP1 PUSH2 0x424 JUMP JUMPDEST PUSH1 0x0 PUSH1 0x40 MLOAD DUP1 DUP4 SUB DUP2 PUSH1 0x0 DUP8 DUP1 EXTCODESIZE ISZERO DUP1 ISZERO PUSH2 0x168 JUMPI PUSH1 0x0 DUP1 REVERT JUMPDEST POP GAS CALL ISZERO DUP1 ISZERO PUSH2 0x17C JUMPI RETURNDATASIZE PUSH1 0x0 DUP1 RETURNDATACOPY RETURNDATASIZE PUSH1 0x0 REVERT JUMPDEST POP POP POP POP POP POP JUMP JUMPDEST PUSH1 0x0 DUP2 DUP2 SLOAD DUP2 LT PUSH2 0x194 JUMPI PUSH1 0x0 DUP1 REVERT JUMPDEST SWAP1 PUSH1 0x0 MSTORE PUSH1 0x20 PUSH1 0x0 KECCAK256 ADD PUSH1 0x0 SWAP2 POP SLOAD SWAP1 PUSH2 0x100 EXP SWAP1 DIV PUSH20 0xFFFFFFFFFFFFFFFFFFFFFFFFFFFFFFFFFFFFFFFF AND DUP2 JUMP JUMPDEST PUSH1 0x0 PUSH1 0x40 MLOAD PUSH2 0x1D1 SWAP1 PUSH2 0x31A JUMP JUMPDEST PUSH1 0x40 MLOAD DUP1 SWAP2 SUB SWAP1 PUSH1 0x0 CREATE DUP1 ISZERO DUP1 ISZERO PUSH2 0x1ED JUMPI RETURNDATASIZE PUSH1 0x0 DUP1 RETURNDATACOPY RETURNDATASIZE PUSH1 0x0 REVERT JUMPDEST POP SWAP1 POP PUSH1 0x0 DUP2 SWAP1 DUP1 PUSH1 0x1 DUP2 SLOAD ADD DUP1 DUP3 SSTORE DUP1 SWAP2 POP POP PUSH1 0x1 SWAP1 SUB SWAP1 PUSH1 0x0 MSTORE PUSH1 0x20 PUSH1 0x0 KECCAK256 ADD PUSH1 0x0 SWAP1 SWAP2 SWAP1 SWAP2 SWAP1 SWAP2 PUSH2 0x100 EXP DUP2 SLOAD DUP2 PUSH20 0xFFFFFFFFFFFFFFFFFFFFFFFFFFFFFFFFFFFFFFFF MUL NOT AND SWAP1 DUP4 PUSH20 0xFFFFFFFFFFFFFFFFFFFFFFFFFFFFFFFFFFFFFFFF AND MUL OR SWAP1 SSTORE POP POP JUMP JUMPDEST PUSH1 0x0 DUP1 DUP3 DUP2 SLOAD DUP2 LT PUSH2 0x26B JUMPI PUSH2 0x26A PUSH2 0x49F JUMP JUMPDEST JUMPDEST SWAP1 PUSH1 0x0 MSTORE PUSH1 0x20 PUSH1 0x0 KECCAK256 ADD PUSH1 0x0 SWAP1 SLOAD SWAP1 PUSH2 0x100 EXP SWAP1 DIV PUSH20 0xFFFFFFFFFFFFFFFFFFFFFFFFFFFFFFFFFFFFFFFF AND PUSH20 0xFFFFFFFFFFFFFFFFFFFFFFFFFFFFFFFFFFFFFFFF AND PUSH4 0x2E64CEC1 PUSH1 0x40 MLOAD DUP2 PUSH4 0xFFFFFFFF AND PUSH1 0xE0 SHL DUP2 MSTORE PUSH1 0x4 ADD PUSH1 0x20 PUSH1 0x40 MLOAD DUP1 DUP4 SUB DUP2 DUP7 DUP1 EXTCODESIZE ISZERO DUP1 ISZERO PUSH2 0x2DB JUMPI PUSH1 0x0 DUP1 REVERT JUMPDEST POP GAS STATICCALL ISZERO DUP1 ISZERO PUSH2 0x2EF JUMPI RETURNDATASIZE PUSH1 0x0 DUP1 RETURNDATACOPY RETURNDATASIZE PUSH1 0x0 REVERT JUMPDEST POP POP POP POP PUSH1 0x40 MLOAD RETURNDATASIZE PUSH1 0x1F NOT PUSH1 0x1F DUP3 ADD AND DUP3 ADD DUP1 PUSH1 0x40 MSTORE POP DUP2 ADD SWAP1 PUSH2 0x313 SWAP2 SWAP1 PUSH2 0x37E JUMP JUMPDEST SWAP1 POP SWAP2 SWAP1 POP JUMP JUMPDEST PUSH2 0x827 DUP1 PUSH2 0x4EB DUP4 CODECOPY ADD SWAP1 JUMP JUMPDEST PUSH1 0x0 DUP2 CALLDATALOAD SWAP1 POP PUSH2 0x336 DUP2 PUSH2 0x4D3 JUMP JUMPDEST SWAP3 SWAP2 POP POP JUMP JUMPDEST PUSH1 0x0 DUP2 MLOAD SWAP1 POP PUSH2 0x34B DUP2 PUSH2 0x4D3 JUMP JUMPDEST SWAP3 SWAP2 POP POP JUMP JUMPDEST PUSH1 0x0 PUSH1 0x20 DUP3 DUP5 SUB SLT ISZERO PUSH2 0x367 JUMPI PUSH2 0x366 PUSH2 0x4CE JUMP JUMPDEST JUMPDEST PUSH1 0x0 PUSH2 0x375 DUP5 DUP3 DUP6 ADD PUSH2 0x327 JUMP JUMPDEST SWAP2 POP POP SWAP3 SWAP2 POP POP JUMP JUMPDEST PUSH1 0x0 PUSH1 0x20 DUP3 DUP5 SUB SLT ISZERO PUSH2 0x394 JUMPI PUSH2 0x393 PUSH2 0x4CE JUMP JUMPDEST JUMPDEST PUSH1 0x0 PUSH2 0x3A2 DUP5 DUP3 DUP6 ADD PUSH2 0x33C JUMP JUMPDEST SWAP2 POP POP SWAP3 SWAP2 POP POP JUMP JUMPDEST PUSH1 0x0 DUP1 PUSH1 0x40 DUP4 DUP6 SUB SLT ISZERO PUSH2 0x3C2 JUMPI PUSH2 0x3C1 PUSH2 0x4CE JUMP JUMPDEST JUMPDEST PUSH1 0x0 PUSH2 0x3D0 DUP6 DUP3 DUP7 ADD PUSH2 0x327 JUMP JUMPDEST SWAP3 POP POP PUSH1 0x20 PUSH2 0x3E1 DUP6 DUP3 DUP7 ADD PUSH2 0x327 JUMP JUMPDEST SWAP2 POP POP SWAP3 POP SWAP3 SWAP1 POP JUMP JUMPDEST PUSH2 0x3F4 DUP2 PUSH2 0x469 JUMP JUMPDEST DUP3 MSTORE POP POP JUMP JUMPDEST PUSH2 0x403 DUP2 PUSH2 0x45F JUMP JUMPDEST DUP3 MSTORE POP POP JUMP JUMPDEST PUSH1 0x0 PUSH1 0x20 DUP3 ADD SWAP1 POP PUSH2 0x41E PUSH1 0x0 DUP4 ADD DUP5 PUSH2 0x3EB JUMP JUMPDEST SWAP3 SWAP2 POP POP JUMP JUMPDEST PUSH1 0x0 PUSH1 0x20 DUP3 ADD SWAP1 POP PUSH2 0x439 PUSH1 0x0 DUP4 ADD DUP5 PUSH2 0x3FA JUMP JUMPDEST SWAP3 SWAP2 POP POP JUMP JUMPDEST PUSH1 0x0 PUSH20 0xFFFFFFFFFFFFFFFFFFFFFFFFFFFFFFFFFFFFFFFF DUP3 AND SWAP1 POP SWAP2 SWAP1 POP JUMP JUMPDEST PUSH1 0x0 DUP2 SWAP1 POP SWAP2 SWAP1 POP JUMP JUMPDEST PUSH1 0x0 PUSH2 0x474 DUP3 PUSH2 0x47B JUMP JUMPDEST SWAP1 POP SWAP2 SWAP1 POP JUMP JUMPDEST PUSH1 0x0 PUSH2 0x486 DUP3 PUSH2 0x48D JUMP JUMPDEST SWAP1 POP SWAP2 SWAP1 POP JUMP JUMPDEST PUSH1 0x0 PUSH2 0x498 DUP3 PUSH2 0x43F JUMP JUMPDEST SWAP1 POP SWAP2 SWAP1 POP JUMP JUMPDEST PUSH32 0x4E487B7100000000000000000000000000000000000000000000000000000000 PUSH1 0x0 MSTORE PUSH1 0x32 PUSH1 0x4 MSTORE PUSH1 0x24 PUSH1 0x0 REVERT JUMPDEST PUSH1 0x0 DUP1 REVERT JUMPDEST PUSH2 0x4DC DUP2 PUSH2 0x45F JUMP JUMPDEST DUP2 EQ PUSH2 0x4E7 JUMPI PUSH1 0x0 DUP1 REVERT JUMPDEST POP JUMP INVALID PUSH1 0x80 PUSH1 0x40 MSTORE CALLVALUE DUP1 ISZERO PUSH2 0x10 JUMPI PUSH1 0x0 DUP1 REVERT JUMPDEST POP PUSH2 0x807 DUP1 PUSH2 0x20 PUSH1 0x0 CODECOPY PUSH1 0x0 RETURN INVALID PUSH1 0x80 PUSH1 0x40 MSTORE CALLVALUE DUP1 ISZERO PUSH2 0x10 JUMPI PUSH1 0x0 DUP1 REVERT JUMPDEST POP PUSH1 0x4 CALLDATASIZE LT PUSH2 0x57 JUMPI PUSH1 0x0 CALLDATALOAD PUSH1 0xE0 SHR DUP1 PUSH4 0x2E64CEC1 EQ PUSH2 0x5C JUMPI DUP1 PUSH4 0x6057361D EQ PUSH2 0x7A JUMPI DUP1 PUSH4 0x6F760F41 EQ PUSH2 0x96 JUMPI DUP1 PUSH4 0x8BAB8DD5 EQ PUSH2 0xB2 JUMPI DUP1 PUSH4 0x9E7A13AD EQ PUSH2 0xE2 JUMPI JUMPDEST PUSH1 0x0 DUP1 REVERT JUMPDEST PUSH2 0x64 PUSH2 0x113 JUMP JUMPDEST PUSH1 0x40 MLOAD PUSH2 0x71 SWAP2 SWAP1 PUSH2 0x537 JUMP JUMPDEST PUSH1 0x40 MLOAD DUP1 SWAP2 SUB SWAP1 RETURN JUMPDEST PUSH2 0x94 PUSH1 0x4 DUP1 CALLDATASIZE SUB DUP2 ADD SWAP1 PUSH2 0x8F SWAP2 SWAP1 PUSH2 0x47A JUMP JUMPDEST PUSH2 0x129 JUMP JUMPDEST STOP JUMPDEST PUSH2 0xB0 PUSH1 0x4 DUP1 CALLDATASIZE SUB DUP2 ADD SWAP1 PUSH2 0xAB SWAP2 SWAP1 PUSH2 0x41E JUMP JUMPDEST PUSH2 0x133 JUMP JUMPDEST STOP JUMPDEST PUSH2 0xCC PUSH1 0x4 DUP1 CALLDATASIZE SUB DUP2 ADD SWAP1 PUSH2 0xC7 SWAP2 SWAP1 PUSH2 0x3D5 JUMP JUMPDEST PUSH2 0x1C3 JUMP JUMPDEST PUSH1 0x40 MLOAD PUSH2 0xD9 SWAP2 SWAP1 PUSH2 0x537 JUMP JUMPDEST PUSH1 0x40 MLOAD DUP1 SWAP2 SUB SWAP1 RETURN JUMPDEST PUSH2 0xFC PUSH1 0x4 DUP1 CALLDATASIZE SUB DUP2 ADD SWAP1 PUSH2 0xF7 SWAP2 SWAP1 PUSH2 0x47A JUMP JUMPDEST PUSH2 0x1F1 JUMP JUMPDEST PUSH1 0x40 MLOAD PUSH2 0x10A SWAP3 SWAP2 SWAP1 PUSH2 0x552 JUMP JUMPDEST PUSH1 0x40 MLOAD DUP1 SWAP2 SUB SWAP1 RETURN JUMPDEST PUSH1 0x0 PUSH1 0x2 PUSH1 0x0 SLOAD PUSH2 0x124 SWAP2 SWAP1 PUSH2 0x5FF JUMP JUMPDEST SWAP1 POP SWAP1 JUMP JUMPDEST DUP1 PUSH1 0x0 DUP2 SWAP1 SSTORE POP POP JUMP JUMPDEST PUSH1 0x2 PUSH1 0x40 MLOAD DUP1 PUSH1 0x40 ADD PUSH1 0x40 MSTORE DUP1 DUP4 DUP2 MSTORE PUSH1 0x20 ADD DUP5 DUP2 MSTORE POP SWAP1 DUP1 PUSH1 0x1 DUP2 SLOAD ADD DUP1 DUP3 SSTORE DUP1 SWAP2 POP POP PUSH1 0x1 SWAP1 SUB SWAP1 PUSH1 0x0 MSTORE PUSH1 0x20 PUSH1 0x0 KECCAK256 SWAP1 PUSH1 0x2 MUL ADD PUSH1 0x0 SWAP1 SWAP2 SWAP1 SWAP2 SWAP1 SWAP2 POP PUSH1 0x0 DUP3 ADD MLOAD DUP2 PUSH1 0x0 ADD SSTORE PUSH1 0x20 DUP3 ADD MLOAD DUP2 PUSH1 0x1 ADD SWAP1 DUP1 MLOAD SWAP1 PUSH1 0x20 ADD SWAP1 PUSH2 0x199 SWAP3 SWAP2 SWAP1 PUSH2 0x2AD JUMP JUMPDEST POP POP POP DUP1 PUSH1 0x1 DUP4 PUSH1 0x40 MLOAD PUSH2 0x1AD SWAP2 SWAP1 PUSH2 0x520 JUMP JUMPDEST SWAP1 DUP2 MSTORE PUSH1 0x20 ADD PUSH1 0x40 MLOAD DUP1 SWAP2 SUB SWAP1 KECCAK256 DUP2 SWAP1 SSTORE POP POP POP JUMP JUMPDEST PUSH1 0x1 DUP2 DUP1 MLOAD PUSH1 0x20 DUP2 ADD DUP3 ADD DUP1 MLOAD DUP5 DUP3 MSTORE PUSH1 0x20 DUP4 ADD PUSH1 0x20 DUP6 ADD KECCAK256 DUP2 DUP4 MSTORE DUP1 SWAP6 POP POP POP POP POP POP PUSH1 0x0 SWAP2 POP SWAP1 POP SLOAD DUP2 JUMP JUMPDEST PUSH1 0x2 DUP2 DUP2 SLOAD DUP2 LT PUSH2 0x201 JUMPI PUSH1 0x0 DUP1 REVERT JUMPDEST SWAP1 PUSH1 0x0 MSTORE PUSH1 0x20 PUSH1 0x0 KECCAK256 SWAP1 PUSH1 0x2 MUL ADD PUSH1 0x0 SWAP2 POP SWAP1 POP DUP1 PUSH1 0x0 ADD SLOAD SWAP1 DUP1 PUSH1 0x1 ADD DUP1 SLOAD PUSH2 0x22A SWAP1 PUSH2 0x6A5 JUMP JUMPDEST DUP1 PUSH1 0x1F ADD PUSH1 0x20 DUP1 SWAP2 DIV MUL PUSH1 0x20 ADD PUSH1 0x40 MLOAD SWAP1 DUP2 ADD PUSH1 0x40 MSTORE DUP1 SWAP3 SWAP2 SWAP1 DUP2 DUP2 MSTORE PUSH1 0x20 ADD DUP3 DUP1 SLOAD PUSH2 0x256 SWAP1 PUSH2 0x6A5 JUMP JUMPDEST DUP1 ISZERO PUSH2 0x2A3 JUMPI DUP1 PUSH1 0x1F LT PUSH2 0x278 JUMPI PUSH2 0x100 DUP1 DUP4 SLOAD DIV MUL DUP4 MSTORE SWAP2 PUSH1 0x20 ADD SWAP2 PUSH2 0x2A3 JUMP JUMPDEST DUP3 ADD SWAP2 SWAP1 PUSH1 0x0 MSTORE PUSH1 0x20 PUSH1 0x0 KECCAK256 SWAP1 JUMPDEST DUP2 SLOAD DUP2 MSTORE SWAP1 PUSH1 0x1 ADD SWAP1 PUSH1 0x20 ADD DUP1 DUP4 GT PUSH2 0x286 JUMPI DUP3 SWAP1 SUB PUSH1 0x1F AND DUP3 ADD SWAP2 JUMPDEST POP POP POP POP POP SWAP1 POP DUP3 JUMP JUMPDEST DUP3 DUP1 SLOAD PUSH2 0x2B9 SWAP1 PUSH2 0x6A5 JUMP JUMPDEST SWAP1 PUSH1 0x0 MSTORE PUSH1 0x20 PUSH1 0x0 KECCAK256 SWAP1 PUSH1 0x1F ADD PUSH1 0x20 SWAP1 DIV DUP2 ADD SWAP3 DUP3 PUSH2 0x2DB JUMPI PUSH1 0x0 DUP6 SSTORE PUSH2 0x322 JUMP JUMPDEST DUP3 PUSH1 0x1F LT PUSH2 0x2F4 JUMPI DUP1 MLOAD PUSH1 0xFF NOT AND DUP4 DUP1 ADD OR DUP6 SSTORE PUSH2 0x322 JUMP JUMPDEST DUP3 DUP1 ADD PUSH1 0x1 ADD DUP6 SSTORE DUP3 ISZERO PUSH2 0x322 JUMPI SWAP2 DUP3 ADD JUMPDEST DUP3 DUP2 GT ISZERO PUSH2 0x321 JUMPI DUP3 MLOAD DUP3 SSTORE SWAP2 PUSH1 0x20 ADD SWAP2 SWAP1 PUSH1 0x1 ADD SWAP1 PUSH2 0x306 JUMP JUMPDEST JUMPDEST POP SWAP1 POP PUSH2 0x32F SWAP2 SWAP1 PUSH2 0x333 JUMP JUMPDEST POP SWAP1 JUMP JUMPDEST JUMPDEST DUP1 DUP3 GT ISZERO PUSH2 0x34C JUMPI PUSH1 0x0 DUP2 PUSH1 0x0 SWAP1 SSTORE POP PUSH1 0x1 ADD PUSH2 0x334 JUMP JUMPDEST POP SWAP1 JUMP JUMPDEST PUSH1 0x0 PUSH2 0x363 PUSH2 0x35E DUP5 PUSH2 0x5A7 JUMP JUMPDEST PUSH2 0x582 JUMP JUMPDEST SWAP1 POP DUP3 DUP2 MSTORE PUSH1 0x20 DUP2 ADD DUP5 DUP5 DUP5 ADD GT ISZERO PUSH2 0x37F JUMPI PUSH2 0x37E PUSH2 0x79A JUMP JUMPDEST JUMPDEST PUSH2 0x38A DUP5 DUP3 DUP6 PUSH2 0x663 JUMP JUMPDEST POP SWAP4 SWAP3 POP POP POP JUMP JUMPDEST PUSH1 0x0 DUP3 PUSH1 0x1F DUP4 ADD SLT PUSH2 0x3A7 JUMPI PUSH2 0x3A6 PUSH2 0x795 JUMP JUMPDEST JUMPDEST DUP2 CALLDATALOAD PUSH2 0x3B7 DUP5 DUP3 PUSH1 0x20 DUP7 ADD PUSH2 0x350 JUMP JUMPDEST SWAP2 POP POP SWAP3 SWAP2 POP POP JUMP JUMPDEST PUSH1 0x0 DUP2 CALLDATALOAD SWAP1 POP PUSH2 0x3CF DUP2 PUSH2 0x7BA JUMP JUMPDEST SWAP3 SWAP2 POP POP JUMP JUMPDEST PUSH1 0x0 PUSH1 0x20 DUP3 DUP5 SUB SLT ISZERO PUSH2 0x3EB JUMPI PUSH2 0x3EA PUSH2 0x7A4 JUMP JUMPDEST JUMPDEST PUSH1 0x0 DUP3 ADD CALLDATALOAD PUSH8 0xFFFFFFFFFFFFFFFF DUP2 GT ISZERO PUSH2 0x409 JUMPI PUSH2 0x408 PUSH2 0x79F JUMP JUMPDEST JUMPDEST PUSH2 0x415 DUP5 DUP3 DUP6 ADD PUSH2 0x392 JUMP JUMPDEST SWAP2 POP POP SWAP3 SWAP2 POP POP JUMP JUMPDEST PUSH1 0x0 DUP1 PUSH1 0x40 DUP4 DUP6 SUB SLT ISZERO PUSH2 0x435 JUMPI PUSH2 0x434 PUSH2 0x7A4 JUMP JUMPDEST JUMPDEST PUSH1 0x0 DUP4 ADD CALLDATALOAD PUSH8 0xFFFFFFFFFFFFFFFF DUP2 GT ISZERO PUSH2 0x453 JUMPI PUSH2 0x452 PUSH2 0x79F JUMP JUMPDEST JUMPDEST PUSH2 0x45F DUP6 DUP3 DUP7 ADD PUSH2 0x392 JUMP JUMPDEST SWAP3 POP POP PUSH1 0x20 PUSH2 0x470 DUP6 DUP3 DUP7 ADD PUSH2 0x3C0 JUMP JUMPDEST SWAP2 POP POP SWAP3 POP SWAP3 SWAP1 POP JUMP JUMPDEST PUSH1 0x0 PUSH1 0x20 DUP3 DUP5 SUB SLT ISZERO PUSH2 0x490 JUMPI PUSH2 0x48F PUSH2 0x7A4 JUMP JUMPDEST JUMPDEST PUSH1 0x0 PUSH2 0x49E DUP5 DUP3 DUP6 ADD PUSH2 0x3C0 JUMP JUMPDEST SWAP2 POP POP SWAP3 SWAP2 POP POP JUMP JUMPDEST PUSH1 0x0 PUSH2 0x4B2 DUP3 PUSH2 0x5D8 JUMP JUMPDEST PUSH2 0x4BC DUP2 DUP6 PUSH2 0x5E3 JUMP JUMPDEST SWAP4 POP PUSH2 0x4CC DUP2 DUP6 PUSH1 0x20 DUP7 ADD PUSH2 0x672 JUMP JUMPDEST PUSH2 0x4D5 DUP2 PUSH2 0x7A9 JUMP JUMPDEST DUP5 ADD SWAP2 POP POP SWAP3 SWAP2 POP POP JUMP JUMPDEST PUSH1 0x0 PUSH2 0x4EB DUP3 PUSH2 0x5D8 JUMP JUMPDEST PUSH2 0x4F5 DUP2 DUP6 PUSH2 0x5F4 JUMP JUMPDEST SWAP4 POP PUSH2 0x505 DUP2 DUP6 PUSH1 0x20 DUP7 ADD PUSH2 0x672 JUMP JUMPDEST DUP1 DUP5 ADD SWAP2 POP POP SWAP3 SWAP2 POP POP JUMP JUMPDEST PUSH2 0x51A DUP2 PUSH2 0x659 JUMP JUMPDEST DUP3 MSTORE POP POP JUMP JUMPDEST PUSH1 0x0 PUSH2 0x52C DUP3 DUP5 PUSH2 0x4E0 JUMP JUMPDEST SWAP2 POP DUP2 SWAP1 POP SWAP3 SWAP2 POP POP JUMP JUMPDEST PUSH1 0x0 PUSH1 0x20 DUP3 ADD SWAP1 POP PUSH2 0x54C PUSH1 0x0 DUP4 ADD DUP5 PUSH2 0x511 JUMP JUMPDEST SWAP3 SWAP2 POP POP JUMP JUMPDEST PUSH1 0x0 PUSH1 0x40 DUP3 ADD SWAP1 POP PUSH2 0x567 PUSH1 0x0 DUP4 ADD DUP6 PUSH2 0x511 JUMP JUMPDEST DUP2 DUP2 SUB PUSH1 0x20 DUP4 ADD MSTORE PUSH2 0x579 DUP2 DUP5 PUSH2 0x4A7 JUMP JUMPDEST SWAP1 POP SWAP4 SWAP3 POP POP POP JUMP JUMPDEST PUSH1 0x0 PUSH2 0x58C PUSH2 0x59D JUMP JUMPDEST SWAP1 POP PUSH2 0x598 DUP3 DUP3 PUSH2 0x6D7 JUMP JUMPDEST SWAP2 SWAP1 POP JUMP JUMPDEST PUSH1 0x0 PUSH1 0x40 MLOAD SWAP1 POP SWAP1 JUMP JUMPDEST PUSH1 0x0 PUSH8 0xFFFFFFFFFFFFFFFF DUP3 GT ISZERO PUSH2 0x5C2 JUMPI PUSH2 0x5C1 PUSH2 0x766 JUMP JUMPDEST JUMPDEST PUSH2 0x5CB DUP3 PUSH2 0x7A9 JUMP JUMPDEST SWAP1 POP PUSH1 0x20 DUP2 ADD SWAP1 POP SWAP2 SWAP1 POP JUMP JUMPDEST PUSH1 0x0 DUP2 MLOAD SWAP1 POP SWAP2 SWAP1 POP JUMP JUMPDEST PUSH1 0x0 DUP3 DUP3 MSTORE PUSH1 0x20 DUP3 ADD SWAP1 POP SWAP3 SWAP2 POP POP JUMP JUMPDEST PUSH1 0x0 DUP2 SWAP1 POP SWAP3 SWAP2 POP POP JUMP JUMPDEST PUSH1 0x0 PUSH2 0x60A DUP3 PUSH2 0x659 JUMP JUMPDEST SWAP2 POP PUSH2 0x615 DUP4 PUSH2 0x659 JUMP JUMPDEST SWAP3 POP DUP2 PUSH32 0xFFFFFFFFFFFFFFFFFFFFFFFFFFFFFFFFFFFFFFFFFFFFFFFFFFFFFFFFFFFFFFFF DIV DUP4 GT DUP3 ISZERO ISZERO AND ISZERO PUSH2 0x64E JUMPI PUSH2 0x64D PUSH2 0x708 JUMP JUMPDEST JUMPDEST DUP3 DUP3 MUL SWAP1 POP SWAP3 SWAP2 POP POP JUMP JUMPDEST PUSH1 0x0 DUP2 SWAP1 POP SWAP2 SWAP1 POP JUMP JUMPDEST DUP3 DUP2 DUP4 CALLDATACOPY PUSH1 0x0 DUP4 DUP4 ADD MSTORE POP POP POP JUMP JUMPDEST PUSH1 0x0 JUMPDEST DUP4 DUP2 LT ISZERO PUSH2 0x690 JUMPI DUP1 DUP3 ADD MLOAD DUP2 DUP5 ADD MSTORE PUSH1 0x20 DUP2 ADD SWAP1 POP PUSH2 0x675 JUMP JUMPDEST DUP4 DUP2 GT ISZERO PUSH2 0x69F JUMPI PUSH1 0x0 DUP5 DUP5 ADD MSTORE JUMPDEST POP POP POP POP JUMP JUMPDEST PUSH1 0x0 PUSH1 0x2 DUP3 DIV SWAP1 POP PUSH1 0x1 DUP3 AND DUP1 PUSH2 0x6BD JUMPI PUSH1 0x7F DUP3 AND SWAP2 POP JUMPDEST PUSH1 0x20 DUP3 LT DUP2 EQ ISZERO PUSH2 0x6D1 JUMPI PUSH2 0x6D0 PUSH2 0x737 JUMP JUMPDEST JUMPDEST POP SWAP2 SWAP1 POP JUMP JUMPDEST PUSH2 0x6E0 DUP3 PUSH2 0x7A9 JUMP JUMPDEST DUP2 ADD DUP2 DUP2 LT PUSH8 0xFFFFFFFFFFFFFFFF DUP3 GT OR ISZERO PUSH2 0x6FF JUMPI PUSH2 0x6FE PUSH2 0x766 JUMP JUMPDEST JUMPDEST DUP1 PUSH1 0x40 MSTORE POP POP POP JUMP JUMPDEST PUSH32 0x4E487B7100000000000000000000000000000000000000000000000000000000 PUSH1 0x0 MSTORE PUSH1 0x11 PUSH1 0x4 MSTORE PUSH1 0x24 PUSH1 0x0 REVERT JUMPDEST PUSH32 0x4E487B7100000000000000000000000000000000000000000000000000000000 PUSH1 0x0 MSTORE PUSH1 0x22 PUSH1 0x4 MSTORE PUSH1 0x24 PUSH1 0x0 REVERT JUMPDEST PUSH32 0x4E487B7100000000000000000000000000000000000000000000000000000000 PUSH1 0x0 MSTORE PUSH1 0x41 PUSH1 0x4 MSTORE PUSH1 0x24 PUSH1 0x0 REVERT JUMPDEST PUSH1 0x0 DUP1 REVERT JUMPDEST PUSH1 0x0 DUP1 REVERT JUMPDEST PUSH1 0x0 DUP1 REVERT JUMPDEST PUSH1 0x0 DUP1 REVERT JUMPDEST PUSH1 0x0 PUSH1 0x1F NOT PUSH1 0x1F DUP4 ADD AND SWAP1 POP SWAP2 SWAP1 POP JUMP JUMPDEST PUSH2 0x7C3 DUP2 PUSH2 0x659 JUMP JUMPDEST DUP2 EQ PUSH2 0x7CE JUMPI PUSH1 0x0 DUP1 REVERT JUMPDEST POP JUMP INVALID LOG2 PUSH5 0x6970667358 0x22 SLT KECCAK256 PUSH9 0xD800ECF5F43866B75 0xD5 0xAF 0x22 JUMP JUMPDEST LOG2 CALLVALUE 0x21 SWAP14 PUSH1 0x4C ISZERO 0xB8 DUP12 0x5C PUSH21 0xBC500C7E83B864736F6C63430008070033A2646970 PUSH7 0x735822122041A1 PUSH20 0x6A627F2EFCC0632AC08336324A39889E3B8B0945 LOG1 0xF6 CALLDATALOAD POP 0xDD DUP8 0xD1 SELFBALANCE PUSH6 0x64736F6C6343 STOP ADDMOD SMOD STOP CALLER "
		},
		"gasEstimates": {
			"creation": {
				"codeDepositCost": "679800",
				"executionCost": "715",
				"totalCost": "680515"
			},
			"external": {
				"creatSimpleStorageContract()": "infinite",
				"sfGet(uint256)": "infinite",
				"sfStore(uint256,uint256)": "infinite",
				"simpleStorageArray(uint256)": "5042"
			}
		},
		"methodIdentifiers": {
			"creatSimpleStorageContract()": "969c7f5a",
			"sfGet(uint256)": "c5f19c20",
			"sfStore(uint256,uint256)": "1563700f",
			"simpleStorageArray(uint256)": "64591bf1"
		}
	},
	"abi": [
		{
			"inputs": [],
			"name": "creatSimpleStorageContract",
			"outputs": [],
			"stateMutability": "nonpayable",
			"type": "function"
		},
		{
			"inputs": [
				{
					"internalType": "uint256",
					"name": "_simpleStorageIndex",
					"type": "uint256"
				}
			],
			"name": "sfGet",
			"outputs": [
				{
					"internalType": "uint256",
					"name": "",
					"type": "uint256"
				}
			],
			"stateMutability": "view",
			"type": "function"
		},
		{
			"inputs": [
				{
					"internalType": "uint256",
					"name": "_simpleStorageIndex",
					"type": "uint256"
				},
				{
					"internalType": "uint256",
					"name": "_simpleStorageNumber",
					"type": "uint256"
				}
			],
			"name": "sfStore",
			"outputs": [],
			"stateMutability": "nonpayable",
			"type": "function"
		},
		{
			"inputs": [
				{
					"internalType": "uint256",
					"name": "",
					"type": "uint256"
				}
			],
			"name": "simpleStorageArray",
			"outputs": [
				{
					"internalType": "contract SimpleStorage",
					"name": "",
					"type": "address"
				}
			],
			"stateMutability": "view",
			"type": "function"
		}
	]
}